8=FIX.4.4|9=105|35=A|34=1|49=001|50=001B27|52=20190618-20:05:39.681|56=EXC|98=0|108=30|141=Y|553=001FCM001|554=001FCM001|10=093|8=FIX.4.4|9=59|35=0|34=2|49=001|50=001B27|52=20190618-20:06:10.663|56=EXC|10=046|