8=FIX.4.4|9=105|35=A|34=1|49=001|50=001B27|52=20190621-16:29:19.045|56=EXC|98=0|108=30|141=Y|553=001FCM001|554=001FCM001|10=090|