8=FIX.4.4|9=110|35=A|34=1|49=001|50=001B27|52=20190709-22:20:04.995|56=EXC|43=Y|98=0|108=30|141=Y|553=001FCM001|554=001FCM001|10=087|8=FIX.4.4|9=186|35=R|34=2|49=001|50=001B27|52=20190709-22:20:12.356|56=EXC|131=201907091720021_R|146=1|55=TFIC13280425|22=M|762=RFQF|54=1|38=500000000|453=2|448=002B35|447=C|452=37|448=DCV|447=C|452=10|10=062|8=FIX.4.4|9=59|35=0|34=3|49=001|50=001B27|52=20190709-22:20:42.949|56=EXC|10=058|8=FIX.4.4|9=148|35=AJ|34=4|49=001|50=001B27|52=20190709-22:20:53.662|56=EXC|54=1|55=TFIC13280425|117=20190710-000000000023.00|693=201907091720021_AJ|694=1|762=RFQF|10=074|8=FIX.4.4|9=218|35=AE|34=5|49=001|50=001B27|52=20190709-22:21:19.704|56=EXC|22=M|31=84.245|32=500000000|48=20626|55=TFIC13280425|60=20190710-22:26:52.646|487=0|571=201907091720021_AE|762=20626|856=96|880=201907100000000022|552=1|54=2|10=243|