8=FIX.4.4|9=110|35=A|34=1|49=001|50=001B27|52=20190711-00:38:27.986|56=EXC|43=N|98=0|108=30|141=Y|553=001FCM001|554=001FCM001|10=079|8=FIX.4.4|9=190|35=AE|34=2|49=001|50=001B27|52=20190711-00:38:35.291|56=EXC|31=1000|32=100|55=T24Q19F|60=20190710-18:11:18.000|487=0|571=201907101938241_AE|762=FUIR|856=96|880=201907150000000037|552=1|54=1|10=238|