8=FIX.4.4|9=110|35=A|34=1|49=001|50=001B27|52=20190705-20:44:31.481|56=EXC|43=Y|98=0|108=30|141=Y|553=001FCM001|554=001FCM001|10=077|8=FIX.4.4|9=186|35=R|34=2|49=001|50=001B27|52=20190705-20:44:38.845|56=EXC|131=201907051544281_R|146=1|55=TFIC13280425|22=M|762=RFQF|54=1|38=500000000|453=2|448=002B35|447=C|452=37|448=DCV|447=C|452=10|10=081|8=FIX.4.4|9=59|35=0|34=3|49=001|50=001B27|52=20190705-20:45:09.433|56=EXC|10=050|8=FIX.4.4|9=148|35=AJ|34=4|49=001|50=001B27|52=20190705-20:45:19.865|56=EXC|54=1|55=TFIC13280425|117=20190705-000000000019.00|693=201907051544281_AJ|694=1|762=RFQF|10=099|8=FIX.4.4|9=268|35=AE|34=5|49=001|50=001B27|52=20190705-20:45:45.747|56=EXC|22=M|31=84.21|32=500000000|48=20626|54=2|55=TFIC13280425|60=20190705-20:51:15.125|487=0|571=201907051544281_AE|762=20626|856=96|880=201907050000000015|552=1|453=2|448=002B35|447=C|452=37|448=DCV|447=C|452=10|10=105|