8=FIX.4.4|9=110|35=A|34=1|49=001|50=001B27|52=20190703-21:16:39.672|56=EXC|43=Y|98=0|108=30|141=Y|553=001FCM001|554=001FCM001|10=085|8=FIX.4.4|9=186|35=R|34=2|49=001|50=001B27|52=20190703-21:16:47.305|56=EXC|131=201907031616361_R|146=1|55=TFIC13280425|22=M|762=RFQF|54=1|38=500000000|453=2|448=002B35|447=C|452=37|448=DCV|447=C|452=10|10=067|8=FIX.4.4|9=59|35=0|34=3|49=001|50=001B27|52=20190703-21:17:17.610|56=EXC|10=044|8=FIX.4.4|9=148|35=AJ|34=4|49=001|50=001B27|52=20190703-21:17:28.372|56=EXC|54=1|55=TFIC13280425|117=20190703-000000000016.00|693=201907031616361_AJ|694=1|762=RFQF|10=082|8=FIX.4.4|9=59|35=0|34=5|49=001|50=001B27|52=20190703-21:17:58.616|56=EXC|10=057|8=FIX.4.4|9=59|35=5|34=6|49=001|50=001B27|52=20190703-21:18:00.619|56=EXC|10=054|