8=FIX.4.4|9=82|35=A|34=1|49=001|50=001B27|52=20190711-15:18:00.169|56=EXC|43=N|98=0|108=30|141=Y|10=116|