8=FIX.4.4|9=110|35=A|34=1|49=029|50=029B17|52=20190809-15:07:32.669|56=EXC|43=N|98=0|108=30|141=Y|553=029FCM001|554=029FCM001|10=122|8=FIX.4.4|9=59|35=0|34=2|49=029|50=029B17|52=20190809-15:08:03.580|56=EXC|10=073|8=FIX.4.4|9=190|35=AE|34=3|49=029|50=029B17|52=20190809-15:08:24.291|56=EXC|31=120|32=100|55=T24U19F|60=20190809-15:57:24.947|487=2|571=2019080910073034_AE|762=AFIR|856=97|880=201908090000000008|552=1|54=1|10=034|8=FIX.4.4|9=59|35=0|34=4|49=029|50=029B17|52=20190809-15:08:54.580|56=EXC|10=081|8=FIX.4.4|9=59|35=0|34=5|49=029|50=029B17|52=20190809-15:09:24.580|56=EXC|10=080|8=FIX.4.4|9=59|35=0|34=6|49=029|50=029B17|52=20190809-15:09:54.580|56=EXC|10=084|8=FIX.4.4|9=59|35=0|34=7|49=029|50=029B17|52=20190809-15:10:24.580|56=EXC|10=074|8=FIX.4.4|9=59|35=0|34=8|49=029|50=029B17|52=20190809-15:10:54.581|56=EXC|10=079|8=FIX.4.4|9=59|35=0|34=9|49=029|50=029B17|52=20190809-15:11:24.581|56=EXC|10=078|8=FIX.4.4|9=60|35=5|34=10|49=029|50=029B17|52=20190809-15:11:49.582|56=EXC|10=123|