8=FIX.4.4|9=0342|35=AE|34=2|49=EXC|56=071|57=071X01|52=20190712-17:30:29.102|571=8S1|487=0|856=14|17=25|573=0|15=COP|880=201907120000000008|75=20190712|55=T24Q19F|762=FUIR|48=26623|22=M|31=1000.000|32=100|381=250000000000.000|60=20190712-17:30:29.102|64=20190712|552=1|54=2|453=3|448=071X01|447=C|452=12|448=071|447=C|452=1|448=071FCM001|447=C|452=36|1=DP002|10=110|
8=FIX.4.4|9=192|35=AE|34=2|49=071|50=071X01|52=20190712-16:49:29.112|56=EXC|31=1000|32=100|55=T24Q19F|60=20190712-17:27:56.438|487=2|571=201907121149031_AE_R|762=FUIR|856=97|880=201907120000000008|552=1|54=2|10=211|
8=FIX.4.4|9=0342|35=AE|34=3|49=EXC|56=071|57=071X01|52=20190712-17:30:44.171|571=8S1|487=2|856=99|17=26|573=0|15=COP|880=201907120000000008|75=20190712|55=T24Q19F|762=FUIR|48=26623|22=M|31=1000.000|32=100|381=250000000000.000|60=20190712-17:30:44.171|64=20190712|552=1|54=2|453=3|448=071X01|447=C|452=12|448=071|447=C|452=1|448=071FCM001|447=C|452=36|1=DP002|10=133|
8=FIX.4.4|9=192|35=AE|34=3|49=071|50=071X01|52=20190712-16:49:29.174|56=EXC|31=1000|32=100|55=T24Q19F|60=20190712-17:27:56.438|487=2|571=201907121149031_AE_R|762=FUIR|856=97|880=201907120000000008|552=1|54=2|10=220|
8=FIX.4.4|9=0195|35=AR|34=4|49=EXC|56=071|57=071X01|52=20190712-17:30:44.238|571=201907121149031_AE_R|487=2|856=97|939=1|17=27|60=20190712-17:30:44.238|751=99|58=(377): Trades with (U) status cannot be confirmed|10=082|
8=FIX.4.4|9=59|35=5|34=4|49=071|50=071X01|52=20190712-16:49:49.304|56=EXC|10=092|
8=FIX.4.4|9=0049|35=5|34=5|49=EXC|56=071|52=20190712-17:31:04.366|10=191|
8=FIX.4.4|9=110|35=A|34=1|49=071|50=071X01|52=20190712-19:50:07.552|56=EXC|43=N|98=0|108=30|141=Y|553=071FCM001|554=071FCM001|10=113|
8=FIX.4.4|9=0067|35=A|34=1|49=EXC|56=071|52=20190712-20:31:22.780|98=0|108=30|141=Y|10=007|
8=FIX.4.4|9=0342|35=AE|34=2|49=EXC|56=071|57=071X01|52=20190712-20:31:30.130|571=9S1|487=0|856=14|17=33|573=0|15=COP|880=201907120000000009|75=20190712|55=T24Q19F|762=FUIR|48=26623|22=M|31=1000.000|32=100|381=250000000000.000|60=20190712-20:31:30.130|64=20190712|552=1|54=2|453=3|448=071X01|447=C|452=12|448=071|447=C|452=1|448=071FCM001|447=C|452=36|1=DP002|10=087|
<<<<<<< HEAD
8=FIX.4.4|9=110|35=A|34=1|49=071|50=071X01|52=20190715-13:51:20.488|56=EXC|43=N|98=0|108=30|141=Y|553=071FCM001|554=071FCM001|10=114|
8=FIX.4.4|9=0067|35=A|34=1|49=EXC|56=071|52=20190716-15:54:53.770|98=0|108=30|141=Y|10=023|
8=FIX.4.4|9=0342|35=AE|34=2|49=EXC|56=071|57=071X01|52=20190716-15:55:01.130|571=9S1|487=0|856=14|17=16|573=0|15=COP|880=201907160000000009|75=20190716|55=T24Q19F|762=FUIR|48=26623|22=M|31=1000.000|32=100|381=250000000000.000|60=20190716-15:55:01.130|64=20190716|552=1|54=2|453=3|448=071X01|447=C|452=12|448=071|447=C|452=1|448=071FCM001|447=C|452=36|1=DP002|10=124|
8=FIX.4.4|9=110|35=A|34=1|49=071|50=071X01|52=20190715-15:42:11.408|56=EXC|43=N|98=0|108=30|141=Y|553=071FCM001|554=071FCM001|10=108|
8=FIX.4.4|9=0067|35=A|34=1|49=EXC|56=071|52=20190716-16:38:44.713|98=0|108=30|141=Y|10=023|
8=FIX.4.4|9=0341|35=AE|34=2|49=EXC|56=071|57=071X01|52=20190716-16:38:51.915|571=2S1|487=0|856=14|17=9|573=0|15=COP|880=201907160000000002|75=20190716|55=T24Q19F|762=FUIR|48=26623|22=M|31=1000.000|32=100|381=250000000000.000|60=20190716-16:38:51.915|64=20190716|552=1|54=2|453=3|448=071X01|447=C|452=12|448=071|447=C|452=1|448=071FCM001|447=C|452=36|1=DP002|10=099|
8=FIX.4.4|9=59|35=0|34=2|49=071|50=071X01|52=20190715-15:42:42.340|56=EXC|10=073|
8=FIX.4.4|9=0049|35=0|34=3|49=EXC|56=071|52=20190716-16:39:21.000|10=179|
8=FIX.4.4|9=110|35=A|34=1|49=071|50=071X01|52=20190715-15:44:02.976|56=EXC|43=N|98=0|108=30|141=Y|553=071FCM001|554=071FCM001|10=120|
8=FIX.4.4|9=0067|35=A|34=1|49=EXC|56=071|52=20190716-16:40:36.272|98=0|108=30|141=Y|10=017|
8=FIX.4.4|9=110|35=A|34=1|49=071|50=071X01|52=20190715-15:46:46.942|56=EXC|43=N|98=0|108=30|141=Y|553=071FCM001|554=071FCM001|10=123|
8=FIX.4.4|9=0067|35=A|34=1|49=EXC|56=071|52=20190716-16:43:20.248|98=0|108=30|141=Y|10=016|
8=FIX.4.4|9=0342|35=AE|34=2|49=EXC|56=071|57=071X01|52=20190716-16:43:27.447|571=9S1|487=0|856=14|17=11|573=0|15=COP|880=201907160000000009|75=20190716|55=T24Q19F|762=FUIR|48=26623|22=M|31=1000.000|32=100|381=250000000000.000|60=20190716-16:43:27.447|64=20190716|552=1|54=2|453=3|448=071X01|447=C|452=12|448=071|447=C|452=1|448=071FCM001|447=C|452=36|1=DP002|10=153|
8=FIX.4.4|9=192|35=AE|34=2|49=071|50=071X01|52=20190715-15:47:09.197|56=EXC|31=1000|32=100|55=T24Q19F|60=20190716-16:42:11.915|487=2|571=201907151046431_AE_R|762=FUIR|856=97|880=201907160000000009|552=1|54=2|10=221|
8=FIX.4.4|9=192|35=AE|34=3|49=071|50=071X01|52=20190715-15:47:09.213|56=EXC|31=1000|32=100|55=T24Q19F|60=20190716-16:42:11.915|487=2|571=201907151046431_AE_R|762=FUIR|856=97|880=201907160000000009|552=1|54=2|10=211|
8=FIX.4.4|9=0133|35=AR|34=3|49=EXC|56=071|57=071X01|52=20190716-16:43:42.485|571=201907151046431_AE|487=2|856=97|939=0|17=12|60=20190716-16:43:42.485|10=056|
8=FIX.4.4|9=0357|35=AE|34=4|49=EXC|56=071|57=071X01|52=20190716-16:43:42.485|571=201907151046431_AE|487=2|856=99|17=13|573=0|15=COP|880=201907160000000009|75=20190716|55=T24Q19F|762=FUIR|48=26623|22=M|31=1000.000|32=100|381=250000000000.000|60=20190716-16:43:42.485|64=20190716|552=1|54=2|453=3|448=071X01|447=C|452=12|448=071|447=C|452=1|448=071FCM001|447=C|452=36|1=DP002|10=212|
8=FIX.4.4|9=0195|35=AR|34=5|49=EXC|56=071|57=071X01|52=20190716-16:43:42.486|571=201907151046431_AE_R|487=2|856=97|939=1|17=14|60=20190716-16:43:42.486|751=99|58=(377): Trades with (U) status cannot be confirmed|10=102|
8=FIX.4.4|9=0049|35=0|34=6|49=EXC|56=071|52=20190716-16:44:12.000|10=178|
8=FIX.4.4|9=59|35=0|34=4|49=071|50=071X01|52=20190715-15:47:39.867|56=EXC|10=100|
=======
8=FIX.4.4|9=110|35=A|34=1|49=071|50=071X01|52=20190712-20:56:31.988|56=EXC|43=N|98=0|108=30|141=Y|553=071FCM001|554=071FCM001|10=121|
8=FIX.4.4|9=0067|35=A|34=1|49=EXC|56=071|52=20190712-21:31:45.096|98=0|108=30|141=Y|10=013|
8=FIX.4.4|9=0343|35=AE|34=2|49=EXC|56=071|57=071X01|52=20190712-21:31:52.136|571=10S1|487=0|856=14|17=35|573=0|15=COP|880=201907120000000010|75=20190712|55=T24Q19F|762=FUIR|48=26623|22=M|31=1000.000|32=100|381=250000000000.000|60=20190712-21:31:52.136|64=20190712|552=1|54=2|453=3|448=071X01|447=C|452=12|448=071|447=C|452=1|448=071FCM001|447=C|452=36|1=DP002|10=144|
8=FIX.4.4|9=59|35=0|34=2|49=071|50=071X01|52=20190712-20:57:02.959|56=EXC|10=084|
8=FIX.4.4|9=0049|35=0|34=3|49=EXC|56=071|52=20190712-21:32:22.000|10=165|
8=FIX.4.4|9=59|35=0|34=3|49=071|50=071X01|52=20190712-20:57:32.957|56=EXC|10=086|
8=FIX.4.4|9=0049|35=0|34=4|49=EXC|56=071|52=20190712-21:32:52.000|10=169|
8=FIX.4.4|9=110|35=A|34=1|49=071|50=071X01|52=20190714-00:01:28.426|56=EXC|43=N|98=0|108=30|141=Y|553=071FCM001|554=071FCM001|10=104|
8=FIX.4.4|9=0067|35=A|34=1|49=EXC|56=071|52=20190716-17:40:38.549|98=0|108=30|141=Y|10=027|
8=FIX.4.4|9=0049|35=0|34=2|49=EXC|56=071|52=20190716-17:41:08.000|10=177|
8=FIX.4.4|9=59|35=0|34=2|49=071|50=071X01|52=20190714-00:01:59.388|56=EXC|10=081|
8=FIX.4.4|9=110|35=A|34=1|49=071|50=071X01|52=20190714-00:12:53.049|56=EXC|43=N|98=0|108=30|141=Y|553=071FCM001|554=071FCM001|10=105|
8=FIX.4.4|9=0067|35=A|34=1|49=EXC|56=071|52=20190716-17:52:03.179|98=0|108=30|141=Y|10=021|
8=FIX.4.4|9=110|35=A|34=1|49=071|50=071X01|52=20190714-01:40:48.878|56=EXC|43=N|98=0|108=30|141=Y|553=071FCM001|554=071FCM001|10=121|
8=FIX.4.4|9=0067|35=A|34=1|49=EXC|56=071|52=20190716-16:00:58.968|98=0|108=30|141=Y|10=029|
8=FIX.4.4|9=0340|35=AE|34=2|49=EXC|56=071|57=071X01|52=20190716-16:01:06.054|571=1S1|487=0|856=14|17=2|573=0|15=COP|880=201907160000000001|75=20190716|55=T24Q19F|762=FUIR|48=26623|22=M|31=1000.000|32=50|381=125000000000.000|60=20190716-16:01:06.054|64=20190716|552=1|54=2|453=3|448=071X01|447=C|452=12|448=071|447=C|452=1|448=071FCM001|447=C|452=36|1=DP002|10=014|
8=FIX.4.4|9=59|35=0|34=2|49=071|50=071X01|52=20190714-01:41:18.878|56=EXC|10=085|
8=FIX.4.4|9=0049|35=0|34=3|49=EXC|56=071|52=20190716-16:01:36.000|10=174|
8=FIX.4.4|9=110|35=A|34=1|49=071|50=071X01|52=20190714-01:44:26.370|56=EXC|43=N|98=0|108=30|141=Y|553=071FCM001|554=071FCM001|10=108|
8=FIX.4.4|9=0067|35=A|34=1|49=EXC|56=071|52=20190716-16:04:36.469|98=0|108=30|141=Y|10=025|
8=FIX.4.4|9=0049|35=0|34=2|49=EXC|56=071|52=20190716-16:05:06.000|10=174|
8=FIX.4.4|9=59|35=0|34=2|49=071|50=071X01|52=20190714-01:44:56.362|56=EXC|10=078|
8=FIX.4.4|9=0049|35=0|34=3|49=EXC|56=071|52=20190716-16:05:36.000|10=178|
8=FIX.4.4|9=59|35=0|34=3|49=071|50=071X01|52=20190714-01:45:26.365|56=EXC|10=080|
8=FIX.4.4|9=110|35=A|34=1|49=071|50=071X01|52=20190714-01:58:41.065|56=EXC|43=N|98=0|108=30|141=Y|553=071FCM001|554=071FCM001|10=111|
8=FIX.4.4|9=0067|35=A|34=1|49=EXC|56=071|52=20190716-16:18:51.159|98=0|108=30|141=Y|10=023|
8=FIX.4.4|9=0340|35=AE|34=2|49=EXC|56=071|57=071X01|52=20190716-16:18:58.285|571=2S1|487=0|856=14|17=4|573=0|15=COP|880=201907160000000002|75=20190716|55=T24Q19F|762=FUIR|48=26623|22=M|31=1000.000|32=50|381=125000000000.000|60=20190716-16:18:58.285|64=20190716|552=1|54=2|453=3|448=071X01|447=C|452=12|448=071|447=C|452=1|448=071FCM001|447=C|452=36|1=DP002|10=060|
8=FIX.4.4|9=59|35=0|34=2|49=071|50=071X01|52=20190714-01:59:11.066|56=EXC|10=076|
8=FIX.4.4|9=0049|35=0|34=3|49=EXC|56=071|52=20190716-16:19:28.000|10=184|
8=FIX.4.4|9=110|35=A|34=1|49=071|50=071X01|52=20190714-03:12:45.690|56=EXC|43=N|98=0|108=30|141=Y|553=071FCM001|554=071FCM001|10=111|
8=FIX.4.4|9=0067|35=A|34=1|49=EXC|56=071|52=20190716-17:32:55.782|98=0|108=30|141=Y|10=026|
8=FIX.4.4|9=0340|35=AE|34=2|49=EXC|56=071|57=071X01|52=20190716-17:33:02.916|571=3S1|487=0|856=14|17=6|573=0|15=COP|880=201907160000000003|75=20190716|55=T24Q19F|762=FUIR|48=26623|22=M|31=1000.000|32=50|381=125000000000.000|60=20190716-17:33:02.916|64=20190716|552=1|54=2|453=3|448=071X01|447=C|452=12|448=071|447=C|452=1|448=071FCM001|447=C|452=36|1=DP002|10=040|
8=FIX.4.4|9=192|35=AE|34=2|49=071|50=071X01|52=20190714-03:13:07.937|56=EXC|31=1000|32=100|55=T24Q19F|60=20190716-17:28:22.826|487=2|571=201907132212431_AE_R|762=FUIR|856=97|880=201907160000000003|552=1|54=2|10=206|
8=FIX.4.4|9=0132|35=AR|34=3|49=EXC|56=071|57=071X01|52=20190716-17:33:18.015|571=201907132212431_AE|487=2|856=97|939=0|17=7|60=20190716-17:33:18.015|10=245|
8=FIX.4.4|9=0355|35=AE|34=4|49=EXC|56=071|57=071X01|52=20190716-17:33:18.015|571=201907132212431_AE|487=2|856=99|17=8|573=0|15=COP|880=201907160000000003|75=20190716|55=T24Q19F|762=FUIR|48=26623|22=M|31=1000.000|32=50|381=125000000000.000|60=20190716-17:33:18.015|64=20190716|552=1|54=2|453=3|448=071X01|447=C|452=12|448=071|447=C|452=1|448=071FCM001|447=C|452=36|1=DP002|10=095|
8=FIX.4.4|9=0049|35=0|34=5|49=EXC|56=071|52=20190716-17:33:48.000|10=185|
8=FIX.4.4|9=59|35=0|34=3|49=071|50=071X01|52=20190714-03:13:37.936|56=EXC|10=083|
8=FIX.4.4|9=110|35=A|34=1|49=071|50=071X01|52=20190714-03:19:37.086|56=EXC|43=N|98=0|108=30|141=Y|553=071FCM001|554=071FCM001|10=118|
8=FIX.4.4|9=0067|35=A|34=1|49=EXC|56=071|52=20190716-17:39:47.181|98=0|108=30|141=Y|10=027|
8=FIX.4.4|9=0049|35=0|34=2|49=EXC|56=071|52=20190716-17:40:17.000|10=176|
8=FIX.4.4|9=110|35=A|34=1|49=071|50=071X01|52=20190714-03:22:44.959|56=EXC|43=N|98=0|108=30|141=Y|553=071FCM001|554=071FCM001|10=119|
8=FIX.4.4|9=0067|35=A|34=1|49=EXC|56=071|52=20190716-17:42:55.053|98=0|108=30|141=Y|10=018|
8=FIX.4.4|9=0341|35=AE|34=2|49=EXC|56=071|57=071X01|52=20190716-17:43:02.133|571=4S1|487=0|856=14|17=10|573=0|15=COP|880=201907160000000004|75=20190716|55=T24Q19F|762=FUIR|48=26623|22=M|31=1000.000|32=50|381=125000000000.000|60=20190716-17:43:02.133|64=20190716|552=1|54=2|453=3|448=071X01|447=C|452=12|448=071|447=C|452=1|448=071FCM001|447=C|452=36|1=DP002|10=070|
8=FIX.4.4|9=192|35=AE|34=2|49=071|50=071X01|52=20190714-03:23:07.154|56=EXC|31=1000|32=100|55=T24Q19F|60=20190716-17:41:16.872|487=2|571=201907132222421_AE_R|762=FUIR|856=97|880=201907160000000004|552=1|54=2|10=198|
8=FIX.4.4|9=0341|35=AE|34=3|49=EXC|56=071|57=071X01|52=20190716-17:43:17.234|571=4S1|487=2|856=99|17=11|573=0|15=COP|880=201907160000000004|75=20190716|55=T24Q19F|762=FUIR|48=26623|22=M|31=1000.000|32=50|381=125000000000.000|60=20190716-17:43:17.234|64=20190716|552=1|54=2|453=3|448=071X01|447=C|452=12|448=071|447=C|452=1|448=071FCM001|447=C|452=36|1=DP002|10=103|
8=FIX.4.4|9=59|35=5|34=3|49=071|50=071X01|52=20190714-03:23:27.949|56=EXC|10=092|
8=FIX.4.4|9=0049|35=5|34=4|49=EXC|56=071|52=20190716-17:43:38.027|10=198|
8=FIX.4.4|9=110|35=A|34=1|49=071|50=071X01|52=20190715-13:08:35.709|56=EXC|43=N|98=0|108=30|141=Y|553=071FCM001|554=071FCM001|10=118|
8=FIX.4.4|9=0067|35=A|34=1|49=EXC|56=071|52=20190716-15:06:03.797|98=0|108=30|141=Y|10=024|
8=FIX.4.4|9=0340|35=AE|34=2|49=EXC|56=071|57=071X01|52=20190716-15:06:10.893|571=1S1|487=0|856=14|17=2|573=0|15=COP|880=201907160000000001|75=20190716|55=T24Q19F|762=FUIR|48=26623|22=M|31=1000.000|32=50|381=125000000000.000|60=20190716-15:06:10.893|64=20190716|552=1|54=2|453=3|448=071X01|447=C|452=12|448=071|447=C|452=1|448=071FCM001|447=C|452=36|1=DP002|10=034|
8=FIX.4.4|9=191|35=AE|34=2|49=071|50=071X01|52=20190715-13:08:57.884|56=EXC|31=1000|32=100|55=T24Q19F|60=20190716-15:03:52.100|487=2|571=20190715808321_AE_R|762=FUIR|856=97|880=201907160000000001|552=1|54=2|10=155|
8=FIX.4.4|9=0131|35=AR|34=3|49=EXC|56=071|57=071X01|52=20190716-15:06:25.943|571=20190715808321_AE|487=2|856=97|939=0|17=3|60=20190716-15:06:25.943|10=213|
8=FIX.4.4|9=0354|35=AE|34=4|49=EXC|56=071|57=071X01|52=20190716-15:06:25.943|571=20190715808321_AE|487=2|856=99|17=4|573=0|15=COP|880=201907160000000001|75=20190716|55=T24Q19F|762=FUIR|48=26623|22=M|31=1000.000|32=50|381=125000000000.000|60=20190716-15:06:25.943|64=20190716|552=1|54=2|453=3|448=071X01|447=C|452=12|448=071|447=C|452=1|448=071FCM001|447=C|452=36|1=DP002|10=061|
8=FIX.4.4|9=0049|35=0|34=5|49=EXC|56=071|52=20190716-15:06:55.000|10=181|
8=FIX.4.4|9=59|35=0|34=3|49=071|50=071X01|52=20190715-13:09:28.643|56=EXC|10=085|
8=FIX.4.4|9=0049|35=0|34=6|49=EXC|56=071|52=20190716-15:07:25.000|10=180|
8=FIX.4.4|9=59|35=0|34=4|49=071|50=071X01|52=20190715-13:09:58.648|56=EXC|10=094|
8=FIX.4.4|9=110|35=A|34=1|49=071|50=071X01|52=20190715-13:10:01.672|56=EXC|43=N|98=0|108=30|141=Y|553=071FCM001|554=071FCM001|10=103|
8=FIX.4.4|9=110|35=A|34=1|49=071|50=071X01|52=20190715-13:27:08.450|56=EXC|43=N|98=0|108=30|141=Y|553=071FCM001|554=071FCM001|10=112|
8=FIX.4.4|9=0067|35=A|34=1|49=EXC|56=071|52=20190716-15:24:36.524|98=0|108=30|141=Y|10=018|
8=FIX.4.4|9=0340|35=AE|34=2|49=EXC|56=071|57=071X01|52=20190716-15:24:43.648|571=3S1|487=0|856=14|17=7|573=0|15=COP|880=201907160000000003|75=20190716|55=T24Q19F|762=FUIR|48=26623|22=M|31=1000.000|32=50|381=125000000000.000|60=20190716-15:24:43.648|64=20190716|552=1|54=2|453=3|448=071X01|447=C|452=12|448=071|447=C|452=1|448=071FCM001|447=C|452=36|1=DP002|10=051|
8=FIX.4.4|9=191|35=AE|34=2|49=071|50=071X01|52=20190715-13:27:30.672|56=EXC|31=1000|32=100|55=T24Q19F|60=20190716-15:23:08.699|487=2|571=20190715827051_AE_R|762=FUIR|856=97|880=201907160000000003|552=1|54=2|10=171|
8=FIX.4.4|9=0340|35=AE|34=3|49=EXC|56=071|57=071X01|52=20190716-15:24:58.730|571=3S1|487=2|856=99|17=8|573=0|15=COP|880=201907160000000003|75=20190716|55=T24Q19F|762=FUIR|48=26623|22=M|31=1000.000|32=50|381=125000000000.000|60=20190716-15:24:58.730|64=20190716|552=1|54=2|453=3|448=071X01|447=C|452=12|448=071|447=C|452=1|448=071FCM001|447=C|452=36|1=DP002|10=064|
8=FIX.4.4|9=0049|35=0|34=4|49=EXC|56=071|52=20190716-15:25:28.000|10=181|
8=FIX.4.4|9=59|35=0|34=3|49=071|50=071X01|52=20190715-13:28:01.462|56=EXC|10=076|
8=FIX.4.4|9=0049|35=0|34=5|49=EXC|56=071|52=20190716-15:25:58.000|10=185|
8=FIX.4.4|9=59|35=0|34=4|49=071|50=071X01|52=20190715-13:28:31.466|56=EXC|10=084|
8=FIX.4.4|9=59|35=0|34=5|49=071|50=071X01|52=20190715-13:29:01.565|56=EXC|10=083|
8=FIX.4.4|9=110|35=A|34=1|49=071|50=071X01|52=20190715-16:11:12.784|56=EXC|43=N|98=0|108=30|141=Y|553=071FCM001|554=071FCM001|10=113|
8=FIX.4.4|9=0067|35=A|34=1|49=EXC|56=071|52=20190716-17:01:40.865|98=0|108=30|141=Y|10=018|
8=FIX.4.4|9=0342|35=AE|34=2|49=EXC|56=071|57=071X01|52=20190716-17:01:47.981|571=3S1|487=0|856=14|17=15|573=0|15=COP|880=201907160000000003|75=20190716|55=T24Q19F|762=FUIR|48=26623|22=M|31=1000.000|32=100|381=250000000000.000|60=20190716-17:01:47.981|64=20190716|552=1|54=2|453=3|448=071X01|447=C|452=12|448=071|447=C|452=1|448=071FCM001|447=C|452=36|1=DP002|10=145|
8=FIX.4.4|9=191|35=AE|34=2|49=071|50=071X01|52=20190715-16:11:35.007|56=EXC|31=1000|32=50|55=T24Q19F|60=20190716-15:23:08.699|487=2|571=201907151111091_AE_R|762=FUIR|856=97|880=201907160000000003|552=1|54=2|10=159|
8=FIX.4.4|9=0342|35=AE|34=3|49=EXC|56=071|57=071X01|52=20190716-17:02:03.053|571=3S1|487=2|856=99|17=16|573=0|15=COP|880=201907160000000003|75=20190716|55=T24Q19F|762=FUIR|48=26623|22=M|31=1000.000|32=100|381=250000000000.000|60=20190716-17:02:03.053|64=20190716|552=1|54=2|453=3|448=071X01|447=C|452=12|448=071|447=C|452=1|448=071FCM001|447=C|452=36|1=DP002|10=128|
8=FIX.4.4|9=0455|35=8|34=4|49=EXC|56=071|57=071X01|52=20190716-17:02:14.529|11=20190715919381_S|17=17|37=0|150=H|1080=20190716-000000000004.00|1081=6|453=5|448=071X01|447=C|452=12|448=071|447=C|452=1|448=035X01|447=C|452=37|448=035|447=C|452=17|448=071FCM001|447=C|452=36|55=T24Q19F|762=FUIR|48=26623|22=M|6=1000.000|14=100|31=1000.000|32=100|38=100|39=2|54=2|60=20190716-17:02:14.529|75=20190716|63=1|64=20190716|151=0|1=DP002|381=250000000000.000|880=201907160000000003|10=056|
8=FIX.4.4|9=59|35=0|34=3|49=071|50=071X01|52=20190715-16:12:05.750|56=EXC|10=076|
8=FIX.4.4|9=0049|35=0|34=5|49=EXC|56=071|52=20190716-17:02:44.000|10=177|
8=FIX.4.4|9=59|35=0|34=4|49=071|50=071X01|52=20190715-16:12:35.751|56=EXC|10=081|
8=FIX.4.4|9=0049|35=0|34=6|49=EXC|56=071|52=20190716-17:03:14.000|10=176|
8=FIX.4.4|9=59|35=0|34=5|49=071|50=071X01|52=20190715-16:13:05.750|56=EXC|10=079|
8=FIX.4.4|9=0049|35=0|34=7|49=EXC|56=071|52=20190716-17:03:44.000|10=180|
8=FIX.4.4|9=59|35=0|34=6|49=071|50=071X01|52=20190715-16:13:35.750|56=EXC|10=083|
8=FIX.4.4|9=0049|35=0|34=8|49=EXC|56=071|52=20190716-17:04:14.000|10=179|
8=FIX.4.4|9=59|35=0|34=7|49=071|50=071X01|52=20190715-16:14:05.750|56=EXC|10=082|
8=FIX.4.4|9=0049|35=0|34=9|49=EXC|56=071|52=20190716-17:04:44.000|10=183|
8=FIX.4.4|9=59|35=0|34=8|49=071|50=071X01|52=20190715-16:14:35.752|56=EXC|10=088|
8=FIX.4.4|9=0050|35=0|34=10|49=EXC|56=071|52=20190716-17:05:14.000|10=213|
8=FIX.4.4|9=59|35=0|34=9|49=071|50=071X01|52=20190715-16:15:05.752|56=EXC|10=087|
8=FIX.4.4|9=0050|35=0|34=11|49=EXC|56=071|52=20190716-17:05:44.000|10=217|
8=FIX.4.4|9=60|35=0|34=10|49=071|50=071X01|52=20190715-16:15:35.751|56=EXC|10=121|
8=FIX.4.4|9=0050|35=0|34=12|49=EXC|56=071|52=20190716-17:06:14.000|10=216|
8=FIX.4.4|9=60|35=0|34=11|49=071|50=071X01|52=20190715-16:16:05.751|56=EXC|10=120|
8=FIX.4.4|9=0050|35=0|34=13|49=EXC|56=071|52=20190716-17:06:44.000|10=220|
8=FIX.4.4|9=60|35=0|34=12|49=071|50=071X01|52=20190715-16:16:35.751|56=EXC|10=124|
8=FIX.4.4|9=0050|35=0|34=14|49=EXC|56=071|52=20190716-17:07:14.000|10=219|
<<<<<<< HEAD
>>>>>>> 6d7e9ce7e8f42ac20f0de084aa3de07af4ab14a8
<<<<<<< Updated upstream
=======
8=FIX.4.4|9=110|35=A|34=1|49=071|50=071X01|52=20190715-19:28:47.361|56=EXC|43=N|98=0|108=30|141=Y|553=071FCM001|554=071FCM001|10=123|
8=FIX.4.4|9=0067|35=A|34=1|49=EXC|56=071|52=20190716-15:22:32.454|98=0|108=30|141=Y|10=014|
8=FIX.4.4|9=0341|35=AE|34=2|49=EXC|56=071|57=071X01|52=20190716-15:22:39.573|571=1S1|487=0|856=14|17=3|573=0|15=COP|880=201907160000000001|75=20190716|55=T24Q19F|762=FUIR|48=26623|22=M|31=1000.000|32=100|381=250000000000.000|60=20190716-15:22:39.573|64=20190716|552=1|54=2|453=3|448=071X01|447=C|452=12|448=071|447=C|452=1|448=071FCM001|447=C|452=36|1=DP002|10=087|
8=FIX.4.4|9=191|35=AE|34=2|49=071|50=071X01|52=20190715-19:29:09.603|56=EXC|31=1000|32=50|55=T24Q19F|60=20190716-15:08:37.220|487=2|571=201907151428431_AE_R|762=FUIR|856=97|880=201907160000000001|552=1|54=2|10=166|
8=FIX.4.4|9=0132|35=AR|34=3|49=EXC|56=071|57=071X01|52=20190716-15:22:54.658|571=201907151428431_AE|487=2|856=97|939=0|17=4|60=20190716-15:22:54.658|10=014|
8=FIX.4.4|9=0356|35=AE|34=4|49=EXC|56=071|57=071X01|52=20190716-15:22:54.658|571=201907151428431_AE|487=2|856=99|17=5|573=0|15=COP|880=201907160000000001|75=20190716|55=T24Q19F|762=FUIR|48=26623|22=M|31=1000.000|32=100|381=250000000000.000|60=20190716-15:22:54.658|64=20190716|552=1|54=2|453=3|448=071X01|447=C|452=12|448=071|447=C|452=1|448=071FCM001|447=C|452=36|1=DP002|10=162|
8=FIX.4.4|9=0455|35=8|34=5|49=EXC|56=071|57=071X01|52=20190716-15:23:06.694|11=201907151413201_S|17=6|37=0|150=H|1080=20190716-000000000001.00|1081=6|453=5|448=071X01|447=C|452=12|448=071|447=C|452=1|448=035X01|447=C|452=37|448=035|447=C|452=17|448=071FCM001|447=C|452=36|55=T24Q19F|762=FUIR|48=26623|22=M|6=1000.000|14=100|31=1000.000|32=100|38=100|39=2|54=2|60=20190716-15:23:06.694|75=20190716|63=1|64=20190716|151=0|1=DP002|381=250000000000.000|880=201907160000000001|10=041|
8=FIX.4.4|9=59|35=0|34=3|49=071|50=071X01|52=20190715-19:29:39.639|56=EXC|10=100|
8=FIX.4.4|9=0049|35=0|34=6|49=EXC|56=071|52=20190716-15:23:36.000|10=180|
8=FIX.4.4|9=59|35=0|34=4|49=071|50=071X01|52=20190715-19:30:10.285|56=EXC|10=079|
8=FIX.4.4|9=0049|35=0|34=7|49=EXC|56=071|52=20190716-15:24:06.000|10=179|
8=FIX.4.4|9=110|35=A|34=1|49=071|50=071X01|52=20190715-20:35:15.482|56=EXC|43=N|98=0|108=30|141=Y|553=071FCM001|554=071FCM001|10=112|
8=FIX.4.4|9=0067|35=A|34=1|49=EXC|56=071|52=20190716-16:29:00.558|98=0|108=30|141=Y|10=022|
8=FIX.4.4|9=0342|35=AE|34=2|49=EXC|56=071|57=071X01|52=20190716-16:29:07.666|571=4S1|487=0|856=14|17=13|573=0|15=COP|880=201907160000000004|75=20190716|55=T24Q19F|762=FUIR|48=26623|22=M|31=1000.000|32=100|381=250000000000.000|60=20190716-16:29:07.666|64=20190716|552=1|54=2|453=3|448=071X01|447=C|452=12|448=071|447=C|452=1|448=071FCM001|447=C|452=36|1=DP002|10=155|
8=FIX.4.4|9=59|35=0|34=2|49=071|50=071X01|52=20190715-20:35:45.475|56=EXC|10=083|
8=FIX.4.4|9=0049|35=0|34=3|49=EXC|56=071|52=20190716-16:29:37.000|10=185|
8=FIX.4.4|9=59|35=0|34=3|49=071|50=071X01|52=20190715-20:36:15.473|56=EXC|10=080|
8=FIX.4.4|9=0049|35=0|34=4|49=EXC|56=071|52=20190716-16:30:07.000|10=175|
8=FIX.4.4|9=59|35=0|34=4|49=071|50=071X01|52=20190715-20:36:45.475|56=EXC|10=086|
8=FIX.4.4|9=0049|35=0|34=5|49=EXC|56=071|52=20190716-16:30:37.000|10=179|
8=FIX.4.4|9=59|35=0|34=5|49=071|50=071X01|52=20190715-20:37:15.473|56=EXC|10=083|
8=FIX.4.4|9=0049|35=0|34=6|49=EXC|56=071|52=20190716-16:31:07.000|10=178|
8=FIX.4.4|9=59|35=0|34=6|49=071|50=071X01|52=20190715-20:37:45.474|56=EXC|10=088|
8=FIX.4.4|9=0049|35=0|34=7|49=EXC|56=071|52=20190716-16:31:37.000|10=182|
8=FIX.4.4|9=59|35=0|34=7|49=071|50=071X01|52=20190715-20:38:15.473|56=EXC|10=086|
8=FIX.4.4|9=0049|35=0|34=8|49=EXC|56=071|52=20190716-16:32:07.000|10=181|
8=FIX.4.4|9=59|35=0|34=8|49=071|50=071X01|52=20190715-20:38:45.474|56=EXC|10=091|
8=FIX.4.4|9=0049|35=0|34=9|49=EXC|56=071|52=20190716-16:32:37.000|10=185|
8=FIX.4.4|9=59|35=0|34=9|49=071|50=071X01|52=20190715-20:39:15.475|56=EXC|10=091|
8=FIX.4.4|9=0050|35=0|34=10|49=EXC|56=071|52=20190716-16:33:07.000|10=215|
8=FIX.4.4|9=60|35=0|34=10|49=071|50=071X01|52=20190715-20:39:45.474|56=EXC|10=125|
8=FIX.4.4|9=0050|35=0|34=11|49=EXC|56=071|52=20190716-16:33:37.000|10=219|
8=FIX.4.4|9=60|35=0|34=11|49=071|50=071X01|52=20190715-20:40:15.474|56=EXC|10=115|
8=FIX.4.4|9=0050|35=0|34=12|49=EXC|56=071|52=20190716-16:34:07.000|10=218|
8=FIX.4.4|9=60|35=0|34=12|49=071|50=071X01|52=20190715-20:40:45.474|56=EXC|10=119|
8=FIX.4.4|9=0050|35=0|34=13|49=EXC|56=071|52=20190716-16:34:37.000|10=222|
8=FIX.4.4|9=60|35=0|34=13|49=071|50=071X01|52=20190715-20:41:15.475|56=EXC|10=119|
8=FIX.4.4|9=0050|35=0|34=14|49=EXC|56=071|52=20190716-16:35:07.000|10=221|
8=FIX.4.4|9=60|35=0|34=14|49=071|50=071X01|52=20190715-20:41:45.474|56=EXC|10=122|
8=FIX.4.4|9=0050|35=0|34=15|49=EXC|56=071|52=20190716-16:35:37.000|10=225|
8=FIX.4.4|9=60|35=0|34=15|49=071|50=071X01|52=20190715-20:42:15.474|56=EXC|10=121|
8=FIX.4.4|9=0050|35=0|34=16|49=EXC|56=071|52=20190716-16:36:07.000|10=224|
8=FIX.4.4|9=60|35=0|34=16|49=071|50=071X01|52=20190715-20:42:45.474|56=EXC|10=125|
8=FIX.4.4|9=0050|35=0|34=17|49=EXC|56=071|52=20190716-16:36:37.000|10=228|
8=FIX.4.4|9=60|35=0|34=17|49=071|50=071X01|52=20190715-20:43:15.474|56=EXC|10=124|
8=FIX.4.4|9=0050|35=0|34=18|49=EXC|56=071|52=20190716-16:37:07.000|10=227|
8=FIX.4.4|9=60|35=0|34=18|49=071|50=071X01|52=20190715-20:43:45.475|56=EXC|10=129|
8=FIX.4.4|9=0050|35=0|34=19|49=EXC|56=071|52=20190716-16:37:37.000|10=231|
8=FIX.4.4|9=60|35=0|34=19|49=071|50=071X01|52=20190715-20:44:15.474|56=EXC|10=127|
8=FIX.4.4|9=0050|35=0|34=20|49=EXC|56=071|52=20190716-16:38:07.000|10=221|
8=FIX.4.4|9=60|35=0|34=20|49=071|50=071X01|52=20190715-20:44:45.474|56=EXC|10=122|
8=FIX.4.4|9=0050|35=0|34=21|49=EXC|56=071|52=20190716-16:38:37.000|10=225|
8=FIX.4.4|9=60|35=0|34=21|49=071|50=071X01|52=20190715-20:45:15.476|56=EXC|10=123|
8=FIX.4.4|9=0050|35=0|34=22|49=EXC|56=071|52=20190716-16:39:07.000|10=224|
8=FIX.4.4|9=60|35=0|34=22|49=071|50=071X01|52=20190715-20:45:45.474|56=EXC|10=125|
8=FIX.4.4|9=0050|35=0|34=23|49=EXC|56=071|52=20190716-16:39:37.000|10=228|
8=FIX.4.4|9=110|35=A|34=1|49=071|50=071X01|52=20190715-20:47:26.118|56=EXC|43=N|98=0|108=30|141=Y|553=071FCM001|554=071FCM001|10=113|
8=FIX.4.4|9=0067|35=A|34=1|49=EXC|56=071|52=20190716-16:41:11.196|98=0|108=30|141=Y|10=016|
8=FIX.4.4|9=0342|35=AE|34=2|49=EXC|56=071|57=071X01|52=20190716-16:41:18.280|571=5S1|487=0|856=14|17=14|573=0|15=COP|880=201907160000000005|75=20190716|55=T24Q19F|762=FUIR|48=26623|22=M|31=1000.000|32=100|381=250000000000.000|60=20190716-16:41:18.280|64=20190716|552=1|54=2|453=3|448=071X01|447=C|452=12|448=071|447=C|452=1|448=071FCM001|447=C|452=36|1=DP002|10=134|
8=FIX.4.4|9=59|35=0|34=2|49=071|50=071X01|52=20190715-20:47:57.108|56=EXC|10=082|
8=FIX.4.4|9=0049|35=0|34=3|49=EXC|56=071|52=20190716-16:41:48.000|10=181|
8=FIX.4.4|9=59|35=0|34=3|49=071|50=071X01|52=20190715-20:48:27.108|56=EXC|10=081|
8=FIX.4.4|9=0049|35=0|34=4|49=EXC|56=071|52=20190716-16:42:18.000|10=180|
8=FIX.4.4|9=59|35=0|34=4|49=071|50=071X01|52=20190715-20:48:57.109|56=EXC|10=086|
8=FIX.4.4|9=0049|35=0|34=5|49=EXC|56=071|52=20190716-16:42:48.000|10=184|
8=FIX.4.4|9=59|35=0|34=5|49=071|50=071X01|52=20190715-20:49:27.109|56=EXC|10=085|
8=FIX.4.4|9=0049|35=0|34=6|49=EXC|56=071|52=20190716-16:43:18.000|10=183|
8=FIX.4.4|9=59|35=0|34=6|49=071|50=071X01|52=20190715-20:49:57.108|56=EXC|10=088|
8=FIX.4.4|9=0049|35=0|34=7|49=EXC|56=071|52=20190716-16:43:48.000|10=187|
8=FIX.4.4|9=59|35=0|34=7|49=071|50=071X01|52=20190715-20:50:27.109|56=EXC|10=079|
8=FIX.4.4|9=0049|35=0|34=8|49=EXC|56=071|52=20190716-16:44:18.000|10=186|
8=FIX.4.4|9=59|35=0|34=8|49=071|50=071X01|52=20190715-20:50:57.108|56=EXC|10=082|
8=FIX.4.4|9=0049|35=0|34=9|49=EXC|56=071|52=20190716-16:44:48.000|10=190|
8=FIX.4.4|9=59|35=0|34=9|49=071|50=071X01|52=20190715-20:51:27.109|56=EXC|10=082|
8=FIX.4.4|9=0050|35=0|34=10|49=EXC|56=071|52=20190716-16:45:18.000|10=220|
8=FIX.4.4|9=60|35=0|34=10|49=071|50=071X01|52=20190715-20:51:57.109|56=EXC|10=117|
8=FIX.4.4|9=0050|35=0|34=11|49=EXC|56=071|52=20190716-16:45:48.000|10=224|
8=FIX.4.4|9=60|35=0|34=11|49=071|50=071X01|52=20190715-20:52:27.109|56=EXC|10=116|
8=FIX.4.4|9=0050|35=0|34=12|49=EXC|56=071|52=20190716-16:46:18.000|10=223|
8=FIX.4.4|9=60|35=0|34=12|49=071|50=071X01|52=20190715-20:52:57.108|56=EXC|10=119|
8=FIX.4.4|9=0050|35=0|34=13|49=EXC|56=071|52=20190716-16:46:48.000|10=227|
8=FIX.4.4|9=60|35=0|34=13|49=071|50=071X01|52=20190715-20:53:27.110|56=EXC|10=111|
8=FIX.4.4|9=0050|35=0|34=14|49=EXC|56=071|52=20190716-16:47:18.000|10=226|
8=FIX.4.4|9=60|35=0|34=14|49=071|50=071X01|52=20190715-20:53:57.109|56=EXC|10=123|
8=FIX.4.4|9=0050|35=0|34=15|49=EXC|56=071|52=20190716-16:47:48.000|10=230|
8=FIX.4.4|9=60|35=0|34=15|49=071|50=071X01|52=20190715-20:54:27.110|56=EXC|10=114|
8=FIX.4.4|9=0050|35=0|34=16|49=EXC|56=071|52=20190716-16:48:18.000|10=229|
8=FIX.4.4|9=60|35=0|34=16|49=071|50=071X01|52=20190715-20:54:57.109|56=EXC|10=126|
8=FIX.4.4|9=0050|35=0|34=17|49=EXC|56=071|52=20190716-16:48:48.000|10=233|
8=FIX.4.4|9=60|35=0|34=17|49=071|50=071X01|52=20190715-20:55:27.109|56=EXC|10=125|
8=FIX.4.4|9=0050|35=0|34=18|49=EXC|56=071|52=20190716-16:49:18.000|10=232|
8=FIX.4.4|9=60|35=0|34=18|49=071|50=071X01|52=20190715-20:55:57.109|56=EXC|10=129|
8=FIX.4.4|9=0050|35=0|34=19|49=EXC|56=071|52=20190716-16:49:48.000|10=236|
8=FIX.4.4|9=60|35=0|34=19|49=071|50=071X01|52=20190715-20:56:27.110|56=EXC|10=120|
8=FIX.4.4|9=0050|35=0|34=20|49=EXC|56=071|52=20190716-16:50:18.000|10=217|
8=FIX.4.4|9=60|35=0|34=20|49=071|50=071X01|52=20190715-20:56:57.111|56=EXC|10=116|
8=FIX.4.4|9=0050|35=0|34=21|49=EXC|56=071|52=20190716-16:50:48.000|10=221|
8=FIX.4.4|9=60|35=0|34=21|49=071|50=071X01|52=20190715-20:57:27.109|56=EXC|10=122|
8=FIX.4.4|9=0050|35=0|34=22|49=EXC|56=071|52=20190716-16:51:18.000|10=220|
8=FIX.4.4|9=60|35=0|34=22|49=071|50=071X01|52=20190715-20:57:57.111|56=EXC|10=119|
8=FIX.4.4|9=0050|35=0|34=23|49=EXC|56=071|52=20190716-16:51:48.000|10=224|
8=FIX.4.4|9=60|35=0|34=23|49=071|50=071X01|52=20190715-20:58:27.110|56=EXC|10=117|
8=FIX.4.4|9=0050|35=0|34=24|49=EXC|56=071|52=20190716-16:52:18.000|10=223|
8=FIX.4.4|9=60|35=0|34=24|49=071|50=071X01|52=20190715-20:58:57.109|56=EXC|10=129|
8=FIX.4.4|9=0050|35=0|34=25|49=EXC|56=071|52=20190716-16:52:48.000|10=227|
8=FIX.4.4|9=60|35=0|34=25|49=071|50=071X01|52=20190715-20:59:27.109|56=EXC|10=128|
8=FIX.4.4|9=0050|35=0|34=26|49=EXC|56=071|52=20190716-16:53:18.000|10=226|
8=FIX.4.4|9=60|35=0|34=26|49=071|50=071X01|52=20190715-20:59:57.109|56=EXC|10=132|
8=FIX.4.4|9=0050|35=0|34=27|49=EXC|56=071|52=20190716-16:53:48.000|10=230|
8=FIX.4.4|9=60|35=0|34=27|49=071|50=071X01|52=20190715-21:00:27.109|56=EXC|10=117|
8=FIX.4.4|9=0050|35=0|34=28|49=EXC|56=071|52=20190716-16:54:18.000|10=229|
8=FIX.4.4|9=60|35=0|34=28|49=071|50=071X01|52=20190715-21:00:57.111|56=EXC|10=114|
8=FIX.4.4|9=0050|35=0|34=29|49=EXC|56=071|52=20190716-16:54:48.000|10=233|
8=FIX.4.4|9=60|35=0|34=29|49=071|50=071X01|52=20190715-21:01:27.110|56=EXC|10=112|
8=FIX.4.4|9=0050|35=0|34=30|49=EXC|56=071|52=20190716-16:55:18.000|10=223|
8=FIX.4.4|9=60|35=0|34=30|49=071|50=071X01|52=20190715-21:01:57.110|56=EXC|10=107|
8=FIX.4.4|9=0050|35=0|34=31|49=EXC|56=071|52=20190716-16:55:48.000|10=227|
>>>>>>> 5d4ed098bb2204ed7fc34799dbfeb53acad34fdf
=======
8=FIX.4.4|9=110|35=A|34=1|49=071|50=071X01|52=20190715-19:26:16.157|56=EXC|43=N|98=0|108=30|141=Y|553=071FCM001|554=071FCM001|10=120|
8=FIX.4.4|9=0067|35=A|34=1|49=EXC|56=071|52=20190716-15:26:06.632|98=0|108=30|141=Y|10=017|
8=FIX.4.4|9=110|35=A|34=1|49=071|50=071X01|52=20190715-19:29:08.680|56=EXC|43=N|98=0|108=30|141=Y|553=071FCM001|554=071FCM001|10=125|
8=FIX.4.4|9=0067|35=A|34=1|49=EXC|56=071|52=20190716-15:28:59.158|98=0|108=30|141=Y|10=030|
8=FIX.4.4|9=0341|35=AE|34=2|49=EXC|56=071|57=071X01|52=20190716-15:29:06.376|571=3S1|487=0|856=14|17=8|573=0|15=COP|880=201907160000000003|75=20190716|55=T24Q19F|762=FUIR|48=26623|22=M|31=1000.000|32=100|381=250000000000.000|60=20190716-15:29:06.376|64=20190716|552=1|54=2|453=3|448=071X01|447=C|452=12|448=071|447=C|452=1|448=071FCM001|447=C|452=36|1=DP002|10=100|
8=FIX.4.4|9=191|35=AE|34=2|49=071|50=071X01|52=20190715-19:29:30.973|56=EXC|31=1000|32=50|55=T24Q19F|60=20190716-15:27:57.381|487=2|571=201907151429051_AE_R|762=FUIR|856=97|880=201907160000000003|552=1|54=2|10=182|
8=FIX.4.4|9=0341|35=AE|34=3|49=EXC|56=071|57=071X01|52=20190716-15:29:21.442|571=3S1|487=2|856=99|17=9|573=0|15=COP|880=201907160000000003|75=20190716|55=T24Q19F|762=FUIR|48=26623|22=M|31=1000.000|32=100|381=250000000000.000|60=20190716-15:29:21.442|64=20190716|552=1|54=2|453=3|448=071X01|447=C|452=12|448=071|447=C|452=1|448=071FCM001|447=C|452=36|1=DP002|10=099|
8=FIX.4.4|9=0456|35=8|34=4|49=EXC|56=071|57=071X01|52=20190716-15:29:33.551|11=201907151432401_S|17=10|37=0|150=H|1080=20190716-000000000003.00|1081=6|453=5|448=071X01|447=C|452=12|448=071|447=C|452=1|448=035X01|447=C|452=37|448=035|447=C|452=17|448=071FCM001|447=C|452=36|55=T24Q19F|762=FUIR|48=26623|22=M|6=1000.000|14=100|31=1000.000|32=100|38=100|39=2|54=2|60=20190716-15:29:33.551|75=20190716|63=1|64=20190716|151=0|1=DP002|381=250000000000.000|880=201907160000000003|10=087|
8=FIX.4.4|9=59|35=0|34=3|49=071|50=071X01|52=20190715-19:30:01.592|56=EXC|10=079|
>>>>>>> Stashed changes
8=FIX.4.4|9=110|35=A|34=1|49=071|50=071X01|52=20190716-03:15:29.295|56=EXC|43=N|98=0|108=30|141=Y|553=071FCM001|554=071FCM001|10=119|
8=FIX.4.4|9=0067|35=A|34=1|49=EXC|56=071|52=20190716-16:27:10.365|98=0|108=30|141=Y|10=017|
8=FIX.4.4|9=0340|35=AE|34=2|49=EXC|56=071|57=071X01|52=20190716-16:27:17.571|571=1S1|487=0|856=14|17=2|573=0|15=COP|880=201907160000000001|75=20190716|55=T24Q19F|762=FUIR|48=26623|22=M|31=1000.000|32=50|381=125000000000.000|60=20190716-16:27:17.571|64=20190716|552=1|54=2|453=3|448=071X01|447=C|452=12|448=071|447=C|452=1|448=071FCM001|447=C|452=36|1=DP002|10=042|
8=FIX.4.4|9=59|35=0|34=2|49=071|50=071X01|52=20190716-03:16:00.286|56=EXC|10=075|
8=FIX.4.4|9=0049|35=0|34=3|49=EXC|56=071|52=20190716-16:27:47.000|10=184|
8=FIX.4.4|9=59|35=0|34=3|49=071|50=071X01|52=20190716-03:16:30.287|56=EXC|10=080|
8=FIX.4.4|9=0049|35=0|34=4|49=EXC|56=071|52=20190716-16:28:17.000|10=183|
8=FIX.4.4|9=59|35=0|34=4|49=071|50=071X01|52=20190716-03:17:00.286|56=EXC|10=078|
8=FIX.4.4|9=0049|35=0|34=5|49=EXC|56=071|52=20190716-16:28:47.000|10=187|
8=FIX.4.4|9=59|35=0|34=5|49=071|50=071X01|52=20190716-03:17:30.286|56=EXC|10=082|
8=FIX.4.4|9=0049|35=0|34=6|49=EXC|56=071|52=20190716-16:29:17.000|10=186|
8=FIX.4.4|9=59|35=0|34=6|49=071|50=071X01|52=20190716-03:18:00.286|56=EXC|10=081|
8=FIX.4.4|9=0049|35=0|34=7|49=EXC|56=071|52=20190716-16:29:47.000|10=190|
8=FIX.4.4|9=59|35=0|34=7|49=071|50=071X01|52=20190716-03:18:30.286|56=EXC|10=085|
8=FIX.4.4|9=0049|35=0|34=8|49=EXC|56=071|52=20190716-16:30:17.000|10=180|
8=FIX.4.4|9=59|35=0|34=8|49=071|50=071X01|52=20190716-03:19:00.286|56=EXC|10=084|
8=FIX.4.4|9=0049|35=0|34=9|49=EXC|56=071|52=20190716-16:30:47.000|10=184|
8=FIX.4.4|9=59|35=0|34=9|49=071|50=071X01|52=20190716-03:19:30.286|56=EXC|10=088|
8=FIX.4.4|9=110|35=A|34=1|49=071|50=071X01|52=20190716-03:29:09.715|56=EXC|43=N|98=0|108=30|141=Y|553=071FCM001|554=071FCM001|10=119|
8=FIX.4.4|9=0067|35=A|34=1|49=EXC|56=071|52=20190716-16:40:50.781|98=0|108=30|141=Y|10=018|
8=FIX.4.4|9=0049|35=0|34=2|49=EXC|56=071|52=20190716-16:41:20.000|10=170|
8=FIX.4.4|9=59|35=0|34=2|49=071|50=071X01|52=20190716-03:29:39.706|56=EXC|10=088|
8=FIX.4.4|9=0049|35=0|34=3|49=EXC|56=071|52=20190716-16:41:50.000|10=174|
8=FIX.4.4|9=59|35=0|34=3|49=071|50=071X01|52=20190716-03:30:09.706|56=EXC|10=078|
8=FIX.4.4|9=110|35=A|34=1|49=071|50=071X01|52=20190716-03:32:23.733|56=EXC|43=N|98=0|108=30|141=Y|553=071FCM001|554=071FCM001|10=109|
8=FIX.4.4|9=0067|35=A|34=1|49=EXC|56=071|52=20190716-16:44:04.805|98=0|108=30|141=Y|10=018|
8=FIX.4.4|9=0340|35=AE|34=2|49=EXC|56=071|57=071X01|52=20190716-16:44:11.923|571=2S1|487=0|856=14|17=4|573=0|15=COP|880=201907160000000002|75=20190716|55=T24Q19F|762=FUIR|48=26623|22=M|31=1000.000|32=50|381=125000000000.000|60=20190716-16:44:11.923|64=20190716|552=1|54=2|453=3|448=071X01|447=C|452=12|448=071|447=C|452=1|448=071FCM001|447=C|452=36|1=DP002|10=034|
8=FIX.4.4|9=59|35=0|34=2|49=071|50=071X01|52=20190716-03:32:54.724|56=EXC|10=079|
8=FIX.4.4|9=0049|35=0|34=3|49=EXC|56=071|52=20190716-16:44:41.000|10=177|
8=FIX.4.4|9=59|35=0|34=3|49=071|50=071X01|52=20190716-03:33:24.726|56=EXC|10=080|
8=FIX.4.4|9=0049|35=0|34=4|49=EXC|56=071|52=20190716-16:45:11.000|10=176|
8=FIX.4.4|9=59|35=0|34=4|49=071|50=071X01|52=20190716-03:33:54.723|56=EXC|10=081|
8=FIX.4.4|9=110|35=A|34=1|49=071|50=071X01|52=20190716-13:27:12.080|56=EXC|43=N|98=0|108=30|141=Y|553=071FCM001|554=071FCM001|10=107|
8=FIX.4.4|9=0067|35=A|34=1|49=EXC|56=071|52=20190717-13:27:12.149|98=0|108=30|141=Y|10=017|
8=FIX.4.4|9=0049|35=0|34=2|49=EXC|56=071|52=20190717-13:27:42.000|10=176|
8=FIX.4.4|9=59|35=0|34=2|49=071|50=071X01|52=20190716-13:27:43.069|56=EXC|10=084|
8=FIX.4.4|9=0049|35=0|34=3|49=EXC|56=071|52=20190717-13:28:12.000|10=175|
8=FIX.4.4|9=59|35=0|34=3|49=071|50=071X01|52=20190716-13:28:13.069|56=EXC|10=083|
8=FIX.4.4|9=110|35=A|34=1|49=071|50=071X01|52=20190716-13:29:28.441|56=EXC|43=N|98=0|108=30|141=Y|553=071FCM001|554=071FCM001|10=117|
8=FIX.4.4|9=0067|35=A|34=1|49=EXC|56=071|52=20190717-13:29:28.499|98=0|108=30|141=Y|10=034|
8=FIX.4.4|9=0340|35=AE|34=2|49=EXC|56=071|57=071X01|52=20190717-13:29:35.649|571=3S1|487=0|856=14|17=5|573=0|15=COP|880=201907170000000003|75=20190717|55=T24Q19F|762=FUIR|48=26623|22=M|31=1000.000|32=50|381=125000000000.000|60=20190717-13:29:35.649|64=20190717|552=1|54=2|453=3|448=071X01|447=C|452=12|448=071|447=C|452=1|448=071FCM001|447=C|452=36|1=DP002|10=064|
8=FIX.4.4|9=191|35=AE|34=2|49=071|50=071X01|52=20190716-13:29:51.298|56=EXC|31=1000|32=100|55=T24Q19F|60=20190717-13:24:54.135|487=2|571=20190716829251_AE_R|762=FUIR|856=97|880=201907170000000003|552=1|54=2|10=173|
8=FIX.4.4|9=0131|35=AR|34=3|49=EXC|56=071|57=071X01|52=20190717-13:29:51.342|571=20190716829251_AE|487=2|856=97|939=0|17=6|60=20190717-13:29:51.342|10=214|
8=FIX.4.4|9=0354|35=AE|34=4|49=EXC|56=071|57=071X01|52=20190717-13:29:51.342|571=20190716829251_AE|487=2|856=99|17=7|573=0|15=COP|880=201907170000000003|75=20190717|55=T24Q19F|762=FUIR|48=26623|22=M|31=1000.000|32=50|381=125000000000.000|60=20190717-13:29:51.342|64=20190717|552=1|54=2|453=3|448=071X01|447=C|452=12|448=071|447=C|452=1|448=071FCM001|447=C|452=36|1=DP002|10=067|
8=FIX.4.4|9=0450|35=8|34=5|49=EXC|56=071|57=071X01|52=20190717-13:30:03.319|11=156328348942013|17=8|37=0|150=H|1080=20190717-000000000008.00|1081=6|453=5|448=071X01|447=C|452=12|448=071|447=C|452=1|448=035X01|447=C|452=37|448=035|447=C|452=17|448=071FCM001|447=C|452=36|55=T24Q19F|762=FUIR|48=26623|22=M|6=1000.000|14=50|31=1000.000|32=50|38=50|39=2|54=2|60=20190717-13:30:03.319|75=20190717|63=1|64=20190717|151=0|1=DP002|381=125000000000.000|880=201907170000000003|10=252|
8=FIX.4.4|9=59|35=0|34=3|49=071|50=071X01|52=20190716-13:30:21.430|56=EXC|10=067|
8=FIX.4.4|9=59|35=5|34=4|49=071|50=071X01|52=20190716-13:30:27.132|56=EXC|10=078|
8=FIX.4.4|9=0049|35=5|34=6|49=EXC|56=071|52=20190717-13:30:27.175|10=195|
