8=FIX.4.4|9=110|35=A|34=1|49=051|50=051B17|52=20190718-20:57:47.418|56=EXC|43=N|98=0|108=30|141=Y|553=051FCM001|554=051FCM001|10=100|
8=FIX.4.4|9=0067|35=A|34=1|49=EXC|56=051|52=20190718-20:57:47.472|98=0|108=30|141=Y|10=024|
8=FIX.4.4|9=0049|35=0|34=2|49=EXC|56=051|52=20190718-20:58:17.000|10=179|
8=FIX.4.4|9=59|35=0|34=2|49=051|50=051B17|52=20190718-20:58:18.385|56=EXC|10=072|
8=FIX.4.4|9=0049|35=0|34=3|49=EXC|56=051|52=20190718-20:58:47.000|10=183|
8=FIX.4.4|9=59|35=0|34=3|49=051|50=051B17|52=20190718-20:58:48.384|56=EXC|10=075|
8=FIX.4.4|9=0049|35=0|34=4|49=EXC|56=051|52=20190718-20:59:17.000|10=182|
8=FIX.4.4|9=110|35=A|34=1|49=051|50=051B17|52=20190718-21:12:11.319|56=EXC|43=N|98=0|108=30|141=Y|553=051FCM001|554=051FCM001|10=083|
8=FIX.4.4|9=0067|35=A|34=1|49=EXC|56=051|52=20190718-21:12:11.386|98=0|108=30|141=Y|10=011|
8=FIX.4.4|9=0049|35=0|34=2|49=EXC|56=051|52=20190718-21:12:41.000|10=167|
8=FIX.4.4|9=59|35=0|34=2|49=051|50=051B17|52=20190718-21:12:42.273|56=EXC|10=056|
8=FIX.4.4|9=0049|35=0|34=3|49=EXC|56=051|52=20190718-21:13:11.000|10=166|
8=FIX.4.4|9=59|35=0|34=3|49=051|50=051B17|52=20190718-21:13:12.274|56=EXC|10=056|
8=FIX.4.4|9=0049|35=0|34=4|49=EXC|56=051|52=20190718-21:13:41.000|10=170|
8=FIX.4.4|9=59|35=0|34=4|49=051|50=051B17|52=20190718-21:13:42.274|56=EXC|10=060|
8=FIX.4.4|9=110|35=A|34=1|49=051|50=051B17|52=20190718-22:18:19.618|56=EXC|43=N|98=0|108=30|141=Y|553=051FCM001|554=051FCM001|10=100|
8=FIX.4.4|9=0067|35=A|34=1|49=EXC|56=051|52=20190718-14:42:18.683|98=0|108=30|141=Y|10=023|
8=FIX.4.4|9=0049|35=0|34=2|49=EXC|56=051|52=20190718-14:42:48.000|10=179|
8=FIX.4.4|9=59|35=0|34=2|49=051|50=051B17|52=20190718-22:18:50.610|56=EXC|10=057|
8=FIX.4.4|9=110|35=A|34=1|49=051|50=051B17|52=20190718-22:35:57.116|56=EXC|43=N|98=0|108=30|141=Y|553=051FCM001|554=051FCM001|10=094|
8=FIX.4.4|9=0067|35=A|34=1|49=EXC|56=051|52=20190718-14:59:56.188|98=0|108=30|141=Y|10=033|
8=FIX.4.4|9=0049|35=0|34=2|49=EXC|56=051|52=20190718-15:00:26.000|10=170|
8=FIX.4.4|9=59|35=0|34=2|49=051|50=051B17|52=20190718-22:36:28.076|56=EXC|10=068|
8=FIX.4.4|9=0049|35=0|34=3|49=EXC|56=051|52=20190718-15:00:56.000|10=174|
8=FIX.4.4|9=59|35=0|34=3|49=051|50=051B17|52=20190718-22:36:58.080|56=EXC|10=067|
8=FIX.4.4|9=110|35=A|34=1|49=051|50=051B17|52=20190718-22:44:50.449|56=EXC|43=N|98=0|108=30|141=Y|553=051FCM001|554=051FCM001|10=096|
8=FIX.4.4|9=0067|35=A|34=1|49=EXC|56=051|52=20190718-15:08:49.529|98=0|108=30|141=Y|10=029|
8=FIX.4.4|9=0049|35=0|34=2|49=EXC|56=051|52=20190718-15:09:19.000|10=181|
8=FIX.4.4|9=59|35=0|34=2|49=051|50=051B17|52=20190718-22:45:20.440|56=EXC|10=055|
8=FIX.4.4|9=110|35=A|34=1|49=051|50=051B17|52=20190718-22:46:55.085|56=EXC|43=N|98=0|108=30|141=Y|553=051FCM001|554=051FCM001|10=099|
8=FIX.4.4|9=0067|35=A|34=1|49=EXC|56=051|52=20190718-15:10:54.164|98=0|108=30|141=Y|10=013|
8=FIX.4.4|9=59|35=5|34=2|49=051|50=051B17|52=20190718-22:47:18.054|56=EXC|10=070|
8=FIX.4.4|9=0055|35=5|34=2|49=EXC|56=051|52=20190718-15:11:17.109|369=2|10=202|
8=FIX.4.4|9=110|35=A|34=1|49=051|50=051B17|52=20190718-22:49:25.617|56=EXC|43=N|98=0|108=30|141=Y|553=051FCM001|554=051FCM001|10=100|
8=FIX.4.4|9=0067|35=A|34=1|49=EXC|56=051|52=20190718-15:13:24.689|98=0|108=30|141=Y|10=025|
8=FIX.4.4|9=110|35=A|34=1|49=051|50=051B17|52=20190718-22:59:06.309|56=EXC|43=N|98=0|108=30|141=Y|553=051FCM001|554=051FCM001|10=098|
8=FIX.4.4|9=0067|35=A|34=1|49=EXC|56=051|52=20190718-15:23:05.392|98=0|108=30|141=Y|10=016|
8=FIX.4.4|9=0049|35=0|34=2|49=EXC|56=051|52=20190718-15:23:35.000|10=175|
8=FIX.4.4|9=59|35=0|34=2|49=051|50=051B17|52=20190718-22:59:36.309|56=EXC|10=071|
8=FIX.4.4|9=59|35=5|34=3|49=051|50=051B17|52=20190718-22:59:50.299|56=EXC|10=081|
8=FIX.4.4|9=0055|35=5|34=3|49=EXC|56=051|52=20190718-15:23:49.353|369=3|10=213|
8=FIX.4.4|9=110|35=A|34=1|49=051|50=051B17|52=20190718-23:14:21.332|56=EXC|43=N|98=0|108=30|141=Y|553=051FCM001|554=051FCM001|10=083|
8=FIX.4.4|9=0067|35=A|34=1|49=EXC|56=051|52=20190718-15:38:20.395|98=0|108=30|141=Y|10=022|
8=FIX.4.4|9=0049|35=0|34=2|49=EXC|56=051|52=20190718-15:38:50.000|10=178|
8=FIX.4.4|9=59|35=0|34=2|49=051|50=051B17|52=20190718-23:14:52.281|56=EXC|10=060|
8=FIX.4.4|9=59|35=5|34=3|49=051|50=051B17|52=20190718-23:15:06.281|56=EXC|10=066|
8=FIX.4.4|9=0055|35=5|34=3|49=EXC|56=051|52=20190718-15:39:05.327|369=3|10=213|
8=FIX.4.4|9=110|35=A|34=1|49=051|50=051B17|52=20190718-23:25:09.417|56=EXC|43=N|98=0|108=30|141=Y|553=051FCM001|554=051FCM001|10=095|
8=FIX.4.4|9=0067|35=A|34=1|49=EXC|56=051|52=20190718-15:49:08.479|98=0|108=30|141=Y|10=033|
8=FIX.4.4|9=0049|35=0|34=2|49=EXC|56=051|52=20190718-15:49:38.000|10=186|
8=FIX.4.4|9=59|35=0|34=2|49=051|50=051B17|52=20190718-23:25:40.383|56=EXC|10=062|
8=FIX.4.4|9=59|35=5|34=3|49=051|50=051B17|52=20190718-23:25:53.382|56=EXC|10=071|
8=FIX.4.4|9=0055|35=5|34=3|49=EXC|56=051|52=20190718-15:49:52.424|369=3|10=214|
