8=FIX.4.4|9=110|35=A|34=1|49=045|50=045B17|52=20190723-14:41:06.083|56=EXC|43=N|98=0|108=30|141=Y|553=045FCM001|554=045FCM001|10=097|
8=FIX.4.4|9=0067|35=A|34=1|49=EXC|56=045|52=20190723-14:41:06.149|98=0|108=30|141=Y|10=015|
8=FIX.4.4|9=0049|35=0|34=2|49=EXC|56=045|52=20190723-14:41:36.000|10=174|
8=FIX.4.4|9=59|35=0|34=2|49=045|50=045B17|52=20190723-14:41:36.075|56=EXC|10=065|
8=FIX.4.4|9=0049|35=0|34=3|49=EXC|56=045|52=20190723-14:42:06.000|10=173|
8=FIX.4.4|9=59|35=0|34=3|49=045|50=045B17|52=20190723-14:42:06.088|56=EXC|10=068|
8=FIX.4.4|9=0049|35=0|34=4|49=EXC|56=045|52=20190723-14:42:36.000|10=177|
8=FIX.4.4|9=59|35=0|34=4|49=045|50=045B17|52=20190723-14:42:36.088|56=EXC|10=072|
8=FIX.4.4|9=110|35=A|34=1|49=045|50=045B17|52=20190723-15:21:29.914|56=EXC|43=N|98=0|108=30|141=Y|553=045FCM001|554=045FCM001|10=104|
8=FIX.4.4|9=0067|35=A|34=1|49=EXC|56=045|52=20190723-15:21:29.971|98=0|108=30|141=Y|10=022|
8=FIX.4.4|9=0049|35=0|34=2|49=EXC|56=045|52=20190723-15:21:59.000|10=178|
8=FIX.4.4|9=59|35=0|34=2|49=045|50=045B17|52=20190723-15:22:00.871|56=EXC|10=060|
8=FIX.4.4|9=0049|35=0|34=3|49=EXC|56=045|52=20190723-15:22:29.000|10=177|
8=FIX.4.4|9=59|35=0|34=3|49=045|50=045B17|52=20190723-15:22:30.871|56=EXC|10=064|
8=FIX.4.4|9=110|35=A|34=1|49=045|50=045B17|52=20190723-15:30:28.666|56=EXC|43=N|98=0|108=30|141=Y|553=045FCM001|554=045FCM001|10=107|
8=FIX.4.4|9=0067|35=A|34=1|49=EXC|56=045|52=20190723-15:30:28.732|98=0|108=30|141=Y|10=016|
8=FIX.4.4|9=0049|35=0|34=2|49=EXC|56=045|52=20190723-15:30:58.000|10=177|
8=FIX.4.4|9=59|35=0|34=2|49=045|50=045B17|52=20190723-15:30:59.637|56=EXC|10=073|
8=FIX.4.4|9=0049|35=0|34=3|49=EXC|56=045|52=20190723-15:31:28.000|10=176|
8=FIX.4.4|9=59|35=0|34=3|49=045|50=045B17|52=20190723-15:31:29.647|56=EXC|10=073|
8=FIX.4.4|9=0049|35=0|34=4|49=EXC|56=045|52=20190723-15:31:58.000|10=180|
8=FIX.4.4|9=59|35=0|34=4|49=045|50=045B17|52=20190723-15:31:59.639|56=EXC|10=078|
8=FIX.4.4|9=0049|35=0|34=5|49=EXC|56=045|52=20190723-15:32:28.000|10=179|
8=FIX.4.4|9=59|35=0|34=5|49=045|50=045B17|52=20190723-15:32:29.640|56=EXC|10=069|
8=FIX.4.4|9=0049|35=0|34=6|49=EXC|56=045|52=20190723-15:32:58.000|10=183|
8=FIX.4.4|9=59|35=0|34=6|49=045|50=045B17|52=20190723-15:32:59.640|56=EXC|10=073|
8=FIX.4.4|9=110|35=A|34=1|49=045|50=045B17|52=20190723-15:51:18.628|56=EXC|43=N|98=0|108=30|141=Y|553=045FCM001|554=045FCM001|10=107|
8=FIX.4.4|9=0067|35=A|34=1|49=EXC|56=045|52=20190723-15:51:18.696|98=0|108=30|141=Y|10=027|
8=FIX.4.4|9=0049|35=0|34=2|49=EXC|56=045|52=20190723-15:51:48.000|10=179|
8=FIX.4.4|9=59|35=0|34=2|49=045|50=045B17|52=20190723-15:51:49.614|56=EXC|10=070|
8=FIX.4.4|9=0049|35=0|34=3|49=EXC|56=045|52=20190723-15:52:18.000|10=178|
8=FIX.4.4|9=59|35=0|34=3|49=045|50=045B17|52=20190723-15:52:19.610|56=EXC|10=065|
8=FIX.4.4|9=0049|35=0|34=4|49=EXC|56=045|52=20190723-15:52:48.000|10=182|
8=FIX.4.4|9=59|35=0|34=4|49=045|50=045B17|52=20190723-15:52:49.606|56=EXC|10=074|
8=FIX.4.4|9=110|35=A|34=1|49=045|50=045B17|52=20190723-16:20:47.948|56=EXC|43=N|98=0|108=30|141=Y|553=045FCM001|554=045FCM001|10=111|
8=FIX.4.4|9=0067|35=A|34=1|49=EXC|56=045|52=20190723-16:20:48.011|98=0|108=30|141=Y|10=008|
8=FIX.4.4|9=0049|35=0|34=2|49=EXC|56=045|52=20190723-16:21:18.000|10=174|
8=FIX.4.4|9=59|35=0|34=2|49=045|50=045B17|52=20190723-16:21:17.962|56=EXC|10=069|
8=FIX.4.4|9=0049|35=0|34=3|49=EXC|56=045|52=20190723-16:21:48.000|10=178|
8=FIX.4.4|9=59|35=0|34=3|49=045|50=045B17|52=20190723-16:21:47.959|56=EXC|10=079|
8=FIX.4.4|9=0049|35=0|34=4|49=EXC|56=045|52=20190723-16:22:18.000|10=177|
8=FIX.4.4|9=59|35=0|34=4|49=045|50=045B17|52=20190723-16:22:17.958|56=EXC|10=077|
8=FIX.4.4|9=0049|35=0|34=5|49=EXC|56=045|52=20190723-16:22:48.000|10=181|
8=FIX.4.4|9=59|35=0|34=5|49=045|50=045B17|52=20190723-16:22:47.958|56=EXC|10=081|
8=FIX.4.4|9=110|35=A|34=1|49=045|50=045B17|52=20190723-16:47:43.096|56=EXC|43=N|98=0|108=30|141=Y|553=045FCM001|554=045FCM001|10=110|
8=FIX.4.4|9=0067|35=A|34=1|49=EXC|56=045|52=20190723-16:47:43.170|98=0|108=30|141=Y|10=018|
8=FIX.4.4|9=0049|35=0|34=2|49=EXC|56=045|52=20190723-16:48:13.000|10=178|
8=FIX.4.4|9=59|35=0|34=2|49=045|50=045B17|52=20190723-16:48:14.070|56=EXC|10=065|
8=FIX.4.4|9=0049|35=0|34=3|49=EXC|56=045|52=20190723-16:48:43.000|10=182|
8=FIX.4.4|9=59|35=0|34=3|49=045|50=045B17|52=20190723-16:48:45.058|56=EXC|10=076|
8=FIX.4.4|9=0049|35=0|34=4|49=EXC|56=045|52=20190723-16:49:13.000|10=181|
8=FIX.4.4|9=59|35=0|34=4|49=045|50=045B17|52=20190723-16:49:15.057|56=EXC|10=074|
8=FIX.4.4|9=0049|35=0|34=5|49=EXC|56=045|52=20190723-16:49:43.000|10=185|
8=FIX.4.4|9=59|35=0|34=5|49=045|50=045B17|52=20190723-16:49:45.057|56=EXC|10=078|
8=FIX.4.4|9=0049|35=0|34=6|49=EXC|56=045|52=20190723-16:50:13.000|10=175|
8=FIX.4.4|9=59|35=0|34=6|49=045|50=045B17|52=20190723-16:50:15.058|56=EXC|10=069|
8=FIX.4.4|9=0049|35=0|34=7|49=EXC|56=045|52=20190723-16:50:43.000|10=179|
8=FIX.4.4|9=59|35=0|34=7|49=045|50=045B17|52=20190723-16:50:45.069|56=EXC|10=075|
8=FIX.4.4|9=0049|35=0|34=8|49=EXC|56=045|52=20190723-16:51:13.000|10=178|
8=FIX.4.4|9=59|35=0|34=8|49=045|50=045B17|52=20190723-16:51:15.071|56=EXC|10=067|
8=FIX.4.4|9=0049|35=0|34=9|49=EXC|56=045|52=20190723-16:51:43.000|10=182|
8=FIX.4.4|9=59|35=0|34=9|49=045|50=045B17|52=20190723-16:51:46.068|56=EXC|10=078|
8=FIX.4.4|9=0050|35=0|34=10|49=EXC|56=045|52=20190723-16:52:13.000|10=212|
8=FIX.4.4|9=60|35=0|34=10|49=045|50=045B17|52=20190723-16:52:16.067|56=EXC|10=107|
8=FIX.4.4|9=0050|35=0|34=11|49=EXC|56=045|52=20190723-16:52:43.000|10=216|
8=FIX.4.4|9=60|35=0|34=11|49=045|50=045B17|52=20190723-16:52:46.062|56=EXC|10=106|
8=FIX.4.4|9=0050|35=0|34=12|49=EXC|56=045|52=20190723-16:53:13.000|10=215|
8=FIX.4.4|9=60|35=0|34=12|49=045|50=045B17|52=20190723-16:53:16.057|56=EXC|10=109|
8=FIX.4.4|9=0050|35=0|34=13|49=EXC|56=045|52=20190723-16:53:43.000|10=219|
8=FIX.4.4|9=60|35=0|34=13|49=045|50=045B17|52=20190723-16:53:46.060|56=EXC|10=107|
8=FIX.4.4|9=0050|35=0|34=14|49=EXC|56=045|52=20190723-16:54:13.000|10=218|
8=FIX.4.4|9=60|35=0|34=14|49=045|50=045B17|52=20190723-16:54:16.068|56=EXC|10=114|
8=FIX.4.4|9=110|35=A|34=1|49=045|50=045B17|52=20190723-19:42:33.145|56=EXC|43=N|98=0|108=30|141=Y|553=045FCM001|554=045FCM001|10=102|
8=FIX.4.4|9=0067|35=A|34=1|49=EXC|56=045|52=20190723-19:42:33.243|98=0|108=30|141=Y|10=016|
8=FIX.4.4|9=0049|35=0|34=2|49=EXC|56=045|52=20190723-19:43:03.000|10=175|
8=FIX.4.4|9=59|35=0|34=2|49=045|50=045B17|52=20190723-19:43:04.064|56=EXC|10=065|
8=FIX.4.4|9=0049|35=0|34=3|49=EXC|56=045|52=20190723-19:43:33.000|10=179|
8=FIX.4.4|9=59|35=0|34=3|49=045|50=045B17|52=20190723-19:43:34.064|56=EXC|10=069|
8=FIX.4.4|9=0049|35=0|34=4|49=EXC|56=045|52=20190723-19:44:03.000|10=178|
8=FIX.4.4|9=59|35=0|34=4|49=045|50=045B17|52=20190723-19:44:04.070|56=EXC|10=065|
8=FIX.4.4|9=59|35=5|34=5|49=045|50=045B17|52=20190723-19:44:10.065|56=EXC|10=072|
8=FIX.4.4|9=0055|35=5|34=5|49=EXC|56=045|52=20190723-19:44:10.131|369=5|10=205|
8=FIX.4.4|9=110|35=A|34=1|49=045|50=045B17|52=20190723-21:39:14.748|56=EXC|43=N|98=0|108=30|141=Y|553=045FCM001|554=045FCM001|10=109|
8=FIX.4.4|9=0067|35=A|34=1|49=EXC|56=045|52=20190723-14:34:02.835|98=0|108=30|141=Y|10=015|
8=FIX.4.4|9=0049|35=0|34=2|49=EXC|56=045|52=20190723-14:34:32.000|10=172|
8=FIX.4.4|9=59|35=0|34=2|49=045|50=045B17|52=20190723-21:39:45.695|56=EXC|10=078|
8=FIX.4.4|9=0049|35=0|34=3|49=EXC|56=045|52=20190723-14:35:02.000|10=171|
8=FIX.4.4|9=59|35=0|34=3|49=045|50=045B17|52=20190723-21:40:15.687|56=EXC|10=069|
8=FIX.4.4|9=59|35=5|34=4|49=045|50=045B17|52=20190723-21:40:32.694|56=EXC|10=072|
8=FIX.4.4|9=0055|35=5|34=4|49=EXC|56=045|52=20190723-14:35:20.765|369=4|10=212|
8=FIX.4.4|9=110|35=A|34=1|49=045|50=045B17|52=20190724-13:09:23.977|56=EXC|43=N|98=0|108=30|141=Y|553=045FCM001|554=045FCM001|10=112|
8=FIX.4.4|9=0067|35=A|34=1|49=EXC|56=045|52=20190724-14:38:13.071|98=0|108=30|141=Y|10=014|
8=FIX.4.4|9=0049|35=0|34=2|49=EXC|56=045|52=20190724-14:38:43.000|10=179|
8=FIX.4.4|9=59|35=0|34=2|49=045|50=045B17|52=20190724-13:09:54.895|56=EXC|10=079|
8=FIX.4.4|9=0049|35=0|34=3|49=EXC|56=045|52=20190724-14:39:13.000|10=178|
8=FIX.4.4|9=59|35=0|34=3|49=045|50=045B17|52=20190724-13:10:25.882|56=EXC|10=066|
8=FIX.4.4|9=0049|35=0|34=4|49=EXC|56=045|52=20190724-14:39:43.000|10=182|
8=FIX.4.4|9=59|35=0|34=4|49=045|50=045B17|52=20190724-13:10:55.884|56=EXC|10=072|
8=FIX.4.4|9=0049|35=0|34=5|49=EXC|56=045|52=20190724-14:40:13.000|10=172|
8=FIX.4.4|9=59|35=0|34=5|49=045|50=045B17|52=20190724-13:11:25.891|56=EXC|10=069|
8=FIX.4.4|9=59|35=5|34=6|49=045|50=045B17|52=20190724-13:11:49.891|56=EXC|10=081|
8=FIX.4.4|9=0055|35=5|34=6|49=EXC|56=045|52=20190724-14:40:38.955|369=6|10=223|
8=FIX.4.4|9=110|35=A|34=1|49=045|50=045B17|52=20190724-13:20:03.990|56=EXC|43=N|98=0|108=30|141=Y|553=045FCM001|554=045FCM001|10=098|
8=FIX.4.4|9=0067|35=A|34=1|49=EXC|56=045|52=20190724-14:48:53.071|98=0|108=30|141=Y|10=019|
8=FIX.4.4|9=0049|35=0|34=2|49=EXC|56=045|52=20190724-14:49:23.000|10=179|
8=FIX.4.4|9=59|35=0|34=2|49=045|50=045B17|52=20190724-13:20:34.945|56=EXC|10=066|
8=FIX.4.4|9=59|35=5|34=3|49=045|50=045B17|52=20190724-13:21:02.949|56=EXC|10=072|
8=FIX.4.4|9=0055|35=5|34=3|49=EXC|56=045|52=20190724-14:49:52.018|369=3|10=212|
8=FIX.4.4|9=110|35=A|34=1|49=045|50=045B17|52=20190724-14:03:52.945|56=EXC|43=N|98=0|108=30|141=Y|553=045FCM001|554=045FCM001|10=104|
8=FIX.4.4|9=0067|35=A|34=1|49=EXC|56=045|52=20190724-15:32:42.029|98=0|108=30|141=Y|10=014|
8=FIX.4.4|9=0049|35=0|34=2|49=EXC|56=045|52=20190724-15:33:12.000|10=171|
8=FIX.4.4|9=59|35=0|34=2|49=045|50=045B17|52=20190724-14:04:22.937|56=EXC|10=067|
8=FIX.4.4|9=59|35=5|34=3|49=045|50=045B17|52=20190724-14:04:51.898|56=EXC|10=081|
8=FIX.4.4|9=0055|35=5|34=3|49=EXC|56=045|52=20190724-15:33:40.970|369=3|10=210|
8=FIX.4.4|9=110|35=A|34=1|49=045|50=045B17|52=20190724-14:38:41.205|56=EXC|43=N|98=0|108=30|141=Y|553=045FCM001|554=045FCM001|10=099|
8=FIX.4.4|9=0067|35=A|34=1|49=EXC|56=045|52=20190724-16:07:30.294|98=0|108=30|141=Y|10=018|
8=FIX.4.4|9=0049|35=0|34=2|49=EXC|56=045|52=20190724-16:08:00.000|10=171|
8=FIX.4.4|9=59|35=0|34=2|49=045|50=045B17|52=20190724-14:39:12.149|56=EXC|10=069|
8=FIX.4.4|9=0049|35=0|34=3|49=EXC|56=045|52=20190724-16:08:30.000|10=175|
8=FIX.4.4|9=59|35=0|34=3|49=045|50=045B17|52=20190724-14:39:42.149|56=EXC|10=073|
8=FIX.4.4|9=0049|35=0|34=4|49=EXC|56=045|52=20190724-16:09:00.000|10=174|
8=FIX.4.4|9=59|35=0|34=4|49=045|50=045B17|52=20190724-14:40:12.149|56=EXC|10=063|
8=FIX.4.4|9=0049|35=0|34=5|49=EXC|56=045|52=20190724-16:09:30.000|10=178|
8=FIX.4.4|9=59|35=0|34=5|49=045|50=045B17|52=20190724-14:40:42.149|56=EXC|10=067|
8=FIX.4.4|9=0049|35=0|34=6|49=EXC|56=045|52=20190724-16:10:00.000|10=168|
8=FIX.4.4|9=59|35=0|34=6|49=045|50=045B17|52=20190724-14:41:12.150|56=EXC|10=058|
8=FIX.4.4|9=0049|35=0|34=7|49=EXC|56=045|52=20190724-16:10:30.000|10=172|
8=FIX.4.4|9=59|35=0|34=7|49=045|50=045B17|52=20190724-14:41:42.150|56=EXC|10=062|
8=FIX.4.4|9=0049|35=0|34=8|49=EXC|56=045|52=20190724-16:11:00.000|10=171|
8=FIX.4.4|9=59|35=0|34=8|49=045|50=045B17|52=20190724-14:42:12.156|56=EXC|10=067|
8=FIX.4.4|9=0049|35=0|34=9|49=EXC|56=045|52=20190724-16:11:30.000|10=175|
8=FIX.4.4|9=59|35=0|34=9|49=045|50=045B17|52=20190724-14:42:42.150|56=EXC|10=065|
8=FIX.4.4|9=0050|35=0|34=10|49=EXC|56=045|52=20190724-16:12:00.000|10=205|
8=FIX.4.4|9=60|35=0|34=10|49=045|50=045B17|52=20190724-14:43:12.156|56=EXC|10=101|
8=FIX.4.4|9=0050|35=0|34=11|49=EXC|56=045|52=20190724-16:12:30.000|10=209|
8=FIX.4.4|9=60|35=0|34=11|49=045|50=045B17|52=20190724-14:43:42.149|56=EXC|10=107|
8=FIX.4.4|9=0050|35=0|34=12|49=EXC|56=045|52=20190724-16:13:00.000|10=208|
8=FIX.4.4|9=60|35=0|34=12|49=045|50=045B17|52=20190724-14:44:12.149|56=EXC|10=106|
8=FIX.4.4|9=0050|35=0|34=13|49=EXC|56=045|52=20190724-16:13:30.000|10=212|
8=FIX.4.4|9=60|35=0|34=13|49=045|50=045B17|52=20190724-14:44:42.150|56=EXC|10=102|
8=FIX.4.4|9=0050|35=0|34=14|49=EXC|56=045|52=20190724-16:14:00.000|10=211|
8=FIX.4.4|9=60|35=0|34=14|49=045|50=045B17|52=20190724-14:45:12.149|56=EXC|10=109|
8=FIX.4.4|9=0050|35=0|34=15|49=EXC|56=045|52=20190724-16:14:30.000|10=215|
8=FIX.4.4|9=60|35=0|34=15|49=045|50=045B17|52=20190724-14:45:42.149|56=EXC|10=113|
8=FIX.4.4|9=0050|35=0|34=16|49=EXC|56=045|52=20190724-16:15:00.000|10=214|
8=FIX.4.4|9=60|35=0|34=16|49=045|50=045B17|52=20190724-14:46:12.150|56=EXC|10=104|
8=FIX.4.4|9=0050|35=0|34=17|49=EXC|56=045|52=20190724-16:15:30.000|10=218|
8=FIX.4.4|9=60|35=0|34=17|49=045|50=045B17|52=20190724-14:46:42.149|56=EXC|10=116|
8=FIX.4.4|9=0050|35=0|34=18|49=EXC|56=045|52=20190724-16:16:00.000|10=217|
8=FIX.4.4|9=60|35=0|34=18|49=045|50=045B17|52=20190724-14:47:12.149|56=EXC|10=115|
8=FIX.4.4|9=0050|35=0|34=19|49=EXC|56=045|52=20190724-16:16:30.000|10=221|
8=FIX.4.4|9=60|35=0|34=19|49=045|50=045B17|52=20190724-14:47:42.150|56=EXC|10=111|
8=FIX.4.4|9=0050|35=0|34=20|49=EXC|56=045|52=20190724-16:17:00.000|10=211|
8=FIX.4.4|9=60|35=0|34=20|49=045|50=045B17|52=20190724-14:48:12.150|56=EXC|10=101|
8=FIX.4.4|9=0050|35=0|34=21|49=EXC|56=045|52=20190724-16:17:30.000|10=215|
8=FIX.4.4|9=60|35=0|34=21|49=045|50=045B17|52=20190724-14:48:42.150|56=EXC|10=105|
8=FIX.4.4|9=0050|35=0|34=22|49=EXC|56=045|52=20190724-16:18:00.000|10=214|
8=FIX.4.4|9=60|35=0|34=22|49=045|50=045B17|52=20190724-14:49:12.151|56=EXC|10=105|
8=FIX.4.4|9=0050|35=0|34=23|49=EXC|56=045|52=20190724-16:18:30.000|10=218|
8=FIX.4.4|9=60|35=0|34=23|49=045|50=045B17|52=20190724-14:49:42.150|56=EXC|10=108|
8=FIX.4.4|9=0050|35=0|34=24|49=EXC|56=045|52=20190724-16:19:00.000|10=217|
8=FIX.4.4|9=60|35=0|34=24|49=045|50=045B17|52=20190724-14:50:12.149|56=EXC|10=106|
8=FIX.4.4|9=0050|35=0|34=25|49=EXC|56=045|52=20190724-16:19:30.000|10=221|
8=FIX.4.4|9=60|35=0|34=25|49=045|50=045B17|52=20190724-14:50:42.149|56=EXC|10=110|
8=FIX.4.4|9=0050|35=0|34=26|49=EXC|56=045|52=20190724-16:20:00.000|10=211|
8=FIX.4.4|9=60|35=0|34=26|49=045|50=045B17|52=20190724-14:51:12.155|56=EXC|10=106|
8=FIX.4.4|9=0050|35=0|34=27|49=EXC|56=045|52=20190724-16:20:30.000|10=215|
8=FIX.4.4|9=60|35=0|34=27|49=045|50=045B17|52=20190724-14:51:42.149|56=EXC|10=113|
8=FIX.4.4|9=0050|35=0|34=28|49=EXC|56=045|52=20190724-16:21:00.000|10=214|
8=FIX.4.4|9=60|35=0|34=28|49=045|50=045B17|52=20190724-14:52:12.149|56=EXC|10=112|
8=FIX.4.4|9=0050|35=0|34=29|49=EXC|56=045|52=20190724-16:21:30.000|10=218|
8=FIX.4.4|9=60|35=0|34=29|49=045|50=045B17|52=20190724-14:52:42.151|56=EXC|10=109|
8=FIX.4.4|9=0050|35=0|34=30|49=EXC|56=045|52=20190724-16:22:00.000|10=208|
8=FIX.4.4|9=60|35=0|34=30|49=045|50=045B17|52=20190724-14:53:12.150|56=EXC|10=098|
8=FIX.4.4|9=110|35=A|34=1|49=045|50=045B17|52=20190724-14:54:13.315|56=EXC|43=N|98=0|108=30|141=Y|553=045FCM001|554=045FCM001|10=098|
8=FIX.4.4|9=0067|35=A|34=1|49=EXC|56=045|52=20190724-16:23:02.403|98=0|108=30|141=Y|10=007|
8=FIX.4.4|9=0049|35=0|34=2|49=EXC|56=045|52=20190724-16:23:32.000|10=173|
8=FIX.4.4|9=59|35=0|34=2|49=045|50=045B17|52=20190724-14:54:44.253|56=EXC|10=067|
8=FIX.4.4|9=0049|35=0|34=3|49=EXC|56=045|52=20190724-16:24:02.000|10=172|
8=FIX.4.4|9=59|35=0|34=3|49=045|50=045B17|52=20190724-14:55:15.241|56=EXC|10=064|
8=FIX.4.4|9=0049|35=0|34=4|49=EXC|56=045|52=20190724-16:24:32.000|10=176|
8=FIX.4.4|9=59|35=0|34=4|49=045|50=045B17|52=20190724-14:55:45.247|56=EXC|10=074|
8=FIX.4.4|9=0049|35=0|34=5|49=EXC|56=045|52=20190724-16:25:02.000|10=175|
8=FIX.4.4|9=59|35=0|34=5|49=045|50=045B17|52=20190724-14:56:15.255|56=EXC|10=072|
8=FIX.4.4|9=0049|35=0|34=6|49=EXC|56=045|52=20190724-16:25:32.000|10=179|
8=FIX.4.4|9=59|35=0|34=6|49=045|50=045B17|52=20190724-14:56:46.242|56=EXC|10=073|
8=FIX.4.4|9=0049|35=0|34=7|49=EXC|56=045|52=20190724-16:26:02.000|10=178|
8=FIX.4.4|9=59|35=0|34=7|49=045|50=045B17|52=20190724-14:57:16.242|56=EXC|10=072|
8=FIX.4.4|9=110|35=A|34=1|49=045|50=045B17|52=20190724-15:07:09.809|56=EXC|43=N|98=0|108=30|141=Y|553=045FCM001|554=045FCM001|10=110|
8=FIX.4.4|9=0067|35=A|34=1|49=EXC|56=045|52=20190724-16:35:58.902|98=0|108=30|141=Y|10=025|
8=FIX.4.4|9=0049|35=0|34=2|49=EXC|56=045|52=20190724-16:36:28.000|10=182|
8=FIX.4.4|9=59|35=0|34=2|49=045|50=045B17|52=20190724-15:07:40.768|56=EXC|10=073|
8=FIX.4.4|9=0049|35=0|34=3|49=EXC|56=045|52=20190724-16:36:58.000|10=186|
8=FIX.4.4|9=59|35=0|34=3|49=045|50=045B17|52=20190724-15:08:10.766|56=EXC|10=070|
8=FIX.4.4|9=59|35=5|34=4|49=045|50=045B17|52=20190724-15:08:22.769|56=EXC|10=082|
8=FIX.4.4|9=0055|35=5|34=4|49=EXC|56=045|52=20190724-16:37:11.843|369=4|10=214|
8=FIX.4.4|9=110|35=A|34=1|49=045|50=045B17|52=20190724-16:10:06.833|56=EXC|43=N|98=0|108=30|141=Y|553=045FCM001|554=045FCM001|10=099|
8=FIX.4.4|9=0067|35=A|34=1|49=EXC|56=045|52=20190724-17:38:55.918|98=0|108=30|141=Y|10=033|
8=FIX.4.4|9=0049|35=0|34=2|49=EXC|56=045|52=20190724-17:39:25.000|10=183|
8=FIX.4.4|9=59|35=0|34=2|49=045|50=045B17|52=20190724-16:10:37.787|56=EXC|10=075|
8=FIX.4.4|9=0049|35=0|34=3|49=EXC|56=045|52=20190724-17:39:55.000|10=187|
8=FIX.4.4|9=59|35=0|34=3|49=045|50=045B17|52=20190724-16:11:07.784|56=EXC|10=071|
8=FIX.4.4|9=0049|35=0|34=4|49=EXC|56=045|52=20190724-17:40:25.000|10=177|
8=FIX.4.4|9=59|35=0|34=4|49=045|50=045B17|52=20190724-16:11:37.791|56=EXC|10=073|
8=FIX.4.4|9=0049|35=0|34=5|49=EXC|56=045|52=20190724-17:40:55.000|10=181|
8=FIX.4.4|9=59|35=0|34=5|49=045|50=045B17|52=20190724-16:12:07.783|56=EXC|10=073|
8=FIX.4.4|9=59|35=5|34=6|49=045|50=045B17|52=20190724-16:12:30.794|56=EXC|10=077|
8=FIX.4.4|9=0055|35=5|34=6|49=EXC|56=045|52=20190724-17:41:19.857|369=6|10=227|
8=FIX.4.4|9=110|35=A|34=1|49=045|50=045B17|52=20190724-20:44:55.097|56=EXC|43=N|98=0|108=30|141=Y|553=045FCM001|554=045FCM001|10=107|
8=FIX.4.4|9=0067|35=A|34=1|49=EXC|56=045|52=20190724-14:39:48.187|98=0|108=30|141=Y|10=031|
8=FIX.4.4|9=0049|35=0|34=2|49=EXC|56=045|52=20190724-14:40:18.000|10=174|
8=FIX.4.4|9=59|35=0|34=2|49=045|50=045B17|52=20190724-20:45:25.979|56=EXC|10=078|
8=FIX.4.4|9=0049|35=0|34=3|49=EXC|56=045|52=20190724-14:40:48.000|10=178|
8=FIX.4.4|9=59|35=0|34=3|49=045|50=045B17|52=20190724-20:45:55.979|56=EXC|10=082|
8=FIX.4.4|9=0049|35=0|34=4|49=EXC|56=045|52=20190724-14:41:18.000|10=177|
8=FIX.4.4|9=59|35=0|34=4|49=045|50=045B17|52=20190724-20:46:25.985|56=EXC|10=078|
8=FIX.4.4|9=0049|35=0|34=5|49=EXC|56=045|52=20190724-14:41:48.000|10=181|
8=FIX.4.4|9=59|35=0|34=5|49=045|50=045B17|52=20190724-20:46:55.979|56=EXC|10=085|
8=FIX.4.4|9=59|35=5|34=6|49=045|50=045B17|52=20190724-20:47:19.979|56=EXC|10=092|
8=FIX.4.4|9=0055|35=5|34=6|49=EXC|56=045|52=20190724-14:42:13.030|369=6|10=202|
8=FIX.4.4|9=110|35=A|34=1|49=045|50=045B17|52=20190724-23:15:49.081|56=EXC|43=N|98=0|108=30|141=Y|553=045FCM001|554=045FCM001|10=104|
8=FIX.4.4|9=0067|35=A|34=1|49=EXC|56=045|52=20190724-17:10:42.155|98=0|108=30|141=Y|10=012|
8=FIX.4.4|9=0049|35=0|34=2|49=EXC|56=045|52=20190724-17:11:12.000|10=169|
8=FIX.4.4|9=59|35=0|34=2|49=045|50=045B17|52=20190724-23:16:20.033|56=EXC|10=055|
8=FIX.4.4|9=0049|35=0|34=3|49=EXC|56=045|52=20190724-17:11:42.000|10=173|
8=FIX.4.4|9=59|35=0|34=3|49=045|50=045B17|52=20190724-23:16:50.032|56=EXC|10=058|
8=FIX.4.4|9=0049|35=0|34=4|49=EXC|56=045|52=20190724-17:12:12.000|10=172|
8=FIX.4.4|9=59|35=0|34=4|49=045|50=045B17|52=20190724-23:17:20.034|56=EXC|10=059|
8=FIX.4.4|9=0049|35=0|34=5|49=EXC|56=045|52=20190724-17:12:42.000|10=176|
8=FIX.4.4|9=59|35=0|34=5|49=045|50=045B17|52=20190724-23:17:50.033|56=EXC|10=062|
8=FIX.4.4|9=0049|35=0|34=6|49=EXC|56=045|52=20190724-17:13:12.000|10=175|
8=FIX.4.4|9=59|35=0|34=6|49=045|50=045B17|52=20190724-23:18:20.033|56=EXC|10=061|
8=FIX.4.4|9=0049|35=0|34=7|49=EXC|56=045|52=20190724-17:13:42.000|10=179|
8=FIX.4.4|9=59|35=0|34=7|49=045|50=045B17|52=20190724-23:18:50.038|56=EXC|10=070|
