8=FIX.4.4|9=110|35=A|34=1|49=071|50=071X01|52=20190709-15:51:46.152|56=EXC|43=N|98=0|108=30|141=Y|553=071FCM001|554=071FCM001|10=115|
8=FIX.4.4|9=0067|35=A|34=1|49=EXC|56=071|52=20190712-15:52:20.655|98=0|108=30|141=Y|10=013|
8=FIX.4.4|9=0049|35=0|34=2|49=EXC|56=071|52=20190712-15:52:50.000|10=170|
8=FIX.4.4|9=59|35=0|34=2|49=071|50=071X01|52=20190709-15:52:17.137|56=EXC|10=083|
8=FIX.4.4|9=110|35=A|34=1|49=071|50=071X01|52=20190709-15:57:56.717|56=EXC|43=N|98=0|108=30|141=Y|553=071FCM001|554=071FCM001|10=129|
8=FIX.4.4|9=0067|35=A|34=1|49=EXC|56=071|52=20190712-15:58:31.214|98=0|108=30|141=Y|10=012|
8=FIX.4.4|9=0214|35=R|34=2|49=EXC|56=071|57=071X01|52=20190712-15:58:38.087|131=20190712-000000000001.00|146=1|55=T24Q19F|762=FUIR|48=26622|22=M|54=1|38=100|453=3|448=035X01|447=C|452=12|448=035|447=C|452=1|448=071X01|447=C|452=37|10=056|
8=FIX.4.4|9=192|35=S|34=2|49=071|50=071X01|52=20190709-15:58:23.700|56=EXC|1=DP002|55=T24Q19F|62=20190830-22:00:00.000|117=201907091057531_S|131=20190712-000000000001.00|132=0|133=1000|134=0|135=100|762=FUIR|10=102|
8=FIX.4.4|9=0281|35=AI|34=3|49=EXC|56=071|57=071X01|52=20190712-15:58:58.189|131=20190712-000000000001.00|117=201907091057531_S|453=3|448=035X01|447=C|452=12|448=035|447=C|452=1|448=071X01|447=C|452=37|55=T24Q19F|762=FUIR|48=26622|22=M|54=1|1=DP002|133=1000.000|135=100|62=20190830-22:00:00|297=16|10=091|
8=FIX.4.4|9=110|35=A|34=1|49=071|50=071X01|52=20190709-16:12:10.181|56=EXC|43=N|98=0|108=30|141=Y|553=071FCM001|554=071FCM001|10=106|
8=FIX.4.4|9=0067|35=A|34=1|49=EXC|56=071|52=20190712-16:12:44.702|98=0|108=30|141=Y|10=009|
8=FIX.4.4|9=0214|35=R|34=2|49=EXC|56=071|57=071X01|52=20190712-16:12:51.582|131=20190712-000000000002.00|146=1|55=T24Q19F|762=FUIR|48=26622|22=M|54=1|38=100|453=3|448=035X01|447=C|452=12|448=035|447=C|452=1|448=071X01|447=C|452=37|10=043|
8=FIX.4.4|9=192|35=S|34=2|49=071|50=071X01|52=20190709-16:12:37.181|56=EXC|1=DP002|55=T24Q19F|62=20190830-22:00:00.000|117=201907091112061_S|131=20190712-000000000002.00|132=0|133=1000|134=0|135=100|762=FUIR|10=092|
8=FIX.4.4|9=0281|35=AI|34=3|49=EXC|56=071|57=071X01|52=20190712-16:13:11.684|131=20190712-000000000002.00|117=201907091112061_S|453=3|448=035X01|447=C|452=12|448=035|447=C|452=1|448=071X01|447=C|452=37|55=T24Q19F|762=FUIR|48=26622|22=M|54=1|1=DP002|133=1000.000|135=100|62=20190830-22:00:00|297=16|10=063|
8=FIX.4.4|9=0049|35=0|34=4|49=EXC|56=071|52=20190712-16:13:41.000|10=170|
8=FIX.4.4|9=59|35=0|34=3|49=071|50=071X01|52=20190709-16:13:07.949|56=EXC|10=092|
8=FIX.4.4|9=110|35=A|34=1|49=071|50=071X01|52=20190709-16:22:38.538|56=EXC|43=N|98=0|108=30|141=Y|553=071FCM001|554=071FCM001|10=123|
8=FIX.4.4|9=0067|35=A|34=1|49=EXC|56=071|52=20190712-16:23:13.158|98=0|108=30|141=Y|10=012|
8=FIX.4.4|9=0214|35=R|34=2|49=EXC|56=071|57=071X01|52=20190712-16:23:19.919|131=20190712-000000000003.00|146=1|55=T24Q19F|762=FUIR|48=26622|22=M|54=1|38=100|453=3|448=035X01|447=C|452=12|448=035|447=C|452=1|448=071X01|447=C|452=37|10=054|
8=FIX.4.4|9=192|35=S|34=2|49=071|50=071X01|52=20190709-16:23:05.511|56=EXC|1=DP002|55=T24Q19F|62=20190830-22:00:00.000|117=201907091122351_S|131=20190712-000000000003.00|132=0|133=1000|134=0|135=100|762=FUIR|10=090|
8=FIX.4.4|9=0281|35=AI|34=3|49=EXC|56=071|57=071X01|52=20190712-16:23:40.016|131=20190712-000000000003.00|117=201907091122351_S|453=3|448=035X01|447=C|452=12|448=035|447=C|452=1|448=071X01|447=C|452=37|55=T24Q19F|762=FUIR|48=26622|22=M|54=1|1=DP002|133=1000.000|135=100|62=20190830-22:00:00|297=16|10=059|
8=FIX.4.4|9=110|35=A|34=1|49=071|50=071X01|52=20190709-16:27:52.073|56=EXC|43=N|98=0|108=30|141=Y|553=071FCM001|554=071FCM001|10=118|
8=FIX.4.4|9=0067|35=A|34=1|49=EXC|56=071|52=20190712-16:28:26.610|98=0|108=30|141=Y|10=014|
8=FIX.4.4|9=0214|35=R|34=2|49=EXC|56=071|57=071X01|52=20190712-16:28:33.463|131=20190712-000000000004.00|146=1|55=T24Q19F|762=FUIR|48=26622|22=M|54=1|38=100|453=3|448=035X01|447=C|452=12|448=035|447=C|452=1|448=071X01|447=C|452=37|10=050|
8=FIX.4.4|9=192|35=S|34=2|49=071|50=071X01|52=20190709-16:28:19.030|56=EXC|1=DP002|55=T24Q19F|62=20190830-22:00:00.000|117=201907091127481_S|131=20190712-000000000004.00|132=0|133=1000|134=0|135=100|762=FUIR|10=106|
8=FIX.4.4|9=0281|35=AI|34=3|49=EXC|56=071|57=071X01|52=20190712-16:28:53.544|131=20190712-000000000004.00|117=201907091127481_S|453=3|448=035X01|447=C|452=12|448=035|447=C|452=1|448=071X01|447=C|452=37|55=T24Q19F|762=FUIR|48=26622|22=M|54=1|1=DP002|133=1000.000|135=100|62=20190830-22:00:00|297=16|10=084|
8=FIX.4.4|9=0049|35=0|34=4|49=EXC|56=071|52=20190712-16:29:23.000|10=177|
8=FIX.4.4|9=59|35=0|34=3|49=071|50=071X01|52=20190709-16:28:49.860|56=EXC|10=096|
8=FIX.4.4|9=110|35=A|34=1|49=071|50=071X01|52=20190709-19:44:22.674|56=EXC|43=N|98=0|108=30|141=Y|553=071FCM001|554=071FCM001|10=124|
8=FIX.4.4|9=0067|35=A|34=1|49=EXC|56=071|52=20190712-19:44:57.358|98=0|108=30|141=Y|10=028|
8=FIX.4.4|9=0214|35=R|34=2|49=EXC|56=071|57=071X01|52=20190712-19:45:04.142|131=20190712-000000000005.00|146=1|55=T24Q19F|762=FUIR|48=26622|22=M|54=1|38=100|453=3|448=035X01|447=C|452=12|448=035|447=C|452=1|448=071X01|447=C|452=37|10=045|
8=FIX.4.4|9=192|35=S|34=2|49=071|50=071X01|52=20190709-19:44:49.696|56=EXC|1=DP002|55=T24Q19F|62=20190830-22:00:00.000|117=201907091444191_S|131=20190712-000000000005.00|132=0|133=1000|134=0|135=100|762=FUIR|10=129|
8=FIX.4.4|9=0281|35=AI|34=3|49=EXC|56=071|57=071X01|52=20190712-19:45:24.359|131=20190712-000000000005.00|117=201907091444191_S|453=3|448=035X01|447=C|452=12|448=035|447=C|452=1|448=071X01|447=C|452=37|55=T24Q19F|762=FUIR|48=26622|22=M|54=1|1=DP002|133=1000.000|135=100|62=20190830-22:00:00|297=16|10=089|
8=FIX.4.4|9=0049|35=0|34=4|49=EXC|56=071|52=20190712-19:45:54.000|10=182|
8=FIX.4.4|9=59|35=0|34=3|49=071|50=071X01|52=20190709-19:45:20.368|56=EXC|10=090|
8=FIX.4.4|9=110|35=A|34=1|49=071|50=071X01|52=20190709-19:56:17.398|56=EXC|43=N|98=0|108=30|141=Y|553=071FCM001|554=071FCM001|10=134|
8=FIX.4.4|9=0067|35=A|34=1|49=EXC|56=071|52=20190712-19:56:52.083|98=0|108=30|141=Y|10=021|
8=FIX.4.4|9=0214|35=R|34=2|49=EXC|56=071|57=071X01|52=20190712-19:56:58.964|131=20190712-000000000006.00|146=1|55=T24Q19F|762=FUIR|48=26622|22=M|54=1|38=100|453=3|448=035X01|447=C|452=12|448=035|447=C|452=1|448=071X01|447=C|452=37|10=069|
8=FIX.4.4|9=192|35=S|34=2|49=071|50=071X01|52=20190709-19:56:44.385|56=EXC|1=DP002|55=T24Q19F|62=20190830-22:00:00.000|117=201907091456141_S|131=20190712-000000000006.00|132=0|133=1000|134=0|135=100|762=FUIR|10=121|
8=FIX.4.4|9=0281|35=AI|34=3|49=EXC|56=071|57=071X01|52=20190712-19:57:19.057|131=20190712-000000000006.00|117=201907091456141_S|453=3|448=035X01|447=C|452=12|448=035|447=C|452=1|448=071X01|447=C|452=37|55=T24Q19F|762=FUIR|48=26622|22=M|54=1|1=DP002|133=1000.000|135=100|62=20190830-22:00:00|297=16|10=090|
8=FIX.4.4|9=0326|35=AI|34=4|49=EXC|56=071|57=071X01|52=20190712-19:57:39.171|131=20190712-000000000006.00|117=201907091456141_S|298=5|453=3|448=035X01|447=C|452=12|448=035|447=C|452=1|448=071X01|447=C|452=37|55=T24Q19F|762=FUIR|48=26622|22=M|54=1|1=DP002|133=1000.000|135=100|297=17|58=(1717): Total value limit breached, deal/quote cancelled|10=093|
8=FIX.4.4|9=59|35=0|34=3|49=071|50=071X01|52=20190709-19:57:14.557|56=EXC|10=096|
8=FIX.4.4|9=0049|35=0|34=5|49=EXC|56=071|52=20190712-19:58:09.000|10=187|
8=FIX.4.4|9=59|35=0|34=4|49=071|50=071X01|52=20190709-19:57:45.175|56=EXC|10=097|
8=FIX.4.4|9=110|35=A|34=1|49=071|50=071X01|52=20190709-21:16:56.843|56=EXC|43=N|98=0|108=30|141=Y|553=071FCM001|554=071FCM001|10=121|
8=FIX.4.4|9=0067|35=A|34=1|49=EXC|56=071|52=20190712-21:17:31.639|98=0|108=30|141=Y|10=015|
8=FIX.4.4|9=0214|35=R|34=2|49=EXC|56=071|57=071X01|52=20190712-21:17:38.455|131=20190712-000000000007.00|146=1|55=T24Q19F|762=FUIR|48=26622|22=M|54=1|38=100|453=3|448=035X01|447=C|452=12|448=035|447=C|452=1|448=071X01|447=C|452=37|10=053|
8=FIX.4.4|9=172|35=S|34=2|49=071|50=071X01|52=20190709-21:17:23.803|56=EXC|1=DP002|55=T24Q19F|62=20190830-22:00:00.000|117=201907091616531_S|131=20190712-000000000007.00|135=1000|762=FUIR|10=247|
8=FIX.4.4|9=0200|35=AI|34=3|49=EXC|56=071|57=071X01|52=20190712-21:17:58.550|117=201907091616531_S|55=T24Q19F|762=FUIR|1=DP002|135=1000|62=20190830-22:00:00.000|297=9|300=99|58=(408): A price or yield must be entered|10=197|
8=FIX.4.4|9=110|35=A|34=1|49=071|50=071X01|52=20190709-21:25:02.302|56=EXC|43=N|98=0|108=30|141=Y|553=071FCM001|554=071FCM001|10=102|
8=FIX.4.4|9=0067|35=A|34=1|49=EXC|56=071|52=20190712-21:25:37.082|98=0|108=30|141=Y|10=012|
8=FIX.4.4|9=0214|35=R|34=2|49=EXC|56=071|57=071X01|52=20190712-21:25:43.957|131=20190712-000000000008.00|146=1|55=T24Q19F|762=FUIR|48=26622|22=M|54=1|38=100|453=3|448=035X01|447=C|452=12|448=035|447=C|452=1|448=071X01|447=C|452=37|10=056|
8=FIX.4.4|9=172|35=S|34=2|49=071|50=071X01|52=20190709-21:25:29.300|56=EXC|1=DP002|55=T24Q19F|62=20190830-22:00:00.000|117=201907091624591_S|131=20190712-000000000008.00|135=1000|762=FUIR|10=250|
8=FIX.4.4|9=0200|35=AI|34=3|49=EXC|56=071|57=071X01|52=20190712-21:26:04.060|117=201907091624591_S|55=T24Q19F|762=FUIR|1=DP002|135=1000|62=20190830-22:00:00.000|297=9|300=99|58=(408): A price or yield must be entered|10=189|
8=FIX.4.4|9=110|35=A|34=1|49=071|50=071X01|52=20190709-21:32:45.493|56=EXC|43=N|98=0|108=30|141=Y|553=071FCM001|554=071FCM001|10=118|
8=FIX.4.4|9=0067|35=A|34=1|49=EXC|56=071|52=20190712-21:33:20.275|98=0|108=30|141=Y|10=007|
8=FIX.4.4|9=0214|35=R|34=2|49=EXC|56=071|57=071X01|52=20190712-21:33:27.144|131=20190712-000000000009.00|146=1|55=T24Q19F|762=FUIR|48=26622|22=M|54=1|38=100|453=3|448=035X01|447=C|452=12|448=035|447=C|452=1|448=071X01|447=C|452=37|10=046|
8=FIX.4.4|9=180|35=S|34=2|49=071|50=071X01|52=20190709-21:33:12.493|56=EXC|1=DP002|55=T24Q19F|62=20190830-22:00:00.000|117=201907091632421_S|131=20190712-000000000009.00|133=1000|135=100|762=FUIR|10=091|
8=FIX.4.4|9=0281|35=AI|34=3|49=EXC|56=071|57=071X01|52=20190712-21:33:47.250|131=20190712-000000000009.00|117=201907091632421_S|453=3|448=035X01|447=C|452=12|448=035|447=C|452=1|448=071X01|447=C|452=37|55=T24Q19F|762=FUIR|48=26622|22=M|54=1|1=DP002|133=1000.000|135=100|62=20190830-22:00:00|297=16|10=073|
8=FIX.4.4|9=0326|35=AI|34=4|49=EXC|56=071|57=071X01|52=20190712-21:34:07.379|131=20190712-000000000009.00|117=201907091632421_S|298=5|453=3|448=035X01|447=C|452=12|448=035|447=C|452=1|448=071X01|447=C|452=37|55=T24Q19F|762=FUIR|48=26622|22=M|54=1|1=DP002|133=1000.000|135=100|297=17|58=(1717): Total value limit breached, deal/quote cancelled|10=086|
8=FIX.4.4|9=59|35=0|34=3|49=071|50=071X01|52=20190709-21:33:43.252|56=EXC|10=077|
8=FIX.4.4|9=110|35=A|34=1|49=071|50=071X01|52=20190709-23:23:40.608|56=EXC|43=N|98=0|108=30|141=Y|553=071FCM001|554=071FCM001|10=113|
8=FIX.4.4|9=0067|35=A|34=1|49=EXC|56=071|52=20190712-16:16:46.466|98=0|108=30|141=Y|10=022|
8=FIX.4.4|9=0214|35=R|34=2|49=EXC|56=071|57=071X01|52=20190712-16:16:53.326|131=20190712-000000000001.00|146=1|55=T24Q19F|762=FUIR|48=26622|22=M|54=1|38=100|453=3|448=035X01|447=C|452=12|448=035|447=C|452=1|448=071X01|447=C|452=37|10=044|
8=FIX.4.4|9=180|35=S|34=2|49=071|50=071X01|52=20190709-23:24:07.574|56=EXC|1=DP002|55=T24Q19F|62=20190830-22:00:00.000|117=201907091823371_S|131=20190712-000000000001.00|133=1000|135=100|762=FUIR|10=095|
8=FIX.4.4|9=0281|35=AI|34=3|49=EXC|56=071|57=071X01|52=20190712-16:17:13.419|131=20190712-000000000001.00|117=201907091823371_S|453=3|448=035X01|447=C|452=12|448=035|447=C|452=1|448=071X01|447=C|452=37|55=T24Q19F|762=FUIR|48=26622|22=M|54=1|1=DP002|133=1000.000|135=100|62=20190830-22:00:00|297=16|10=077|
8=FIX.4.4|9=0326|35=AI|34=4|49=EXC|56=071|57=071X01|52=20190712-16:17:33.557|131=20190712-000000000001.00|117=201907091823371_S|298=5|453=3|448=035X01|447=C|452=12|448=035|447=C|452=1|448=071X01|447=C|452=37|55=T24Q19F|762=FUIR|48=26622|22=M|54=1|1=DP002|133=1000.000|135=100|297=17|58=(1717): Total value limit breached, deal/quote cancelled|10=086|
8=FIX.4.4|9=110|35=A|34=1|49=071|50=071X01|52=20190710-14:34:13.511|56=EXC|43=N|98=0|108=30|141=Y|553=071FCM001|554=071FCM001|10=100|
8=FIX.4.4|9=0067|35=A|34=1|49=EXC|56=071|52=20190715-15:31:48.091|98=0|108=30|141=Y|10=017|
8=FIX.4.4|9=0214|35=R|34=2|49=EXC|56=071|57=071X01|52=20190715-15:31:55.046|131=20190715-000000000010.00|146=1|55=T24Q19F|762=FUIR|48=26622|22=M|54=1|38=100|453=3|448=035X01|447=C|452=12|448=035|447=C|452=1|448=071X01|447=C|452=37|10=047|
8=FIX.4.4|9=179|35=S|34=2|49=071|50=071X01|52=20190710-14:34:40.715|56=EXC|1=DP002|55=T24Q19F|62=20190830-22:00:00.000|117=20190710934091_S|131=20190715-000000000010.00|133=1000|135=100|762=FUIR|10=038|
8=FIX.4.4|9=0280|35=AI|34=3|49=EXC|56=071|57=071X01|52=20190715-15:32:15.255|131=20190715-000000000010.00|117=20190710934091_S|453=3|448=035X01|447=C|452=12|448=035|447=C|452=1|448=071X01|447=C|452=37|55=T24Q19F|762=FUIR|48=26622|22=M|54=1|1=DP002|133=1000.000|135=100|62=20190830-22:00:00|297=16|10=023|
8=FIX.4.4|9=0461|35=8|34=4|49=EXC|56=071|57=071X01|52=20190715-15:32:35.370|11=20190710934091_S|17=3|37=0|150=F|1080=20190715-000000000010.00|1081=6|453=5|448=071X01|447=C|452=12|448=071|447=C|452=1|448=035X01|447=C|452=37|448=035|447=C|452=17|448=071FCM001|447=C|452=36|55=T24Q19F|762=FUIR|48=26622|22=M|6=1000.000|14=100|31=1000.000|32=100|38=100|39=2|54=2|60=20190715-15:32:35.370|75=20190715|63=1|64=20190715|151=0|1=DP002|381=250000000000.000|880=201907150000000011|828=99|10=055|
8=FIX.4.4|9=59|35=0|34=3|49=071|50=071X01|52=20190710-14:35:11.349|56=EXC|10=075|
8=FIX.4.4|9=0049|35=0|34=5|49=EXC|56=071|52=20190715-15:33:05.000|10=175|
8=FIX.4.4|9=59|35=0|34=4|49=071|50=071X01|52=20190710-14:35:41.348|56=EXC|10=078|
8=FIX.4.4|9=110|35=A|34=1|49=071|50=071X01|52=20190710-16:44:23.702|56=EXC|43=N|98=0|108=30|141=Y|553=071FCM001|554=071FCM001|10=106|
8=FIX.4.4|9=0067|35=A|34=1|49=EXC|56=071|52=20190715-17:41:58.379|98=0|108=30|141=Y|10=030|
8=FIX.4.4|9=0214|35=R|34=2|49=EXC|56=071|57=071X01|52=20190715-17:42:05.309|131=20190715-000000000011.00|146=1|55=T24Q19F|762=FUIR|48=26622|22=M|54=1|38=100|453=3|448=035X01|447=C|452=12|448=035|447=C|452=1|448=071X01|447=C|452=37|10=049|
8=FIX.4.4|9=180|35=S|34=2|49=071|50=071X01|52=20190710-16:44:50.935|56=EXC|1=DP002|55=T24Q19F|62=20190830-22:00:00.000|117=201907101144191_S|131=20190715-000000000011.00|133=1000|135=100|762=FUIR|10=082|
8=FIX.4.4|9=0281|35=AI|34=3|49=EXC|56=071|57=071X01|52=20190715-17:42:25.566|131=20190715-000000000011.00|117=201907101144191_S|453=3|448=035X01|447=C|452=12|448=035|447=C|452=1|448=071X01|447=C|452=37|55=T24Q19F|762=FUIR|48=26622|22=M|54=1|1=DP002|133=1000.000|135=100|62=20190830-22:00:00|297=16|10=077|
8=FIX.4.4|9=0462|35=8|34=4|49=EXC|56=071|57=071X01|52=20190715-17:42:45.685|11=201907101144191_S|17=4|37=0|150=F|1080=20190715-000000000011.00|1081=6|453=5|448=071X01|447=C|452=12|448=071|447=C|452=1|448=035X01|447=C|452=37|448=035|447=C|452=17|448=071FCM001|447=C|452=36|55=T24Q19F|762=FUIR|48=26622|22=M|6=1000.000|14=100|31=1000.000|32=100|38=100|39=2|54=2|60=20190715-17:42:45.685|75=20190715|63=1|64=20190715|151=0|1=DP002|381=250000000000.000|880=201907150000000016|828=99|10=132|
8=FIX.4.4|9=59|35=0|34=3|49=071|50=071X01|52=20190710-16:45:21.528|56=EXC|10=078|
8=FIX.4.4|9=0049|35=0|34=5|49=EXC|56=071|52=20190715-17:43:15.000|10=179|
8=FIX.4.4|9=59|35=5|34=4|49=071|50=071X01|52=20190710-16:45:41.397|56=EXC|10=090|
8=FIX.4.4|9=0049|35=5|34=6|49=EXC|56=071|52=20190715-17:43:16.041|10=191|
8=FIX.4.4|9=110|35=A|34=1|49=071|50=071X01|52=20190710-20:47:46.153|56=EXC|43=N|98=0|108=30|141=Y|553=071FCM001|554=071FCM001|10=109|
8=FIX.4.4|9=0067|35=A|34=1|49=EXC|56=071|52=20190715-14:41:25.991|98=0|108=30|141=Y|10=021|
8=FIX.4.4|9=0049|35=0|34=2|49=EXC|56=071|52=20190715-14:41:55.000|10=175|
8=FIX.4.4|9=59|35=0|34=2|49=071|50=071X01|52=20190710-20:48:16.942|56=EXC|10=079|
8=FIX.4.4|9=110|35=A|34=1|49=071|50=071X01|52=20190710-20:48:44.111|56=EXC|43=N|98=0|108=30|141=Y|553=071FCM001|554=071FCM001|10=102|
8=FIX.4.4|9=0067|35=A|34=1|49=EXC|56=071|52=20190715-14:42:23.933|98=0|108=30|141=Y|10=016|
8=FIX.4.4|9=0180|35=R|34=2|49=EXC|56=071|52=20190715-14:42:30.791|131=20190715-000000000001.00|146=1|55=T24Q19F|762=FUIR|48=26622|22=M|54=1|38=100|453=2|448=035X01|447=C|452=12|448=035|447=C|452=1|10=164|
8=FIX.4.4|9=110|35=A|34=1|49=071|50=071X01|52=20190710-20:51:09.675|56=EXC|43=N|98=0|108=30|141=Y|553=071FCM001|554=071FCM001|10=112|
8=FIX.4.4|9=0067|35=A|34=1|49=EXC|56=071|52=20190715-14:44:49.510|98=0|108=30|141=Y|10=017|
8=FIX.4.4|9=0049|35=0|34=2|49=EXC|56=071|52=20190715-14:45:19.000|10=179|
8=FIX.4.4|9=59|35=0|34=2|49=071|50=071X01|52=20190710-20:51:40.612|56=EXC|10=064|
8=FIX.4.4|9=0049|35=0|34=3|49=EXC|56=071|52=20190715-14:45:49.000|10=183|
8=FIX.4.4|9=59|35=0|34=3|49=071|50=071X01|52=20190710-20:52:10.612|56=EXC|10=063|
8=FIX.4.4|9=110|35=A|34=1|49=071|50=071X01|52=20190710-20:55:09.515|56=EXC|43=N|98=0|108=30|141=Y|553=071FCM001|554=071FCM001|10=109|
8=FIX.4.4|9=0067|35=A|34=1|49=EXC|56=071|52=20190715-14:48:49.379|98=0|108=30|141=Y|10=034|
8=FIX.4.4|9=0180|35=R|34=2|49=EXC|56=071|52=20190715-14:48:55.953|131=20190715-000000000002.00|146=1|55=T24Q19F|762=FUIR|48=26622|22=M|54=1|38=100|453=2|448=035X01|447=C|452=12|448=035|447=C|452=1|10=178|
8=FIX.4.4|9=180|35=S|34=2|49=071|50=071X01|52=20190710-20:55:31.254|56=EXC|1=DP002|55=T24Q19F|62=20190830-22:00:00.000|117=201907101555052_S|131=20190715-000000000002.00|133=1000|135=100|762=FUIR|10=074|
8=FIX.4.4|9=0281|35=AI|34=3|49=EXC|56=071|57=071X01|52=20190715-14:49:11.078|131=20190715-000000000002.00|117=201907101555052_S|453=3|448=035X01|447=C|452=12|448=035|447=C|452=1|448=071X01|447=C|452=37|55=T24Q19F|762=FUIR|48=26622|22=M|54=1|1=DP002|133=1000.000|135=100|62=20190830-22:00:00|297=16|10=076|
8=FIX.4.4|9=0049|35=0|34=4|49=EXC|56=071|52=20190715-14:49:41.000|10=180|
8=FIX.4.4|9=59|35=0|34=3|49=071|50=071X01|52=20190710-20:56:01.791|56=EXC|10=075|
8=FIX.4.4|9=0326|35=AI|34=5|49=EXC|56=071|57=071X01|52=20190715-14:50:06.362|131=20190715-000000000002.00|117=201907101555052_S|298=5|453=3|448=035X01|447=C|452=12|448=035|447=C|452=1|448=071X01|447=C|452=37|55=T24Q19F|762=FUIR|48=26622|22=M|54=1|1=DP002|133=1000.000|135=100|297=17|58=(1717): Total value limit breached, deal/quote cancelled|10=073|
8=FIX.4.4|9=59|35=0|34=4|49=071|50=071X01|52=20190710-20:56:31.794|56=EXC|10=082|
8=FIX.4.4|9=0049|35=0|34=6|49=EXC|56=071|52=20190715-14:50:36.000|10=178|
8=FIX.4.4|9=59|35=0|34=5|49=071|50=071X01|52=20190710-20:57:01.798|56=EXC|10=085|
8=FIX.4.4|9=0049|35=0|34=7|49=EXC|56=071|52=20190715-14:51:06.000|10=177|
8=FIX.4.4|9=59|35=0|34=6|49=071|50=071X01|52=20190710-20:57:31.791|56=EXC|10=082|
8=FIX.4.4|9=110|35=A|34=1|49=071|50=071X01|52=20190710-21:15:19.910|56=EXC|43=N|98=0|108=30|141=Y|553=071FCM001|554=071FCM001|10=106|
8=FIX.4.4|9=0067|35=A|34=1|49=EXC|56=071|52=20190715-15:08:59.816|98=0|108=30|141=Y|10=028|
8=FIX.4.4|9=0049|35=0|34=2|49=EXC|56=071|52=20190715-15:09:29.000|10=181|
8=FIX.4.4|9=59|35=0|34=2|49=071|50=071X01|52=20190710-21:15:50.792|56=EXC|10=075|
8=FIX.4.4|9=110|35=A|34=1|49=071|50=071X01|52=20190710-21:18:09.805|56=EXC|43=N|98=0|108=30|141=Y|553=071FCM001|554=071FCM001|10=111|
8=FIX.4.4|9=0067|35=A|34=1|49=EXC|56=071|52=20190715-15:11:49.662|98=0|108=30|141=Y|10=020|
8=FIX.4.4|9=0180|35=R|34=2|49=EXC|56=071|52=20190715-15:11:56.641|131=20190715-000000000003.00|146=1|55=T24Q19F|762=FUIR|48=26622|22=M|54=1|38=100|453=2|448=035X01|447=C|452=12|448=035|447=C|452=1|10=165|
8=FIX.4.4|9=180|35=S|34=2|49=071|50=071X01|52=20190710-21:18:31.927|56=EXC|1=DP002|55=T24Q19F|62=20190830-22:00:00.000|117=201907101618062_S|131=20190715-000000000003.00|133=1000|135=100|762=FUIR|10=083|
8=FIX.4.4|9=0281|35=AI|34=3|49=EXC|56=071|57=071X01|52=20190715-15:12:11.769|131=20190715-000000000003.00|117=201907101618062_S|453=3|448=035X01|447=C|452=12|448=035|447=C|452=1|448=071X01|447=C|452=37|55=T24Q19F|762=FUIR|48=26622|22=M|54=1|1=DP002|133=1000.000|135=100|62=20190830-22:00:00|297=16|10=076|
8=FIX.4.4|9=0049|35=0|34=4|49=EXC|56=071|52=20190715-15:12:41.000|10=171|
8=FIX.4.4|9=59|35=0|34=3|49=071|50=071X01|52=20190710-21:19:02.692|56=EXC|10=076|
8=FIX.4.4|9=0462|35=8|34=5|49=EXC|56=071|57=071X01|52=20190715-15:13:07.103|11=201907101618062_S|17=1|37=0|150=F|1080=20190715-000000000003.00|1081=6|453=5|448=071X01|447=C|452=12|448=071|447=C|452=1|448=035X01|447=C|452=37|448=035|447=C|452=17|448=071FCM001|447=C|452=36|55=T24Q19F|762=FUIR|48=26622|22=M|6=1000.000|14=100|31=1000.000|32=100|38=100|39=2|54=2|60=20190715-15:13:07.103|75=20190715|63=1|64=20190715|151=0|1=DP002|381=250000000000.000|880=201907150000000003|828=99|10=088|
8=FIX.4.4|9=59|35=0|34=4|49=071|50=071X01|52=20190710-21:19:32.694|56=EXC|10=082|
8=FIX.4.4|9=110|35=A|34=1|49=071|50=071X01|52=20190710-21:23:38.002|56=EXC|43=N|98=0|108=30|141=Y|553=071FCM001|554=071FCM001|10=098|
8=FIX.4.4|9=0067|35=A|34=1|49=EXC|56=071|52=20190715-15:17:18.036|98=0|108=30|141=Y|10=017|
8=FIX.4.4|9=0180|35=R|34=2|49=EXC|56=071|52=20190715-15:17:24.718|131=20190715-000000000004.00|146=1|55=T24Q19F|762=FUIR|48=26622|22=M|54=1|38=100|453=2|448=035X01|447=C|452=12|448=035|447=C|452=1|10=172|
8=FIX.4.4|9=180|35=S|34=2|49=071|50=071X01|52=20190710-21:24:00.024|56=EXC|1=DP002|55=T24Q19F|62=20190830-22:00:00.000|117=201907101623342_S|131=20190715-000000000004.00|133=1000|135=100|762=FUIR|10=062|
8=FIX.4.4|9=0281|35=AI|34=3|49=EXC|56=071|57=071X01|52=20190715-15:17:39.870|131=20190715-000000000004.00|117=201907101623342_S|453=3|448=035X01|447=C|452=12|448=035|447=C|452=1|448=071X01|447=C|452=37|55=T24Q19F|762=FUIR|48=26622|22=M|54=1|1=DP002|133=1000.000|135=100|62=20190830-22:00:00|297=16|10=082|
8=FIX.4.4|9=0049|35=0|34=4|49=EXC|56=071|52=20190715-15:18:09.000|10=181|
8=FIX.4.4|9=59|35=0|34=3|49=071|50=071X01|52=20190710-21:24:30.767|56=EXC|10=076|
8=FIX.4.4|9=110|35=A|34=1|49=071|50=071X01|52=20190710-21:37:38.944|56=EXC|43=N|98=0|108=30|141=Y|553=071FCM001|554=071FCM001|10=118|
8=FIX.4.4|9=0067|35=A|34=1|49=EXC|56=071|52=20190715-15:31:18.796|98=0|108=30|141=Y|10=026|
8=FIX.4.4|9=0049|35=0|34=2|49=EXC|56=071|52=20190715-15:31:48.000|10=177|
8=FIX.4.4|9=59|35=0|34=2|49=071|50=071X01|52=20190710-21:38:09.717|56=EXC|10=081|
8=FIX.4.4|9=0049|35=0|34=3|49=EXC|56=071|52=20190715-15:32:18.000|10=176|
8=FIX.4.4|9=59|35=0|34=3|49=071|50=071X01|52=20190710-21:38:39.714|56=EXC|10=082|
8=FIX.4.4|9=0049|35=0|34=4|49=EXC|56=071|52=20190715-15:32:48.000|10=180|
8=FIX.4.4|9=59|35=0|34=4|49=071|50=071X01|52=20190710-21:39:09.718|56=EXC|10=085|
8=FIX.4.4|9=0049|35=0|34=5|49=EXC|56=071|52=20190715-15:33:18.000|10=179|
8=FIX.4.4|9=59|35=0|34=5|49=071|50=071X01|52=20190710-21:39:39.725|56=EXC|10=087|
8=FIX.4.4|9=0049|35=0|34=6|49=EXC|56=071|52=20190715-15:33:48.000|10=183|
8=FIX.4.4|9=59|35=0|34=6|49=071|50=071X01|52=20190710-21:40:09.718|56=EXC|10=079|
8=FIX.4.4|9=0049|35=0|34=7|49=EXC|56=071|52=20190715-15:34:18.000|10=182|
8=FIX.4.4|9=59|35=0|34=7|49=071|50=071X01|52=20190710-21:40:39.717|56=EXC|10=082|
8=FIX.4.4|9=0049|35=0|34=8|49=EXC|56=071|52=20190715-15:34:48.000|10=186|
8=FIX.4.4|9=59|35=0|34=8|49=071|50=071X01|52=20190710-21:41:09.717|56=EXC|10=081|
8=FIX.4.4|9=0049|35=0|34=9|49=EXC|56=071|52=20190715-15:35:18.000|10=185|
8=FIX.4.4|9=59|35=0|34=9|49=071|50=071X01|52=20190710-21:41:39.717|56=EXC|10=085|
8=FIX.4.4|9=0050|35=0|34=10|49=EXC|56=071|52=20190715-15:35:48.000|10=220|
8=FIX.4.4|9=60|35=0|34=10|49=071|50=071X01|52=20190710-21:42:09.714|56=EXC|10=112|
8=FIX.4.4|9=0050|35=0|34=11|49=EXC|56=071|52=20190715-15:36:18.000|10=219|
8=FIX.4.4|9=60|35=0|34=11|49=071|50=071X01|52=20190710-21:42:39.724|56=EXC|10=117|
8=FIX.4.4|9=0050|35=0|34=12|49=EXC|56=071|52=20190715-15:36:48.000|10=223|
8=FIX.4.4|9=60|35=0|34=12|49=071|50=071X01|52=20190710-21:43:09.727|56=EXC|10=119|
8=FIX.4.4|9=0050|35=0|34=13|49=EXC|56=071|52=20190715-15:37:18.000|10=222|
8=FIX.4.4|9=60|35=0|34=13|49=071|50=071X01|52=20190710-21:43:40.721|56=EXC|10=109|
8=FIX.4.4|9=0050|35=0|34=14|49=EXC|56=071|52=20190715-15:37:48.000|10=226|
8=FIX.4.4|9=60|35=0|34=14|49=071|50=071X01|52=20190710-21:44:10.715|56=EXC|10=111|
8=FIX.4.4|9=0050|35=0|34=15|49=EXC|56=071|52=20190715-15:38:18.000|10=225|
8=FIX.4.4|9=60|35=0|34=15|49=071|50=071X01|52=20190710-21:44:40.716|56=EXC|10=116|
8=FIX.4.4|9=0050|35=0|34=16|49=EXC|56=071|52=20190715-15:38:48.000|10=229|
8=FIX.4.4|9=60|35=0|34=16|49=071|50=071X01|52=20190710-21:45:10.726|56=EXC|10=116|
8=FIX.4.4|9=110|35=A|34=1|49=071|50=071X01|52=20190711-12:57:44.420|56=EXC|43=N|98=0|108=30|141=Y|553=071FCM001|554=071FCM001|10=107|
8=FIX.4.4|9=0067|35=A|34=1|49=EXC|56=071|52=20190716-12:58:20.988|98=0|108=30|141=Y|10=029|
8=FIX.4.4|9=0049|35=0|34=2|49=EXC|56=071|52=20190716-12:58:50.000|10=177|
8=FIX.4.4|9=59|35=0|34=2|49=071|50=071X01|52=20190711-12:58:15.212|56=EXC|10=071|
8=FIX.4.4|9=110|35=A|34=1|49=071|50=071X01|52=20190711-12:59:04.257|56=EXC|43=N|98=0|108=30|141=Y|553=071FCM001|554=071FCM001|10=113|
8=FIX.4.4|9=0067|35=A|34=1|49=EXC|56=071|52=20190716-12:59:40.815|98=0|108=30|141=Y|10=021|
8=FIX.4.4|9=0049|35=0|34=2|49=EXC|56=071|52=20190716-13:00:10.000|10=161|
8=FIX.4.4|9=59|35=0|34=2|49=071|50=071X01|52=20190711-12:59:34.807|56=EXC|10=083|
8=FIX.4.4|9=0049|35=0|34=3|49=EXC|56=071|52=20190716-13:00:40.000|10=165|
8=FIX.4.4|9=59|35=0|34=3|49=071|50=071X01|52=20190711-13:00:04.801|56=EXC|10=062|
8=FIX.4.4|9=110|35=A|34=1|49=071|50=071X01|52=20190711-13:00:48.743|56=EXC|43=N|98=0|108=30|141=Y|553=071FCM001|554=071FCM001|10=108|
8=FIX.4.4|9=0067|35=A|34=1|49=EXC|56=071|52=20190716-13:01:25.354|98=0|108=30|141=Y|10=010|
8=FIX.4.4|9=0214|35=R|34=2|49=EXC|56=071|57=071X01|52=20190716-13:01:32.169|131=20190716-000000000001.00|146=1|55=T24Q19F|762=FUIR|48=26622|22=M|54=1|38=100|453=3|448=035X01|447=C|452=12|448=035|447=C|452=1|448=071X01|447=C|452=37|10=045|
8=FIX.4.4|9=179|35=S|34=2|49=071|50=071X01|52=20190711-13:01:15.720|56=EXC|1=DP002|55=T24Q19F|62=20190830-22:00:00.000|117=20190711800452_S|131=20190716-000000000001.00|133=1000|135=100|762=FUIR|10=025|
8=FIX.4.4|9=0280|35=AI|34=3|49=EXC|56=071|57=071X01|52=20190716-13:01:52.265|131=20190716-000000000001.00|117=20190711800452_S|453=3|448=035X01|447=C|452=12|448=035|447=C|452=1|448=071X01|447=C|452=37|55=T24Q19F|762=FUIR|48=26622|22=M|54=1|1=DP002|133=1000.000|135=100|62=20190830-22:00:00|297=16|10=015|
8=FIX.4.4|9=0461|35=8|34=4|49=EXC|56=071|57=071X01|52=20190716-13:02:12.455|11=20190711800452_S|17=1|37=0|150=F|1080=20190716-000000000001.00|1081=6|453=5|448=071X01|447=C|452=12|448=071|447=C|452=1|448=035X01|447=C|452=37|448=035|447=C|452=17|448=071FCM001|447=C|452=36|55=T24Q19F|762=FUIR|48=26622|22=M|6=1000.000|14=100|31=1000.000|32=100|38=100|39=2|54=2|60=20190716-13:02:12.455|75=20190716|63=1|64=20190716|151=0|1=DP002|381=250000000000.000|880=201907160000000001|828=99|10=040|
8=FIX.4.4|9=59|35=0|34=3|49=071|50=071X01|52=20190711-13:01:46.514|56=EXC|10=070|
8=FIX.4.4|9=0049|35=0|34=5|49=EXC|56=071|52=20190716-13:02:42.000|10=171|
8=FIX.4.4|9=59|35=0|34=4|49=071|50=071X01|52=20190711-13:02:16.512|56=EXC|10=067|
8=FIX.4.4|9=110|35=A|34=1|49=071|50=071X01|52=20190711-13:13:23.011|56=EXC|43=N|98=0|108=30|141=Y|553=071FCM001|554=071FCM001|10=093|
8=FIX.4.4|9=0067|35=A|34=1|49=EXC|56=071|52=20190716-13:13:59.582|98=0|108=30|141=Y|10=023|
8=FIX.4.4|9=0214|35=R|34=2|49=EXC|56=071|57=071X01|52=20190716-13:14:06.434|131=20190716-000000000002.00|146=1|55=T24Q19F|762=FUIR|48=26622|22=M|54=1|38=100|453=3|448=035X01|447=C|452=12|448=035|447=C|452=1|448=071X01|447=C|452=37|10=046|
8=FIX.4.4|9=179|35=S|34=2|49=071|50=071X01|52=20190711-13:13:50.010|56=EXC|1=DP002|55=T24Q19F|62=20190830-22:00:00.000|117=20190711813192_S|131=20190716-000000000002.00|133=1000|135=100|762=FUIR|10=025|
8=FIX.4.4|9=0280|35=AI|34=3|49=EXC|56=071|57=071X01|52=20190716-13:14:26.561|131=20190716-000000000002.00|117=20190711813192_S|453=3|448=035X01|447=C|452=12|448=035|447=C|452=1|448=071X01|447=C|452=37|55=T24Q19F|762=FUIR|48=26622|22=M|54=1|1=DP002|133=1000.000|135=100|62=20190830-22:00:00|297=16|10=025|
8=FIX.4.4|9=0461|35=8|34=4|49=EXC|56=071|57=071X01|52=20190716-13:14:46.670|11=20190711813192_S|17=2|37=0|150=F|1080=20190716-000000000002.00|1081=6|453=5|448=071X01|447=C|452=12|448=071|447=C|452=1|448=035X01|447=C|452=37|448=035|447=C|452=17|448=071FCM001|447=C|452=36|55=T24Q19F|762=FUIR|48=26622|22=M|6=1000.000|14=100|31=1000.000|32=100|38=100|39=2|54=2|60=20190716-13:14:46.670|75=20190716|63=1|64=20190716|151=0|1=DP002|381=250000000000.000|880=201907160000000002|828=99|10=066|
8=FIX.4.4|9=59|35=0|34=3|49=071|50=071X01|52=20190711-13:14:20.776|56=EXC|10=076|
8=FIX.4.4|9=0049|35=0|34=5|49=EXC|56=071|52=20190716-13:15:16.000|10=176|
8=FIX.4.4|9=59|35=5|34=4|49=071|50=071X01|52=20190711-13:14:40.773|56=EXC|10=081|
8=FIX.4.4|9=0049|35=5|34=6|49=EXC|56=071|52=20190716-13:15:17.324|10=192|
8=FIX.4.4|9=59|35=5|34=5|49=071|50=071X01|52=20190711-13:14:40.780|56=EXC|10=080|
8=FIX.4.4|9=110|35=A|34=1|49=071|50=071X01|52=20190711-13:54:41.663|56=EXC|43=N|98=0|108=30|141=Y|553=071FCM001|554=071FCM001|10=111|
8=FIX.4.4|9=0067|35=A|34=1|49=EXC|56=071|52=20190711-13:55:18.358|98=0|108=30|141=Y|10=020|
8=FIX.4.4|9=0214|35=R|34=2|49=EXC|56=071|57=071X01|52=20190711-13:55:25.144|131=20190711-000000000001.00|146=1|55=T24Q19F|762=FUIR|48=26623|22=M|54=1|38=100|453=3|448=035X01|447=C|452=12|448=035|447=C|452=1|448=071X01|447=C|452=37|10=040|
8=FIX.4.4|9=179|35=S|34=2|49=071|50=071X01|52=20190711-13:55:08.804|56=EXC|1=DP002|55=T24Q19F|62=20190830-22:00:00.000|117=20190711854382_S|131=20190711-000000000001.00|133=1000|135=100|762=FUIR|10=045|
8=FIX.4.4|9=0280|35=AI|34=3|49=EXC|56=071|57=071X01|52=20190711-13:55:45.383|131=20190711-000000000001.00|117=20190711854382_S|453=3|448=035X01|447=C|452=12|448=035|447=C|452=1|448=071X01|447=C|452=37|55=T24Q19F|762=FUIR|48=26623|22=M|54=1|1=DP002|133=1000.000|135=100|62=20190830-22:00:00|297=16|10=029|
8=FIX.4.4|9=0454|35=8|34=4|49=EXC|56=071|57=071X01|52=20190711-13:56:05.517|11=20190711854382_S|17=1|37=0|150=F|1080=20190711-000000000001.00|1081=6|453=5|448=071X01|447=C|452=12|448=071|447=C|452=1|448=035X01|447=C|452=37|448=035|447=C|452=17|448=071FCM001|447=C|452=36|55=T24Q19F|762=FUIR|48=26623|22=M|6=1000.000|14=100|31=1000.000|32=100|38=100|39=2|54=2|60=20190711-13:56:05.517|75=20190711|63=1|64=20190711|151=0|1=DP002|381=250000000000.000|880=201907110000000001|10=218|
8=FIX.4.4|9=59|35=0|34=3|49=071|50=071X01|52=20190711-13:55:39.474|56=EXC|10=086|
8=FIX.4.4|9=0049|35=0|34=5|49=EXC|56=071|52=20190711-13:56:35.000|10=177|
8=FIX.4.4|9=59|35=5|34=4|49=071|50=071X01|52=20190711-13:55:59.084|56=EXC|10=091|
8=FIX.4.4|9=0049|35=5|34=6|49=EXC|56=071|52=20190711-13:56:35.671|10=197|
8=FIX.4.4|9=110|35=A|34=1|49=071|50=071X01|52=20190711-15:18:00.091|56=EXC|43=N|98=0|108=30|141=Y|553=071FCM001|554=071FCM001|10=103|
8=FIX.4.4|9=0067|35=A|34=1|49=EXC|56=071|52=20190711-15:18:36.780|98=0|108=30|141=Y|10=020|
8=FIX.4.4|9=0214|35=R|34=2|49=EXC|56=071|57=071X01|52=20190711-15:18:43.915|131=20190711-000000000002.00|146=1|55=T24Q19F|762=FUIR|48=26623|22=M|54=1|38=100|453=3|448=035X01|447=C|452=12|448=035|447=C|452=1|448=071X01|447=C|452=37|10=048|
8=FIX.4.4|9=110|35=A|34=1|49=071|50=071X01|52=20190711-15:18:52.064|56=EXC|43=N|98=0|108=30|141=Y|553=071FCM001|554=071FCM001|10=110|
8=FIX.4.4|9=0067|35=A|34=1|49=EXC|56=071|52=20190711-15:19:28.723|98=0|108=30|141=Y|10=019|
8=FIX.4.4|9=0214|35=R|34=2|49=EXC|56=071|57=071X01|52=20190711-15:19:35.660|131=20190711-000000000003.00|146=1|55=T24Q19F|762=FUIR|48=26623|22=M|54=1|38=100|453=3|448=035X01|447=C|452=12|448=035|447=C|452=1|448=071X01|447=C|452=37|10=048|
8=FIX.4.4|9=180|35=S|34=2|49=071|50=071X01|52=20190711-15:19:19.336|56=EXC|1=DP002|55=T24Q19F|62=20190830-22:00:00.000|117=201907111018481_S|131=20190711-000000000003.00|133=1000|135=100|762=FUIR|10=084|
8=FIX.4.4|9=0281|35=AI|34=3|49=EXC|56=071|57=071X01|52=20190711-15:19:55.985|131=20190711-000000000003.00|117=201907111018481_S|453=3|448=035X01|447=C|452=12|448=035|447=C|452=1|448=071X01|447=C|452=37|55=T24Q19F|762=FUIR|48=26623|22=M|54=1|1=DP002|133=1000.000|135=100|62=20190830-22:00:00|297=16|10=084|
8=FIX.4.4|9=0455|35=8|34=4|49=EXC|56=071|57=071X01|52=20190711-15:20:16.121|11=201907111018481_S|17=2|37=0|150=F|1080=20190711-000000000003.00|1081=6|453=5|448=071X01|447=C|452=12|448=071|447=C|452=1|448=035X01|447=C|452=37|448=035|447=C|452=17|448=071FCM001|447=C|452=36|55=T24Q19F|762=FUIR|48=26623|22=M|6=1000.000|14=100|31=1000.000|32=100|38=100|39=2|54=2|60=20190711-15:20:16.121|75=20190711|63=1|64=20190711|151=0|1=DP002|381=250000000000.000|880=201907110000000002|10=236|
8=FIX.4.4|9=59|35=0|34=3|49=071|50=071X01|52=20190711-15:19:49.909|56=EXC|10=092|
8=FIX.4.4|9=0214|35=R|34=5|49=EXC|56=071|57=071X01|52=20190711-15:20:41.282|131=20190711-000000000004.00|146=1|55=T24Q19F|762=FUIR|48=26623|22=M|54=2|38=100|453=3|448=035X01|447=C|452=12|448=035|447=C|452=1|448=071X01|447=C|452=37|10=042|
8=FIX.4.4|9=59|35=0|34=4|49=071|50=071X01|52=20190711-15:20:19.916|56=EXC|10=080|
8=FIX.4.4|9=183|35=S|34=5|49=071|50=071X01|52=20190711-15:20:24.702|56=EXC|1=DP002|55=T24Q19F|62=20190830-22:00:00.000|117=201907111018482_S|131=20190711-000000000004.00|134=100|135=0|632=2|762=FUIR|10=200|
8=FIX.4.4|9=0224|35=AI|34=6|49=EXC|56=071|57=071X01|52=20190711-15:21:01.348|117=201907111018482_S|55=T24Q19F|762=FUIR|1=DP002|134=100|135=0|62=20190830-22:00:00.000|297=9|300=99|58=(1668): Only quotes by price are allowed for this security|10=018|
8=FIX.4.4|9=59|35=5|34=6|49=071|50=071X01|52=20190711-15:20:49.906|56=EXC|10=089|
8=FIX.4.4|9=0049|35=5|34=7|49=EXC|56=071|52=20190711-15:21:26.548|10=195|
8=FIX.4.4|9=110|35=A|34=1|49=071|50=071X01|52=20190711-15:32:08.080|56=EXC|43=N|98=0|108=30|141=Y|553=071FCM001|554=071FCM001|10=105|
8=FIX.4.4|9=0067|35=A|34=1|49=EXC|56=071|52=20190711-15:32:44.753|98=0|108=30|141=Y|10=015|
8=FIX.4.4|9=0214|35=R|34=2|49=EXC|56=071|57=071X01|52=20190711-15:32:51.752|131=20190711-000000000005.00|146=1|55=T24Q19F|762=FUIR|48=26623|22=M|54=2|38=100|453=3|448=035X01|447=C|452=12|448=035|447=C|452=1|448=071X01|447=C|452=37|10=046|
8=FIX.4.4|9=198|35=S|34=2|49=071|50=071X01|52=20190711-15:32:35.209|56=EXC|1=DP002|55=T24Q19F|62=20190830-22:00:00.000|117=201907111032042_S|131=20190711-000000000005.00|132=1500|133=0|134=100|135=0|632=0|762=FUIR|10=100|
8=FIX.4.4|9=0221|35=AI|34=3|49=EXC|56=071|57=071X01|52=20190711-15:33:11.861|117=201907111032042_S|55=T24Q19F|762=FUIR|1=DP002|132=1500|133=0|134=100|135=0|62=20190830-22:00:00.000|297=9|300=99|58=(409): Cannot enter both price and yield|10=206|
8=FIX.4.4|9=59|35=5|34=3|49=071|50=071X01|52=20190711-15:33:01.010|56=EXC|10=064|
8=FIX.4.4|9=0049|35=5|34=4|49=EXC|56=071|52=20190711-15:33:37.667|10=199|
8=FIX.4.4|9=110|35=A|34=1|49=071|50=071X01|52=20190711-15:34:10.516|56=EXC|43=N|98=0|108=30|141=Y|553=071FCM001|554=071FCM001|10=104|
8=FIX.4.4|9=0067|35=A|34=1|49=EXC|56=071|52=20190711-15:34:47.195|98=0|108=30|141=Y|10=020|
8=FIX.4.4|9=0214|35=R|34=2|49=EXC|56=071|57=071X01|52=20190711-15:34:54.029|131=20190711-000000000006.00|146=1|55=T24Q19F|762=FUIR|48=26623|22=M|54=1|38=100|453=3|448=035X01|447=C|452=12|448=035|447=C|452=1|448=071X01|447=C|452=37|10=048|
8=FIX.4.4|9=180|35=S|34=2|49=071|50=071X01|52=20190711-15:34:37.459|56=EXC|1=DP002|55=T24Q19F|62=20190830-22:00:00.000|117=201907111034071_S|131=20190711-000000000006.00|133=1000|135=100|762=FUIR|10=083|
8=FIX.4.4|9=0281|35=AI|34=3|49=EXC|56=071|57=071X01|52=20190711-15:35:14.117|131=20190711-000000000006.00|117=201907111034071_S|453=3|448=035X01|447=C|452=12|448=035|447=C|452=1|448=071X01|447=C|452=37|55=T24Q19F|762=FUIR|48=26623|22=M|54=1|1=DP002|133=1000.000|135=100|62=20190830-22:00:00|297=16|10=060|
8=FIX.4.4|9=0455|35=8|34=4|49=EXC|56=071|57=071X01|52=20190711-15:35:34.249|11=201907111034071_S|17=3|37=0|150=F|1080=20190711-000000000006.00|1081=6|453=5|448=071X01|447=C|452=12|448=071|447=C|452=1|448=035X01|447=C|452=37|448=035|447=C|452=17|448=071FCM001|447=C|452=36|55=T24Q19F|762=FUIR|48=26623|22=M|6=1000.000|14=100|31=1000.000|32=100|38=100|39=2|54=2|60=20190711-15:35:34.249|75=20190711|63=1|64=20190711|151=0|1=DP002|381=250000000000.000|880=201907110000000003|10=012|
8=FIX.4.4|9=59|35=0|34=3|49=071|50=071X01|52=20190711-15:35:08.269|56=EXC|10=084|
8=FIX.4.4|9=0049|35=0|34=5|49=EXC|56=071|52=20190711-15:36:04.000|10=173|
8=FIX.4.4|9=59|35=5|34=4|49=071|50=071X01|52=20190711-15:35:28.266|56=EXC|10=089|
8=FIX.4.4|9=0049|35=5|34=6|49=EXC|56=071|52=20190711-15:36:04.923|10=193|
8=FIX.4.4|9=110|35=A|34=1|49=071|50=071X01|52=20190711-15:58:03.057|56=EXC|43=N|98=0|108=30|141=Y|553=071FCM001|554=071FCM001|10=112|
8=FIX.4.4|9=0067|35=A|34=1|49=EXC|56=071|52=20190711-15:58:39.749|98=0|108=30|141=Y|10=032|
8=FIX.4.4|9=0214|35=R|34=2|49=EXC|56=071|57=071X01|52=20190711-15:58:46.593|131=20190711-000000000007.00|146=1|55=T24Q19F|762=FUIR|48=26623|22=M|54=2|38=100|453=3|448=035X01|447=C|452=12|448=035|447=C|452=1|448=071X01|447=C|452=37|10=063|
8=FIX.4.4|9=186|35=S|34=2|49=071|50=071X01|52=20190711-15:58:29.987|56=EXC|1=DP002|55=T24Q19F|62=20190830-22:00:00.000|117=201907111057592_S|131=20190711-000000000007.00|132=1500|134=100|135=0|762=FUIR|10=126|
8=FIX.4.4|9=0281|35=AI|34=3|49=EXC|56=071|57=071X01|52=20190711-15:59:06.668|131=20190711-000000000007.00|117=201907111057592_S|453=3|448=035X01|447=C|452=12|448=035|447=C|452=1|448=071X01|447=C|452=37|55=T24Q19F|762=FUIR|48=26623|22=M|54=2|1=DP002|132=1500.000|134=100|62=20190830-22:00:00|297=16|10=096|
8=FIX.4.4|9=0455|35=8|34=4|49=EXC|56=071|57=071X01|52=20190711-15:59:26.808|11=201907111057592_S|17=4|37=0|150=F|1080=20190711-000000000007.00|1081=6|453=5|448=071X01|447=C|452=12|448=071|447=C|452=1|448=035X01|447=C|452=37|448=035|447=C|452=17|448=071FCM001|447=C|452=36|55=T24Q19F|762=FUIR|48=26623|22=M|6=1500.000|14=100|31=1500.000|32=100|38=100|39=2|54=1|60=20190711-15:59:26.808|75=20190711|63=1|64=20190711|151=0|1=DP002|381=375000000000.000|880=201907110000000004|10=061|
8=FIX.4.4|9=59|35=0|34=3|49=071|50=071X01|52=20190711-15:59:00.828|56=EXC|10=083|
8=FIX.4.4|9=0049|35=0|34=5|49=EXC|56=071|52=20190711-15:59:56.000|10=185|
8=FIX.4.4|9=59|35=5|34=4|49=071|50=071X01|52=20190711-15:59:20.842|56=EXC|10=087|
8=FIX.4.4|9=0049|35=5|34=6|49=EXC|56=071|52=20190711-15:59:57.511|10=199|
8=FIX.4.4|9=110|35=A|34=1|49=071|50=071X01|52=20190711-16:28:49.999|56=EXC|43=N|98=0|108=30|141=Y|553=071FCM001|554=071FCM001|10=135|
8=FIX.4.4|9=0067|35=A|34=1|49=EXC|56=071|52=20190711-16:29:26.772|98=0|108=30|141=Y|10=023|
8=FIX.4.4|9=0214|35=R|34=2|49=EXC|56=071|57=071X01|52=20190711-16:29:33.681|131=20190711-000000000008.00|146=1|55=T24Q19F|762=FUIR|48=26623|22=M|54=1|38=150|453=3|448=035X01|447=C|452=12|448=035|447=C|452=1|448=071X01|447=C|452=37|10=061|
8=FIX.4.4|9=180|35=S|34=2|49=071|50=071X01|52=20190711-16:29:17.098|56=EXC|1=DP002|55=T24Q19F|62=20190830-22:00:00.000|117=201907111128463_S|131=20190711-000000000008.00|133=1230|135=150|762=FUIR|10=106|
8=FIX.4.4|9=0281|35=AI|34=3|49=EXC|56=071|57=071X01|52=20190711-16:29:53.797|131=20190711-000000000008.00|117=201907111128463_S|453=3|448=035X01|447=C|452=12|448=035|447=C|452=1|448=071X01|447=C|452=37|55=T24Q19F|762=FUIR|48=26623|22=M|54=1|1=DP002|133=1230.000|135=150|62=20190830-22:00:00|297=16|10=102|
8=FIX.4.4|9=0455|35=8|34=4|49=EXC|56=071|57=071X01|52=20190711-16:30:13.914|11=201907111128463_S|17=5|37=0|150=F|1080=20190711-000000000008.00|1081=6|453=5|448=071X01|447=C|452=12|448=071|447=C|452=1|448=035X01|447=C|452=37|448=035|447=C|452=17|448=071FCM001|447=C|452=36|55=T24Q19F|762=FUIR|48=26623|22=M|6=1230.000|14=150|31=1230.000|32=150|38=150|39=2|54=2|60=20190711-16:30:13.914|75=20190711|63=1|64=20190711|151=0|1=DP002|381=461250000000.000|880=201907110000000005|10=047|
8=FIX.4.4|9=59|35=0|34=3|49=071|50=071X01|52=20190711-16:29:47.906|56=EXC|10=089|
8=FIX.4.4|9=0049|35=0|34=5|49=EXC|56=071|52=20190711-16:30:43.000|10=171|
8=FIX.4.4|9=59|35=5|34=4|49=071|50=071X01|52=20190711-16:30:07.904|56=EXC|10=081|
8=FIX.4.4|9=0049|35=5|34=6|49=EXC|56=071|52=20190711-16:30:44.591|10=193|
8=FIX.4.4|9=110|35=A|34=1|49=071|50=071X01|52=20190711-19:05:54.303|56=EXC|43=N|98=0|108=30|141=Y|553=071FCM001|554=071FCM001|10=108|
8=FIX.4.4|9=0067|35=A|34=1|49=EXC|56=071|52=20190711-19:06:31.132|98=0|108=30|141=Y|10=007|
8=FIX.4.4|9=0049|35=0|34=2|49=EXC|56=071|52=20190711-19:07:01.000|10=169|
8=FIX.4.4|9=59|35=0|34=2|49=071|50=071X01|52=20190711-19:06:25.154|56=EXC|10=077|
8=FIX.4.4|9=110|35=A|34=1|49=071|50=071X01|52=20190711-19:06:52.317|56=EXC|43=N|98=0|108=30|141=Y|553=071FCM001|554=071FCM001|10=112|
8=FIX.4.4|9=0067|35=A|34=1|49=EXC|56=071|52=20190711-19:07:29.160|98=0|108=30|141=Y|10=016|
8=FIX.4.4|9=0049|35=0|34=2|49=EXC|56=071|52=20190711-19:07:59.000|10=182|
8=FIX.4.4|9=59|35=0|34=2|49=071|50=071X01|52=20190711-19:07:23.239|56=EXC|10=080|
8=FIX.4.4|9=0049|35=0|34=3|49=EXC|56=071|52=20190711-19:08:29.000|10=181|
8=FIX.4.4|9=59|35=0|34=3|49=071|50=071X01|52=20190711-19:07:53.236|56=EXC|10=081|
8=FIX.4.4|9=0049|35=0|34=4|49=EXC|56=071|52=20190711-19:08:59.000|10=185|
8=FIX.4.4|9=59|35=0|34=4|49=071|50=071X01|52=20190711-19:08:23.232|56=EXC|10=076|
8=FIX.4.4|9=0049|35=0|34=5|49=EXC|56=071|52=20190711-19:09:29.000|10=184|
8=FIX.4.4|9=59|35=0|34=5|49=071|50=071X01|52=20190711-19:08:53.232|56=EXC|10=080|
8=FIX.4.4|9=110|35=A|34=1|49=071|50=071X01|52=20190711-19:09:36.096|56=EXC|43=N|98=0|108=30|141=Y|553=071FCM001|554=071FCM001|10=121|
8=FIX.4.4|9=0067|35=A|34=1|49=EXC|56=071|52=20190711-19:10:12.942|98=0|108=30|141=Y|10=010|
8=FIX.4.4|9=110|35=A|34=1|49=071|50=071X01|52=20190711-19:26:44.028|56=EXC|43=N|98=0|108=30|141=Y|553=071FCM001|554=071FCM001|10=114|
8=FIX.4.4|9=0067|35=A|34=1|49=EXC|56=071|52=20190711-19:27:20.897|98=0|108=30|141=Y|10=026|
8=FIX.4.4|9=0214|35=R|34=2|49=EXC|56=071|57=071X01|52=20190711-19:27:27.831|131=20190711-000000000009.00|146=1|55=T24Q19F|762=FUIR|48=26623|22=M|54=1|38=200|453=3|448=072X01|447=C|452=12|448=072|447=C|452=1|448=071X01|447=C|452=37|10=061|
8=FIX.4.4|9=59|35=0|34=2|49=071|50=071X01|52=20190711-19:27:14.871|56=EXC|10=084|
8=FIX.4.4|9=0049|35=0|34=3|49=EXC|56=071|52=20190711-19:27:57.000|10=183|
8=FIX.4.4|9=59|35=0|34=3|49=071|50=071X01|52=20190711-19:27:44.870|56=EXC|10=087|
8=FIX.4.4|9=0049|35=0|34=4|49=EXC|56=071|52=20190711-19:28:27.000|10=182|
8=FIX.4.4|9=59|35=0|34=4|49=071|50=071X01|52=20190711-19:28:14.878|56=EXC|10=094|
8=FIX.4.4|9=0049|35=0|34=5|49=EXC|56=071|52=20190711-19:28:57.000|10=186|
8=FIX.4.4|9=110|35=A|34=1|49=071|50=071X01|52=20190711-19:39:14.828|56=EXC|43=N|98=0|108=30|141=Y|553=071FCM001|554=071FCM001|10=123|
8=FIX.4.4|9=0067|35=A|34=1|49=EXC|56=071|52=20190711-19:39:51.701|98=0|108=30|141=Y|10=017|
8=FIX.4.4|9=0049|35=0|34=2|49=EXC|56=071|52=20190711-19:40:21.000|10=168|
8=FIX.4.4|9=59|35=0|34=2|49=071|50=071X01|52=20190711-19:39:45.757|56=EXC|10=094|
8=FIX.4.4|9=59|35=5|34=3|49=071|50=071X01|52=20190711-19:40:07.758|56=EXC|10=091|
8=FIX.4.4|9=0049|35=5|34=3|49=EXC|56=071|52=20190711-19:40:44.595|10=198|
8=FIX.4.4|9=110|35=A|34=1|49=071|50=071X01|52=20190711-19:49:34.255|56=EXC|43=N|98=0|108=30|141=Y|553=071FCM001|554=071FCM001|10=120|
8=FIX.4.4|9=0067|35=A|34=1|49=EXC|56=071|52=20190711-19:50:11.133|98=0|108=30|141=Y|10=005|
8=FIX.4.4|9=110|35=A|34=1|49=071|50=071X01|52=20190711-19:51:02.746|56=EXC|43=N|98=0|108=30|141=Y|553=071FCM001|554=071FCM001|10=113|
8=FIX.4.4|9=0067|35=A|34=1|49=EXC|56=071|52=20190711-19:51:39.629|98=0|108=30|141=Y|10=026|
8=FIX.4.4|9=0049|35=0|34=2|49=EXC|56=071|52=20190711-19:52:09.000|10=177|
8=FIX.4.4|9=59|35=0|34=2|49=071|50=071X01|52=20190711-19:51:33.697|56=EXC|10=088|
8=FIX.4.4|9=0049|35=0|34=3|49=EXC|56=071|52=20190711-19:52:39.000|10=181|
8=FIX.4.4|9=59|35=0|34=3|49=071|50=071X01|52=20190711-19:52:03.698|56=EXC|10=088|
8=FIX.4.4|9=110|35=A|34=1|49=071|50=071X01|52=20190711-19:56:25.762|56=EXC|43=N|98=0|108=30|141=Y|553=071FCM001|554=071FCM001|10=121|
8=FIX.4.4|9=0067|35=A|34=1|49=EXC|56=071|52=20190711-19:57:02.639|98=0|108=30|141=Y|10=023|
8=FIX.4.4|9=0049|35=0|34=2|49=EXC|56=071|52=20190711-19:57:32.000|10=178|
8=FIX.4.4|9=59|35=0|34=2|49=071|50=071X01|52=20190711-19:56:56.702|56=EXC|10=085|
8=FIX.4.4|9=110|35=A|34=1|49=071|50=071X01|52=20190711-20:05:40.424|56=EXC|43=N|98=0|108=30|141=Y|553=071FCM001|554=071FCM001|10=099|
8=FIX.4.4|9=0067|35=A|34=1|49=EXC|56=071|52=20190711-20:06:17.310|98=0|108=30|141=Y|10=001|
8=FIX.4.4|9=59|35=5|34=2|49=071|50=071X01|52=20190711-20:06:08.356|56=EXC|10=079|
8=FIX.4.4|9=0049|35=5|34=2|49=EXC|56=071|52=20190711-20:06:45.210|10=176|
8=FIX.4.4|9=110|35=A|34=1|49=071|50=071X01|52=20190711-20:07:49.276|56=EXC|43=N|98=0|108=30|141=Y|553=071FCM001|554=071FCM001|10=115|
8=FIX.4.4|9=0067|35=A|34=1|49=EXC|56=071|52=20190711-20:08:26.168|98=0|108=30|141=Y|10=014|
8=FIX.4.4|9=0049|35=0|34=2|49=EXC|56=071|52=20190711-20:08:56.000|10=172|
8=FIX.4.4|9=59|35=0|34=2|49=071|50=071X01|52=20190711-20:08:20.129|56=EXC|10=068|
8=FIX.4.4|9=110|35=A|34=1|49=071|50=071X01|52=20190711-20:10:14.158|56=EXC|43=N|98=0|108=30|141=Y|553=071FCM001|554=071FCM001|10=100|
8=FIX.4.4|9=0067|35=A|34=1|49=EXC|56=071|52=20190711-20:10:51.036|98=0|108=30|141=Y|10=255|
8=FIX.4.4|9=59|35=5|34=2|49=071|50=071X01|52=20190711-20:10:42.062|56=EXC|10=066|
8=FIX.4.4|9=0049|35=5|34=2|49=EXC|56=071|52=20190711-20:11:18.928|10=188|
8=FIX.4.4|9=59|35=5|34=3|49=071|50=071X01|52=20190711-20:10:42.062|56=EXC|10=067|
8=FIX.4.4|9=110|35=A|34=1|49=071|50=071X01|52=20190711-22:37:54.606|56=EXC|43=N|98=0|108=30|141=Y|553=071FCM001|554=071FCM001|10=113|
8=FIX.4.4|9=0067|35=A|34=1|49=EXC|56=071|52=20190711-22:43:55.885|98=0|108=30|141=Y|10=023|
8=FIX.4.4|9=110|35=A|34=1|49=071|50=071X01|52=20190711-22:40:54.380|56=EXC|43=N|98=0|108=30|141=Y|553=071FCM001|554=071FCM001|10=106|
8=FIX.4.4|9=0067|35=A|34=1|49=EXC|56=071|52=20190711-22:46:55.650|98=0|108=30|141=Y|10=016|
8=FIX.4.4|9=200|35=AE|34=2|49=071|50=071X01|52=20190711-22:41:16.623|56=EXC|31=100|32=500000000|55=TFIT16240724|60=20190706-16:13:52.000|487=0|571=201907111740511_AE|762=ASPT|856=96|880=201907160000000062|552=1|54=1|10=004|
8=FIX.4.4|9=0170|35=AR|34=2|49=EXC|56=071|57=071X01|52=20190711-22:47:17.864|571=201907111740511_AE|487=0|856=96|939=1|17=6|60=20190711-22:47:17.864|751=99|58=(138): Invalid Trade Number|10=162|
8=FIX.4.4|9=110|35=A|34=1|49=071|50=071X01|52=20190711-23:06:02.087|56=EXC|43=N|98=0|108=30|141=Y|553=071FCM001|554=071FCM001|10=106|
8=FIX.4.4|9=0067|35=A|34=1|49=EXC|56=071|52=20190711-23:12:03.375|98=0|108=30|141=Y|10=007|
8=FIX.4.4|9=174|35=AE|34=2|49=071|50=071X01|52=20190711-23:06:24.249|56=EXC|31=100|32=500000000|55=T24Q19F|60=20190706-16:13:52.000|487=2|571=201907111805581_AE_R|762=FUIR|856=14|552=1|54=1|10=077|
8=FIX.4.4|9=0196|35=AR|34=2|49=EXC|56=071|57=071X01|52=20190711-23:12:25.507|571=201907111805581_AE_R|487=2|856=14|939=1|17=7|60=20190711-23:12:25.507|751=99|58=(1512): Invalid value for tag TradeReportType(#856)|10=026|
8=FIX.4.4|9=110|35=A|34=1|49=071|50=071X01|52=20190711-23:09:29.679|56=EXC|43=N|98=0|108=30|141=Y|553=071FCM001|554=071FCM001|10=125|
8=FIX.4.4|9=0067|35=A|34=1|49=EXC|56=071|52=20190711-23:15:30.964|98=0|108=30|141=Y|10=014|
8=FIX.4.4|9=169|35=AE|34=2|49=071|50=071X01|52=20190711-23:09:51.825|56=EXC|31=1000|32=100|55=T24Q19F|60=20190706-16:13:52.000|487=2|571=201907111809261_AE_R|762=FUIR|856=14|552=1|54=1|10=095|
8=FIX.4.4|9=0196|35=AR|34=2|49=EXC|56=071|57=071X01|52=20190711-23:15:53.085|571=201907111809261_AE_R|487=2|856=14|939=1|17=8|60=20190711-23:15:53.085|751=99|58=(1512): Invalid value for tag TradeReportType(#856)|10=036|
8=FIX.4.4|9=110|35=A|34=1|49=071|50=071X01|52=20190711-23:16:56.924|56=EXC|43=N|98=0|108=30|141=Y|553=071FCM001|554=071FCM001|10=116|
8=FIX.4.4|9=0067|35=A|34=1|49=EXC|56=071|52=20190711-23:22:58.223|98=0|108=30|141=Y|10=010|
8=FIX.4.4|9=169|35=AE|34=2|49=071|50=071X01|52=20190711-23:17:18.994|56=EXC|31=1000|32=100|55=T24Q19F|60=20190706-16:13:52.000|487=2|571=201907111816531_AE_R|762=FUIR|856=97|552=1|54=1|10=113|
8=FIX.4.4|9=0172|35=AR|34=2|49=EXC|56=071|57=071X01|52=20190711-23:23:20.258|571=201907111816531_AE_R|487=2|856=97|939=1|17=9|60=20190711-23:23:20.258|751=99|58=(138): Invalid Trade Number|10=069|
8=FIX.4.4|9=110|35=A|34=1|49=071|50=071X01|52=20190711-23:20:57.752|56=EXC|43=N|98=0|108=30|141=Y|553=071FCM001|554=071FCM001|10=111|
8=FIX.4.4|9=0067|35=A|34=1|49=EXC|56=071|52=20190711-23:26:59.162|98=0|108=30|141=Y|10=017|
8=FIX.4.4|9=168|35=AE|34=2|49=071|50=071X01|52=20190711-23:21:20.026|56=EXC|31=1000|32=100|55=T24Q19F|60=20190706-16:13:52.000|487=0|571=201907111820541_AE_R|762=FUIR|856=0|552=1|54=1|10=016|
8=FIX.4.4|9=0173|35=AR|34=2|49=EXC|56=071|57=071X01|52=20190711-23:27:21.294|571=201907111820541_AE_R|487=0|856=0|939=1|17=10|60=20190711-23:27:21.294|751=99|58=(1053): Invalid counterparty|10=022|
8=FIX.4.4|9=110|35=A|34=1|49=071|50=071X01|52=20190711-23:38:30.524|56=EXC|43=N|98=0|108=30|141=Y|553=071FCM001|554=071FCM001|10=108|
8=FIX.4.4|9=0067|35=A|34=1|49=EXC|56=071|52=20190711-23:44:31.834|98=0|108=30|141=Y|10=013|
8=FIX.4.4|9=169|35=AE|34=2|49=071|50=071X01|52=20190711-23:38:52.777|56=EXC|31=1000|32=100|55=T24Q19F|60=20190706-16:13:52.000|487=0|571=201907111838271_AE_R|762=FUIR|856=97|552=1|54=1|10=116|
8=FIX.4.4|9=0202|35=AR|34=2|49=EXC|56=071|57=071X01|52=20190711-23:44:54.055|571=201907111838271_AE_R|487=0|856=97|939=1|17=11|60=20190711-23:44:54.055|751=99|58=(1512): Invalid value for tag TradeReportTransType(#487)|10=086|
8=FIX.4.4|9=110|35=A|34=1|49=071|50=071X01|52=20190711-23:45:03.553|56=EXC|43=N|98=0|108=30|141=Y|553=071FCM001|554=071FCM001|10=108|
8=FIX.4.4|9=0067|35=A|34=1|49=EXC|56=071|52=20190711-23:51:04.866|98=0|108=30|141=Y|10=016|
8=FIX.4.4|9=168|35=AE|34=2|49=071|50=071X01|52=20190711-23:45:25.830|56=EXC|31=1000|32=100|55=T24Q19F|60=20190706-16:13:52.000|487=0|571=201907111845001_AE_R|762=FUIR|856=2|552=1|54=1|10=030|
8=FIX.4.4|9=0201|35=AR|34=2|49=EXC|56=071|57=071X01|52=20190711-23:51:27.112|571=201907111845001_AE_R|487=0|856=2|939=1|17=12|60=20190711-23:51:27.112|751=99|58=(1512): Invalid value for tag TradeReportTransType(#487)|10=253|
8=FIX.4.4|9=110|35=A|34=1|49=071|50=071X01|52=20190711-23:50:30.180|56=EXC|43=N|98=0|108=30|141=Y|553=071FCM001|554=071FCM001|10=100|
8=FIX.4.4|9=0067|35=A|34=1|49=EXC|56=071|52=20190711-23:56:31.497|98=0|108=30|141=Y|10=021|
8=FIX.4.4|9=169|35=AE|34=2|49=071|50=071X01|52=20190711-23:50:52.155|56=EXC|31=1000|32=100|55=T24Q19F|60=20190706-16:13:52.000|487=2|571=201907111850261_AE_R|762=FUIR|856=97|552=1|54=1|10=095|
8=FIX.4.4|9=0173|35=AR|34=2|49=EXC|56=071|57=071X01|52=20190711-23:56:53.441|571=201907111850261_AE_R|487=2|856=97|939=1|17=13|60=20190711-23:56:53.441|751=99|58=(138): Invalid Trade Number|10=123|
8=FIX.4.4|9=110|35=A|34=1|49=071|50=071X01|52=20190712-00:00:19.732|56=EXC|43=N|98=0|108=30|141=Y|553=071FCM001|554=071FCM001|10=101|
8=FIX.4.4|9=0067|35=A|34=1|49=EXC|56=071|52=20190712-00:06:21.061|98=0|108=30|141=Y|10=254|
8=FIX.4.4|9=192|35=AE|34=2|49=071|50=071X01|52=20190712-00:00:41.783|56=EXC|31=1000|32=100|55=T24Q19F|60=20190706-16:13:52.000|487=2|571=201907111900161_AE_R|762=FUIR|856=97|880=201907160000000001|552=1|54=1|10=171|
8=FIX.4.4|9=0173|35=AR|34=2|49=EXC|56=071|57=071X01|52=20190712-00:06:43.073|571=201907111900161_AE_R|487=2|856=97|939=1|17=14|60=20190712-00:06:43.073|751=99|58=(138): Invalid Trade Number|10=101|
