8=FIX.4.4|9=110|35=A|34=1|49=045|50=045B17|52=20190723-14:41:06.083|56=EXC|43=N|98=0|108=30|141=Y|553=045FCM001|554=045FCM001|10=097|
8=FIX.4.4|9=0067|35=A|34=1|49=EXC|56=045|52=20190723-14:41:06.149|98=0|108=30|141=Y|10=015|
8=FIX.4.4|9=0049|35=0|34=2|49=EXC|56=045|52=20190723-14:41:36.000|10=174|
8=FIX.4.4|9=59|35=0|34=2|49=045|50=045B17|52=20190723-14:41:36.075|56=EXC|10=065|
8=FIX.4.4|9=0049|35=0|34=3|49=EXC|56=045|52=20190723-14:42:06.000|10=173|
8=FIX.4.4|9=59|35=0|34=3|49=045|50=045B17|52=20190723-14:42:06.088|56=EXC|10=068|
8=FIX.4.4|9=0049|35=0|34=4|49=EXC|56=045|52=20190723-14:42:36.000|10=177|
8=FIX.4.4|9=59|35=0|34=4|49=045|50=045B17|52=20190723-14:42:36.088|56=EXC|10=072|
8=FIX.4.4|9=110|35=A|34=1|49=045|50=045B17|52=20190723-15:21:29.914|56=EXC|43=N|98=0|108=30|141=Y|553=045FCM001|554=045FCM001|10=104|
8=FIX.4.4|9=0067|35=A|34=1|49=EXC|56=045|52=20190723-15:21:29.971|98=0|108=30|141=Y|10=022|
8=FIX.4.4|9=0049|35=0|34=2|49=EXC|56=045|52=20190723-15:21:59.000|10=178|
8=FIX.4.4|9=59|35=0|34=2|49=045|50=045B17|52=20190723-15:22:00.871|56=EXC|10=060|
8=FIX.4.4|9=0049|35=0|34=3|49=EXC|56=045|52=20190723-15:22:29.000|10=177|
8=FIX.4.4|9=59|35=0|34=3|49=045|50=045B17|52=20190723-15:22:30.871|56=EXC|10=064|
8=FIX.4.4|9=110|35=A|34=1|49=045|50=045B17|52=20190723-15:30:28.666|56=EXC|43=N|98=0|108=30|141=Y|553=045FCM001|554=045FCM001|10=107|
8=FIX.4.4|9=0067|35=A|34=1|49=EXC|56=045|52=20190723-15:30:28.732|98=0|108=30|141=Y|10=016|
8=FIX.4.4|9=0049|35=0|34=2|49=EXC|56=045|52=20190723-15:30:58.000|10=177|
8=FIX.4.4|9=59|35=0|34=2|49=045|50=045B17|52=20190723-15:30:59.637|56=EXC|10=073|
8=FIX.4.4|9=0049|35=0|34=3|49=EXC|56=045|52=20190723-15:31:28.000|10=176|
8=FIX.4.4|9=59|35=0|34=3|49=045|50=045B17|52=20190723-15:31:29.647|56=EXC|10=073|
8=FIX.4.4|9=0049|35=0|34=4|49=EXC|56=045|52=20190723-15:31:58.000|10=180|
8=FIX.4.4|9=59|35=0|34=4|49=045|50=045B17|52=20190723-15:31:59.639|56=EXC|10=078|
8=FIX.4.4|9=0049|35=0|34=5|49=EXC|56=045|52=20190723-15:32:28.000|10=179|
8=FIX.4.4|9=59|35=0|34=5|49=045|50=045B17|52=20190723-15:32:29.640|56=EXC|10=069|
8=FIX.4.4|9=0049|35=0|34=6|49=EXC|56=045|52=20190723-15:32:58.000|10=183|
8=FIX.4.4|9=59|35=0|34=6|49=045|50=045B17|52=20190723-15:32:59.640|56=EXC|10=073|
8=FIX.4.4|9=110|35=A|34=1|49=045|50=045B17|52=20190723-15:51:18.628|56=EXC|43=N|98=0|108=30|141=Y|553=045FCM001|554=045FCM001|10=107|
8=FIX.4.4|9=0067|35=A|34=1|49=EXC|56=045|52=20190723-15:51:18.696|98=0|108=30|141=Y|10=027|
8=FIX.4.4|9=0049|35=0|34=2|49=EXC|56=045|52=20190723-15:51:48.000|10=179|
8=FIX.4.4|9=59|35=0|34=2|49=045|50=045B17|52=20190723-15:51:49.614|56=EXC|10=070|
8=FIX.4.4|9=0049|35=0|34=3|49=EXC|56=045|52=20190723-15:52:18.000|10=178|
8=FIX.4.4|9=59|35=0|34=3|49=045|50=045B17|52=20190723-15:52:19.610|56=EXC|10=065|
8=FIX.4.4|9=0049|35=0|34=4|49=EXC|56=045|52=20190723-15:52:48.000|10=182|
8=FIX.4.4|9=59|35=0|34=4|49=045|50=045B17|52=20190723-15:52:49.606|56=EXC|10=074|
8=FIX.4.4|9=110|35=A|34=1|49=045|50=045B17|52=20190723-16:20:47.948|56=EXC|43=N|98=0|108=30|141=Y|553=045FCM001|554=045FCM001|10=111|
8=FIX.4.4|9=0067|35=A|34=1|49=EXC|56=045|52=20190723-16:20:48.011|98=0|108=30|141=Y|10=008|
8=FIX.4.4|9=0049|35=0|34=2|49=EXC|56=045|52=20190723-16:21:18.000|10=174|
8=FIX.4.4|9=59|35=0|34=2|49=045|50=045B17|52=20190723-16:21:17.962|56=EXC|10=069|
8=FIX.4.4|9=0049|35=0|34=3|49=EXC|56=045|52=20190723-16:21:48.000|10=178|
8=FIX.4.4|9=59|35=0|34=3|49=045|50=045B17|52=20190723-16:21:47.959|56=EXC|10=079|
8=FIX.4.4|9=0049|35=0|34=4|49=EXC|56=045|52=20190723-16:22:18.000|10=177|
8=FIX.4.4|9=59|35=0|34=4|49=045|50=045B17|52=20190723-16:22:17.958|56=EXC|10=077|
8=FIX.4.4|9=0049|35=0|34=5|49=EXC|56=045|52=20190723-16:22:48.000|10=181|
8=FIX.4.4|9=59|35=0|34=5|49=045|50=045B17|52=20190723-16:22:47.958|56=EXC|10=081|
8=FIX.4.4|9=110|35=A|34=1|49=045|50=045B17|52=20190723-16:47:43.096|56=EXC|43=N|98=0|108=30|141=Y|553=045FCM001|554=045FCM001|10=110|
8=FIX.4.4|9=0067|35=A|34=1|49=EXC|56=045|52=20190723-16:47:43.170|98=0|108=30|141=Y|10=018|
8=FIX.4.4|9=0049|35=0|34=2|49=EXC|56=045|52=20190723-16:48:13.000|10=178|
8=FIX.4.4|9=59|35=0|34=2|49=045|50=045B17|52=20190723-16:48:14.070|56=EXC|10=065|
8=FIX.4.4|9=0049|35=0|34=3|49=EXC|56=045|52=20190723-16:48:43.000|10=182|
8=FIX.4.4|9=59|35=0|34=3|49=045|50=045B17|52=20190723-16:48:45.058|56=EXC|10=076|
8=FIX.4.4|9=0049|35=0|34=4|49=EXC|56=045|52=20190723-16:49:13.000|10=181|
8=FIX.4.4|9=59|35=0|34=4|49=045|50=045B17|52=20190723-16:49:15.057|56=EXC|10=074|
8=FIX.4.4|9=0049|35=0|34=5|49=EXC|56=045|52=20190723-16:49:43.000|10=185|
8=FIX.4.4|9=59|35=0|34=5|49=045|50=045B17|52=20190723-16:49:45.057|56=EXC|10=078|
8=FIX.4.4|9=0049|35=0|34=6|49=EXC|56=045|52=20190723-16:50:13.000|10=175|
8=FIX.4.4|9=59|35=0|34=6|49=045|50=045B17|52=20190723-16:50:15.058|56=EXC|10=069|
8=FIX.4.4|9=0049|35=0|34=7|49=EXC|56=045|52=20190723-16:50:43.000|10=179|
8=FIX.4.4|9=59|35=0|34=7|49=045|50=045B17|52=20190723-16:50:45.069|56=EXC|10=075|
8=FIX.4.4|9=0049|35=0|34=8|49=EXC|56=045|52=20190723-16:51:13.000|10=178|
8=FIX.4.4|9=59|35=0|34=8|49=045|50=045B17|52=20190723-16:51:15.071|56=EXC|10=067|
8=FIX.4.4|9=0049|35=0|34=9|49=EXC|56=045|52=20190723-16:51:43.000|10=182|
8=FIX.4.4|9=59|35=0|34=9|49=045|50=045B17|52=20190723-16:51:46.068|56=EXC|10=078|
8=FIX.4.4|9=0050|35=0|34=10|49=EXC|56=045|52=20190723-16:52:13.000|10=212|
8=FIX.4.4|9=60|35=0|34=10|49=045|50=045B17|52=20190723-16:52:16.067|56=EXC|10=107|
8=FIX.4.4|9=0050|35=0|34=11|49=EXC|56=045|52=20190723-16:52:43.000|10=216|
8=FIX.4.4|9=60|35=0|34=11|49=045|50=045B17|52=20190723-16:52:46.062|56=EXC|10=106|
8=FIX.4.4|9=0050|35=0|34=12|49=EXC|56=045|52=20190723-16:53:13.000|10=215|
8=FIX.4.4|9=60|35=0|34=12|49=045|50=045B17|52=20190723-16:53:16.057|56=EXC|10=109|
8=FIX.4.4|9=0050|35=0|34=13|49=EXC|56=045|52=20190723-16:53:43.000|10=219|
8=FIX.4.4|9=60|35=0|34=13|49=045|50=045B17|52=20190723-16:53:46.060|56=EXC|10=107|
8=FIX.4.4|9=0050|35=0|34=14|49=EXC|56=045|52=20190723-16:54:13.000|10=218|
8=FIX.4.4|9=60|35=0|34=14|49=045|50=045B17|52=20190723-16:54:16.068|56=EXC|10=114|
8=FIX.4.4|9=110|35=A|34=1|49=045|50=045B17|52=20190723-19:42:33.145|56=EXC|43=N|98=0|108=30|141=Y|553=045FCM001|554=045FCM001|10=102|
8=FIX.4.4|9=0067|35=A|34=1|49=EXC|56=045|52=20190723-19:42:33.243|98=0|108=30|141=Y|10=016|
8=FIX.4.4|9=0049|35=0|34=2|49=EXC|56=045|52=20190723-19:43:03.000|10=175|
8=FIX.4.4|9=59|35=0|34=2|49=045|50=045B17|52=20190723-19:43:04.064|56=EXC|10=065|
8=FIX.4.4|9=0049|35=0|34=3|49=EXC|56=045|52=20190723-19:43:33.000|10=179|
8=FIX.4.4|9=59|35=0|34=3|49=045|50=045B17|52=20190723-19:43:34.064|56=EXC|10=069|
8=FIX.4.4|9=0049|35=0|34=4|49=EXC|56=045|52=20190723-19:44:03.000|10=178|
8=FIX.4.4|9=59|35=0|34=4|49=045|50=045B17|52=20190723-19:44:04.070|56=EXC|10=065|
8=FIX.4.4|9=59|35=5|34=5|49=045|50=045B17|52=20190723-19:44:10.065|56=EXC|10=072|
8=FIX.4.4|9=0055|35=5|34=5|49=EXC|56=045|52=20190723-19:44:10.131|369=5|10=205|
8=FIX.4.4|9=110|35=A|34=1|49=045|50=045B17|52=20190723-21:39:14.748|56=EXC|43=N|98=0|108=30|141=Y|553=045FCM001|554=045FCM001|10=109|
8=FIX.4.4|9=0067|35=A|34=1|49=EXC|56=045|52=20190723-14:34:02.835|98=0|108=30|141=Y|10=015|
8=FIX.4.4|9=0049|35=0|34=2|49=EXC|56=045|52=20190723-14:34:32.000|10=172|
8=FIX.4.4|9=59|35=0|34=2|49=045|50=045B17|52=20190723-21:39:45.695|56=EXC|10=078|
8=FIX.4.4|9=0049|35=0|34=3|49=EXC|56=045|52=20190723-14:35:02.000|10=171|
8=FIX.4.4|9=59|35=0|34=3|49=045|50=045B17|52=20190723-21:40:15.687|56=EXC|10=069|
8=FIX.4.4|9=59|35=5|34=4|49=045|50=045B17|52=20190723-21:40:32.694|56=EXC|10=072|
8=FIX.4.4|9=0055|35=5|34=4|49=EXC|56=045|52=20190723-14:35:20.765|369=4|10=212|
8=FIX.4.4|9=110|35=A|34=1|49=045|50=045B17|52=20190724-13:09:23.977|56=EXC|43=N|98=0|108=30|141=Y|553=045FCM001|554=045FCM001|10=112|
8=FIX.4.4|9=0067|35=A|34=1|49=EXC|56=045|52=20190724-14:38:13.071|98=0|108=30|141=Y|10=014|
8=FIX.4.4|9=0049|35=0|34=2|49=EXC|56=045|52=20190724-14:38:43.000|10=179|
8=FIX.4.4|9=59|35=0|34=2|49=045|50=045B17|52=20190724-13:09:54.895|56=EXC|10=079|
8=FIX.4.4|9=0049|35=0|34=3|49=EXC|56=045|52=20190724-14:39:13.000|10=178|
8=FIX.4.4|9=59|35=0|34=3|49=045|50=045B17|52=20190724-13:10:25.882|56=EXC|10=066|
8=FIX.4.4|9=0049|35=0|34=4|49=EXC|56=045|52=20190724-14:39:43.000|10=182|
8=FIX.4.4|9=59|35=0|34=4|49=045|50=045B17|52=20190724-13:10:55.884|56=EXC|10=072|
8=FIX.4.4|9=0049|35=0|34=5|49=EXC|56=045|52=20190724-14:40:13.000|10=172|
8=FIX.4.4|9=59|35=0|34=5|49=045|50=045B17|52=20190724-13:11:25.891|56=EXC|10=069|
8=FIX.4.4|9=59|35=5|34=6|49=045|50=045B17|52=20190724-13:11:49.891|56=EXC|10=081|
8=FIX.4.4|9=0055|35=5|34=6|49=EXC|56=045|52=20190724-14:40:38.955|369=6|10=223|
8=FIX.4.4|9=110|35=A|34=1|49=045|50=045B17|52=20190724-13:20:03.990|56=EXC|43=N|98=0|108=30|141=Y|553=045FCM001|554=045FCM001|10=098|
8=FIX.4.4|9=0067|35=A|34=1|49=EXC|56=045|52=20190724-14:48:53.071|98=0|108=30|141=Y|10=019|
8=FIX.4.4|9=0049|35=0|34=2|49=EXC|56=045|52=20190724-14:49:23.000|10=179|
8=FIX.4.4|9=59|35=0|34=2|49=045|50=045B17|52=20190724-13:20:34.945|56=EXC|10=066|
8=FIX.4.4|9=59|35=5|34=3|49=045|50=045B17|52=20190724-13:21:02.949|56=EXC|10=072|
8=FIX.4.4|9=0055|35=5|34=3|49=EXC|56=045|52=20190724-14:49:52.018|369=3|10=212|
8=FIX.4.4|9=110|35=A|34=1|49=045|50=045B17|52=20190724-14:03:52.945|56=EXC|43=N|98=0|108=30|141=Y|553=045FCM001|554=045FCM001|10=104|
8=FIX.4.4|9=0067|35=A|34=1|49=EXC|56=045|52=20190724-15:32:42.029|98=0|108=30|141=Y|10=014|
8=FIX.4.4|9=0049|35=0|34=2|49=EXC|56=045|52=20190724-15:33:12.000|10=171|
8=FIX.4.4|9=59|35=0|34=2|49=045|50=045B17|52=20190724-14:04:22.937|56=EXC|10=067|
8=FIX.4.4|9=59|35=5|34=3|49=045|50=045B17|52=20190724-14:04:51.898|56=EXC|10=081|
8=FIX.4.4|9=0055|35=5|34=3|49=EXC|56=045|52=20190724-15:33:40.970|369=3|10=210|
8=FIX.4.4|9=110|35=A|34=1|49=045|50=045B17|52=20190724-14:38:41.205|56=EXC|43=N|98=0|108=30|141=Y|553=045FCM001|554=045FCM001|10=099|
8=FIX.4.4|9=0067|35=A|34=1|49=EXC|56=045|52=20190724-16:07:30.294|98=0|108=30|141=Y|10=018|
8=FIX.4.4|9=0049|35=0|34=2|49=EXC|56=045|52=20190724-16:08:00.000|10=171|
8=FIX.4.4|9=59|35=0|34=2|49=045|50=045B17|52=20190724-14:39:12.149|56=EXC|10=069|
8=FIX.4.4|9=0049|35=0|34=3|49=EXC|56=045|52=20190724-16:08:30.000|10=175|
8=FIX.4.4|9=59|35=0|34=3|49=045|50=045B17|52=20190724-14:39:42.149|56=EXC|10=073|
8=FIX.4.4|9=0049|35=0|34=4|49=EXC|56=045|52=20190724-16:09:00.000|10=174|
8=FIX.4.4|9=59|35=0|34=4|49=045|50=045B17|52=20190724-14:40:12.149|56=EXC|10=063|
8=FIX.4.4|9=0049|35=0|34=5|49=EXC|56=045|52=20190724-16:09:30.000|10=178|
8=FIX.4.4|9=59|35=0|34=5|49=045|50=045B17|52=20190724-14:40:42.149|56=EXC|10=067|
8=FIX.4.4|9=0049|35=0|34=6|49=EXC|56=045|52=20190724-16:10:00.000|10=168|
8=FIX.4.4|9=59|35=0|34=6|49=045|50=045B17|52=20190724-14:41:12.150|56=EXC|10=058|
8=FIX.4.4|9=0049|35=0|34=7|49=EXC|56=045|52=20190724-16:10:30.000|10=172|
8=FIX.4.4|9=59|35=0|34=7|49=045|50=045B17|52=20190724-14:41:42.150|56=EXC|10=062|
8=FIX.4.4|9=0049|35=0|34=8|49=EXC|56=045|52=20190724-16:11:00.000|10=171|
8=FIX.4.4|9=59|35=0|34=8|49=045|50=045B17|52=20190724-14:42:12.156|56=EXC|10=067|
8=FIX.4.4|9=0049|35=0|34=9|49=EXC|56=045|52=20190724-16:11:30.000|10=175|
8=FIX.4.4|9=59|35=0|34=9|49=045|50=045B17|52=20190724-14:42:42.150|56=EXC|10=065|
8=FIX.4.4|9=0050|35=0|34=10|49=EXC|56=045|52=20190724-16:12:00.000|10=205|
8=FIX.4.4|9=60|35=0|34=10|49=045|50=045B17|52=20190724-14:43:12.156|56=EXC|10=101|
8=FIX.4.4|9=0050|35=0|34=11|49=EXC|56=045|52=20190724-16:12:30.000|10=209|
8=FIX.4.4|9=60|35=0|34=11|49=045|50=045B17|52=20190724-14:43:42.149|56=EXC|10=107|
8=FIX.4.4|9=0050|35=0|34=12|49=EXC|56=045|52=20190724-16:13:00.000|10=208|
8=FIX.4.4|9=60|35=0|34=12|49=045|50=045B17|52=20190724-14:44:12.149|56=EXC|10=106|
8=FIX.4.4|9=0050|35=0|34=13|49=EXC|56=045|52=20190724-16:13:30.000|10=212|
8=FIX.4.4|9=60|35=0|34=13|49=045|50=045B17|52=20190724-14:44:42.150|56=EXC|10=102|
8=FIX.4.4|9=0050|35=0|34=14|49=EXC|56=045|52=20190724-16:14:00.000|10=211|
8=FIX.4.4|9=60|35=0|34=14|49=045|50=045B17|52=20190724-14:45:12.149|56=EXC|10=109|
8=FIX.4.4|9=0050|35=0|34=15|49=EXC|56=045|52=20190724-16:14:30.000|10=215|
8=FIX.4.4|9=60|35=0|34=15|49=045|50=045B17|52=20190724-14:45:42.149|56=EXC|10=113|
8=FIX.4.4|9=0050|35=0|34=16|49=EXC|56=045|52=20190724-16:15:00.000|10=214|
8=FIX.4.4|9=60|35=0|34=16|49=045|50=045B17|52=20190724-14:46:12.150|56=EXC|10=104|
8=FIX.4.4|9=0050|35=0|34=17|49=EXC|56=045|52=20190724-16:15:30.000|10=218|
8=FIX.4.4|9=60|35=0|34=17|49=045|50=045B17|52=20190724-14:46:42.149|56=EXC|10=116|
8=FIX.4.4|9=0050|35=0|34=18|49=EXC|56=045|52=20190724-16:16:00.000|10=217|
8=FIX.4.4|9=60|35=0|34=18|49=045|50=045B17|52=20190724-14:47:12.149|56=EXC|10=115|
8=FIX.4.4|9=0050|35=0|34=19|49=EXC|56=045|52=20190724-16:16:30.000|10=221|
8=FIX.4.4|9=60|35=0|34=19|49=045|50=045B17|52=20190724-14:47:42.150|56=EXC|10=111|
8=FIX.4.4|9=0050|35=0|34=20|49=EXC|56=045|52=20190724-16:17:00.000|10=211|
8=FIX.4.4|9=60|35=0|34=20|49=045|50=045B17|52=20190724-14:48:12.150|56=EXC|10=101|
8=FIX.4.4|9=0050|35=0|34=21|49=EXC|56=045|52=20190724-16:17:30.000|10=215|
8=FIX.4.4|9=60|35=0|34=21|49=045|50=045B17|52=20190724-14:48:42.150|56=EXC|10=105|
8=FIX.4.4|9=0050|35=0|34=22|49=EXC|56=045|52=20190724-16:18:00.000|10=214|
8=FIX.4.4|9=60|35=0|34=22|49=045|50=045B17|52=20190724-14:49:12.151|56=EXC|10=105|
8=FIX.4.4|9=0050|35=0|34=23|49=EXC|56=045|52=20190724-16:18:30.000|10=218|
8=FIX.4.4|9=60|35=0|34=23|49=045|50=045B17|52=20190724-14:49:42.150|56=EXC|10=108|
8=FIX.4.4|9=0050|35=0|34=24|49=EXC|56=045|52=20190724-16:19:00.000|10=217|
8=FIX.4.4|9=60|35=0|34=24|49=045|50=045B17|52=20190724-14:50:12.149|56=EXC|10=106|
8=FIX.4.4|9=0050|35=0|34=25|49=EXC|56=045|52=20190724-16:19:30.000|10=221|
8=FIX.4.4|9=60|35=0|34=25|49=045|50=045B17|52=20190724-14:50:42.149|56=EXC|10=110|
8=FIX.4.4|9=0050|35=0|34=26|49=EXC|56=045|52=20190724-16:20:00.000|10=211|
8=FIX.4.4|9=60|35=0|34=26|49=045|50=045B17|52=20190724-14:51:12.155|56=EXC|10=106|
8=FIX.4.4|9=0050|35=0|34=27|49=EXC|56=045|52=20190724-16:20:30.000|10=215|
8=FIX.4.4|9=60|35=0|34=27|49=045|50=045B17|52=20190724-14:51:42.149|56=EXC|10=113|
8=FIX.4.4|9=0050|35=0|34=28|49=EXC|56=045|52=20190724-16:21:00.000|10=214|
8=FIX.4.4|9=60|35=0|34=28|49=045|50=045B17|52=20190724-14:52:12.149|56=EXC|10=112|
8=FIX.4.4|9=0050|35=0|34=29|49=EXC|56=045|52=20190724-16:21:30.000|10=218|
8=FIX.4.4|9=60|35=0|34=29|49=045|50=045B17|52=20190724-14:52:42.151|56=EXC|10=109|
8=FIX.4.4|9=0050|35=0|34=30|49=EXC|56=045|52=20190724-16:22:00.000|10=208|
8=FIX.4.4|9=60|35=0|34=30|49=045|50=045B17|52=20190724-14:53:12.150|56=EXC|10=098|
8=FIX.4.4|9=110|35=A|34=1|49=045|50=045B17|52=20190724-14:54:13.315|56=EXC|43=N|98=0|108=30|141=Y|553=045FCM001|554=045FCM001|10=098|
8=FIX.4.4|9=0067|35=A|34=1|49=EXC|56=045|52=20190724-16:23:02.403|98=0|108=30|141=Y|10=007|
8=FIX.4.4|9=0049|35=0|34=2|49=EXC|56=045|52=20190724-16:23:32.000|10=173|
8=FIX.4.4|9=59|35=0|34=2|49=045|50=045B17|52=20190724-14:54:44.253|56=EXC|10=067|
8=FIX.4.4|9=0049|35=0|34=3|49=EXC|56=045|52=20190724-16:24:02.000|10=172|
8=FIX.4.4|9=59|35=0|34=3|49=045|50=045B17|52=20190724-14:55:15.241|56=EXC|10=064|
8=FIX.4.4|9=0049|35=0|34=4|49=EXC|56=045|52=20190724-16:24:32.000|10=176|
8=FIX.4.4|9=59|35=0|34=4|49=045|50=045B17|52=20190724-14:55:45.247|56=EXC|10=074|
8=FIX.4.4|9=0049|35=0|34=5|49=EXC|56=045|52=20190724-16:25:02.000|10=175|
8=FIX.4.4|9=59|35=0|34=5|49=045|50=045B17|52=20190724-14:56:15.255|56=EXC|10=072|
8=FIX.4.4|9=0049|35=0|34=6|49=EXC|56=045|52=20190724-16:25:32.000|10=179|
8=FIX.4.4|9=59|35=0|34=6|49=045|50=045B17|52=20190724-14:56:46.242|56=EXC|10=073|
8=FIX.4.4|9=0049|35=0|34=7|49=EXC|56=045|52=20190724-16:26:02.000|10=178|
8=FIX.4.4|9=59|35=0|34=7|49=045|50=045B17|52=20190724-14:57:16.242|56=EXC|10=072|
8=FIX.4.4|9=110|35=A|34=1|49=045|50=045B17|52=20190724-15:07:09.809|56=EXC|43=N|98=0|108=30|141=Y|553=045FCM001|554=045FCM001|10=110|
8=FIX.4.4|9=0067|35=A|34=1|49=EXC|56=045|52=20190724-16:35:58.902|98=0|108=30|141=Y|10=025|
8=FIX.4.4|9=0049|35=0|34=2|49=EXC|56=045|52=20190724-16:36:28.000|10=182|
8=FIX.4.4|9=59|35=0|34=2|49=045|50=045B17|52=20190724-15:07:40.768|56=EXC|10=073|
8=FIX.4.4|9=0049|35=0|34=3|49=EXC|56=045|52=20190724-16:36:58.000|10=186|
8=FIX.4.4|9=59|35=0|34=3|49=045|50=045B17|52=20190724-15:08:10.766|56=EXC|10=070|
8=FIX.4.4|9=59|35=5|34=4|49=045|50=045B17|52=20190724-15:08:22.769|56=EXC|10=082|
8=FIX.4.4|9=0055|35=5|34=4|49=EXC|56=045|52=20190724-16:37:11.843|369=4|10=214|
8=FIX.4.4|9=110|35=A|34=1|49=045|50=045B17|52=20190724-16:10:06.833|56=EXC|43=N|98=0|108=30|141=Y|553=045FCM001|554=045FCM001|10=099|
8=FIX.4.4|9=0067|35=A|34=1|49=EXC|56=045|52=20190724-17:38:55.918|98=0|108=30|141=Y|10=033|
8=FIX.4.4|9=0049|35=0|34=2|49=EXC|56=045|52=20190724-17:39:25.000|10=183|
8=FIX.4.4|9=59|35=0|34=2|49=045|50=045B17|52=20190724-16:10:37.787|56=EXC|10=075|
8=FIX.4.4|9=0049|35=0|34=3|49=EXC|56=045|52=20190724-17:39:55.000|10=187|
8=FIX.4.4|9=59|35=0|34=3|49=045|50=045B17|52=20190724-16:11:07.784|56=EXC|10=071|
8=FIX.4.4|9=0049|35=0|34=4|49=EXC|56=045|52=20190724-17:40:25.000|10=177|
8=FIX.4.4|9=59|35=0|34=4|49=045|50=045B17|52=20190724-16:11:37.791|56=EXC|10=073|
8=FIX.4.4|9=0049|35=0|34=5|49=EXC|56=045|52=20190724-17:40:55.000|10=181|
8=FIX.4.4|9=59|35=0|34=5|49=045|50=045B17|52=20190724-16:12:07.783|56=EXC|10=073|
8=FIX.4.4|9=59|35=5|34=6|49=045|50=045B17|52=20190724-16:12:30.794|56=EXC|10=077|
8=FIX.4.4|9=0055|35=5|34=6|49=EXC|56=045|52=20190724-17:41:19.857|369=6|10=227|
8=FIX.4.4|9=110|35=A|34=1|49=045|50=045B17|52=20190724-20:44:55.097|56=EXC|43=N|98=0|108=30|141=Y|553=045FCM001|554=045FCM001|10=107|
8=FIX.4.4|9=0067|35=A|34=1|49=EXC|56=045|52=20190724-14:39:48.187|98=0|108=30|141=Y|10=031|
8=FIX.4.4|9=0049|35=0|34=2|49=EXC|56=045|52=20190724-14:40:18.000|10=174|
8=FIX.4.4|9=59|35=0|34=2|49=045|50=045B17|52=20190724-20:45:25.979|56=EXC|10=078|
8=FIX.4.4|9=0049|35=0|34=3|49=EXC|56=045|52=20190724-14:40:48.000|10=178|
8=FIX.4.4|9=59|35=0|34=3|49=045|50=045B17|52=20190724-20:45:55.979|56=EXC|10=082|
8=FIX.4.4|9=0049|35=0|34=4|49=EXC|56=045|52=20190724-14:41:18.000|10=177|
8=FIX.4.4|9=59|35=0|34=4|49=045|50=045B17|52=20190724-20:46:25.985|56=EXC|10=078|
8=FIX.4.4|9=0049|35=0|34=5|49=EXC|56=045|52=20190724-14:41:48.000|10=181|
8=FIX.4.4|9=59|35=0|34=5|49=045|50=045B17|52=20190724-20:46:55.979|56=EXC|10=085|
8=FIX.4.4|9=59|35=5|34=6|49=045|50=045B17|52=20190724-20:47:19.979|56=EXC|10=092|
8=FIX.4.4|9=0055|35=5|34=6|49=EXC|56=045|52=20190724-14:42:13.030|369=6|10=202|
8=FIX.4.4|9=110|35=A|34=1|49=045|50=045B17|52=20190724-23:15:49.081|56=EXC|43=N|98=0|108=30|141=Y|553=045FCM001|554=045FCM001|10=104|
8=FIX.4.4|9=0067|35=A|34=1|49=EXC|56=045|52=20190724-17:10:42.155|98=0|108=30|141=Y|10=012|
8=FIX.4.4|9=0049|35=0|34=2|49=EXC|56=045|52=20190724-17:11:12.000|10=169|
8=FIX.4.4|9=59|35=0|34=2|49=045|50=045B17|52=20190724-23:16:20.033|56=EXC|10=055|
8=FIX.4.4|9=0049|35=0|34=3|49=EXC|56=045|52=20190724-17:11:42.000|10=173|
8=FIX.4.4|9=59|35=0|34=3|49=045|50=045B17|52=20190724-23:16:50.032|56=EXC|10=058|
8=FIX.4.4|9=0049|35=0|34=4|49=EXC|56=045|52=20190724-17:12:12.000|10=172|
8=FIX.4.4|9=59|35=0|34=4|49=045|50=045B17|52=20190724-23:17:20.034|56=EXC|10=059|
8=FIX.4.4|9=0049|35=0|34=5|49=EXC|56=045|52=20190724-17:12:42.000|10=176|
8=FIX.4.4|9=59|35=0|34=5|49=045|50=045B17|52=20190724-23:17:50.033|56=EXC|10=062|
8=FIX.4.4|9=0049|35=0|34=6|49=EXC|56=045|52=20190724-17:13:12.000|10=175|
8=FIX.4.4|9=59|35=0|34=6|49=045|50=045B17|52=20190724-23:18:20.033|56=EXC|10=061|
8=FIX.4.4|9=0049|35=0|34=7|49=EXC|56=045|52=20190724-17:13:42.000|10=179|
8=FIX.4.4|9=59|35=0|34=7|49=045|50=045B17|52=20190724-23:18:50.038|56=EXC|10=070|
8=FIX.4.4|9=110|35=A|34=1|49=045|50=045B17|52=20190725-14:52:27.423|56=EXC|43=N|98=0|108=30|141=Y|553=045FCM001|554=045FCM001|10=102|
8=FIX.4.4|9=0067|35=A|34=1|49=EXC|56=045|52=20190725-14:52:27.496|98=0|108=30|141=Y|10=027|
8=FIX.4.4|9=0049|35=0|34=2|49=EXC|56=045|52=20190725-14:52:57.000|10=181|
8=FIX.4.4|9=59|35=5|34=2|49=045|50=045B17|52=20190725-14:52:56.979|56=EXC|10=089|
8=FIX.4.4|9=0055|35=5|34=3|49=EXC|56=045|52=20190725-14:52:57.014|369=2|10=207|
8=FIX.4.4|9=110|35=A|34=1|49=045|50=045B17|52=20190725-15:03:22.897|56=EXC|43=N|98=0|108=30|141=Y|553=045FCM001|554=045FCM001|10=109|
8=FIX.4.4|9=0067|35=A|34=1|49=EXC|56=045|52=20190725-15:03:22.938|98=0|108=30|141=Y|10=020|
8=FIX.4.4|9=110|35=A|34=1|49=045|50=045B17|52=20190725-15:17:52.889|56=EXC|43=N|98=0|108=30|141=Y|553=045FCM001|554=045FCM001|10=118|
8=FIX.4.4|9=0067|35=A|34=1|49=EXC|56=045|52=20190725-15:17:52.940|98=0|108=30|141=Y|10=021|
8=FIX.4.4|9=0049|35=0|34=2|49=EXC|56=045|52=20190725-15:18:22.000|10=176|
8=FIX.4.4|9=59|35=0|34=2|49=045|50=045B17|52=20190725-15:18:23.827|56=EXC|10=073|
8=FIX.4.4|9=0049|35=0|34=3|49=EXC|56=045|52=20190725-15:18:52.000|10=180|
8=FIX.4.4|9=59|35=0|34=3|49=045|50=045B17|52=20190725-15:18:53.825|56=EXC|10=075|
8=FIX.4.4|9=59|35=5|34=4|49=045|50=045B17|52=20190725-15:19:13.825|56=EXC|10=078|
8=FIX.4.4|9=0055|35=5|34=4|49=EXC|56=045|52=20190725-15:19:13.851|369=4|10=215|
8=FIX.4.4|9=110|35=A|34=1|49=045|50=045B17|52=20190725-15:47:42.138|56=EXC|43=N|98=0|108=30|141=Y|553=045FCM001|554=045FCM001|10=107|
8=FIX.4.4|9=0067|35=A|34=1|49=EXC|56=045|52=20190725-15:47:42.190|98=0|108=30|141=Y|10=020|
8=FIX.4.4|9=0049|35=0|34=2|49=EXC|56=045|52=20190725-15:48:12.000|10=178|
8=FIX.4.4|9=59|35=0|34=2|49=045|50=045B17|52=20190725-15:48:13.090|56=EXC|10=067|
8=FIX.4.4|9=0049|35=0|34=3|49=EXC|56=045|52=20190725-15:48:42.000|10=182|
8=FIX.4.4|9=59|35=0|34=3|49=045|50=045B17|52=20190725-15:48:43.090|56=EXC|10=071|
8=FIX.4.4|9=0049|35=0|34=4|49=EXC|56=045|52=20190725-15:49:12.000|10=181|
8=FIX.4.4|9=59|35=0|34=4|49=045|50=045B17|52=20190725-15:49:13.091|56=EXC|10=071|
8=FIX.4.4|9=0049|35=0|34=5|49=EXC|56=045|52=20190725-15:49:42.000|10=185|
8=FIX.4.4|9=59|35=0|34=5|49=045|50=045B17|52=20190725-15:49:43.091|56=EXC|10=075|
8=FIX.4.4|9=59|35=5|34=6|49=045|50=045B17|52=20190725-15:50:06.082|56=EXC|10=072|
8=FIX.4.4|9=0055|35=5|34=6|49=EXC|56=045|52=20190725-15:50:06.109|369=6|10=212|
8=FIX.4.4|9=110|35=A|34=1|49=045|50=045B17|52=20190725-19:26:03.332|56=EXC|43=N|98=0|108=30|141=Y|553=045FCM001|554=045FCM001|10=101|
8=FIX.4.4|9=0067|35=A|34=1|49=EXC|56=045|52=20190725-19:26:03.411|98=0|108=30|141=Y|10=014|
8=FIX.4.4|9=0049|35=0|34=2|49=EXC|56=045|52=20190725-19:26:33.000|10=181|
8=FIX.4.4|9=59|35=0|34=2|49=045|50=045B17|52=20190725-19:26:34.259|56=EXC|10=077|
8=FIX.4.4|9=0049|35=0|34=3|49=EXC|56=045|52=20190725-19:27:03.000|10=180|
8=FIX.4.4|9=59|35=0|34=3|49=045|50=045B17|52=20190725-19:27:04.264|56=EXC|10=072|
8=FIX.4.4|9=0049|35=0|34=4|49=EXC|56=045|52=20190725-19:27:33.000|10=184|
8=FIX.4.4|9=59|35=0|34=4|49=045|50=045B17|52=20190725-19:27:35.263|56=EXC|10=076|
8=FIX.4.4|9=110|35=A|34=1|49=045|50=045B17|52=20190725-19:28:32.663|56=EXC|43=N|98=0|108=30|141=Y|553=045FCM001|554=045FCM001|10=112|
8=FIX.4.4|9=0067|35=A|34=1|49=EXC|56=045|52=20190725-19:28:32.718|98=0|108=30|141=Y|10=028|
8=FIX.4.4|9=0049|35=0|34=2|49=EXC|56=045|52=20190725-19:29:02.000|10=180|
8=FIX.4.4|9=59|35=0|34=2|49=045|50=045B17|52=20190725-19:29:03.640|56=EXC|10=070|
8=FIX.4.4|9=0049|35=0|34=3|49=EXC|56=045|52=20190725-19:29:32.000|10=184|
8=FIX.4.4|9=59|35=0|34=3|49=045|50=045B17|52=20190725-19:29:33.640|56=EXC|10=074|
8=FIX.4.4|9=0049|35=0|34=4|49=EXC|56=045|52=20190725-19:30:02.000|10=174|
8=FIX.4.4|9=59|35=0|34=4|49=045|50=045B17|52=20190725-19:30:03.639|56=EXC|10=072|
8=FIX.4.4|9=0049|35=0|34=5|49=EXC|56=045|52=20190725-19:30:32.000|10=178|
8=FIX.4.4|9=59|35=0|34=5|49=045|50=045B17|52=20190725-19:30:33.648|56=EXC|10=076|
8=FIX.4.4|9=59|35=5|34=6|49=045|50=045B17|52=20190725-19:30:57.632|56=EXC|10=081|
8=FIX.4.4|9=0055|35=5|34=6|49=EXC|56=045|52=20190725-19:30:57.675|369=6|10=228|
8=FIX.4.4|9=110|35=A|34=1|49=045|50=045B17|52=20190725-22:06:07.652|56=EXC|43=N|98=0|108=30|141=Y|553=045FCM001|554=045FCM001|10=102|
8=FIX.4.4|9=0067|35=A|34=1|49=EXC|56=045|52=20190725-14:37:54.725|98=0|108=30|141=Y|10=025|
8=FIX.4.4|9=110|35=A|34=1|49=045|50=045B17|52=20190725-22:12:14.860|56=EXC|43=N|98=0|108=30|141=Y|553=045FCM001|554=045FCM001|10=098|
8=FIX.4.4|9=0067|35=A|34=1|49=EXC|56=045|52=20190725-14:44:01.933|98=0|108=30|141=Y|10=016|
8=FIX.4.4|9=0049|35=0|34=2|49=EXC|56=045|52=20190725-14:44:31.000|10=174|
8=FIX.4.4|9=59|35=0|34=2|49=045|50=045B17|52=20190725-22:12:45.837|56=EXC|10=070|
8=FIX.4.4|9=0049|35=0|34=3|49=EXC|56=045|52=20190725-14:45:01.000|10=173|
8=FIX.4.4|9=59|35=0|34=3|49=045|50=045B17|52=20190725-22:13:15.837|56=EXC|10=069|
8=FIX.4.4|9=0049|35=0|34=4|49=EXC|56=045|52=20190725-14:45:31.000|10=177|
8=FIX.4.4|9=59|35=0|34=4|49=045|50=045B17|52=20190725-22:13:45.838|56=EXC|10=074|
8=FIX.4.4|9=0049|35=0|34=5|49=EXC|56=045|52=20190725-14:46:01.000|10=176|
8=FIX.4.4|9=59|35=0|34=5|49=045|50=045B17|52=20190725-22:14:15.837|56=EXC|10=072|
8=FIX.4.4|9=59|35=5|34=6|49=045|50=045B17|52=20190725-22:14:38.838|56=EXC|10=084|
8=FIX.4.4|9=0055|35=5|34=6|49=EXC|56=045|52=20190725-14:46:25.899|369=6|10=233|
8=FIX.4.4|9=110|35=A|34=1|49=045|50=045B17|52=20190725-23:25:53.805|56=EXC|43=N|98=0|108=30|141=Y|553=045FCM001|554=045FCM001|10=105|
8=FIX.4.4|9=0067|35=A|34=1|49=EXC|56=045|52=20190725-15:57:40.875|98=0|108=30|141=Y|10=029|
8=FIX.4.4|9=0049|35=0|34=2|49=EXC|56=045|52=20190725-15:58:10.000|10=177|
8=FIX.4.4|9=59|35=0|34=2|49=045|50=045B17|52=20190725-23:26:24.752|56=EXC|10=069|
8=FIX.4.4|9=0049|35=0|34=3|49=EXC|56=045|52=20190725-15:58:40.000|10=181|
8=FIX.4.4|9=59|35=0|34=3|49=045|50=045B17|52=20190725-23:26:54.752|56=EXC|10=073|
8=FIX.4.4|9=0049|35=0|34=4|49=EXC|56=045|52=20190725-15:59:10.000|10=180|
8=FIX.4.4|9=59|35=0|34=4|49=045|50=045B17|52=20190725-23:27:24.753|56=EXC|10=073|
8=FIX.4.4|9=0049|35=0|34=5|49=EXC|56=045|52=20190725-15:59:40.000|10=184|
8=FIX.4.4|9=59|35=0|34=5|49=045|50=045B17|52=20190725-23:27:54.751|56=EXC|10=075|
8=FIX.4.4|9=59|35=5|34=6|49=045|50=045B17|52=20190725-23:28:17.751|56=EXC|10=081|
8=FIX.4.4|9=0055|35=5|34=6|49=EXC|56=045|52=20190725-16:00:04.806|369=6|10=210|
8=FIX.4.4|9=110|35=A|34=1|49=045|50=045B17|52=20190725-23:49:40.954|56=EXC|43=N|98=0|108=30|141=Y|553=045FCM001|554=045FCM001|10=112|
8=FIX.4.4|9=0067|35=A|34=1|49=EXC|56=045|52=20190725-16:21:28.020|98=0|108=30|141=Y|10=009|
8=FIX.4.4|9=0049|35=0|34=2|49=EXC|56=045|52=20190725-16:21:58.000|10=180|
8=FIX.4.4|9=59|35=0|34=2|49=045|50=045B17|52=20190725-23:50:10.962|56=EXC|10=064|
8=FIX.4.4|9=0049|35=0|34=3|49=EXC|56=045|52=20190725-16:22:28.000|10=179|
8=FIX.4.4|9=59|35=0|34=3|49=045|50=045B17|52=20190725-23:50:40.953|56=EXC|10=068|
8=FIX.4.4|9=0049|35=0|34=4|49=EXC|56=045|52=20190725-16:22:58.000|10=183|
8=FIX.4.4|9=59|35=0|34=4|49=045|50=045B17|52=20190725-23:51:10.952|56=EXC|10=066|
8=FIX.4.4|9=0049|35=0|34=5|49=EXC|56=045|52=20190725-16:23:28.000|10=182|
8=FIX.4.4|9=59|35=0|34=5|49=045|50=045B17|52=20190725-23:51:40.956|56=EXC|10=074|
8=FIX.4.4|9=59|35=5|34=6|49=045|50=045B17|52=20190725-23:51:49.845|56=EXC|10=086|
8=FIX.4.4|9=0055|35=5|34=6|49=EXC|56=045|52=20190725-16:23:36.896|369=6|10=229|
8=FIX.4.4|9=110|35=A|34=1|49=045|50=045B17|52=20190726-21:04:16.006|56=EXC|43=N|98=0|108=30|141=Y|553=045FCM001|554=045FCM001|10=093|
8=FIX.4.4|9=0067|35=A|34=1|49=EXC|56=045|52=20190726-21:04:16.102|98=0|108=30|141=Y|10=005|
8=FIX.4.4|9=0049|35=0|34=2|49=EXC|56=045|52=20190726-21:04:46.000|10=175|
8=FIX.4.4|9=59|35=0|34=2|49=045|50=045B17|52=20190726-21:04:46.867|56=EXC|10=075|
8=FIX.4.4|9=0049|35=0|34=3|49=EXC|56=045|52=20190726-21:05:16.000|10=174|
8=FIX.4.4|9=59|35=0|34=3|49=045|50=045B17|52=20190726-21:05:16.867|56=EXC|10=074|
8=FIX.4.4|9=0049|35=0|34=4|49=EXC|56=045|52=20190726-21:05:46.000|10=178|
8=FIX.4.4|9=59|35=0|34=4|49=045|50=045B17|52=20190726-21:05:46.868|56=EXC|10=079|
8=FIX.4.4|9=0049|35=0|34=5|49=EXC|56=045|52=20190726-21:06:16.000|10=177|
8=FIX.4.4|9=59|35=0|34=5|49=045|50=045B17|52=20190726-21:06:16.868|56=EXC|10=078|
8=FIX.4.4|9=59|35=5|34=6|49=045|50=045B17|52=20190726-21:06:41.869|56=EXC|10=083|
8=FIX.4.4|9=0055|35=5|34=6|49=EXC|56=045|52=20190726-21:06:41.931|369=6|10=213|
8=FIX.4.4|9=110|35=A|34=1|49=045|50=045B17|52=20190726-21:18:27.672|56=EXC|43=N|98=0|108=30|141=Y|553=045FCM001|554=045FCM001|10=109|
8=FIX.4.4|9=0067|35=A|34=1|49=EXC|56=045|52=20190726-21:18:27.750|98=0|108=30|141=Y|10=021|
8=FIX.4.4|9=110|35=A|34=1|49=045|50=045B17|52=20190726-21:20:06.040|56=EXC|43=N|98=0|108=30|141=Y|553=045FCM001|554=045FCM001|10=088|
8=FIX.4.4|9=0067|35=A|34=1|49=EXC|56=045|52=20190726-21:20:06.120|98=0|108=30|141=Y|10=002|
8=FIX.4.4|9=0049|35=0|34=2|49=EXC|56=045|52=20190726-21:20:36.000|10=172|
8=FIX.4.4|9=59|35=0|34=2|49=045|50=045B17|52=20190726-21:20:37.005|56=EXC|10=057|
8=FIX.4.4|9=0049|35=0|34=3|49=EXC|56=045|52=20190726-21:21:06.000|10=171|
8=FIX.4.4|9=59|35=0|34=3|49=045|50=045B17|52=20190726-21:21:07.006|56=EXC|10=057|
8=FIX.4.4|9=0049|35=0|34=4|49=EXC|56=045|52=20190726-21:21:36.000|10=175|
8=FIX.4.4|9=59|35=0|34=4|49=045|50=045B17|52=20190726-21:21:37.005|56=EXC|10=060|
8=FIX.4.4|9=0049|35=0|34=5|49=EXC|56=045|52=20190726-21:22:06.000|10=174|
8=FIX.4.4|9=110|35=A|34=1|49=045|50=045B17|52=20190726-21:27:18.069|56=EXC|43=N|98=0|108=30|141=Y|553=045FCM001|554=045FCM001|10=109|
8=FIX.4.4|9=0067|35=A|34=1|49=EXC|56=045|52=20190726-21:27:18.147|98=0|108=30|141=Y|10=021|
8=FIX.4.4|9=0049|35=0|34=2|49=EXC|56=045|52=20190726-21:27:48.000|10=182|
8=FIX.4.4|9=59|35=0|34=2|49=045|50=045B17|52=20190726-21:27:49.058|56=EXC|10=075|
8=FIX.4.4|9=0049|35=0|34=3|49=EXC|56=045|52=20190726-21:28:18.000|10=181|
8=FIX.4.4|9=59|35=0|34=3|49=045|50=045B17|52=20190726-21:28:19.060|56=EXC|10=067|
8=FIX.4.4|9=0049|35=0|34=4|49=EXC|56=045|52=20190726-21:28:48.000|10=185|
8=FIX.4.4|9=59|35=0|34=4|49=045|50=045B17|52=20190726-21:28:49.058|56=EXC|10=078|
8=FIX.4.4|9=0049|35=0|34=5|49=EXC|56=045|52=20190726-21:29:18.000|10=184|
8=FIX.4.4|9=59|35=0|34=5|49=045|50=045B17|52=20190726-21:29:19.058|56=EXC|10=077|
8=FIX.4.4|9=59|35=5|34=6|49=045|50=045B17|52=20190726-21:29:42.058|56=EXC|10=079|
8=FIX.4.4|9=0055|35=5|34=6|49=EXC|56=045|52=20190726-21:29:42.120|369=6|10=209|
8=FIX.4.4|9=110|35=A|34=1|49=045|50=045B17|52=20190726-21:54:47.949|56=EXC|43=N|98=0|108=30|141=Y|553=045FCM001|554=045FCM001|10=118|
8=FIX.4.4|9=0067|35=A|34=1|49=EXC|56=045|52=20190726-14:39:48.029|98=0|108=30|141=Y|10=028|
8=FIX.4.4|9=0049|35=0|34=2|49=EXC|56=045|52=20190726-14:40:18.000|10=176|
8=FIX.4.4|9=59|35=0|34=2|49=045|50=045B17|52=20190726-21:55:17.951|56=EXC|10=073|
8=FIX.4.4|9=0049|35=0|34=3|49=EXC|56=045|52=20190726-14:40:48.000|10=180|
8=FIX.4.4|9=59|35=0|34=3|49=045|50=045B17|52=20190726-21:55:47.945|56=EXC|10=080|
8=FIX.4.4|9=0049|35=0|34=4|49=EXC|56=045|52=20190726-14:41:18.000|10=179|
8=FIX.4.4|9=59|35=0|34=4|49=045|50=045B17|52=20190726-21:56:17.944|56=EXC|10=078|
8=FIX.4.4|9=0049|35=0|34=5|49=EXC|56=045|52=20190726-14:41:48.000|10=183|
8=FIX.4.4|9=59|35=0|34=5|49=045|50=045B17|52=20190726-21:56:47.944|56=EXC|10=082|
8=FIX.4.4|9=59|35=5|34=6|49=045|50=045B17|52=20190726-21:57:13.928|56=EXC|10=084|
8=FIX.4.4|9=0055|35=5|34=6|49=EXC|56=045|52=20190726-14:42:13.993|369=6|10=222|
8=FIX.4.4|9=110|35=A|34=1|49=045|50=045B17|52=20190729-15:42:26.586|56=EXC|43=N|98=0|108=30|141=Y|553=045FCM001|554=045FCM001|10=115|
8=FIX.4.4|9=0067|35=A|34=1|49=EXC|56=045|52=20190729-15:42:26.618|98=0|108=30|141=Y|10=026|
8=FIX.4.4|9=0049|35=0|34=2|49=EXC|56=045|52=20190729-15:42:56.000|10=184|
8=FIX.4.4|9=59|35=0|34=2|49=045|50=045B17|52=20190729-15:42:57.576|56=EXC|10=082|
8=FIX.4.4|9=0049|35=0|34=3|49=EXC|56=045|52=20190729-15:43:26.000|10=183|
8=FIX.4.4|9=59|35=0|34=3|49=045|50=045B17|52=20190729-15:43:27.574|56=EXC|10=079|
8=FIX.4.4|9=0049|35=0|34=4|49=EXC|56=045|52=20190729-15:43:56.000|10=187|
8=FIX.4.4|9=59|35=0|34=4|49=045|50=045B17|52=20190729-15:43:57.575|56=EXC|10=084|
8=FIX.4.4|9=0049|35=0|34=5|49=EXC|56=045|52=20190729-15:44:26.000|10=186|
8=FIX.4.4|9=59|35=0|34=5|49=045|50=045B17|52=20190729-15:44:27.581|56=EXC|10=080|
8=FIX.4.4|9=0049|35=0|34=6|49=EXC|56=045|52=20190729-15:44:56.000|10=190|
8=FIX.4.4|9=59|35=0|34=6|49=045|50=045B17|52=20190729-15:44:57.576|56=EXC|10=088|
8=FIX.4.4|9=0049|35=0|34=7|49=EXC|56=045|52=20190729-15:45:26.000|10=189|
8=FIX.4.4|9=59|35=0|34=7|49=045|50=045B17|52=20190729-15:45:27.575|56=EXC|10=086|
8=FIX.4.4|9=0049|35=0|34=8|49=EXC|56=045|52=20190729-15:45:56.000|10=193|
8=FIX.4.4|9=59|35=0|34=8|49=045|50=045B17|52=20190729-15:45:57.577|56=EXC|10=092|
8=FIX.4.4|9=0049|35=0|34=9|49=EXC|56=045|52=20190729-15:46:26.000|10=192|
8=FIX.4.4|9=59|35=0|34=9|49=045|50=045B17|52=20190729-15:46:27.576|56=EXC|10=090|
8=FIX.4.4|9=110|35=A|34=1|49=045|50=045B17|52=20190729-16:09:21.032|56=EXC|43=N|98=0|108=30|141=Y|553=045FCM001|554=045FCM001|10=100|
8=FIX.4.4|9=0067|35=A|34=1|49=EXC|56=045|52=20190729-16:09:21.066|98=0|108=30|141=Y|10=022|
8=FIX.4.4|9=0049|35=0|34=2|49=EXC|56=045|52=20190729-16:09:51.000|10=183|
8=FIX.4.4|9=59|35=0|34=2|49=045|50=045B17|52=20190729-16:09:51.983|56=EXC|10=082|
8=FIX.4.4|9=0049|35=0|34=3|49=EXC|56=045|52=20190729-16:10:21.000|10=173|
8=FIX.4.4|9=59|35=0|34=3|49=045|50=045B17|52=20190729-16:10:21.982|56=EXC|10=071|
8=FIX.4.4|9=0049|35=0|34=4|49=EXC|56=045|52=20190729-16:10:51.000|10=177|
8=FIX.4.4|9=59|35=0|34=4|49=045|50=045B17|52=20190729-16:10:51.982|56=EXC|10=075|
8=FIX.4.4|9=0049|35=0|34=5|49=EXC|56=045|52=20190729-16:11:21.000|10=176|
8=FIX.4.4|9=59|35=0|34=5|49=045|50=045B17|52=20190729-16:11:21.983|56=EXC|10=075|
8=FIX.4.4|9=110|35=A|34=1|49=045|50=045B17|52=20190729-16:21:04.194|56=EXC|43=N|98=0|108=30|141=Y|553=045FCM001|554=045FCM001|10=104|
8=FIX.4.4|9=0067|35=A|34=1|49=EXC|56=045|52=20190729-16:21:04.228|98=0|108=30|141=Y|10=017|
8=FIX.4.4|9=0049|35=0|34=2|49=EXC|56=045|52=20190729-16:21:34.000|10=178|
8=FIX.4.4|9=59|35=0|34=2|49=045|50=045B17|52=20190729-16:21:35.143|56=EXC|10=066|
8=FIX.4.4|9=0049|35=0|34=3|49=EXC|56=045|52=20190729-16:22:04.000|10=177|
8=FIX.4.4|9=59|35=0|34=3|49=045|50=045B17|52=20190729-16:22:05.144|56=EXC|10=066|
8=FIX.4.4|9=0049|35=0|34=4|49=EXC|56=045|52=20190729-16:22:34.000|10=181|
8=FIX.4.4|9=59|35=0|34=4|49=045|50=045B17|52=20190729-16:22:35.143|56=EXC|10=069|
8=FIX.4.4|9=0049|35=0|34=5|49=EXC|56=045|52=20190729-16:23:04.000|10=180|
8=FIX.4.4|9=59|35=0|34=5|49=045|50=045B17|52=20190729-16:23:05.143|56=EXC|10=068|
8=FIX.4.4|9=0049|35=0|34=6|49=EXC|56=045|52=20190729-16:23:34.000|10=184|
8=FIX.4.4|9=59|35=0|34=6|49=045|50=045B17|52=20190729-16:23:35.143|56=EXC|10=072|
8=FIX.4.4|9=0049|35=0|34=7|49=EXC|56=045|52=20190729-16:24:04.000|10=183|
8=FIX.4.4|9=59|35=0|34=7|49=045|50=045B17|52=20190729-16:24:05.143|56=EXC|10=071|
8=FIX.4.4|9=0049|35=0|34=8|49=EXC|56=045|52=20190729-16:24:34.000|10=187|
8=FIX.4.4|9=59|35=0|34=8|49=045|50=045B17|52=20190729-16:24:35.143|56=EXC|10=075|
8=FIX.4.4|9=0049|35=0|34=9|49=EXC|56=045|52=20190729-16:25:04.000|10=186|
8=FIX.4.4|9=59|35=0|34=9|49=045|50=045B17|52=20190729-16:25:05.144|56=EXC|10=075|
8=FIX.4.4|9=0050|35=0|34=10|49=EXC|56=045|52=20190729-16:25:34.000|10=221|
8=FIX.4.4|9=60|35=0|34=10|49=045|50=045B17|52=20190729-16:25:35.142|56=EXC|10=108|
8=FIX.4.4|9=0050|35=0|34=11|49=EXC|56=045|52=20190729-16:26:04.000|10=220|
8=FIX.4.4|9=60|35=0|34=11|49=045|50=045B17|52=20190729-16:26:05.143|56=EXC|10=108|
8=FIX.4.4|9=0050|35=0|34=12|49=EXC|56=045|52=20190729-16:26:34.000|10=224|
8=FIX.4.4|9=60|35=0|34=12|49=045|50=045B17|52=20190729-16:26:35.142|56=EXC|10=111|
8=FIX.4.4|9=0050|35=0|34=13|49=EXC|56=045|52=20190729-16:27:04.000|10=223|
8=FIX.4.4|9=60|35=0|34=13|49=045|50=045B17|52=20190729-16:27:05.143|56=EXC|10=111|
8=FIX.4.4|9=0050|35=0|34=14|49=EXC|56=045|52=20190729-16:27:34.000|10=227|
8=FIX.4.4|9=60|35=0|34=14|49=045|50=045B17|52=20190729-16:27:35.143|56=EXC|10=115|
8=FIX.4.4|9=0050|35=0|34=15|49=EXC|56=045|52=20190729-16:28:04.000|10=226|
8=FIX.4.4|9=60|35=0|34=15|49=045|50=045B17|52=20190729-16:28:05.143|56=EXC|10=114|
8=FIX.4.4|9=0050|35=0|34=16|49=EXC|56=045|52=20190729-16:28:34.000|10=230|
8=FIX.4.4|9=60|35=0|34=16|49=045|50=045B17|52=20190729-16:28:35.144|56=EXC|10=119|
8=FIX.4.4|9=0050|35=0|34=17|49=EXC|56=045|52=20190729-16:29:04.000|10=229|
8=FIX.4.4|9=60|35=0|34=17|49=045|50=045B17|52=20190729-16:29:05.144|56=EXC|10=118|
8=FIX.4.4|9=0050|35=0|34=18|49=EXC|56=045|52=20190729-16:29:34.000|10=233|
8=FIX.4.4|9=60|35=0|34=18|49=045|50=045B17|52=20190729-16:29:35.145|56=EXC|10=123|
8=FIX.4.4|9=0050|35=0|34=19|49=EXC|56=045|52=20190729-16:30:04.000|10=223|
8=FIX.4.4|9=60|35=0|34=19|49=045|50=045B17|52=20190729-16:30:05.145|56=EXC|10=113|
8=FIX.4.4|9=110|35=A|34=1|49=045|50=045B17|52=20190729-19:37:21.765|56=EXC|43=N|98=0|108=30|141=Y|553=045FCM001|554=045FCM001|10=117|
8=FIX.4.4|9=0067|35=A|34=1|49=EXC|56=045|52=20190729-19:37:21.805|98=0|108=30|141=Y|10=027|
8=FIX.4.4|9=0049|35=0|34=2|49=EXC|56=045|52=20190729-19:37:51.000|10=187|
8=FIX.4.4|9=59|35=0|34=2|49=045|50=045B17|52=20190729-19:37:52.731|56=EXC|10=078|
8=FIX.4.4|9=59|35=5|34=3|49=045|50=045B17|52=20190729-19:38:15.728|56=EXC|10=090|
8=FIX.4.4|9=0055|35=5|34=3|49=EXC|56=045|52=20190729-19:38:15.754|369=3|10=226|
8=FIX.4.4|9=110|35=A|34=1|49=045|50=045B17|52=20190729-20:08:54.367|56=EXC|43=N|98=0|108=30|141=Y|553=045FCM001|554=045FCM001|10=111|
8=FIX.4.4|9=0067|35=A|34=1|49=EXC|56=045|52=20190729-20:08:54.427|98=0|108=30|141=Y|10=023|
8=FIX.4.4|9=0049|35=0|34=2|49=EXC|56=045|52=20190729-20:09:24.000|10=178|
8=FIX.4.4|9=59|35=0|34=2|49=045|50=045B17|52=20190729-20:09:25.303|56=EXC|10=064|
8=FIX.4.4|9=0049|35=0|34=3|49=EXC|56=045|52=20190729-20:09:54.000|10=182|
8=FIX.4.4|9=59|35=0|34=3|49=045|50=045B17|52=20190729-20:09:55.308|56=EXC|10=073|
8=FIX.4.4|9=59|35=5|34=4|49=045|50=045B17|52=20190729-20:10:11.301|56=EXC|10=056|
8=FIX.4.4|9=0055|35=5|34=4|49=EXC|56=045|52=20190729-20:10:11.345|369=4|10=202|
8=FIX.4.4|9=110|35=A|34=1|49=045|50=045B17|52=20190729-20:31:38.420|56=EXC|43=N|98=0|108=30|141=Y|553=045FCM001|554=045FCM001|10=099|
8=FIX.4.4|9=0067|35=A|34=1|49=EXC|56=045|52=20190729-20:31:38.492|98=0|108=30|141=Y|10=023|
8=FIX.4.4|9=0049|35=0|34=2|49=EXC|56=045|52=20190729-20:32:08.000|10=176|
8=FIX.4.4|9=59|35=0|34=2|49=045|50=045B17|52=20190729-20:32:09.387|56=EXC|10=074|
8=FIX.4.4|9=0049|35=0|34=3|49=EXC|56=045|52=20190729-20:32:38.000|10=180|
8=FIX.4.4|9=59|35=0|34=3|49=045|50=045B17|52=20190729-20:32:39.381|56=EXC|10=072|
8=FIX.4.4|9=0049|35=0|34=4|49=EXC|56=045|52=20190729-20:33:08.000|10=179|
8=FIX.4.4|9=59|35=0|34=4|49=045|50=045B17|52=20190729-20:33:09.378|56=EXC|10=077|
8=FIX.4.4|9=59|35=5|34=5|49=045|50=045B17|52=20190729-20:33:11.379|56=EXC|10=077|
8=FIX.4.4|9=0055|35=5|34=5|49=EXC|56=045|52=20190729-20:33:11.429|369=5|10=212|
8=FIX.4.4|9=110|35=A|34=1|49=045|50=045B17|52=20190729-21:33:22.413|56=EXC|43=N|98=0|108=30|141=Y|553=045FCM001|554=045FCM001|10=097|
8=FIX.4.4|9=0067|35=A|34=1|49=EXC|56=045|52=20190729-21:34:07.783|98=0|108=30|141=Y|10=026|
8=FIX.4.4|9=0049|35=0|34=2|49=EXC|56=045|52=20190729-21:34:37.000|10=181|
8=FIX.4.4|9=59|35=5|34=2|49=045|50=045B17|52=20190729-21:33:53.394|56=EXC|10=078|
8=FIX.4.4|9=0055|35=5|34=3|49=EXC|56=045|52=20190729-21:34:38.741|369=2|10=215|
