8=FIX.4.4|9=110|35=A|34=1|49=037|50=037B18|52=20190718-20:57:47.369|56=EXC|43=N|98=0|108=30|141=Y|553=037FCM001|554=037FCM001|10=122|
8=FIX.4.4|9=0067|35=A|34=1|49=EXC|56=037|52=20190718-20:57:47.419|98=0|108=30|141=Y|10=029|
8=FIX.4.4|9=0348|35=AE|34=2|49=EXC|56=037|57=037B18|52=20190718-20:57:54.519|571=2S1|487=0|856=14|17=4|829=99|573=0|15=COP|880=201907180000000002|75=20190718|55=T24U19F|762=AFIR|48=27227|22=M|31=1000.000|32=100|381=250000000000.000|60=20190718-20:57:54.519|64=20190718|552=1|54=2|453=3|448=037B18|447=C|452=12|448=037|447=C|452=1|448=037FCM001|447=C|452=36|1=RT001|10=176|
8=FIX.4.4|9=59|35=0|34=2|49=037|50=037B18|52=20190718-20:58:18.343|56=EXC|10=075|
8=FIX.4.4|9=0049|35=0|34=3|49=EXC|56=037|52=20190718-20:58:24.000|10=182|
8=FIX.4.4|9=59|35=0|34=3|49=037|50=037B18|52=20190718-20:58:48.343|56=EXC|10=079|
8=FIX.4.4|9=0049|35=0|34=4|49=EXC|56=037|52=20190718-20:58:54.000|10=186|
8=FIX.4.4|9=110|35=A|34=1|49=037|50=037B18|52=20190718-21:12:11.259|56=EXC|43=N|98=0|108=30|141=Y|553=037FCM001|554=037FCM001|10=103|
8=FIX.4.4|9=0067|35=A|34=1|49=EXC|56=037|52=20190718-21:12:11.326|98=0|108=30|141=Y|10=009|
8=FIX.4.4|9=0049|35=0|34=2|49=EXC|56=037|52=20190718-21:12:41.000|10=171|
8=FIX.4.4|9=59|35=0|34=2|49=037|50=037B18|52=20190718-21:12:42.234|56=EXC|10=062|
8=FIX.4.4|9=0049|35=0|34=3|49=EXC|56=037|52=20190718-21:13:11.000|10=170|
8=FIX.4.4|9=59|35=0|34=3|49=037|50=037B18|52=20190718-21:13:12.235|56=EXC|10=062|
8=FIX.4.4|9=0049|35=0|34=4|49=EXC|56=037|52=20190718-21:13:41.000|10=174|
8=FIX.4.4|9=59|35=0|34=4|49=037|50=037B18|52=20190718-21:13:42.234|56=EXC|10=065|
8=FIX.4.4|9=110|35=A|34=1|49=037|50=037B18|52=20190718-22:18:19.562|56=EXC|43=N|98=0|108=30|141=Y|553=037FCM001|554=037FCM001|10=115|
8=FIX.4.4|9=0067|35=A|34=1|49=EXC|56=037|52=20190718-14:42:18.626|98=0|108=30|141=Y|10=024|
8=FIX.4.4|9=0346|35=AE|34=2|49=EXC|56=037|57=037B18|52=20190718-14:42:25.731|571=1S1|487=0|856=14|17=2|829=99|573=0|15=COP|880=201907180000000001|75=20190718|55=T24U19F|762=AFIR|48=27227|22=M|31=120.000|32=100|381=30000000000.000|60=20190718-14:42:25.731|64=20190718|552=1|54=2|453=3|448=037B18|447=C|452=12|448=037|447=C|452=1|448=037FCM001|447=C|452=36|1=RT001|10=054|
8=FIX.4.4|9=59|35=0|34=2|49=037|50=037B18|52=20190718-22:18:49.555|56=EXC|10=082|
8=FIX.4.4|9=0049|35=0|34=3|49=EXC|56=037|52=20190718-14:42:55.000|10=182|
8=FIX.4.4|9=110|35=A|34=1|49=037|50=037B18|52=20190718-22:35:57.058|56=EXC|43=N|98=0|108=30|141=Y|553=037FCM001|554=037FCM001|10=116|
8=FIX.4.4|9=0067|35=A|34=1|49=EXC|56=037|52=20190718-14:59:56.128|98=0|108=30|141=Y|10=031|
8=FIX.4.4|9=0346|35=AE|34=2|49=EXC|56=037|57=037B18|52=20190718-15:00:03.231|571=2S1|487=0|856=14|17=4|829=99|573=0|15=COP|880=201907180000000002|75=20190718|55=T24U19F|762=AFIR|48=27227|22=M|31=120.000|32=100|381=30000000000.000|60=20190718-15:00:03.231|64=20190718|552=1|54=2|453=3|448=037B18|447=C|452=12|448=037|447=C|452=1|448=037FCM001|447=C|452=36|1=RT001|10=030|
8=FIX.4.4|9=59|35=0|34=2|49=037|50=037B18|52=20190718-22:36:27.051|56=EXC|10=069|
8=FIX.4.4|9=0049|35=0|34=3|49=EXC|56=037|52=20190718-15:00:33.000|10=173|
8=FIX.4.4|9=59|35=0|34=3|49=037|50=037B18|52=20190718-22:36:57.043|56=EXC|10=074|
8=FIX.4.4|9=110|35=A|34=1|49=037|50=037B18|52=20190718-22:44:50.409|56=EXC|43=N|98=0|108=30|141=Y|553=037FCM001|554=037FCM001|10=109|
8=FIX.4.4|9=0067|35=A|34=1|49=EXC|56=037|52=20190718-15:08:49.478|98=0|108=30|141=Y|10=036|
8=FIX.4.4|9=0346|35=AE|34=2|49=EXC|56=037|57=037B18|52=20190718-15:08:56.581|571=3S1|487=0|856=14|17=6|829=99|573=0|15=COP|880=201907180000000003|75=20190718|55=T24U19F|762=AFIR|48=27227|22=M|31=120.000|32=100|381=30000000000.000|60=20190718-15:08:56.581|64=20190718|552=1|54=2|453=3|448=037B18|447=C|452=12|448=037|447=C|452=1|448=037FCM001|447=C|452=36|1=RT001|10=082|
8=FIX.4.4|9=59|35=0|34=2|49=037|50=037B18|52=20190718-22:45:20.409|56=EXC|10=069|
8=FIX.4.4|9=0049|35=0|34=3|49=EXC|56=037|52=20190718-15:09:26.000|10=184|
8=FIX.4.4|9=110|35=A|34=1|49=037|50=037B18|52=20190718-22:46:55.023|56=EXC|43=N|98=0|108=30|141=Y|553=037FCM001|554=037FCM001|10=108|
8=FIX.4.4|9=0067|35=A|34=1|49=EXC|56=037|52=20190718-15:10:54.103|98=0|108=30|141=Y|10=010|
8=FIX.4.4|9=59|35=5|34=2|49=037|50=037B18|52=20190718-22:47:18.013|56=EXC|10=074|
8=FIX.4.4|9=0055|35=5|34=2|49=EXC|56=037|52=20190718-15:11:17.068|369=2|10=210|
8=FIX.4.4|9=110|35=A|34=1|49=037|50=037B18|52=20190718-22:49:25.568|56=EXC|43=N|98=0|108=30|141=Y|553=037FCM001|554=037FCM001|10=122|
8=FIX.4.4|9=0067|35=A|34=1|49=EXC|56=037|52=20190718-15:13:24.637|98=0|108=30|141=Y|10=022|
8=FIX.4.4|9=0346|35=AE|34=2|49=EXC|56=037|57=037B18|52=20190718-15:13:31.744|571=4S1|487=0|856=14|17=8|829=99|573=0|15=COP|880=201907180000000004|75=20190718|55=T24U19F|762=AFIR|48=27227|22=M|31=120.000|32=100|381=30000000000.000|60=20190718-15:13:31.744|64=20190718|552=1|54=2|453=3|448=037B18|447=C|452=12|448=037|447=C|452=1|448=037FCM001|447=C|452=36|1=RT001|10=066|
8=FIX.4.4|9=110|35=A|34=1|49=037|50=037B18|52=20190718-22:59:06.262|56=EXC|43=N|98=0|108=30|141=Y|553=037FCM001|554=037FCM001|10=113|
8=FIX.4.4|9=0067|35=A|34=1|49=EXC|56=037|52=20190718-15:23:05.340|98=0|108=30|141=Y|10=013|
8=FIX.4.4|9=0347|35=AE|34=2|49=EXC|56=037|57=037B18|52=20190718-15:23:12.429|571=5S1|487=0|856=14|17=10|829=99|573=0|15=COP|880=201907180000000005|75=20190718|55=T24U19F|762=AFIR|48=27227|22=M|31=120.000|32=100|381=30000000000.000|60=20190718-15:23:12.429|64=20190718|552=1|54=2|453=3|448=037B18|447=C|452=12|448=037|447=C|452=1|448=037FCM001|447=C|452=36|1=RT001|10=110|
8=FIX.4.4|9=188|35=AE|34=2|49=037|50=037B18|52=20190718-22:59:29.204|56=EXC|31=120|32=100|55=T24U19F|60=20190718-15:14:31.916|487=2|571=20190718175905_AE|762=AFIR|856=97|880=201907180000000005|552=1|54=2|10=192|
8=FIX.4.4|9=0347|35=AE|34=3|49=EXC|56=037|57=037B18|52=20190718-15:23:28.263|571=5S1|487=2|856=99|17=11|829=99|573=0|15=COP|880=201907180000000005|75=20190718|55=T24U19F|762=AFIR|48=27227|22=M|31=120.000|32=100|381=30000000000.000|60=20190718-15:23:28.263|64=20190718|552=1|54=2|453=3|448=037B18|447=C|452=12|448=037|447=C|452=1|448=037FCM001|447=C|452=36|1=RT001|10=133|
8=FIX.4.4|9=59|35=5|34=3|49=037|50=037B18|52=20190718-22:59:49.800|56=EXC|10=086|
8=FIX.4.4|9=0055|35=5|34=4|49=EXC|56=037|52=20190718-15:23:48.860|369=3|10=220|
8=FIX.4.4|9=110|35=A|34=1|49=037|50=037B18|52=20190718-23:14:21.237|56=EXC|43=N|98=0|108=30|141=Y|553=037FCM001|554=037FCM001|10=104|
8=FIX.4.4|9=0067|35=A|34=1|49=EXC|56=037|52=20190718-15:38:20.327|98=0|108=30|141=Y|10=021|
8=FIX.4.4|9=0347|35=AE|34=2|49=EXC|56=037|57=037B18|52=20190718-15:38:27.772|571=6S1|487=0|856=14|17=13|829=99|573=0|15=COP|880=201907180000000006|75=20190718|55=T24U19F|762=AFIR|48=27227|22=M|31=120.000|32=100|381=30000000000.000|60=20190718-15:38:27.772|64=20190718|552=1|54=2|453=3|448=037B18|447=C|452=12|448=037|447=C|452=1|448=037FCM001|447=C|452=36|1=RT001|10=141|
8=FIX.4.4|9=188|35=AE|34=2|49=037|50=037B18|52=20190718-23:14:44.659|56=EXC|31=120|32=100|55=T24U19F|60=20190718-15:30:00.186|487=2|571=20190718181418_AE|762=AFIR|856=97|880=201907180000000006|552=1|54=2|10=185|
8=FIX.4.4|9=0347|35=AE|34=3|49=EXC|56=037|57=037B18|52=20190718-15:38:43.706|571=6S1|487=2|856=99|17=14|829=99|573=0|15=COP|880=201907180000000006|75=20190718|55=T24U19F|762=AFIR|48=27227|22=M|31=120.000|32=100|381=30000000000.000|60=20190718-15:38:43.706|64=20190718|552=1|54=2|453=3|448=037B18|447=C|452=12|448=037|447=C|452=1|448=037FCM001|447=C|452=36|1=RT001|10=148|
8=FIX.4.4|9=0458|35=8|34=4|49=EXC|56=037|57=037B18|52=20190718-15:38:56.098|11=156349115856922|17=15|37=0|150=H|1080=20190718-000000000012.00|1081=6|453=5|448=037B18|447=C|452=12|448=037|447=C|452=1|448=029B17|447=C|452=37|448=029|447=C|452=17|448=037FCM001|447=C|452=36|55=T24U19F|762=AFIR|48=27227|22=M|6=120.000|14=100|31=120.000|32=100|38=100|39=2|54=2|60=20190718-15:38:56.098|75=20190718|63=1|64=20190718|151=0|1=RT001|381=30000000000.000|880=201907180000000006|828=99|10=149|
8=FIX.4.4|9=59|35=5|34=3|49=037|50=037B18|52=20190718-23:15:05.360|56=EXC|10=072|
8=FIX.4.4|9=0055|35=5|34=5|49=EXC|56=037|52=20190718-15:39:04.406|369=3|10=216|
8=FIX.4.4|9=110|35=A|34=1|49=037|50=037B18|52=20190718-23:25:09.353|56=EXC|43=N|98=0|108=30|141=Y|553=037FCM001|554=037FCM001|10=111|
8=FIX.4.4|9=0067|35=A|34=1|49=EXC|56=037|52=20190718-15:49:08.420|98=0|108=30|141=Y|10=023|
8=FIX.4.4|9=0347|35=AE|34=2|49=EXC|56=037|57=037B18|52=20190718-15:49:15.508|571=7S1|487=0|856=14|17=17|829=99|573=0|15=COP|880=201907180000000007|75=20190718|55=T24U19F|762=AFIR|48=27227|22=M|31=120.000|32=100|381=30000000000.000|60=20190718-15:49:15.508|64=20190718|552=1|54=2|453=3|448=037B18|447=C|452=12|448=037|447=C|452=1|448=037FCM001|447=C|452=36|1=RT001|10=139|
8=FIX.4.4|9=188|35=AE|34=2|49=037|50=037B18|52=20190718-23:25:32.302|56=EXC|31=120|32=100|55=T24U19F|60=20190718-15:44:19.446|487=2|571=20190718182508_AE|762=AFIR|856=97|880=201907180000000007|552=1|54=2|10=185|
8=FIX.4.4|9=0347|35=AE|34=3|49=EXC|56=037|57=037B18|52=20190718-15:49:31.343|571=7S1|487=2|856=99|17=18|829=99|573=0|15=COP|880=201907180000000007|75=20190718|55=T24U19F|762=AFIR|48=27227|22=M|31=120.000|32=100|381=30000000000.000|60=20190718-15:49:31.343|64=20190718|552=1|54=2|453=3|448=037B18|447=C|452=12|448=037|447=C|452=1|448=037FCM001|447=C|452=36|1=RT001|10=146|
8=FIX.4.4|9=0458|35=8|34=4|49=EXC|56=037|57=037B18|52=20190718-15:49:43.433|11=156349201833123|17=19|37=0|150=H|1080=20190718-000000000013.00|1081=6|453=5|448=037B18|447=C|452=12|448=037|447=C|452=1|448=029B17|447=C|452=37|448=029|447=C|452=17|448=037FCM001|447=C|452=36|55=T24U19F|762=AFIR|48=27227|22=M|6=120.000|14=100|31=120.000|32=100|38=100|39=2|54=2|60=20190718-15:49:43.433|75=20190718|63=1|64=20190718|151=0|1=RT001|381=30000000000.000|880=201907180000000007|828=99|10=121|
8=FIX.4.4|9=59|35=5|34=3|49=037|50=037B18|52=20190718-23:25:52.923|56=EXC|10=080|
8=FIX.4.4|9=0055|35=5|34=5|49=EXC|56=037|52=20190718-15:49:51.965|369=3|10=229|
