8=FIX.4.4|9=110|35=A|34=1|49=045|50=045B17|52=20190718-20:57:47.394|56=EXC|43=N|98=0|108=30|141=Y|553=045FCM001|554=045FCM001|10=115|
8=FIX.4.4|9=0067|35=A|34=1|49=EXC|56=045|52=20190718-20:57:47.444|98=0|108=30|141=Y|10=026|
8=FIX.4.4|9=0049|35=0|34=2|49=EXC|56=045|52=20190718-20:58:17.000|10=182|
8=FIX.4.4|9=59|35=0|34=2|49=045|50=045B17|52=20190718-20:58:18.365|56=EXC|10=076|
8=FIX.4.4|9=0049|35=0|34=3|49=EXC|56=045|52=20190718-20:58:47.000|10=186|
8=FIX.4.4|9=59|35=0|34=3|49=045|50=045B17|52=20190718-20:58:48.365|56=EXC|10=080|
8=FIX.4.4|9=0049|35=0|34=4|49=EXC|56=045|52=20190718-20:59:17.000|10=185|
8=FIX.4.4|9=110|35=A|34=1|49=045|50=045B17|52=20190718-21:12:11.289|56=EXC|43=N|98=0|108=30|141=Y|553=045FCM001|554=045FCM001|10=101|
8=FIX.4.4|9=0067|35=A|34=1|49=EXC|56=045|52=20190718-21:12:11.356|98=0|108=30|141=Y|10=011|
8=FIX.4.4|9=0049|35=0|34=2|49=EXC|56=045|52=20190718-21:12:41.000|10=170|
8=FIX.4.4|9=59|35=0|34=2|49=045|50=045B17|52=20190718-21:12:42.255|56=EXC|10=062|
8=FIX.4.4|9=0049|35=0|34=3|49=EXC|56=045|52=20190718-21:13:11.000|10=169|
8=FIX.4.4|9=59|35=0|34=3|49=045|50=045B17|52=20190718-21:13:12.255|56=EXC|10=061|
8=FIX.4.4|9=0049|35=0|34=4|49=EXC|56=045|52=20190718-21:13:41.000|10=173|
8=FIX.4.4|9=59|35=0|34=4|49=045|50=045B17|52=20190718-21:13:42.255|56=EXC|10=065|
8=FIX.4.4|9=110|35=A|34=1|49=045|50=045B17|52=20190718-22:18:19.590|56=EXC|43=N|98=0|108=30|141=Y|553=045FCM001|554=045FCM001|10=111|
8=FIX.4.4|9=0067|35=A|34=1|49=EXC|56=045|52=20190718-14:42:18.655|98=0|108=30|141=Y|10=025|
8=FIX.4.4|9=0049|35=0|34=2|49=EXC|56=045|52=20190718-14:42:48.000|10=182|
8=FIX.4.4|9=59|35=0|34=2|49=045|50=045B17|52=20190718-22:18:49.581|56=EXC|10=078|
8=FIX.4.4|9=110|35=A|34=1|49=045|50=045B17|52=20190718-22:35:57.086|56=EXC|43=N|98=0|108=30|141=Y|553=045FCM001|554=045FCM001|10=112|
8=FIX.4.4|9=0067|35=A|34=1|49=EXC|56=045|52=20190718-14:59:56.157|98=0|108=30|141=Y|10=032|
8=FIX.4.4|9=0049|35=0|34=2|49=EXC|56=045|52=20190718-15:00:26.000|10=173|
8=FIX.4.4|9=59|35=0|34=2|49=045|50=045B17|52=20190718-22:36:28.059|56=EXC|10=075|
8=FIX.4.4|9=0049|35=0|34=3|49=EXC|56=045|52=20190718-15:00:56.000|10=177|
8=FIX.4.4|9=59|35=0|34=3|49=045|50=045B17|52=20190718-22:36:58.060|56=EXC|10=071|
8=FIX.4.4|9=110|35=A|34=1|49=045|50=045B17|52=20190718-22:44:50.433|56=EXC|43=N|98=0|108=30|141=Y|553=045FCM001|554=045FCM001|10=101|
8=FIX.4.4|9=0067|35=A|34=1|49=EXC|56=045|52=20190718-15:08:49.503|98=0|108=30|141=Y|10=024|
8=FIX.4.4|9=0049|35=0|34=2|49=EXC|56=045|52=20190718-15:09:19.000|10=184|
8=FIX.4.4|9=59|35=0|34=2|49=045|50=045B17|52=20190718-22:45:20.425|56=EXC|10=064|
8=FIX.4.4|9=110|35=A|34=1|49=045|50=045B17|52=20190718-22:46:55.054|56=EXC|43=N|98=0|108=30|141=Y|553=045FCM001|554=045FCM001|10=107|
8=FIX.4.4|9=0067|35=A|34=1|49=EXC|56=045|52=20190718-15:10:54.139|98=0|108=30|141=Y|10=018|
8=FIX.4.4|9=59|35=5|34=2|49=045|50=045B17|52=20190718-22:47:18.035|56=EXC|10=075|
8=FIX.4.4|9=0055|35=5|34=2|49=EXC|56=045|52=20190718-15:11:17.089|369=2|10=212|
8=FIX.4.4|9=110|35=A|34=1|49=045|50=045B17|52=20190718-22:49:25.593|56=EXC|43=N|98=0|108=30|141=Y|553=045FCM001|554=045FCM001|10=115|
8=FIX.4.4|9=0067|35=A|34=1|49=EXC|56=045|52=20190718-15:13:24.661|98=0|108=30|141=Y|10=018|
8=FIX.4.4|9=110|35=A|34=1|49=045|50=045B17|52=20190718-22:59:06.293|56=EXC|43=N|98=0|108=30|141=Y|553=045FCM001|554=045FCM001|10=112|
8=FIX.4.4|9=0067|35=A|34=1|49=EXC|56=045|52=20190718-15:23:05.367|98=0|108=30|141=Y|10=021|
8=FIX.4.4|9=0049|35=0|34=2|49=EXC|56=045|52=20190718-15:23:35.000|10=178|
8=FIX.4.4|9=59|35=0|34=2|49=045|50=045B17|52=20190718-22:59:37.274|56=EXC|10=079|
8=FIX.4.4|9=59|35=5|34=3|49=045|50=045B17|52=20190718-22:59:50.284|56=EXC|10=081|
8=FIX.4.4|9=0055|35=5|34=3|49=EXC|56=045|52=20190718-15:23:49.338|369=3|10=219|
8=FIX.4.4|9=110|35=A|34=1|49=045|50=045B17|52=20190718-23:14:21.292|56=EXC|43=N|98=0|108=30|141=Y|553=045FCM001|554=045FCM001|10=100|
8=FIX.4.4|9=0067|35=A|34=1|49=EXC|56=045|52=20190718-15:38:20.367|98=0|108=30|141=Y|10=024|
8=FIX.4.4|9=0049|35=0|34=2|49=EXC|56=045|52=20190718-15:38:50.000|10=181|
8=FIX.4.4|9=59|35=0|34=2|49=045|50=045B17|52=20190718-23:14:52.183|56=EXC|10=067|
8=FIX.4.4|9=59|35=5|34=3|49=045|50=045B17|52=20190718-23:15:06.184|56=EXC|10=074|
8=FIX.4.4|9=0055|35=5|34=3|49=EXC|56=045|52=20190718-15:39:05.231|369=3|10=210|
8=FIX.4.4|9=110|35=A|34=1|49=045|50=045B17|52=20190718-23:25:09.388|56=EXC|43=N|98=0|108=30|141=Y|553=045FCM001|554=045FCM001|10=114|
8=FIX.4.4|9=0067|35=A|34=1|49=EXC|56=045|52=20190718-15:49:08.449|98=0|108=30|141=Y|10=033|
8=FIX.4.4|9=0049|35=0|34=2|49=EXC|56=045|52=20190718-15:49:38.000|10=189|
8=FIX.4.4|9=59|35=0|34=2|49=045|50=045B17|52=20190718-23:25:40.365|56=EXC|10=068|
8=FIX.4.4|9=59|35=5|34=3|49=045|50=045B17|52=20190718-23:25:53.365|56=EXC|10=078|
8=FIX.4.4|9=0055|35=5|34=3|49=EXC|56=045|52=20190718-15:49:52.407|369=3|10=218|
8=FIX.4.4|9=110|35=A|34=1|49=045|50=045B17|52=20190719-15:27:44.329|56=EXC|43=N|98=0|108=30|141=Y|553=045FCM001|554=045FCM001|10=112|
8=FIX.4.4|9=0067|35=A|34=1|49=EXC|56=045|52=20190719-15:27:44.370|98=0|108=30|141=Y|10=023|
8=FIX.4.4|9=59|35=5|34=2|49=045|50=045B17|52=20190719-15:28:11.317|56=EXC|10=073|
8=FIX.4.4|9=0055|35=5|34=2|49=EXC|56=045|52=20190719-15:28:11.334|369=2|10=208|
8=FIX.4.4|9=110|35=A|34=1|49=045|50=045B17|52=20190719-15:59:22.383|56=EXC|43=N|98=0|108=30|141=Y|553=045FCM001|554=045FCM001|10=113|
8=FIX.4.4|9=0067|35=A|34=1|49=EXC|56=045|52=20190719-15:59:22.424|98=0|108=30|141=Y|10=024|
8=FIX.4.4|9=0049|35=0|34=2|49=EXC|56=045|52=20190719-15:59:52.000|10=187|
8=FIX.4.4|9=59|35=0|34=2|49=045|50=045B17|52=20190719-15:59:53.372|56=EXC|10=079|
8=FIX.4.4|9=59|35=5|34=3|49=045|50=045B17|52=20190719-15:59:56.361|56=EXC|10=086|
8=FIX.4.4|9=0055|35=5|34=3|49=EXC|56=045|52=20190719-15:59:56.382|369=3|10=226|
8=FIX.4.4|9=110|35=A|34=1|49=045|50=045B17|52=20190719-19:27:59.361|56=EXC|43=N|98=0|108=30|141=Y|553=045FCM001|554=045FCM001|10=118|
8=FIX.4.4|9=0067|35=A|34=1|49=EXC|56=045|52=20190719-19:27:59.411|98=0|108=30|141=Y|10=029|
8=FIX.4.4|9=0049|35=0|34=2|49=EXC|56=045|52=20190719-19:28:29.000|10=191|
8=FIX.4.4|9=59|35=0|34=2|49=045|50=045B17|52=20190719-19:28:30.255|56=EXC|10=074|
8=FIX.4.4|9=59|35=5|34=3|49=045|50=045B17|52=20190719-19:28:33.254|56=EXC|10=082|
8=FIX.4.4|9=0055|35=5|34=3|49=EXC|56=045|52=20190719-19:28:33.282|369=3|10=220|
8=FIX.4.4|9=110|35=A|34=1|49=045|50=045B17|52=20190719-19:30:25.148|56=EXC|43=N|98=0|108=30|141=Y|553=045FCM001|554=045FCM001|10=108|
8=FIX.4.4|9=0067|35=A|34=1|49=EXC|56=045|52=20190719-19:30:25.185|98=0|108=30|141=Y|10=024|
8=FIX.4.4|9=59|35=5|34=2|49=045|50=045B17|52=20190719-19:30:53.132|56=EXC|10=071|
8=FIX.4.4|9=0055|35=5|34=2|49=EXC|56=045|52=20190719-19:30:53.158|369=2|10=215|
8=FIX.4.4|9=110|35=A|34=1|49=045|50=045B17|52=20190719-20:12:25.068|56=EXC|43=N|98=0|108=30|141=Y|553=045FCM001|554=045FCM001|10=101|
8=FIX.4.4|9=0067|35=A|34=1|49=EXC|56=045|52=20190719-20:12:25.111|98=0|108=30|141=Y|10=005|
8=FIX.4.4|9=0049|35=0|34=2|49=EXC|56=045|52=20190719-20:12:55.000|10=175|
8=FIX.4.4|9=59|35=0|34=2|49=045|50=045B17|52=20190719-20:12:56.041|56=EXC|10=060|
8=FIX.4.4|9=59|35=5|34=3|49=045|50=045B17|52=20190719-20:12:59.042|56=EXC|10=070|
8=FIX.4.4|9=0055|35=5|34=3|49=EXC|56=045|52=20190719-20:12:59.074|369=3|10=212|
8=FIX.4.4|9=110|35=A|34=1|49=045|50=045B17|52=20190719-20:34:37.753|56=EXC|43=N|98=0|108=30|141=Y|553=045FCM001|554=045FCM001|10=109|
8=FIX.4.4|9=0067|35=A|34=1|49=EXC|56=045|52=20190719-20:34:37.798|98=0|108=30|141=Y|10=033|
8=FIX.4.4|9=0049|35=0|34=2|49=EXC|56=045|52=20190719-20:35:07.000|10=177|
8=FIX.4.4|9=59|35=5|34=2|49=045|50=045B17|52=20190719-20:35:06.986|56=EXC|10=083|
8=FIX.4.4|9=0055|35=5|34=3|49=EXC|56=045|52=20190719-20:35:07.027|369=2|10=207|
