8=FIX.4.4|9=190|35=AE|34=2|49=035|50=035X01|52=20190712-16:49:14.029|56=EXC|31=1000|32=100|55=T24Q19F|60=20190712-17:27:56.438|487=0|571=201907121149031_AE|762=FUIR|856=96|880=201907120000000008|552=1|54=1|10=029|
8=FIX.4.4|9=0133|35=AR|34=2|49=EXC|56=035|57=035X01|52=20190712-17:30:29.102|571=201907121149031_AE|487=0|856=96|939=0|17=25|60=20190712-17:30:29.102|10=021|
8=FIX.4.4|9=0357|35=AE|34=3|49=EXC|56=035|57=035X01|52=20190712-17:30:44.171|571=201907121149031_AE|487=2|856=99|17=26|573=0|15=COP|880=201907120000000008|75=20190712|55=T24Q19F|762=FUIR|48=26623|22=M|31=1000.000|32=100|381=250000000000.000|60=20190712-17:30:44.171|64=20190712|552=1|54=1|453=3|448=035X01|447=C|452=12|448=035|447=C|452=1|448=035FCM001|447=C|452=36|1=DP003|10=173|
8=FIX.4.4|9=59|35=0|34=3|49=035|50=035X01|52=20190712-16:49:44.691|56=EXC|10=090|
8=FIX.4.4|9=59|35=5|34=4|49=035|50=035X01|52=20190712-16:49:49.679|56=EXC|10=107|
8=FIX.4.4|9=0049|35=5|34=4|49=EXC|56=035|52=20190712-17:31:04.744|10=190|
8=FIX.4.4|9=110|35=A|34=1|49=035|50=035X01|52=20190712-19:50:07.465|56=EXC|43=N|98=0|108=30|141=Y|553=035FCM001|554=035FCM001|10=116|
8=FIX.4.4|9=0067|35=A|34=1|49=EXC|56=035|52=20190712-20:31:22.721|98=0|108=30|141=Y|10=002|
8=FIX.4.4|9=190|35=AE|34=2|49=035|50=035X01|52=20190712-19:50:14.932|56=EXC|31=1000|32=100|55=T24Q19F|60=20190712-20:29:39.278|487=0|571=201907121450031_AE|762=FUIR|856=96|880=201907120000000009|552=1|54=1|10=022|
8=FIX.4.4|9=0133|35=AR|34=2|49=EXC|56=035|57=035X01|52=20190712-20:31:30.130|571=201907121450031_AE|487=0|856=96|939=0|17=32|60=20190712-20:31:30.130|10=246|
<<<<<<< HEAD
8=FIX.4.4|9=110|35=A|34=1|49=035|50=035X01|52=20190715-13:51:20.396|56=EXC|43=N|98=0|108=30|141=Y|553=035FCM001|554=035FCM001|10=112|
8=FIX.4.4|9=0067|35=A|34=1|49=EXC|56=035|52=20190716-15:54:53.628|98=0|108=30|141=Y|10=025|
8=FIX.4.4|9=189|35=AE|34=2|49=035|50=035X01|52=20190715-13:51:27.947|56=EXC|31=1000|32=100|55=T24Q19F|60=20190716-15:52:28.744|487=0|571=20190715851151_AE|762=FUIR|856=96|880=201907160000000009|552=1|54=1|10=004|
8=FIX.4.4|9=0132|35=AR|34=2|49=EXC|56=035|57=035X01|52=20190716-15:55:01.130|571=20190715851151_AE|487=0|856=96|939=0|17=15|60=20190716-15:55:01.130|10=232|
8=FIX.4.4|9=110|35=A|34=1|49=035|50=035X01|52=20190715-15:42:11.349|56=EXC|43=N|98=0|108=30|141=Y|553=035FCM001|554=035FCM001|10=112|
8=FIX.4.4|9=0067|35=A|34=1|49=EXC|56=035|52=20190716-16:38:44.655|98=0|108=30|141=Y|10=028|
8=FIX.4.4|9=190|35=AE|34=2|49=035|50=035X01|52=20190715-15:42:18.649|56=EXC|31=1000|32=100|55=T24Q19F|60=20190716-15:07:55.867|487=0|571=201907151042071_AE|762=FUIR|856=96|880=201907160000000002|552=1|54=1|10=038|
8=FIX.4.4|9=0132|35=AR|34=2|49=EXC|56=035|57=035X01|52=20190716-16:38:51.915|571=201907151042071_AE|487=0|856=96|939=0|17=9|60=20190716-16:38:51.915|10=009|
8=FIX.4.4|9=0049|35=0|34=3|49=EXC|56=035|52=20190716-16:39:21.000|10=179|
8=FIX.4.4|9=110|35=A|34=1|49=035|50=035X01|52=20190715-15:44:02.902|56=EXC|43=N|98=0|108=30|141=Y|553=035FCM001|554=035FCM001|10=109|
8=FIX.4.4|9=0067|35=A|34=1|49=EXC|56=035|52=20190716-16:40:36.209|98=0|108=30|141=Y|10=017|
8=FIX.4.4|9=190|35=AE|34=2|49=035|50=035X01|52=20190715-15:44:10.152|56=EXC|31=1000|32=100|55=T24Q19F|60=20190716-15:07:55.867|487=0|571=201907151043591_AE|762=FUIR|856=96|880=201907160000000002|552=1|54=1|10=029|
8=FIX.4.4|9=0210|35=AR|34=2|49=EXC|56=035|57=035X01|52=20190716-16:40:43.432|571=201907151043591_AE|487=0|856=96|939=1|17=10|60=20190716-16:40:43.432|751=99|58=(369): Trades with (L) status cannot be requested for cancellation|10=020|
8=FIX.4.4|9=110|35=A|34=1|49=035|50=035X01|52=20190715-15:46:46.884|56=EXC|43=N|98=0|108=30|141=Y|553=035FCM001|554=035FCM001|10=128|
8=FIX.4.4|9=0067|35=A|34=1|49=EXC|56=035|52=20190716-16:43:20.190|98=0|108=30|141=Y|10=012|
8=FIX.4.4|9=190|35=AE|34=2|49=035|50=035X01|52=20190715-15:46:54.169|56=EXC|31=1000|32=100|55=T24Q19F|60=20190716-16:42:11.915|487=0|571=201907151046431_AE|762=FUIR|856=96|880=201907160000000009|552=1|54=1|10=036|
8=FIX.4.4|9=0133|35=AR|34=2|49=EXC|56=035|57=035X01|52=20190716-16:43:27.447|571=201907151046431_AE|487=0|856=96|939=0|17=12|60=20190716-16:43:27.447|10=054|
8=FIX.4.4|9=0357|35=AE|34=3|49=EXC|56=035|57=035X01|52=20190716-16:43:42.485|571=201907151046431_AE|487=2|856=99|17=13|573=0|15=COP|880=201907160000000009|75=20190716|55=T24Q19F|762=FUIR|48=26623|22=M|31=1000.000|32=100|381=250000000000.000|60=20190716-16:43:42.485|64=20190716|552=1|54=1|453=3|448=035X01|447=C|452=12|448=035|447=C|452=1|448=035FCM001|447=C|452=36|1=DP003|10=211|
8=FIX.4.4|9=59|35=0|34=3|49=035|50=035X01|52=20190715-15:47:24.364|56=EXC|10=085|
8=FIX.4.4|9=0049|35=0|34=4|49=EXC|56=035|52=20190716-16:44:12.000|10=176|
=======
8=FIX.4.4|9=110|35=A|34=1|49=035|50=035X01|52=20190712-20:56:31.910|56=EXC|43=N|98=0|108=30|141=Y|553=035FCM001|554=035FCM001|10=106|
8=FIX.4.4|9=0067|35=A|34=1|49=EXC|56=035|52=20190712-21:31:45.042|98=0|108=30|141=Y|10=004|
8=FIX.4.4|9=190|35=AE|34=2|49=035|50=035X01|52=20190712-20:56:39.068|56=EXC|31=1000|32=100|55=T24Q19F|60=20190712-20:33:52.062|487=0|571=201907121556271_AE|762=FUIR|856=96|880=201907120000000010|552=1|54=1|10=013|
8=FIX.4.4|9=0133|35=AR|34=2|49=EXC|56=035|57=035X01|52=20190712-21:31:52.136|571=201907121556271_AE|487=0|856=96|939=0|17=34|60=20190712-21:31:52.136|10=027|
8=FIX.4.4|9=0049|35=0|34=3|49=EXC|56=035|52=20190712-21:32:22.000|10=165|
8=FIX.4.4|9=59|35=0|34=3|49=035|50=035X01|52=20190712-20:57:09.868|56=EXC|10=091|
8=FIX.4.4|9=0049|35=0|34=4|49=EXC|56=035|52=20190712-21:32:52.000|10=169|
8=FIX.4.4|9=59|35=0|34=4|49=035|50=035X01|52=20190712-20:57:39.867|56=EXC|10=094|
8=FIX.4.4|9=110|35=A|34=1|49=035|50=035X01|52=20190714-00:01:28.301|56=EXC|43=N|98=0|108=30|141=Y|553=035FCM001|554=035FCM001|10=096|
8=FIX.4.4|9=0067|35=A|34=1|49=EXC|56=035|52=20190716-17:40:38.486|98=0|108=30|141=Y|10=027|
8=FIX.4.4|9=190|35=AE|34=2|49=035|50=035X01|52=20190714-00:01:35.737|56=EXC|31=1000|32=100|55=T24Q19F|60=20190712-20:33:52.062|487=0|571=201907131901241_AE|762=FUIR|856=96|880=201907120000000010|552=1|54=1|10=250|
8=FIX.4.4|9=0170|35=AR|34=2|49=EXC|56=035|57=035X01|52=20190716-17:40:45.814|571=201907131901241_AE|487=0|856=96|939=1|17=1|60=20190716-17:40:45.814|751=99|58=(138): Invalid Trade Number|10=154|
8=FIX.4.4|9=110|35=A|34=1|49=035|50=035X01|52=20190714-00:12:52.996|56=EXC|43=N|98=0|108=30|141=Y|553=035FCM001|554=035FCM001|10=115|
8=FIX.4.4|9=0067|35=A|34=1|49=EXC|56=035|52=20190716-17:52:03.126|98=0|108=30|141=Y|10=013|
8=FIX.4.4|9=190|35=AE|34=2|49=035|50=035X01|52=20190714-00:13:00.278|56=EXC|31=1000|32=100|55=T24Q19F|60=20190712-20:33:52.062|487=0|571=201907131912501_AE|762=FUIR|856=96|880=201907120000000010|552=1|54=1|10=246|
8=FIX.4.4|9=0170|35=AR|34=2|49=EXC|56=035|57=035X01|52=20190716-17:52:10.353|571=201907131912501_AE|487=0|856=96|939=1|17=2|60=20190716-17:52:10.353|751=99|58=(138): Invalid Trade Number|10=142|
8=FIX.4.4|9=110|35=A|34=1|49=035|50=035X01|52=20190714-01:40:48.830|56=EXC|43=N|98=0|108=30|141=Y|553=035FCM001|554=035FCM001|10=109|
8=FIX.4.4|9=0067|35=A|34=1|49=EXC|56=035|52=20190716-16:00:58.928|98=0|108=30|141=Y|10=025|
8=FIX.4.4|9=190|35=AE|34=2|49=035|50=035X01|52=20190714-01:40:55.974|56=EXC|31=1000|32=100|55=T24Q19F|60=20190716-15:45:50.356|487=0|571=201907132040461_AE|762=FUIR|856=96|880=201907160000000001|552=1|54=1|10=021|
8=FIX.4.4|9=0132|35=AR|34=2|49=EXC|56=035|57=035X01|52=20190716-16:01:06.054|571=201907132040461_AE|487=0|856=96|939=0|17=2|60=20190716-16:01:06.054|10=226|
8=FIX.4.4|9=0049|35=0|34=3|49=EXC|56=035|52=20190716-16:01:36.000|10=174|
8=FIX.4.4|9=59|35=0|34=3|49=035|50=035X01|52=20190714-01:41:26.804|56=EXC|10=074|
8=FIX.4.4|9=110|35=A|34=1|49=035|50=035X01|52=20190714-01:44:26.320|56=EXC|43=N|98=0|108=30|141=Y|553=035FCM001|554=035FCM001|10=103|
8=FIX.4.4|9=0067|35=A|34=1|49=EXC|56=035|52=20190716-16:04:36.453|98=0|108=30|141=Y|10=018|
8=FIX.4.4|9=190|35=AE|34=2|49=035|50=035X01|52=20190714-01:44:33.495|56=EXC|31=1000|32=100|55=T24Q19F|60=20190716-15:45:50.356|487=0|571=201907132044231_AE|762=FUIR|856=96|880=201907160000000001|552=1|54=1|10=018|
8=FIX.4.4|9=0209|35=AR|34=2|49=EXC|56=035|57=035X01|52=20190716-16:04:43.563|571=201907132044231_AE|487=0|856=96|939=1|17=3|60=20190716-16:04:43.563|751=99|58=(369): Trades with (L) status cannot be requested for cancellation|10=239|
8=FIX.4.4|9=0049|35=0|34=3|49=EXC|56=035|52=20190716-16:05:13.000|10=173|
8=FIX.4.4|9=59|35=0|34=3|49=035|50=035X01|52=20190714-01:45:04.275|56=EXC|10=076|
8=FIX.4.4|9=0049|35=0|34=4|49=EXC|56=035|52=20190716-16:05:43.000|10=177|
8=FIX.4.4|9=59|35=0|34=4|49=035|50=035X01|52=20190714-01:45:34.283|56=EXC|10=079|
8=FIX.4.4|9=110|35=A|34=1|49=035|50=035X01|52=20190714-01:58:41.025|56=EXC|43=N|98=0|108=30|141=Y|553=035FCM001|554=035FCM001|10=107|
8=FIX.4.4|9=0067|35=A|34=1|49=EXC|56=035|52=20190716-16:18:51.123|98=0|108=30|141=Y|10=014|
8=FIX.4.4|9=190|35=AE|34=2|49=035|50=035X01|52=20190714-01:58:48.214|56=EXC|31=1000|32=100|55=T24Q19F|60=20190716-16:14:02.505|487=0|571=201907132058381_AE|762=FUIR|856=96|880=201907160000000002|552=1|54=1|10=020|
8=FIX.4.4|9=0132|35=AR|34=2|49=EXC|56=035|57=035X01|52=20190716-16:18:58.285|571=201907132058381_AE|487=0|856=96|939=0|17=5|60=20190716-16:18:58.285|10=025|
8=FIX.4.4|9=0049|35=0|34=3|49=EXC|56=035|52=20190716-16:19:28.000|10=184|
8=FIX.4.4|9=59|35=0|34=3|49=035|50=035X01|52=20190714-01:59:18.971|56=EXC|10=089|
8=FIX.4.4|9=110|35=A|34=1|49=035|50=035X01|52=20190714-03:12:45.651|56=EXC|43=N|98=0|108=30|141=Y|553=035FCM001|554=035FCM001|10=108|
8=FIX.4.4|9=0067|35=A|34=1|49=EXC|56=035|52=20190716-17:32:55.755|98=0|108=30|141=Y|10=026|
8=FIX.4.4|9=190|35=AE|34=2|49=035|50=035X01|52=20190714-03:12:52.839|56=EXC|31=1000|32=100|55=T24Q19F|60=20190716-17:28:22.826|487=0|571=201907132212431_AE|762=FUIR|856=96|880=201907160000000003|552=1|54=1|10=023|
8=FIX.4.4|9=0132|35=AR|34=2|49=EXC|56=035|57=035X01|52=20190716-17:33:02.916|571=201907132212431_AE|487=0|856=96|939=0|17=7|60=20190716-17:33:02.916|10=247|
8=FIX.4.4|9=0355|35=AE|34=3|49=EXC|56=035|57=035X01|52=20190716-17:33:18.015|571=201907132212431_AE|487=2|856=99|17=8|573=0|15=COP|880=201907160000000003|75=20190716|55=T24Q19F|762=FUIR|48=26623|22=M|31=1000.000|32=50|381=125000000000.000|60=20190716-17:33:18.015|64=20190716|552=1|54=1|453=3|448=035X01|447=C|452=12|448=035|447=C|452=1|448=035FCM001|447=C|452=36|1=DP003|10=094|
8=FIX.4.4|9=59|35=0|34=3|49=035|50=035X01|52=20190714-03:13:23.579|56=EXC|10=081|
8=FIX.4.4|9=0049|35=0|34=4|49=EXC|56=035|52=20190716-17:33:48.000|10=184|
8=FIX.4.4|9=110|35=A|34=1|49=035|50=035X01|52=20190714-03:19:37.039|56=EXC|43=N|98=0|108=30|141=Y|553=035FCM001|554=035FCM001|10=116|
8=FIX.4.4|9=0067|35=A|34=1|49=EXC|56=035|52=20190716-17:39:47.139|98=0|108=30|141=Y|10=030|
8=FIX.4.4|9=190|35=AE|34=2|49=035|50=035X01|52=20190714-03:19:44.286|56=EXC|31=1000|32=100|55=T24Q19F|60=20190716-17:28:22.826|487=0|571=201907132219341_AE|762=FUIR|856=96|880=201907160000000003|552=1|54=1|10=034|
8=FIX.4.4|9=0209|35=AR|34=2|49=EXC|56=035|57=035X01|52=20190716-17:39:54.377|571=201907132219341_AE|487=0|856=96|939=1|17=9|60=20190716-17:39:54.377|751=99|58=(369): Trades with (U) status cannot be requested for cancellation|10=032|
8=FIX.4.4|9=110|35=A|34=1|49=035|50=035X01|52=20190714-03:22:44.894|56=EXC|43=N|98=0|108=30|141=Y|553=035FCM001|554=035FCM001|10=117|
8=FIX.4.4|9=0067|35=A|34=1|49=EXC|56=035|52=20190716-17:42:55.000|98=0|108=30|141=Y|10=010|
8=FIX.4.4|9=190|35=AE|34=2|49=035|50=035X01|52=20190714-03:22:52.055|56=EXC|31=1000|32=100|55=T24Q19F|60=20190716-17:41:16.872|487=0|571=201907132222421_AE|762=FUIR|856=96|880=201907160000000004|552=1|54=1|10=014|
8=FIX.4.4|9=0133|35=AR|34=2|49=EXC|56=035|57=035X01|52=20190716-17:43:02.133|571=201907132222421_AE|487=0|856=96|939=0|17=11|60=20190716-17:43:02.133|10=019|
8=FIX.4.4|9=0356|35=AE|34=3|49=EXC|56=035|57=035X01|52=20190716-17:43:17.234|571=201907132222421_AE|487=2|856=99|17=12|573=0|15=COP|880=201907160000000004|75=20190716|55=T24Q19F|762=FUIR|48=26623|22=M|31=1000.000|32=50|381=125000000000.000|60=20190716-17:43:17.234|64=20190716|552=1|54=1|453=3|448=035X01|447=C|452=12|448=035|447=C|452=1|448=035FCM001|447=C|452=36|1=DP003|10=145|
8=FIX.4.4|9=59|35=0|34=3|49=035|50=035X01|52=20190714-03:23:22.865|56=EXC|10=079|
8=FIX.4.4|9=59|35=5|34=4|49=035|50=035X01|52=20190714-03:23:27.297|56=EXC|10=089|
8=FIX.4.4|9=0049|35=5|34=4|49=EXC|56=035|52=20190716-17:43:37.374|10=202|
8=FIX.4.4|9=110|35=A|34=1|49=035|50=035X01|52=20190715-13:08:35.584|56=EXC|43=N|98=0|108=30|141=Y|553=035FCM001|554=035FCM001|10=119|
8=FIX.4.4|9=0067|35=A|34=1|49=EXC|56=035|52=20190716-15:06:03.743|98=0|108=30|141=Y|10=015|
8=FIX.4.4|9=189|35=AE|34=2|49=035|50=035X01|52=20190715-13:08:42.835|56=EXC|31=1000|32=100|55=T24Q19F|60=20190716-15:03:52.100|487=0|571=20190715808321_AE|762=FUIR|856=96|880=201907160000000001|552=1|54=1|10=227|
8=FIX.4.4|9=0131|35=AR|34=2|49=EXC|56=035|57=035X01|52=20190716-15:06:10.893|571=20190715808321_AE|487=0|856=96|939=0|17=2|60=20190716-15:06:10.893|10=204|
8=FIX.4.4|9=0354|35=AE|34=3|49=EXC|56=035|57=035X01|52=20190716-15:06:25.943|571=20190715808321_AE|487=2|856=99|17=3|573=0|15=COP|880=201907160000000001|75=20190716|55=T24Q19F|762=FUIR|48=26623|22=M|31=1000.000|32=50|381=125000000000.000|60=20190716-15:06:25.943|64=20190716|552=1|54=1|453=3|448=035X01|447=C|452=12|448=035|447=C|452=1|448=035FCM001|447=C|452=36|1=DP003|10=059|
8=FIX.4.4|9=59|35=0|34=3|49=035|50=035X01|52=20190715-13:09:13.547|56=EXC|10=082|
8=FIX.4.4|9=0049|35=0|34=4|49=EXC|56=035|52=20190716-15:06:55.000|10=180|
8=FIX.4.4|9=59|35=0|34=4|49=035|50=035X01|52=20190715-13:09:43.548|56=EXC|10=087|
8=FIX.4.4|9=0049|35=0|34=5|49=EXC|56=035|52=20190716-15:07:25.000|10=179|
8=FIX.4.4|9=110|35=A|34=1|49=035|50=035X01|52=20190715-13:10:01.579|56=EXC|43=N|98=0|108=30|141=Y|553=035FCM001|554=035FCM001|10=109|
8=FIX.4.4|9=110|35=A|34=1|49=035|50=035X01|52=20190715-13:27:08.411|56=EXC|43=N|98=0|108=30|141=Y|553=035FCM001|554=035FCM001|10=109|
8=FIX.4.4|9=0067|35=A|34=1|49=EXC|56=035|52=20190716-15:24:36.484|98=0|108=30|141=Y|10=023|
8=FIX.4.4|9=189|35=AE|34=2|49=035|50=035X01|52=20190715-13:27:15.593|56=EXC|31=1000|32=100|55=T24Q19F|60=20190716-15:23:08.699|487=0|571=20190715827051_AE|762=FUIR|856=96|880=201907160000000003|552=1|54=1|10=002|
8=FIX.4.4|9=0131|35=AR|34=2|49=EXC|56=035|57=035X01|52=20190716-15:24:43.648|571=20190715827051_AE|487=0|856=96|939=0|17=6|60=20190716-15:24:43.648|10=217|
8=FIX.4.4|9=0354|35=AE|34=3|49=EXC|56=035|57=035X01|52=20190716-15:24:58.730|571=20190715827051_AE|487=2|856=99|17=7|573=0|15=COP|880=201907160000000003|75=20190716|55=T24Q19F|762=FUIR|48=26623|22=M|31=1000.000|32=50|381=125000000000.000|60=20190716-15:24:58.730|64=20190716|552=1|54=1|453=3|448=035X01|447=C|452=12|448=035|447=C|452=1|448=035FCM001|447=C|452=36|1=DP003|10=066|
8=FIX.4.4|9=59|35=0|34=3|49=035|50=035X01|52=20190715-13:27:46.383|56=EXC|10=086|
8=FIX.4.4|9=0049|35=0|34=4|49=EXC|56=035|52=20190716-15:25:28.000|10=181|
8=FIX.4.4|9=59|35=0|34=4|49=035|50=035X01|52=20190715-13:28:16.379|56=EXC|10=090|
8=FIX.4.4|9=0049|35=0|34=5|49=EXC|56=035|52=20190716-15:25:58.000|10=185|
8=FIX.4.4|9=59|35=0|34=5|49=035|50=035X01|52=20190715-13:28:46.383|56=EXC|10=089|
8=FIX.4.4|9=110|35=A|34=1|49=035|50=035X01|52=20190715-16:11:12.725|56=EXC|43=N|98=0|108=30|141=Y|553=035FCM001|554=035FCM001|10=108|
8=FIX.4.4|9=0067|35=A|34=1|49=EXC|56=035|52=20190716-17:01:40.801|98=0|108=30|141=Y|10=008|
8=FIX.4.4|9=189|35=AE|34=2|49=035|50=035X01|52=20190715-16:11:19.938|56=EXC|31=1000|32=50|55=T24Q19F|60=20190716-15:23:08.699|487=0|571=201907151111091_AE|762=FUIR|856=96|880=201907160000000003|552=1|54=1|10=000|
8=FIX.4.4|9=0133|35=AR|34=2|49=EXC|56=035|57=035X01|52=20190716-17:01:47.981|571=201907151111091_AE|487=0|856=96|939=0|17=14|60=20190716-17:01:47.981|10=051|
8=FIX.4.4|9=0357|35=AE|34=3|49=EXC|56=035|57=035X01|52=20190716-17:02:03.053|571=201907151111091_AE|487=2|856=99|17=15|573=0|15=COP|880=201907160000000003|75=20190716|55=T24Q19F|762=FUIR|48=26623|22=M|31=1000.000|32=100|381=250000000000.000|60=20190716-17:02:03.053|64=20190716|552=1|54=1|453=3|448=035X01|447=C|452=12|448=035|447=C|452=1|448=035FCM001|447=C|452=36|1=DP003|10=170|
8=FIX.4.4|9=0456|35=8|34=4|49=EXC|56=035|57=035X01|52=20190716-17:02:14.529|11=20190715919381_AJ|17=16|37=0|150=H|1080=20190716-000000000004.00|1081=5|453=5|448=035X01|447=C|452=12|448=035|447=C|452=1|448=071X01|447=C|452=37|448=071|447=C|452=17|448=035FCM001|447=C|452=36|55=T24Q19F|762=FUIR|48=26623|22=M|6=1000.000|14=100|31=1000.000|32=100|38=100|39=2|54=1|60=20190716-17:02:14.529|75=20190716|63=1|64=20190716|151=0|1=DP003|381=250000000000.000|880=201907160000000003|10=111|
8=FIX.4.4|9=59|35=0|34=3|49=035|50=035X01|52=20190715-16:11:50.629|56=EXC|10=080|
8=FIX.4.4|9=0049|35=0|34=5|49=EXC|56=035|52=20190716-17:02:44.000|10=177|
8=FIX.4.4|9=59|35=0|34=4|49=035|50=035X01|52=20190715-16:12:20.631|56=EXC|10=072|
8=FIX.4.4|9=0049|35=0|34=6|49=EXC|56=035|52=20190716-17:03:14.000|10=176|
8=FIX.4.4|9=59|35=0|34=5|49=035|50=035X01|52=20190715-16:12:50.629|56=EXC|10=083|
8=FIX.4.4|9=0049|35=0|34=7|49=EXC|56=035|52=20190716-17:03:44.000|10=180|
8=FIX.4.4|9=59|35=0|34=6|49=035|50=035X01|52=20190715-16:13:20.630|56=EXC|10=074|
8=FIX.4.4|9=0049|35=0|34=8|49=EXC|56=035|52=20190716-17:04:14.000|10=179|
8=FIX.4.4|9=59|35=0|34=7|49=035|50=035X01|52=20190715-16:13:50.631|56=EXC|10=079|
8=FIX.4.4|9=0049|35=0|34=9|49=EXC|56=035|52=20190716-17:04:44.000|10=183|
8=FIX.4.4|9=59|35=0|34=8|49=035|50=035X01|52=20190715-16:14:20.630|56=EXC|10=077|
8=FIX.4.4|9=0050|35=0|34=10|49=EXC|56=035|52=20190716-17:05:14.000|10=213|
8=FIX.4.4|9=59|35=0|34=9|49=035|50=035X01|52=20190715-16:14:50.630|56=EXC|10=081|
8=FIX.4.4|9=0050|35=0|34=11|49=EXC|56=035|52=20190716-17:05:44.000|10=217|
8=FIX.4.4|9=60|35=0|34=10|49=035|50=035X01|52=20190715-16:15:20.631|56=EXC|10=112|
8=FIX.4.4|9=0050|35=0|34=12|49=EXC|56=035|52=20190716-17:06:14.000|10=216|
8=FIX.4.4|9=60|35=0|34=11|49=035|50=035X01|52=20190715-16:15:50.630|56=EXC|10=115|
8=FIX.4.4|9=0050|35=0|34=13|49=EXC|56=035|52=20190716-17:06:44.000|10=220|
8=FIX.4.4|9=60|35=0|34=12|49=035|50=035X01|52=20190715-16:16:20.630|56=EXC|10=114|
8=FIX.4.4|9=0050|35=0|34=14|49=EXC|56=035|52=20190716-17:07:14.000|10=219|
8=FIX.4.4|9=60|35=0|34=13|49=035|50=035X01|52=20190715-16:16:50.630|56=EXC|10=118|
<<<<<<< HEAD
>>>>>>> 6d7e9ce7e8f42ac20f0de084aa3de07af4ab14a8
<<<<<<< Updated upstream
=======
8=FIX.4.4|9=110|35=A|34=1|49=035|50=035X01|52=20190715-19:28:47.296|56=EXC|43=N|98=0|108=30|141=Y|553=035FCM001|554=035FCM001|10=130|
8=FIX.4.4|9=0067|35=A|34=1|49=EXC|56=035|52=20190716-15:22:32.406|98=0|108=30|141=Y|10=011|
8=FIX.4.4|9=189|35=AE|34=2|49=035|50=035X01|52=20190715-19:28:54.518|56=EXC|31=1000|32=50|55=T24Q19F|60=20190716-15:08:37.220|487=0|571=201907151428431_AE|762=FUIR|856=96|880=201907160000000001|552=1|54=1|10=252|
8=FIX.4.4|9=0132|35=AR|34=2|49=EXC|56=035|57=035X01|52=20190716-15:22:39.573|571=201907151428431_AE|487=0|856=96|939=0|17=3|60=20190716-15:22:39.573|10=007|
8=FIX.4.4|9=0356|35=AE|34=3|49=EXC|56=035|57=035X01|52=20190716-15:22:54.658|571=201907151428431_AE|487=2|856=99|17=4|573=0|15=COP|880=201907160000000001|75=20190716|55=T24Q19F|762=FUIR|48=26623|22=M|31=1000.000|32=100|381=250000000000.000|60=20190716-15:22:54.658|64=20190716|552=1|54=1|453=3|448=035X01|447=C|452=12|448=035|447=C|452=1|448=035FCM001|447=C|452=36|1=DP003|10=160|
8=FIX.4.4|9=0456|35=8|34=4|49=EXC|56=035|57=035X01|52=20190716-15:23:06.694|11=201907151413201_AJ|17=5|37=0|150=H|1080=20190716-000000000001.00|1081=5|453=5|448=035X01|447=C|452=12|448=035|447=C|452=1|448=071X01|447=C|452=37|448=071|447=C|452=17|448=035FCM001|447=C|452=36|55=T24Q19F|762=FUIR|48=26623|22=M|6=1000.000|14=100|31=1000.000|32=100|38=100|39=2|54=1|60=20190716-15:23:06.694|75=20190716|63=1|64=20190716|151=0|1=DP003|381=250000000000.000|880=201907160000000001|10=095|
8=FIX.4.4|9=59|35=0|34=3|49=035|50=035X01|52=20190715-19:29:25.195|56=EXC|10=092|
8=FIX.4.4|9=0049|35=0|34=5|49=EXC|56=035|52=20190716-15:23:36.000|10=179|
8=FIX.4.4|9=59|35=0|34=4|49=035|50=035X01|52=20190715-19:29:55.196|56=EXC|10=097|
8=FIX.4.4|9=0049|35=0|34=6|49=EXC|56=035|52=20190716-15:24:06.000|10=178|
8=FIX.4.4|9=110|35=A|34=1|49=035|50=035X01|52=20190715-20:35:15.432|56=EXC|43=N|98=0|108=30|141=Y|553=035FCM001|554=035FCM001|10=107|
8=FIX.4.4|9=0067|35=A|34=1|49=EXC|56=035|52=20190716-16:29:00.513|98=0|108=30|141=Y|10=013|
8=FIX.4.4|9=190|35=AE|34=2|49=035|50=035X01|52=20190715-20:35:22.603|56=EXC|31=1000|32=100|55=T24Q19F|60=20190716-15:52:28.000|487=0|571=201907151535121_AE|762=FUIR|856=96|880=201907160000000004|552=1|54=1|10=005|
8=FIX.4.4|9=0133|35=AR|34=2|49=EXC|56=035|57=035X01|52=20190716-16:29:07.666|571=201907151535121_AE|487=0|856=96|939=0|17=13|60=20190716-16:29:07.666|10=064|
8=FIX.4.4|9=0049|35=0|34=3|49=EXC|56=035|52=20190716-16:29:37.000|10=185|
8=FIX.4.4|9=59|35=0|34=3|49=035|50=035X01|52=20190715-20:35:53.405|56=EXC|10=076|
8=FIX.4.4|9=0049|35=0|34=4|49=EXC|56=035|52=20190716-16:30:07.000|10=175|
8=FIX.4.4|9=59|35=0|34=4|49=035|50=035X01|52=20190715-20:36:23.405|56=EXC|10=075|
8=FIX.4.4|9=0049|35=0|34=5|49=EXC|56=035|52=20190716-16:30:37.000|10=179|
8=FIX.4.4|9=59|35=0|34=5|49=035|50=035X01|52=20190715-20:36:53.405|56=EXC|10=079|
8=FIX.4.4|9=0049|35=0|34=6|49=EXC|56=035|52=20190716-16:31:07.000|10=178|
8=FIX.4.4|9=59|35=0|34=6|49=035|50=035X01|52=20190715-20:37:23.406|56=EXC|10=079|
8=FIX.4.4|9=0049|35=0|34=7|49=EXC|56=035|52=20190716-16:31:37.000|10=182|
8=FIX.4.4|9=59|35=0|34=7|49=035|50=035X01|52=20190715-20:37:53.406|56=EXC|10=083|
8=FIX.4.4|9=0049|35=0|34=8|49=EXC|56=035|52=20190716-16:32:07.000|10=181|
8=FIX.4.4|9=59|35=0|34=8|49=035|50=035X01|52=20190715-20:38:23.405|56=EXC|10=081|
8=FIX.4.4|9=0049|35=0|34=9|49=EXC|56=035|52=20190716-16:32:37.000|10=185|
8=FIX.4.4|9=59|35=0|34=9|49=035|50=035X01|52=20190715-20:38:53.405|56=EXC|10=085|
8=FIX.4.4|9=0050|35=0|34=10|49=EXC|56=035|52=20190716-16:33:07.000|10=215|
8=FIX.4.4|9=60|35=0|34=10|49=035|50=035X01|52=20190715-20:39:23.407|56=EXC|10=117|
8=FIX.4.4|9=0050|35=0|34=11|49=EXC|56=035|52=20190716-16:33:37.000|10=219|
8=FIX.4.4|9=60|35=0|34=11|49=035|50=035X01|52=20190715-20:39:53.406|56=EXC|10=120|
8=FIX.4.4|9=0050|35=0|34=12|49=EXC|56=035|52=20190716-16:34:07.000|10=218|
8=FIX.4.4|9=60|35=0|34=12|49=035|50=035X01|52=20190715-20:40:23.406|56=EXC|10=110|
8=FIX.4.4|9=0050|35=0|34=13|49=EXC|56=035|52=20190716-16:34:37.000|10=222|
8=FIX.4.4|9=60|35=0|34=13|49=035|50=035X01|52=20190715-20:40:53.406|56=EXC|10=114|
8=FIX.4.4|9=0050|35=0|34=14|49=EXC|56=035|52=20190716-16:35:07.000|10=221|
8=FIX.4.4|9=60|35=0|34=14|49=035|50=035X01|52=20190715-20:41:23.406|56=EXC|10=113|
8=FIX.4.4|9=0050|35=0|34=15|49=EXC|56=035|52=20190716-16:35:37.000|10=225|
8=FIX.4.4|9=60|35=0|34=15|49=035|50=035X01|52=20190715-20:41:53.406|56=EXC|10=117|
8=FIX.4.4|9=0050|35=0|34=16|49=EXC|56=035|52=20190716-16:36:07.000|10=224|
8=FIX.4.4|9=60|35=0|34=16|49=035|50=035X01|52=20190715-20:42:23.406|56=EXC|10=116|
8=FIX.4.4|9=0050|35=0|34=17|49=EXC|56=035|52=20190716-16:36:37.000|10=228|
8=FIX.4.4|9=60|35=0|34=17|49=035|50=035X01|52=20190715-20:42:53.406|56=EXC|10=120|
8=FIX.4.4|9=0050|35=0|34=18|49=EXC|56=035|52=20190716-16:37:07.000|10=227|
8=FIX.4.4|9=60|35=0|34=18|49=035|50=035X01|52=20190715-20:43:23.406|56=EXC|10=119|
8=FIX.4.4|9=0050|35=0|34=19|49=EXC|56=035|52=20190716-16:37:37.000|10=231|
8=FIX.4.4|9=60|35=0|34=19|49=035|50=035X01|52=20190715-20:43:53.407|56=EXC|10=124|
8=FIX.4.4|9=0050|35=0|34=20|49=EXC|56=035|52=20190716-16:38:07.000|10=221|
8=FIX.4.4|9=60|35=0|34=20|49=035|50=035X01|52=20190715-20:44:23.406|56=EXC|10=113|
8=FIX.4.4|9=0050|35=0|34=21|49=EXC|56=035|52=20190716-16:38:37.000|10=225|
8=FIX.4.4|9=60|35=0|34=21|49=035|50=035X01|52=20190715-20:44:53.406|56=EXC|10=117|
8=FIX.4.4|9=0050|35=0|34=22|49=EXC|56=035|52=20190716-16:39:07.000|10=224|
8=FIX.4.4|9=60|35=0|34=22|49=035|50=035X01|52=20190715-20:45:23.406|56=EXC|10=116|
8=FIX.4.4|9=0050|35=0|34=23|49=EXC|56=035|52=20190716-16:39:37.000|10=228|
8=FIX.4.4|9=60|35=0|34=23|49=035|50=035X01|52=20190715-20:45:53.406|56=EXC|10=120|
8=FIX.4.4|9=110|35=A|34=1|49=035|50=035X01|52=20190715-20:47:26.070|56=EXC|43=N|98=0|108=30|141=Y|553=035FCM001|554=035FCM001|10=110|
8=FIX.4.4|9=0067|35=A|34=1|49=EXC|56=035|52=20190716-16:41:11.154|98=0|108=30|141=Y|10=010|
8=FIX.4.4|9=190|35=AE|34=2|49=035|50=035X01|52=20190715-20:47:33.216|56=EXC|31=1000|32=100|55=T24Q19F|60=20190716-15:55:04.273|487=0|571=201907151547231_AE|762=FUIR|856=96|880=201907160000000005|552=1|54=1|10=025|
8=FIX.4.4|9=0133|35=AR|34=2|49=EXC|56=035|57=035X01|52=20190716-16:41:18.280|571=201907151547231_AE|487=0|856=96|939=0|17=14|60=20190716-16:41:18.280|10=046|
8=FIX.4.4|9=0049|35=0|34=3|49=EXC|56=035|52=20190716-16:41:48.000|10=181|
8=FIX.4.4|9=59|35=0|34=3|49=035|50=035X01|52=20190715-20:48:04.048|56=EXC|10=079|
8=FIX.4.4|9=0049|35=0|34=4|49=EXC|56=035|52=20190716-16:42:18.000|10=180|
8=FIX.4.4|9=59|35=0|34=4|49=035|50=035X01|52=20190715-20:48:34.046|56=EXC|10=081|
8=FIX.4.4|9=0049|35=0|34=5|49=EXC|56=035|52=20190716-16:42:48.000|10=184|
8=FIX.4.4|9=59|35=0|34=5|49=035|50=035X01|52=20190715-20:49:04.046|56=EXC|10=080|
8=FIX.4.4|9=0049|35=0|34=6|49=EXC|56=035|52=20190716-16:43:18.000|10=183|
8=FIX.4.4|9=59|35=0|34=6|49=035|50=035X01|52=20190715-20:49:34.045|56=EXC|10=083|
8=FIX.4.4|9=0049|35=0|34=7|49=EXC|56=035|52=20190716-16:43:48.000|10=187|
8=FIX.4.4|9=59|35=0|34=7|49=035|50=035X01|52=20190715-20:50:04.046|56=EXC|10=074|
8=FIX.4.4|9=0049|35=0|34=8|49=EXC|56=035|52=20190716-16:44:18.000|10=186|
8=FIX.4.4|9=59|35=0|34=8|49=035|50=035X01|52=20190715-20:50:34.045|56=EXC|10=077|
8=FIX.4.4|9=0049|35=0|34=9|49=EXC|56=035|52=20190716-16:44:48.000|10=190|
8=FIX.4.4|9=59|35=0|34=9|49=035|50=035X01|52=20190715-20:51:04.046|56=EXC|10=077|
8=FIX.4.4|9=0050|35=0|34=10|49=EXC|56=035|52=20190716-16:45:18.000|10=220|
8=FIX.4.4|9=60|35=0|34=10|49=035|50=035X01|52=20190715-20:51:34.046|56=EXC|10=112|
8=FIX.4.4|9=0050|35=0|34=11|49=EXC|56=035|52=20190716-16:45:48.000|10=224|
8=FIX.4.4|9=60|35=0|34=11|49=035|50=035X01|52=20190715-20:52:04.045|56=EXC|10=110|
8=FIX.4.4|9=0050|35=0|34=12|49=EXC|56=035|52=20190716-16:46:18.000|10=223|
8=FIX.4.4|9=60|35=0|34=12|49=035|50=035X01|52=20190715-20:52:34.046|56=EXC|10=115|
8=FIX.4.4|9=0050|35=0|34=13|49=EXC|56=035|52=20190716-16:46:48.000|10=227|
8=FIX.4.4|9=60|35=0|34=13|49=035|50=035X01|52=20190715-20:53:04.047|56=EXC|10=115|
8=FIX.4.4|9=0050|35=0|34=14|49=EXC|56=035|52=20190716-16:47:18.000|10=226|
8=FIX.4.4|9=60|35=0|34=14|49=035|50=035X01|52=20190715-20:53:34.052|56=EXC|10=115|
8=FIX.4.4|9=0050|35=0|34=15|49=EXC|56=035|52=20190716-16:47:48.000|10=230|
8=FIX.4.4|9=60|35=0|34=15|49=035|50=035X01|52=20190715-20:54:04.045|56=EXC|10=116|
8=FIX.4.4|9=0050|35=0|34=16|49=EXC|56=035|52=20190716-16:48:18.000|10=229|
8=FIX.4.4|9=60|35=0|34=16|49=035|50=035X01|52=20190715-20:54:34.046|56=EXC|10=121|
8=FIX.4.4|9=0050|35=0|34=17|49=EXC|56=035|52=20190716-16:48:48.000|10=233|
8=FIX.4.4|9=60|35=0|34=17|49=035|50=035X01|52=20190715-20:55:04.047|56=EXC|10=121|
8=FIX.4.4|9=0050|35=0|34=18|49=EXC|56=035|52=20190716-16:49:18.000|10=232|
8=FIX.4.4|9=60|35=0|34=18|49=035|50=035X01|52=20190715-20:55:34.047|56=EXC|10=125|
8=FIX.4.4|9=0050|35=0|34=19|49=EXC|56=035|52=20190716-16:49:48.000|10=236|
8=FIX.4.4|9=60|35=0|34=19|49=035|50=035X01|52=20190715-20:56:04.046|56=EXC|10=123|
8=FIX.4.4|9=0050|35=0|34=20|49=EXC|56=035|52=20190716-16:50:18.000|10=217|
8=FIX.4.4|9=60|35=0|34=20|49=035|50=035X01|52=20190715-20:56:34.045|56=EXC|10=117|
8=FIX.4.4|9=0050|35=0|34=21|49=EXC|56=035|52=20190716-16:50:48.000|10=221|
8=FIX.4.4|9=60|35=0|34=21|49=035|50=035X01|52=20190715-20:57:04.047|56=EXC|10=118|
8=FIX.4.4|9=0050|35=0|34=22|49=EXC|56=035|52=20190716-16:51:18.000|10=220|
8=FIX.4.4|9=60|35=0|34=22|49=035|50=035X01|52=20190715-20:57:34.046|56=EXC|10=121|
8=FIX.4.4|9=0050|35=0|34=23|49=EXC|56=035|52=20190716-16:51:48.000|10=224|
8=FIX.4.4|9=60|35=0|34=23|49=035|50=035X01|52=20190715-20:58:04.045|56=EXC|10=119|
8=FIX.4.4|9=0050|35=0|34=24|49=EXC|56=035|52=20190716-16:52:18.000|10=223|
8=FIX.4.4|9=60|35=0|34=24|49=035|50=035X01|52=20190715-20:58:34.046|56=EXC|10=124|
8=FIX.4.4|9=0050|35=0|34=25|49=EXC|56=035|52=20190716-16:52:48.000|10=227|
8=FIX.4.4|9=60|35=0|34=25|49=035|50=035X01|52=20190715-20:59:04.046|56=EXC|10=123|
8=FIX.4.4|9=0050|35=0|34=26|49=EXC|56=035|52=20190716-16:53:18.000|10=226|
8=FIX.4.4|9=60|35=0|34=26|49=035|50=035X01|52=20190715-20:59:34.046|56=EXC|10=127|
8=FIX.4.4|9=0050|35=0|34=27|49=EXC|56=035|52=20190716-16:53:48.000|10=230|
8=FIX.4.4|9=60|35=0|34=27|49=035|50=035X01|52=20190715-21:00:04.046|56=EXC|10=112|
8=FIX.4.4|9=0050|35=0|34=28|49=EXC|56=035|52=20190716-16:54:18.000|10=229|
8=FIX.4.4|9=60|35=0|34=28|49=035|50=035X01|52=20190715-21:00:34.047|56=EXC|10=117|
8=FIX.4.4|9=0050|35=0|34=29|49=EXC|56=035|52=20190716-16:54:48.000|10=233|
8=FIX.4.4|9=60|35=0|34=29|49=035|50=035X01|52=20190715-21:01:04.047|56=EXC|10=116|
8=FIX.4.4|9=0050|35=0|34=30|49=EXC|56=035|52=20190716-16:55:18.000|10=223|
8=FIX.4.4|9=60|35=0|34=30|49=035|50=035X01|52=20190715-21:01:34.046|56=EXC|10=110|
8=FIX.4.4|9=0050|35=0|34=31|49=EXC|56=035|52=20190716-16:55:48.000|10=227|
8=FIX.4.4|9=60|35=0|34=31|49=035|50=035X01|52=20190715-21:02:04.047|56=EXC|10=110|
>>>>>>> 5d4ed098bb2204ed7fc34799dbfeb53acad34fdf
=======
8=FIX.4.4|9=110|35=A|34=1|49=035|50=035X01|52=20190715-19:26:16.098|56=EXC|43=N|98=0|108=30|141=Y|553=035FCM001|554=035FCM001|10=124|
8=FIX.4.4|9=0067|35=A|34=1|49=EXC|56=035|52=20190716-15:26:06.585|98=0|108=30|141=Y|10=024|
8=FIX.4.4|9=189|35=AE|34=2|49=035|50=035X01|52=20190715-19:26:23.537|56=EXC|31=1000|32=50|55=T24Q19F|60=20190716-15:08:37.220|487=0|571=201907151426101_AE|762=FUIR|856=96|880=201907160000000001|552=1|54=1|10=239|
8=FIX.4.4|9=0209|35=AR|34=2|49=EXC|56=035|57=035X01|52=20190716-15:26:13.985|571=201907151426101_AE|487=0|856=96|939=1|17=6|60=20190716-15:26:13.985|751=99|58=(369): Trades with (W) status cannot be requested for cancellation|10=014|
8=FIX.4.4|9=110|35=A|34=1|49=035|50=035X01|52=20190715-19:29:08.623|56=EXC|43=N|98=0|108=30|141=Y|553=035FCM001|554=035FCM001|10=122|
8=FIX.4.4|9=0067|35=A|34=1|49=EXC|56=035|52=20190716-15:28:59.111|98=0|108=30|141=Y|10=019|
8=FIX.4.4|9=189|35=AE|34=2|49=035|50=035X01|52=20190715-19:29:15.922|56=EXC|31=1000|32=50|55=T24Q19F|60=20190716-15:27:57.381|487=0|571=201907151429051_AE|762=FUIR|856=96|880=201907160000000003|552=1|54=1|10=005|
8=FIX.4.4|9=0132|35=AR|34=2|49=EXC|56=035|57=035X01|52=20190716-15:29:06.376|571=201907151429051_AE|487=0|856=96|939=0|17=8|60=20190716-15:29:06.376|10=015|
8=FIX.4.4|9=0356|35=AE|34=3|49=EXC|56=035|57=035X01|52=20190716-15:29:21.442|571=201907151429051_AE|487=2|856=99|17=9|573=0|15=COP|880=201907160000000003|75=20190716|55=T24Q19F|762=FUIR|48=26623|22=M|31=1000.000|32=100|381=250000000000.000|60=20190716-15:29:21.442|64=20190716|552=1|54=1|453=3|448=035X01|447=C|452=12|448=035|447=C|452=1|448=035FCM001|447=C|452=36|1=DP003|10=150|
8=FIX.4.4|9=0457|35=8|34=4|49=EXC|56=035|57=035X01|52=20190716-15:29:33.551|11=201907151432401_AJ|17=10|37=0|150=H|1080=20190716-000000000003.00|1081=5|453=5|448=035X01|447=C|452=12|448=035|447=C|452=1|448=071X01|447=C|452=37|448=071|447=C|452=17|448=035FCM001|447=C|452=36|55=T24Q19F|762=FUIR|48=26623|22=M|6=1000.000|14=100|31=1000.000|32=100|38=100|39=2|54=1|60=20190716-15:29:33.551|75=20190716|63=1|64=20190716|151=0|1=DP003|381=250000000000.000|880=201907160000000003|10=143|
8=FIX.4.4|9=59|35=0|34=3|49=035|50=035X01|52=20190715-19:29:46.575|56=EXC|10=097|
>>>>>>> Stashed changes
8=FIX.4.4|9=110|35=A|34=1|49=035|50=035X01|52=20190716-03:15:29.252|56=EXC|43=N|98=0|108=30|141=Y|553=035FCM001|554=035FCM001|10=112|
8=FIX.4.4|9=0067|35=A|34=1|49=EXC|56=035|52=20190716-16:27:10.327|98=0|108=30|141=Y|10=015|
8=FIX.4.4|9=190|35=AE|34=2|49=035|50=035X01|52=20190716-03:15:36.514|56=EXC|31=1000|32=100|55=T24Q19F|60=20190716-16:22:50.201|487=0|571=201907152215261_AE|762=FUIR|856=96|880=201907160000000001|552=1|54=1|10=005|
8=FIX.4.4|9=0132|35=AR|34=2|49=EXC|56=035|57=035X01|52=20190716-16:27:17.571|571=201907152215261_AE|487=0|856=96|939=0|17=2|60=20190716-16:27:17.571|10=002|
8=FIX.4.4|9=0049|35=0|34=3|49=EXC|56=035|52=20190716-16:27:47.000|10=184|
8=FIX.4.4|9=59|35=0|34=3|49=035|50=035X01|52=20190716-03:16:07.193|56=EXC|10=080|
8=FIX.4.4|9=0049|35=0|34=4|49=EXC|56=035|52=20190716-16:28:17.000|10=183|
8=FIX.4.4|9=59|35=0|34=4|49=035|50=035X01|52=20190716-03:16:37.204|56=EXC|10=077|
8=FIX.4.4|9=0049|35=0|34=5|49=EXC|56=035|52=20190716-16:28:47.000|10=187|
8=FIX.4.4|9=59|35=0|34=5|49=035|50=035X01|52=20190716-03:17:08.192|56=EXC|10=083|
8=FIX.4.4|9=0049|35=0|34=6|49=EXC|56=035|52=20190716-16:29:17.000|10=186|
8=FIX.4.4|9=59|35=0|34=6|49=035|50=035X01|52=20190716-03:17:38.191|56=EXC|10=086|
8=FIX.4.4|9=0049|35=0|34=7|49=EXC|56=035|52=20190716-16:29:47.000|10=190|
8=FIX.4.4|9=59|35=0|34=7|49=035|50=035X01|52=20190716-03:18:08.193|56=EXC|10=087|
8=FIX.4.4|9=0049|35=0|34=8|49=EXC|56=035|52=20190716-16:30:17.000|10=180|
8=FIX.4.4|9=59|35=0|34=8|49=035|50=035X01|52=20190716-03:18:38.194|56=EXC|10=092|
8=FIX.4.4|9=0049|35=0|34=9|49=EXC|56=035|52=20190716-16:30:47.000|10=184|
8=FIX.4.4|9=59|35=0|34=9|49=035|50=035X01|52=20190716-03:19:08.193|56=EXC|10=090|
8=FIX.4.4|9=110|35=A|34=1|49=035|50=035X01|52=20190716-03:29:09.649|56=EXC|43=N|98=0|108=30|141=Y|553=035FCM001|554=035FCM001|10=125|
8=FIX.4.4|9=0067|35=A|34=1|49=EXC|56=035|52=20190716-16:40:50.725|98=0|108=30|141=Y|10=016|
8=FIX.4.4|9=190|35=AE|34=2|49=035|50=035X01|52=20190716-03:29:16.855|56=EXC|31=1000|32=100|55=T24Q19F|60=20190716-16:22:50.201|487=0|571=201907152229071_AE|762=FUIR|856=96|880=201907160000000001|552=1|54=1|10=020|
8=FIX.4.4|9=0209|35=AR|34=2|49=EXC|56=035|57=035X01|52=20190716-16:40:57.911|571=201907152229071_AE|487=0|856=96|939=1|17=3|60=20190716-16:40:57.911|751=99|58=(369): Trades with (L) status cannot be requested for cancellation|10=252|
8=FIX.4.4|9=0049|35=0|34=3|49=EXC|56=035|52=20190716-16:41:27.000|10=178|
8=FIX.4.4|9=59|35=0|34=3|49=035|50=035X01|52=20190716-03:29:47.624|56=EXC|10=087|
8=FIX.4.4|9=0049|35=0|34=4|49=EXC|56=035|52=20190716-16:41:57.000|10=182|
8=FIX.4.4|9=110|35=A|34=1|49=035|50=035X01|52=20190716-03:32:23.686|56=EXC|43=N|98=0|108=30|141=Y|553=035FCM001|554=035FCM001|10=116|
8=FIX.4.4|9=0067|35=A|34=1|49=EXC|56=035|52=20190716-16:44:04.762|98=0|108=30|141=Y|10=020|
8=FIX.4.4|9=190|35=AE|34=2|49=035|50=035X01|52=20190716-03:32:30.866|56=EXC|31=1000|32=100|55=T24Q19F|60=20190716-16:42:55.269|487=0|571=201907152232211_AE|762=FUIR|856=96|880=201907160000000002|552=1|54=1|10=024|
8=FIX.4.4|9=0132|35=AR|34=2|49=EXC|56=035|57=035X01|52=20190716-16:44:11.923|571=201907152232211_AE|487=0|856=96|939=0|17=5|60=20190716-16:44:11.923|10=243|
8=FIX.4.4|9=0049|35=0|34=3|49=EXC|56=035|52=20190716-16:44:41.000|10=177|
8=FIX.4.4|9=59|35=0|34=3|49=035|50=035X01|52=20190716-03:33:01.657|56=EXC|10=078|
8=FIX.4.4|9=0049|35=0|34=4|49=EXC|56=035|52=20190716-16:45:11.000|10=176|
8=FIX.4.4|9=59|35=0|34=4|49=035|50=035X01|52=20190716-03:33:31.656|56=EXC|10=081|
8=FIX.4.4|9=110|35=A|34=1|49=035|50=035X01|52=20190716-13:27:11.977|56=EXC|43=N|98=0|108=30|141=Y|553=035FCM001|554=035FCM001|10=121|
8=FIX.4.4|9=0067|35=A|34=1|49=EXC|56=035|52=20190717-13:27:12.085|98=0|108=30|141=Y|10=016|
8=FIX.4.4|9=189|35=AE|34=2|49=035|50=035X01|52=20190716-13:27:19.334|56=EXC|31=1000|32=100|55=T24Q19F|60=20190716-16:42:55.269|487=0|571=20190716827071_AE|762=FUIR|856=96|880=201907160000000002|552=1|54=1|10=255|
8=FIX.4.4|9=0169|35=AR|34=2|49=EXC|56=035|57=035X01|52=20190717-13:27:19.377|571=20190716827071_AE|487=0|856=96|939=1|17=5|60=20190717-13:27:19.377|751=99|58=(138): Invalid Trade Number|10=142|
8=FIX.4.4|9=0049|35=0|34=3|49=EXC|56=035|52=20190717-13:27:49.000|10=184|
8=FIX.4.4|9=59|35=0|34=3|49=035|50=035X01|52=20190716-13:27:49.922|56=EXC|10=089|
8=FIX.4.4|9=0049|35=0|34=4|49=EXC|56=035|52=20190717-13:28:19.000|10=183|
8=FIX.4.4|9=59|35=0|34=4|49=035|50=035X01|52=20190716-13:28:19.921|56=EXC|10=087|
8=FIX.4.4|9=110|35=A|34=1|49=035|50=035X01|52=20190716-13:29:28.371|56=EXC|43=N|98=0|108=30|141=Y|553=035FCM001|554=035FCM001|10=119|
8=FIX.4.4|9=0067|35=A|34=1|49=EXC|56=035|52=20190717-13:29:28.433|98=0|108=30|141=Y|10=022|
8=FIX.4.4|9=189|35=AE|34=2|49=035|50=035X01|52=20190716-13:29:35.606|56=EXC|31=1000|32=100|55=T24Q19F|60=20190717-13:24:54.135|487=0|571=20190716829251_AE|762=FUIR|856=96|880=201907170000000003|552=1|54=1|10=250|
8=FIX.4.4|9=0131|35=AR|34=2|49=EXC|56=035|57=035X01|52=20190717-13:29:35.649|571=20190716829251_AE|487=0|856=96|939=0|17=6|60=20190717-13:29:35.649|10=234|
8=FIX.4.4|9=0354|35=AE|34=3|49=EXC|56=035|57=035X01|52=20190717-13:29:51.342|571=20190716829251_AE|487=2|856=99|17=7|573=0|15=COP|880=201907170000000003|75=20190717|55=T24Q19F|762=FUIR|48=26623|22=M|31=1000.000|32=50|381=125000000000.000|60=20190717-13:29:51.342|64=20190717|552=1|54=1|453=3|448=035X01|447=C|452=12|448=035|447=C|452=1|448=035FCM001|447=C|452=36|1=DP003|10=066|
8=FIX.4.4|9=0450|35=8|34=4|49=EXC|56=035|57=035X01|52=20190717-13:30:03.319|11=156328349410857|17=8|37=0|150=H|1080=20190717-000000000008.00|1081=5|453=5|448=035X01|447=C|452=12|448=035|447=C|452=1|448=071X01|447=C|452=37|448=071|447=C|452=17|448=035FCM001|447=C|452=36|55=T24Q19F|762=FUIR|48=26623|22=M|6=1000.000|14=50|31=1000.000|32=50|38=50|39=2|54=1|60=20190717-13:30:03.319|75=20190717|63=1|64=20190717|151=0|1=DP003|381=125000000000.000|880=201907170000000003|10=001|
8=FIX.4.4|9=59|35=0|34=3|49=035|50=035X01|52=20190716-13:30:06.347|56=EXC|10=077|
8=FIX.4.4|9=59|35=5|34=4|49=035|50=035X01|52=20190716-13:30:27.347|56=EXC|10=086|
8=FIX.4.4|9=0049|35=5|34=5|49=EXC|56=035|52=20190717-13:30:27.414|10=190|
8=FIX.4.4|9=110|35=A|34=1|49=035|50=035X01|52=20190716-19:14:32.310|56=EXC|43=N|98=0|108=30|141=Y|553=035FCM001|554=035FCM001|10=107|
8=FIX.4.4|9=0067|35=A|34=1|49=EXC|56=035|52=20190717-19:14:32.461|98=0|108=30|141=Y|10=018|
8=FIX.4.4|9=190|35=AE|34=2|49=035|50=035X01|52=20190716-19:14:44.713|56=EXC|31=1000|32=100|55=T24Q19F|60=20190717-13:26:03.952|487=0|571=201907161414281_AE|762=FUIR|856=96|880=201907170000000004|552=1|54=1|10=031|
8=FIX.4.4|9=0133|35=AR|34=2|49=EXC|56=035|57=035X01|52=20190717-19:14:44.785|571=201907161414281_AE|487=0|856=96|939=0|17=31|60=20190717-19:14:44.785|10=070|
8=FIX.4.4|9=0356|35=AE|34=3|49=EXC|56=035|57=035X01|52=20190717-19:15:05.488|571=201907161414281_AE|487=2|856=99|17=32|573=0|15=COP|880=201907170000000004|75=20190717|55=T24Q19F|762=FUIR|48=26623|22=M|31=1000.000|32=50|381=125000000000.000|60=20190717-19:15:05.488|64=20190717|552=1|54=1|453=3|448=035X01|447=C|452=12|448=035|447=C|452=1|448=035FCM001|447=C|452=36|1=DP003|10=179|
8=FIX.4.4|9=59|35=0|34=3|49=035|50=035X01|52=20190716-19:15:15.205|56=EXC|10=079|
8=FIX.4.4|9=0451|35=8|34=4|49=EXC|56=035|57=035X01|52=20190717-19:15:17.680|11=156328356392059|17=33|37=0|150=H|1080=20190717-000000000009.00|1081=5|453=5|448=035X01|447=C|452=12|448=035|447=C|452=1|448=071X01|447=C|452=37|448=071|447=C|452=17|448=035FCM001|447=C|452=36|55=T24Q19F|762=FUIR|48=26623|22=M|6=1000.000|14=50|31=1000.000|32=50|38=50|39=2|54=1|60=20190717-19:15:17.680|75=20190717|63=1|64=20190717|151=0|1=DP003|381=125000000000.000|880=201907170000000004|10=081|
8=FIX.4.4|9=59|35=5|34=4|49=035|50=035X01|52=20190716-19:15:21.203|56=EXC|10=080|
8=FIX.4.4|9=0049|35=5|34=5|49=EXC|56=035|52=20190717-19:15:21.277|10=200|
8=FIX.4.4|9=110|35=A|34=1|49=035|50=035X01|52=20190716-19:48:53.428|56=EXC|43=N|98=0|108=30|141=Y|553=035FCM001|554=035FCM001|10=127|
8=FIX.4.4|9=0067|35=A|34=1|49=EXC|56=035|52=20190717-19:48:53.518|98=0|108=30|141=Y|10=031|
8=FIX.4.4|9=190|35=AE|34=2|49=035|50=035X01|52=20190716-19:49:05.633|56=EXC|31=1000|32=100|55=T24Q19F|60=20190717-19:46:41.204|487=0|571=201907161448501_AE|762=FUIR|856=96|880=201907170000000025|552=1|54=1|10=042|
8=FIX.4.4|9=0133|35=AR|34=2|49=EXC|56=035|57=035X01|52=20190717-19:49:05.702|571=201907161448501_AE|487=0|856=96|939=0|17=37|60=20190717-19:49:05.702|10=066|
8=FIX.4.4|9=0356|35=AE|34=3|49=EXC|56=035|57=035X01|52=20190717-19:49:26.288|571=201907161448501_AE|487=2|856=99|17=38|573=0|15=COP|880=201907170000000025|75=20190717|55=T24Q19F|762=FUIR|48=26623|22=M|31=1000.000|32=50|381=125000000000.000|60=20190717-19:49:26.288|64=20190717|552=1|54=1|453=3|448=035X01|447=C|452=12|448=035|447=C|452=1|448=035FCM001|447=C|452=36|1=DP003|10=206|
8=FIX.4.4|9=59|35=0|34=3|49=035|50=035X01|52=20190716-19:49:36.459|56=EXC|10=100|
8=FIX.4.4|9=0049|35=0|34=4|49=EXC|56=035|52=20190717-19:49:56.000|10=193|
8=FIX.4.4|9=59|35=0|34=4|49=035|50=035X01|52=20190716-19:50:07.401|56=EXC|10=078|
8=FIX.4.4|9=0049|35=0|34=5|49=EXC|56=035|52=20190717-19:50:26.000|10=183|
8=FIX.4.4|9=59|35=0|34=5|49=035|50=035X01|52=20190716-19:50:37.400|56=EXC|10=081|
8=FIX.4.4|9=0049|35=0|34=6|49=EXC|56=035|52=20190717-19:50:56.000|10=187|
8=FIX.4.4|9=59|35=0|34=6|49=035|50=035X01|52=20190716-19:51:07.401|56=EXC|10=081|
8=FIX.4.4|9=0049|35=0|34=7|49=EXC|56=035|52=20190717-19:51:26.000|10=186|
8=FIX.4.4|9=59|35=0|34=7|49=035|50=035X01|52=20190716-19:51:37.402|56=EXC|10=086|
8=FIX.4.4|9=0049|35=0|34=8|49=EXC|56=035|52=20190717-19:51:56.000|10=190|
8=FIX.4.4|9=59|35=0|34=8|49=035|50=035X01|52=20190716-19:52:07.402|56=EXC|10=085|
8=FIX.4.4|9=0049|35=0|34=9|49=EXC|56=035|52=20190717-19:52:26.000|10=189|
8=FIX.4.4|9=59|35=0|34=9|49=035|50=035X01|52=20190716-19:52:37.401|56=EXC|10=088|
8=FIX.4.4|9=0050|35=0|34=10|49=EXC|56=035|52=20190717-19:52:56.000|10=224|
8=FIX.4.4|9=60|35=0|34=10|49=035|50=035X01|52=20190716-19:53:07.400|56=EXC|10=117|
8=FIX.4.4|9=0050|35=0|34=11|49=EXC|56=035|52=20190717-19:53:26.000|10=223|
8=FIX.4.4|9=60|35=0|34=11|49=035|50=035X01|52=20190716-19:53:37.401|56=EXC|10=122|
8=FIX.4.4|9=0050|35=0|34=12|49=EXC|56=035|52=20190717-19:53:56.000|10=227|
8=FIX.4.4|9=60|35=0|34=12|49=035|50=035X01|52=20190716-19:54:07.402|56=EXC|10=122|
8=FIX.4.4|9=0050|35=0|34=13|49=EXC|56=035|52=20190717-19:54:26.000|10=226|
8=FIX.4.4|9=60|35=0|34=13|49=035|50=035X01|52=20190716-19:54:37.406|56=EXC|10=130|
8=FIX.4.4|9=0050|35=0|34=14|49=EXC|56=035|52=20190717-19:54:56.000|10=230|
8=FIX.4.4|9=60|35=0|34=14|49=035|50=035X01|52=20190716-19:55:07.403|56=EXC|10=126|
8=FIX.4.4|9=0050|35=0|34=15|49=EXC|56=035|52=20190717-19:55:26.000|10=229|
8=FIX.4.4|9=60|35=0|34=15|49=035|50=035X01|52=20190716-19:55:37.403|56=EXC|10=130|
8=FIX.4.4|9=0050|35=0|34=16|49=EXC|56=035|52=20190717-19:55:56.000|10=233|
8=FIX.4.4|9=60|35=0|34=16|49=035|50=035X01|52=20190716-19:56:07.403|56=EXC|10=129|
8=FIX.4.4|9=0050|35=0|34=17|49=EXC|56=035|52=20190717-19:56:26.000|10=232|
8=FIX.4.4|9=60|35=0|34=17|49=035|50=035X01|52=20190716-19:56:37.402|56=EXC|10=132|
8=FIX.4.4|9=0050|35=0|34=18|49=EXC|56=035|52=20190717-19:56:56.000|10=236|
8=FIX.4.4|9=60|35=0|34=18|49=035|50=035X01|52=20190716-19:57:07.403|56=EXC|10=132|
8=FIX.4.4|9=0050|35=0|34=19|49=EXC|56=035|52=20190717-19:57:26.000|10=235|
8=FIX.4.4|9=60|35=0|34=19|49=035|50=035X01|52=20190716-19:57:37.402|56=EXC|10=135|
8=FIX.4.4|9=0050|35=0|34=20|49=EXC|56=035|52=20190717-19:57:56.000|10=230|
8=FIX.4.4|9=60|35=0|34=20|49=035|50=035X01|52=20190716-19:58:07.402|56=EXC|10=125|
8=FIX.4.4|9=0050|35=0|34=21|49=EXC|56=035|52=20190717-19:58:26.000|10=229|
8=FIX.4.4|9=60|35=0|34=21|49=035|50=035X01|52=20190716-19:58:37.402|56=EXC|10=129|
