8=FIX.4.4|9=82|35=A|34=1|49=073|50=073X01|52=20190711-19:05:54.366|56=EXC|43=N|98=0|108=30|141=Y|10=156|
8=FIX.4.4|9=82|35=A|34=1|49=073|50=073X01|52=20190711-19:06:52.410|56=EXC|43=N|98=0|108=30|141=Y|10=145|
8=FIX.4.4|9=82|35=A|34=1|49=073|50=073X01|52=20190711-19:07:52.341|56=EXC|43=N|98=0|108=30|141=Y|10=149|
8=FIX.4.4|9=110|35=A|34=1|49=073|50=073X01|52=20190711-19:08:53.523|56=EXC|43=N|98=0|108=30|141=Y|553=073FCM001|554=073FCM001|10=122|
8=FIX.4.4|9=0067|35=A|34=1|49=EXC|56=073|52=20190711-19:09:30.351|98=0|108=30|141=Y|10=014|
8=FIX.4.4|9=110|35=A|34=1|49=073|50=073X01|52=20190711-19:09:36.190|56=EXC|43=N|98=0|108=30|141=Y|553=073FCM001|554=073FCM001|10=124|
8=FIX.4.4|9=0067|35=A|34=1|49=EXC|56=073|52=20190711-19:10:13.038|98=0|108=30|141=Y|10=009|
8=FIX.4.4|9=110|35=A|34=1|49=073|50=073X01|52=20190711-19:26:44.106|56=EXC|43=N|98=0|108=30|141=Y|553=073FCM001|554=073FCM001|10=119|
8=FIX.4.4|9=0067|35=A|34=1|49=EXC|56=073|52=20190711-19:27:20.955|98=0|108=30|141=Y|10=023|
8=FIX.4.4|9=0049|35=0|34=2|49=EXC|56=073|52=20190711-19:27:50.000|10=177|
8=FIX.4.4|9=59|35=0|34=2|49=073|50=073X01|52=20190711-19:27:14.902|56=EXC|10=083|
8=FIX.4.4|9=0049|35=0|34=3|49=EXC|56=073|52=20190711-19:28:20.000|10=176|
8=FIX.4.4|9=59|35=0|34=3|49=073|50=073X01|52=20190711-19:27:44.902|56=EXC|10=087|
8=FIX.4.4|9=0049|35=0|34=4|49=EXC|56=073|52=20190711-19:28:50.000|10=180|
8=FIX.4.4|9=59|35=0|34=4|49=073|50=073X01|52=20190711-19:28:14.894|56=EXC|10=096|
8=FIX.4.4|9=110|35=A|34=1|49=073|50=073X01|52=20190711-19:39:14.999|56=EXC|43=N|98=0|108=30|141=Y|553=073FCM001|554=073FCM001|10=140|
8=FIX.4.4|9=0067|35=A|34=1|49=EXC|56=073|52=20190711-19:39:51.869|98=0|108=30|141=Y|10=034|
8=FIX.4.4|9=0214|35=R|34=2|49=EXC|56=073|57=073X01|52=20190711-19:39:58.894|131=20190711-000000000010.00|146=1|55=T24Q19F|762=FUIR|48=26623|22=M|54=1|38=200|453=3|448=072X01|447=C|452=12|448=072|447=C|452=1|448=073X01|447=C|452=37|10=075|
8=FIX.4.4|9=169|35=S|34=2|49=073|50=073X01|52=20190711-19:39:42.221|56=EXC|1=DP001|55=T24Q19F|62=20190711-14:41:04.000|117=201907111439114_S|131=20190711-000000000010.00|135=0|762=FUIR|10=104|
8=FIX.4.4|9=0197|35=AI|34=3|49=EXC|56=073|57=073X01|52=20190711-19:40:19.070|117=201907111439114_S|55=T24Q19F|762=FUIR|1=DP001|135=0|62=20190711-14:41:04.000|297=9|300=99|58=(408): A price or yield must be entered|10=067|
8=FIX.4.4|9=59|35=5|34=3|49=073|50=073X01|52=20190711-19:40:07.961|56=EXC|10=091|
8=FIX.4.4|9=0049|35=5|34=4|49=EXC|56=073|52=20190711-19:40:44.805|10=195|
8=FIX.4.4|9=110|35=A|34=1|49=073|50=073X01|52=20190711-19:49:34.396|56=EXC|43=N|98=0|108=30|141=Y|553=073FCM001|554=073FCM001|10=134|
8=FIX.4.4|9=0067|35=A|34=1|49=EXC|56=073|52=20190711-19:50:11.272|98=0|108=30|141=Y|10=011|
8=FIX.4.4|9=110|35=A|34=1|49=073|50=073X01|52=20190711-19:51:02.871|56=EXC|43=N|98=0|108=30|141=Y|553=073FCM001|554=073FCM001|10=120|
8=FIX.4.4|9=0067|35=A|34=1|49=EXC|56=073|52=20190711-19:51:39.732|98=0|108=30|141=Y|10=023|
8=FIX.4.4|9=0049|35=0|34=2|49=EXC|56=073|52=20190711-19:52:09.000|10=179|
8=FIX.4.4|9=59|35=0|34=2|49=073|50=073X01|52=20190711-19:51:32.866|56=EXC|10=089|
8=FIX.4.4|9=0049|35=0|34=3|49=EXC|56=073|52=20190711-19:52:39.000|10=183|
8=FIX.4.4|9=59|35=0|34=3|49=073|50=073X01|52=20190711-19:52:02.867|56=EXC|10=089|
8=FIX.4.4|9=110|35=A|34=1|49=073|50=073X01|52=20190711-19:56:25.871|56=EXC|43=N|98=0|108=30|141=Y|553=073FCM001|554=073FCM001|10=130|
8=FIX.4.4|9=0067|35=A|34=1|49=EXC|56=073|52=20190711-19:57:02.741|98=0|108=30|141=Y|10=019|
8=FIX.4.4|9=0213|35=R|34=2|49=EXC|56=073|57=073X01|52=20190711-19:57:09.662|131=20190711-000000000012.00|146=1|55=T24Q19F|762=FUIR|48=26623|22=M|54=1|38=90|453=3|448=072X01|447=C|452=12|448=072|447=C|452=1|448=073X01|447=C|452=37|10=024|
8=FIX.4.4|9=169|35=S|34=2|49=073|50=073X01|52=20190711-19:56:52.958|56=EXC|1=DP001|55=T24Q19F|62=20190711-14:41:04.000|117=201907111456225_S|131=20190711-000000000012.00|135=0|762=FUIR|10=125|
8=FIX.4.4|9=0197|35=AI|34=3|49=EXC|56=073|57=073X01|52=20190711-19:57:29.813|117=201907111456225_S|55=T24Q19F|762=FUIR|1=DP001|135=0|62=20190711-14:41:04.000|297=9|300=99|58=(408): A price or yield must be entered|10=083|
8=FIX.4.4|9=110|35=A|34=1|49=073|50=073X01|52=20190711-20:05:40.533|56=EXC|43=N|98=0|108=30|141=Y|553=073FCM001|554=073FCM001|10=108|
8=FIX.4.4|9=0067|35=A|34=1|49=EXC|56=073|52=20190711-20:06:17.408|98=0|108=30|141=Y|10=011|
8=FIX.4.4|9=59|35=5|34=2|49=073|50=073X01|52=20190711-20:06:08.403|56=EXC|10=076|
8=FIX.4.4|9=0049|35=5|34=2|49=EXC|56=073|52=20190711-20:06:45.260|10=183|
8=FIX.4.4|9=110|35=A|34=1|49=073|50=073X01|52=20190711-20:07:49.385|56=EXC|43=N|98=0|108=30|141=Y|553=073FCM001|554=073FCM001|10=124|
8=FIX.4.4|9=0067|35=A|34=1|49=EXC|56=073|52=20190711-20:08:26.264|98=0|108=30|141=Y|10=013|
8=FIX.4.4|9=0214|35=R|34=2|49=EXC|56=073|57=073X01|52=20190711-20:08:33.214|131=20190711-000000000013.00|146=1|55=T24Q19F|762=FUIR|48=26623|22=M|54=1|38=110|453=3|448=072X01|447=C|452=12|448=072|447=C|452=1|448=073X01|447=C|452=37|10=045|
8=FIX.4.4|9=169|35=S|34=2|49=073|50=073X01|52=20190711-20:08:16.468|56=EXC|1=DP001|55=T24Q19F|62=20190711-14:41:04.000|117=201907111507456_S|131=20190711-000000000013.00|135=0|762=FUIR|10=114|
8=FIX.4.4|9=0197|35=AI|34=3|49=EXC|56=073|57=073X01|52=20190711-20:08:53.323|117=201907111507456_S|55=T24Q19F|762=FUIR|1=DP001|135=0|62=20190711-14:41:04.000|297=9|300=99|58=(408): A price or yield must be entered|10=067|
8=FIX.4.4|9=110|35=A|34=1|49=073|50=073X01|52=20190711-20:10:14.267|56=EXC|43=N|98=0|108=30|141=Y|553=073FCM001|554=073FCM001|10=109|
8=FIX.4.4|9=0067|35=A|34=1|49=EXC|56=073|52=20190711-20:10:51.153|98=0|108=30|141=Y|10=001|
8=FIX.4.4|9=59|35=5|34=2|49=073|50=073X01|52=20190711-20:10:42.203|56=EXC|10=067|
8=FIX.4.4|9=0049|35=5|34=2|49=EXC|56=073|52=20190711-20:11:19.076|10=185|
8=FIX.4.4|9=110|35=A|34=1|49=073|50=073X01|52=20190711-22:37:54.746|56=EXC|43=N|98=0|108=30|141=Y|553=073FCM001|554=073FCM001|10=126|
8=FIX.4.4|9=0067|35=A|34=1|49=EXC|56=073|52=20190711-22:43:56.005|98=0|108=30|141=Y|10=010|
8=FIX.4.4|9=110|35=A|34=1|49=073|50=073X01|52=20190711-22:40:54.505|56=EXC|43=N|98=0|108=30|141=Y|553=073FCM001|554=073FCM001|10=113|
8=FIX.4.4|9=0067|35=A|34=1|49=EXC|56=073|52=20190711-22:46:55.768|98=0|108=30|141=Y|10=028|
8=FIX.4.4|9=0049|35=0|34=2|49=EXC|56=073|52=20190711-22:47:25.000|10=175|
8=FIX.4.4|9=59|35=0|34=2|49=073|50=073X01|52=20190711-22:41:25.448|56=EXC|10=080|
8=FIX.4.4|9=110|35=A|34=1|49=073|50=073X01|52=20190711-23:06:02.212|56=EXC|43=N|98=0|108=30|141=Y|553=073FCM001|554=073FCM001|10=104|
8=FIX.4.4|9=0067|35=A|34=1|49=EXC|56=073|52=20190711-23:12:03.619|98=0|108=30|141=Y|10=010|
8=FIX.4.4|9=110|35=A|34=1|49=073|50=073X01|52=20190711-23:09:29.772|56=EXC|43=N|98=0|108=30|141=Y|553=073FCM001|554=073FCM001|10=127|
8=FIX.4.4|9=0067|35=A|34=1|49=EXC|56=073|52=20190711-23:15:31.072|98=0|108=30|141=Y|10=007|
8=FIX.4.4|9=110|35=A|34=1|49=073|50=073X01|52=20190711-23:16:57.018|56=EXC|43=N|98=0|108=30|141=Y|553=073FCM001|554=073FCM001|10=119|
8=FIX.4.4|9=0067|35=A|34=1|49=EXC|56=073|52=20190711-23:22:58.293|98=0|108=30|141=Y|10=019|
8=FIX.4.4|9=110|35=A|34=1|49=073|50=073X01|52=20190711-23:20:58.002|56=EXC|43=N|98=0|108=30|141=Y|553=073FCM001|554=073FCM001|10=108|
8=FIX.4.4|9=0067|35=A|34=1|49=EXC|56=073|52=20190711-23:26:59.289|98=0|108=30|141=Y|10=029|
8=FIX.4.4|9=110|35=A|34=1|49=073|50=073X01|52=20190711-23:38:30.618|56=EXC|43=N|98=0|108=30|141=Y|553=073FCM001|554=073FCM001|10=120|
8=FIX.4.4|9=0067|35=A|34=1|49=EXC|56=073|52=20190711-23:44:31.934|98=0|108=30|141=Y|10=016|
8=FIX.4.4|9=110|35=A|34=1|49=073|50=073X01|52=20190711-23:45:03.678|56=EXC|43=N|98=0|108=30|141=Y|553=073FCM001|554=073FCM001|10=124|
8=FIX.4.4|9=0067|35=A|34=1|49=EXC|56=073|52=20190711-23:51:04.982|98=0|108=30|141=Y|10=017|
8=FIX.4.4|9=110|35=A|34=1|49=073|50=073X01|52=20190711-23:50:30.305|56=EXC|43=N|98=0|108=30|141=Y|553=073FCM001|554=073FCM001|10=107|
8=FIX.4.4|9=0067|35=A|34=1|49=EXC|56=073|52=20190711-23:56:31.625|98=0|108=30|141=Y|10=016|
8=FIX.4.4|9=110|35=A|34=1|49=073|50=073X01|52=20190712-00:00:19.920|56=EXC|43=N|98=0|108=30|141=Y|553=073FCM001|554=073FCM001|10=108|
8=FIX.4.4|9=0067|35=A|34=1|49=EXC|56=073|52=20190712-00:06:21.237|98=0|108=30|141=Y|10=005|
8=FIX.4.4|9=110|35=A|34=1|49=073|50=073X01|52=20190712-15:10:49.192|56=EXC|43=N|98=0|108=30|141=Y|553=073FCM001|554=073FCM001|10=119|
8=FIX.4.4|9=0067|35=A|34=1|49=EXC|56=073|52=20190712-15:52:04.208|98=0|108=30|141=Y|10=011|
8=FIX.4.4|9=110|35=A|34=1|49=073|50=073X01|52=20190712-15:11:37.328|56=EXC|43=N|98=0|108=30|141=Y|553=073FCM001|554=073FCM001|10=118|
8=FIX.4.4|9=0067|35=A|34=1|49=EXC|56=073|52=20190712-15:52:52.361|98=0|108=30|141=Y|10=014|
8=FIX.4.4|9=110|35=A|34=1|49=073|50=073X01|52=20190712-15:16:16.265|56=EXC|43=N|98=0|108=30|141=Y|553=073FCM001|554=073FCM001|10=120|
8=FIX.4.4|9=0067|35=A|34=1|49=EXC|56=073|52=20190712-15:57:31.294|98=0|108=30|141=Y|10=021|
8=FIX.4.4|9=110|35=A|34=1|49=073|50=073X01|52=20190712-15:16:57.260|56=EXC|43=N|98=0|108=30|141=Y|553=073FCM001|554=073FCM001|10=120|
8=FIX.4.4|9=0067|35=A|34=1|49=EXC|56=073|52=20190712-15:58:12.277|98=0|108=30|141=Y|10=022|
8=FIX.4.4|9=110|35=A|34=1|49=073|50=073X01|52=20190712-15:22:33.518|56=EXC|43=N|98=0|108=30|141=Y|553=073FCM001|554=073FCM001|10=117|
8=FIX.4.4|9=0067|35=A|34=1|49=EXC|56=073|52=20190712-16:03:48.546|98=0|108=30|141=Y|10=021|
8=FIX.4.4|9=0049|35=0|34=2|49=EXC|56=073|52=20190712-16:04:18.000|10=174|
8=FIX.4.4|9=59|35=0|34=2|49=073|50=073X01|52=20190712-15:23:04.464|56=EXC|10=078|
8=FIX.4.4|9=110|35=A|34=1|49=073|50=073X01|52=20190712-15:24:19.703|56=EXC|43=N|98=0|108=30|141=Y|553=073FCM001|554=073FCM001|10=119|
8=FIX.4.4|9=0067|35=A|34=1|49=EXC|56=073|52=20190712-16:05:34.734|98=0|108=30|141=Y|10=017|
8=FIX.4.4|9=110|35=A|34=1|49=073|50=073X01|52=20190712-15:25:07.237|56=EXC|43=N|98=0|108=30|141=Y|553=073FCM001|554=073FCM001|10=119|
8=FIX.4.4|9=0067|35=A|34=1|49=EXC|56=073|52=20190712-16:06:22.297|98=0|108=30|141=Y|10=019|
8=FIX.4.4|9=0049|35=0|34=2|49=EXC|56=073|52=20190712-16:06:52.000|10=174|
8=FIX.4.4|9=59|35=0|34=2|49=073|50=073X01|52=20190712-15:25:37.949|56=EXC|10=094|
8=FIX.4.4|9=110|35=A|34=1|49=073|50=073X01|52=20190712-15:30:16.049|56=EXC|43=N|98=0|108=30|141=Y|553=073FCM001|554=073FCM001|10=116|
8=FIX.4.4|9=0067|35=A|34=1|49=EXC|56=073|52=20190712-16:11:31.088|98=0|108=30|141=Y|10=013|
8=FIX.4.4|9=0049|35=0|34=2|49=EXC|56=073|52=20190712-16:12:01.000|10=165|
8=FIX.4.4|9=59|35=0|34=2|49=073|50=073X01|52=20190712-15:30:46.945|56=EXC|10=086|
8=FIX.4.4|9=110|35=A|34=1|49=073|50=073X01|52=20190712-16:34:45.889|56=EXC|43=N|98=0|108=30|141=Y|553=073FCM001|554=073FCM001|10=135|
8=FIX.4.4|9=0067|35=A|34=1|49=EXC|56=073|52=20190712-17:16:00.971|98=0|108=30|141=Y|10=016|
8=FIX.4.4|9=110|35=A|34=1|49=073|50=073X01|52=20190712-16:44:17.729|56=EXC|43=N|98=0|108=30|141=Y|553=073FCM001|554=073FCM001|10=128|
8=FIX.4.4|9=0067|35=A|34=1|49=EXC|56=073|52=20190712-17:25:32.813|98=0|108=30|141=Y|10=016|
8=FIX.4.4|9=0049|35=0|34=2|49=EXC|56=073|52=20190712-17:26:02.000|10=172|
8=FIX.4.4|9=59|35=0|34=2|49=073|50=073X01|52=20190712-16:44:48.678|56=EXC|10=097|
8=FIX.4.4|9=110|35=A|34=1|49=073|50=073X01|52=20190712-16:49:07.125|56=EXC|43=N|98=0|108=30|141=Y|553=073FCM001|554=073FCM001|10=122|
8=FIX.4.4|9=0067|35=A|34=1|49=EXC|56=073|52=20190712-17:30:22.235|98=0|108=30|141=Y|10=009|
8=FIX.4.4|9=0049|35=0|34=2|49=EXC|56=073|52=20190712-17:30:52.000|10=172|
8=FIX.4.4|9=59|35=0|34=2|49=073|50=073X01|52=20190712-16:49:37.905|56=EXC|10=093|
8=FIX.4.4|9=59|35=5|34=3|49=073|50=073X01|52=20190712-16:49:49.913|56=EXC|10=101|
8=FIX.4.4|9=0049|35=5|34=3|49=EXC|56=073|52=20190712-17:31:04.973|10=195|
8=FIX.4.4|9=110|35=A|34=1|49=073|50=073X01|52=20190712-19:50:07.786|56=EXC|43=N|98=0|108=30|141=Y|553=073FCM001|554=073FCM001|10=130|
8=FIX.4.4|9=0067|35=A|34=1|49=EXC|56=073|52=20190712-20:31:23.060|98=0|108=30|141=Y|10=001|
