8=FIX.4.4|9=110|35=A|34=1|49=073|50=073X01|52=20190712-20:56:32.070|56=EXC|43=N|98=0|108=30|141=Y|553=073FCM001|554=073FCM001|10=112|
8=FIX.4.4|9=0067|35=A|34=1|49=EXC|56=073|52=20190712-21:31:45.161|98=0|108=30|141=Y|10=008|
8=FIX.4.4|9=0049|35=0|34=2|49=EXC|56=073|52=20190712-21:32:15.000|10=168|
8=FIX.4.4|9=59|35=0|34=2|49=073|50=073X01|52=20190712-20:57:03.009|56=EXC|10=075|
8=FIX.4.4|9=0049|35=0|34=3|49=EXC|56=073|52=20190712-21:32:45.000|10=172|
8=FIX.4.4|9=59|35=0|34=3|49=073|50=073X01|52=20190712-20:57:33.008|56=EXC|10=078|
8=FIX.4.4|9=110|35=A|34=1|49=073|50=073X01|52=20190714-00:01:28.530|56=EXC|43=N|98=0|108=30|141=Y|553=073FCM001|554=073FCM001|10=108|
8=FIX.4.4|9=0067|35=A|34=1|49=EXC|56=073|52=20190716-17:40:38.631|98=0|108=30|141=Y|10=021|
8=FIX.4.4|9=0049|35=0|34=2|49=EXC|56=073|52=20190716-17:41:08.000|10=179|
8=FIX.4.4|9=59|35=0|34=2|49=073|50=073X01|52=20190714-00:01:59.516|56=EXC|10=078|
8=FIX.4.4|9=110|35=A|34=1|49=073|50=073X01|52=20190714-00:12:53.159|56=EXC|43=N|98=0|108=30|141=Y|553=073FCM001|554=073FCM001|10=115|
8=FIX.4.4|9=0067|35=A|34=1|49=EXC|56=073|52=20190716-17:52:03.272|98=0|108=30|141=Y|10=017|
8=FIX.4.4|9=110|35=A|34=1|49=073|50=073X01|52=20190714-01:40:48.924|56=EXC|43=N|98=0|108=30|141=Y|553=073FCM001|554=073FCM001|10=121|
8=FIX.4.4|9=0067|35=A|34=1|49=EXC|56=073|52=20190716-16:00:59.016|98=0|108=30|141=Y|10=016|
8=FIX.4.4|9=59|35=0|34=2|49=073|50=073X01|52=20190714-01:41:18.925|56=EXC|10=082|
8=FIX.4.4|9=0049|35=0|34=2|49=EXC|56=073|52=20190716-16:01:29.000|10=177|
8=FIX.4.4|9=110|35=A|34=1|49=073|50=073X01|52=20190714-01:44:26.433|56=EXC|43=N|98=0|108=30|141=Y|553=073FCM001|554=073FCM001|10=116|
8=FIX.4.4|9=0067|35=A|34=1|49=EXC|56=073|52=20190716-16:04:36.528|98=0|108=30|141=Y|10=023|
8=FIX.4.4|9=0049|35=0|34=2|49=EXC|56=073|52=20190716-16:05:06.000|10=176|
8=FIX.4.4|9=59|35=0|34=2|49=073|50=073X01|52=20190714-01:44:57.396|56=EXC|10=090|
8=FIX.4.4|9=0049|35=0|34=3|49=EXC|56=073|52=20190716-16:05:36.000|10=180|
8=FIX.4.4|9=59|35=0|34=3|49=073|50=073X01|52=20190714-01:45:27.402|56=EXC|10=077|
8=FIX.4.4|9=110|35=A|34=1|49=073|50=073X01|52=20190714-01:58:41.128|56=EXC|43=N|98=0|108=30|141=Y|553=073FCM001|554=073FCM001|10=119|
8=FIX.4.4|9=0067|35=A|34=1|49=EXC|56=073|52=20190716-16:18:51.213|98=0|108=30|141=Y|10=016|
8=FIX.4.4|9=0049|35=0|34=2|49=EXC|56=073|52=20190716-16:19:21.000|10=178|
8=FIX.4.4|9=59|35=0|34=2|49=073|50=073X01|52=20190714-01:59:12.102|56=EXC|10=072|
8=FIX.4.4|9=110|35=A|34=1|49=073|50=073X01|52=20190714-03:12:45.749|56=EXC|43=N|98=0|108=30|141=Y|553=073FCM001|554=073FCM001|10=124|
8=FIX.4.4|9=0067|35=A|34=1|49=EXC|56=073|52=20190716-17:32:55.844|98=0|108=30|141=Y|10=027|
8=FIX.4.4|9=0049|35=0|34=2|49=EXC|56=073|52=20190716-17:33:25.000|10=179|
8=FIX.4.4|9=59|35=0|34=2|49=073|50=073X01|52=20190714-03:13:16.720|56=EXC|10=074|
8=FIX.4.4|9=0049|35=0|34=3|49=EXC|56=073|52=20190716-17:33:55.000|10=183|
8=FIX.4.4|9=59|35=0|34=3|49=073|50=073X01|52=20190714-03:13:46.720|56=EXC|10=078|
8=FIX.4.4|9=110|35=A|34=1|49=073|50=073X01|52=20190714-03:19:37.145|56=EXC|43=N|98=0|108=30|141=Y|553=073FCM001|554=073FCM001|10=122|
8=FIX.4.4|9=0067|35=A|34=1|49=EXC|56=073|52=20190716-17:39:47.244|98=0|108=30|141=Y|10=029|
8=FIX.4.4|9=0049|35=0|34=2|49=EXC|56=073|52=20190716-17:40:17.000|10=178|
8=FIX.4.4|9=110|35=A|34=1|49=073|50=073X01|52=20190714-03:22:45.021|56=EXC|43=N|98=0|108=30|141=Y|553=073FCM001|554=073FCM001|10=108|
8=FIX.4.4|9=0067|35=A|34=1|49=EXC|56=073|52=20190716-17:42:55.113|98=0|108=30|141=Y|10=017|
8=FIX.4.4|9=0049|35=0|34=2|49=EXC|56=073|52=20190716-17:43:25.000|10=180|
8=FIX.4.4|9=59|35=0|34=2|49=073|50=073X01|52=20190714-03:23:15.994|56=EXC|10=087|
8=FIX.4.4|9=59|35=5|34=3|49=073|50=073X01|52=20190714-03:23:27.994|56=EXC|10=096|
8=FIX.4.4|9=0049|35=5|34=3|49=EXC|56=073|52=20190716-17:43:38.074|10=201|
8=FIX.4.4|9=110|35=A|34=1|49=073|50=073X01|52=20190715-13:08:35.787|56=EXC|43=N|98=0|108=30|141=Y|553=073FCM001|554=073FCM001|10=132|
8=FIX.4.4|9=0067|35=A|34=1|49=EXC|56=073|52=20190716-15:06:03.851|98=0|108=30|141=Y|10=017|
8=FIX.4.4|9=0049|35=0|34=2|49=EXC|56=073|52=20190716-15:06:33.000|10=176|
8=FIX.4.4|9=59|35=0|34=2|49=073|50=073X01|52=20190715-13:09:06.761|56=EXC|10=085|
8=FIX.4.4|9=0049|35=0|34=3|49=EXC|56=073|52=20190716-15:07:03.000|10=175|
8=FIX.4.4|9=59|35=0|34=3|49=073|50=073X01|52=20190715-13:09:36.763|56=EXC|10=091|
8=FIX.4.4|9=110|35=A|34=1|49=073|50=073X01|52=20190715-13:10:01.767|56=EXC|43=N|98=0|108=30|141=Y|553=073FCM001|554=073FCM001|10=116|
8=FIX.4.4|9=110|35=A|34=1|49=073|50=073X01|52=20190715-13:27:08.497|56=EXC|43=N|98=0|108=30|141=Y|553=073FCM001|554=073FCM001|10=131|
8=FIX.4.4|9=0067|35=A|34=1|49=EXC|56=073|52=20190716-15:24:36.571|98=0|108=30|141=Y|10=022|
8=FIX.4.4|9=0049|35=0|34=2|49=EXC|56=073|52=20190716-15:25:06.000|10=177|
8=FIX.4.4|9=59|35=0|34=2|49=073|50=073X01|52=20190715-13:27:38.489|56=EXC|10=097|
8=FIX.4.4|9=0049|35=0|34=3|49=EXC|56=073|52=20190716-15:25:36.000|10=181|
8=FIX.4.4|9=59|35=0|34=3|49=073|50=073X01|52=20190715-13:28:08.488|56=EXC|10=095|
8=FIX.4.4|9=0049|35=0|34=4|49=EXC|56=073|52=20190716-15:26:06.000|10=180|
8=FIX.4.4|9=59|35=0|34=4|49=073|50=073X01|52=20190715-13:28:38.483|56=EXC|10=094|
