8=FIX.4.4|9=110|35=A|34=1|49=051|50=051B17|52=20190723-14:41:06.114|56=EXC|43=N|98=0|108=30|141=Y|553=051FCM001|554=051FCM001|10=080|
8=FIX.4.4|9=0067|35=A|34=1|49=EXC|56=051|52=20190723-14:41:06.172|98=0|108=30|141=Y|10=008|
8=FIX.4.4|9=0049|35=0|34=2|49=EXC|56=051|52=20190723-14:41:36.000|10=171|
8=FIX.4.4|9=59|35=0|34=2|49=051|50=051B17|52=20190723-14:41:37.105|56=EXC|10=054|
8=FIX.4.4|9=0049|35=0|34=3|49=EXC|56=051|52=20190723-14:42:06.000|10=170|
8=FIX.4.4|9=59|35=0|34=3|49=051|50=051B17|52=20190723-14:42:07.105|56=EXC|10=053|
8=FIX.4.4|9=0049|35=0|34=4|49=EXC|56=051|52=20190723-14:42:36.000|10=174|
8=FIX.4.4|9=59|35=0|34=4|49=051|50=051B17|52=20190723-14:42:37.104|56=EXC|10=056|
8=FIX.4.4|9=110|35=A|34=1|49=051|50=051B17|52=20190723-15:21:29.935|56=EXC|43=N|98=0|108=30|141=Y|553=051FCM001|554=051FCM001|10=095|
8=FIX.4.4|9=0067|35=A|34=1|49=EXC|56=051|52=20190723-15:21:29.995|98=0|108=30|141=Y|10=025|
8=FIX.4.4|9=0049|35=0|34=2|49=EXC|56=051|52=20190723-15:21:59.000|10=175|
8=FIX.4.4|9=59|35=0|34=2|49=051|50=051B17|52=20190723-15:22:00.894|56=EXC|10=059|
8=FIX.4.4|9=0049|35=0|34=3|49=EXC|56=051|52=20190723-15:22:29.000|10=174|
8=FIX.4.4|9=59|35=0|34=3|49=051|50=051B17|52=20190723-15:22:30.896|56=EXC|10=065|
8=FIX.4.4|9=110|35=A|34=1|49=051|50=051B17|52=20190723-15:30:28.697|56=EXC|43=N|98=0|108=30|141=Y|553=051FCM001|554=051FCM001|10=099|
8=FIX.4.4|9=0067|35=A|34=1|49=EXC|56=051|52=20190723-15:30:28.756|98=0|108=30|141=Y|10=019|
8=FIX.4.4|9=0049|35=0|34=2|49=EXC|56=051|52=20190723-15:30:58.000|10=174|
8=FIX.4.4|9=59|35=0|34=2|49=051|50=051B17|52=20190723-15:30:59.660|56=EXC|10=063|
8=FIX.4.4|9=0049|35=0|34=3|49=EXC|56=051|52=20190723-15:31:28.000|10=173|
8=FIX.4.4|9=59|35=0|34=3|49=051|50=051B17|52=20190723-15:31:29.666|56=EXC|10=068|
8=FIX.4.4|9=0049|35=0|34=4|49=EXC|56=051|52=20190723-15:31:58.000|10=177|
8=FIX.4.4|9=59|35=0|34=4|49=051|50=051B17|52=20190723-15:31:59.658|56=EXC|10=073|
8=FIX.4.4|9=0049|35=0|34=5|49=EXC|56=051|52=20190723-15:32:28.000|10=176|
8=FIX.4.4|9=59|35=0|34=5|49=051|50=051B17|52=20190723-15:32:29.659|56=EXC|10=073|
8=FIX.4.4|9=0049|35=0|34=6|49=EXC|56=051|52=20190723-15:32:58.000|10=180|
8=FIX.4.4|9=59|35=0|34=6|49=051|50=051B17|52=20190723-15:32:59.659|56=EXC|10=077|
8=FIX.4.4|9=110|35=A|34=1|49=051|50=051B17|52=20190723-15:51:18.659|56=EXC|43=N|98=0|108=30|141=Y|553=051FCM001|554=051FCM001|10=099|
8=FIX.4.4|9=0067|35=A|34=1|49=EXC|56=051|52=20190723-15:51:18.719|98=0|108=30|141=Y|10=020|
8=FIX.4.4|9=0049|35=0|34=2|49=EXC|56=051|52=20190723-15:51:48.000|10=176|
8=FIX.4.4|9=59|35=0|34=2|49=051|50=051B17|52=20190723-15:51:49.614|56=EXC|10=064|
8=FIX.4.4|9=0049|35=0|34=3|49=EXC|56=051|52=20190723-15:52:18.000|10=175|
8=FIX.4.4|9=59|35=0|34=3|49=051|50=051B17|52=20190723-15:52:19.629|56=EXC|10=069|
8=FIX.4.4|9=0049|35=0|34=4|49=EXC|56=051|52=20190723-15:52:48.000|10=179|
8=FIX.4.4|9=59|35=0|34=4|49=051|50=051B17|52=20190723-15:52:49.627|56=EXC|10=071|
8=FIX.4.4|9=110|35=A|34=1|49=051|50=051B17|52=20190723-16:20:47.964|56=EXC|43=N|98=0|108=30|141=Y|553=051FCM001|554=051FCM001|10=097|
8=FIX.4.4|9=0067|35=A|34=1|49=EXC|56=051|52=20190723-16:20:48.035|98=0|108=30|141=Y|10=011|
8=FIX.4.4|9=0049|35=0|34=2|49=EXC|56=051|52=20190723-16:21:18.000|10=171|
8=FIX.4.4|9=59|35=0|34=2|49=051|50=051B17|52=20190723-16:21:17.962|56=EXC|10=063|
8=FIX.4.4|9=0049|35=0|34=3|49=EXC|56=051|52=20190723-16:21:48.000|10=175|
8=FIX.4.4|9=59|35=0|34=3|49=051|50=051B17|52=20190723-16:21:47.959|56=EXC|10=073|
8=FIX.4.4|9=0049|35=0|34=4|49=EXC|56=051|52=20190723-16:22:18.000|10=174|
8=FIX.4.4|9=59|35=0|34=4|49=051|50=051B17|52=20190723-16:22:17.960|56=EXC|10=064|
8=FIX.4.4|9=0049|35=0|34=5|49=EXC|56=051|52=20190723-16:22:48.000|10=178|
8=FIX.4.4|9=59|35=0|34=5|49=051|50=051B17|52=20190723-16:22:47.958|56=EXC|10=075|
8=FIX.4.4|9=110|35=A|34=1|49=051|50=051B17|52=20190723-16:47:43.127|56=EXC|43=N|98=0|108=30|141=Y|553=051FCM001|554=051FCM001|10=093|
8=FIX.4.4|9=0067|35=A|34=1|49=EXC|56=051|52=20190723-16:47:43.194|98=0|108=30|141=Y|10=021|
8=FIX.4.4|9=0049|35=0|34=2|49=EXC|56=051|52=20190723-16:48:13.000|10=175|
8=FIX.4.4|9=59|35=0|34=2|49=051|50=051B17|52=20190723-16:48:14.070|56=EXC|10=059|
8=FIX.4.4|9=0049|35=0|34=3|49=EXC|56=051|52=20190723-16:48:43.000|10=179|
8=FIX.4.4|9=59|35=0|34=3|49=051|50=051B17|52=20190723-16:48:44.083|56=EXC|10=067|
8=FIX.4.4|9=0049|35=0|34=4|49=EXC|56=051|52=20190723-16:49:13.000|10=178|
8=FIX.4.4|9=59|35=0|34=4|49=051|50=051B17|52=20190723-16:49:14.086|56=EXC|10=069|
8=FIX.4.4|9=0049|35=0|34=5|49=EXC|56=051|52=20190723-16:49:43.000|10=182|
8=FIX.4.4|9=59|35=0|34=5|49=051|50=051B17|52=20190723-16:49:45.073|56=EXC|10=070|
8=FIX.4.4|9=0049|35=0|34=6|49=EXC|56=051|52=20190723-16:50:13.000|10=172|
8=FIX.4.4|9=59|35=0|34=6|49=051|50=051B17|52=20190723-16:50:15.084|56=EXC|10=062|
8=FIX.4.4|9=0049|35=0|34=7|49=EXC|56=051|52=20190723-16:50:43.000|10=176|
8=FIX.4.4|9=59|35=0|34=7|49=051|50=051B17|52=20190723-16:50:45.116|56=EXC|10=062|
8=FIX.4.4|9=0049|35=0|34=8|49=EXC|56=051|52=20190723-16:51:13.000|10=175|
8=FIX.4.4|9=59|35=0|34=8|49=051|50=051B17|52=20190723-16:51:16.086|56=EXC|10=068|
8=FIX.4.4|9=0049|35=0|34=9|49=EXC|56=051|52=20190723-16:51:43.000|10=179|
8=FIX.4.4|9=59|35=0|34=9|49=051|50=051B17|52=20190723-16:51:46.086|56=EXC|10=072|
8=FIX.4.4|9=0050|35=0|34=10|49=EXC|56=051|52=20190723-16:52:13.000|10=209|
8=FIX.4.4|9=60|35=0|34=10|49=051|50=051B17|52=20190723-16:52:16.085|56=EXC|10=101|
8=FIX.4.4|9=0050|35=0|34=11|49=EXC|56=051|52=20190723-16:52:43.000|10=213|
8=FIX.4.4|9=60|35=0|34=11|49=051|50=051B17|52=20190723-16:52:46.082|56=EXC|10=102|
8=FIX.4.4|9=0050|35=0|34=12|49=EXC|56=051|52=20190723-16:53:13.000|10=212|
8=FIX.4.4|9=60|35=0|34=12|49=051|50=051B17|52=20190723-16:53:16.073|56=EXC|10=101|
8=FIX.4.4|9=0050|35=0|34=13|49=EXC|56=051|52=20190723-16:53:43.000|10=216|
8=FIX.4.4|9=60|35=0|34=13|49=051|50=051B17|52=20190723-16:53:46.080|56=EXC|10=103|
8=FIX.4.4|9=0050|35=0|34=14|49=EXC|56=051|52=20190723-16:54:13.000|10=215|
8=FIX.4.4|9=60|35=0|34=14|49=051|50=051B17|52=20190723-16:54:16.086|56=EXC|10=108|
8=FIX.4.4|9=110|35=A|34=1|49=051|50=051B17|52=20190723-19:42:33.177|56=EXC|43=N|98=0|108=30|141=Y|553=051FCM001|554=051FCM001|10=095|
8=FIX.4.4|9=0067|35=A|34=1|49=EXC|56=051|52=20190723-19:42:33.269|98=0|108=30|141=Y|10=021|
8=FIX.4.4|9=0049|35=0|34=2|49=EXC|56=051|52=20190723-19:43:03.000|10=172|
8=FIX.4.4|9=59|35=0|34=2|49=051|50=051B17|52=20190723-19:43:04.083|56=EXC|10=060|
8=FIX.4.4|9=0049|35=0|34=3|49=EXC|56=051|52=20190723-19:43:33.000|10=176|
8=FIX.4.4|9=59|35=0|34=3|49=051|50=051B17|52=20190723-19:43:34.084|56=EXC|10=065|
8=FIX.4.4|9=0049|35=0|34=4|49=EXC|56=051|52=20190723-19:44:03.000|10=175|
8=FIX.4.4|9=59|35=0|34=4|49=051|50=051B17|52=20190723-19:44:04.089|56=EXC|10=069|
8=FIX.4.4|9=59|35=5|34=5|49=051|50=051B17|52=20190723-19:44:10.083|56=EXC|10=066|
8=FIX.4.4|9=0055|35=5|34=5|49=EXC|56=051|52=20190723-19:44:10.149|369=5|10=211|
8=FIX.4.4|9=110|35=A|34=1|49=051|50=051B17|52=20190723-21:39:14.763|56=EXC|43=N|98=0|108=30|141=Y|553=051FCM001|554=051FCM001|10=094|
8=FIX.4.4|9=0067|35=A|34=1|49=EXC|56=051|52=20190723-14:34:02.857|98=0|108=30|141=Y|10=016|
8=FIX.4.4|9=0049|35=0|34=2|49=EXC|56=051|52=20190723-14:34:32.000|10=169|
8=FIX.4.4|9=59|35=0|34=2|49=051|50=051B17|52=20190723-21:39:45.711|56=EXC|10=061|
8=FIX.4.4|9=0049|35=0|34=3|49=EXC|56=051|52=20190723-14:35:02.000|10=168|
8=FIX.4.4|9=59|35=0|34=3|49=051|50=051B17|52=20190723-21:40:15.706|56=EXC|10=055|
8=FIX.4.4|9=59|35=5|34=4|49=051|50=051B17|52=20190723-21:40:32.710|56=EXC|10=055|
8=FIX.4.4|9=0055|35=5|34=4|49=EXC|56=051|52=20190723-14:35:20.785|369=4|10=211|
8=FIX.4.4|9=110|35=A|34=1|49=051|50=051B17|52=20190724-13:09:24.009|56=EXC|43=N|98=0|108=30|141=Y|553=051FCM001|554=051FCM001|10=087|
8=FIX.4.4|9=0067|35=A|34=1|49=EXC|56=051|52=20190724-14:38:13.148|98=0|108=30|141=Y|10=016|
8=FIX.4.4|9=0049|35=0|34=2|49=EXC|56=051|52=20190724-14:38:43.000|10=176|
8=FIX.4.4|9=59|35=0|34=2|49=051|50=051B17|52=20190724-13:09:54.957|56=EXC|10=072|
8=FIX.4.4|9=0049|35=0|34=3|49=EXC|56=051|52=20190724-14:39:13.000|10=175|
8=FIX.4.4|9=59|35=0|34=3|49=051|50=051B17|52=20190724-13:10:24.967|56=EXC|10=063|
8=FIX.4.4|9=0049|35=0|34=4|49=EXC|56=051|52=20190724-14:39:43.000|10=179|
8=FIX.4.4|9=59|35=0|34=4|49=051|50=051B17|52=20190724-13:10:54.958|56=EXC|10=067|
8=FIX.4.4|9=0049|35=0|34=5|49=EXC|56=051|52=20190724-14:40:13.000|10=169|
8=FIX.4.4|9=59|35=0|34=5|49=051|50=051B17|52=20190724-13:11:24.961|56=EXC|10=060|
8=FIX.4.4|9=59|35=5|34=6|49=051|50=051B17|52=20190724-13:11:49.970|56=EXC|10=073|
8=FIX.4.4|9=0055|35=5|34=6|49=EXC|56=051|52=20190724-14:40:39.033|369=6|10=208|
8=FIX.4.4|9=110|35=A|34=1|49=051|50=051B17|52=20190724-13:20:04.013|56=EXC|43=N|98=0|108=30|141=Y|553=051FCM001|554=051FCM001|10=073|
8=FIX.4.4|9=0067|35=A|34=1|49=EXC|56=051|52=20190724-14:48:53.108|98=0|108=30|141=Y|10=017|
8=FIX.4.4|9=0049|35=0|34=2|49=EXC|56=051|52=20190724-14:49:23.000|10=176|
8=FIX.4.4|9=59|35=0|34=2|49=051|50=051B17|52=20190724-13:20:34.965|56=EXC|10=062|
8=FIX.4.4|9=59|35=5|34=3|49=051|50=051B17|52=20190724-13:21:02.965|56=EXC|10=064|
8=FIX.4.4|9=0055|35=5|34=3|49=EXC|56=051|52=20190724-14:49:52.034|369=3|10=207|
8=FIX.4.4|9=110|35=A|34=1|49=051|50=051B17|52=20190724-14:03:52.971|56=EXC|43=N|98=0|108=30|141=Y|553=051FCM001|554=051FCM001|10=091|
8=FIX.4.4|9=0067|35=A|34=1|49=EXC|56=051|52=20190724-15:32:42.064|98=0|108=30|141=Y|10=010|
8=FIX.4.4|9=0049|35=0|34=2|49=EXC|56=051|52=20190724-15:33:12.000|10=168|
8=FIX.4.4|9=59|35=0|34=2|49=051|50=051B17|52=20190724-14:04:23.956|56=EXC|10=063|
8=FIX.4.4|9=59|35=5|34=3|49=051|50=051B17|52=20190724-14:04:51.955|56=EXC|10=069|
8=FIX.4.4|9=0055|35=5|34=3|49=EXC|56=051|52=20190724-15:33:41.024|369=3|10=198|
8=FIX.4.4|9=110|35=A|34=1|49=051|50=051B17|52=20190724-14:38:41.220|56=EXC|43=N|98=0|108=30|141=Y|553=051FCM001|554=051FCM001|10=084|
8=FIX.4.4|9=0067|35=A|34=1|49=EXC|56=051|52=20190724-16:07:30.320|98=0|108=30|141=Y|10=005|
8=FIX.4.4|9=0049|35=0|34=2|49=EXC|56=051|52=20190724-16:08:00.000|10=168|
8=FIX.4.4|9=59|35=0|34=2|49=051|50=051B17|52=20190724-14:39:12.169|56=EXC|10=065|
8=FIX.4.4|9=0049|35=0|34=3|49=EXC|56=051|52=20190724-16:08:30.000|10=172|
8=FIX.4.4|9=59|35=0|34=3|49=051|50=051B17|52=20190724-14:39:42.170|56=EXC|10=061|
8=FIX.4.4|9=0049|35=0|34=4|49=EXC|56=051|52=20190724-16:09:00.000|10=171|
8=FIX.4.4|9=59|35=0|34=4|49=051|50=051B17|52=20190724-14:40:12.169|56=EXC|10=059|
8=FIX.4.4|9=0049|35=0|34=5|49=EXC|56=051|52=20190724-16:09:30.000|10=175|
8=FIX.4.4|9=59|35=0|34=5|49=051|50=051B17|52=20190724-14:40:42.170|56=EXC|10=055|
8=FIX.4.4|9=0049|35=0|34=6|49=EXC|56=051|52=20190724-16:10:00.000|10=165|
8=FIX.4.4|9=59|35=0|34=6|49=051|50=051B17|52=20190724-14:41:12.169|56=EXC|10=062|
8=FIX.4.4|9=0049|35=0|34=7|49=EXC|56=051|52=20190724-16:10:30.000|10=169|
8=FIX.4.4|9=59|35=0|34=7|49=051|50=051B17|52=20190724-14:41:42.171|56=EXC|10=059|
8=FIX.4.4|9=0049|35=0|34=8|49=EXC|56=051|52=20190724-16:11:00.000|10=168|
8=FIX.4.4|9=59|35=0|34=8|49=051|50=051B17|52=20190724-14:42:12.176|56=EXC|10=063|
8=FIX.4.4|9=0049|35=0|34=9|49=EXC|56=051|52=20190724-16:11:30.000|10=172|
8=FIX.4.4|9=59|35=0|34=9|49=051|50=051B17|52=20190724-14:42:42.169|56=EXC|10=069|
8=FIX.4.4|9=0050|35=0|34=10|49=EXC|56=051|52=20190724-16:12:00.000|10=202|
8=FIX.4.4|9=60|35=0|34=10|49=051|50=051B17|52=20190724-14:43:12.174|56=EXC|10=095|
8=FIX.4.4|9=0050|35=0|34=11|49=EXC|56=051|52=20190724-16:12:30.000|10=206|
8=FIX.4.4|9=60|35=0|34=11|49=051|50=051B17|52=20190724-14:43:42.170|56=EXC|10=095|
8=FIX.4.4|9=0050|35=0|34=12|49=EXC|56=051|52=20190724-16:13:00.000|10=205|
8=FIX.4.4|9=60|35=0|34=12|49=051|50=051B17|52=20190724-14:44:12.170|56=EXC|10=094|
8=FIX.4.4|9=0050|35=0|34=13|49=EXC|56=051|52=20190724-16:13:30.000|10=209|
8=FIX.4.4|9=60|35=0|34=13|49=051|50=051B17|52=20190724-14:44:42.170|56=EXC|10=098|
8=FIX.4.4|9=0050|35=0|34=14|49=EXC|56=051|52=20190724-16:14:00.000|10=208|
8=FIX.4.4|9=60|35=0|34=14|49=051|50=051B17|52=20190724-14:45:12.170|56=EXC|10=097|
8=FIX.4.4|9=0050|35=0|34=15|49=EXC|56=051|52=20190724-16:14:30.000|10=212|
8=FIX.4.4|9=60|35=0|34=15|49=051|50=051B17|52=20190724-14:45:42.169|56=EXC|10=109|
8=FIX.4.4|9=0050|35=0|34=16|49=EXC|56=051|52=20190724-16:15:00.000|10=211|
8=FIX.4.4|9=60|35=0|34=16|49=051|50=051B17|52=20190724-14:46:12.169|56=EXC|10=108|
8=FIX.4.4|9=0050|35=0|34=17|49=EXC|56=051|52=20190724-16:15:30.000|10=215|
8=FIX.4.4|9=60|35=0|34=17|49=051|50=051B17|52=20190724-14:46:42.169|56=EXC|10=112|
8=FIX.4.4|9=0050|35=0|34=18|49=EXC|56=051|52=20190724-16:16:00.000|10=214|
8=FIX.4.4|9=60|35=0|34=18|49=051|50=051B17|52=20190724-14:47:12.169|56=EXC|10=111|
8=FIX.4.4|9=0050|35=0|34=19|49=EXC|56=051|52=20190724-16:16:30.000|10=218|
8=FIX.4.4|9=60|35=0|34=19|49=051|50=051B17|52=20190724-14:47:42.170|56=EXC|10=107|
8=FIX.4.4|9=0050|35=0|34=20|49=EXC|56=051|52=20190724-16:17:00.000|10=208|
8=FIX.4.4|9=60|35=0|34=20|49=051|50=051B17|52=20190724-14:48:12.170|56=EXC|10=097|
8=FIX.4.4|9=0050|35=0|34=21|49=EXC|56=051|52=20190724-16:17:30.000|10=212|
8=FIX.4.4|9=60|35=0|34=21|49=051|50=051B17|52=20190724-14:48:42.169|56=EXC|10=109|
8=FIX.4.4|9=0050|35=0|34=22|49=EXC|56=051|52=20190724-16:18:00.000|10=211|
8=FIX.4.4|9=60|35=0|34=22|49=051|50=051B17|52=20190724-14:49:12.171|56=EXC|10=101|
8=FIX.4.4|9=0050|35=0|34=23|49=EXC|56=051|52=20190724-16:18:30.000|10=215|
8=FIX.4.4|9=60|35=0|34=23|49=051|50=051B17|52=20190724-14:49:42.169|56=EXC|10=112|
8=FIX.4.4|9=0050|35=0|34=24|49=EXC|56=051|52=20190724-16:19:00.000|10=214|
8=FIX.4.4|9=60|35=0|34=24|49=051|50=051B17|52=20190724-14:50:12.170|56=EXC|10=094|
8=FIX.4.4|9=0050|35=0|34=25|49=EXC|56=051|52=20190724-16:19:30.000|10=218|
8=FIX.4.4|9=60|35=0|34=25|49=051|50=051B17|52=20190724-14:50:42.169|56=EXC|10=106|
8=FIX.4.4|9=0050|35=0|34=26|49=EXC|56=051|52=20190724-16:20:00.000|10=208|
8=FIX.4.4|9=60|35=0|34=26|49=051|50=051B17|52=20190724-14:51:12.175|56=EXC|10=102|
8=FIX.4.4|9=0050|35=0|34=27|49=EXC|56=051|52=20190724-16:20:30.000|10=212|
8=FIX.4.4|9=60|35=0|34=27|49=051|50=051B17|52=20190724-14:51:42.169|56=EXC|10=109|
8=FIX.4.4|9=0050|35=0|34=28|49=EXC|56=051|52=20190724-16:21:00.000|10=211|
8=FIX.4.4|9=60|35=0|34=28|49=051|50=051B17|52=20190724-14:52:12.169|56=EXC|10=108|
8=FIX.4.4|9=0050|35=0|34=29|49=EXC|56=051|52=20190724-16:21:30.000|10=215|
8=FIX.4.4|9=60|35=0|34=29|49=051|50=051B17|52=20190724-14:52:42.170|56=EXC|10=104|
8=FIX.4.4|9=0050|35=0|34=30|49=EXC|56=051|52=20190724-16:22:00.000|10=205|
8=FIX.4.4|9=60|35=0|34=30|49=051|50=051B17|52=20190724-14:53:12.170|56=EXC|10=094|
8=FIX.4.4|9=110|35=A|34=1|49=051|50=051B17|52=20190724-14:54:13.341|56=EXC|43=N|98=0|108=30|141=Y|553=051FCM001|554=051FCM001|10=085|
8=FIX.4.4|9=0067|35=A|34=1|49=EXC|56=051|52=20190724-16:23:02.426|98=0|108=30|141=Y|10=009|
8=FIX.4.4|9=0049|35=0|34=2|49=EXC|56=051|52=20190724-16:23:32.000|10=170|
8=FIX.4.4|9=59|35=0|34=2|49=051|50=051B17|52=20190724-14:54:44.269|56=EXC|10=068|
8=FIX.4.4|9=0049|35=0|34=3|49=EXC|56=051|52=20190724-16:24:02.000|10=169|
8=FIX.4.4|9=59|35=0|34=3|49=051|50=051B17|52=20190724-14:55:14.260|56=EXC|10=058|
8=FIX.4.4|9=0049|35=0|34=4|49=EXC|56=051|52=20190724-16:24:32.000|10=173|
8=FIX.4.4|9=59|35=0|34=4|49=051|50=051B17|52=20190724-14:55:44.260|56=EXC|10=062|
8=FIX.4.4|9=0049|35=0|34=5|49=EXC|56=051|52=20190724-16:25:02.000|10=172|
8=FIX.4.4|9=59|35=0|34=5|49=051|50=051B17|52=20190724-14:56:14.260|56=EXC|10=061|
8=FIX.4.4|9=0049|35=0|34=6|49=EXC|56=051|52=20190724-16:25:32.000|10=176|
8=FIX.4.4|9=59|35=0|34=6|49=051|50=051B17|52=20190724-14:56:44.260|56=EXC|10=065|
8=FIX.4.4|9=0049|35=0|34=7|49=EXC|56=051|52=20190724-16:26:02.000|10=175|
8=FIX.4.4|9=59|35=0|34=7|49=051|50=051B17|52=20190724-14:57:14.260|56=EXC|10=064|
8=FIX.4.4|9=110|35=A|34=1|49=051|50=051B17|52=20190724-15:07:09.841|56=EXC|43=N|98=0|108=30|141=Y|553=051FCM001|554=051FCM001|10=094|
8=FIX.4.4|9=0067|35=A|34=1|49=EXC|56=051|52=20190724-16:35:58.928|98=0|108=30|141=Y|10=030|
8=FIX.4.4|9=0049|35=0|34=2|49=EXC|56=051|52=20190724-16:36:28.000|10=179|
8=FIX.4.4|9=59|35=0|34=2|49=051|50=051B17|52=20190724-15:07:40.784|56=EXC|10=065|
8=FIX.4.4|9=0049|35=0|34=3|49=EXC|56=051|52=20190724-16:36:58.000|10=183|
8=FIX.4.4|9=59|35=0|34=3|49=051|50=051B17|52=20190724-15:08:10.786|56=EXC|10=066|
8=FIX.4.4|9=59|35=5|34=4|49=051|50=051B17|52=20190724-15:08:22.785|56=EXC|10=074|
8=FIX.4.4|9=0055|35=5|34=4|49=EXC|56=051|52=20190724-16:37:11.859|369=4|10=218|
8=FIX.4.4|9=110|35=A|34=1|49=051|50=051B17|52=20190724-16:10:06.865|56=EXC|43=N|98=0|108=30|141=Y|553=051FCM001|554=051FCM001|10=092|
8=FIX.4.4|9=0067|35=A|34=1|49=EXC|56=051|52=20190724-17:38:55.950|98=0|108=30|141=Y|10=026|
8=FIX.4.4|9=0049|35=0|34=2|49=EXC|56=051|52=20190724-17:39:25.000|10=180|
8=FIX.4.4|9=59|35=0|34=2|49=051|50=051B17|52=20190724-16:10:37.802|56=EXC|10=057|
8=FIX.4.4|9=0049|35=0|34=3|49=EXC|56=051|52=20190724-17:39:55.000|10=184|
8=FIX.4.4|9=59|35=0|34=3|49=051|50=051B17|52=20190724-16:11:07.801|56=EXC|10=055|
8=FIX.4.4|9=0049|35=0|34=4|49=EXC|56=051|52=20190724-17:40:25.000|10=174|
8=FIX.4.4|9=59|35=0|34=4|49=051|50=051B17|52=20190724-16:11:37.802|56=EXC|10=060|
8=FIX.4.4|9=0049|35=0|34=5|49=EXC|56=051|52=20190724-17:40:55.000|10=178|
8=FIX.4.4|9=59|35=0|34=5|49=051|50=051B17|52=20190724-16:12:07.802|56=EXC|10=059|
8=FIX.4.4|9=59|35=5|34=6|49=051|50=051B17|52=20190724-16:12:30.802|56=EXC|10=061|
8=FIX.4.4|9=0055|35=5|34=6|49=EXC|56=051|52=20190724-17:41:19.861|369=6|10=219|
8=FIX.4.4|9=110|35=A|34=1|49=051|50=051B17|52=20190724-20:44:55.144|56=EXC|43=N|98=0|108=30|141=Y|553=051FCM001|554=051FCM001|10=088|
8=FIX.4.4|9=0067|35=A|34=1|49=EXC|56=051|52=20190724-14:39:48.223|98=0|108=30|141=Y|10=019|
8=FIX.4.4|9=0049|35=0|34=2|49=EXC|56=051|52=20190724-14:40:18.000|10=171|
8=FIX.4.4|9=59|35=0|34=2|49=051|50=051B17|52=20190724-20:45:26.119|56=EXC|10=059|
8=FIX.4.4|9=0049|35=0|34=3|49=EXC|56=051|52=20190724-14:40:48.000|10=175|
8=FIX.4.4|9=59|35=0|34=3|49=051|50=051B17|52=20190724-20:45:56.119|56=EXC|10=063|
8=FIX.4.4|9=0049|35=0|34=4|49=EXC|56=051|52=20190724-14:41:18.000|10=174|
8=FIX.4.4|9=59|35=0|34=4|49=051|50=051B17|52=20190724-20:46:26.119|56=EXC|10=062|
8=FIX.4.4|9=0049|35=0|34=5|49=EXC|56=051|52=20190724-14:41:48.000|10=178|
8=FIX.4.4|9=59|35=0|34=5|49=051|50=051B17|52=20190724-20:46:56.120|56=EXC|10=058|
8=FIX.4.4|9=59|35=5|34=6|49=051|50=051B17|52=20190724-20:47:20.129|56=EXC|10=065|
8=FIX.4.4|9=0055|35=5|34=6|49=EXC|56=051|52=20190724-14:42:13.180|369=6|10=205|
8=FIX.4.4|9=110|35=A|34=1|49=051|50=051B17|52=20190724-23:15:49.106|56=EXC|43=N|98=0|108=30|141=Y|553=051FCM001|554=051FCM001|10=090|
8=FIX.4.4|9=0067|35=A|34=1|49=EXC|56=051|52=20190724-17:10:42.179|98=0|108=30|141=Y|10=015|
8=FIX.4.4|9=0049|35=0|34=2|49=EXC|56=051|52=20190724-17:11:12.000|10=166|
8=FIX.4.4|9=59|35=0|34=2|49=051|50=051B17|52=20190724-23:16:20.051|56=EXC|10=049|
8=FIX.4.4|9=0049|35=0|34=3|49=EXC|56=051|52=20190724-17:11:42.000|10=170|
8=FIX.4.4|9=59|35=0|34=3|49=051|50=051B17|52=20190724-23:16:50.052|56=EXC|10=054|
8=FIX.4.4|9=0049|35=0|34=4|49=EXC|56=051|52=20190724-17:12:12.000|10=169|
8=FIX.4.4|9=59|35=0|34=4|49=051|50=051B17|52=20190724-23:17:20.051|56=EXC|10=052|
8=FIX.4.4|9=0049|35=0|34=5|49=EXC|56=051|52=20190724-17:12:42.000|10=173|
8=FIX.4.4|9=59|35=0|34=5|49=051|50=051B17|52=20190724-23:17:50.051|56=EXC|10=056|
8=FIX.4.4|9=0049|35=0|34=6|49=EXC|56=051|52=20190724-17:13:12.000|10=172|
8=FIX.4.4|9=59|35=0|34=6|49=051|50=051B17|52=20190724-23:18:20.052|56=EXC|10=056|
8=FIX.4.4|9=0049|35=0|34=7|49=EXC|56=051|52=20190724-17:13:42.000|10=176|
8=FIX.4.4|9=59|35=0|34=7|49=051|50=051B17|52=20190724-23:18:50.053|56=EXC|10=061|
