8=FIX.4.4|9=190|35=AE|34=2|49=035|50=035X01|52=20190712-16:49:14.029|56=EXC|31=1000|32=100|55=T24Q19F|60=20190712-17:27:56.438|487=0|571=201907121149031_AE|762=FUIR|856=96|880=201907120000000008|552=1|54=1|10=029|
8=FIX.4.4|9=0133|35=AR|34=2|49=EXC|56=035|57=035X01|52=20190712-17:30:29.102|571=201907121149031_AE|487=0|856=96|939=0|17=25|60=20190712-17:30:29.102|10=021|
8=FIX.4.4|9=0357|35=AE|34=3|49=EXC|56=035|57=035X01|52=20190712-17:30:44.171|571=201907121149031_AE|487=2|856=99|17=26|573=0|15=COP|880=201907120000000008|75=20190712|55=T24Q19F|762=FUIR|48=26623|22=M|31=1000.000|32=100|381=250000000000.000|60=20190712-17:30:44.171|64=20190712|552=1|54=1|453=3|448=035X01|447=C|452=12|448=035|447=C|452=1|448=035FCM001|447=C|452=36|1=DP003|10=173|
8=FIX.4.4|9=59|35=0|34=3|49=035|50=035X01|52=20190712-16:49:44.691|56=EXC|10=090|
8=FIX.4.4|9=59|35=5|34=4|49=035|50=035X01|52=20190712-16:49:49.679|56=EXC|10=107|
8=FIX.4.4|9=0049|35=5|34=4|49=EXC|56=035|52=20190712-17:31:04.744|10=190|
8=FIX.4.4|9=110|35=A|34=1|49=035|50=035X01|52=20190712-19:50:07.465|56=EXC|43=N|98=0|108=30|141=Y|553=035FCM001|554=035FCM001|10=116|
8=FIX.4.4|9=0067|35=A|34=1|49=EXC|56=035|52=20190712-20:31:22.721|98=0|108=30|141=Y|10=002|
8=FIX.4.4|9=190|35=AE|34=2|49=035|50=035X01|52=20190712-19:50:14.932|56=EXC|31=1000|32=100|55=T24Q19F|60=20190712-20:29:39.278|487=0|571=201907121450031_AE|762=FUIR|856=96|880=201907120000000009|552=1|54=1|10=022|
8=FIX.4.4|9=0133|35=AR|34=2|49=EXC|56=035|57=035X01|52=20190712-20:31:30.130|571=201907121450031_AE|487=0|856=96|939=0|17=32|60=20190712-20:31:30.130|10=246|
8=FIX.4.4|9=110|35=A|34=1|49=035|50=035X01|52=20190712-20:56:31.910|56=EXC|43=N|98=0|108=30|141=Y|553=035FCM001|554=035FCM001|10=106|
8=FIX.4.4|9=0067|35=A|34=1|49=EXC|56=035|52=20190712-21:31:45.042|98=0|108=30|141=Y|10=004|
8=FIX.4.4|9=190|35=AE|34=2|49=035|50=035X01|52=20190712-20:56:39.068|56=EXC|31=1000|32=100|55=T24Q19F|60=20190712-20:33:52.062|487=0|571=201907121556271_AE|762=FUIR|856=96|880=201907120000000010|552=1|54=1|10=013|
8=FIX.4.4|9=0133|35=AR|34=2|49=EXC|56=035|57=035X01|52=20190712-21:31:52.136|571=201907121556271_AE|487=0|856=96|939=0|17=34|60=20190712-21:31:52.136|10=027|
8=FIX.4.4|9=0049|35=0|34=3|49=EXC|56=035|52=20190712-21:32:22.000|10=165|
8=FIX.4.4|9=59|35=0|34=3|49=035|50=035X01|52=20190712-20:57:09.868|56=EXC|10=091|
8=FIX.4.4|9=0049|35=0|34=4|49=EXC|56=035|52=20190712-21:32:52.000|10=169|
8=FIX.4.4|9=59|35=0|34=4|49=035|50=035X01|52=20190712-20:57:39.867|56=EXC|10=094|
8=FIX.4.4|9=110|35=A|34=1|49=035|50=035X01|52=20190714-00:01:28.301|56=EXC|43=N|98=0|108=30|141=Y|553=035FCM001|554=035FCM001|10=096|
8=FIX.4.4|9=0067|35=A|34=1|49=EXC|56=035|52=20190716-17:40:38.486|98=0|108=30|141=Y|10=027|
8=FIX.4.4|9=190|35=AE|34=2|49=035|50=035X01|52=20190714-00:01:35.737|56=EXC|31=1000|32=100|55=T24Q19F|60=20190712-20:33:52.062|487=0|571=201907131901241_AE|762=FUIR|856=96|880=201907120000000010|552=1|54=1|10=250|
8=FIX.4.4|9=0170|35=AR|34=2|49=EXC|56=035|57=035X01|52=20190716-17:40:45.814|571=201907131901241_AE|487=0|856=96|939=1|17=1|60=20190716-17:40:45.814|751=99|58=(138): Invalid Trade Number|10=154|
8=FIX.4.4|9=110|35=A|34=1|49=035|50=035X01|52=20190714-00:12:52.996|56=EXC|43=N|98=0|108=30|141=Y|553=035FCM001|554=035FCM001|10=115|
8=FIX.4.4|9=0067|35=A|34=1|49=EXC|56=035|52=20190716-17:52:03.126|98=0|108=30|141=Y|10=013|
8=FIX.4.4|9=190|35=AE|34=2|49=035|50=035X01|52=20190714-00:13:00.278|56=EXC|31=1000|32=100|55=T24Q19F|60=20190712-20:33:52.062|487=0|571=201907131912501_AE|762=FUIR|856=96|880=201907120000000010|552=1|54=1|10=246|
8=FIX.4.4|9=0170|35=AR|34=2|49=EXC|56=035|57=035X01|52=20190716-17:52:10.353|571=201907131912501_AE|487=0|856=96|939=1|17=2|60=20190716-17:52:10.353|751=99|58=(138): Invalid Trade Number|10=142|
8=FIX.4.4|9=110|35=A|34=1|49=035|50=035X01|52=20190714-01:40:48.830|56=EXC|43=N|98=0|108=30|141=Y|553=035FCM001|554=035FCM001|10=109|
8=FIX.4.4|9=0067|35=A|34=1|49=EXC|56=035|52=20190716-16:00:58.928|98=0|108=30|141=Y|10=025|
8=FIX.4.4|9=190|35=AE|34=2|49=035|50=035X01|52=20190714-01:40:55.974|56=EXC|31=1000|32=100|55=T24Q19F|60=20190716-15:45:50.356|487=0|571=201907132040461_AE|762=FUIR|856=96|880=201907160000000001|552=1|54=1|10=021|
8=FIX.4.4|9=0132|35=AR|34=2|49=EXC|56=035|57=035X01|52=20190716-16:01:06.054|571=201907132040461_AE|487=0|856=96|939=0|17=2|60=20190716-16:01:06.054|10=226|
8=FIX.4.4|9=0049|35=0|34=3|49=EXC|56=035|52=20190716-16:01:36.000|10=174|
8=FIX.4.4|9=59|35=0|34=3|49=035|50=035X01|52=20190714-01:41:26.804|56=EXC|10=074|
8=FIX.4.4|9=110|35=A|34=1|49=035|50=035X01|52=20190714-01:44:26.320|56=EXC|43=N|98=0|108=30|141=Y|553=035FCM001|554=035FCM001|10=103|
8=FIX.4.4|9=0067|35=A|34=1|49=EXC|56=035|52=20190716-16:04:36.453|98=0|108=30|141=Y|10=018|
8=FIX.4.4|9=190|35=AE|34=2|49=035|50=035X01|52=20190714-01:44:33.495|56=EXC|31=1000|32=100|55=T24Q19F|60=20190716-15:45:50.356|487=0|571=201907132044231_AE|762=FUIR|856=96|880=201907160000000001|552=1|54=1|10=018|
8=FIX.4.4|9=0209|35=AR|34=2|49=EXC|56=035|57=035X01|52=20190716-16:04:43.563|571=201907132044231_AE|487=0|856=96|939=1|17=3|60=20190716-16:04:43.563|751=99|58=(369): Trades with (L) status cannot be requested for cancellation|10=239|
8=FIX.4.4|9=0049|35=0|34=3|49=EXC|56=035|52=20190716-16:05:13.000|10=173|
8=FIX.4.4|9=59|35=0|34=3|49=035|50=035X01|52=20190714-01:45:04.275|56=EXC|10=076|
8=FIX.4.4|9=0049|35=0|34=4|49=EXC|56=035|52=20190716-16:05:43.000|10=177|
8=FIX.4.4|9=59|35=0|34=4|49=035|50=035X01|52=20190714-01:45:34.283|56=EXC|10=079|
8=FIX.4.4|9=110|35=A|34=1|49=035|50=035X01|52=20190714-01:58:41.025|56=EXC|43=N|98=0|108=30|141=Y|553=035FCM001|554=035FCM001|10=107|
8=FIX.4.4|9=0067|35=A|34=1|49=EXC|56=035|52=20190716-16:18:51.123|98=0|108=30|141=Y|10=014|
8=FIX.4.4|9=190|35=AE|34=2|49=035|50=035X01|52=20190714-01:58:48.214|56=EXC|31=1000|32=100|55=T24Q19F|60=20190716-16:14:02.505|487=0|571=201907132058381_AE|762=FUIR|856=96|880=201907160000000002|552=1|54=1|10=020|
8=FIX.4.4|9=0132|35=AR|34=2|49=EXC|56=035|57=035X01|52=20190716-16:18:58.285|571=201907132058381_AE|487=0|856=96|939=0|17=5|60=20190716-16:18:58.285|10=025|
8=FIX.4.4|9=0049|35=0|34=3|49=EXC|56=035|52=20190716-16:19:28.000|10=184|
8=FIX.4.4|9=59|35=0|34=3|49=035|50=035X01|52=20190714-01:59:18.971|56=EXC|10=089|
8=FIX.4.4|9=110|35=A|34=1|49=035|50=035X01|52=20190714-03:12:45.651|56=EXC|43=N|98=0|108=30|141=Y|553=035FCM001|554=035FCM001|10=108|
8=FIX.4.4|9=0067|35=A|34=1|49=EXC|56=035|52=20190716-17:32:55.755|98=0|108=30|141=Y|10=026|
8=FIX.4.4|9=190|35=AE|34=2|49=035|50=035X01|52=20190714-03:12:52.839|56=EXC|31=1000|32=100|55=T24Q19F|60=20190716-17:28:22.826|487=0|571=201907132212431_AE|762=FUIR|856=96|880=201907160000000003|552=1|54=1|10=023|
8=FIX.4.4|9=0132|35=AR|34=2|49=EXC|56=035|57=035X01|52=20190716-17:33:02.916|571=201907132212431_AE|487=0|856=96|939=0|17=7|60=20190716-17:33:02.916|10=247|
8=FIX.4.4|9=0355|35=AE|34=3|49=EXC|56=035|57=035X01|52=20190716-17:33:18.015|571=201907132212431_AE|487=2|856=99|17=8|573=0|15=COP|880=201907160000000003|75=20190716|55=T24Q19F|762=FUIR|48=26623|22=M|31=1000.000|32=50|381=125000000000.000|60=20190716-17:33:18.015|64=20190716|552=1|54=1|453=3|448=035X01|447=C|452=12|448=035|447=C|452=1|448=035FCM001|447=C|452=36|1=DP003|10=094|
8=FIX.4.4|9=59|35=0|34=3|49=035|50=035X01|52=20190714-03:13:23.579|56=EXC|10=081|
8=FIX.4.4|9=0049|35=0|34=4|49=EXC|56=035|52=20190716-17:33:48.000|10=184|
8=FIX.4.4|9=110|35=A|34=1|49=035|50=035X01|52=20190714-03:19:37.039|56=EXC|43=N|98=0|108=30|141=Y|553=035FCM001|554=035FCM001|10=116|
8=FIX.4.4|9=0067|35=A|34=1|49=EXC|56=035|52=20190716-17:39:47.139|98=0|108=30|141=Y|10=030|
8=FIX.4.4|9=190|35=AE|34=2|49=035|50=035X01|52=20190714-03:19:44.286|56=EXC|31=1000|32=100|55=T24Q19F|60=20190716-17:28:22.826|487=0|571=201907132219341_AE|762=FUIR|856=96|880=201907160000000003|552=1|54=1|10=034|
8=FIX.4.4|9=0209|35=AR|34=2|49=EXC|56=035|57=035X01|52=20190716-17:39:54.377|571=201907132219341_AE|487=0|856=96|939=1|17=9|60=20190716-17:39:54.377|751=99|58=(369): Trades with (U) status cannot be requested for cancellation|10=032|
8=FIX.4.4|9=110|35=A|34=1|49=035|50=035X01|52=20190714-03:22:44.894|56=EXC|43=N|98=0|108=30|141=Y|553=035FCM001|554=035FCM001|10=117|
8=FIX.4.4|9=0067|35=A|34=1|49=EXC|56=035|52=20190716-17:42:55.000|98=0|108=30|141=Y|10=010|
8=FIX.4.4|9=190|35=AE|34=2|49=035|50=035X01|52=20190714-03:22:52.055|56=EXC|31=1000|32=100|55=T24Q19F|60=20190716-17:41:16.872|487=0|571=201907132222421_AE|762=FUIR|856=96|880=201907160000000004|552=1|54=1|10=014|
8=FIX.4.4|9=0133|35=AR|34=2|49=EXC|56=035|57=035X01|52=20190716-17:43:02.133|571=201907132222421_AE|487=0|856=96|939=0|17=11|60=20190716-17:43:02.133|10=019|
8=FIX.4.4|9=0356|35=AE|34=3|49=EXC|56=035|57=035X01|52=20190716-17:43:17.234|571=201907132222421_AE|487=2|856=99|17=12|573=0|15=COP|880=201907160000000004|75=20190716|55=T24Q19F|762=FUIR|48=26623|22=M|31=1000.000|32=50|381=125000000000.000|60=20190716-17:43:17.234|64=20190716|552=1|54=1|453=3|448=035X01|447=C|452=12|448=035|447=C|452=1|448=035FCM001|447=C|452=36|1=DP003|10=145|
8=FIX.4.4|9=59|35=0|34=3|49=035|50=035X01|52=20190714-03:23:22.865|56=EXC|10=079|
8=FIX.4.4|9=59|35=5|34=4|49=035|50=035X01|52=20190714-03:23:27.297|56=EXC|10=089|
8=FIX.4.4|9=0049|35=5|34=4|49=EXC|56=035|52=20190716-17:43:37.374|10=202|
8=FIX.4.4|9=110|35=A|34=1|49=035|50=035X01|52=20190715-13:08:35.584|56=EXC|43=N|98=0|108=30|141=Y|553=035FCM001|554=035FCM001|10=119|
8=FIX.4.4|9=0067|35=A|34=1|49=EXC|56=035|52=20190716-15:06:03.743|98=0|108=30|141=Y|10=015|
8=FIX.4.4|9=189|35=AE|34=2|49=035|50=035X01|52=20190715-13:08:42.835|56=EXC|31=1000|32=100|55=T24Q19F|60=20190716-15:03:52.100|487=0|571=20190715808321_AE|762=FUIR|856=96|880=201907160000000001|552=1|54=1|10=227|
8=FIX.4.4|9=0131|35=AR|34=2|49=EXC|56=035|57=035X01|52=20190716-15:06:10.893|571=20190715808321_AE|487=0|856=96|939=0|17=2|60=20190716-15:06:10.893|10=204|
8=FIX.4.4|9=0354|35=AE|34=3|49=EXC|56=035|57=035X01|52=20190716-15:06:25.943|571=20190715808321_AE|487=2|856=99|17=3|573=0|15=COP|880=201907160000000001|75=20190716|55=T24Q19F|762=FUIR|48=26623|22=M|31=1000.000|32=50|381=125000000000.000|60=20190716-15:06:25.943|64=20190716|552=1|54=1|453=3|448=035X01|447=C|452=12|448=035|447=C|452=1|448=035FCM001|447=C|452=36|1=DP003|10=059|
8=FIX.4.4|9=59|35=0|34=3|49=035|50=035X01|52=20190715-13:09:13.547|56=EXC|10=082|
8=FIX.4.4|9=0049|35=0|34=4|49=EXC|56=035|52=20190716-15:06:55.000|10=180|
8=FIX.4.4|9=59|35=0|34=4|49=035|50=035X01|52=20190715-13:09:43.548|56=EXC|10=087|
8=FIX.4.4|9=0049|35=0|34=5|49=EXC|56=035|52=20190716-15:07:25.000|10=179|
8=FIX.4.4|9=110|35=A|34=1|49=035|50=035X01|52=20190715-13:10:01.579|56=EXC|43=N|98=0|108=30|141=Y|553=035FCM001|554=035FCM001|10=109|
8=FIX.4.4|9=110|35=A|34=1|49=035|50=035X01|52=20190715-13:27:08.411|56=EXC|43=N|98=0|108=30|141=Y|553=035FCM001|554=035FCM001|10=109|
8=FIX.4.4|9=0067|35=A|34=1|49=EXC|56=035|52=20190716-15:24:36.484|98=0|108=30|141=Y|10=023|
8=FIX.4.4|9=189|35=AE|34=2|49=035|50=035X01|52=20190715-13:27:15.593|56=EXC|31=1000|32=100|55=T24Q19F|60=20190716-15:23:08.699|487=0|571=20190715827051_AE|762=FUIR|856=96|880=201907160000000003|552=1|54=1|10=002|
8=FIX.4.4|9=0131|35=AR|34=2|49=EXC|56=035|57=035X01|52=20190716-15:24:43.648|571=20190715827051_AE|487=0|856=96|939=0|17=6|60=20190716-15:24:43.648|10=217|
8=FIX.4.4|9=0354|35=AE|34=3|49=EXC|56=035|57=035X01|52=20190716-15:24:58.730|571=20190715827051_AE|487=2|856=99|17=7|573=0|15=COP|880=201907160000000003|75=20190716|55=T24Q19F|762=FUIR|48=26623|22=M|31=1000.000|32=50|381=125000000000.000|60=20190716-15:24:58.730|64=20190716|552=1|54=1|453=3|448=035X01|447=C|452=12|448=035|447=C|452=1|448=035FCM001|447=C|452=36|1=DP003|10=066|
8=FIX.4.4|9=59|35=0|34=3|49=035|50=035X01|52=20190715-13:27:46.383|56=EXC|10=086|
8=FIX.4.4|9=0049|35=0|34=4|49=EXC|56=035|52=20190716-15:25:28.000|10=181|
8=FIX.4.4|9=59|35=0|34=4|49=035|50=035X01|52=20190715-13:28:16.379|56=EXC|10=090|
8=FIX.4.4|9=0049|35=0|34=5|49=EXC|56=035|52=20190716-15:25:58.000|10=185|
8=FIX.4.4|9=59|35=0|34=5|49=035|50=035X01|52=20190715-13:28:46.383|56=EXC|10=089|
