8=FIX.4.4|9=105|35=A|34=1|49=013|50=013B17|52=20190620-21:31:23.158|56=EXC|98=0|108=30|141=Y|553=013FCM001|554=013FCM001|10=089|
8=FIX.4.4|9=0067|35=A|34=1|49=EXC|56=013|52=20190620-21:31:23.690|98=0|108=30|141=Y|10=003|
8=FIX.4.4|9=105|35=A|34=1|49=013|50=013B17|52=20190620-21:41:55.650|56=EXC|98=0|108=30|141=Y|553=013FCM001|554=013FCM001|10=092|
8=FIX.4.4|9=0067|35=A|34=1|49=EXC|56=013|52=20190620-21:41:55.857|98=0|108=30|141=Y|10=014|
8=FIX.4.4|9=105|35=A|34=1|49=013|50=013B17|52=20190620-21:42:44.122|56=EXC|98=0|108=30|141=Y|553=013FCM001|554=013FCM001|10=085|
8=FIX.4.4|9=0067|35=A|34=1|49=EXC|56=013|52=20190620-21:42:44.234|98=0|108=30|141=Y|10=002|
8=FIX.4.4|9=105|35=A|34=1|49=013|50=013B17|52=20190620-21:54:13.253|56=EXC|98=0|108=30|141=Y|553=013FCM001|554=013FCM001|10=089|
8=FIX.4.4|9=0067|35=A|34=1|49=EXC|56=013|52=20190620-21:54:13.683|98=0|108=30|141=Y|10=009|
8=FIX.4.4|9=105|35=A|34=1|49=013|50=013B17|52=20190620-21:59:27.641|56=EXC|98=0|108=30|141=Y|553=013FCM001|554=013FCM001|10=100|
8=FIX.4.4|9=0067|35=A|34=1|49=EXC|56=013|52=20190620-21:59:28.112|98=0|108=30|141=Y|10=007|
8=FIX.4.4|9=105|35=A|34=1|49=013|50=013B17|52=20190621-13:46:46.522|56=EXC|98=0|108=30|141=Y|553=013FCM001|554=013FCM001|10=097|
8=FIX.4.4|9=0067|35=A|34=1|49=EXC|56=013|52=20190621-13:46:46.542|98=0|108=30|141=Y|10=012|
8=FIX.4.4|9=105|35=A|34=1|49=013|50=013B17|52=20190621-13:51:58.610|56=EXC|98=0|108=30|141=Y|553=013FCM001|554=013FCM001|10=094|
8=FIX.4.4|9=0067|35=A|34=1|49=EXC|56=013|52=20190621-13:51:58.632|98=0|108=30|141=Y|10=011|
8=FIX.4.4|9=105|35=A|34=1|49=013|50=013B17|52=20190621-14:01:12.838|56=EXC|98=0|108=30|141=Y|553=013FCM001|554=013FCM001|10=092|
8=FIX.4.4|9=0067|35=A|34=1|49=EXC|56=013|52=20190621-14:01:12.883|98=0|108=30|141=Y|10=005|
8=FIX.4.4|9=105|35=A|34=1|49=013|50=013B17|52=20190621-14:02:04.394|56=EXC|98=0|108=30|141=Y|553=013FCM001|554=013FCM001|10=091|
8=FIX.4.4|9=0067|35=A|34=1|49=EXC|56=013|52=20190621-14:02:04.432|98=0|108=30|141=Y|10=253|
8=FIX.4.4|9=105|35=A|34=1|49=013|50=013B17|52=20190621-15:58:27.620|56=EXC|98=0|108=30|141=Y|553=013FCM001|554=013FCM001|10=100|
8=FIX.4.4|9=0067|35=A|34=1|49=EXC|56=013|52=20190621-15:58:27.663|98=0|108=30|141=Y|10=020|
8=FIX.4.4|9=105|35=A|34=1|49=013|50=013B17|52=20190621-16:01:48.528|56=EXC|98=0|108=30|141=Y|553=013FCM001|554=013FCM001|10=099|
8=FIX.4.4|9=0067|35=A|34=1|49=EXC|56=013|52=20190621-16:01:48.583|98=0|108=30|141=Y|10=013|
8=FIX.4.4|9=105|35=A|34=1|49=013|50=013B17|52=20190621-16:17:31.401|56=EXC|98=0|108=30|141=Y|553=013FCM001|554=013FCM001|10=088|
8=FIX.4.4|9=0067|35=A|34=1|49=EXC|56=013|52=20190621-16:17:31.447|98=0|108=30|141=Y|10=011|
8=FIX.4.4|9=105|35=A|34=1|49=013|50=013B17|52=20190621-16:24:24.472|56=EXC|98=0|108=30|141=Y|553=013FCM001|554=013FCM001|10=096|
8=FIX.4.4|9=0067|35=A|34=1|49=EXC|56=013|52=20190621-16:24:24.531|98=0|108=30|141=Y|10=005|
8=FIX.4.4|9=105|35=A|34=1|49=013|50=013B17|52=20190621-16:29:19.383|56=EXC|98=0|108=30|141=Y|553=013FCM001|554=013FCM001|10=106|
8=FIX.4.4|9=0067|35=A|34=1|49=EXC|56=013|52=20190621-16:29:19.412|98=0|108=30|141=Y|10=012|
8=FIX.4.4|9=105|35=A|34=1|49=013|50=013B17|52=20190625-14:28:26.126|56=EXC|98=0|108=30|141=Y|553=013FCM001|554=013FCM001|10=100|
8=FIX.4.4|9=0067|35=A|34=1|49=EXC|56=013|52=20190627-14:28:15.849|98=0|108=30|141=Y|10=025|
8=FIX.4.4|9=105|35=A|34=1|49=013|50=013B17|52=20190625-14:51:26.050|56=EXC|98=0|108=30|141=Y|553=013FCM001|554=013FCM001|10=092|
8=FIX.4.4|9=0067|35=A|34=1|49=EXC|56=013|52=20190627-14:51:15.743|98=0|108=30|141=Y|10=014|
8=FIX.4.4|9=105|35=A|34=1|49=013|50=013B17|52=20190625-19:44:15.107|56=EXC|98=0|108=30|141=Y|553=013FCM001|554=013FCM001|10=100|
8=FIX.4.4|9=0067|35=A|34=1|49=EXC|56=013|52=20190627-19:44:15.153|98=0|108=30|141=Y|10=016|
8=FIX.4.4|9=105|35=A|34=1|49=013|50=013B17|52=20190625-19:45:35.142|56=EXC|98=0|108=30|141=Y|553=013FCM001|554=013FCM001|10=102|
8=FIX.4.4|9=0067|35=A|34=1|49=EXC|56=013|52=20190627-19:45:35.177|98=0|108=30|141=Y|10=025|
8=FIX.4.4|9=105|35=A|34=1|49=013|50=013B17|52=20190625-19:54:23.992|56=EXC|98=0|108=30|141=Y|553=013FCM001|554=013FCM001|10=112|
8=FIX.4.4|9=0067|35=A|34=1|49=EXC|56=013|52=20190627-19:54:24.047|98=0|108=30|141=Y|10=019|
8=FIX.4.4|9=105|35=A|34=1|49=013|50=013B17|52=20190625-19:55:23.734|56=EXC|98=0|108=30|141=Y|553=013FCM001|554=013FCM001|10=107|
8=FIX.4.4|9=0067|35=A|34=1|49=EXC|56=013|52=20190627-19:55:23.787|98=0|108=30|141=Y|10=030|
8=FIX.4.4|9=105|35=A|34=1|49=013|50=013B17|52=20190625-20:02:36.670|56=EXC|98=0|108=30|141=Y|553=013FCM001|554=013FCM001|10=094|
8=FIX.4.4|9=0067|35=A|34=1|49=EXC|56=013|52=20190627-20:02:36.703|98=0|108=30|141=Y|10=006|
8=FIX.4.4|9=105|35=A|34=1|49=013|50=013B17|52=20190626-19:09:44.354|56=EXC|98=0|108=30|141=Y|553=013FCM001|554=013FCM001|10=108|
8=FIX.4.4|9=0067|35=A|34=1|49=EXC|56=013|52=20190628-19:09:44.425|98=0|108=30|141=Y|10=022|
8=FIX.4.4|9=105|35=A|34=1|49=013|50=013B17|52=20190626-20:09:29.680|56=EXC|98=0|108=30|141=Y|553=013FCM001|554=013FCM001|10=105|
8=FIX.4.4|9=0067|35=A|34=1|49=EXC|56=013|52=20190628-20:09:29.737|98=0|108=30|141=Y|10=023|
8=FIX.4.4|9=0049|35=0|34=2|49=EXC|56=013|52=20190628-20:09:59.000|10=179|
8=FIX.4.4|9=59|35=0|34=2|49=013|50=013B17|52=20190626-20:10:00.521|56=EXC|10=037|
8=FIX.4.4|9=105|35=A|34=1|49=013|50=013B17|52=20190626-20:11:00.045|56=EXC|98=0|108=30|141=Y|553=013FCM001|554=013FCM001|10=082|
8=FIX.4.4|9=0067|35=A|34=1|49=EXC|56=013|52=20190628-20:11:00.108|98=0|108=30|141=Y|10=253|
8=FIX.4.4|9=0049|35=0|34=2|49=EXC|56=013|52=20190628-20:11:30.000|10=161|
8=FIX.4.4|9=59|35=0|34=2|49=013|50=013B17|52=20190626-20:11:30.807|56=EXC|10=048|
8=FIX.4.4|9=105|35=A|34=1|49=013|50=013B17|52=20190626-20:16:08.012|56=EXC|98=0|108=30|141=Y|553=013FCM001|554=013FCM001|10=089|
8=FIX.4.4|9=0067|35=A|34=1|49=EXC|56=013|52=20190628-20:16:08.083|98=0|108=30|141=Y|10=012|
8=FIX.4.4|9=105|35=A|34=1|49=013|50=013B17|52=20190626-20:20:26.446|56=EXC|98=0|108=30|141=Y|553=013FCM001|554=013FCM001|10=095|
8=FIX.4.4|9=0067|35=A|34=1|49=EXC|56=013|52=20190628-20:20:26.495|98=0|108=30|141=Y|10=014|
8=FIX.4.4|9=105|35=A|34=1|49=013|50=013B17|52=20190626-20:34:32.550|56=EXC|98=0|108=30|141=Y|553=013FCM001|554=013FCM001|10=093|
8=FIX.4.4|9=0067|35=A|34=1|49=EXC|56=013|52=20190628-20:34:32.627|98=0|108=30|141=Y|10=013|
8=FIX.4.4|9=105|35=A|34=1|49=013|50=013B17|52=20190626-20:45:46.434|56=EXC|98=0|108=30|141=Y|553=013FCM001|554=013FCM001|10=101|
8=FIX.4.4|9=0067|35=A|34=1|49=EXC|56=013|52=20190628-20:45:46.493|98=0|108=30|141=Y|10=021|
8=FIX.4.4|9=0049|35=0|34=2|49=EXC|56=013|52=20190628-20:46:16.000|10=173|
8=FIX.4.4|9=59|35=0|34=2|49=013|50=013B17|52=20190626-20:46:17.154|56=EXC|10=056|
8=FIX.4.4|9=0049|35=0|34=3|49=EXC|56=013|52=20190628-20:46:46.000|10=177|
8=FIX.4.4|9=59|35=0|34=3|49=013|50=013B17|52=20190626-20:46:47.153|56=EXC|10=059|
8=FIX.4.4|9=0049|35=0|34=4|49=EXC|56=013|52=20190628-20:47:16.000|10=176|
8=FIX.4.4|9=59|35=0|34=4|49=013|50=013B17|52=20190626-20:47:17.153|56=EXC|10=058|
8=FIX.4.4|9=105|35=A|34=1|49=013|50=013B17|52=20190626-20:47:57.712|56=EXC|98=0|108=30|141=Y|553=013FCM001|554=013FCM001|10=104|
8=FIX.4.4|9=0067|35=A|34=1|49=EXC|56=013|52=20190628-20:47:57.788|98=0|108=30|141=Y|10=032|
8=FIX.4.4|9=105|35=A|34=1|49=013|50=013B17|52=20190626-21:05:42.627|56=EXC|98=0|108=30|141=Y|553=013FCM001|554=013FCM001|10=098|
8=FIX.4.4|9=0067|35=A|34=1|49=EXC|56=013|52=20190628-21:05:42.176|98=0|108=30|141=Y|10=012|
8=FIX.4.4|9=105|35=A|34=1|49=013|50=013B17|52=20190626-21:06:19.803|56=EXC|98=0|108=30|141=Y|553=013FCM001|554=013FCM001|10=099|
8=FIX.4.4|9=0067|35=A|34=1|49=EXC|56=013|52=20190628-21:06:19.323|98=0|108=30|141=Y|10=011|
8=FIX.4.4|9=105|35=A|34=1|49=013|50=013B17|52=20190626-21:07:10.734|56=EXC|98=0|108=30|141=Y|553=013FCM001|554=013FCM001|10=094|
8=FIX.4.4|9=0067|35=A|34=1|49=EXC|56=013|52=20190628-21:07:10.248|98=0|108=30|141=Y|10=009|
8=FIX.4.4|9=105|35=A|34=1|49=013|50=013B17|52=20190626-21:09:36.805|56=EXC|98=0|108=30|141=Y|553=013FCM001|554=013FCM001|10=103|
8=FIX.4.4|9=0067|35=A|34=1|49=EXC|56=013|52=20190628-21:09:36.323|98=0|108=30|141=Y|10=013|
8=FIX.4.4|9=105|35=A|34=1|49=013|50=013B17|52=20190626-21:10:30.827|56=EXC|98=0|108=30|141=Y|553=013FCM001|554=013FCM001|10=093|
8=FIX.4.4|9=0067|35=A|34=1|49=EXC|56=013|52=20190628-21:10:30.361|98=0|108=30|141=Y|10=001|
8=FIX.4.4|9=105|35=A|34=1|49=013|50=013B17|52=20190626-21:11:06.833|56=EXC|98=0|108=30|141=Y|553=013FCM001|554=013FCM001|10=094|
8=FIX.4.4|9=0067|35=A|34=1|49=EXC|56=013|52=20190628-21:11:06.361|98=0|108=30|141=Y|10=005|
8=FIX.4.4|9=105|35=A|34=1|49=013|50=013B17|52=20190626-21:25:27.044|56=EXC|98=0|108=30|141=Y|553=013FCM001|554=013FCM001|10=096|
8=FIX.4.4|9=0067|35=A|34=1|49=EXC|56=013|52=20190628-21:25:26.939|98=0|108=30|141=Y|10=023|
8=FIX.4.4|9=0049|35=0|34=2|49=EXC|56=013|52=20190628-21:25:56.000|10=175|
