8=FIX.4.4|9=105|35=A|34=1|49=010|50=010BWN|52=20190620-21:31:23.123|56=EXC|98=0|108=30|141=Y|553=010FCE003|554=010FCE003|10=118|
8=FIX.4.4|9=0067|35=A|34=1|49=EXC|56=010|52=20190620-21:31:23.655|98=0|108=30|141=Y|10=001|
8=FIX.4.4|9=105|35=A|34=1|49=010|50=010BWN|52=20190620-21:41:55.429|56=EXC|98=0|108=30|141=Y|553=010FCE003|554=010FCE003|10=133|
8=FIX.4.4|9=0067|35=A|34=1|49=EXC|56=010|52=20190620-21:41:55.686|98=0|108=30|141=Y|10=011|
8=FIX.4.4|9=105|35=A|34=1|49=010|50=010BWN|52=20190620-21:42:44.060|56=EXC|98=0|108=30|141=Y|553=010FCE003|554=010FCE003|10=123|
8=FIX.4.4|9=0067|35=A|34=1|49=EXC|56=010|52=20190620-21:42:44.165|98=0|108=30|141=Y|10=002|
8=FIX.4.4|9=105|35=A|34=1|49=010|50=010BWN|52=20190620-21:54:13.147|56=EXC|98=0|108=30|141=Y|553=010FCE003|554=010FCE003|10=128|
8=FIX.4.4|9=0067|35=A|34=1|49=EXC|56=010|52=20190620-21:54:13.565|98=0|108=30|141=Y|10=005|
8=FIX.4.4|9=105|35=A|34=1|49=010|50=010BWN|52=20190620-21:59:27.608|56=EXC|98=0|108=30|141=Y|553=010FCE003|554=010FCE003|10=140|
8=FIX.4.4|9=0067|35=A|34=1|49=EXC|56=010|52=20190620-21:59:28.077|98=0|108=30|141=Y|10=014|
8=FIX.4.4|9=105|35=A|34=1|49=010|50=010BWN|52=20190621-13:46:46.488|56=EXC|98=0|108=30|141=Y|553=010FCE003|554=010FCE003|10=145|
8=FIX.4.4|9=0067|35=A|34=1|49=EXC|56=010|52=20190621-13:46:46.507|98=0|108=30|141=Y|10=010|
8=FIX.4.4|9=105|35=A|34=1|49=010|50=010BWN|52=20190621-13:51:58.540|56=EXC|98=0|108=30|141=Y|553=010FCE003|554=010FCE003|10=133|
8=FIX.4.4|9=0067|35=A|34=1|49=EXC|56=010|52=20190621-13:51:58.586|98=0|108=30|141=Y|10=016|
8=FIX.4.4|9=105|35=A|34=1|49=010|50=010BWN|52=20190621-14:01:12.738|56=EXC|98=0|108=30|141=Y|553=010FCE003|554=010FCE003|10=128|
8=FIX.4.4|9=0067|35=A|34=1|49=EXC|56=010|52=20190621-14:01:12.820|98=0|108=30|141=Y|10=249|
8=FIX.4.4|9=105|35=A|34=1|49=010|50=010BWN|52=20190621-14:02:04.361|56=EXC|98=0|108=30|141=Y|553=010FCE003|554=010FCE003|10=122|
8=FIX.4.4|9=0067|35=A|34=1|49=EXC|56=010|52=20190621-14:02:04.399|98=0|108=30|141=Y|10=006|
8=FIX.4.4|9=105|35=A|34=1|49=010|50=010BWN|52=20190621-15:58:27.555|56=EXC|98=0|108=30|141=Y|553=010FCE003|554=010FCE003|10=144|
8=FIX.4.4|9=0067|35=A|34=1|49=EXC|56=010|52=20190621-15:58:27.594|98=0|108=30|141=Y|10=020|
8=FIX.4.4|9=105|35=A|34=1|49=010|50=010BWN|52=20190621-16:01:48.463|56=EXC|98=0|108=30|141=Y|553=010FCE003|554=010FCE003|10=134|
8=FIX.4.4|9=0067|35=A|34=1|49=EXC|56=010|52=20190621-16:01:48.503|98=0|108=30|141=Y|10=002|
8=FIX.4.4|9=105|35=A|34=1|49=010|50=010BWN|52=20190621-16:17:31.295|56=EXC|98=0|108=30|141=Y|553=010FCE003|554=010FCE003|10=136|
8=FIX.4.4|9=0067|35=A|34=1|49=EXC|56=010|52=20190621-16:17:31.359|98=0|108=30|141=Y|10=010|
8=FIX.4.4|9=105|35=A|34=1|49=010|50=010BWN|52=20190621-16:24:24.387|56=EXC|98=0|108=30|141=Y|553=010FCE003|554=010FCE003|10=138|
8=FIX.4.4|9=0067|35=A|34=1|49=EXC|56=010|52=20190621-16:24:24.431|98=0|108=30|141=Y|10=001|
8=FIX.4.4|9=105|35=A|34=1|49=010|50=010BWN|52=20190621-16:29:19.305|56=EXC|98=0|108=30|141=Y|553=010FCE003|554=010FCE003|10=137|
8=FIX.4.4|9=0067|35=A|34=1|49=EXC|56=010|52=20190621-16:29:19.353|98=0|108=30|141=Y|10=013|
8=FIX.4.4|9=105|35=A|34=1|49=010|50=010BWN|52=20190625-14:28:26.069|56=EXC|98=0|108=30|141=Y|553=010FCE003|554=010FCE003|10=143|
8=FIX.4.4|9=0067|35=A|34=1|49=EXC|56=010|52=20190627-14:28:15.764|98=0|108=30|141=Y|10=018|
8=FIX.4.4|9=105|35=A|34=1|49=010|50=010BWN|52=20190625-14:51:26.009|56=EXC|98=0|108=30|141=Y|553=010FCE003|554=010FCE003|10=133|
8=FIX.4.4|9=0067|35=A|34=1|49=EXC|56=010|52=20190627-14:51:15.684|98=0|108=30|141=Y|10=015|
8=FIX.4.4|9=105|35=A|34=1|49=010|50=010BWN|52=20190625-19:44:15.062|56=EXC|98=0|108=30|141=Y|553=010FCE003|554=010FCE003|10=137|
8=FIX.4.4|9=0067|35=A|34=1|49=EXC|56=010|52=20190627-19:44:15.101|98=0|108=30|141=Y|10=006|
8=FIX.4.4|9=105|35=A|34=1|49=010|50=010BWN|52=20190625-19:45:35.084|56=EXC|98=0|108=30|141=Y|553=010FCE003|554=010FCE003|10=144|
8=FIX.4.4|9=0067|35=A|34=1|49=EXC|56=010|52=20190627-19:45:35.132|98=0|108=30|141=Y|10=013|
8=FIX.4.4|9=105|35=A|34=1|49=010|50=010BWN|52=20190625-19:54:23.927|56=EXC|98=0|108=30|141=Y|553=010FCE003|554=010FCE003|10=147|
8=FIX.4.4|9=0067|35=A|34=1|49=EXC|56=010|52=20190627-19:54:23.967|98=0|108=30|141=Y|10=026|
8=FIX.4.4|9=105|35=A|34=1|49=010|50=010BWN|52=20190625-19:55:23.652|56=EXC|98=0|108=30|141=Y|553=010FCE003|554=010FCE003|10=143|
8=FIX.4.4|9=0067|35=A|34=1|49=EXC|56=010|52=20190627-19:55:23.703|98=0|108=30|141=Y|10=015|
8=FIX.4.4|9=105|35=A|34=1|49=010|50=010BWN|52=20190625-20:02:36.616|56=EXC|98=0|108=30|141=Y|553=010FCE003|554=010FCE003|10=131|
8=FIX.4.4|9=0067|35=A|34=1|49=EXC|56=010|52=20190627-20:02:36.657|98=0|108=30|141=Y|10=011|
8=FIX.4.4|9=105|35=A|34=1|49=010|50=010BWN|52=20190626-19:09:44.283|56=EXC|98=0|108=30|141=Y|553=010FCE003|554=010FCE003|10=146|
8=FIX.4.4|9=0067|35=A|34=1|49=EXC|56=010|52=20190628-19:09:44.362|98=0|108=30|141=Y|10=019|
8=FIX.4.4|9=105|35=A|34=1|49=010|50=010BWN|52=20190626-20:09:29.628|56=EXC|98=0|108=30|141=Y|553=010FCE003|554=010FCE003|10=144|
8=FIX.4.4|9=0067|35=A|34=1|49=EXC|56=010|52=20190628-20:09:29.683|98=0|108=30|141=Y|10=020|
8=FIX.4.4|9=0049|35=0|34=2|49=EXC|56=010|52=20190628-20:09:59.000|10=176|
8=FIX.4.4|9=59|35=0|34=2|49=010|50=010BWN|52=20190626-20:10:00.498|56=EXC|10=105|
8=FIX.4.4|9=105|35=A|34=1|49=010|50=010BWN|52=20190626-20:10:59.990|56=EXC|98=0|108=30|141=Y|553=010FCE003|554=010FCE003|10=141|
8=FIX.4.4|9=0067|35=A|34=1|49=EXC|56=010|52=20190628-20:11:00.059|98=0|108=30|141=Y|10=255|
8=FIX.4.4|9=0049|35=0|34=2|49=EXC|56=010|52=20190628-20:11:30.000|10=158|
8=FIX.4.4|9=59|35=0|34=2|49=010|50=010BWN|52=20190626-20:11:30.024|56=EXC|10=094|
8=FIX.4.4|9=105|35=A|34=1|49=010|50=010BWN|52=20190626-20:16:07.937|56=EXC|98=0|108=30|141=Y|553=010FCE003|554=010FCE003|10=141|
8=FIX.4.4|9=0067|35=A|34=1|49=EXC|56=010|52=20190628-20:16:07.998|98=0|108=30|141=Y|10=023|
8=FIX.4.4|9=105|35=A|34=1|49=010|50=010BWN|52=20190626-20:20:26.397|56=EXC|98=0|108=30|141=Y|553=010FCE003|554=010FCE003|10=137|
8=FIX.4.4|9=0067|35=A|34=1|49=EXC|56=010|52=20190628-20:20:26.450|98=0|108=30|141=Y|10=002|
8=FIX.4.4|9=105|35=A|34=1|49=010|50=010BWN|52=20190626-20:34:32.504|56=EXC|98=0|108=30|141=Y|553=010FCE003|554=010FCE003|10=129|
8=FIX.4.4|9=0067|35=A|34=1|49=EXC|56=010|52=20190628-20:34:32.556|98=0|108=30|141=Y|10=011|
8=FIX.4.4|9=105|35=A|34=1|49=010|50=010BWN|52=20190626-20:45:46.366|56=EXC|98=0|108=30|141=Y|553=010FCE003|554=010FCE003|10=142|
8=FIX.4.4|9=0067|35=A|34=1|49=EXC|56=010|52=20190628-20:45:46.436|98=0|108=30|141=Y|10=015|
8=FIX.4.4|9=0049|35=0|34=2|49=EXC|56=010|52=20190628-20:46:16.000|10=170|
8=FIX.4.4|9=59|35=0|34=2|49=010|50=010BWN|52=20190626-20:46:17.137|56=EXC|10=112|
8=FIX.4.4|9=0049|35=0|34=3|49=EXC|56=010|52=20190628-20:46:46.000|10=174|
8=FIX.4.4|9=59|35=0|34=3|49=010|50=010BWN|52=20190626-20:46:47.136|56=EXC|10=115|
8=FIX.4.4|9=0049|35=0|34=4|49=EXC|56=010|52=20190628-20:47:16.000|10=173|
8=FIX.4.4|9=59|35=0|34=4|49=010|50=010BWN|52=20190626-20:47:17.135|56=EXC|10=113|
8=FIX.4.4|9=105|35=A|34=1|49=010|50=010BWN|52=20190626-20:47:57.648|56=EXC|98=0|108=30|141=Y|553=010FCE003|554=010FCE003|10=149|
8=FIX.4.4|9=0067|35=A|34=1|49=EXC|56=010|52=20190628-20:47:57.713|98=0|108=30|141=Y|10=017|
8=FIX.4.4|9=105|35=A|34=1|49=010|50=010BWN|52=20190626-21:05:42.561|56=EXC|98=0|108=30|141=Y|553=010FCE003|554=010FCE003|10=132|
8=FIX.4.4|9=0067|35=A|34=1|49=EXC|56=010|52=20190628-21:05:42.084|98=0|108=30|141=Y|10=007|
8=FIX.4.4|9=105|35=A|34=1|49=010|50=010BWN|52=20190626-21:06:19.758|56=EXC|98=0|108=30|141=Y|553=010FCE003|554=010FCE003|10=145|
8=FIX.4.4|9=0067|35=A|34=1|49=EXC|56=010|52=20190628-21:06:19.269|98=0|108=30|141=Y|10=017|
8=FIX.4.4|9=105|35=A|34=1|49=010|50=010BWN|52=20190626-21:07:10.652|56=EXC|98=0|108=30|141=Y|553=010FCE003|554=010FCE003|10=130|
8=FIX.4.4|9=0067|35=A|34=1|49=EXC|56=010|52=20190628-21:07:10.186|98=0|108=30|141=Y|10=007|
8=FIX.4.4|9=105|35=A|34=1|49=010|50=010BWN|52=20190626-21:09:36.761|56=EXC|98=0|108=30|141=Y|553=010FCE003|554=010FCE003|10=141|
8=FIX.4.4|9=0067|35=A|34=1|49=EXC|56=010|52=20190628-21:09:36.270|98=0|108=30|141=Y|10=011|
8=FIX.4.4|9=105|35=A|34=1|49=010|50=010BWN|52=20190626-21:10:30.761|56=EXC|98=0|108=30|141=Y|553=010FCE003|554=010FCE003|10=127|
8=FIX.4.4|9=0067|35=A|34=1|49=EXC|56=010|52=20190628-21:10:30.281|98=0|108=30|141=Y|10=255|
8=FIX.4.4|9=105|35=A|34=1|49=010|50=010BWN|52=20190626-21:11:06.762|56=EXC|98=0|108=30|141=Y|553=010FCE003|554=010FCE003|10=132|
8=FIX.4.4|9=0067|35=A|34=1|49=EXC|56=010|52=20190628-21:11:06.291|98=0|108=30|141=Y|10=004|
8=FIX.4.4|9=105|35=A|34=1|49=010|50=010BWN|52=20190626-21:25:26.999|56=EXC|98=0|108=30|141=Y|553=010FCE003|554=010FCE003|10=151|
8=FIX.4.4|9=0067|35=A|34=1|49=EXC|56=010|52=20190628-21:25:26.890|98=0|108=30|141=Y|10=016|
8=FIX.4.4|9=0049|35=0|34=2|49=EXC|56=010|52=20190628-21:25:56.000|10=172|
8=FIX.4.4|9=105|35=A|34=1|49=010|50=010BWN|52=20190626-21:35:17.890|56=EXC|98=0|108=30|141=Y|553=010FCE003|554=010FCE003|10=142|
8=FIX.4.4|9=0067|35=A|34=1|49=EXC|56=010|52=20190628-21:35:17.990|98=0|108=30|141=Y|10=018|
8=FIX.4.4|9=0049|35=0|34=2|49=EXC|56=010|52=20190628-21:35:47.000|10=173|
8=FIX.4.4|9=59|35=0|34=2|49=010|50=010BWN|52=20190626-21:35:48.622|56=EXC|10=114|
8=FIX.4.4|9=105|35=A|34=1|49=010|50=010BWN|52=20190626-21:55:42.048|56=EXC|98=0|108=30|141=Y|553=010FCE003|554=010FCE003|10=137|
8=FIX.4.4|9=0067|35=A|34=1|49=EXC|56=010|52=20190628-21:55:42.125|98=0|108=30|141=Y|10=008|
8=FIX.4.4|9=0049|35=0|34=2|49=EXC|56=010|52=20190628-21:56:12.000|10=168|
8=FIX.4.4|9=59|35=0|34=2|49=010|50=010BWN|52=20190626-21:56:12.857|56=EXC|10=118|
8=FIX.4.4|9=99|35=A|34=3|49=010|50=010BWN|52=20190626-21:56:28.216|56=EXC|98=0|108=30|553=010FCE003|554=010FCE003|10=060|
8=FIX.4.4|9=0061|35=A|34=3|49=EXC|56=010|52=20190628-21:56:28.264|98=0|108=30|10=224|
8=FIX.4.4|9=0049|35=0|34=4|49=EXC|56=010|52=20190628-21:56:58.000|10=180|
8=FIX.4.4|9=59|35=0|34=4|49=010|50=010BWN|52=20190626-21:56:59.123|56=EXC|10=117|
8=FIX.4.4|9=105|35=A|34=1|49=010|50=010BWN|52=20190626-22:01:39.773|56=EXC|98=0|108=30|141=Y|553=010FCE003|554=010FCE003|10=140|
8=FIX.4.4|9=0067|35=A|34=1|49=EXC|56=010|52=20190628-22:01:39.971|98=0|108=30|141=Y|10=015|
8=FIX.4.4|9=105|35=A|34=1|49=010|50=010BWN|52=20190626-22:02:08.577|56=EXC|98=0|108=30|141=Y|553=010FCE003|554=010FCE003|10=139|
8=FIX.4.4|9=0067|35=A|34=1|49=EXC|56=010|52=20190628-22:02:08.771|98=0|108=30|141=Y|10=010|
8=FIX.4.4|9=105|35=A|34=1|49=010|50=010BWN|52=20190627-19:53:15.805|56=EXC|98=0|108=30|141=Y|553=010FCE003|554=010FCE003|10=144|
8=FIX.4.4|9=0067|35=A|34=1|49=EXC|56=010|52=20190627-19:53:15.874|98=0|108=30|141=Y|10=023|
8=FIX.4.4|9=0049|35=0|34=2|49=EXC|56=010|52=20190627-19:53:45.000|10=177|
8=FIX.4.4|9=59|35=0|34=2|49=010|50=010BWN|52=20190627-19:53:46.530|56=EXC|10=118|
8=FIX.4.4|9=105|35=A|34=1|49=010|50=010BWN|52=20190627-19:54:06.057|56=EXC|98=0|108=30|141=Y|553=010FCE003|554=010FCE003|10=144|
8=FIX.4.4|9=0067|35=A|34=1|49=EXC|56=010|52=20190627-19:54:06.131|98=0|108=30|141=Y|10=010|
8=FIX.4.4|9=105|35=A|34=1|49=010|50=010BWN|52=20190628-14:45:15.395|56=EXC|98=0|108=30|141=Y|553=010FCE003|554=010FCE003|10=145|
8=FIX.4.4|9=0067|35=A|34=1|49=EXC|56=010|52=20190628-14:45:15.472|98=0|108=30|141=Y|10=014|
8=FIX.4.4|9=0049|35=0|34=2|49=EXC|56=010|52=20190628-14:45:45.000|10=174|
8=FIX.4.4|9=59|35=0|34=2|49=010|50=010BWN|52=20190628-14:45:46.157|56=EXC|10=120|
8=FIX.4.4|9=105|35=A|34=1|49=010|50=010BWN|52=20190702-17:24:05.903|56=EXC|98=0|108=30|141=Y|553=010FCE003|554=010FCE003|10=132|
8=FIX.4.4|9=0067|35=A|34=1|49=EXC|56=010|52=20190702-17:24:05.954|98=0|108=30|141=Y|10=011|
8=FIX.4.4|9=0049|35=0|34=2|49=EXC|56=010|52=20190702-17:24:35.000|10=166|
8=FIX.4.4|9=59|35=0|34=2|49=010|50=010BWN|52=20190702-17:24:36.804|56=EXC|10=111|
8=FIX.4.4|9=105|35=A|34=1|49=010|50=010BWN|52=20190702-17:44:37.296|56=EXC|98=0|108=30|141=Y|553=010FCE003|554=010FCE003|10=144|
8=FIX.4.4|9=0067|35=A|34=1|49=EXC|56=010|52=20190702-17:44:37.356|98=0|108=30|141=Y|10=014|
8=FIX.4.4|9=0049|35=0|34=2|49=EXC|56=010|52=20190702-17:45:07.000|10=168|
8=FIX.4.4|9=59|35=0|34=2|49=010|50=010BWN|52=20190702-17:45:08.216|56=EXC|10=110|
8=FIX.4.4|9=105|35=A|34=1|49=010|50=010BWN|52=20190702-19:37:35.189|56=EXC|98=0|108=30|141=Y|553=010FCE003|554=010FCE003|10=147|
8=FIX.4.4|9=0067|35=A|34=1|49=EXC|56=010|52=20190702-19:37:35.374|98=0|108=30|141=Y|10=016|
8=FIX.4.4|9=110|35=A|34=1|49=010|50=010BWN|52=20190702-20:10:01.166|56=EXC|43=Y|98=0|108=30|141=Y|553=010FCE003|554=010FCE003|10=112|
8=FIX.4.4|9=0067|35=A|34=1|49=EXC|56=010|52=20190702-20:10:01.218|98=0|108=30|141=Y|10=245|
8=FIX.4.4|9=110|35=A|34=1|49=010|50=010BWN|52=20190702-21:28:51.822|56=EXC|43=Y|98=0|108=30|141=Y|553=010FCE003|554=010FCE003|10=126|
8=FIX.4.4|9=0067|35=A|34=1|49=EXC|56=010|52=20190702-21:28:51.906|98=0|108=30|141=Y|10=008|
8=FIX.4.4|9=0049|35=0|34=2|49=EXC|56=010|52=20190702-21:29:21.000|10=161|
8=FIX.4.4|9=59|35=0|34=2|49=010|50=010BWN|52=20190702-21:29:22.543|56=EXC|10=106|
8=FIX.4.4|9=110|35=A|34=1|49=010|50=010BWN|52=20190702-21:33:16.922|56=EXC|43=Y|98=0|108=30|141=Y|553=010FCE003|554=010FCE003|10=124|
8=FIX.4.4|9=0067|35=A|34=1|49=EXC|56=010|52=20190702-21:33:16.991|98=0|108=30|141=Y|10=009|
8=FIX.4.4|9=110|35=A|34=1|49=010|50=010BWN|52=20190702-21:36:38.048|56=EXC|43=Y|98=0|108=30|141=Y|553=010FCE003|554=010FCE003|10=130|
8=FIX.4.4|9=0067|35=A|34=1|49=EXC|56=010|52=20190702-21:36:38.122|98=0|108=30|141=Y|10=002|
8=FIX.4.4|9=0049|35=0|34=2|49=EXC|56=010|52=20190702-21:37:08.000|10=165|
8=FIX.4.4|9=59|35=0|34=2|49=010|50=010BWN|52=20190702-21:37:08.972|56=EXC|10=115|
8=FIX.4.4|9=110|35=A|34=1|49=010|50=010BWN|52=20190702-21:39:52.437|56=EXC|43=Y|98=0|108=30|141=Y|553=010FCE003|554=010FCE003|10=131|
8=FIX.4.4|9=0067|35=A|34=1|49=EXC|56=010|52=20190702-21:39:52.516|98=0|108=30|141=Y|10=008|
8=FIX.4.4|9=110|35=A|34=1|49=010|50=010BWN|52=20190703-15:49:22.186|56=EXC|43=Y|98=0|108=30|141=Y|553=010FCE003|554=010FCE003|10=134|
8=FIX.4.4|9=0067|35=A|34=1|49=EXC|56=010|52=20190703-15:55:15.299|98=0|108=30|141=Y|10=017|
8=FIX.4.4|9=110|35=A|34=1|49=010|50=010BWN|52=20190703-17:04:33.357|56=EXC|43=Y|98=0|108=30|141=Y|553=010FCE003|554=010FCE003|10=129|
8=FIX.4.4|9=0067|35=A|34=1|49=EXC|56=010|52=20190703-17:10:26.550|98=0|108=30|141=Y|10=002|
8=FIX.4.4|9=110|35=A|34=1|49=010|50=010BWN|52=20190703-21:16:39.956|56=EXC|43=Y|98=0|108=30|141=Y|553=010FCE003|554=010FCE003|10=138|
8=FIX.4.4|9=0067|35=A|34=1|49=EXC|56=010|52=20190703-21:22:33.347|98=0|108=30|141=Y|10=002|
8=FIX.4.4|9=0049|35=0|34=2|49=EXC|56=010|52=20190703-21:23:03.000|10=156|
8=FIX.4.4|9=59|35=0|34=2|49=010|50=010BWN|52=20190703-21:17:10.916|56=EXC|10=105|
8=FIX.4.4|9=0049|35=0|34=3|49=EXC|56=010|52=20190703-21:23:33.000|10=160|
8=FIX.4.4|9=59|35=0|34=3|49=010|50=010BWN|52=20190703-21:17:40.914|56=EXC|10=107|
8=FIX.4.4|9=59|35=5|34=4|49=010|50=010BWN|52=20190703-21:17:59.916|56=EXC|10=125|
8=FIX.4.4|9=0049|35=5|34=4|49=EXC|56=010|52=20190703-21:23:53.262|10=178|
8=FIX.4.4|9=110|35=A|34=1|49=010|50=010BWN|52=20190703-21:24:25.640|56=EXC|43=Y|98=0|108=30|141=Y|553=010FCE003|554=010FCE003|10=122|
8=FIX.4.4|9=0067|35=A|34=1|49=EXC|56=010|52=20190703-21:30:19.031|98=0|108=30|141=Y|10=251|
8=FIX.4.4|9=0049|35=0|34=2|49=EXC|56=010|52=20190703-21:30:49.000|10=164|
8=FIX.4.4|9=59|35=0|34=2|49=010|50=010BWN|52=20190703-21:24:55.644|56=EXC|10=110|
8=FIX.4.4|9=110|35=A|34=1|49=010|50=010BWN|52=20190704-12:55:58.882|56=EXC|43=Y|98=0|108=30|141=Y|553=010FCE003|554=010FCE003|10=141|
8=FIX.4.4|9=0067|35=A|34=1|49=EXC|56=010|52=20190704-13:01:52.877|98=0|108=30|141=Y|10=010|
8=FIX.4.4|9=0049|35=0|34=2|49=EXC|56=010|52=20190704-13:02:22.000|10=156|
8=FIX.4.4|9=59|35=0|34=2|49=010|50=010BWN|52=20190704-12:56:29.740|56=EXC|10=114|
8=FIX.4.4|9=0049|35=0|34=3|49=EXC|56=010|52=20190704-13:02:52.000|10=160|
8=FIX.4.4|9=59|35=0|34=3|49=010|50=010BWN|52=20190704-12:56:59.739|56=EXC|10=126|
8=FIX.4.4|9=110|35=A|34=1|49=010|50=010BWN|52=20190704-12:57:35.158|56=EXC|43=Y|98=0|108=30|141=Y|553=010FCE003|554=010FCE003|10=134|
8=FIX.4.4|9=0067|35=A|34=1|49=EXC|56=010|52=20190704-13:03:29.147|98=0|108=30|141=Y|10=006|
8=FIX.4.4|9=0049|35=0|34=2|49=EXC|56=010|52=20190704-13:03:59.000|10=167|
8=FIX.4.4|9=59|35=0|34=2|49=010|50=010BWN|52=20190704-12:58:05.798|56=EXC|10=123|
8=FIX.4.4|9=0049|35=0|34=3|49=EXC|56=010|52=20190704-13:04:29.000|10=166|
8=FIX.4.4|9=59|35=0|34=3|49=010|50=010BWN|52=20190704-12:58:35.812|56=EXC|10=114|
8=FIX.4.4|9=0049|35=0|34=4|49=EXC|56=010|52=20190704-13:04:59.000|10=170|
8=FIX.4.4|9=59|35=0|34=4|49=010|50=010BWN|52=20190704-12:59:05.812|56=EXC|10=113|
8=FIX.4.4|9=0049|35=0|34=5|49=EXC|56=010|52=20190704-13:05:29.000|10=169|
8=FIX.4.4|9=59|35=0|34=5|49=010|50=010BWN|52=20190704-12:59:36.318|56=EXC|10=119|
8=FIX.4.4|9=110|35=A|34=1|49=010|50=010BWN|52=20190704-13:26:23.584|56=EXC|43=Y|98=0|108=30|141=Y|553=010FCE003|554=010FCE003|10=131|
8=FIX.4.4|9=0067|35=A|34=1|49=EXC|56=010|52=20190704-13:32:17.592|98=0|108=30|141=Y|10=009|
8=FIX.4.4|9=0049|35=0|34=2|49=EXC|56=010|52=20190704-13:32:47.000|10=166|
8=FIX.4.4|9=59|35=0|34=2|49=010|50=010BWN|52=20190704-13:26:54.301|56=EXC|10=103|
8=FIX.4.4|9=110|35=A|34=1|49=010|50=010BWN|52=20190704-13:34:07.537|56=EXC|43=Y|98=0|108=30|141=Y|553=010FCE003|554=010FCE003|10=130|
8=FIX.4.4|9=0067|35=A|34=1|49=EXC|56=010|52=20190704-13:40:01.555|98=0|108=30|141=Y|10=000|
8=FIX.4.4|9=0049|35=0|34=2|49=EXC|56=010|52=20190704-13:40:31.000|10=158|
8=FIX.4.4|9=59|35=0|34=2|49=010|50=010BWN|52=20190704-13:34:38.156|56=EXC|10=112|
8=FIX.4.4|9=110|35=A|34=1|49=010|50=010BWN|52=20190704-14:08:22.133|56=EXC|43=Y|98=0|108=30|141=Y|553=010FCE003|554=010FCE003|10=121|
8=FIX.4.4|9=0067|35=A|34=1|49=EXC|56=010|52=20190704-14:14:16.181|98=0|108=30|141=Y|10=003|
8=FIX.4.4|9=110|35=A|34=1|49=010|50=010BWN|52=20190704-14:15:39.964|56=EXC|43=Y|98=0|108=30|141=Y|553=010FCE003|554=010FCE003|10=139|
8=FIX.4.4|9=0067|35=A|34=1|49=EXC|56=010|52=20190704-14:21:34.049|98=0|108=30|141=Y|10=004|
8=FIX.4.4|9=0049|35=0|34=2|49=EXC|56=010|52=20190704-14:22:04.000|10=159|
8=FIX.4.4|9=59|35=0|34=2|49=010|50=010BWN|52=20190704-14:16:09.977|56=EXC|10=122|
8=FIX.4.4|9=0049|35=0|34=3|49=EXC|56=010|52=20190704-14:22:34.000|10=163|
8=FIX.4.4|9=59|35=0|34=3|49=010|50=010BWN|52=20190704-14:16:39.989|56=EXC|10=129|
8=FIX.4.4|9=0049|35=0|34=4|49=EXC|56=010|52=20190704-14:23:04.000|10=162|
8=FIX.4.4|9=59|35=0|34=4|49=010|50=010BWN|52=20190704-14:17:10.431|56=EXC|10=102|
8=FIX.4.4|9=110|35=A|34=1|49=010|50=010BWN|52=20190704-14:20:57.674|56=EXC|43=Y|98=0|108=30|141=Y|553=010FCE003|554=010FCE003|10=133|
8=FIX.4.4|9=0067|35=A|34=1|49=EXC|56=010|52=20190704-14:26:51.725|98=0|108=30|141=Y|10=009|
8=FIX.4.4|9=0049|35=0|34=2|49=EXC|56=010|52=20190704-14:27:21.000|10=163|
8=FIX.4.4|9=59|35=0|34=2|49=010|50=010BWN|52=20190704-14:21:28.605|56=EXC|10=107|
8=FIX.4.4|9=0049|35=0|34=3|49=EXC|56=010|52=20190704-14:27:51.000|10=167|
8=FIX.4.4|9=59|35=0|34=3|49=010|50=010BWN|52=20190704-14:21:58.607|56=EXC|10=113|
8=FIX.4.4|9=110|35=A|34=1|49=010|50=010BWN|52=20190704-15:09:50.669|56=EXC|43=Y|98=0|108=30|141=Y|553=010FCE003|554=010FCE003|10=138|
8=FIX.4.4|9=0067|35=A|34=1|49=EXC|56=010|52=20190704-15:15:44.756|98=0|108=30|141=Y|10=014|
8=FIX.4.4|9=0049|35=0|34=2|49=EXC|56=010|52=20190704-15:16:14.000|10=164|
8=FIX.4.4|9=59|35=0|34=2|49=010|50=010BWN|52=20190704-15:10:21.607|56=EXC|10=101|
8=FIX.4.4|9=0049|35=0|34=3|49=EXC|56=010|52=20190704-15:16:44.000|10=168|
8=FIX.4.4|9=59|35=0|34=3|49=010|50=010BWN|52=20190704-15:10:51.616|56=EXC|10=105|
8=FIX.4.4|9=110|35=A|34=1|49=010|50=010BWN|52=20190704-15:23:48.170|56=EXC|43=Y|98=0|108=30|141=Y|553=010FCE003|554=010FCE003|10=128|
8=FIX.4.4|9=0067|35=A|34=1|49=EXC|56=010|52=20190704-15:29:42.282|98=0|108=30|141=Y|10=011|
8=FIX.4.4|9=0049|35=0|34=2|49=EXC|56=010|52=20190704-15:30:12.000|10=158|
8=FIX.4.4|9=59|35=0|34=2|49=010|50=010BWN|52=20190704-15:24:19.161|56=EXC|10=108|
8=FIX.4.4|9=0049|35=0|34=3|49=EXC|56=010|52=20190704-15:30:42.000|10=162|
8=FIX.4.4|9=59|35=0|34=3|49=010|50=010BWN|52=20190704-15:24:49.157|56=EXC|10=117|
8=FIX.4.4|9=0049|35=0|34=4|49=EXC|56=010|52=20190704-15:31:12.000|10=161|
8=FIX.4.4|9=59|35=0|34=4|49=010|50=010BWN|52=20190704-15:25:19.160|56=EXC|10=110|
8=FIX.4.4|9=110|35=A|34=1|49=010|50=010BWN|52=20190704-15:25:48.468|56=EXC|43=Y|98=0|108=30|141=Y|553=010FCE003|554=010FCE003|10=140|
8=FIX.4.4|9=0067|35=A|34=1|49=EXC|56=010|52=20190704-15:31:42.564|98=0|108=30|141=Y|10=007|
8=FIX.4.4|9=0049|35=0|34=2|49=EXC|56=010|52=20190704-15:32:12.000|10=160|
8=FIX.4.4|9=59|35=0|34=2|49=010|50=010BWN|52=20190704-15:26:19.394|56=EXC|10=118|
8=FIX.4.4|9=110|35=A|34=1|49=010|50=010BWN|52=20190704-15:26:55.873|56=EXC|43=Y|98=0|108=30|141=Y|553=010FCE003|554=010FCE003|10=139|
8=FIX.4.4|9=0067|35=A|34=1|49=EXC|56=010|52=20190704-15:32:49.987|98=0|108=30|141=Y|10=024|
8=FIX.4.4|9=0049|35=0|34=2|49=EXC|56=010|52=20190704-15:33:19.000|10=168|
8=FIX.4.4|9=59|35=0|34=2|49=010|50=010BWN|52=20190704-15:27:26.830|56=EXC|10=112|
8=FIX.4.4|9=0049|35=0|34=3|49=EXC|56=010|52=20190704-15:33:49.000|10=172|
8=FIX.4.4|9=59|35=0|34=3|49=010|50=010BWN|52=20190704-15:27:56.825|56=EXC|10=120|
8=FIX.4.4|9=110|35=A|34=1|49=010|50=010BWN|52=20190704-16:32:38.766|56=EXC|43=Y|98=0|108=30|141=Y|553=010FCE003|554=010FCE003|10=139|
8=FIX.4.4|9=0067|35=A|34=1|49=EXC|56=010|52=20190704-16:38:32.913|98=0|108=30|141=Y|10=012|
8=FIX.4.4|9=0049|35=0|34=2|49=EXC|56=010|52=20190704-16:39:02.000|10=167|
8=FIX.4.4|9=59|35=0|34=2|49=010|50=010BWN|52=20190704-16:33:09.438|56=EXC|10=115|
8=FIX.4.4|9=0049|35=0|34=3|49=EXC|56=010|52=20190704-16:39:32.000|10=171|
8=FIX.4.4|9=59|35=0|34=3|49=010|50=010BWN|52=20190704-16:33:39.446|56=EXC|10=118|
8=FIX.4.4|9=110|35=A|34=1|49=010|50=010BWN|52=20190704-19:13:15.227|56=EXC|43=Y|98=0|108=30|141=Y|553=010FCE003|554=010FCE003|10=128|
8=FIX.4.4|9=0067|35=A|34=1|49=EXC|56=010|52=20190704-19:19:09.508|98=0|108=30|141=Y|10=018|
8=FIX.4.4|9=0049|35=0|34=2|49=EXC|56=010|52=20190704-19:19:39.000|10=178|
8=FIX.4.4|9=59|35=0|34=2|49=010|50=010BWN|52=20190704-19:13:46.164|56=EXC|10=113|
8=FIX.4.4|9=0049|35=0|34=3|49=EXC|56=010|52=20190704-19:20:09.000|10=168|
8=FIX.4.4|9=59|35=0|34=3|49=010|50=010BWN|52=20190704-19:14:16.162|56=EXC|10=110|
8=FIX.4.4|9=110|35=A|34=1|49=010|50=010BWN|52=20190704-21:29:09.919|56=EXC|43=Y|98=0|108=30|141=Y|553=010FCE003|554=010FCE003|10=139|
8=FIX.4.4|9=0067|35=A|34=1|49=EXC|56=010|52=20190704-21:35:04.299|98=0|108=30|141=Y|10=011|
8=FIX.4.4|9=0049|35=0|34=2|49=EXC|56=010|52=20190704-21:35:34.000|10=164|
8=FIX.4.4|9=59|35=0|34=2|49=010|50=010BWN|52=20190704-21:29:40.862|56=EXC|10=112|
8=FIX.4.4|9=0049|35=0|34=3|49=EXC|56=010|52=20190704-21:36:04.000|10=163|
8=FIX.4.4|9=59|35=0|34=3|49=010|50=010BWN|52=20190704-21:30:10.867|56=EXC|10=107|
8=FIX.4.4|9=0049|35=0|34=4|49=EXC|56=010|52=20190704-21:36:34.000|10=167|
8=FIX.4.4|9=59|35=0|34=4|49=010|50=010BWN|52=20190704-21:30:40.858|56=EXC|10=111|
8=FIX.4.4|9=110|35=A|34=1|49=010|50=010BWN|52=20190704-21:55:00.475|56=EXC|43=Y|98=0|108=30|141=Y|553=010FCE003|554=010FCE003|10=126|
8=FIX.4.4|9=0067|35=A|34=1|49=EXC|56=010|52=20190704-22:00:54.956|98=0|108=30|141=Y|10=009|
8=FIX.4.4|9=0049|35=0|34=2|49=EXC|56=010|52=20190704-22:01:24.000|10=157|
8=FIX.4.4|9=59|35=0|34=2|49=010|50=010BWN|52=20190704-21:55:31.407|56=EXC|10=106|
8=FIX.4.4|9=0049|35=0|34=3|49=EXC|56=010|52=20190704-22:01:54.000|10=161|
8=FIX.4.4|9=59|35=0|34=3|49=010|50=010BWN|52=20190704-21:56:01.416|56=EXC|10=105|
8=FIX.4.4|9=110|35=A|34=1|49=010|50=010BWN|52=20190705-15:23:21.372|56=EXC|43=Y|98=0|108=30|141=Y|553=010FCE003|554=010FCE003|10=124|
8=FIX.4.4|9=0067|35=A|34=1|49=EXC|56=010|52=20190705-15:29:16.433|98=0|108=30|141=Y|10=011|
8=FIX.4.4|9=0049|35=0|34=2|49=EXC|56=010|52=20190705-15:29:46.000|10=174|
8=FIX.4.4|9=59|35=0|34=2|49=010|50=010BWN|52=20190705-15:23:52.329|56=EXC|10=111|
8=FIX.4.4|9=110|35=A|34=1|49=010|50=010BWN|52=20190705-15:24:40.787|56=EXC|43=Y|98=0|108=30|141=Y|553=010FCE003|554=010FCE003|10=136|
8=FIX.4.4|9=0067|35=A|34=1|49=EXC|56=010|52=20190705-15:30:35.844|98=0|108=30|141=Y|10=010|
8=FIX.4.4|9=0049|35=0|34=2|49=EXC|56=010|52=20190705-15:31:05.000|10=162|
8=FIX.4.4|9=59|35=0|34=2|49=010|50=010BWN|52=20190705-15:25:11.766|56=EXC|10=113|
8=FIX.4.4|9=0049|35=0|34=3|49=EXC|56=010|52=20190705-15:31:35.000|10=166|
8=FIX.4.4|9=59|35=0|34=3|49=010|50=010BWN|52=20190705-15:25:41.774|56=EXC|10=116|
8=FIX.4.4|9=110|35=A|34=1|49=010|50=010BWN|52=20190705-15:28:38.404|56=EXC|43=Y|98=0|108=30|141=Y|553=010FCE003|554=010FCE003|10=133|
8=FIX.4.4|9=0067|35=A|34=1|49=EXC|56=010|52=20190705-15:34:33.476|98=0|108=30|141=Y|10=013|
8=FIX.4.4|9=0049|35=0|34=2|49=EXC|56=010|52=20190705-15:35:03.000|10=164|
8=FIX.4.4|9=59|35=0|34=2|49=010|50=010BWN|52=20190705-15:29:09.358|56=EXC|10=121|
8=FIX.4.4|9=0049|35=0|34=3|49=EXC|56=010|52=20190705-15:35:33.000|10=168|
8=FIX.4.4|9=59|35=0|34=3|49=010|50=010BWN|52=20190705-15:29:39.359|56=EXC|10=126|
8=FIX.4.4|9=110|35=A|34=1|49=010|50=010BWN|52=20190705-16:02:51.477|56=EXC|43=Y|98=0|108=30|141=Y|553=010FCE003|554=010FCE003|10=131|
8=FIX.4.4|9=0067|35=A|34=1|49=EXC|56=010|52=20190705-16:08:46.567|98=0|108=30|141=Y|10=020|
8=FIX.4.4|9=0049|35=0|34=2|49=EXC|56=010|52=20190705-16:09:16.000|10=170|
8=FIX.4.4|9=59|35=0|34=2|49=010|50=010BWN|52=20190705-16:03:22.461|56=EXC|10=104|
8=FIX.4.4|9=0049|35=0|34=3|49=EXC|56=010|52=20190705-16:09:46.000|10=174|
8=FIX.4.4|9=59|35=0|34=3|49=010|50=010BWN|52=20190705-16:03:52.468|56=EXC|10=115|
8=FIX.4.4|9=110|35=A|34=1|49=010|50=010BWN|52=20190705-16:04:44.427|56=EXC|43=Y|98=0|108=30|141=Y|553=010FCE003|554=010FCE003|10=130|
8=FIX.4.4|9=0067|35=A|34=1|49=EXC|56=010|52=20190705-16:10:39.507|98=0|108=30|141=Y|10=009|
8=FIX.4.4|9=0049|35=0|34=2|49=EXC|56=010|52=20190705-16:11:09.000|10=165|
8=FIX.4.4|9=59|35=0|34=2|49=010|50=010BWN|52=20190705-16:05:14.423|56=EXC|10=105|
8=FIX.4.4|9=0049|35=0|34=3|49=EXC|56=010|52=20190705-16:11:39.000|10=169|
8=FIX.4.4|9=59|35=0|34=3|49=010|50=010BWN|52=20190705-16:05:44.424|56=EXC|10=110|
8=FIX.4.4|9=110|35=A|34=1|49=010|50=010BWN|52=20190705-16:38:08.465|56=EXC|43=Y|98=0|108=30|141=Y|553=010FCE003|554=010FCE003|10=139|
8=FIX.4.4|9=0067|35=A|34=1|49=EXC|56=010|52=20190705-16:44:03.583|98=0|108=30|141=Y|10=011|
8=FIX.4.4|9=0049|35=0|34=2|49=EXC|56=010|52=20190705-16:44:33.000|10=168|
8=FIX.4.4|9=59|35=0|34=2|49=010|50=010BWN|52=20190705-16:38:39.370|56=EXC|10=119|
8=FIX.4.4|9=0049|35=0|34=3|49=EXC|56=010|52=20190705-16:45:03.000|10=167|
8=FIX.4.4|9=59|35=0|34=3|49=010|50=010BWN|52=20190705-16:39:09.365|56=EXC|10=122|
8=FIX.4.4|9=0049|35=0|34=4|49=EXC|56=010|52=20190705-16:45:33.000|10=171|
8=FIX.4.4|9=59|35=0|34=4|49=010|50=010BWN|52=20190705-16:39:39.372|56=EXC|10=124|
8=FIX.4.4|9=0049|35=0|34=5|49=EXC|56=010|52=20190705-16:46:03.000|10=170|
8=FIX.4.4|9=59|35=0|34=5|49=010|50=010BWN|52=20190705-16:40:09.366|56=EXC|10=117|
8=FIX.4.4|9=110|35=A|34=1|49=010|50=010BWN|52=20190705-16:44:28.480|56=EXC|43=Y|98=0|108=30|141=Y|553=010FCE003|554=010FCE003|10=135|
8=FIX.4.4|9=0067|35=A|34=1|49=EXC|56=010|52=20190705-16:50:23.598|98=0|108=30|141=Y|10=016|
8=FIX.4.4|9=0049|35=0|34=2|49=EXC|56=010|52=20190705-16:50:53.000|10=167|
8=FIX.4.4|9=59|35=0|34=2|49=010|50=010BWN|52=20190705-16:44:59.319|56=EXC|10=121|
8=FIX.4.4|9=0049|35=0|34=3|49=EXC|56=010|52=20190705-16:51:23.000|10=166|
8=FIX.4.4|9=59|35=0|34=3|49=010|50=010BWN|52=20190705-16:45:29.319|56=EXC|10=120|
8=FIX.4.4|9=0049|35=0|34=4|49=EXC|56=010|52=20190705-16:51:53.000|10=170|
8=FIX.4.4|9=59|35=0|34=4|49=010|50=010BWN|52=20190705-16:45:59.317|56=EXC|10=122|
8=FIX.4.4|9=0049|35=0|34=5|49=EXC|56=010|52=20190705-16:52:23.000|10=169|
8=FIX.4.4|9=59|35=0|34=5|49=010|50=010BWN|52=20190705-16:46:29.319|56=EXC|10=123|
8=FIX.4.4|9=0049|35=0|34=6|49=EXC|56=010|52=20190705-16:52:53.000|10=173|
8=FIX.4.4|9=59|35=0|34=6|49=010|50=010BWN|52=20190705-16:46:59.315|56=EXC|10=123|
8=FIX.4.4|9=0049|35=0|34=7|49=EXC|56=010|52=20190705-16:53:23.000|10=172|
8=FIX.4.4|9=59|35=0|34=7|49=010|50=010BWN|52=20190705-16:47:29.316|56=EXC|10=123|
8=FIX.4.4|9=110|35=A|34=1|49=010|50=010BWN|52=20190705-16:51:15.150|56=EXC|43=Y|98=0|108=30|141=Y|553=010FCE003|554=010FCE003|10=123|
8=FIX.4.4|9=0067|35=A|34=1|49=EXC|56=010|52=20190705-16:57:10.267|98=0|108=30|141=Y|10=012|
8=FIX.4.4|9=0049|35=0|34=2|49=EXC|56=010|52=20190705-16:57:40.000|10=170|
8=FIX.4.4|9=59|35=0|34=2|49=010|50=010BWN|52=20190705-16:51:46.035|56=EXC|10=110|
8=FIX.4.4|9=0049|35=0|34=3|49=EXC|56=010|52=20190705-16:58:10.000|10=169|
8=FIX.4.4|9=59|35=0|34=3|49=010|50=010BWN|52=20190705-16:52:17.025|56=EXC|10=109|
8=FIX.4.4|9=0049|35=0|34=4|49=EXC|56=010|52=20190705-16:58:40.000|10=173|
8=FIX.4.4|9=59|35=0|34=4|49=010|50=010BWN|52=20190705-16:52:47.031|56=EXC|10=110|
8=FIX.4.4|9=110|35=A|34=1|49=010|50=010BWN|52=20190705-16:54:04.189|56=EXC|43=Y|98=0|108=30|141=Y|553=010FCE003|554=010FCE003|10=136|
8=FIX.4.4|9=0067|35=A|34=1|49=EXC|56=010|52=20190705-16:59:59.314|98=0|108=30|141=Y|10=020|
8=FIX.4.4|9=0049|35=0|34=2|49=EXC|56=010|52=20190705-17:00:29.000|10=166|
8=FIX.4.4|9=59|35=0|34=2|49=010|50=010BWN|52=20190705-16:54:35.126|56=EXC|10=112|
8=FIX.4.4|9=0049|35=0|34=3|49=EXC|56=010|52=20190705-17:00:59.000|10=170|
8=FIX.4.4|9=59|35=0|34=3|49=010|50=010BWN|52=20190705-16:55:05.122|56=EXC|10=107|
8=FIX.4.4|9=0049|35=0|34=4|49=EXC|56=010|52=20190705-17:01:29.000|10=169|
8=FIX.4.4|9=59|35=0|34=4|49=010|50=010BWN|52=20190705-16:55:35.123|56=EXC|10=112|
8=FIX.4.4|9=110|35=A|34=1|49=010|50=010BWN|52=20190705-19:47:05.105|56=EXC|43=Y|98=0|108=30|141=Y|553=010FCE003|554=010FCE003|10=130|
8=FIX.4.4|9=0067|35=A|34=1|49=EXC|56=010|52=20190705-19:53:00.352|98=0|108=30|141=Y|10=005|
8=FIX.4.4|9=0049|35=0|34=2|49=EXC|56=010|52=20190705-19:53:30.000|10=168|
8=FIX.4.4|9=59|35=0|34=2|49=010|50=010BWN|52=20190705-19:47:36.028|56=EXC|10=119|
8=FIX.4.4|9=0049|35=0|34=3|49=EXC|56=010|52=20190705-19:54:00.000|10=167|
8=FIX.4.4|9=59|35=0|34=3|49=010|50=010BWN|52=20190705-19:48:06.024|56=EXC|10=114|
8=FIX.4.4|9=0049|35=0|34=4|49=EXC|56=010|52=20190705-19:54:30.000|10=171|
8=FIX.4.4|9=59|35=0|34=4|49=010|50=010BWN|52=20190705-19:48:36.024|56=EXC|10=118|
8=FIX.4.4|9=110|35=A|34=1|49=010|50=010BWN|52=20190705-20:28:23.078|56=EXC|43=Y|98=0|108=30|141=Y|553=010FCE003|554=010FCE003|10=130|
8=FIX.4.4|9=0067|35=A|34=1|49=EXC|56=010|52=20190705-20:34:18.356|98=0|108=30|141=Y|10=009|
8=FIX.4.4|9=0049|35=0|34=2|49=EXC|56=010|52=20190705-20:34:48.000|10=168|
8=FIX.4.4|9=59|35=0|34=2|49=010|50=010BWN|52=20190705-20:28:54.002|56=EXC|10=102|
8=FIX.4.4|9=0049|35=0|34=3|49=EXC|56=010|52=20190705-20:35:18.000|10=167|
8=FIX.4.4|9=59|35=0|34=3|49=010|50=010BWN|52=20190705-20:29:24.002|56=EXC|10=101|
8=FIX.4.4|9=110|35=A|34=1|49=010|50=010BWN|52=20190705-20:35:48.252|56=EXC|43=Y|98=0|108=30|141=Y|553=010FCE003|554=010FCE003|10=129|
8=FIX.4.4|9=0067|35=A|34=1|49=EXC|56=010|52=20190705-20:41:43.525|98=0|108=30|141=Y|10=003|
8=FIX.4.4|9=0049|35=0|34=2|49=EXC|56=010|52=20190705-20:42:13.000|10=159|
8=FIX.4.4|9=59|35=0|34=2|49=010|50=010BWN|52=20190705-20:36:19.076|56=EXC|10=113|
8=FIX.4.4|9=0049|35=0|34=3|49=EXC|56=010|52=20190705-20:42:43.000|10=163|
8=FIX.4.4|9=59|35=0|34=3|49=010|50=010BWN|52=20190705-20:36:49.077|56=EXC|10=118|
8=FIX.4.4|9=0049|35=0|34=4|49=EXC|56=010|52=20190705-20:43:13.000|10=162|
8=FIX.4.4|9=59|35=0|34=4|49=010|50=010BWN|52=20190705-20:37:19.070|56=EXC|10=110|
8=FIX.4.4|9=110|35=A|34=1|49=010|50=010BWN|52=20190705-20:40:31.120|56=EXC|43=Y|98=0|108=30|141=Y|553=010FCE003|554=010FCE003|10=111|
8=FIX.4.4|9=0067|35=A|34=1|49=EXC|56=010|52=20190705-20:46:26.391|98=0|108=30|141=Y|10=010|
8=FIX.4.4|9=0049|35=0|34=2|49=EXC|56=010|52=20190705-20:46:56.000|10=170|
8=FIX.4.4|9=59|35=0|34=2|49=010|50=010BWN|52=20190705-20:41:01.839|56=EXC|10=107|
8=FIX.4.4|9=110|35=A|34=1|49=010|50=010BWN|52=20190705-20:41:56.781|56=EXC|43=Y|98=0|108=30|141=Y|553=010FCE003|554=010FCE003|10=132|
8=FIX.4.4|9=0067|35=A|34=1|49=EXC|56=010|52=20190705-20:47:52.066|98=0|108=30|141=Y|10=009|
8=FIX.4.4|9=0049|35=0|34=2|49=EXC|56=010|52=20190705-20:48:22.000|10=165|
8=FIX.4.4|9=59|35=0|34=2|49=010|50=010BWN|52=20190705-20:42:27.741|56=EXC|10=108|
8=FIX.4.4|9=0049|35=0|34=3|49=EXC|56=010|52=20190705-20:48:52.000|10=169|
8=FIX.4.4|9=59|35=0|34=3|49=010|50=010BWN|52=20190705-20:42:57.753|56=EXC|10=115|
8=FIX.4.4|9=110|35=A|34=1|49=010|50=010BWN|52=20190705-20:44:31.669|56=EXC|43=Y|98=0|108=30|141=Y|553=010FCE003|554=010FCE003|10=133|
8=FIX.4.4|9=0067|35=A|34=1|49=EXC|56=010|52=20190705-20:50:26.959|98=0|108=30|141=Y|10=015|
8=FIX.4.4|9=0049|35=0|34=2|49=EXC|56=010|52=20190705-20:50:56.000|10=165|
8=FIX.4.4|9=59|35=0|34=2|49=010|50=010BWN|52=20190705-20:45:02.648|56=EXC|10=110|
8=FIX.4.4|9=0049|35=0|34=3|49=EXC|56=010|52=20190705-20:51:26.000|10=164|
8=FIX.4.4|9=59|35=0|34=3|49=010|50=010BWN|52=20190705-20:45:32.642|56=EXC|10=108|
8=FIX.4.4|9=0049|35=0|34=4|49=EXC|56=010|52=20190705-20:51:56.000|10=168|
8=FIX.4.4|9=59|35=0|34=4|49=010|50=010BWN|52=20190705-20:46:02.652|56=EXC|10=108|
