8=FIX.4.4|9=110|35=A|34=1|49=029|50=029B17|52=20190718-20:57:47.316|56=EXC|43=N|98=0|108=30|141=Y|553=029FCM001|554=029FCM001|10=117|
8=FIX.4.4|9=0067|35=A|34=1|49=EXC|56=029|52=20190718-20:57:47.397|98=0|108=30|141=Y|10=035|
8=FIX.4.4|9=189|35=AE|34=2|49=029|50=029B17|52=20190718-20:57:54.481|56=EXC|31=1000|32=100|55=T24U19F|60=20190718-19:51:06.622|487=0|571=20190718155745_AE|762=AFIR|856=96|880=201907180000000002|552=1|54=1|10=235|
8=FIX.4.4|9=0131|35=AR|34=2|49=EXC|56=029|57=029B17|52=20190718-20:57:54.519|571=20190718155745_AE|487=0|856=96|939=0|17=4|60=20190718-20:57:54.519|10=219|
8=FIX.4.4|9=0049|35=0|34=3|49=EXC|56=029|52=20190718-20:58:24.000|10=183|
8=FIX.4.4|9=59|35=0|34=3|49=029|50=029B17|52=20190718-20:58:25.278|56=EXC|10=082|
8=FIX.4.4|9=0049|35=0|34=4|49=EXC|56=029|52=20190718-20:58:54.000|10=187|
8=FIX.4.4|9=59|35=0|34=4|49=029|50=029B17|52=20190718-20:58:55.278|56=EXC|10=086|
8=FIX.4.4|9=110|35=A|34=1|49=029|50=029B17|52=20190718-21:12:11.225|56=EXC|43=N|98=0|108=30|141=Y|553=029FCM001|554=029FCM001|10=099|
8=FIX.4.4|9=0067|35=A|34=1|49=EXC|56=029|52=20190718-21:12:11.298|98=0|108=30|141=Y|10=018|
8=FIX.4.4|9=189|35=AE|34=2|49=029|50=029B17|52=20190718-21:12:18.614|56=EXC|31=1000|32=100|55=T24U19F|60=20190718-19:51:06.622|487=0|571=20190718161209_AE|762=AFIR|856=96|880=201907180000000002|552=1|54=1|10=217|
8=FIX.4.4|9=0215|35=AR|34=2|49=EXC|56=029|57=029B17|52=20190718-21:12:18.655|571=20190718161209_AE|487=0|856=96|939=1|17=5|60=20190718-21:12:18.655|751=99|58=(369): Operaciones con status (L) no se pueden solicitar para cancelación|10=192|
8=FIX.4.4|9=0049|35=0|34=3|49=EXC|56=029|52=20190718-21:12:48.000|10=180|
8=FIX.4.4|9=59|35=0|34=3|49=029|50=029B17|52=20190718-21:12:49.172|56=EXC|10=072|
8=FIX.4.4|9=0049|35=0|34=4|49=EXC|56=029|52=20190718-21:13:18.000|10=179|
8=FIX.4.4|9=59|35=0|34=4|49=029|50=029B17|52=20190718-21:13:19.172|56=EXC|10=071|
8=FIX.4.4|9=110|35=A|34=1|49=029|50=029B17|52=20190718-22:18:19.509|56=EXC|43=N|98=0|108=30|141=Y|553=029FCM001|554=029FCM001|10=119|
8=FIX.4.4|9=0067|35=A|34=1|49=EXC|56=029|52=20190718-14:42:18.579|98=0|108=30|141=Y|10=032|
8=FIX.4.4|9=188|35=AE|34=2|49=029|50=029B17|52=20190718-22:18:26.678|56=EXC|31=120|32=100|55=T24U19F|60=20190718-14:36:50.718|487=0|571=20190718171817_AE|762=AFIR|856=96|880=201907180000000001|552=1|54=1|10=194|
8=FIX.4.4|9=0131|35=AR|34=2|49=EXC|56=029|57=029B17|52=20190718-14:42:25.731|571=20190718171817_AE|487=0|856=96|939=0|17=2|60=20190718-14:42:25.731|10=197|
8=FIX.4.4|9=0049|35=0|34=3|49=EXC|56=029|52=20190718-14:42:55.000|10=183|
8=FIX.4.4|9=59|35=0|34=3|49=029|50=029B17|52=20190718-22:18:57.492|56=EXC|10=083|
8=FIX.4.4|9=110|35=A|34=1|49=029|50=029B17|52=20190718-22:35:57.021|56=EXC|43=N|98=0|108=30|141=Y|553=029FCM001|554=029FCM001|10=109|
8=FIX.4.4|9=0067|35=A|34=1|49=EXC|56=029|52=20190718-14:59:56.100|98=0|108=30|141=Y|10=022|
8=FIX.4.4|9=188|35=AE|34=2|49=029|50=029B17|52=20190718-22:36:04.164|56=EXC|31=120|32=100|55=T24U19F|60=20190718-14:46:51.234|487=0|571=20190718173555_AE|762=AFIR|856=96|880=201907180000000002|552=1|54=1|10=177|
8=FIX.4.4|9=0131|35=AR|34=2|49=EXC|56=029|57=029B17|52=20190718-15:00:03.231|571=20190718173555_AE|487=0|856=96|939=0|17=4|60=20190718-15:00:03.231|10=172|
8=FIX.4.4|9=0049|35=0|34=3|49=EXC|56=029|52=20190718-15:00:33.000|10=174|
8=FIX.4.4|9=59|35=0|34=3|49=029|50=029B17|52=20190718-22:36:34.975|56=EXC|10=084|
8=FIX.4.4|9=110|35=A|34=1|49=029|50=029B17|52=20190718-22:44:50.376|56=EXC|43=N|98=0|108=30|141=Y|553=029FCM001|554=029FCM001|10=115|
8=FIX.4.4|9=0067|35=A|34=1|49=EXC|56=029|52=20190718-15:08:49.451|98=0|108=30|141=Y|10=028|
8=FIX.4.4|9=188|35=AE|34=2|49=029|50=029B17|52=20190718-22:44:57.514|56=EXC|31=120|32=100|55=T24U19F|60=20190718-15:06:58.488|487=0|571=20190718174448_AE|762=AFIR|856=96|880=201907180000000003|552=1|54=1|10=201|
8=FIX.4.4|9=0131|35=AR|34=2|49=EXC|56=029|57=029B17|52=20190718-15:08:56.581|571=20190718174448_AE|487=0|856=96|939=0|17=6|60=20190718-15:08:56.581|10=224|
8=FIX.4.4|9=0049|35=0|34=3|49=EXC|56=029|52=20190718-15:09:26.000|10=185|
8=FIX.4.4|9=59|35=0|34=3|49=029|50=029B17|52=20190718-22:45:28.331|56=EXC|10=073|
8=FIX.4.4|9=110|35=A|34=1|49=029|50=029B17|52=20190718-22:46:54.967|56=EXC|43=N|98=0|108=30|141=Y|553=029FCM001|554=029FCM001|10=127|
8=FIX.4.4|9=0067|35=A|34=1|49=EXC|56=029|52=20190718-15:10:54.045|98=0|108=30|141=Y|10=016|
8=FIX.4.4|9=188|35=AE|34=2|49=029|50=029B17|52=20190718-22:47:02.156|56=EXC|31=120|32=100|55=T24U19F|60=20190718-15:06:58.488|487=0|571=20190718174653_AE|762=AFIR|856=96|880=201907180000000003|552=1|54=1|10=194|
8=FIX.4.4|9=0215|35=AR|34=2|49=EXC|56=029|57=029B17|52=20190718-15:11:01.222|571=20190718174653_AE|487=0|856=96|939=1|17=7|60=20190718-15:11:01.222|751=99|58=(369): Operaciones con status (L) no se pueden solicitar para cancelación|10=169|
8=FIX.4.4|9=59|35=5|34=3|49=029|50=029B17|52=20190718-22:47:17.604|56=EXC|10=081|
8=FIX.4.4|9=0055|35=5|34=3|49=EXC|56=029|52=20190718-15:11:16.659|369=3|10=218|
8=FIX.4.4|9=110|35=A|34=1|49=029|50=029B17|52=20190718-22:49:25.536|56=EXC|43=N|98=0|108=30|141=Y|553=029FCM001|554=029FCM001|10=120|
8=FIX.4.4|9=0067|35=A|34=1|49=EXC|56=029|52=20190718-15:13:24.612|98=0|108=30|141=Y|10=016|
8=FIX.4.4|9=188|35=AE|34=2|49=029|50=029B17|52=20190718-22:49:32.674|56=EXC|31=120|32=100|55=T24U19F|60=20190718-15:11:44.218|487=0|571=20190718174923_AE|762=AFIR|856=96|880=201907180000000004|552=1|54=1|10=187|
8=FIX.4.4|9=0131|35=AR|34=2|49=EXC|56=029|57=029B17|52=20190718-15:13:31.744|571=20190718174923_AE|487=0|856=96|939=0|17=9|60=20190718-15:13:31.744|10=205|
8=FIX.4.4|9=110|35=A|34=1|49=029|50=029B17|52=20190718-22:59:06.209|56=EXC|43=N|98=0|108=30|141=Y|553=029FCM001|554=029FCM001|10=117|
8=FIX.4.4|9=0067|35=A|34=1|49=EXC|56=029|52=20190718-15:23:05.283|98=0|108=30|141=Y|10=020|
8=FIX.4.4|9=188|35=AE|34=2|49=029|50=029B17|52=20190718-22:59:13.360|56=EXC|31=120|32=100|55=T24U19F|60=20190718-15:14:31.916|487=0|571=20190718175904_AE|762=AFIR|856=96|880=201907180000000005|552=1|54=1|10=184|
8=FIX.4.4|9=0132|35=AR|34=2|49=EXC|56=029|57=029B17|52=20190718-15:23:12.429|571=20190718175904_AE|487=0|856=96|939=0|17=11|60=20190718-15:23:12.429|10=247|
8=FIX.4.4|9=0361|35=AE|34=3|49=EXC|56=029|57=029B17|52=20190718-15:23:28.263|571=20190718175904_AE|487=2|856=99|17=12|829=98|573=0|15=COP|880=201907180000000005|75=20190718|55=T24U19F|762=AFIR|48=27227|22=M|31=120.000|32=100|381=30000000000.000|60=20190718-15:23:28.263|64=20190718|552=1|54=1|453=3|448=029B17|447=C|452=12|448=029|447=C|452=1|448=029FCM001|447=C|452=36|1=RT001|10=133|
8=FIX.4.4|9=59|35=0|34=3|49=029|50=029B17|52=20190718-22:59:44.184|56=EXC|10=082|
8=FIX.4.4|9=59|35=5|34=4|49=029|50=029B17|52=20190718-22:59:50.190|56=EXC|10=082|
8=FIX.4.4|9=0055|35=5|34=4|49=EXC|56=029|52=20190718-15:23:49.244|369=4|10=219|
8=FIX.4.4|9=110|35=A|34=1|49=029|50=029B17|52=20190718-23:14:21.112|56=EXC|43=N|98=0|108=30|141=Y|553=029FCM001|554=029FCM001|10=099|
8=FIX.4.4|9=0067|35=A|34=1|49=EXC|56=029|52=20190718-15:38:20.273|98=0|108=30|141=Y|10=022|
8=FIX.4.4|9=188|35=AE|34=2|49=029|50=029B17|52=20190718-23:14:28.725|56=EXC|31=120|32=100|55=T24U19F|60=20190718-15:30:00.186|487=0|571=20190718181417_AE|762=AFIR|856=96|880=201907180000000006|552=1|54=1|10=177|
8=FIX.4.4|9=0132|35=AR|34=2|49=EXC|56=029|57=029B17|52=20190718-15:38:27.772|571=20190718181417_AE|487=0|856=96|939=0|17=14|60=20190718-15:38:27.772|10=016|
8=FIX.4.4|9=0361|35=AE|34=3|49=EXC|56=029|57=029B17|52=20190718-15:38:43.706|571=20190718181417_AE|487=2|856=99|17=15|829=98|573=0|15=COP|880=201907180000000006|75=20190718|55=T24U19F|762=AFIR|48=27227|22=M|31=120.000|32=100|381=30000000000.000|60=20190718-15:38:43.706|64=20190718|552=1|54=1|453=3|448=029B17|447=C|452=12|448=029|447=C|452=1|448=029FCM001|447=C|452=36|1=RT001|10=143|
8=FIX.4.4|9=0458|35=8|34=4|49=EXC|56=029|57=029B17|52=20190718-15:38:56.098|11=156349116102567|17=16|37=0|150=H|1080=20190718-000000000012.00|1081=5|453=5|448=029B17|447=C|452=12|448=029|447=C|452=1|448=037B18|447=C|452=37|448=037|447=C|452=17|448=029FCM001|447=C|452=36|55=T24U19F|762=AFIR|48=27227|22=M|6=120.000|14=100|31=120.000|32=100|38=100|39=2|54=1|60=20190718-15:38:56.098|75=20190718|63=1|64=20190718|151=0|1=RT001|381=30000000000.000|880=201907180000000006|828=99|10=140|
8=FIX.4.4|9=59|35=0|34=3|49=029|50=029B17|52=20190718-23:14:58.922|56=EXC|10=079|
8=FIX.4.4|9=59|35=5|34=4|49=029|50=029B17|52=20190718-23:15:05.923|56=EXC|10=079|
8=FIX.4.4|9=0055|35=5|34=5|49=EXC|56=029|52=20190718-15:39:04.969|369=4|10=232|
8=FIX.4.4|9=110|35=A|34=1|49=029|50=029B17|52=20190718-23:25:09.304|56=EXC|43=N|98=0|108=30|141=Y|553=029FCM001|554=029FCM001|10=110|
8=FIX.4.4|9=0067|35=A|34=1|49=EXC|56=029|52=20190718-15:49:08.373|98=0|108=30|141=Y|10=031|
8=FIX.4.4|9=188|35=AE|34=2|49=029|50=029B17|52=20190718-23:25:16.465|56=EXC|31=120|32=100|55=T24U19F|60=20190718-15:44:19.446|487=0|571=20190718182507_AE|762=AFIR|856=96|880=201907180000000007|552=1|54=1|10=193|
8=FIX.4.4|9=0132|35=AR|34=2|49=EXC|56=029|57=029B17|52=20190718-15:49:15.508|571=20190718182507_AE|487=0|856=96|939=0|17=18|60=20190718-15:49:15.508|10=013|
8=FIX.4.4|9=0361|35=AE|34=3|49=EXC|56=029|57=029B17|52=20190718-15:49:31.343|571=20190718182507_AE|487=2|856=99|17=19|829=98|573=0|15=COP|880=201907180000000007|75=20190718|55=T24U19F|762=AFIR|48=27227|22=M|31=120.000|32=100|381=30000000000.000|60=20190718-15:49:31.343|64=20190718|552=1|54=1|453=3|448=029B17|447=C|452=12|448=029|447=C|452=1|448=029FCM001|447=C|452=36|1=RT001|10=141|
8=FIX.4.4|9=0458|35=8|34=4|49=EXC|56=029|57=029B17|52=20190718-15:49:43.433|11=156349202023469|17=20|37=0|150=H|1080=20190718-000000000013.00|1081=5|453=5|448=029B17|447=C|452=12|448=029|447=C|452=1|448=037B18|447=C|452=37|448=037|447=C|452=17|448=029FCM001|447=C|452=36|55=T24U19F|762=AFIR|48=27227|22=M|6=120.000|14=100|31=120.000|32=100|38=100|39=2|54=1|60=20190718-15:49:43.433|75=20190718|63=1|64=20190718|151=0|1=RT001|381=30000000000.000|880=201907180000000007|828=99|10=118|
8=FIX.4.4|9=59|35=0|34=3|49=029|50=029B17|52=20190718-23:25:47.281|56=EXC|10=077|
8=FIX.4.4|9=59|35=5|34=4|49=029|50=029B17|52=20190718-23:25:53.281|56=EXC|10=080|
8=FIX.4.4|9=0055|35=5|34=5|49=EXC|56=029|52=20190718-15:49:52.322|369=4|10=219|
8=FIX.4.4|9=110|35=A|34=1|49=029|50=029B17|52=20190719-15:27:44.249|56=EXC|43=N|98=0|108=30|141=Y|553=029FCM001|554=029FCM001|10=121|
8=FIX.4.4|9=0067|35=A|34=1|49=EXC|56=029|52=20190719-15:27:44.302|98=0|108=30|141=Y|10=020|
8=FIX.4.4|9=188|35=AE|34=2|49=029|50=029B17|52=20190719-15:27:51.547|56=EXC|31=120|32=100|55=T24U19F|60=20190719-15:18:37.156|487=0|571=20190719102741_AE|762=AFIR|856=96|880=201907190000000001|552=1|54=1|10=185|
8=FIX.4.4|9=0131|35=AR|34=2|49=EXC|56=029|57=029B17|52=20190719-15:27:51.565|571=20190719102741_AE|487=0|856=96|939=0|17=2|60=20190719-15:27:51.565|10=206|
8=FIX.4.4|9=0360|35=AE|34=3|49=EXC|56=029|57=029B17|52=20190719-15:28:10.031|571=20190719102741_AE|487=2|856=99|17=3|829=98|573=0|15=COP|880=201907190000000001|75=20190719|55=T24U19F|762=AFIR|48=27227|22=M|31=120.000|32=100|381=30000000000.000|60=20190719-15:28:10.031|64=20190719|552=1|54=1|453=3|448=029B17|447=C|452=12|448=029|447=C|452=1|448=029FCM001|447=C|452=36|1=RT001|10=053|
8=FIX.4.4|9=59|35=5|34=3|49=029|50=029B17|52=20190719-15:28:11.171|56=EXC|10=076|
8=FIX.4.4|9=0055|35=5|34=4|49=EXC|56=029|52=20190719-15:28:11.190|369=3|10=213|
8=FIX.4.4|9=110|35=A|34=1|49=029|50=029B17|52=20190719-15:59:22.303|56=EXC|43=N|98=0|108=30|141=Y|553=029FCM001|554=029FCM001|10=113|
8=FIX.4.4|9=0067|35=A|34=1|49=EXC|56=029|52=20190719-15:59:22.355|98=0|108=30|141=Y|10=029|
8=FIX.4.4|9=188|35=AE|34=2|49=029|50=029B17|52=20190719-15:59:29.570|56=EXC|31=120|32=100|55=T24U19F|60=20190719-15:56:26.984|487=0|571=20190719105920_AE|762=AFIR|856=96|880=201907190000000002|552=1|54=1|10=203|
8=FIX.4.4|9=0131|35=AR|34=2|49=EXC|56=029|57=029B17|52=20190719-15:59:29.603|571=20190719105920_AE|487=0|856=96|939=0|17=5|60=20190719-15:59:29.603|10=217|
8=FIX.4.4|9=0360|35=AE|34=3|49=EXC|56=029|57=029B17|52=20190719-15:59:55.115|571=20190719105920_AE|487=2|856=99|17=6|829=98|573=0|15=COP|880=201907190000000002|75=20190719|55=T24U19F|762=AFIR|48=27227|22=M|31=120.000|32=100|381=30000000000.000|60=20190719-15:59:55.115|64=20190719|552=1|54=1|453=3|448=029B17|447=C|452=12|448=029|447=C|452=1|448=029FCM001|447=C|452=36|1=RT001|10=091|
8=FIX.4.4|9=59|35=5|34=3|49=029|50=029B17|52=20190719-15:59:56.295|56=EXC|10=096|
8=FIX.4.4|9=0055|35=5|34=4|49=EXC|56=029|52=20190719-15:59:56.314|369=3|10=224|
8=FIX.4.4|9=110|35=A|34=1|49=029|50=029B17|52=20190719-19:27:59.253|56=EXC|43=N|98=0|108=30|141=Y|553=029FCM001|554=029FCM001|10=126|
8=FIX.4.4|9=0067|35=A|34=1|49=EXC|56=029|52=20190719-19:27:59.329|98=0|108=30|141=Y|10=039|
8=FIX.4.4|9=188|35=AE|34=2|49=029|50=029B17|52=20190719-19:28:06.476|56=EXC|31=120|32=100|55=T24U19F|60=20190719-18:53:31.712|487=0|571=20190719142756_AE|762=AFIR|856=96|880=201907190000000001|552=1|54=1|10=195|
8=FIX.4.4|9=0131|35=AR|34=2|49=EXC|56=029|57=029B17|52=20190719-19:28:06.500|571=20190719142756_AE|487=0|856=96|939=0|17=2|60=20190719-19:28:06.500|10=204|
8=FIX.4.4|9=0360|35=AE|34=3|49=EXC|56=029|57=029B17|52=20190719-19:28:32.041|571=20190719142756_AE|487=2|856=99|17=3|829=98|573=0|15=COP|880=201907190000000001|75=20190719|55=T24U19F|762=AFIR|48=27227|22=M|31=120.000|32=100|381=30000000000.000|60=20190719-19:28:32.041|64=20190719|552=1|54=1|453=3|448=029B17|447=C|452=12|448=029|447=C|452=1|448=029FCM001|447=C|452=36|1=RT001|10=081|
8=FIX.4.4|9=59|35=5|34=3|49=029|50=029B17|52=20190719-19:28:33.087|56=EXC|10=090|
8=FIX.4.4|9=0055|35=5|34=4|49=EXC|56=029|52=20190719-19:28:33.111|369=3|10=214|
8=FIX.4.4|9=110|35=A|34=1|49=029|50=029B17|52=20190719-19:30:25.083|56=EXC|43=N|98=0|108=30|141=Y|553=029FCM001|554=029FCM001|10=114|
8=FIX.4.4|9=0067|35=A|34=1|49=EXC|56=029|52=20190719-19:30:25.129|98=0|108=30|141=Y|10=024|
8=FIX.4.4|9=188|35=AE|34=2|49=029|50=029B17|52=20190719-19:30:32.259|56=EXC|31=120|32=100|55=T24U19F|60=20190719-18:53:31.712|487=0|571=20190719143023_AE|762=AFIR|856=96|880=201907190000000001|552=1|54=1|10=174|
8=FIX.4.4|9=0215|35=AR|34=2|49=EXC|56=029|57=029B17|52=20190719-19:30:32.284|571=20190719143023_AE|487=0|856=96|939=1|17=4|60=20190719-19:30:32.284|751=99|58=(369): Operaciones con status (U) no se pueden solicitar para cancelación|10=199|
8=FIX.4.4|9=59|35=5|34=3|49=029|50=029B17|52=20190719-19:30:52.654|56=EXC|10=084|
8=FIX.4.4|9=0055|35=5|34=3|49=EXC|56=029|52=20190719-19:30:52.680|369=3|10=218|
8=FIX.4.4|9=110|35=A|34=1|49=029|50=029B17|52=20190719-20:12:25.008|56=EXC|43=N|98=0|108=30|141=Y|553=029FCM001|554=029FCM001|10=103|
8=FIX.4.4|9=0067|35=A|34=1|49=EXC|56=029|52=20190719-20:12:25.059|98=0|108=30|141=Y|10=018|
8=FIX.4.4|9=188|35=AE|34=2|49=029|50=029B17|52=20190719-20:12:32.173|56=EXC|31=120|32=100|55=T24U19F|60=20190719-20:08:32.537|487=0|571=20190719151223_AE|762=AFIR|856=96|880=201907190000000002|552=1|54=1|10=162|
8=FIX.4.4|9=0131|35=AR|34=2|49=EXC|56=029|57=029B17|52=20190719-20:12:32.204|571=20190719151223_AE|487=0|856=96|939=0|17=7|60=20190719-20:12:32.204|10=168|
8=FIX.4.4|9=0360|35=AE|34=3|49=EXC|56=029|57=029B17|52=20190719-20:12:57.737|571=20190719151223_AE|487=2|856=99|17=8|829=98|573=0|15=COP|880=201907190000000002|75=20190719|55=T24U19F|762=AFIR|48=27227|22=M|31=120.000|32=100|381=30000000000.000|60=20190719-20:12:57.737|64=20190719|552=1|54=1|453=3|448=029B17|447=C|452=12|448=029|447=C|452=1|448=029FCM001|447=C|452=36|1=RT001|10=084|
8=FIX.4.4|9=59|35=5|34=3|49=029|50=029B17|52=20190719-20:12:58.957|56=EXC|10=088|
8=FIX.4.4|9=0055|35=5|34=4|49=EXC|56=029|52=20190719-20:12:58.988|369=3|10=228|
8=FIX.4.4|9=110|35=A|34=1|49=029|50=029B17|52=20190719-20:34:37.669|56=EXC|43=N|98=0|108=30|141=Y|553=029FCM001|554=029FCM001|10=123|
8=FIX.4.4|9=0067|35=A|34=1|49=EXC|56=029|52=20190719-20:34:37.725|98=0|108=30|141=Y|10=025|
8=FIX.4.4|9=188|35=AE|34=2|49=029|50=029B17|52=20190719-20:34:44.838|56=EXC|31=120|32=100|55=T24U19F|60=20190719-20:11:53.899|487=0|571=20190719153436_AE|762=AFIR|856=96|880=201907190000000003|552=1|54=1|10=194|
8=FIX.4.4|9=0131|35=AR|34=2|49=EXC|56=029|57=029B17|52=20190719-20:34:44.872|571=20190719153436_AE|487=0|856=96|939=0|17=9|60=20190719-20:34:44.872|10=214|
8=FIX.4.4|9=0361|35=AE|34=3|49=EXC|56=029|57=029B17|52=20190719-20:35:06.497|571=20190719153436_AE|487=2|856=99|17=10|829=98|573=0|15=COP|880=201907190000000003|75=20190719|55=T24U19F|762=AFIR|48=27227|22=M|31=120.000|32=100|381=30000000000.000|60=20190719-20:35:06.497|64=20190719|552=1|54=1|453=3|448=029B17|447=C|452=12|448=029|447=C|452=1|448=029FCM001|447=C|452=36|1=RT001|10=139|
8=FIX.4.4|9=59|35=5|34=3|49=029|50=029B17|52=20190719-20:35:07.616|56=EXC|10=079|
8=FIX.4.4|9=0055|35=5|34=4|49=EXC|56=029|52=20190719-20:35:07.649|369=3|10=221|
8=FIX.4.4|9=110|35=A|34=1|49=029|50=029B17|52=20190719-21:55:57.559|56=EXC|43=N|98=0|108=30|141=Y|553=029FCM001|554=029FCM001|10=127|
8=FIX.4.4|9=0067|35=A|34=1|49=EXC|56=029|52=20190719-21:56:32.885|98=0|108=30|141=Y|10=032|
8=FIX.4.4|9=188|35=AE|34=2|49=029|50=029B17|52=20190719-21:56:04.966|56=EXC|31=120|32=100|55=T24U19F|60=20190719-20:11:53.899|487=0|571=20190719165555_AE|762=AFIR|856=96|880=201907190000000003|552=1|54=1|10=202|
8=FIX.4.4|9=0198|35=AR|34=2|49=EXC|56=029|57=029B17|52=20190719-21:56:40.233|571=20190719165555_AE|487=0|856=96|939=1|17=11|60=20190719-21:56:40.233|751=99|58=(659): Operacion no puede ser cancelada en este momento|10=018|
8=FIX.4.4|9=0049|35=0|34=3|49=EXC|56=029|52=20190719-21:57:10.000|10=179|
8=FIX.4.4|9=59|35=0|34=3|49=029|50=029B17|52=20190719-21:56:35.444|56=EXC|10=078|
8=FIX.4.4|9=59|35=5|34=4|49=029|50=029B17|52=20190719-21:56:42.461|56=EXC|10=081|
8=FIX.4.4|9=0055|35=5|34=4|49=EXC|56=029|52=20190719-21:57:17.713|369=4|10=220|
8=FIX.4.4|9=110|35=A|34=1|49=029|50=029B17|52=20190719-21:58:29.617|56=EXC|43=N|98=0|108=30|141=Y|553=029FCM001|554=029FCM001|10=124|
8=FIX.4.4|9=0067|35=A|34=1|49=EXC|56=029|52=20190719-21:59:04.910|98=0|108=30|141=Y|10=023|
8=FIX.4.4|9=188|35=AE|34=2|49=029|50=029B17|52=20190719-21:58:36.970|56=EXC|31=120|32=100|55=T24U19F|60=20190719-20:11:53.899|487=0|571=20190719165827_AE|762=AFIR|856=96|880=201907190000000003|552=1|54=1|10=206|
8=FIX.4.4|9=0198|35=AR|34=2|49=EXC|56=029|57=029B17|52=20190719-21:59:12.229|571=20190719165827_AE|487=0|856=96|939=1|17=12|60=20190719-21:59:12.229|751=99|58=(659): Operacion no puede ser cancelada en este momento|10=035|
8=FIX.4.4|9=0049|35=0|34=3|49=EXC|56=029|52=20190719-21:59:42.000|10=186|
8=FIX.4.4|9=59|35=0|34=3|49=029|50=029B17|52=20190719-21:59:07.568|56=EXC|10=087|
8=FIX.4.4|9=189|35=AE|34=4|49=029|50=029B17|52=20190719-21:59:13.834|56=EXC|31=1500|32=150|55=IBRH20F|60=20190716-16:42:11.915|487=0|571=20190719165831_AE|762=AFIR|856=96|880=201907160000000009|552=1|54=1|10=005|
8=FIX.4.4|9=0178|35=AR|34=4|49=EXC|56=029|57=029B17|52=20190719-21:59:49.096|571=20190719165831_AE|487=0|856=96|939=1|17=13|60=20190719-21:59:49.096|751=99|58=(138): Número de operación inválido|10=164|
8=FIX.4.4|9=59|35=5|34=5|49=029|50=029B17|52=20190719-21:59:32.355|56=EXC|10=086|
8=FIX.4.4|9=0055|35=5|34=5|49=EXC|56=029|52=20190719-22:00:07.617|369=5|10=213|
8=FIX.4.4|9=110|35=A|34=1|49=029|50=029B17|52=20190719-22:16:41.263|56=EXC|43=N|98=0|108=30|141=Y|553=029FCM001|554=029FCM001|10=110|
8=FIX.4.4|9=0067|35=A|34=1|49=EXC|56=029|52=20190719-14:10:24.583|98=0|108=30|141=Y|10=020|
8=FIX.4.4|9=188|35=AE|34=2|49=029|50=029B17|52=20190719-22:16:48.534|56=EXC|31=120|32=100|55=T24U19F|60=20190719-14:08:11.798|487=0|571=20190719171639_AE|762=AFIR|856=96|880=201907190000000002|552=1|54=1|10=198|
8=FIX.4.4|9=0131|35=AR|34=2|49=EXC|56=029|57=029B17|52=20190719-14:10:31.813|571=20190719171639_AE|487=0|856=96|939=0|17=3|60=20190719-14:10:31.813|10=189|
8=FIX.4.4|9=0360|35=AE|34=3|49=EXC|56=029|57=029B17|52=20190719-14:10:53.541|571=20190719171639_AE|487=2|856=99|17=4|829=98|573=0|15=COP|880=201907190000000002|75=20190719|55=T24U19F|762=AFIR|48=27227|22=M|31=120.000|32=100|381=30000000000.000|60=20190719-14:10:53.541|64=20190719|552=1|54=1|453=3|448=029B17|447=C|452=12|448=029|447=C|452=1|448=029FCM001|447=C|452=36|1=RT001|10=073|
8=FIX.4.4|9=59|35=5|34=3|49=029|50=029B17|52=20190719-22:17:11.220|56=EXC|10=067|
8=FIX.4.4|9=0055|35=5|34=4|49=EXC|56=029|52=20190719-14:10:54.489|369=3|10=221|
8=FIX.4.4|9=110|35=A|34=1|49=029|50=029B17|52=20190722-14:09:22.444|56=EXC|43=N|98=0|108=30|141=Y|553=029FCM001|554=029FCM001|10=107|
8=FIX.4.4|9=0067|35=A|34=1|49=EXC|56=029|52=20190722-15:15:56.637|98=0|108=30|141=Y|10=025|
8=FIX.4.4|9=187|35=AE|34=2|49=029|50=029B17|52=20190722-14:09:29.739|56=EXC|31=120|32=100|55=T24U19F|60=20190722-15:08:17.083|487=0|571=2019072290919_AE|762=AFIR|856=96|880=201907220000000002|552=1|54=1|10=129|
8=FIX.4.4|9=0214|35=AR|34=2|49=EXC|56=029|57=029B17|52=20190722-15:16:03.891|571=2019072290919_AE|487=0|856=96|939=1|17=6|60=20190722-15:16:03.891|751=99|58=(369): Operaciones con status (L) no se pueden solicitar para cancelación|10=144|
8=FIX.4.4|9=59|35=5|34=3|49=029|50=029B17|52=20190722-14:09:48.292|56=EXC|10=082|
8=FIX.4.4|9=0055|35=5|34=3|49=EXC|56=029|52=20190722-15:16:22.447|369=3|10=210|
8=FIX.4.4|9=110|35=A|34=1|49=029|50=029B17|52=20190722-14:25:51.185|56=EXC|43=N|98=0|108=30|141=Y|553=029FCM001|554=029FCM001|10=109|
8=FIX.4.4|9=0067|35=A|34=1|49=EXC|56=029|52=20190722-15:32:25.380|98=0|108=30|141=Y|10=015|
8=FIX.4.4|9=187|35=AE|34=2|49=029|50=029B17|52=20190722-14:25:58.119|56=EXC|31=120|32=100|55=T24U19F|60=20190722-15:08:17.083|487=0|571=2019072292548_AE|762=AFIR|856=96|880=201907220000000002|552=1|54=1|10=121|
8=FIX.4.4|9=0214|35=AR|34=2|49=EXC|56=029|57=029B17|52=20190722-15:32:32.284|571=2019072292548_AE|487=0|856=96|939=1|17=7|60=20190722-15:32:32.284|751=99|58=(369): Operaciones con status (L) no se pueden solicitar para cancelación|10=137|
8=FIX.4.4|9=59|35=5|34=3|49=029|50=029B17|52=20190722-14:26:16.742|56=EXC|10=076|
8=FIX.4.4|9=0055|35=5|34=3|49=EXC|56=029|52=20190722-15:32:50.910|369=3|10=204|
8=FIX.4.4|9=110|35=A|34=1|49=029|50=029B17|52=20190722-14:42:54.609|56=EXC|43=N|98=0|108=30|141=Y|553=029FCM001|554=029FCM001|10=112|
8=FIX.4.4|9=0067|35=A|34=1|49=EXC|56=029|52=20190722-15:49:28.827|98=0|108=30|141=Y|10=032|
8=FIX.4.4|9=187|35=AE|34=2|49=029|50=029B17|52=20190722-14:43:01.846|56=EXC|31=120|32=100|55=T24U19F|60=20190722-15:46:24.377|487=0|571=2019072294252_AE|762=AFIR|856=96|880=201907220000000005|552=1|54=1|10=119|
8=FIX.4.4|9=0131|35=AR|34=2|49=EXC|56=029|57=029B17|52=20190722-15:49:36.015|571=2019072294252_AE|487=0|856=96|939=0|17=11|60=20190722-15:49:36.015|10=189|
8=FIX.4.4|9=0360|35=AE|34=3|49=EXC|56=029|57=029B17|52=20190722-15:49:57.829|571=2019072294252_AE|487=2|856=99|17=12|829=98|573=0|15=COP|880=201907220000000005|75=20190722|55=T24U19F|762=AFIR|48=27227|22=M|31=120.000|32=100|381=30000000000.000|60=20190722-15:49:57.829|64=20190722|552=1|54=1|453=3|448=029B17|447=C|452=12|448=029|447=C|452=1|448=029FCM001|447=C|452=36|1=RT001|10=086|
8=FIX.4.4|9=59|35=5|34=3|49=029|50=029B17|52=20190722-14:43:24.574|56=EXC|10=077|
8=FIX.4.4|9=0055|35=5|34=4|49=EXC|56=029|52=20190722-15:49:58.743|369=3|10=225|
8=FIX.4.4|9=110|35=A|34=1|49=029|50=029B17|52=20190722-15:03:33.962|56=EXC|43=N|98=0|108=30|141=Y|553=029FCM001|554=029FCM001|10=109|
8=FIX.4.4|9=0067|35=A|34=1|49=EXC|56=029|52=20190722-16:10:08.180|98=0|108=30|141=Y|10=011|
8=FIX.4.4|9=59|35=5|34=2|49=029|50=029B17|52=20190722-15:03:41.914|56=EXC|10=070|
8=FIX.4.4|9=0055|35=5|34=2|49=EXC|56=029|52=20190722-16:10:16.102|369=2|10=194|
8=FIX.4.4|9=110|35=A|34=1|49=029|50=029B17|52=20190722-15:04:27.281|56=EXC|43=N|98=0|108=30|141=Y|553=029FCM001|554=029FCM001|10=107|
8=FIX.4.4|9=0067|35=A|34=1|49=EXC|56=029|52=20190722-16:11:01.518|98=0|108=30|141=Y|10=010|
8=FIX.4.4|9=59|35=5|34=2|49=029|50=029B17|52=20190722-15:04:35.097|56=EXC|10=076|
8=FIX.4.4|9=0055|35=5|34=2|49=EXC|56=029|52=20190722-16:11:09.285|369=2|10=209|
8=FIX.4.4|9=110|35=A|34=1|49=029|50=029B17|52=20190722-15:06:51.780|56=EXC|43=N|98=0|108=30|141=Y|553=029FCM001|554=029FCM001|10=110|
8=FIX.4.4|9=0067|35=A|34=1|49=EXC|56=029|52=20190722-16:13:26.021|98=0|108=30|141=Y|10=008|
8=FIX.4.4|9=188|35=AE|34=2|49=029|50=029B17|52=20190722-15:06:59.047|56=EXC|31=120|32=100|55=T24U19F|60=20190722-16:07:58.749|487=0|571=20190722100649_AE|762=AFIR|856=96|880=201907220000000006|552=1|54=1|10=181|
8=FIX.4.4|9=0132|35=AR|34=2|49=EXC|56=029|57=029B17|52=20190722-16:13:33.242|571=20190722100649_AE|487=0|856=96|939=0|17=14|60=20190722-16:13:33.242|10=221|
8=FIX.4.4|9=0361|35=AE|34=3|49=EXC|56=029|57=029B17|52=20190722-16:13:55.095|571=20190722100649_AE|487=2|856=99|17=15|829=98|573=0|15=COP|880=201907220000000006|75=20190722|55=T24U19F|762=AFIR|48=27227|22=M|31=120.000|32=100|381=30000000000.000|60=20190722-16:13:55.095|64=20190722|552=1|54=1|453=3|448=029B17|447=C|452=12|448=029|447=C|452=1|448=029FCM001|447=C|452=36|1=RT001|10=107|
8=FIX.4.4|9=59|35=5|34=3|49=029|50=029B17|52=20190722-15:07:21.760|56=EXC|10=072|
8=FIX.4.4|9=0055|35=5|34=4|49=EXC|56=029|52=20190722-16:13:55.958|369=3|10=222|
8=FIX.4.4|9=110|35=A|34=1|49=029|50=029B17|52=20190722-15:26:05.003|56=EXC|43=N|98=0|108=30|141=Y|553=029FCM001|554=029FCM001|10=099|
8=FIX.4.4|9=0067|35=A|34=1|49=EXC|56=029|52=20190722-16:32:39.246|98=0|108=30|141=Y|10=022|
8=FIX.4.4|9=188|35=AE|34=2|49=029|50=029B17|52=20190722-15:26:12.051|56=EXC|31=120|32=100|55=T24U19F|60=20190722-16:29:02.920|487=0|571=20190722102602_AE|762=AFIR|856=96|880=201907220000000007|552=1|54=1|10=143|
8=FIX.4.4|9=0132|35=AR|34=2|49=EXC|56=029|57=029B17|52=20190722-16:32:46.253|571=20190722102602_AE|487=0|856=96|939=0|17=17|60=20190722-16:32:46.253|10=229|
8=FIX.4.4|9=0361|35=AE|34=3|49=EXC|56=029|57=029B17|52=20190722-16:33:07.850|571=20190722102602_AE|487=2|856=99|17=18|829=98|573=0|15=COP|880=201907220000000007|75=20190722|55=T24U19F|762=AFIR|48=27227|22=M|31=120.000|32=100|381=30000000000.000|60=20190722-16:33:07.850|64=20190722|552=1|54=1|453=3|448=029B17|447=C|452=12|448=029|447=C|452=1|448=029FCM001|447=C|452=36|1=RT001|10=098|
8=FIX.4.4|9=59|35=5|34=3|49=029|50=029B17|52=20190722-15:26:34.841|56=EXC|10=077|
8=FIX.4.4|9=0055|35=5|34=4|49=EXC|56=029|52=20190722-16:33:09.039|369=3|10=213|
8=FIX.4.4|9=110|35=A|34=1|49=029|50=029B17|52=20190722-21:29:46.539|56=EXC|43=N|98=0|108=30|141=Y|553=029FCM001|554=029FCM001|10=118|
8=FIX.4.4|9=0067|35=A|34=1|49=EXC|56=029|52=20190722-21:30:25.075|98=0|108=30|141=Y|10=011|
8=FIX.4.4|9=188|35=AE|34=2|49=029|50=029B17|52=20190722-21:29:53.823|56=EXC|31=120|32=100|55=T24U19F|60=20190722-21:24:37.535|487=0|571=20190722162944_AE|762=AFIR|856=96|880=201907220000000004|552=1|54=1|10=168|
8=FIX.4.4|9=0197|35=AR|34=2|49=EXC|56=029|57=029B17|52=20190722-21:30:32.301|571=20190722162944_AE|487=0|856=96|939=1|17=9|60=20190722-21:30:32.301|751=99|58=(659): Operacion no puede ser cancelada en este momento|10=191|
8=FIX.4.4|9=185|35=AE|34=3|49=029|50=029B17|52=20190722-21:30:12.875|56=EXC|31=6|32=90|55=I03H99F|60=20190716-16:42:11.915|487=0|571=20190722162946_AE|762=AFIR|856=96|880=201907160000000009|552=1|54=1|10=019|
8=FIX.4.4|9=0178|35=AR|34=3|49=EXC|56=029|57=029B17|52=20190722-21:30:51.360|571=20190722162946_AE|487=0|856=96|939=1|17=10|60=20190722-21:30:51.360|751=99|58=(138): Número de operación inválido|10=098|
8=FIX.4.4|9=110|35=A|34=1|49=029|50=029B17|52=20190722-21:45:08.944|56=EXC|43=N|98=0|108=30|141=Y|553=029FCM001|554=029FCM001|10=114|
8=FIX.4.4|9=0067|35=A|34=1|49=EXC|56=029|52=20190722-21:45:47.504|98=0|108=30|141=Y|10=018|
8=FIX.4.4|9=188|35=AE|34=2|49=029|50=029B17|52=20190722-21:45:16.280|56=EXC|31=120|32=100|55=T24U19F|60=20190722-21:24:37.535|487=0|571=20190722164506_AE|762=AFIR|856=96|880=201907220000000004|552=1|54=1|10=158|
8=FIX.4.4|9=0198|35=AR|34=2|49=EXC|56=029|57=029B17|52=20190722-21:45:54.779|571=20190722164506_AE|487=0|856=96|939=1|17=11|60=20190722-21:45:54.779|751=99|58=(659): Operacion no puede ser cancelada en este momento|10=031|
8=FIX.4.4|9=59|35=5|34=3|49=029|50=029B17|52=20190722-21:45:37.308|56=EXC|10=076|
8=FIX.4.4|9=0055|35=5|34=3|49=EXC|56=029|52=20190722-21:46:15.807|369=3|10=212|
8=FIX.4.4|9=110|35=A|34=1|49=029|50=029B17|52=20190722-22:05:04.859|56=EXC|43=N|98=0|108=30|141=Y|553=029FCM001|554=029FCM001|10=112|
8=FIX.4.4|9=0067|35=A|34=1|49=EXC|56=029|52=20190722-14:39:00.462|98=0|108=30|141=Y|10=015|
8=FIX.4.4|9=188|35=AE|34=2|49=029|50=029B17|52=20190722-22:05:17.249|56=EXC|31=120|32=100|55=T24U19F|60=20190722-14:37:29.434|487=0|571=20190722170502_AE|762=AFIR|856=96|880=201907220000000002|552=1|54=1|10=157|
8=FIX.4.4|9=0131|35=AR|34=2|49=EXC|56=029|57=029B17|52=20190722-14:39:12.770|571=20190722170502_AE|487=0|856=96|939=0|17=6|60=20190722-14:39:12.770|10=186|
8=FIX.4.4|9=0360|35=AE|34=3|49=EXC|56=029|57=029B17|52=20190722-14:39:39.912|571=20190722170502_AE|487=2|856=99|17=7|829=98|573=0|15=COP|880=201907220000000002|75=20190722|55=T24U19F|762=AFIR|48=27227|22=M|31=120.000|32=100|381=30000000000.000|60=20190722-14:39:39.912|64=20190722|552=1|54=1|453=3|448=029B17|447=C|452=12|448=029|447=C|452=1|448=029FCM001|447=C|452=36|1=RT001|10=062|
8=FIX.4.4|9=59|35=0|34=3|49=029|50=029B17|52=20190722-22:05:47.808|56=EXC|10=074|
8=FIX.4.4|9=0049|35=0|34=4|49=EXC|56=029|52=20190722-14:40:09.000|10=176|
8=FIX.4.4|9=59|35=0|34=4|49=029|50=029B17|52=20190722-22:06:17.811|56=EXC|10=067|
