8=FIX.4.4|9=110|35=A|34=1|49=013|50=013B17|52=20190705-20:43:25.879|56=EXC|43=N|98=0|108=30|141=Y|553=013FCM001|554=013FCM001|10=090|
8=FIX.4.4|9=110|35=A|34=1|49=013|50=013B17|52=20190705-20:44:25.910|56=EXC|43=N|98=0|108=30|141=Y|553=013FCM001|554=013FCM001|10=077|
8=FIX.4.4|9=110|35=A|34=1|49=013|50=013B17|52=20190705-20:45:25.932|56=EXC|43=N|98=0|108=30|141=Y|553=013FCM001|554=013FCM001|10=082|
8=FIX.4.4|9=110|35=A|34=1|49=013|50=013B17|52=20190705-20:46:25.908|56=EXC|43=N|98=0|108=30|141=Y|553=013FCM001|554=013FCM001|10=086|
8=FIX.4.4|9=82|35=A|34=1|49=013|50=013B17|52=20190709-15:38:37.497|56=EXC|43=N|98=0|108=30|141=Y|10=144|
8=FIX.4.4|9=82|35=A|34=1|49=013|50=013B17|52=20190709-15:44:17.315|56=EXC|43=N|98=0|108=30|141=Y|10=128|
