8=FIX.4.4|9=110|35=A|34=1|49=037|50=037B18|52=20190723-14:41:06.052|56=EXC|43=N|98=0|108=30|141=Y|553=037FCM001|554=037FCM001|10=098|
8=FIX.4.4|9=0067|35=A|34=1|49=EXC|56=037|52=20190723-14:41:06.124|98=0|108=30|141=Y|10=009|
8=FIX.4.4|9=0346|35=AE|34=2|49=EXC|56=037|57=037B18|52=20190723-14:41:18.335|571=2S1|487=0|856=14|17=5|829=99|573=0|15=COP|880=201907230000000002|75=20190723|55=T24U19F|762=AFIR|48=27227|22=M|31=120.000|32=100|381=30000000000.000|60=20190723-14:41:18.335|64=20190723|552=1|54=2|453=3|448=037B18|447=C|452=12|448=037|447=C|452=1|448=037FCM001|447=C|452=36|1=RT001|10=041|
8=FIX.4.4|9=59|35=0|34=2|49=037|50=037B18|52=20190723-14:41:36.044|56=EXC|10=064|
8=FIX.4.4|9=187|35=AE|34=3|49=037|50=037B18|52=20190723-14:41:45.052|56=EXC|31=120|32=100|55=T24U19F|60=20190723-14:30:36.883|487=2|571=2019072394105_AE|762=AFIR|856=97|880=201907230000000002|552=1|54=2|10=113|
8=FIX.4.4|9=0346|35=AE|34=3|49=EXC|56=037|57=037B18|52=20190723-14:41:45.098|571=2S1|487=2|856=99|17=6|829=99|573=0|15=COP|880=201907230000000002|75=20190723|55=T24U19F|762=AFIR|48=27227|22=M|31=120.000|32=100|381=30000000000.000|60=20190723-14:41:45.098|64=20190723|552=1|54=2|453=3|448=037B18|447=C|452=12|448=037|447=C|452=1|448=037FCM001|447=C|452=36|1=RT001|10=070|
8=FIX.4.4|9=0049|35=0|34=4|49=EXC|56=037|52=20190723-14:42:15.000|10=175|
8=FIX.4.4|9=59|35=0|34=4|49=037|50=037B18|52=20190723-14:42:15.044|56=EXC|10=064|
8=FIX.4.4|9=0049|35=0|34=5|49=EXC|56=037|52=20190723-14:42:45.000|10=179|
8=FIX.4.4|9=59|35=0|34=5|49=037|50=037B18|52=20190723-14:42:45.043|56=EXC|10=067|
8=FIX.4.4|9=110|35=A|34=1|49=037|50=037B18|52=20190723-15:21:29.881|56=EXC|43=N|98=0|108=30|141=Y|553=037FCM001|554=037FCM001|10=112|
8=FIX.4.4|9=0067|35=A|34=1|49=EXC|56=037|52=20190723-15:21:29.946|98=0|108=30|141=Y|10=025|
8=FIX.4.4|9=0346|35=AE|34=2|49=EXC|56=037|57=037B18|52=20190723-15:21:42.222|571=3S1|487=0|856=14|17=8|829=99|573=0|15=COP|880=201907230000000003|75=20190723|55=T24U19F|762=AFIR|48=27227|22=M|31=120.000|32=100|381=30000000000.000|60=20190723-15:21:42.222|64=20190723|552=1|54=2|453=3|448=037B18|447=C|452=12|448=037|447=C|452=1|448=037FCM001|447=C|452=36|1=RT001|10=028|
8=FIX.4.4|9=59|35=0|34=2|49=037|50=037B18|52=20190723-15:22:00.851|56=EXC|10=061|
8=FIX.4.4|9=188|35=AE|34=3|49=037|50=037B18|52=20190723-15:22:08.975|56=EXC|31=120|32=100|55=T24U19F|60=20190723-15:19:48.504|487=2|571=20190723102129_AE|762=AFIR|856=97|880=201907230000000003|552=1|54=2|10=173|
8=FIX.4.4|9=0346|35=AE|34=3|49=EXC|56=037|57=037B18|52=20190723-15:22:09.022|571=3S1|487=2|856=99|17=9|829=99|573=0|15=COP|880=201907230000000003|75=20190723|55=T24U19F|762=AFIR|48=27227|22=M|31=120.000|32=100|381=30000000000.000|60=20190723-15:22:09.022|64=20190723|552=1|54=2|453=3|448=037B18|447=C|452=12|448=037|447=C|452=1|448=037FCM001|447=C|452=36|1=RT001|10=049|
8=FIX.4.4|9=0049|35=0|34=4|49=EXC|56=037|52=20190723-15:22:39.000|10=180|
8=FIX.4.4|9=59|35=0|34=4|49=037|50=037B18|52=20190723-15:22:39.859|56=EXC|10=083|
8=FIX.4.4|9=110|35=A|34=1|49=037|50=037B18|52=20190723-15:30:28.635|56=EXC|43=N|98=0|108=30|141=Y|553=037FCM001|554=037FCM001|10=108|
8=FIX.4.4|9=0067|35=A|34=1|49=EXC|56=037|52=20190723-15:30:28.705|98=0|108=30|141=Y|10=017|
8=FIX.4.4|9=0347|35=AE|34=2|49=EXC|56=037|57=037B18|52=20190723-15:30:40.878|571=4S1|487=0|856=14|17=11|829=99|573=0|15=COP|880=201907230000000004|75=20190723|55=T24U19F|762=AFIR|48=27227|22=M|31=120.000|32=100|381=30000000000.000|60=20190723-15:30:40.878|64=20190723|552=1|54=2|453=3|448=037B18|447=C|452=12|448=037|447=C|452=1|448=037FCM001|447=C|452=36|1=RT001|10=103|
8=FIX.4.4|9=59|35=0|34=2|49=037|50=037B18|52=20190723-15:30:58.636|56=EXC|10=074|
8=FIX.4.4|9=188|35=AE|34=3|49=037|50=037B18|52=20190723-15:31:07.700|56=EXC|31=120|32=100|55=T24U19F|60=20190723-15:28:57.825|487=2|571=20190723103028_AE|762=AFIR|856=97|880=201907230000000004|552=1|54=2|10=164|
8=FIX.4.4|9=0347|35=AE|34=3|49=EXC|56=037|57=037B18|52=20190723-15:31:07.757|571=4S1|487=2|856=99|17=12|829=99|573=0|15=COP|880=201907230000000004|75=20190723|55=T24U19F|762=AFIR|48=27227|22=M|31=120.000|32=100|381=30000000000.000|60=20190723-15:31:07.757|64=20190723|552=1|54=2|453=3|448=037B18|447=C|452=12|448=037|447=C|452=1|448=037FCM001|447=C|452=36|1=RT001|10=120|
8=FIX.4.4|9=0457|35=8|34=4|49=EXC|56=037|57=037B18|52=20190723-15:31:31.198|11=15638957351454|17=13|37=0|150=H|1080=20190723-000000000004.00|1081=6|453=5|448=037B18|447=C|452=12|448=037|447=C|452=1|448=029B17|447=C|452=37|448=029|447=C|452=17|448=037FCM001|447=C|452=36|55=T24U19F|762=AFIR|48=27227|22=M|6=120.000|14=100|31=120.000|32=100|38=100|39=2|54=2|60=20190723-15:31:31.198|75=20190723|63=1|64=20190723|151=0|1=RT001|381=30000000000.000|880=201907230000000004|828=99|10=046|
8=FIX.4.4|9=59|35=0|34=4|49=037|50=037B18|52=20190723-15:31:38.636|56=EXC|10=075|
8=FIX.4.4|9=0049|35=0|34=5|49=EXC|56=037|52=20190723-15:32:01.000|10=171|
8=FIX.4.4|9=59|35=0|34=5|49=037|50=037B18|52=20190723-15:32:09.623|56=EXC|10=071|
8=FIX.4.4|9=0049|35=0|34=6|49=EXC|56=037|52=20190723-15:32:31.000|10=175|
8=FIX.4.4|9=59|35=0|34=6|49=037|50=037B18|52=20190723-15:32:39.631|56=EXC|10=074|
8=FIX.4.4|9=0049|35=0|34=7|49=EXC|56=037|52=20190723-15:33:01.000|10=174|
8=FIX.4.4|9=110|35=A|34=1|49=037|50=037B18|52=20190723-15:51:18.597|56=EXC|43=N|98=0|108=30|141=Y|553=037FCM001|554=037FCM001|10=117|
8=FIX.4.4|9=0067|35=A|34=1|49=EXC|56=037|52=20190723-15:51:18.670|98=0|108=30|141=Y|10=020|
8=FIX.4.4|9=0347|35=AE|34=2|49=EXC|56=037|57=037B18|52=20190723-15:51:31.013|571=5S1|487=0|856=14|17=15|829=99|573=0|15=COP|880=201907230000000005|75=20190723|55=T24U19F|762=AFIR|48=27227|22=M|31=120.000|32=100|381=30000000000.000|60=20190723-15:51:31.013|64=20190723|552=1|54=2|453=3|448=037B18|447=C|452=12|448=037|447=C|452=1|448=037FCM001|447=C|452=36|1=RT001|10=077|
8=FIX.4.4|9=59|35=0|34=2|49=037|50=037B18|52=20190723-15:51:49.594|56=EXC|10=080|
8=FIX.4.4|9=188|35=AE|34=3|49=037|50=037B18|52=20190723-15:51:57.821|56=EXC|31=120|32=100|55=T24U19F|60=20190723-15:49:44.091|487=2|571=20190723105118_AE|762=AFIR|856=97|880=201907230000000005|552=1|54=2|10=172|
8=FIX.4.4|9=0347|35=AE|34=3|49=EXC|56=037|57=037B18|52=20190723-15:51:57.885|571=5S1|487=2|856=99|17=16|829=99|573=0|15=COP|880=201907230000000005|75=20190723|55=T24U19F|762=AFIR|48=27227|22=M|31=120.000|32=100|381=30000000000.000|60=20190723-15:51:57.885|64=20190723|552=1|54=2|453=3|448=037B18|447=C|452=12|448=037|447=C|452=1|448=037FCM001|447=C|452=36|1=RT001|10=144|
8=FIX.4.4|9=0457|35=8|34=4|49=EXC|56=037|57=037B18|52=20190723-15:52:21.057|11=15638969824635|17=17|37=0|150=H|1080=20190723-000000000005.00|1081=6|453=5|448=037B18|447=C|452=12|448=037|447=C|452=1|448=029B17|447=C|452=37|448=029|447=C|452=17|448=037FCM001|447=C|452=36|55=T24U19F|762=AFIR|48=27227|22=M|6=120.000|14=100|31=120.000|32=100|38=100|39=2|54=2|60=20190723-15:52:21.057|75=20190723|63=1|64=20190723|151=0|1=RT001|381=30000000000.000|880=201907230000000005|828=99|10=053|
8=FIX.4.4|9=59|35=0|34=4|49=037|50=037B18|52=20190723-15:52:28.594|56=EXC|10=080|
8=FIX.4.4|9=0049|35=0|34=5|49=EXC|56=037|52=20190723-15:52:51.000|10=178|
8=FIX.4.4|9=59|35=0|34=5|49=037|50=037B18|52=20190723-15:52:58.592|56=EXC|10=082|
8=FIX.4.4|9=110|35=A|34=1|49=037|50=037B18|52=20190723-16:20:47.917|56=EXC|43=N|98=0|108=30|141=Y|553=037FCM001|554=037FCM001|10=112|
8=FIX.4.4|9=0067|35=A|34=1|49=EXC|56=037|52=20190723-16:20:47.989|98=0|108=30|141=Y|10=032|
8=FIX.4.4|9=0347|35=AE|34=2|49=EXC|56=037|57=037B18|52=20190723-16:21:00.186|571=6S1|487=0|856=14|17=19|829=99|573=0|15=COP|880=201907230000000006|75=20190723|55=T24U19F|762=AFIR|48=27227|22=M|31=120.000|32=100|381=30000000000.000|60=20190723-16:21:00.186|64=20190723|552=1|54=2|453=3|448=037B18|447=C|452=12|448=037|447=C|452=1|448=037FCM001|447=C|452=36|1=RT001|10=093|
8=FIX.4.4|9=59|35=0|34=2|49=037|50=037B18|52=20190723-16:21:18.827|56=EXC|10=073|
8=FIX.4.4|9=189|35=AE|34=3|49=037|50=037B18|52=20190723-16:21:26.871|56=EXC|31=120|32=100|55=T24U19F|60=20190723-16:19:37.134|487=2|571=201907231120452_AE|762=AFIR|856=97|880=201907230000000006|552=1|54=2|10=218|
8=FIX.4.4|9=0347|35=AE|34=3|49=EXC|56=037|57=037B18|52=20190723-16:21:26.920|571=6S1|487=2|856=99|17=20|829=99|573=0|15=COP|880=201907230000000006|75=20190723|55=T24U19F|762=AFIR|48=27227|22=M|31=120.000|32=100|381=30000000000.000|60=20190723-16:21:26.920|64=20190723|552=1|54=2|453=3|448=037B18|447=C|452=12|448=037|447=C|452=1|448=037FCM001|447=C|452=36|1=RT001|10=109|
8=FIX.4.4|9=0457|35=8|34=4|49=EXC|56=037|57=037B18|52=20190723-16:21:50.180|11=15638987757696|17=21|37=0|150=H|1080=20190723-000000000006.00|1081=6|453=5|448=037B18|447=C|452=12|448=037|447=C|452=1|448=029B17|447=C|452=37|448=029|447=C|452=17|448=037FCM001|447=C|452=36|55=T24U19F|762=AFIR|48=27227|22=M|6=120.000|14=100|31=120.000|32=100|38=100|39=2|54=2|60=20190723-16:21:50.180|75=20190723|63=1|64=20190723|151=0|1=RT001|381=30000000000.000|880=201907230000000006|828=99|10=054|
8=FIX.4.4|9=59|35=0|34=4|49=037|50=037B18|52=20190723-16:21:57.834|56=EXC|10=076|
8=FIX.4.4|9=0049|35=0|34=5|49=EXC|56=037|52=20190723-16:22:20.000|10=172|
8=FIX.4.4|9=59|35=0|34=5|49=037|50=037B18|52=20190723-16:22:27.831|56=EXC|10=072|
8=FIX.4.4|9=0049|35=0|34=6|49=EXC|56=037|52=20190723-16:22:50.000|10=176|
8=FIX.4.4|9=59|35=0|34=6|49=037|50=037B18|52=20190723-16:22:57.831|56=EXC|10=076|
8=FIX.4.4|9=110|35=A|34=1|49=037|50=037B18|52=20190723-16:47:43.064|56=EXC|43=N|98=0|108=30|141=Y|553=037FCM001|554=037FCM001|10=110|
8=FIX.4.4|9=0067|35=A|34=1|49=EXC|56=037|52=20190723-16:47:43.145|98=0|108=30|141=Y|10=021|
8=FIX.4.4|9=0347|35=AE|34=2|49=EXC|56=037|57=037B18|52=20190723-16:47:55.344|571=7S1|487=0|856=14|17=23|829=99|573=0|15=COP|880=201907230000000007|75=20190723|55=T24U19F|762=AFIR|48=27227|22=M|31=120.000|32=100|381=30000000000.000|60=20190723-16:47:55.344|64=20190723|552=1|54=2|453=3|448=037B18|447=C|452=12|448=037|447=C|452=1|448=037FCM001|447=C|452=36|1=RT001|10=118|
8=FIX.4.4|9=59|35=0|34=2|49=037|50=037B18|52=20190723-16:48:14.052|56=EXC|10=068|
8=FIX.4.4|9=0049|35=0|34=3|49=EXC|56=037|52=20190723-16:48:25.000|10=183|
8=FIX.4.4|9=59|35=0|34=3|49=037|50=037B18|52=20190723-16:48:44.044|56=EXC|10=073|
8=FIX.4.4|9=0049|35=0|34=4|49=EXC|56=037|52=20190723-16:48:55.000|10=187|
8=FIX.4.4|9=59|35=0|34=4|49=037|50=037B18|52=20190723-16:49:14.051|56=EXC|10=070|
8=FIX.4.4|9=0049|35=0|34=5|49=EXC|56=037|52=20190723-16:49:25.000|10=186|
8=FIX.4.4|9=59|35=0|34=5|49=037|50=037B18|52=20190723-16:49:44.053|56=EXC|10=076|
8=FIX.4.4|9=0049|35=0|34=6|49=EXC|56=037|52=20190723-16:49:55.000|10=190|
8=FIX.4.4|9=59|35=0|34=6|49=037|50=037B18|52=20190723-16:50:15.044|56=EXC|10=067|
8=FIX.4.4|9=0049|35=0|34=7|49=EXC|56=037|52=20190723-16:50:25.000|10=180|
8=FIX.4.4|9=59|35=0|34=7|49=037|50=037B18|52=20190723-16:50:45.051|56=EXC|10=069|
8=FIX.4.4|9=0049|35=0|34=8|49=EXC|56=037|52=20190723-16:50:55.000|10=184|
8=FIX.4.4|9=59|35=0|34=8|49=037|50=037B18|52=20190723-16:51:15.051|56=EXC|10=068|
8=FIX.4.4|9=0049|35=0|34=9|49=EXC|56=037|52=20190723-16:51:25.000|10=183|
8=FIX.4.4|9=59|35=0|34=9|49=037|50=037B18|52=20190723-16:51:45.044|56=EXC|10=074|
8=FIX.4.4|9=0050|35=0|34=10|49=EXC|56=037|52=20190723-16:51:55.000|10=218|
8=FIX.4.4|9=60|35=0|34=10|49=037|50=037B18|52=20190723-16:52:15.045|56=EXC|10=105|
8=FIX.4.4|9=0050|35=0|34=11|49=EXC|56=037|52=20190723-16:52:25.000|10=217|
8=FIX.4.4|9=60|35=0|34=11|49=037|50=037B18|52=20190723-16:52:45.044|56=EXC|10=108|
8=FIX.4.4|9=0050|35=0|34=12|49=EXC|56=037|52=20190723-16:52:55.000|10=221|
8=FIX.4.4|9=60|35=0|34=12|49=037|50=037B18|52=20190723-16:53:15.054|56=EXC|10=108|
8=FIX.4.4|9=0050|35=0|34=13|49=EXC|56=037|52=20190723-16:53:25.000|10=220|
8=FIX.4.4|9=60|35=0|34=13|49=037|50=037B18|52=20190723-16:53:45.051|56=EXC|10=109|
8=FIX.4.4|9=0050|35=0|34=14|49=EXC|56=037|52=20190723-16:53:55.000|10=224|
8=FIX.4.4|9=60|35=0|34=14|49=037|50=037B18|52=20190723-16:54:15.051|56=EXC|10=108|
8=FIX.4.4|9=0050|35=0|34=15|49=EXC|56=037|52=20190723-16:54:25.000|10=223|
8=FIX.4.4|9=110|35=A|34=1|49=037|50=037B18|52=20190723-19:42:33.130|56=EXC|43=N|98=0|108=30|141=Y|553=037FCM001|554=037FCM001|10=101|
8=FIX.4.4|9=0067|35=A|34=1|49=EXC|56=037|52=20190723-19:42:33.215|98=0|108=30|141=Y|10=016|
8=FIX.4.4|9=0347|35=AE|34=2|49=EXC|56=037|57=037B18|52=20190723-19:42:45.417|571=8S1|487=0|856=14|17=25|829=99|573=0|15=COP|880=201907230000000008|75=20190723|55=T24U19F|762=AFIR|48=27227|22=M|31=120.000|32=100|381=30000000000.000|60=20190723-19:42:45.417|64=20190723|552=1|54=2|453=3|448=037B18|447=C|452=12|448=037|447=C|452=1|448=037FCM001|447=C|452=36|1=RT001|10=118|
8=FIX.4.4|9=59|35=0|34=2|49=037|50=037B18|52=20190723-19:43:04.049|56=EXC|10=071|
8=FIX.4.4|9=189|35=AE|34=3|49=037|50=037B18|52=20190723-19:43:12.200|56=EXC|31=120|32=100|55=T24U19F|60=20190723-19:41:00.058|487=2|571=201907231442302_AE|762=AFIR|856=97|880=201907230000000008|552=1|54=2|10=202|
8=FIX.4.4|9=0347|35=AE|34=3|49=EXC|56=037|57=037B18|52=20190723-19:43:12.267|571=8S1|487=2|856=99|17=26|829=99|573=0|15=COP|880=201907230000000008|75=20190723|55=T24U19F|762=AFIR|48=27227|22=M|31=120.000|32=100|381=30000000000.000|60=20190723-19:43:12.267|64=20190723|552=1|54=2|453=3|448=037B18|447=C|452=12|448=037|447=C|452=1|448=037FCM001|447=C|452=36|1=RT001|10=131|
8=FIX.4.4|9=0457|35=8|34=4|49=EXC|56=037|57=037B18|52=20190723-19:43:35.345|11=15639108585498|17=27|37=0|150=H|1080=20190723-000000000008.00|1081=6|453=5|448=037B18|447=C|452=12|448=037|447=C|452=1|448=029B17|447=C|452=37|448=029|447=C|452=17|448=037FCM001|447=C|452=36|55=T24U19F|762=AFIR|48=27227|22=M|6=120.000|14=100|31=120.000|32=100|38=100|39=2|54=2|60=20190723-19:43:35.345|75=20190723|63=1|64=20190723|151=0|1=RT001|381=30000000000.000|880=201907230000000008|828=99|10=075|
8=FIX.4.4|9=59|35=0|34=4|49=037|50=037B18|52=20190723-19:43:43.058|56=EXC|10=076|
8=FIX.4.4|9=0049|35=0|34=5|49=EXC|56=037|52=20190723-19:44:05.000|10=182|
8=FIX.4.4|9=59|35=5|34=5|49=037|50=037B18|52=20190723-19:44:10.050|56=EXC|10=069|
8=FIX.4.4|9=0055|35=5|34=6|49=EXC|56=037|52=20190723-19:44:10.116|369=5|10=210|
8=FIX.4.4|9=110|35=A|34=1|49=037|50=037B18|52=20190723-21:39:14.717|56=EXC|43=N|98=0|108=30|141=Y|553=037FCM001|554=037FCM001|10=110|
8=FIX.4.4|9=0067|35=A|34=1|49=EXC|56=037|52=20190723-14:34:02.810|98=0|108=30|141=Y|10=009|
8=FIX.4.4|9=0346|35=AE|34=2|49=EXC|56=037|57=037B18|52=20190723-14:34:09.935|571=1S1|487=0|856=14|17=2|829=99|573=0|15=COP|880=201907230000000001|75=20190723|55=T24U19F|762=AFIR|48=27227|22=M|31=120.000|32=100|381=30000000000.000|60=20190723-14:34:09.935|64=20190723|552=1|54=2|453=3|448=037B18|447=C|452=12|448=037|447=C|452=1|448=037FCM001|447=C|452=36|1=RT001|10=052|
8=FIX.4.4|9=189|35=AE|34=2|49=037|50=037B18|52=20190723-21:39:40.101|56=EXC|31=120|32=100|55=T24U19F|60=20190723-14:33:22.744|487=2|571=201907231639122_AE|762=AFIR|856=97|880=201907230000000001|552=1|54=2|10=203|
8=FIX.4.4|9=0346|35=AE|34=3|49=EXC|56=037|57=037B18|52=20190723-14:34:28.186|571=1S1|487=2|856=99|17=3|829=99|573=0|15=COP|880=201907230000000001|75=20190723|55=T24U19F|762=AFIR|48=27227|22=M|31=120.000|32=100|381=30000000000.000|60=20190723-14:34:28.186|64=20190723|552=1|54=2|453=3|448=037B18|447=C|452=12|448=037|447=C|452=1|448=037FCM001|447=C|452=36|1=RT001|10=067|
8=FIX.4.4|9=0456|35=8|34=4|49=EXC|56=037|57=037B18|52=20190723-14:34:41.217|11=15639179120589|17=4|37=0|150=H|1080=20190723-000000000001.00|1081=6|453=5|448=037B18|447=C|452=12|448=037|447=C|452=1|448=029B17|447=C|452=37|448=029|447=C|452=17|448=037FCM001|447=C|452=36|55=T24U19F|762=AFIR|48=27227|22=M|6=120.000|14=100|31=120.000|32=100|38=100|39=2|54=2|60=20190723-14:34:41.217|75=20190723|63=1|64=20190723|151=0|1=RT001|381=30000000000.000|880=201907230000000001|828=99|10=237|
8=FIX.4.4|9=59|35=0|34=3|49=037|50=037B18|52=20190723-21:40:10.683|56=EXC|10=063|
8=FIX.4.4|9=0049|35=0|34=5|49=EXC|56=037|52=20190723-14:35:11.000|10=174|
8=FIX.4.4|9=59|35=5|34=4|49=037|50=037B18|52=20190723-21:40:31.728|56=EXC|10=072|
8=FIX.4.4|9=0055|35=5|34=6|49=EXC|56=037|52=20190723-14:35:19.808|369=4|10=221|
8=FIX.4.4|9=110|35=A|34=1|49=037|50=037B18|52=20190724-13:09:23.930|56=EXC|43=N|98=0|108=30|141=Y|553=037FCM001|554=037FCM001|10=106|
8=FIX.4.4|9=0067|35=A|34=1|49=EXC|56=037|52=20190724-14:38:13.103|98=0|108=30|141=Y|10=011|
8=FIX.4.4|9=0346|35=AE|34=2|49=EXC|56=037|57=037B18|52=20190724-14:38:20.350|571=1S1|487=0|856=14|17=3|829=99|573=0|15=COP|880=201907240000000001|75=20190724|55=T24U19F|762=AFIR|48=27227|22=M|31=120.000|32=100|381=30000000000.000|60=20190724-14:38:20.350|64=20190724|552=1|54=2|453=3|448=037B18|447=C|452=12|448=037|447=C|452=1|448=037FCM001|447=C|452=36|1=RT001|10=034|
8=FIX.4.4|9=188|35=AE|34=2|49=037|50=037B18|52=20190724-13:09:49.831|56=EXC|31=120|32=100|55=T24U19F|60=20190724-14:34:46.532|487=2|571=20190724809202_AE|762=AFIR|856=97|880=201907240000000001|552=1|54=2|10=174|
8=FIX.4.4|9=0346|35=AE|34=3|49=EXC|56=037|57=037B18|52=20190724-14:38:38.900|571=1S1|487=2|856=99|17=4|829=99|573=0|15=COP|880=201907240000000001|75=20190724|55=T24U19F|762=AFIR|48=27227|22=M|31=120.000|32=100|381=30000000000.000|60=20190724-14:38:38.900|64=20190724|552=1|54=2|453=3|448=037B18|447=C|452=12|448=037|447=C|452=1|448=037FCM001|447=C|452=36|1=RT001|10=071|
8=FIX.4.4|9=0457|35=8|34=4|49=EXC|56=037|57=037B18|52=20190724-14:38:51.505|11=156397355178110|17=5|37=0|150=H|1080=20190724-000000000001.00|1081=6|453=5|448=037B18|447=C|452=12|448=037|447=C|452=1|448=029B17|447=C|452=37|448=029|447=C|452=17|448=037FCM001|447=C|452=36|55=T24U19F|762=AFIR|48=27227|22=M|6=120.000|14=100|31=120.000|32=100|38=100|39=2|54=2|60=20190724-14:38:51.505|75=20190724|63=1|64=20190724|151=0|1=RT001|381=30000000000.000|880=201907240000000001|828=99|10=043|
8=FIX.4.4|9=59|35=0|34=3|49=037|50=037B18|52=20190724-13:10:19.853|56=EXC|10=070|
8=FIX.4.4|9=0049|35=0|34=5|49=EXC|56=037|52=20190724-14:39:21.000|10=180|
8=FIX.4.4|9=0346|35=AE|34=6|49=EXC|56=037|57=037B18|52=20190724-14:39:24.105|571=2S1|487=0|856=14|17=6|829=99|573=0|15=COP|880=201907240000000002|75=20190724|55=T24U19F|762=AFIR|48=27227|22=M|31=120.000|32=100|381=30000000000.000|60=20190724-14:39:24.105|64=20190724|552=1|54=2|453=3|448=037B18|447=C|452=12|448=037|447=C|452=1|448=037FCM001|447=C|452=36|1=RT001|10=049|
8=FIX.4.4|9=59|35=0|34=4|49=037|50=037B18|52=20190724-13:10:49.844|56=EXC|10=074|
8=FIX.4.4|9=188|35=AE|34=5|49=037|50=037B18|52=20190724-13:11:00.936|56=EXC|31=120|32=100|55=T24U19F|60=20190724-14:35:08.325|487=2|571=20190724809204_AE|762=AFIR|856=98|880=201907240000000002|552=1|54=2|10=166|
8=FIX.4.4|9=0346|35=AE|34=7|49=EXC|56=037|57=037B18|52=20190724-14:39:50.012|571=2S1|487=2|856=98|17=7|829=99|573=0|15=COP|880=201907240000000002|75=20190724|55=T24U19F|762=AFIR|48=27227|22=M|31=120.000|32=100|381=30000000000.000|60=20190724-14:39:50.012|64=20190724|552=1|54=2|453=3|448=037B18|447=C|452=12|448=037|447=C|452=1|448=037FCM001|447=C|452=36|1=RT001|10=057|
8=FIX.4.4|9=0049|35=0|34=8|49=EXC|56=037|52=20190724-14:40:20.000|10=174|
8=FIX.4.4|9=59|35=0|34=6|49=037|50=037B18|52=20190724-13:11:31.847|56=EXC|10=071|
8=FIX.4.4|9=59|35=5|34=7|49=037|50=037B18|52=20190724-13:11:49.845|56=EXC|10=084|
8=FIX.4.4|9=0055|35=5|34=9|49=EXC|56=037|52=20190724-14:40:38.914|369=7|10=223|
8=FIX.4.4|9=110|35=A|34=1|49=037|50=037B18|52=20190724-13:20:03.959|56=EXC|43=N|98=0|108=30|141=Y|553=037FCM001|554=037FCM001|10=108|
8=FIX.4.4|9=0067|35=A|34=1|49=EXC|56=037|52=20190724-14:48:53.091|98=0|108=30|141=Y|10=022|
8=FIX.4.4|9=0346|35=AE|34=2|49=EXC|56=037|57=037B18|52=20190724-14:49:00.247|571=2S2|487=0|856=14|17=8|829=99|573=0|15=COP|880=201907240000000002|75=20190724|55=T24U19F|762=AFIR|48=27227|22=M|31=120.000|32=100|381=30000000000.000|60=20190724-14:49:00.247|64=20190724|552=1|54=2|453=3|448=037B18|447=C|452=12|448=037|447=C|452=1|448=037FCM001|447=C|452=36|1=RT001|10=052|
8=FIX.4.4|9=188|35=AE|34=2|49=037|50=037B18|52=20190724-13:20:29.620|56=EXC|31=120|32=100|55=T24U19F|60=20190724-14:35:08.325|487=2|571=20190724820014_AE|762=AFIR|856=98|880=201907240000000002|552=1|54=2|10=156|
8=FIX.4.4|9=0346|35=AE|34=3|49=EXC|56=037|57=037B18|52=20190724-14:49:18.699|571=2S2|487=2|856=98|17=9|829=99|573=0|15=COP|880=201907240000000002|75=20190724|55=T24U19F|762=AFIR|48=27227|22=M|31=120.000|32=100|381=30000000000.000|60=20190724-14:49:18.699|64=20190724|552=1|54=2|453=3|448=037B18|447=C|452=12|448=037|447=C|452=1|448=037FCM001|447=C|452=36|1=RT001|10=108|
8=FIX.4.4|9=0049|35=0|34=4|49=EXC|56=037|52=20190724-14:49:48.000|10=189|
8=FIX.4.4|9=59|35=0|34=3|49=037|50=037B18|52=20190724-13:20:59.931|56=EXC|10=072|
8=FIX.4.4|9=59|35=5|34=4|49=037|50=037B18|52=20190724-13:21:02.457|56=EXC|10=070|
8=FIX.4.4|9=0055|35=5|34=5|49=EXC|56=037|52=20190724-14:49:51.532|369=4|10=216|
8=FIX.4.4|9=110|35=A|34=1|49=037|50=037B18|52=20190724-14:03:52.917|56=EXC|43=N|98=0|108=30|141=Y|553=037FCM001|554=037FCM001|10=108|
8=FIX.4.4|9=0067|35=A|34=1|49=EXC|56=037|52=20190724-15:32:42.046|98=0|108=30|141=Y|10=014|
8=FIX.4.4|9=0347|35=AE|34=2|49=EXC|56=037|57=037B18|52=20190724-15:32:49.221|571=2S3|487=0|856=14|17=10|829=99|573=0|15=COP|880=201907240000000002|75=20190724|55=T24U19F|762=AFIR|48=27227|22=M|31=120.000|32=100|381=30000000000.000|60=20190724-15:32:49.221|64=20190724|552=1|54=2|453=3|448=037B18|447=C|452=12|448=037|447=C|452=1|448=037FCM001|447=C|452=36|1=RT001|10=091|
8=FIX.4.4|9=189|35=AE|34=2|49=037|50=037B18|52=20190724-14:04:18.673|56=EXC|31=120|32=100|55=T24U19F|60=20190724-14:35:08.325|487=2|571=201907240903504_AE|762=AFIR|856=98|880=201907240000000002|552=1|54=2|10=220|
8=FIX.4.4|9=0347|35=AE|34=3|49=EXC|56=037|57=037B18|52=20190724-15:33:07.746|571=2S3|487=2|856=98|17=11|829=99|573=0|15=COP|880=201907240000000002|75=20190724|55=T24U19F|762=AFIR|48=27227|22=M|31=120.000|32=100|381=30000000000.000|60=20190724-15:33:07.746|64=20190724|552=1|54=2|453=3|448=037B18|447=C|452=12|448=037|447=C|452=1|448=037FCM001|447=C|452=36|1=RT001|10=121|
8=FIX.4.4|9=0049|35=0|34=4|49=EXC|56=037|52=20190724-15:33:37.000|10=181|
8=FIX.4.4|9=59|35=0|34=3|49=037|50=037B18|52=20190724-14:04:48.889|56=EXC|10=085|
8=FIX.4.4|9=59|35=5|34=4|49=037|50=037B18|52=20190724-14:04:51.617|56=EXC|10=074|
8=FIX.4.4|9=0055|35=5|34=5|49=EXC|56=037|52=20190724-15:33:40.693|369=4|10=216|
8=FIX.4.4|9=110|35=A|34=1|49=037|50=037B18|52=20190724-14:38:41.173|56=EXC|43=N|98=0|108=30|141=Y|553=037FCM001|554=037FCM001|10=108|
8=FIX.4.4|9=0067|35=A|34=1|49=EXC|56=037|52=20190724-16:07:30.268|98=0|108=30|141=Y|10=020|
8=FIX.4.4|9=0347|35=AE|34=2|49=EXC|56=037|57=037B18|52=20190724-16:07:37.458|571=3S1|487=0|856=14|17=14|829=99|573=0|15=COP|880=201907240000000003|75=20190724|55=T24U19F|762=AFIR|48=27227|22=M|31=120.000|32=100|381=30000000000.000|60=20190724-16:07:37.458|64=20190724|552=1|54=2|453=3|448=037B18|447=C|452=12|448=037|447=C|452=1|448=037FCM001|447=C|452=36|1=RT001|10=119|
8=FIX.4.4|9=189|35=AE|34=2|49=037|50=037B18|52=20190724-14:39:06.833|56=EXC|31=120|32=100|55=T24U19F|60=20190724-16:05:34.278|487=2|571=201907240938382_AE|762=AFIR|856=97|880=201907240000000003|552=1|54=2|10=240|
8=FIX.4.4|9=0347|35=AE|34=3|49=EXC|56=037|57=037B18|52=20190724-16:07:55.906|571=3S1|487=2|856=99|17=15|829=99|573=0|15=COP|880=201907240000000003|75=20190724|55=T24U19F|762=AFIR|48=27227|22=M|31=120.000|32=100|381=30000000000.000|60=20190724-16:07:55.906|64=20190724|552=1|54=2|453=3|448=037B18|447=C|452=12|448=037|447=C|452=1|448=037FCM001|447=C|452=36|1=RT001|10=132|
8=FIX.4.4|9=0457|35=8|34=4|49=EXC|56=037|57=037B18|52=20190724-16:08:08.120|11=15639790014911|17=16|37=0|150=H|1080=20190724-000000000003.00|1081=6|453=5|448=037B18|447=C|452=12|448=037|447=C|452=1|448=029B17|447=C|452=37|448=029|447=C|452=17|448=037FCM001|447=C|452=36|55=T24U19F|762=AFIR|48=27227|22=M|6=120.000|14=100|31=120.000|32=100|38=100|39=2|54=2|60=20190724-16:08:08.120|75=20190724|63=1|64=20190724|151=0|1=RT001|381=30000000000.000|880=201907240000000003|828=99|10=031|
8=FIX.4.4|9=59|35=0|34=3|49=037|50=037B18|52=20190724-14:39:37.134|56=EXC|10=074|
8=FIX.4.4|9=0049|35=0|34=5|49=EXC|56=037|52=20190724-16:08:38.000|10=186|
8=FIX.4.4|9=59|35=0|34=4|49=037|50=037B18|52=20190724-14:40:07.135|56=EXC|10=065|
8=FIX.4.4|9=0049|35=0|34=6|49=EXC|56=037|52=20190724-16:09:08.000|10=185|
8=FIX.4.4|9=59|35=0|34=5|49=037|50=037B18|52=20190724-14:40:37.136|56=EXC|10=070|
8=FIX.4.4|9=0049|35=0|34=7|49=EXC|56=037|52=20190724-16:09:38.000|10=189|
8=FIX.4.4|9=59|35=0|34=6|49=037|50=037B18|52=20190724-14:41:07.147|56=EXC|10=071|
8=FIX.4.4|9=0049|35=0|34=8|49=EXC|56=037|52=20190724-16:10:08.000|10=179|
8=FIX.4.4|9=59|35=0|34=7|49=037|50=037B18|52=20190724-14:41:38.137|56=EXC|10=075|
8=FIX.4.4|9=0049|35=0|34=9|49=EXC|56=037|52=20190724-16:10:38.000|10=183|
8=FIX.4.4|9=59|35=0|34=8|49=037|50=037B18|52=20190724-14:42:08.135|56=EXC|10=072|
8=FIX.4.4|9=0050|35=0|34=10|49=EXC|56=037|52=20190724-16:11:08.000|10=213|
8=FIX.4.4|9=59|35=0|34=9|49=037|50=037B18|52=20190724-14:42:38.137|56=EXC|10=078|
8=FIX.4.4|9=0050|35=0|34=11|49=EXC|56=037|52=20190724-16:11:38.000|10=217|
8=FIX.4.4|9=60|35=0|34=10|49=037|50=037B18|52=20190724-14:43:08.141|56=EXC|10=103|
8=FIX.4.4|9=0050|35=0|34=12|49=EXC|56=037|52=20190724-16:12:08.000|10=216|
8=FIX.4.4|9=60|35=0|34=11|49=037|50=037B18|52=20190724-14:43:38.135|56=EXC|10=110|
8=FIX.4.4|9=0050|35=0|34=13|49=EXC|56=037|52=20190724-16:12:38.000|10=220|
8=FIX.4.4|9=60|35=0|34=12|49=037|50=037B18|52=20190724-14:44:08.135|56=EXC|10=109|
8=FIX.4.4|9=0050|35=0|34=14|49=EXC|56=037|52=20190724-16:13:08.000|10=219|
8=FIX.4.4|9=60|35=0|34=13|49=037|50=037B18|52=20190724-14:44:38.135|56=EXC|10=113|
8=FIX.4.4|9=0050|35=0|34=15|49=EXC|56=037|52=20190724-16:13:38.000|10=223|
8=FIX.4.4|9=60|35=0|34=14|49=037|50=037B18|52=20190724-14:45:08.134|56=EXC|10=111|
8=FIX.4.4|9=0050|35=0|34=16|49=EXC|56=037|52=20190724-16:14:08.000|10=222|
8=FIX.4.4|9=60|35=0|34=15|49=037|50=037B18|52=20190724-14:45:38.135|56=EXC|10=116|
8=FIX.4.4|9=0050|35=0|34=17|49=EXC|56=037|52=20190724-16:14:38.000|10=226|
8=FIX.4.4|9=60|35=0|34=16|49=037|50=037B18|52=20190724-14:46:08.136|56=EXC|10=116|
8=FIX.4.4|9=0050|35=0|34=18|49=EXC|56=037|52=20190724-16:15:08.000|10=225|
8=FIX.4.4|9=60|35=0|34=17|49=037|50=037B18|52=20190724-14:46:38.134|56=EXC|10=118|
8=FIX.4.4|9=0050|35=0|34=19|49=EXC|56=037|52=20190724-16:15:38.000|10=229|
8=FIX.4.4|9=60|35=0|34=18|49=037|50=037B18|52=20190724-14:47:08.142|56=EXC|10=116|
8=FIX.4.4|9=0050|35=0|34=20|49=EXC|56=037|52=20190724-16:16:08.000|10=219|
8=FIX.4.4|9=60|35=0|34=19|49=037|50=037B18|52=20190724-14:47:38.134|56=EXC|10=121|
8=FIX.4.4|9=0050|35=0|34=21|49=EXC|56=037|52=20190724-16:16:38.000|10=223|
8=FIX.4.4|9=60|35=0|34=20|49=037|50=037B18|52=20190724-14:48:08.145|56=EXC|10=113|
8=FIX.4.4|9=0050|35=0|34=22|49=EXC|56=037|52=20190724-16:17:08.000|10=222|
8=FIX.4.4|9=60|35=0|34=21|49=037|50=037B18|52=20190724-14:48:39.136|56=EXC|10=118|
8=FIX.4.4|9=0050|35=0|34=23|49=EXC|56=037|52=20190724-16:17:38.000|10=226|
8=FIX.4.4|9=60|35=0|34=22|49=037|50=037B18|52=20190724-14:49:09.135|56=EXC|10=116|
8=FIX.4.4|9=0050|35=0|34=24|49=EXC|56=037|52=20190724-16:18:08.000|10=225|
8=FIX.4.4|9=60|35=0|34=23|49=037|50=037B18|52=20190724-14:49:39.135|56=EXC|10=120|
8=FIX.4.4|9=0050|35=0|34=25|49=EXC|56=037|52=20190724-16:18:38.000|10=229|
8=FIX.4.4|9=60|35=0|34=24|49=037|50=037B18|52=20190724-14:50:09.135|56=EXC|10=110|
8=FIX.4.4|9=0050|35=0|34=26|49=EXC|56=037|52=20190724-16:19:08.000|10=228|
8=FIX.4.4|9=60|35=0|34=25|49=037|50=037B18|52=20190724-14:50:39.134|56=EXC|10=113|
8=FIX.4.4|9=0050|35=0|34=27|49=EXC|56=037|52=20190724-16:19:38.000|10=232|
8=FIX.4.4|9=60|35=0|34=26|49=037|50=037B18|52=20190724-14:51:09.134|56=EXC|10=112|
8=FIX.4.4|9=0050|35=0|34=28|49=EXC|56=037|52=20190724-16:20:08.000|10=222|
8=FIX.4.4|9=60|35=0|34=27|49=037|50=037B18|52=20190724-14:51:39.140|56=EXC|10=113|
8=FIX.4.4|9=0050|35=0|34=29|49=EXC|56=037|52=20190724-16:20:38.000|10=226|
8=FIX.4.4|9=60|35=0|34=28|49=037|50=037B18|52=20190724-14:52:09.135|56=EXC|10=116|
8=FIX.4.4|9=110|35=A|34=1|49=037|50=037B18|52=20190724-14:52:17.176|56=EXC|43=N|98=0|108=30|141=Y|553=037FCM001|554=037FCM001|10=110|
8=FIX.4.4|9=110|35=A|34=1|49=037|50=037B18|52=20190724-14:53:17.166|56=EXC|43=N|98=0|108=30|141=Y|553=037FCM001|554=037FCM001|10=110|
8=FIX.4.4|9=0067|35=A|34=1|49=EXC|56=037|52=20190724-16:22:06.254|98=0|108=30|141=Y|10=015|
8=FIX.4.4|9=110|35=A|34=1|49=037|50=037B18|52=20190724-14:54:13.289|56=EXC|43=N|98=0|108=30|141=Y|553=037FCM001|554=037FCM001|10=113|
8=FIX.4.4|9=0067|35=A|34=1|49=EXC|56=037|52=20190724-16:23:02.377|98=0|108=30|141=Y|10=018|
8=FIX.4.4|9=0347|35=AE|34=2|49=EXC|56=037|57=037B18|52=20190724-16:23:09.579|571=5S1|487=0|856=14|17=18|829=99|573=0|15=COP|880=201907240000000005|75=20190724|55=T24U19F|762=AFIR|48=27227|22=M|31=120.000|32=100|381=30000000000.000|60=20190724-16:23:09.579|64=20190724|552=1|54=2|453=3|448=037B18|447=C|452=12|448=037|447=C|452=1|448=037FCM001|447=C|452=36|1=RT001|10=129|
8=FIX.4.4|9=189|35=AE|34=2|49=037|50=037B18|52=20190724-14:54:38.946|56=EXC|31=120|32=100|55=T24U19F|60=20190724-16:21:16.375|487=2|571=201907240954102_AE|762=AFIR|856=97|880=201907240000000005|552=1|54=2|10=233|
8=FIX.4.4|9=0347|35=AE|34=3|49=EXC|56=037|57=037B18|52=20190724-16:23:28.020|571=5S1|487=2|856=99|17=19|829=99|573=0|15=COP|880=201907240000000005|75=20190724|55=T24U19F|762=AFIR|48=27227|22=M|31=120.000|32=100|381=30000000000.000|60=20190724-16:23:28.020|64=20190724|552=1|54=2|453=3|448=037B18|447=C|452=12|448=037|447=C|452=1|448=037FCM001|447=C|452=36|1=RT001|10=110|
8=FIX.4.4|9=0457|35=8|34=4|49=EXC|56=037|57=037B18|52=20190724-16:23:40.315|11=15639799424113|17=20|37=0|150=H|1080=20190724-000000000005.00|1081=6|453=5|448=037B18|447=C|452=12|448=037|447=C|452=1|448=029B17|447=C|452=37|448=029|447=C|452=17|448=037FCM001|447=C|452=36|55=T24U19F|762=AFIR|48=27227|22=M|6=120.000|14=100|31=120.000|32=100|38=100|39=2|54=2|60=20190724-16:23:40.315|75=20190724|63=1|64=20190724|151=0|1=RT001|381=30000000000.000|880=201907240000000005|828=99|10=036|
8=FIX.4.4|9=59|35=0|34=3|49=037|50=037B18|52=20190724-14:55:09.225|56=EXC|10=072|
8=FIX.4.4|9=0049|35=0|34=5|49=EXC|56=037|52=20190724-16:24:10.000|10=174|
8=FIX.4.4|9=0347|35=AE|34=6|49=EXC|56=037|57=037B18|52=20190724-16:24:12.886|571=4S1|487=0|856=14|17=21|829=99|573=0|15=COP|880=201907240000000004|75=20190724|55=T24U19F|762=AFIR|48=27227|22=M|31=120.000|32=100|381=30000000000.000|60=20190724-16:24:12.886|64=20190724|552=1|54=2|453=3|448=037B18|447=C|452=12|448=037|447=C|452=1|448=037FCM001|447=C|452=36|1=RT001|10=117|
8=FIX.4.4|9=59|35=0|34=4|49=037|50=037B18|52=20190724-14:55:39.226|56=EXC|10=077|
8=FIX.4.4|9=189|35=AE|34=5|49=037|50=037B18|52=20190724-14:55:50.329|56=EXC|31=120|32=100|55=T24U19F|60=20190724-16:05:57.574|487=2|571=201907240954104_AE|762=AFIR|856=98|880=201907240000000004|552=1|54=2|10=236|
8=FIX.4.4|9=0347|35=AE|34=7|49=EXC|56=037|57=037B18|52=20190724-16:24:39.403|571=4S1|487=2|856=98|17=22|829=99|573=0|15=COP|880=201907240000000004|75=20190724|55=T24U19F|762=AFIR|48=27227|22=M|31=120.000|32=100|381=30000000000.000|60=20190724-16:24:39.403|64=20190724|552=1|54=2|453=3|448=037B18|447=C|452=12|448=037|447=C|452=1|448=037FCM001|447=C|452=36|1=RT001|10=121|
8=FIX.4.4|9=0049|35=0|34=8|49=EXC|56=037|52=20190724-16:25:09.000|10=186|
8=FIX.4.4|9=59|35=0|34=6|49=037|50=037B18|52=20190724-14:56:21.226|56=EXC|10=071|
8=FIX.4.4|9=0049|35=0|34=9|49=EXC|56=037|52=20190724-16:25:39.000|10=190|
8=FIX.4.4|9=59|35=0|34=7|49=037|50=037B18|52=20190724-14:56:51.225|56=EXC|10=074|
8=FIX.4.4|9=0050|35=0|34=10|49=EXC|56=037|52=20190724-16:26:09.000|10=220|
8=FIX.4.4|9=59|35=0|34=8|49=037|50=037B18|52=20190724-14:57:21.227|56=EXC|10=075|
8=FIX.4.4|9=110|35=A|34=1|49=037|50=037B18|52=20190724-15:07:09.778|56=EXC|43=N|98=0|108=30|141=Y|553=037FCM001|554=037FCM001|10=120|
8=FIX.4.4|9=0067|35=A|34=1|49=EXC|56=037|52=20190724-16:35:58.878|98=0|108=30|141=Y|10=038|
8=FIX.4.4|9=0347|35=AE|34=2|49=EXC|56=037|57=037B18|52=20190724-16:36:06.022|571=4S2|487=0|856=14|17=23|829=99|573=0|15=COP|880=201907240000000004|75=20190724|55=T24U19F|762=AFIR|48=27227|22=M|31=120.000|32=100|381=30000000000.000|60=20190724-16:36:06.022|64=20190724|552=1|54=2|453=3|448=037B18|447=C|452=12|448=037|447=C|452=1|448=037FCM001|447=C|452=36|1=RT001|10=092|
8=FIX.4.4|9=189|35=AE|34=2|49=037|50=037B18|52=20190724-15:07:35.225|56=EXC|31=120|32=100|55=T24U19F|60=20190724-16:05:57.574|487=2|571=201907241007074_AE|762=AFIR|856=98|880=201907240000000004|552=1|54=2|10=225|
8=FIX.4.4|9=0347|35=AE|34=3|49=EXC|56=037|57=037B18|52=20190724-16:36:24.302|571=4S2|487=2|856=98|17=24|829=99|573=0|15=COP|880=201907240000000004|75=20190724|55=T24U19F|762=AFIR|48=27227|22=M|31=120.000|32=100|381=30000000000.000|60=20190724-16:36:24.302|64=20190724|552=1|54=2|453=3|448=037B18|447=C|452=12|448=037|447=C|452=1|448=037FCM001|447=C|452=36|1=RT001|10=110|
8=FIX.4.4|9=0049|35=0|34=4|49=EXC|56=037|52=20190724-16:36:54.000|10=184|
8=FIX.4.4|9=59|35=0|34=3|49=037|50=037B18|52=20190724-15:08:05.751|56=EXC|10=071|
8=FIX.4.4|9=59|35=5|34=4|49=037|50=037B18|52=20190724-15:08:22.754|56=EXC|10=079|
8=FIX.4.4|9=0055|35=5|34=5|49=EXC|56=037|52=20190724-16:37:11.827|369=4|10=218|
8=FIX.4.4|9=110|35=A|34=1|49=037|50=037B18|52=20190724-16:10:06.802|56=EXC|43=N|98=0|108=30|141=Y|553=037FCM001|554=037FCM001|10=100|
8=FIX.4.4|9=0067|35=A|34=1|49=EXC|56=037|52=20190724-17:38:55.886|98=0|108=30|141=Y|10=038|
8=FIX.4.4|9=0347|35=AE|34=2|49=EXC|56=037|57=037B18|52=20190724-17:39:03.049|571=6S1|487=0|856=14|17=27|829=99|573=0|15=COP|880=201907240000000006|75=20190724|55=T24U19F|762=AFIR|48=27227|22=M|31=120.000|32=100|381=30000000000.000|60=20190724-17:39:03.049|64=20190724|552=1|54=2|453=3|448=037B18|447=C|452=12|448=037|447=C|452=1|448=037FCM001|447=C|452=36|1=RT001|10=119|
8=FIX.4.4|9=189|35=AE|34=2|49=037|50=037B18|52=20190724-16:10:32.502|56=EXC|31=120|32=100|55=T24U19F|60=20190724-17:36:51.603|487=2|571=201907241110042_AE|762=AFIR|856=97|880=201907240000000006|552=1|54=2|10=198|
8=FIX.4.4|9=0347|35=AE|34=3|49=EXC|56=037|57=037B18|52=20190724-17:39:21.567|571=6S1|487=2|856=99|17=28|829=99|573=0|15=COP|880=201907240000000006|75=20190724|55=T24U19F|762=AFIR|48=27227|22=M|31=120.000|32=100|381=30000000000.000|60=20190724-17:39:21.567|64=20190724|552=1|54=2|453=3|448=037B18|447=C|452=12|448=037|447=C|452=1|448=037FCM001|447=C|452=36|1=RT001|10=146|
8=FIX.4.4|9=0457|35=8|34=4|49=EXC|56=037|57=037B18|52=20190724-17:39:33.912|11=15639844770424|17=29|37=0|150=H|1080=20190724-000000000006.00|1081=6|453=5|448=037B18|447=C|452=12|448=037|447=C|452=1|448=029B17|447=C|452=37|448=029|447=C|452=17|448=037FCM001|447=C|452=36|55=T24U19F|762=AFIR|48=27227|22=M|6=120.000|14=100|31=120.000|32=100|38=100|39=2|54=2|60=20190724-17:39:33.912|75=20190724|63=1|64=20190724|151=0|1=RT001|381=30000000000.000|880=201907240000000006|828=99|10=073|
8=FIX.4.4|9=59|35=0|34=3|49=037|50=037B18|52=20190724-16:11:02.768|56=EXC|10=071|
8=FIX.4.4|9=0049|35=0|34=5|49=EXC|56=037|52=20190724-17:40:03.000|10=175|
8=FIX.4.4|9=0347|35=AE|34=6|49=EXC|56=037|57=037B18|52=20190724-17:40:06.304|571=7S1|487=0|856=14|17=30|829=99|573=0|15=COP|880=201907240000000007|75=20190724|55=T24U19F|762=AFIR|48=27227|22=M|31=120.000|32=100|381=30000000000.000|60=20190724-17:40:06.304|64=20190724|552=1|54=2|453=3|448=037B18|447=C|452=12|448=037|447=C|452=1|448=037FCM001|447=C|452=36|1=RT001|10=097|
8=FIX.4.4|9=59|35=0|34=4|49=037|50=037B18|52=20190724-16:11:32.769|56=EXC|10=076|
8=FIX.4.4|9=189|35=AE|34=5|49=037|50=037B18|52=20190724-16:11:43.229|56=EXC|31=120|32=100|55=T24U19F|60=20190724-17:37:00.691|487=2|571=201907241110044_AE|762=AFIR|856=98|880=201907240000000007|552=1|54=2|10=216|
8=FIX.4.4|9=0347|35=AE|34=7|49=EXC|56=037|57=037B18|52=20190724-17:40:32.289|571=7S1|487=2|856=98|17=31|829=99|573=0|15=COP|880=201907240000000007|75=20190724|55=T24U19F|762=AFIR|48=27227|22=M|31=120.000|32=100|381=30000000000.000|60=20190724-17:40:32.289|64=20190724|552=1|54=2|453=3|448=037B18|447=C|452=12|448=037|447=C|452=1|448=037FCM001|447=C|452=36|1=RT001|10=135|
8=FIX.4.4|9=0049|35=0|34=8|49=EXC|56=037|52=20190724-17:41:02.000|10=178|
8=FIX.4.4|9=59|35=0|34=6|49=037|50=037B18|52=20190724-16:12:13.769|56=EXC|10=078|
8=FIX.4.4|9=59|35=5|34=7|49=037|50=037B18|52=20190724-16:12:30.778|56=EXC|10=083|
8=FIX.4.4|9=0055|35=5|34=9|49=EXC|56=037|52=20190724-17:41:19.837|369=7|10=230|
8=FIX.4.4|9=110|35=A|34=1|49=037|50=037B18|52=20190724-20:44:55.050|56=EXC|43=N|98=0|108=30|141=Y|553=037FCM001|554=037FCM001|10=101|
8=FIX.4.4|9=0067|35=A|34=1|49=EXC|56=037|52=20190724-14:39:48.144|98=0|108=30|141=Y|10=025|
8=FIX.4.4|9=0346|35=AE|34=2|49=EXC|56=037|57=037B18|52=20190724-14:39:55.426|571=1S1|487=0|856=14|17=3|829=99|573=0|15=COP|880=201907240000000001|75=20190724|55=T24U19F|762=AFIR|48=27227|22=M|31=120.000|32=100|381=30000000000.000|60=20190724-14:39:55.426|64=20190724|552=1|54=2|453=3|448=037B18|447=C|452=12|448=037|447=C|452=1|448=037FCM001|447=C|452=36|1=RT001|10=060|
8=FIX.4.4|9=189|35=AE|34=2|49=037|50=037B18|52=20190724-20:45:20.717|56=EXC|31=120|32=100|55=T24U19F|60=20190724-14:34:22.074|487=2|571=201907241544482_AE|762=AFIR|856=97|880=201907240000000001|552=1|54=2|10=215|
8=FIX.4.4|9=0346|35=AE|34=3|49=EXC|56=037|57=037B18|52=20190724-14:40:13.780|571=1S1|487=2|856=99|17=4|829=99|573=0|15=COP|880=201907240000000001|75=20190724|55=T24U19F|762=AFIR|48=27227|22=M|31=120.000|32=100|381=30000000000.000|60=20190724-14:40:13.780|64=20190724|552=1|54=2|453=3|448=037B18|447=C|452=12|448=037|447=C|452=1|448=037FCM001|447=C|452=36|1=RT001|10=055|
8=FIX.4.4|9=0456|35=8|34=4|49=EXC|56=037|57=037B18|52=20190724-14:40:26.544|11=15640007655656|17=5|37=0|150=H|1080=20190724-000000000001.00|1081=6|453=5|448=037B18|447=C|452=12|448=037|447=C|452=1|448=029B17|447=C|452=37|448=029|447=C|452=17|448=037FCM001|447=C|452=36|55=T24U19F|762=AFIR|48=27227|22=M|6=120.000|14=100|31=120.000|32=100|38=100|39=2|54=2|60=20190724-14:40:26.544|75=20190724|63=1|64=20190724|151=0|1=RT001|381=30000000000.000|880=201907240000000001|828=99|10=240|
8=FIX.4.4|9=59|35=0|34=3|49=037|50=037B18|52=20190724-20:45:50.932|56=EXC|10=069|
8=FIX.4.4|9=0049|35=0|34=5|49=EXC|56=037|52=20190724-14:40:56.000|10=180|
8=FIX.4.4|9=0346|35=AE|34=6|49=EXC|56=037|57=037B18|52=20190724-14:40:58.956|571=2S1|487=0|856=14|17=6|829=99|573=0|15=COP|880=201907240000000002|75=20190724|55=T24U19F|762=AFIR|48=27227|22=M|31=120.000|32=100|381=30000000000.000|60=20190724-14:40:58.956|64=20190724|552=1|54=2|453=3|448=037B18|447=C|452=12|448=037|447=C|452=1|448=037FCM001|447=C|452=36|1=RT001|10=075|
8=FIX.4.4|9=59|35=0|34=4|49=037|50=037B18|52=20190724-20:46:20.932|56=EXC|10=068|
8=FIX.4.4|9=189|35=AE|34=5|49=037|50=037B18|52=20190724-20:46:32.076|56=EXC|31=120|32=100|55=T24U19F|60=20190724-14:34:36.563|487=2|571=201907241544484_AE|762=AFIR|856=98|880=201907240000000002|552=1|54=2|10=232|
8=FIX.4.4|9=0346|35=AE|34=7|49=EXC|56=037|57=037B18|52=20190724-14:41:25.127|571=2S1|487=2|856=98|17=7|829=99|573=0|15=COP|880=201907240000000002|75=20190724|55=T24U19F|762=AFIR|48=27227|22=M|31=120.000|32=100|381=30000000000.000|60=20190724-14:41:25.127|64=20190724|552=1|54=2|453=3|448=037B18|447=C|452=12|448=037|447=C|452=1|448=037FCM001|447=C|452=36|1=RT001|10=061|
8=FIX.4.4|9=0049|35=0|34=8|49=EXC|56=037|52=20190724-14:41:55.000|10=183|
8=FIX.4.4|9=59|35=0|34=6|49=037|50=037B18|52=20190724-20:47:02.920|56=EXC|10=068|
8=FIX.4.4|9=59|35=5|34=7|49=037|50=037B18|52=20190724-20:47:19.932|56=EXC|10=085|
8=FIX.4.4|9=0055|35=5|34=9|49=EXC|56=037|52=20190724-14:42:12.993|369=7|10=224|
8=FIX.4.4|9=110|35=A|34=1|49=037|50=037B18|52=20190724-23:15:49.053|56=EXC|43=N|98=0|108=30|141=Y|553=037FCM001|554=037FCM001|10=108|
8=FIX.4.4|9=0067|35=A|34=1|49=EXC|56=037|52=20190724-17:10:42.128|98=0|108=30|141=Y|10=013|
8=FIX.4.4|9=0347|35=AE|34=2|49=EXC|56=037|57=037B18|52=20190724-17:10:49.312|571=3S1|487=0|856=14|17=10|829=99|573=0|15=COP|880=201907240000000003|75=20190724|55=T24U19F|762=AFIR|48=27227|22=M|31=120.000|32=100|381=30000000000.000|60=20190724-17:10:49.312|64=20190724|552=1|54=2|453=3|448=037B18|447=C|452=12|448=037|447=C|452=1|448=037FCM001|447=C|452=36|1=RT001|10=089|
8=FIX.4.4|9=59|35=0|34=2|49=037|50=037B18|52=20190724-23:16:20.015|56=EXC|10=058|
8=FIX.4.4|9=0049|35=0|34=3|49=EXC|56=037|52=20190724-17:11:19.000|10=178|
8=FIX.4.4|9=59|35=0|34=3|49=037|50=037B18|52=20190724-23:16:50.019|56=EXC|10=066|
8=FIX.4.4|9=0049|35=0|34=4|49=EXC|56=037|52=20190724-17:11:49.000|10=182|
8=FIX.4.4|9=59|35=0|34=4|49=037|50=037B18|52=20190724-23:17:20.016|56=EXC|10=062|
8=FIX.4.4|9=0049|35=0|34=5|49=EXC|56=037|52=20190724-17:12:19.000|10=181|
8=FIX.4.4|9=59|35=0|34=5|49=037|50=037B18|52=20190724-23:17:50.016|56=EXC|10=066|
8=FIX.4.4|9=0049|35=0|34=6|49=EXC|56=037|52=20190724-17:12:49.000|10=185|
8=FIX.4.4|9=59|35=0|34=6|49=037|50=037B18|52=20190724-23:18:20.017|56=EXC|10=066|
8=FIX.4.4|9=0049|35=0|34=7|49=EXC|56=037|52=20190724-17:13:19.000|10=184|
8=FIX.4.4|9=59|35=0|34=7|49=037|50=037B18|52=20190724-23:18:50.018|56=EXC|10=071|
8=FIX.4.4|9=0049|35=0|34=8|49=EXC|56=037|52=20190724-17:13:49.000|10=188|
