8=FIX.4.4|9=110|35=A|34=1|49=010|50=010BWN|52=20190705-20:43:25.855|56=EXC|43=N|98=0|108=30|141=Y|553=010FCE003|554=010FCE003|10=121|
8=FIX.4.4|9=0067|35=A|34=1|49=EXC|56=010|52=20190705-20:43:56.161|98=0|108=30|141=Y|10=005|
8=FIX.4.4|9=0049|35=0|34=2|49=EXC|56=010|52=20190705-20:44:26.000|10=165|
8=FIX.4.4|9=59|35=0|34=2|49=010|50=010BWN|52=20190705-20:43:56.687|56=EXC|10=120|
8=FIX.4.4|9=0049|35=0|34=3|49=EXC|56=010|52=20190705-20:44:56.000|10=169|
8=FIX.4.4|9=59|35=0|34=3|49=010|50=010BWN|52=20190705-20:44:26.686|56=EXC|10=118|
8=FIX.4.4|9=0049|35=0|34=4|49=EXC|56=010|52=20190705-20:45:26.000|10=168|
8=FIX.4.4|9=59|35=0|34=4|49=010|50=010BWN|52=20190705-20:44:56.686|56=EXC|10=122|
8=FIX.4.4|9=0049|35=0|34=5|49=EXC|56=010|52=20190705-20:45:56.000|10=172|
8=FIX.4.4|9=59|35=0|34=5|49=010|50=010BWN|52=20190705-20:45:26.691|56=EXC|10=117|
8=FIX.4.4|9=0049|35=0|34=6|49=EXC|56=010|52=20190705-20:46:26.000|10=171|
8=FIX.4.4|9=59|35=0|34=6|49=010|50=010BWN|52=20190705-20:45:56.686|56=EXC|10=125|
8=FIX.4.4|9=0049|35=0|34=7|49=EXC|56=010|52=20190705-20:46:56.000|10=175|
8=FIX.4.4|9=59|35=0|34=7|49=010|50=010BWN|52=20190705-20:46:26.686|56=EXC|10=124|
8=FIX.4.4|9=82|35=A|34=1|49=010|50=010BWN|52=20190709-15:38:37.341|56=EXC|43=N|98=0|108=30|141=Y|10=187|
8=FIX.4.4|9=82|35=A|34=1|49=010|50=010BWN|52=20190709-15:44:17.299|56=EXC|43=N|98=0|108=30|141=Y|10=194|
