<<<<<<< HEAD
8=FIX.4.4|9=82|35=A|34=1|49=072|50=072X01|52=20190711-19:05:54.335|56=EXC|43=N|98=0|108=30|141=Y|10=150|
8=FIX.4.4|9=82|35=A|34=1|49=072|50=072X01|52=20190711-19:06:52.364|56=EXC|43=N|98=0|108=30|141=Y|10=151|
8=FIX.4.4|9=82|35=A|34=1|49=072|50=072X01|52=20190711-19:07:52.279|56=EXC|43=N|98=0|108=30|141=Y|10=157|
8=FIX.4.4|9=110|35=A|34=1|49=072|50=072X01|52=20190711-19:08:53.382|56=EXC|43=N|98=0|108=30|141=Y|553=072FCM001|554=072FCM001|10=121|
8=FIX.4.4|9=0067|35=A|34=1|49=EXC|56=072|52=20190711-19:09:30.219|98=0|108=30|141=Y|10=016|
8=FIX.4.4|9=110|35=A|34=1|49=072|50=072X01|52=20190711-19:09:36.143|56=EXC|43=N|98=0|108=30|141=Y|553=072FCM001|554=072FCM001|10=118|
8=FIX.4.4|9=0067|35=A|34=1|49=EXC|56=072|52=20190711-19:10:12.991|98=0|108=30|141=Y|10=015|
8=FIX.4.4|9=110|35=A|34=1|49=072|50=072X01|52=20190711-19:26:44.074|56=EXC|43=N|98=0|108=30|141=Y|553=072FCM001|554=072FCM001|10=119|
8=FIX.4.4|9=0067|35=A|34=1|49=EXC|56=072|52=20190711-19:27:20.929|98=0|108=30|141=Y|10=023|
8=FIX.4.4|9=162|35=R|34=2|49=072|50=072X01|52=20190711-19:26:50.990|56=EXC|131=201907111426404_R|146=1|55=T24Q19F|22=M|762=FUIR|54=1|38=200|1=DP004|453=1|448=071X01|447=C|452=37|10=216|
8=FIX.4.4|9=0244|35=AI|34=2|49=EXC|56=072|57=072X01|52=20190711-19:27:27.831|131=201907111426404_R|453=4|448=072X01|447=C|452=12|448=072|447=C|452=1|448=072FCM001|447=C|452=36|448=071X01|447=C|452=37|55=T24Q19F|762=FUIR|48=26623|22=M|54=1|1=DP004|38=200|297=10|10=155|
8=FIX.4.4|9=0049|35=0|34=3|49=EXC|56=072|52=20190711-19:27:57.000|10=184|
8=FIX.4.4|9=59|35=0|34=3|49=072|50=072X01|52=20190711-19:27:21.885|56=EXC|10=090|
8=FIX.4.4|9=0049|35=0|34=4|49=EXC|56=072|52=20190711-19:28:27.000|10=183|
8=FIX.4.4|9=59|35=0|34=4|49=072|50=072X01|52=20190711-19:27:51.884|56=EXC|10=093|
8=FIX.4.4|9=0049|35=0|34=5|49=EXC|56=072|52=20190711-19:28:57.000|10=187|
8=FIX.4.4|9=59|35=0|34=5|49=072|50=072X01|52=20190711-19:28:21.881|56=EXC|10=089|
8=FIX.4.4|9=110|35=A|34=1|49=072|50=072X01|52=20190711-19:39:14.953|56=EXC|43=N|98=0|108=30|141=Y|553=072FCM001|554=072FCM001|10=126|
8=FIX.4.4|9=0067|35=A|34=1|49=EXC|56=072|52=20190711-19:39:51.813|98=0|108=30|141=Y|10=022|
8=FIX.4.4|9=162|35=R|34=2|49=072|50=072X01|52=20190711-19:39:22.057|56=EXC|131=201907111439114_R|146=1|55=T24Q19F|22=M|762=FUIR|54=1|38=200|1=DP004|453=1|448=073X01|447=C|452=37|10=217|
8=FIX.4.4|9=0244|35=AI|34=2|49=EXC|56=072|57=072X01|52=20190711-19:39:58.894|131=201907111439114_R|453=4|448=072X01|447=C|452=12|448=072|447=C|452=1|448=072FCM001|447=C|452=36|448=073X01|447=C|452=37|55=T24Q19F|762=FUIR|48=26623|22=M|54=1|1=DP004|38=200|297=10|10=175|
8=FIX.4.4|9=0049|35=0|34=3|49=EXC|56=072|52=20190711-19:40:28.000|10=177|
8=FIX.4.4|9=59|35=0|34=3|49=072|50=072X01|52=20190711-19:39:52.935|56=EXC|10=093|
8=FIX.4.4|9=59|35=5|34=4|49=072|50=072X01|52=20190711-19:40:07.930|56=EXC|10=086|
8=FIX.4.4|9=0049|35=5|34=4|49=EXC|56=072|52=20190711-19:40:44.776|10=201|
8=FIX.4.4|9=110|35=A|34=1|49=072|50=072X01|52=20190711-19:49:34.349|56=EXC|43=N|98=0|108=30|141=Y|553=072FCM001|554=072FCM001|10=128|
8=FIX.4.4|9=0067|35=A|34=1|49=EXC|56=072|52=20190711-19:50:11.217|98=0|108=30|141=Y|10=009|
8=FIX.4.4|9=110|35=A|34=1|49=072|50=072X01|52=20190711-19:51:02.809|56=EXC|43=N|98=0|108=30|141=Y|553=072FCM001|554=072FCM001|10=117|
8=FIX.4.4|9=0067|35=A|34=1|49=EXC|56=072|52=20190711-19:51:39.671|98=0|108=30|141=Y|10=024|
8=FIX.4.4|9=158|35=R|34=2|49=072|50=072X01|52=20190711-19:51:09.955|56=EXC|131=201907111450594_R|146=1|55=   |22=M|762=FUIR|54=1|38=200|1=DP004|453=1|448=073X01|447=C|452=37|10=142|
8=FIX.4.4|9=0141|35=AG|34=2|49=EXC|56=072|57=072X01|52=20190711-19:51:46.800|131=201907111450594_R|658=1|146=1|55=   |762=FUIR|22=M|58=(1479): Unknown symbol|10=131|
8=FIX.4.4|9=161|35=R|34=3|49=072|50=072X01|52=20190711-19:51:25.019|56=EXC|131=201907111450595_R|146=1|55=T24Q19F|22=M|762=FUIR|54=1|38=90|1=DP004|453=1|448=072X01|447=C|452=37|10=176|
8=FIX.4.4|9=0243|35=AI|34=3|49=EXC|56=072|57=072X01|52=20190711-19:52:01.875|131=201907111450595_R|453=4|448=072X01|447=C|452=12|448=072|447=C|452=1|448=072FCM001|447=C|452=36|448=072X01|447=C|452=37|55=T24Q19F|762=FUIR|48=26623|22=M|54=1|1=DP004|38=90|297=10|10=121|
8=FIX.4.4|9=0213|35=R|34=4|49=EXC|56=072|57=072X01|52=20190711-19:52:01.875|131=20190711-000000000011.00|146=1|55=T24Q19F|762=FUIR|48=26623|22=M|54=1|38=90|453=3|448=072X01|447=C|452=12|448=072|447=C|452=1|448=072X01|447=C|452=37|10=015|
8=FIX.4.4|9=0049|35=0|34=5|49=EXC|56=072|52=20190711-19:52:31.000|10=176|
8=FIX.4.4|9=59|35=0|34=4|49=072|50=072X01|52=20190711-19:51:55.131|56=EXC|10=079|
8=FIX.4.4|9=110|35=A|34=1|49=072|50=072X01|52=20190711-19:56:25.809|56=EXC|43=N|98=0|108=30|141=Y|553=072FCM001|554=072FCM001|10=127|
8=FIX.4.4|9=0067|35=A|34=1|49=EXC|56=072|52=20190711-19:57:02.680|98=0|108=30|141=Y|10=020|
8=FIX.4.4|9=161|35=R|34=2|49=072|50=072X01|52=20190711-19:56:32.814|56=EXC|131=201907111456225_R|146=1|55=T24Q19F|22=M|762=FUIR|54=1|38=90|1=DP004|453=1|448=073X01|447=C|452=37|10=178|
8=FIX.4.4|9=0243|35=AI|34=2|49=EXC|56=072|57=072X01|52=20190711-19:57:09.662|131=201907111456225_R|453=4|448=072X01|447=C|452=12|448=072|447=C|452=1|448=072FCM001|447=C|452=36|448=073X01|447=C|452=37|55=T24Q19F|762=FUIR|48=26623|22=M|54=1|1=DP004|38=90|297=10|10=124|
8=FIX.4.4|9=0049|35=0|34=3|49=EXC|56=072|52=20190711-19:57:39.000|10=187|
8=FIX.4.4|9=59|35=0|34=3|49=072|50=072X01|52=20190711-19:57:03.707|56=EXC|10=086|
8=FIX.4.4|9=110|35=A|34=1|49=072|50=072X01|52=20190711-20:05:40.471|56=EXC|43=N|98=0|108=30|141=Y|553=072FCM001|554=072FCM001|10=105|
8=FIX.4.4|9=0067|35=A|34=1|49=EXC|56=072|52=20190711-20:06:17.352|98=0|108=30|141=Y|10=008|
8=FIX.4.4|9=161|35=R|34=2|49=072|50=072X01|52=20190711-20:05:47.486|56=EXC|131=201907111505375_R|146=1|55=CPIH17F|22=M|762=FUIR|54=1|38=90|1=DP004|453=1|448=073X01|447=C|452=37|10=199|
8=FIX.4.4|9=0145|35=AG|34=2|49=EXC|56=072|57=072X01|52=20190711-20:06:24.339|131=201907111505375_R|658=1|146=1|55=CPIH17F|762=FUIR|22=M|58=(1479): Unknown symbol|10=242|
8=FIX.4.4|9=59|35=5|34=3|49=072|50=072X01|52=20190711-20:06:07.591|56=EXC|10=082|
8=FIX.4.4|9=0049|35=5|34=3|49=EXC|56=072|52=20190711-20:06:44.454|10=187|
8=FIX.4.4|9=110|35=A|34=1|49=072|50=072X01|52=20190711-20:07:49.323|56=EXC|43=N|98=0|108=30|141=Y|553=072FCM001|554=072FCM001|10=112|
8=FIX.4.4|9=0067|35=A|34=1|49=EXC|56=072|52=20190711-20:08:26.210|98=0|108=30|141=Y|10=003|
8=FIX.4.4|9=162|35=R|34=2|49=072|50=072X01|52=20190711-20:07:56.360|56=EXC|131=201907111507456_R|146=1|55=T24Q19F|22=M|762=FUIR|54=1|38=110|1=DP004|453=1|448=073X01|447=C|452=37|10=213|
8=FIX.4.4|9=0244|35=AI|34=2|49=EXC|56=072|57=072X01|52=20190711-20:08:33.214|131=201907111507456_R|453=4|448=072X01|447=C|452=12|448=072|447=C|452=1|448=072FCM001|447=C|452=36|448=073X01|447=C|452=37|55=T24Q19F|762=FUIR|48=26623|22=M|54=1|1=DP004|38=110|297=10|10=147|
8=FIX.4.4|9=0049|35=0|34=3|49=EXC|56=072|52=20190711-20:09:03.000|10=167|
8=FIX.4.4|9=59|35=0|34=3|49=072|50=072X01|52=20190711-20:08:27.237|56=EXC|10=078|
8=FIX.4.4|9=110|35=A|34=1|49=072|50=072X01|52=20190711-20:10:14.205|56=EXC|43=N|98=0|108=30|141=Y|553=072FCM001|554=072FCM001|10=097|
8=FIX.4.4|9=0067|35=A|34=1|49=EXC|56=072|52=20190711-20:10:51.091|98=0|108=30|141=Y|10=001|
8=FIX.4.4|9=152|35=R|34=2|49=072|50=072X01|52=20190711-20:10:21.411|56=EXC|131=201907111510107_R|146=1|55=T24Q19F|22=M|762=FUIR|54=1|38=0|453=1|448=073X01|447=C|452=37|10=189|
8=FIX.4.4|9=0147|35=AG|34=2|49=EXC|56=072|57=072X01|52=20190711-20:10:58.273|131=201907111510107_R|658=99|146=1|55=T24Q19F|762=FUIR|22=M|58=(333): Invalid quote Id|10=018|
8=FIX.4.4|9=59|35=5|34=3|49=072|50=072X01|52=20190711-20:10:41.500|56=EXC|10=065|
8=FIX.4.4|9=0049|35=5|34=3|49=EXC|56=072|52=20190711-20:11:18.378|10=189|
8=FIX.4.4|9=110|35=A|34=1|49=072|50=072X01|52=20190711-22:37:54.684|56=EXC|43=N|98=0|108=30|141=Y|553=072FCM001|554=072FCM001|10=123|
8=FIX.4.4|9=0067|35=A|34=1|49=EXC|56=072|52=20190711-22:43:55.947|98=0|108=30|141=Y|10=023|
8=FIX.4.4|9=110|35=A|34=1|49=072|50=072X01|52=20190711-22:40:54.427|56=EXC|43=N|98=0|108=30|141=Y|553=072FCM001|554=072FCM001|10=112|
8=FIX.4.4|9=0067|35=A|34=1|49=EXC|56=072|52=20190711-22:46:55.701|98=0|108=30|141=Y|10=014|
8=FIX.4.4|9=0049|35=0|34=2|49=EXC|56=072|52=20190711-22:47:25.000|10=174|
8=FIX.4.4|9=59|35=0|34=2|49=072|50=072X01|52=20190711-22:41:25.319|56=EXC|10=075|
8=FIX.4.4|9=110|35=A|34=1|49=072|50=072X01|52=20190711-23:06:02.133|56=EXC|43=N|98=0|108=30|141=Y|553=072FCM001|554=072FCM001|10=102|
8=FIX.4.4|9=0067|35=A|34=1|49=EXC|56=072|52=20190711-23:12:03.431|98=0|108=30|141=Y|10=001|
8=FIX.4.4|9=110|35=A|34=1|49=072|50=072X01|52=20190711-23:09:29.725|56=EXC|43=N|98=0|108=30|141=Y|553=072FCM001|554=072FCM001|10=121|
8=FIX.4.4|9=0067|35=A|34=1|49=EXC|56=072|52=20190711-23:15:31.008|98=0|108=30|141=Y|10=005|
8=FIX.4.4|9=110|35=A|34=1|49=072|50=072X01|52=20190711-23:16:56.971|56=EXC|43=N|98=0|108=30|141=Y|553=072FCM001|554=072FCM001|10=122|
8=FIX.4.4|9=0067|35=A|34=1|49=EXC|56=072|52=20190711-23:22:58.256|98=0|108=30|141=Y|10=017|
8=FIX.4.4|9=110|35=A|34=1|49=072|50=072X01|52=20190711-23:20:57.924|56=EXC|43=N|98=0|108=30|141=Y|553=072FCM001|554=072FCM001|10=116|
8=FIX.4.4|9=0067|35=A|34=1|49=EXC|56=072|52=20190711-23:26:59.225|98=0|108=30|141=Y|10=018|
8=FIX.4.4|9=110|35=A|34=1|49=072|50=072X01|52=20190711-23:38:30.586|56=EXC|43=N|98=0|108=30|141=Y|553=072FCM001|554=072FCM001|10=120|
8=FIX.4.4|9=0067|35=A|34=1|49=EXC|56=072|52=20190711-23:44:31.882|98=0|108=30|141=Y|10=017|
8=FIX.4.4|9=110|35=A|34=1|49=072|50=072X01|52=20190711-23:45:03.615|56=EXC|43=N|98=0|108=30|141=Y|553=072FCM001|554=072FCM001|10=111|
8=FIX.4.4|9=0067|35=A|34=1|49=EXC|56=072|52=20190711-23:51:04.922|98=0|108=30|141=Y|10=010|
8=FIX.4.4|9=110|35=A|34=1|49=072|50=072X01|52=20190711-23:50:30.242|56=EXC|43=N|98=0|108=30|141=Y|553=072FCM001|554=072FCM001|10=103|
8=FIX.4.4|9=0067|35=A|34=1|49=EXC|56=072|52=20190711-23:56:31.567|98=0|108=30|141=Y|10=020|
8=FIX.4.4|9=110|35=A|34=1|49=072|50=072X01|52=20190712-00:00:19.795|56=EXC|43=N|98=0|108=30|141=Y|553=072FCM001|554=072FCM001|10=114|
8=FIX.4.4|9=0067|35=A|34=1|49=EXC|56=072|52=20190712-00:06:21.182|98=0|108=30|141=Y|10=003|
8=FIX.4.4|9=110|35=A|34=1|49=072|50=072X01|52=20190712-15:10:48.973|56=EXC|43=N|98=0|108=30|141=Y|553=072FCM001|554=072FCM001|10=121|
8=FIX.4.4|9=0067|35=A|34=1|49=EXC|56=072|52=20190712-15:52:03.984|98=0|108=30|141=Y|10=020|
8=FIX.4.4|9=110|35=A|34=1|49=072|50=072X01|52=20190712-15:11:37.282|56=EXC|43=N|98=0|108=30|141=Y|553=072FCM001|554=072FCM001|10=113|
8=FIX.4.4|9=0067|35=A|34=1|49=EXC|56=072|52=20190712-15:52:52.307|98=0|108=30|141=Y|10=013|
8=FIX.4.4|9=110|35=A|34=1|49=072|50=072X01|52=20190712-15:16:16.203|56=EXC|43=N|98=0|108=30|141=Y|553=072FCM001|554=072FCM001|10=108|
8=FIX.4.4|9=0067|35=A|34=1|49=EXC|56=072|52=20190712-15:57:31.223|98=0|108=30|141=Y|10=012|
8=FIX.4.4|9=110|35=A|34=1|49=072|50=072X01|52=20190712-15:16:57.198|56=EXC|43=N|98=0|108=30|141=Y|553=072FCM001|554=072FCM001|10=126|
8=FIX.4.4|9=0067|35=A|34=1|49=EXC|56=072|52=20190712-15:58:12.213|98=0|108=30|141=Y|10=011|
8=FIX.4.4|9=110|35=A|34=1|49=072|50=072X01|52=20190712-15:22:33.456|56=EXC|43=N|98=0|108=30|141=Y|553=072FCM001|554=072FCM001|10=114|
8=FIX.4.4|9=0067|35=A|34=1|49=EXC|56=072|52=20190712-16:03:48.482|98=0|108=30|141=Y|10=019|
8=FIX.4.4|9=0049|35=0|34=2|49=EXC|56=072|52=20190712-16:04:18.000|10=173|
8=FIX.4.4|9=59|35=0|34=2|49=072|50=072X01|52=20190712-15:23:04.431|56=EXC|10=070|
8=FIX.4.4|9=110|35=A|34=1|49=072|50=072X01|52=20190712-15:24:19.609|56=EXC|43=N|98=0|108=30|141=Y|553=072FCM001|554=072FCM001|10=120|
8=FIX.4.4|9=0067|35=A|34=1|49=EXC|56=072|52=20190712-16:05:34.649|98=0|108=30|141=Y|10=021|
8=FIX.4.4|9=110|35=A|34=1|49=072|50=072X01|52=20190712-15:25:07.174|56=EXC|43=N|98=0|108=30|141=Y|553=072FCM001|554=072FCM001|10=115|
8=FIX.4.4|9=0067|35=A|34=1|49=EXC|56=072|52=20190712-16:06:22.219|98=0|108=30|141=Y|10=012|
8=FIX.4.4|9=0049|35=0|34=2|49=EXC|56=072|52=20190712-16:06:52.000|10=173|
8=FIX.4.4|9=59|35=0|34=2|49=072|50=072X01|52=20190712-15:25:37.918|56=EXC|10=088|
8=FIX.4.4|9=110|35=A|34=1|49=072|50=072X01|52=20190712-15:30:15.971|56=EXC|43=N|98=0|108=30|141=Y|553=072FCM001|554=072FCM001|10=115|
8=FIX.4.4|9=0067|35=A|34=1|49=EXC|56=072|52=20190712-16:11:31.017|98=0|108=30|141=Y|10=004|
8=FIX.4.4|9=0049|35=0|34=2|49=EXC|56=072|52=20190712-16:12:01.000|10=164|
8=FIX.4.4|9=59|35=0|34=2|49=072|50=072X01|52=20190712-15:30:46.007|56=EXC|10=073|
8=FIX.4.4|9=110|35=A|34=1|49=072|50=072X01|52=20190712-16:34:45.858|56=EXC|43=N|98=0|108=30|141=Y|553=072FCM001|554=072FCM001|10=127|
8=FIX.4.4|9=0067|35=A|34=1|49=EXC|56=072|52=20190712-17:16:00.927|98=0|108=30|141=Y|10=016|
8=FIX.4.4|9=110|35=A|34=1|49=072|50=072X01|52=20190712-16:44:17.682|56=EXC|43=N|98=0|108=30|141=Y|553=072FCM001|554=072FCM001|10=122|
8=FIX.4.4|9=0067|35=A|34=1|49=EXC|56=072|52=20190712-17:25:32.762|98=0|108=30|141=Y|10=018|
8=FIX.4.4|9=0049|35=0|34=2|49=EXC|56=072|52=20190712-17:26:02.000|10=171|
8=FIX.4.4|9=59|35=0|34=2|49=072|50=072X01|52=20190712-16:44:48.550|56=EXC|10=084|
8=FIX.4.4|9=110|35=A|34=1|49=072|50=072X01|52=20190712-16:49:07.078|56=EXC|43=N|98=0|108=30|141=Y|553=072FCM001|554=072FCM001|10=125|
8=FIX.4.4|9=0067|35=A|34=1|49=EXC|56=072|52=20190712-17:30:22.168|98=0|108=30|141=Y|10=013|
8=FIX.4.4|9=0049|35=0|34=2|49=EXC|56=072|52=20190712-17:30:52.000|10=171|
8=FIX.4.4|9=59|35=0|34=2|49=072|50=072X01|52=20190712-16:49:37.890|56=EXC|10=094|
8=FIX.4.4|9=59|35=5|34=3|49=072|50=072X01|52=20190712-16:49:49.881|56=EXC|10=103|
8=FIX.4.4|9=0049|35=5|34=3|49=EXC|56=072|52=20190712-17:31:04.941|10=189|
8=FIX.4.4|9=59|35=5|34=4|49=072|50=072X01|52=20190712-16:49:49.881|56=EXC|10=104|
8=FIX.4.4|9=110|35=A|34=1|49=072|50=072X01|52=20190712-19:50:07.615|56=EXC|43=N|98=0|108=30|141=Y|553=072FCM001|554=072FCM001|10=117|
8=FIX.4.4|9=0067|35=A|34=1|49=EXC|56=072|52=20190712-20:31:22.844|98=0|108=30|141=Y|10=009|
8=FIX.4.4|9=110|35=A|34=1|49=072|50=072X01|52=20190715-13:51:20.707|56=EXC|43=N|98=0|108=30|141=Y|553=072FCM001|554=072FCM001|10=112|
8=FIX.4.4|9=0067|35=A|34=1|49=EXC|56=072|52=20190716-15:54:53.929|98=0|108=30|141=Y|10=030|
8=FIX.4.4|9=110|35=A|34=1|49=072|50=072X01|52=20190715-15:42:11.471|56=EXC|43=N|98=0|108=30|141=Y|553=072FCM001|554=072FCM001|10=112|
8=FIX.4.4|9=0067|35=A|34=1|49=EXC|56=072|52=20190716-16:38:44.886|98=0|108=30|141=Y|10=035|
8=FIX.4.4|9=0049|35=0|34=2|49=EXC|56=072|52=20190716-16:39:14.000|10=181|
8=FIX.4.4|9=59|35=0|34=2|49=072|50=072X01|52=20190715-15:42:42.359|56=EXC|10=085|
8=FIX.4.4|9=110|35=A|34=1|49=072|50=072X01|52=20190715-15:44:03.038|56=EXC|43=N|98=0|108=30|141=Y|553=072FCM001|554=072FCM001|10=114|
8=FIX.4.4|9=0067|35=A|34=1|49=EXC|56=072|52=20190716-16:40:36.336|98=0|108=30|141=Y|10=019|
8=FIX.4.4|9=110|35=A|34=1|49=072|50=072X01|52=20190715-15:46:47.004|56=EXC|43=N|98=0|108=30|141=Y|553=072FCM001|554=072FCM001|10=117|
8=FIX.4.4|9=0067|35=A|34=1|49=EXC|56=072|52=20190716-16:43:20.311|98=0|108=30|141=Y|10=008|
8=FIX.4.4|9=0049|35=0|34=2|49=EXC|56=072|52=20190716-16:43:50.000|10=176|
8=FIX.4.4|9=59|35=0|34=2|49=072|50=072X01|52=20190715-15:47:17.884|56=EXC|10=095|
8=FIX.4.4|9=0049|35=0|34=3|49=EXC|56=072|52=20190716-16:44:20.000|10=175|
8=FIX.4.4|9=59|35=0|34=3|49=072|50=072X01|52=20190715-15:47:47.879|56=EXC|10=103|
=======
8=FIX.4.4|9=110|35=A|34=1|49=072|50=072X01|52=20190712-20:56:32.043|56=EXC|43=N|98=0|108=30|141=Y|553=072FCM001|554=072FCM001|10=108|
8=FIX.4.4|9=0067|35=A|34=1|49=EXC|56=072|52=20190712-21:31:45.125|98=0|108=30|141=Y|10=007|
8=FIX.4.4|9=0049|35=0|34=2|49=EXC|56=072|52=20190712-21:32:15.000|10=167|
8=FIX.4.4|9=59|35=0|34=2|49=072|50=072X01|52=20190712-20:57:02.977|56=EXC|10=086|
8=FIX.4.4|9=0049|35=0|34=3|49=EXC|56=072|52=20190712-21:32:45.000|10=171|
8=FIX.4.4|9=59|35=0|34=3|49=072|50=072X01|52=20190712-20:57:32.975|56=EXC|10=088|
8=FIX.4.4|9=110|35=A|34=1|49=072|50=072X01|52=20190714-00:01:28.483|56=EXC|43=N|98=0|108=30|141=Y|553=072FCM001|554=072FCM001|10=111|
8=FIX.4.4|9=0067|35=A|34=1|49=EXC|56=072|52=20190716-17:40:38.591|98=0|108=30|141=Y|10=025|
8=FIX.4.4|9=0049|35=0|34=2|49=EXC|56=072|52=20190716-17:41:08.000|10=178|
8=FIX.4.4|9=59|35=0|34=2|49=072|50=072X01|52=20190714-00:01:59.438|56=EXC|10=079|
8=FIX.4.4|9=110|35=A|34=1|49=072|50=072X01|52=20190714-00:12:53.112|56=EXC|43=N|98=0|108=30|141=Y|553=072FCM001|554=072FCM001|10=100|
8=FIX.4.4|9=0067|35=A|34=1|49=EXC|56=072|52=20190716-17:52:03.231|98=0|108=30|141=Y|10=011|
8=FIX.4.4|9=110|35=A|34=1|49=072|50=072X01|52=20190714-01:40:48.909|56=EXC|43=N|98=0|108=30|141=Y|553=072FCM001|554=072FCM001|10=120|
8=FIX.4.4|9=0067|35=A|34=1|49=EXC|56=072|52=20190716-16:00:58.991|98=0|108=30|141=Y|10=026|
8=FIX.4.4|9=0049|35=0|34=2|49=EXC|56=072|52=20190716-16:01:28.000|10=175|
8=FIX.4.4|9=59|35=0|34=2|49=072|50=072X01|52=20190714-01:41:19.894|56=EXC|10=086|
8=FIX.4.4|9=110|35=A|34=1|49=072|50=072X01|52=20190714-01:44:26.401|56=EXC|43=N|98=0|108=30|141=Y|553=072FCM001|554=072FCM001|10=107|
8=FIX.4.4|9=0067|35=A|34=1|49=EXC|56=072|52=20190716-16:04:36.497|98=0|108=30|141=Y|10=027|
8=FIX.4.4|9=0049|35=0|34=2|49=EXC|56=072|52=20190716-16:05:06.000|10=175|
8=FIX.4.4|9=59|35=0|34=2|49=072|50=072X01|52=20190714-01:44:57.377|56=EXC|10=087|
8=FIX.4.4|9=0049|35=0|34=3|49=EXC|56=072|52=20190716-16:05:36.000|10=179|
8=FIX.4.4|9=59|35=0|34=3|49=072|50=072X01|52=20190714-01:45:27.381|56=EXC|10=081|
8=FIX.4.4|9=110|35=A|34=1|49=072|50=072X01|52=20190714-01:58:41.097|56=EXC|43=N|98=0|108=30|141=Y|553=072FCM001|554=072FCM001|10=120|
8=FIX.4.4|9=0067|35=A|34=1|49=EXC|56=072|52=20190716-16:18:51.184|98=0|108=30|141=Y|10=022|
8=FIX.4.4|9=0049|35=0|34=2|49=EXC|56=072|52=20190716-16:19:21.000|10=177|
8=FIX.4.4|9=59|35=0|34=2|49=072|50=072X01|52=20190714-01:59:12.082|56=EXC|10=077|
8=FIX.4.4|9=110|35=A|34=1|49=072|50=072X01|52=20190714-03:12:45.718|56=EXC|43=N|98=0|108=30|141=Y|553=072FCM001|554=072FCM001|10=116|
8=FIX.4.4|9=0067|35=A|34=1|49=EXC|56=072|52=20190716-17:32:55.811|98=0|108=30|141=Y|10=020|
8=FIX.4.4|9=0049|35=0|34=2|49=EXC|56=072|52=20190716-17:33:25.000|10=178|
8=FIX.4.4|9=59|35=0|34=2|49=072|50=072X01|52=20190714-03:13:16.675|56=EXC|10=081|
8=FIX.4.4|9=0049|35=0|34=3|49=EXC|56=072|52=20190716-17:33:55.000|10=182|
8=FIX.4.4|9=59|35=0|34=3|49=072|50=072X01|52=20190714-03:13:46.675|56=EXC|10=085|
8=FIX.4.4|9=110|35=A|34=1|49=072|50=072X01|52=20190714-03:19:37.114|56=EXC|43=N|98=0|108=30|141=Y|553=072FCM001|554=072FCM001|10=114|
8=FIX.4.4|9=0067|35=A|34=1|49=EXC|56=072|52=20190716-17:39:47.210|98=0|108=30|141=Y|10=021|
8=FIX.4.4|9=0049|35=0|34=2|49=EXC|56=072|52=20190716-17:40:17.000|10=177|
8=FIX.4.4|9=110|35=A|34=1|49=072|50=072X01|52=20190714-03:22:44.990|56=EXC|43=N|98=0|108=30|141=Y|553=072FCM001|554=072FCM001|10=118|
8=FIX.4.4|9=0067|35=A|34=1|49=EXC|56=072|52=20190716-17:42:55.082|98=0|108=30|141=Y|10=021|
8=FIX.4.4|9=0049|35=0|34=2|49=EXC|56=072|52=20190716-17:43:25.000|10=179|
8=FIX.4.4|9=59|35=0|34=2|49=072|50=072X01|52=20190714-03:23:15.973|56=EXC|10=082|
8=FIX.4.4|9=59|35=5|34=3|49=072|50=072X01|52=20190714-03:23:27.974|56=EXC|10=092|
8=FIX.4.4|9=0049|35=5|34=3|49=EXC|56=072|52=20190716-17:43:38.052|10=196|
8=FIX.4.4|9=110|35=A|34=1|49=072|50=072X01|52=20190715-13:08:35.756|56=EXC|43=N|98=0|108=30|141=Y|553=072FCM001|554=072FCM001|10=124|
8=FIX.4.4|9=0067|35=A|34=1|49=EXC|56=072|52=20190716-15:06:03.824|98=0|108=30|141=Y|10=016|
8=FIX.4.4|9=0049|35=0|34=2|49=EXC|56=072|52=20190716-15:06:33.000|10=175|
8=FIX.4.4|9=59|35=0|34=2|49=072|50=072X01|52=20190715-13:09:06.680|56=EXC|10=083|
8=FIX.4.4|9=0049|35=0|34=3|49=EXC|56=072|52=20190716-15:07:03.000|10=174|
8=FIX.4.4|9=59|35=0|34=3|49=072|50=072X01|52=20190715-13:09:36.682|56=EXC|10=089|
8=FIX.4.4|9=110|35=A|34=1|49=072|50=072X01|52=20190715-13:10:01.695|56=EXC|43=N|98=0|108=30|141=Y|553=072FCM001|554=072FCM001|10=112|
8=FIX.4.4|9=110|35=A|34=1|49=072|50=072X01|52=20190715-13:27:08.481|56=EXC|43=N|98=0|108=30|141=Y|553=072FCM001|554=072FCM001|10=120|
8=FIX.4.4|9=0067|35=A|34=1|49=EXC|56=072|52=20190716-15:24:36.548|98=0|108=30|141=Y|10=025|
8=FIX.4.4|9=0049|35=0|34=2|49=EXC|56=072|52=20190716-15:25:06.000|10=176|
8=FIX.4.4|9=59|35=0|34=2|49=072|50=072X01|52=20190715-13:27:38.474|56=EXC|10=089|
8=FIX.4.4|9=0049|35=0|34=3|49=EXC|56=072|52=20190716-15:25:36.000|10=180|
8=FIX.4.4|9=59|35=0|34=3|49=072|50=072X01|52=20190715-13:28:08.472|56=EXC|10=086|
8=FIX.4.4|9=0049|35=0|34=4|49=EXC|56=072|52=20190716-15:26:06.000|10=179|
8=FIX.4.4|9=59|35=0|34=4|49=072|50=072X01|52=20190715-13:28:38.464|56=EXC|10=091|
8=FIX.4.4|9=110|35=A|34=1|49=072|50=072X01|52=20190715-16:11:12.833|56=EXC|43=N|98=0|108=30|141=Y|553=072FCM001|554=072FCM001|10=112|
8=FIX.4.4|9=0067|35=A|34=1|49=EXC|56=072|52=20190716-17:01:40.911|98=0|108=30|141=Y|10=011|
8=FIX.4.4|9=0049|35=0|34=2|49=EXC|56=072|52=20190716-17:02:10.000|10=168|
8=FIX.4.4|9=59|35=0|34=2|49=072|50=072X01|52=20190715-16:11:43.797|56=EXC|10=089|
8=FIX.4.4|9=0049|35=0|34=3|49=EXC|56=072|52=20190716-17:02:40.000|10=172|
8=FIX.4.4|9=59|35=0|34=3|49=072|50=072X01|52=20190715-16:12:13.795|56=EXC|10=086|
8=FIX.4.4|9=0049|35=0|34=4|49=EXC|56=072|52=20190716-17:03:10.000|10=171|
8=FIX.4.4|9=59|35=0|34=4|49=072|50=072X01|52=20190715-16:12:43.796|56=EXC|10=091|
8=FIX.4.4|9=0049|35=0|34=5|49=EXC|56=072|52=20190716-17:03:40.000|10=175|
8=FIX.4.4|9=59|35=0|34=5|49=072|50=072X01|52=20190715-16:13:13.796|56=EXC|10=090|
8=FIX.4.4|9=0049|35=0|34=6|49=EXC|56=072|52=20190716-17:04:10.000|10=174|
8=FIX.4.4|9=59|35=0|34=6|49=072|50=072X01|52=20190715-16:13:43.796|56=EXC|10=094|
8=FIX.4.4|9=0049|35=0|34=7|49=EXC|56=072|52=20190716-17:04:40.000|10=178|
8=FIX.4.4|9=59|35=0|34=7|49=072|50=072X01|52=20190715-16:14:13.795|56=EXC|10=092|
8=FIX.4.4|9=0049|35=0|34=8|49=EXC|56=072|52=20190716-17:05:10.000|10=177|
8=FIX.4.4|9=59|35=0|34=8|49=072|50=072X01|52=20190715-16:14:43.797|56=EXC|10=098|
8=FIX.4.4|9=0049|35=0|34=9|49=EXC|56=072|52=20190716-17:05:40.000|10=181|
8=FIX.4.4|9=59|35=0|34=9|49=072|50=072X01|52=20190715-16:15:13.795|56=EXC|10=095|
8=FIX.4.4|9=0050|35=0|34=10|49=EXC|56=072|52=20190716-17:06:10.000|10=211|
8=FIX.4.4|9=60|35=0|34=10|49=072|50=072X01|52=20190715-16:15:43.796|56=EXC|10=131|
8=FIX.4.4|9=0050|35=0|34=11|49=EXC|56=072|52=20190716-17:06:40.000|10=215|
8=FIX.4.4|9=60|35=0|34=11|49=072|50=072X01|52=20190715-16:16:13.795|56=EXC|10=129|
8=FIX.4.4|9=0050|35=0|34=12|49=EXC|56=072|52=20190716-17:07:10.000|10=214|
8=FIX.4.4|9=60|35=0|34=12|49=072|50=072X01|52=20190715-16:16:43.795|56=EXC|10=133|
<<<<<<< HEAD
>>>>>>> 6d7e9ce7e8f42ac20f0de084aa3de07af4ab14a8
=======
8=FIX.4.4|9=110|35=A|34=1|49=072|50=072X01|52=20190715-19:28:47.414|56=EXC|43=N|98=0|108=30|141=Y|553=072FCM001|554=072FCM001|10=126|
8=FIX.4.4|9=0067|35=A|34=1|49=EXC|56=072|52=20190716-15:22:32.491|98=0|108=30|141=Y|10=016|
8=FIX.4.4|9=0049|35=0|34=2|49=EXC|56=072|52=20190716-15:23:02.000|10=170|
8=FIX.4.4|9=59|35=0|34=2|49=072|50=072X01|52=20190715-19:29:18.309|56=EXC|10=092|
8=FIX.4.4|9=0049|35=0|34=3|49=EXC|56=072|52=20190716-15:23:32.000|10=174|
8=FIX.4.4|9=59|35=0|34=3|49=072|50=072X01|52=20190715-19:29:48.309|56=EXC|10=096|
8=FIX.4.4|9=0049|35=0|34=4|49=EXC|56=072|52=20190716-15:24:02.000|10=173|
8=FIX.4.4|9=59|35=0|34=4|49=072|50=072X01|52=20190715-19:30:18.310|56=EXC|10=078|
8=FIX.4.4|9=110|35=A|34=1|49=072|50=072X01|52=20190715-20:35:15.508|56=EXC|43=N|98=0|108=30|141=Y|553=072FCM001|554=072FCM001|10=115|
8=FIX.4.4|9=0067|35=A|34=1|49=EXC|56=072|52=20190716-16:29:00.586|98=0|108=30|141=Y|10=024|
8=FIX.4.4|9=0049|35=0|34=2|49=EXC|56=072|52=20190716-16:29:30.000|10=178|
8=FIX.4.4|9=59|35=0|34=2|49=072|50=072X01|52=20190715-20:35:46.496|56=EXC|10=089|
8=FIX.4.4|9=0049|35=0|34=3|49=EXC|56=072|52=20190716-16:30:00.000|10=168|
8=FIX.4.4|9=59|35=0|34=3|49=072|50=072X01|52=20190715-20:36:16.497|56=EXC|10=089|
8=FIX.4.4|9=0049|35=0|34=4|49=EXC|56=072|52=20190716-16:30:30.000|10=172|
8=FIX.4.4|9=59|35=0|34=4|49=072|50=072X01|52=20190715-20:36:46.497|56=EXC|10=093|
8=FIX.4.4|9=0049|35=0|34=5|49=EXC|56=072|52=20190716-16:31:00.000|10=171|
8=FIX.4.4|9=59|35=0|34=5|49=072|50=072X01|52=20190715-20:37:16.498|56=EXC|10=093|
8=FIX.4.4|9=0049|35=0|34=6|49=EXC|56=072|52=20190716-16:31:30.000|10=175|
8=FIX.4.4|9=59|35=0|34=6|49=072|50=072X01|52=20190715-20:37:46.496|56=EXC|10=095|
8=FIX.4.4|9=0049|35=0|34=7|49=EXC|56=072|52=20190716-16:32:00.000|10=174|
8=FIX.4.4|9=59|35=0|34=7|49=072|50=072X01|52=20190715-20:38:16.496|56=EXC|10=094|
8=FIX.4.4|9=0049|35=0|34=8|49=EXC|56=072|52=20190716-16:32:30.000|10=178|
8=FIX.4.4|9=59|35=0|34=8|49=072|50=072X01|52=20190715-20:38:46.496|56=EXC|10=098|
8=FIX.4.4|9=0049|35=0|34=9|49=EXC|56=072|52=20190716-16:33:00.000|10=177|
8=FIX.4.4|9=59|35=0|34=9|49=072|50=072X01|52=20190715-20:39:16.497|56=EXC|10=098|
8=FIX.4.4|9=0050|35=0|34=10|49=EXC|56=072|52=20190716-16:33:30.000|10=212|
8=FIX.4.4|9=60|35=0|34=10|49=072|50=072X01|52=20190715-20:39:46.497|56=EXC|10=133|
8=FIX.4.4|9=0050|35=0|34=11|49=EXC|56=072|52=20190716-16:34:00.000|10=211|
8=FIX.4.4|9=60|35=0|34=11|49=072|50=072X01|52=20190715-20:40:16.497|56=EXC|10=123|
8=FIX.4.4|9=0050|35=0|34=12|49=EXC|56=072|52=20190716-16:34:30.000|10=215|
8=FIX.4.4|9=60|35=0|34=12|49=072|50=072X01|52=20190715-20:40:46.498|56=EXC|10=128|
8=FIX.4.4|9=0050|35=0|34=13|49=EXC|56=072|52=20190716-16:35:00.000|10=214|
8=FIX.4.4|9=60|35=0|34=13|49=072|50=072X01|52=20190715-20:41:16.498|56=EXC|10=127|
8=FIX.4.4|9=0050|35=0|34=14|49=EXC|56=072|52=20190716-16:35:30.000|10=218|
8=FIX.4.4|9=60|35=0|34=14|49=072|50=072X01|52=20190715-20:41:46.498|56=EXC|10=131|
8=FIX.4.4|9=0050|35=0|34=15|49=EXC|56=072|52=20190716-16:36:00.000|10=217|
8=FIX.4.4|9=60|35=0|34=15|49=072|50=072X01|52=20190715-20:42:16.498|56=EXC|10=130|
8=FIX.4.4|9=0050|35=0|34=16|49=EXC|56=072|52=20190716-16:36:30.000|10=221|
8=FIX.4.4|9=60|35=0|34=16|49=072|50=072X01|52=20190715-20:42:46.498|56=EXC|10=134|
8=FIX.4.4|9=0050|35=0|34=17|49=EXC|56=072|52=20190716-16:37:00.000|10=220|
8=FIX.4.4|9=60|35=0|34=17|49=072|50=072X01|52=20190715-20:43:16.497|56=EXC|10=132|
8=FIX.4.4|9=0050|35=0|34=18|49=EXC|56=072|52=20190716-16:37:30.000|10=224|
8=FIX.4.4|9=60|35=0|34=18|49=072|50=072X01|52=20190715-20:43:46.497|56=EXC|10=136|
8=FIX.4.4|9=0050|35=0|34=19|49=EXC|56=072|52=20190716-16:38:00.000|10=223|
8=FIX.4.4|9=60|35=0|34=19|49=072|50=072X01|52=20190715-20:44:16.497|56=EXC|10=135|
8=FIX.4.4|9=0050|35=0|34=20|49=EXC|56=072|52=20190716-16:38:30.000|10=218|
8=FIX.4.4|9=60|35=0|34=20|49=072|50=072X01|52=20190715-20:44:46.497|56=EXC|10=130|
8=FIX.4.4|9=0050|35=0|34=21|49=EXC|56=072|52=20190716-16:39:00.000|10=217|
8=FIX.4.4|9=60|35=0|34=21|49=072|50=072X01|52=20190715-20:45:16.497|56=EXC|10=129|
8=FIX.4.4|9=0050|35=0|34=22|49=EXC|56=072|52=20190716-16:39:30.000|10=221|
8=FIX.4.4|9=60|35=0|34=22|49=072|50=072X01|52=20190715-20:45:46.497|56=EXC|10=133|
8=FIX.4.4|9=110|35=A|34=1|49=072|50=072X01|52=20190715-20:47:26.146|56=EXC|43=N|98=0|108=30|141=Y|553=072FCM001|554=072FCM001|10=118|
8=FIX.4.4|9=0067|35=A|34=1|49=EXC|56=072|52=20190716-16:41:11.225|98=0|108=30|141=Y|10=010|
8=FIX.4.4|9=0049|35=0|34=2|49=EXC|56=072|52=20190716-16:41:41.000|10=174|
8=FIX.4.4|9=59|35=0|34=2|49=072|50=072X01|52=20190715-20:47:57.133|56=EXC|10=082|
8=FIX.4.4|9=0049|35=0|34=3|49=EXC|56=072|52=20190716-16:42:11.000|10=173|
8=FIX.4.4|9=59|35=0|34=3|49=072|50=072X01|52=20190715-20:48:27.133|56=EXC|10=081|
8=FIX.4.4|9=0049|35=0|34=4|49=EXC|56=072|52=20190716-16:42:41.000|10=177|
8=FIX.4.4|9=59|35=0|34=4|49=072|50=072X01|52=20190715-20:48:57.133|56=EXC|10=085|
8=FIX.4.4|9=0049|35=0|34=5|49=EXC|56=072|52=20190716-16:43:11.000|10=176|
8=FIX.4.4|9=59|35=0|34=5|49=072|50=072X01|52=20190715-20:49:27.134|56=EXC|10=085|
8=FIX.4.4|9=0049|35=0|34=6|49=EXC|56=072|52=20190716-16:43:41.000|10=180|
8=FIX.4.4|9=59|35=0|34=6|49=072|50=072X01|52=20190715-20:49:57.133|56=EXC|10=088|
8=FIX.4.4|9=0049|35=0|34=7|49=EXC|56=072|52=20190716-16:44:11.000|10=179|
8=FIX.4.4|9=59|35=0|34=7|49=072|50=072X01|52=20190715-20:50:27.135|56=EXC|10=080|
8=FIX.4.4|9=0049|35=0|34=8|49=EXC|56=072|52=20190716-16:44:41.000|10=183|
8=FIX.4.4|9=59|35=0|34=8|49=072|50=072X01|52=20190715-20:50:57.134|56=EXC|10=083|
8=FIX.4.4|9=0049|35=0|34=9|49=EXC|56=072|52=20190716-16:45:11.000|10=182|
8=FIX.4.4|9=59|35=0|34=9|49=072|50=072X01|52=20190715-20:51:27.134|56=EXC|10=082|
8=FIX.4.4|9=0050|35=0|34=10|49=EXC|56=072|52=20190716-16:45:41.000|10=217|
8=FIX.4.4|9=60|35=0|34=10|49=072|50=072X01|52=20190715-20:51:57.133|56=EXC|10=116|
8=FIX.4.4|9=0050|35=0|34=11|49=EXC|56=072|52=20190716-16:46:11.000|10=216|
8=FIX.4.4|9=60|35=0|34=11|49=072|50=072X01|52=20190715-20:52:27.134|56=EXC|10=116|
8=FIX.4.4|9=0050|35=0|34=12|49=EXC|56=072|52=20190716-16:46:41.000|10=220|
8=FIX.4.4|9=60|35=0|34=12|49=072|50=072X01|52=20190715-20:52:57.134|56=EXC|10=120|
8=FIX.4.4|9=0050|35=0|34=13|49=EXC|56=072|52=20190716-16:47:11.000|10=219|
8=FIX.4.4|9=60|35=0|34=13|49=072|50=072X01|52=20190715-20:53:27.135|56=EXC|10=120|
8=FIX.4.4|9=0050|35=0|34=14|49=EXC|56=072|52=20190716-16:47:41.000|10=223|
8=FIX.4.4|9=60|35=0|34=14|49=072|50=072X01|52=20190715-20:53:57.135|56=EXC|10=124|
8=FIX.4.4|9=0050|35=0|34=15|49=EXC|56=072|52=20190716-16:48:11.000|10=222|
8=FIX.4.4|9=60|35=0|34=15|49=072|50=072X01|52=20190715-20:54:27.135|56=EXC|10=123|
8=FIX.4.4|9=0050|35=0|34=16|49=EXC|56=072|52=20190716-16:48:41.000|10=226|
8=FIX.4.4|9=60|35=0|34=16|49=072|50=072X01|52=20190715-20:54:57.134|56=EXC|10=126|
8=FIX.4.4|9=0050|35=0|34=17|49=EXC|56=072|52=20190716-16:49:11.000|10=225|
8=FIX.4.4|9=60|35=0|34=17|49=072|50=072X01|52=20190715-20:55:27.135|56=EXC|10=126|
8=FIX.4.4|9=0050|35=0|34=18|49=EXC|56=072|52=20190716-16:49:41.000|10=229|
8=FIX.4.4|9=60|35=0|34=18|49=072|50=072X01|52=20190715-20:55:57.135|56=EXC|10=130|
8=FIX.4.4|9=0050|35=0|34=19|49=EXC|56=072|52=20190716-16:50:11.000|10=219|
8=FIX.4.4|9=60|35=0|34=19|49=072|50=072X01|52=20190715-20:56:27.134|56=EXC|10=128|
8=FIX.4.4|9=0050|35=0|34=20|49=EXC|56=072|52=20190716-16:50:41.000|10=214|
8=FIX.4.4|9=60|35=0|34=20|49=072|50=072X01|52=20190715-20:56:57.135|56=EXC|10=124|
8=FIX.4.4|9=0050|35=0|34=21|49=EXC|56=072|52=20190716-16:51:11.000|10=213|
8=FIX.4.4|9=60|35=0|34=21|49=072|50=072X01|52=20190715-20:57:27.135|56=EXC|10=123|
8=FIX.4.4|9=0050|35=0|34=22|49=EXC|56=072|52=20190716-16:51:41.000|10=217|
8=FIX.4.4|9=60|35=0|34=22|49=072|50=072X01|52=20190715-20:57:57.135|56=EXC|10=127|
8=FIX.4.4|9=0050|35=0|34=23|49=EXC|56=072|52=20190716-16:52:11.000|10=216|
8=FIX.4.4|9=60|35=0|34=23|49=072|50=072X01|52=20190715-20:58:27.134|56=EXC|10=125|
8=FIX.4.4|9=0050|35=0|34=24|49=EXC|56=072|52=20190716-16:52:41.000|10=220|
8=FIX.4.4|9=60|35=0|34=24|49=072|50=072X01|52=20190715-20:58:57.135|56=EXC|10=130|
8=FIX.4.4|9=0050|35=0|34=25|49=EXC|56=072|52=20190716-16:53:11.000|10=219|
8=FIX.4.4|9=60|35=0|34=25|49=072|50=072X01|52=20190715-20:59:27.134|56=EXC|10=128|
8=FIX.4.4|9=0050|35=0|34=26|49=EXC|56=072|52=20190716-16:53:41.000|10=223|
8=FIX.4.4|9=60|35=0|34=26|49=072|50=072X01|52=20190715-20:59:57.136|56=EXC|10=134|
8=FIX.4.4|9=0050|35=0|34=27|49=EXC|56=072|52=20190716-16:54:11.000|10=222|
8=FIX.4.4|9=60|35=0|34=27|49=072|50=072X01|52=20190715-21:00:27.136|56=EXC|10=119|
8=FIX.4.4|9=0050|35=0|34=28|49=EXC|56=072|52=20190716-16:54:41.000|10=226|
8=FIX.4.4|9=60|35=0|34=28|49=072|50=072X01|52=20190715-21:00:57.135|56=EXC|10=122|
8=FIX.4.4|9=0050|35=0|34=29|49=EXC|56=072|52=20190716-16:55:11.000|10=225|
8=FIX.4.4|9=60|35=0|34=29|49=072|50=072X01|52=20190715-21:01:27.136|56=EXC|10=122|
8=FIX.4.4|9=0050|35=0|34=30|49=EXC|56=072|52=20190716-16:55:41.000|10=220|
8=FIX.4.4|9=60|35=0|34=30|49=072|50=072X01|52=20190715-21:01:57.134|56=EXC|10=115|
8=FIX.4.4|9=0050|35=0|34=31|49=EXC|56=072|52=20190716-16:56:11.000|10=219|
>>>>>>> 5d4ed098bb2204ed7fc34799dbfeb53acad34fdf
