<<<<<<< HEAD
8=FIX.4.4|9=82|35=A|34=1|49=073|50=073X01|52=20190711-19:05:54.366|56=EXC|43=N|98=0|108=30|141=Y|10=156|
8=FIX.4.4|9=82|35=A|34=1|49=073|50=073X01|52=20190711-19:06:52.410|56=EXC|43=N|98=0|108=30|141=Y|10=145|
8=FIX.4.4|9=82|35=A|34=1|49=073|50=073X01|52=20190711-19:07:52.341|56=EXC|43=N|98=0|108=30|141=Y|10=149|
8=FIX.4.4|9=110|35=A|34=1|49=073|50=073X01|52=20190711-19:08:53.523|56=EXC|43=N|98=0|108=30|141=Y|553=073FCM001|554=073FCM001|10=122|
8=FIX.4.4|9=0067|35=A|34=1|49=EXC|56=073|52=20190711-19:09:30.351|98=0|108=30|141=Y|10=014|
8=FIX.4.4|9=110|35=A|34=1|49=073|50=073X01|52=20190711-19:09:36.190|56=EXC|43=N|98=0|108=30|141=Y|553=073FCM001|554=073FCM001|10=124|
8=FIX.4.4|9=0067|35=A|34=1|49=EXC|56=073|52=20190711-19:10:13.038|98=0|108=30|141=Y|10=009|
8=FIX.4.4|9=110|35=A|34=1|49=073|50=073X01|52=20190711-19:26:44.106|56=EXC|43=N|98=0|108=30|141=Y|553=073FCM001|554=073FCM001|10=119|
8=FIX.4.4|9=0067|35=A|34=1|49=EXC|56=073|52=20190711-19:27:20.955|98=0|108=30|141=Y|10=023|
8=FIX.4.4|9=0049|35=0|34=2|49=EXC|56=073|52=20190711-19:27:50.000|10=177|
8=FIX.4.4|9=59|35=0|34=2|49=073|50=073X01|52=20190711-19:27:14.902|56=EXC|10=083|
8=FIX.4.4|9=0049|35=0|34=3|49=EXC|56=073|52=20190711-19:28:20.000|10=176|
8=FIX.4.4|9=59|35=0|34=3|49=073|50=073X01|52=20190711-19:27:44.902|56=EXC|10=087|
8=FIX.4.4|9=0049|35=0|34=4|49=EXC|56=073|52=20190711-19:28:50.000|10=180|
8=FIX.4.4|9=59|35=0|34=4|49=073|50=073X01|52=20190711-19:28:14.894|56=EXC|10=096|
8=FIX.4.4|9=110|35=A|34=1|49=073|50=073X01|52=20190711-19:39:14.999|56=EXC|43=N|98=0|108=30|141=Y|553=073FCM001|554=073FCM001|10=140|
8=FIX.4.4|9=0067|35=A|34=1|49=EXC|56=073|52=20190711-19:39:51.869|98=0|108=30|141=Y|10=034|
8=FIX.4.4|9=0214|35=R|34=2|49=EXC|56=073|57=073X01|52=20190711-19:39:58.894|131=20190711-000000000010.00|146=1|55=T24Q19F|762=FUIR|48=26623|22=M|54=1|38=200|453=3|448=072X01|447=C|452=12|448=072|447=C|452=1|448=073X01|447=C|452=37|10=075|
8=FIX.4.4|9=169|35=S|34=2|49=073|50=073X01|52=20190711-19:39:42.221|56=EXC|1=DP001|55=T24Q19F|62=20190711-14:41:04.000|117=201907111439114_S|131=20190711-000000000010.00|135=0|762=FUIR|10=104|
8=FIX.4.4|9=0197|35=AI|34=3|49=EXC|56=073|57=073X01|52=20190711-19:40:19.070|117=201907111439114_S|55=T24Q19F|762=FUIR|1=DP001|135=0|62=20190711-14:41:04.000|297=9|300=99|58=(408): A price or yield must be entered|10=067|
8=FIX.4.4|9=59|35=5|34=3|49=073|50=073X01|52=20190711-19:40:07.961|56=EXC|10=091|
8=FIX.4.4|9=0049|35=5|34=4|49=EXC|56=073|52=20190711-19:40:44.805|10=195|
8=FIX.4.4|9=110|35=A|34=1|49=073|50=073X01|52=20190711-19:49:34.396|56=EXC|43=N|98=0|108=30|141=Y|553=073FCM001|554=073FCM001|10=134|
8=FIX.4.4|9=0067|35=A|34=1|49=EXC|56=073|52=20190711-19:50:11.272|98=0|108=30|141=Y|10=011|
8=FIX.4.4|9=110|35=A|34=1|49=073|50=073X01|52=20190711-19:51:02.871|56=EXC|43=N|98=0|108=30|141=Y|553=073FCM001|554=073FCM001|10=120|
8=FIX.4.4|9=0067|35=A|34=1|49=EXC|56=073|52=20190711-19:51:39.732|98=0|108=30|141=Y|10=023|
8=FIX.4.4|9=0049|35=0|34=2|49=EXC|56=073|52=20190711-19:52:09.000|10=179|
8=FIX.4.4|9=59|35=0|34=2|49=073|50=073X01|52=20190711-19:51:32.866|56=EXC|10=089|
8=FIX.4.4|9=0049|35=0|34=3|49=EXC|56=073|52=20190711-19:52:39.000|10=183|
8=FIX.4.4|9=59|35=0|34=3|49=073|50=073X01|52=20190711-19:52:02.867|56=EXC|10=089|
8=FIX.4.4|9=110|35=A|34=1|49=073|50=073X01|52=20190711-19:56:25.871|56=EXC|43=N|98=0|108=30|141=Y|553=073FCM001|554=073FCM001|10=130|
8=FIX.4.4|9=0067|35=A|34=1|49=EXC|56=073|52=20190711-19:57:02.741|98=0|108=30|141=Y|10=019|
8=FIX.4.4|9=0213|35=R|34=2|49=EXC|56=073|57=073X01|52=20190711-19:57:09.662|131=20190711-000000000012.00|146=1|55=T24Q19F|762=FUIR|48=26623|22=M|54=1|38=90|453=3|448=072X01|447=C|452=12|448=072|447=C|452=1|448=073X01|447=C|452=37|10=024|
8=FIX.4.4|9=169|35=S|34=2|49=073|50=073X01|52=20190711-19:56:52.958|56=EXC|1=DP001|55=T24Q19F|62=20190711-14:41:04.000|117=201907111456225_S|131=20190711-000000000012.00|135=0|762=FUIR|10=125|
8=FIX.4.4|9=0197|35=AI|34=3|49=EXC|56=073|57=073X01|52=20190711-19:57:29.813|117=201907111456225_S|55=T24Q19F|762=FUIR|1=DP001|135=0|62=20190711-14:41:04.000|297=9|300=99|58=(408): A price or yield must be entered|10=083|
8=FIX.4.4|9=110|35=A|34=1|49=073|50=073X01|52=20190711-20:05:40.533|56=EXC|43=N|98=0|108=30|141=Y|553=073FCM001|554=073FCM001|10=108|
8=FIX.4.4|9=0067|35=A|34=1|49=EXC|56=073|52=20190711-20:06:17.408|98=0|108=30|141=Y|10=011|
8=FIX.4.4|9=59|35=5|34=2|49=073|50=073X01|52=20190711-20:06:08.403|56=EXC|10=076|
8=FIX.4.4|9=0049|35=5|34=2|49=EXC|56=073|52=20190711-20:06:45.260|10=183|
8=FIX.4.4|9=110|35=A|34=1|49=073|50=073X01|52=20190711-20:07:49.385|56=EXC|43=N|98=0|108=30|141=Y|553=073FCM001|554=073FCM001|10=124|
8=FIX.4.4|9=0067|35=A|34=1|49=EXC|56=073|52=20190711-20:08:26.264|98=0|108=30|141=Y|10=013|
8=FIX.4.4|9=0214|35=R|34=2|49=EXC|56=073|57=073X01|52=20190711-20:08:33.214|131=20190711-000000000013.00|146=1|55=T24Q19F|762=FUIR|48=26623|22=M|54=1|38=110|453=3|448=072X01|447=C|452=12|448=072|447=C|452=1|448=073X01|447=C|452=37|10=045|
8=FIX.4.4|9=169|35=S|34=2|49=073|50=073X01|52=20190711-20:08:16.468|56=EXC|1=DP001|55=T24Q19F|62=20190711-14:41:04.000|117=201907111507456_S|131=20190711-000000000013.00|135=0|762=FUIR|10=114|
8=FIX.4.4|9=0197|35=AI|34=3|49=EXC|56=073|57=073X01|52=20190711-20:08:53.323|117=201907111507456_S|55=T24Q19F|762=FUIR|1=DP001|135=0|62=20190711-14:41:04.000|297=9|300=99|58=(408): A price or yield must be entered|10=067|
8=FIX.4.4|9=110|35=A|34=1|49=073|50=073X01|52=20190711-20:10:14.267|56=EXC|43=N|98=0|108=30|141=Y|553=073FCM001|554=073FCM001|10=109|
8=FIX.4.4|9=0067|35=A|34=1|49=EXC|56=073|52=20190711-20:10:51.153|98=0|108=30|141=Y|10=001|
8=FIX.4.4|9=59|35=5|34=2|49=073|50=073X01|52=20190711-20:10:42.203|56=EXC|10=067|
8=FIX.4.4|9=0049|35=5|34=2|49=EXC|56=073|52=20190711-20:11:19.076|10=185|
8=FIX.4.4|9=110|35=A|34=1|49=073|50=073X01|52=20190711-22:37:54.746|56=EXC|43=N|98=0|108=30|141=Y|553=073FCM001|554=073FCM001|10=126|
8=FIX.4.4|9=0067|35=A|34=1|49=EXC|56=073|52=20190711-22:43:56.005|98=0|108=30|141=Y|10=010|
8=FIX.4.4|9=110|35=A|34=1|49=073|50=073X01|52=20190711-22:40:54.505|56=EXC|43=N|98=0|108=30|141=Y|553=073FCM001|554=073FCM001|10=113|
8=FIX.4.4|9=0067|35=A|34=1|49=EXC|56=073|52=20190711-22:46:55.768|98=0|108=30|141=Y|10=028|
8=FIX.4.4|9=0049|35=0|34=2|49=EXC|56=073|52=20190711-22:47:25.000|10=175|
8=FIX.4.4|9=59|35=0|34=2|49=073|50=073X01|52=20190711-22:41:25.448|56=EXC|10=080|
8=FIX.4.4|9=110|35=A|34=1|49=073|50=073X01|52=20190711-23:06:02.212|56=EXC|43=N|98=0|108=30|141=Y|553=073FCM001|554=073FCM001|10=104|
8=FIX.4.4|9=0067|35=A|34=1|49=EXC|56=073|52=20190711-23:12:03.619|98=0|108=30|141=Y|10=010|
8=FIX.4.4|9=110|35=A|34=1|49=073|50=073X01|52=20190711-23:09:29.772|56=EXC|43=N|98=0|108=30|141=Y|553=073FCM001|554=073FCM001|10=127|
8=FIX.4.4|9=0067|35=A|34=1|49=EXC|56=073|52=20190711-23:15:31.072|98=0|108=30|141=Y|10=007|
8=FIX.4.4|9=110|35=A|34=1|49=073|50=073X01|52=20190711-23:16:57.018|56=EXC|43=N|98=0|108=30|141=Y|553=073FCM001|554=073FCM001|10=119|
8=FIX.4.4|9=0067|35=A|34=1|49=EXC|56=073|52=20190711-23:22:58.293|98=0|108=30|141=Y|10=019|
8=FIX.4.4|9=110|35=A|34=1|49=073|50=073X01|52=20190711-23:20:58.002|56=EXC|43=N|98=0|108=30|141=Y|553=073FCM001|554=073FCM001|10=108|
8=FIX.4.4|9=0067|35=A|34=1|49=EXC|56=073|52=20190711-23:26:59.289|98=0|108=30|141=Y|10=029|
8=FIX.4.4|9=110|35=A|34=1|49=073|50=073X01|52=20190711-23:38:30.618|56=EXC|43=N|98=0|108=30|141=Y|553=073FCM001|554=073FCM001|10=120|
8=FIX.4.4|9=0067|35=A|34=1|49=EXC|56=073|52=20190711-23:44:31.934|98=0|108=30|141=Y|10=016|
8=FIX.4.4|9=110|35=A|34=1|49=073|50=073X01|52=20190711-23:45:03.678|56=EXC|43=N|98=0|108=30|141=Y|553=073FCM001|554=073FCM001|10=124|
8=FIX.4.4|9=0067|35=A|34=1|49=EXC|56=073|52=20190711-23:51:04.982|98=0|108=30|141=Y|10=017|
8=FIX.4.4|9=110|35=A|34=1|49=073|50=073X01|52=20190711-23:50:30.305|56=EXC|43=N|98=0|108=30|141=Y|553=073FCM001|554=073FCM001|10=107|
8=FIX.4.4|9=0067|35=A|34=1|49=EXC|56=073|52=20190711-23:56:31.625|98=0|108=30|141=Y|10=016|
8=FIX.4.4|9=110|35=A|34=1|49=073|50=073X01|52=20190712-00:00:19.920|56=EXC|43=N|98=0|108=30|141=Y|553=073FCM001|554=073FCM001|10=108|
8=FIX.4.4|9=0067|35=A|34=1|49=EXC|56=073|52=20190712-00:06:21.237|98=0|108=30|141=Y|10=005|
8=FIX.4.4|9=110|35=A|34=1|49=073|50=073X01|52=20190712-15:10:49.192|56=EXC|43=N|98=0|108=30|141=Y|553=073FCM001|554=073FCM001|10=119|
8=FIX.4.4|9=0067|35=A|34=1|49=EXC|56=073|52=20190712-15:52:04.208|98=0|108=30|141=Y|10=011|
8=FIX.4.4|9=110|35=A|34=1|49=073|50=073X01|52=20190712-15:11:37.328|56=EXC|43=N|98=0|108=30|141=Y|553=073FCM001|554=073FCM001|10=118|
8=FIX.4.4|9=0067|35=A|34=1|49=EXC|56=073|52=20190712-15:52:52.361|98=0|108=30|141=Y|10=014|
8=FIX.4.4|9=110|35=A|34=1|49=073|50=073X01|52=20190712-15:16:16.265|56=EXC|43=N|98=0|108=30|141=Y|553=073FCM001|554=073FCM001|10=120|
8=FIX.4.4|9=0067|35=A|34=1|49=EXC|56=073|52=20190712-15:57:31.294|98=0|108=30|141=Y|10=021|
8=FIX.4.4|9=110|35=A|34=1|49=073|50=073X01|52=20190712-15:16:57.260|56=EXC|43=N|98=0|108=30|141=Y|553=073FCM001|554=073FCM001|10=120|
8=FIX.4.4|9=0067|35=A|34=1|49=EXC|56=073|52=20190712-15:58:12.277|98=0|108=30|141=Y|10=022|
8=FIX.4.4|9=110|35=A|34=1|49=073|50=073X01|52=20190712-15:22:33.518|56=EXC|43=N|98=0|108=30|141=Y|553=073FCM001|554=073FCM001|10=117|
8=FIX.4.4|9=0067|35=A|34=1|49=EXC|56=073|52=20190712-16:03:48.546|98=0|108=30|141=Y|10=021|
8=FIX.4.4|9=0049|35=0|34=2|49=EXC|56=073|52=20190712-16:04:18.000|10=174|
8=FIX.4.4|9=59|35=0|34=2|49=073|50=073X01|52=20190712-15:23:04.464|56=EXC|10=078|
8=FIX.4.4|9=110|35=A|34=1|49=073|50=073X01|52=20190712-15:24:19.703|56=EXC|43=N|98=0|108=30|141=Y|553=073FCM001|554=073FCM001|10=119|
8=FIX.4.4|9=0067|35=A|34=1|49=EXC|56=073|52=20190712-16:05:34.734|98=0|108=30|141=Y|10=017|
8=FIX.4.4|9=110|35=A|34=1|49=073|50=073X01|52=20190712-15:25:07.237|56=EXC|43=N|98=0|108=30|141=Y|553=073FCM001|554=073FCM001|10=119|
8=FIX.4.4|9=0067|35=A|34=1|49=EXC|56=073|52=20190712-16:06:22.297|98=0|108=30|141=Y|10=019|
8=FIX.4.4|9=0049|35=0|34=2|49=EXC|56=073|52=20190712-16:06:52.000|10=174|
8=FIX.4.4|9=59|35=0|34=2|49=073|50=073X01|52=20190712-15:25:37.949|56=EXC|10=094|
8=FIX.4.4|9=110|35=A|34=1|49=073|50=073X01|52=20190712-15:30:16.049|56=EXC|43=N|98=0|108=30|141=Y|553=073FCM001|554=073FCM001|10=116|
8=FIX.4.4|9=0067|35=A|34=1|49=EXC|56=073|52=20190712-16:11:31.088|98=0|108=30|141=Y|10=013|
8=FIX.4.4|9=0049|35=0|34=2|49=EXC|56=073|52=20190712-16:12:01.000|10=165|
8=FIX.4.4|9=59|35=0|34=2|49=073|50=073X01|52=20190712-15:30:46.945|56=EXC|10=086|
8=FIX.4.4|9=110|35=A|34=1|49=073|50=073X01|52=20190712-16:34:45.889|56=EXC|43=N|98=0|108=30|141=Y|553=073FCM001|554=073FCM001|10=135|
8=FIX.4.4|9=0067|35=A|34=1|49=EXC|56=073|52=20190712-17:16:00.971|98=0|108=30|141=Y|10=016|
8=FIX.4.4|9=110|35=A|34=1|49=073|50=073X01|52=20190712-16:44:17.729|56=EXC|43=N|98=0|108=30|141=Y|553=073FCM001|554=073FCM001|10=128|
8=FIX.4.4|9=0067|35=A|34=1|49=EXC|56=073|52=20190712-17:25:32.813|98=0|108=30|141=Y|10=016|
8=FIX.4.4|9=0049|35=0|34=2|49=EXC|56=073|52=20190712-17:26:02.000|10=172|
8=FIX.4.4|9=59|35=0|34=2|49=073|50=073X01|52=20190712-16:44:48.678|56=EXC|10=097|
8=FIX.4.4|9=110|35=A|34=1|49=073|50=073X01|52=20190712-16:49:07.125|56=EXC|43=N|98=0|108=30|141=Y|553=073FCM001|554=073FCM001|10=122|
8=FIX.4.4|9=0067|35=A|34=1|49=EXC|56=073|52=20190712-17:30:22.235|98=0|108=30|141=Y|10=009|
8=FIX.4.4|9=0049|35=0|34=2|49=EXC|56=073|52=20190712-17:30:52.000|10=172|
8=FIX.4.4|9=59|35=0|34=2|49=073|50=073X01|52=20190712-16:49:37.905|56=EXC|10=093|
8=FIX.4.4|9=59|35=5|34=3|49=073|50=073X01|52=20190712-16:49:49.913|56=EXC|10=101|
8=FIX.4.4|9=0049|35=5|34=3|49=EXC|56=073|52=20190712-17:31:04.973|10=195|
8=FIX.4.4|9=110|35=A|34=1|49=073|50=073X01|52=20190712-19:50:07.786|56=EXC|43=N|98=0|108=30|141=Y|553=073FCM001|554=073FCM001|10=130|
8=FIX.4.4|9=0067|35=A|34=1|49=EXC|56=073|52=20190712-20:31:23.060|98=0|108=30|141=Y|10=001|
8=FIX.4.4|9=110|35=A|34=1|49=073|50=073X01|52=20190715-13:51:20.848|56=EXC|43=N|98=0|108=30|141=Y|553=073FCM001|554=073FCM001|10=122|
8=FIX.4.4|9=0067|35=A|34=1|49=EXC|56=073|52=20190716-15:54:54.065|98=0|108=30|141=Y|10=023|
8=FIX.4.4|9=110|35=A|34=1|49=073|50=073X01|52=20190715-15:42:11.642|56=EXC|43=N|98=0|108=30|141=Y|553=073FCM001|554=073FCM001|10=116|
8=FIX.4.4|9=0067|35=A|34=1|49=EXC|56=073|52=20190716-16:38:44.959|98=0|108=30|141=Y|10=037|
8=FIX.4.4|9=0049|35=0|34=2|49=EXC|56=073|52=20190716-16:39:14.000|10=182|
8=FIX.4.4|9=59|35=0|34=2|49=073|50=073X01|52=20190715-15:42:42.516|56=EXC|10=082|
8=FIX.4.4|9=110|35=A|34=1|49=073|50=073X01|52=20190715-15:44:03.085|56=EXC|43=N|98=0|108=30|141=Y|553=073FCM001|554=073FCM001|10=120|
8=FIX.4.4|9=0067|35=A|34=1|49=EXC|56=073|52=20190716-16:40:36.373|98=0|108=30|141=Y|10=021|
8=FIX.4.4|9=110|35=A|34=1|49=073|50=073X01|52=20190715-15:46:47.067|56=EXC|43=N|98=0|108=30|141=Y|553=073FCM001|554=073FCM001|10=130|
8=FIX.4.4|9=0067|35=A|34=1|49=EXC|56=073|52=20190716-16:43:20.369|98=0|108=30|141=Y|10=022|
8=FIX.4.4|9=0049|35=0|34=2|49=EXC|56=073|52=20190716-16:43:50.000|10=177|
8=FIX.4.4|9=59|35=0|34=2|49=073|50=073X01|52=20190715-15:47:18.012|56=EXC|10=081|
8=FIX.4.4|9=0049|35=0|34=3|49=EXC|56=073|52=20190716-16:44:20.000|10=176|
8=FIX.4.4|9=59|35=0|34=3|49=073|50=073X01|52=20190715-15:47:48.038|56=EXC|10=093|
=======
8=FIX.4.4|9=110|35=A|34=1|49=073|50=073X01|52=20190712-20:56:32.070|56=EXC|43=N|98=0|108=30|141=Y|553=073FCM001|554=073FCM001|10=112|
8=FIX.4.4|9=0067|35=A|34=1|49=EXC|56=073|52=20190712-21:31:45.161|98=0|108=30|141=Y|10=008|
8=FIX.4.4|9=0049|35=0|34=2|49=EXC|56=073|52=20190712-21:32:15.000|10=168|
8=FIX.4.4|9=59|35=0|34=2|49=073|50=073X01|52=20190712-20:57:03.009|56=EXC|10=075|
8=FIX.4.4|9=0049|35=0|34=3|49=EXC|56=073|52=20190712-21:32:45.000|10=172|
8=FIX.4.4|9=59|35=0|34=3|49=073|50=073X01|52=20190712-20:57:33.008|56=EXC|10=078|
8=FIX.4.4|9=110|35=A|34=1|49=073|50=073X01|52=20190714-00:01:28.530|56=EXC|43=N|98=0|108=30|141=Y|553=073FCM001|554=073FCM001|10=108|
8=FIX.4.4|9=0067|35=A|34=1|49=EXC|56=073|52=20190716-17:40:38.631|98=0|108=30|141=Y|10=021|
8=FIX.4.4|9=0049|35=0|34=2|49=EXC|56=073|52=20190716-17:41:08.000|10=179|
8=FIX.4.4|9=59|35=0|34=2|49=073|50=073X01|52=20190714-00:01:59.516|56=EXC|10=078|
8=FIX.4.4|9=110|35=A|34=1|49=073|50=073X01|52=20190714-00:12:53.159|56=EXC|43=N|98=0|108=30|141=Y|553=073FCM001|554=073FCM001|10=115|
8=FIX.4.4|9=0067|35=A|34=1|49=EXC|56=073|52=20190716-17:52:03.272|98=0|108=30|141=Y|10=017|
8=FIX.4.4|9=110|35=A|34=1|49=073|50=073X01|52=20190714-01:40:48.924|56=EXC|43=N|98=0|108=30|141=Y|553=073FCM001|554=073FCM001|10=121|
8=FIX.4.4|9=0067|35=A|34=1|49=EXC|56=073|52=20190716-16:00:59.016|98=0|108=30|141=Y|10=016|
8=FIX.4.4|9=59|35=0|34=2|49=073|50=073X01|52=20190714-01:41:18.925|56=EXC|10=082|
8=FIX.4.4|9=0049|35=0|34=2|49=EXC|56=073|52=20190716-16:01:29.000|10=177|
8=FIX.4.4|9=110|35=A|34=1|49=073|50=073X01|52=20190714-01:44:26.433|56=EXC|43=N|98=0|108=30|141=Y|553=073FCM001|554=073FCM001|10=116|
8=FIX.4.4|9=0067|35=A|34=1|49=EXC|56=073|52=20190716-16:04:36.528|98=0|108=30|141=Y|10=023|
8=FIX.4.4|9=0049|35=0|34=2|49=EXC|56=073|52=20190716-16:05:06.000|10=176|
8=FIX.4.4|9=59|35=0|34=2|49=073|50=073X01|52=20190714-01:44:57.396|56=EXC|10=090|
8=FIX.4.4|9=0049|35=0|34=3|49=EXC|56=073|52=20190716-16:05:36.000|10=180|
8=FIX.4.4|9=59|35=0|34=3|49=073|50=073X01|52=20190714-01:45:27.402|56=EXC|10=077|
8=FIX.4.4|9=110|35=A|34=1|49=073|50=073X01|52=20190714-01:58:41.128|56=EXC|43=N|98=0|108=30|141=Y|553=073FCM001|554=073FCM001|10=119|
8=FIX.4.4|9=0067|35=A|34=1|49=EXC|56=073|52=20190716-16:18:51.213|98=0|108=30|141=Y|10=016|
8=FIX.4.4|9=0049|35=0|34=2|49=EXC|56=073|52=20190716-16:19:21.000|10=178|
8=FIX.4.4|9=59|35=0|34=2|49=073|50=073X01|52=20190714-01:59:12.102|56=EXC|10=072|
8=FIX.4.4|9=110|35=A|34=1|49=073|50=073X01|52=20190714-03:12:45.749|56=EXC|43=N|98=0|108=30|141=Y|553=073FCM001|554=073FCM001|10=124|
8=FIX.4.4|9=0067|35=A|34=1|49=EXC|56=073|52=20190716-17:32:55.844|98=0|108=30|141=Y|10=027|
8=FIX.4.4|9=0049|35=0|34=2|49=EXC|56=073|52=20190716-17:33:25.000|10=179|
8=FIX.4.4|9=59|35=0|34=2|49=073|50=073X01|52=20190714-03:13:16.720|56=EXC|10=074|
8=FIX.4.4|9=0049|35=0|34=3|49=EXC|56=073|52=20190716-17:33:55.000|10=183|
8=FIX.4.4|9=59|35=0|34=3|49=073|50=073X01|52=20190714-03:13:46.720|56=EXC|10=078|
8=FIX.4.4|9=110|35=A|34=1|49=073|50=073X01|52=20190714-03:19:37.145|56=EXC|43=N|98=0|108=30|141=Y|553=073FCM001|554=073FCM001|10=122|
8=FIX.4.4|9=0067|35=A|34=1|49=EXC|56=073|52=20190716-17:39:47.244|98=0|108=30|141=Y|10=029|
8=FIX.4.4|9=0049|35=0|34=2|49=EXC|56=073|52=20190716-17:40:17.000|10=178|
8=FIX.4.4|9=110|35=A|34=1|49=073|50=073X01|52=20190714-03:22:45.021|56=EXC|43=N|98=0|108=30|141=Y|553=073FCM001|554=073FCM001|10=108|
8=FIX.4.4|9=0067|35=A|34=1|49=EXC|56=073|52=20190716-17:42:55.113|98=0|108=30|141=Y|10=017|
8=FIX.4.4|9=0049|35=0|34=2|49=EXC|56=073|52=20190716-17:43:25.000|10=180|
8=FIX.4.4|9=59|35=0|34=2|49=073|50=073X01|52=20190714-03:23:15.994|56=EXC|10=087|
8=FIX.4.4|9=59|35=5|34=3|49=073|50=073X01|52=20190714-03:23:27.994|56=EXC|10=096|
8=FIX.4.4|9=0049|35=5|34=3|49=EXC|56=073|52=20190716-17:43:38.074|10=201|
8=FIX.4.4|9=110|35=A|34=1|49=073|50=073X01|52=20190715-13:08:35.787|56=EXC|43=N|98=0|108=30|141=Y|553=073FCM001|554=073FCM001|10=132|
8=FIX.4.4|9=0067|35=A|34=1|49=EXC|56=073|52=20190716-15:06:03.851|98=0|108=30|141=Y|10=017|
8=FIX.4.4|9=0049|35=0|34=2|49=EXC|56=073|52=20190716-15:06:33.000|10=176|
8=FIX.4.4|9=59|35=0|34=2|49=073|50=073X01|52=20190715-13:09:06.761|56=EXC|10=085|
8=FIX.4.4|9=0049|35=0|34=3|49=EXC|56=073|52=20190716-15:07:03.000|10=175|
8=FIX.4.4|9=59|35=0|34=3|49=073|50=073X01|52=20190715-13:09:36.763|56=EXC|10=091|
8=FIX.4.4|9=110|35=A|34=1|49=073|50=073X01|52=20190715-13:10:01.767|56=EXC|43=N|98=0|108=30|141=Y|553=073FCM001|554=073FCM001|10=116|
8=FIX.4.4|9=110|35=A|34=1|49=073|50=073X01|52=20190715-13:27:08.497|56=EXC|43=N|98=0|108=30|141=Y|553=073FCM001|554=073FCM001|10=131|
8=FIX.4.4|9=0067|35=A|34=1|49=EXC|56=073|52=20190716-15:24:36.571|98=0|108=30|141=Y|10=022|
8=FIX.4.4|9=0049|35=0|34=2|49=EXC|56=073|52=20190716-15:25:06.000|10=177|
8=FIX.4.4|9=59|35=0|34=2|49=073|50=073X01|52=20190715-13:27:38.489|56=EXC|10=097|
8=FIX.4.4|9=0049|35=0|34=3|49=EXC|56=073|52=20190716-15:25:36.000|10=181|
8=FIX.4.4|9=59|35=0|34=3|49=073|50=073X01|52=20190715-13:28:08.488|56=EXC|10=095|
8=FIX.4.4|9=0049|35=0|34=4|49=EXC|56=073|52=20190716-15:26:06.000|10=180|
8=FIX.4.4|9=59|35=0|34=4|49=073|50=073X01|52=20190715-13:28:38.483|56=EXC|10=094|
8=FIX.4.4|9=110|35=A|34=1|49=073|50=073X01|52=20190715-16:11:12.885|56=EXC|43=N|98=0|108=30|141=Y|553=073FCM001|554=073FCM001|10=123|
8=FIX.4.4|9=0067|35=A|34=1|49=EXC|56=073|52=20190716-17:01:40.955|98=0|108=30|141=Y|10=020|
8=FIX.4.4|9=0049|35=0|34=2|49=EXC|56=073|52=20190716-17:02:10.000|10=169|
8=FIX.4.4|9=59|35=0|34=2|49=073|50=073X01|52=20190715-16:11:43.825|56=EXC|10=083|
8=FIX.4.4|9=0049|35=0|34=3|49=EXC|56=073|52=20190716-17:02:40.000|10=173|
8=FIX.4.4|9=59|35=0|34=3|49=073|50=073X01|52=20190715-16:12:13.823|56=EXC|10=080|
8=FIX.4.4|9=0049|35=0|34=4|49=EXC|56=073|52=20190716-17:03:10.000|10=172|
8=FIX.4.4|9=59|35=0|34=4|49=073|50=073X01|52=20190715-16:12:43.824|56=EXC|10=085|
8=FIX.4.4|9=0049|35=0|34=5|49=EXC|56=073|52=20190716-17:03:40.000|10=176|
8=FIX.4.4|9=59|35=0|34=5|49=073|50=073X01|52=20190715-16:13:13.825|56=EXC|10=085|
8=FIX.4.4|9=0049|35=0|34=6|49=EXC|56=073|52=20190716-17:04:10.000|10=175|
8=FIX.4.4|9=59|35=0|34=6|49=073|50=073X01|52=20190715-16:13:43.824|56=EXC|10=088|
8=FIX.4.4|9=0049|35=0|34=7|49=EXC|56=073|52=20190716-17:04:40.000|10=179|
8=FIX.4.4|9=59|35=0|34=7|49=073|50=073X01|52=20190715-16:14:13.824|56=EXC|10=087|
8=FIX.4.4|9=0049|35=0|34=8|49=EXC|56=073|52=20190716-17:05:10.000|10=178|
8=FIX.4.4|9=59|35=0|34=8|49=073|50=073X01|52=20190715-16:14:43.824|56=EXC|10=091|
8=FIX.4.4|9=0049|35=0|34=9|49=EXC|56=073|52=20190716-17:05:40.000|10=182|
8=FIX.4.4|9=59|35=0|34=9|49=073|50=073X01|52=20190715-16:15:13.825|56=EXC|10=091|
8=FIX.4.4|9=0050|35=0|34=10|49=EXC|56=073|52=20190716-17:06:10.000|10=212|
8=FIX.4.4|9=60|35=0|34=10|49=073|50=073X01|52=20190715-16:15:43.825|56=EXC|10=126|
8=FIX.4.4|9=0050|35=0|34=11|49=EXC|56=073|52=20190716-17:06:40.000|10=216|
8=FIX.4.4|9=60|35=0|34=11|49=073|50=073X01|52=20190715-16:16:13.824|56=EXC|10=124|
8=FIX.4.4|9=0050|35=0|34=12|49=EXC|56=073|52=20190716-17:07:10.000|10=215|
8=FIX.4.4|9=60|35=0|34=12|49=073|50=073X01|52=20190715-16:16:43.824|56=EXC|10=128|
<<<<<<< HEAD
>>>>>>> 6d7e9ce7e8f42ac20f0de084aa3de07af4ab14a8
=======
8=FIX.4.4|9=110|35=A|34=1|49=073|50=073X01|52=20190715-19:28:47.449|56=EXC|43=N|98=0|108=30|141=Y|553=073FCM001|554=073FCM001|10=138|
8=FIX.4.4|9=0067|35=A|34=1|49=EXC|56=073|52=20190716-15:22:32.535|98=0|108=30|141=Y|10=016|
8=FIX.4.4|9=0049|35=0|34=2|49=EXC|56=073|52=20190716-15:23:02.000|10=171|
8=FIX.4.4|9=59|35=0|34=2|49=073|50=073X01|52=20190715-19:29:18.375|56=EXC|10=097|
8=FIX.4.4|9=0049|35=0|34=3|49=EXC|56=073|52=20190716-15:23:32.000|10=175|
8=FIX.4.4|9=59|35=0|34=3|49=073|50=073X01|52=20190715-19:29:48.375|56=EXC|10=101|
8=FIX.4.4|9=0049|35=0|34=4|49=EXC|56=073|52=20190716-15:24:02.000|10=174|
8=FIX.4.4|9=59|35=0|34=4|49=073|50=073X01|52=20190715-19:30:18.377|56=EXC|10=093|
8=FIX.4.4|9=110|35=A|34=1|49=073|50=073X01|52=20190715-20:35:15.538|56=EXC|43=N|98=0|108=30|141=Y|553=073FCM001|554=073FCM001|10=122|
8=FIX.4.4|9=0067|35=A|34=1|49=EXC|56=073|52=20190716-16:29:00.614|98=0|108=30|141=Y|10=017|
8=FIX.4.4|9=0049|35=0|34=2|49=EXC|56=073|52=20190716-16:29:30.000|10=179|
8=FIX.4.4|9=59|35=0|34=2|49=073|50=073X01|52=20190715-20:35:46.516|56=EXC|10=084|
8=FIX.4.4|9=0049|35=0|34=3|49=EXC|56=073|52=20190716-16:30:00.000|10=169|
8=FIX.4.4|9=59|35=0|34=3|49=073|50=073X01|52=20190715-20:36:16.516|56=EXC|10=083|
8=FIX.4.4|9=0049|35=0|34=4|49=EXC|56=073|52=20190716-16:30:30.000|10=173|
8=FIX.4.4|9=59|35=0|34=4|49=073|50=073X01|52=20190715-20:36:46.517|56=EXC|10=088|
8=FIX.4.4|9=0049|35=0|34=5|49=EXC|56=073|52=20190716-16:31:00.000|10=172|
8=FIX.4.4|9=59|35=0|34=5|49=073|50=073X01|52=20190715-20:37:16.518|56=EXC|10=088|
8=FIX.4.4|9=0049|35=0|34=6|49=EXC|56=073|52=20190716-16:31:30.000|10=176|
8=FIX.4.4|9=59|35=0|34=6|49=073|50=073X01|52=20190715-20:37:46.517|56=EXC|10=091|
8=FIX.4.4|9=0049|35=0|34=7|49=EXC|56=073|52=20190716-16:32:00.000|10=175|
8=FIX.4.4|9=59|35=0|34=7|49=073|50=073X01|52=20190715-20:38:16.516|56=EXC|10=089|
8=FIX.4.4|9=0049|35=0|34=8|49=EXC|56=073|52=20190716-16:32:30.000|10=179|
8=FIX.4.4|9=59|35=0|34=8|49=073|50=073X01|52=20190715-20:38:46.516|56=EXC|10=093|
8=FIX.4.4|9=0049|35=0|34=9|49=EXC|56=073|52=20190716-16:33:00.000|10=178|
8=FIX.4.4|9=59|35=0|34=9|49=073|50=073X01|52=20190715-20:39:16.517|56=EXC|10=093|
8=FIX.4.4|9=0050|35=0|34=10|49=EXC|56=073|52=20190716-16:33:30.000|10=213|
8=FIX.4.4|9=60|35=0|34=10|49=073|50=073X01|52=20190715-20:39:46.516|56=EXC|10=127|
8=FIX.4.4|9=0050|35=0|34=11|49=EXC|56=073|52=20190716-16:34:00.000|10=212|
8=FIX.4.4|9=60|35=0|34=11|49=073|50=073X01|52=20190715-20:40:16.518|56=EXC|10=119|
8=FIX.4.4|9=0050|35=0|34=12|49=EXC|56=073|52=20190716-16:34:30.000|10=216|
8=FIX.4.4|9=60|35=0|34=12|49=073|50=073X01|52=20190715-20:40:46.524|56=EXC|10=120|
8=FIX.4.4|9=0050|35=0|34=13|49=EXC|56=073|52=20190716-16:35:00.000|10=215|
8=FIX.4.4|9=60|35=0|34=13|49=073|50=073X01|52=20190715-20:41:16.518|56=EXC|10=122|
8=FIX.4.4|9=0050|35=0|34=14|49=EXC|56=073|52=20190716-16:35:30.000|10=219|
8=FIX.4.4|9=60|35=0|34=14|49=073|50=073X01|52=20190715-20:41:46.518|56=EXC|10=126|
8=FIX.4.4|9=0050|35=0|34=15|49=EXC|56=073|52=20190716-16:36:00.000|10=218|
8=FIX.4.4|9=60|35=0|34=15|49=073|50=073X01|52=20190715-20:42:16.517|56=EXC|10=124|
8=FIX.4.4|9=0050|35=0|34=16|49=EXC|56=073|52=20190716-16:36:30.000|10=222|
8=FIX.4.4|9=60|35=0|34=16|49=073|50=073X01|52=20190715-20:42:46.517|56=EXC|10=128|
8=FIX.4.4|9=0050|35=0|34=17|49=EXC|56=073|52=20190716-16:37:00.000|10=221|
8=FIX.4.4|9=60|35=0|34=17|49=073|50=073X01|52=20190715-20:43:16.517|56=EXC|10=127|
8=FIX.4.4|9=0050|35=0|34=18|49=EXC|56=073|52=20190716-16:37:30.000|10=225|
8=FIX.4.4|9=60|35=0|34=18|49=073|50=073X01|52=20190715-20:43:46.517|56=EXC|10=131|
8=FIX.4.4|9=0050|35=0|34=19|49=EXC|56=073|52=20190716-16:38:00.000|10=224|
8=FIX.4.4|9=60|35=0|34=19|49=073|50=073X01|52=20190715-20:44:16.517|56=EXC|10=130|
8=FIX.4.4|9=0050|35=0|34=20|49=EXC|56=073|52=20190716-16:38:30.000|10=219|
8=FIX.4.4|9=60|35=0|34=20|49=073|50=073X01|52=20190715-20:44:46.518|56=EXC|10=126|
8=FIX.4.4|9=0050|35=0|34=21|49=EXC|56=073|52=20190716-16:39:00.000|10=218|
8=FIX.4.4|9=60|35=0|34=21|49=073|50=073X01|52=20190715-20:45:16.518|56=EXC|10=125|
8=FIX.4.4|9=0050|35=0|34=22|49=EXC|56=073|52=20190716-16:39:30.000|10=222|
8=FIX.4.4|9=60|35=0|34=22|49=073|50=073X01|52=20190715-20:45:46.519|56=EXC|10=130|
8=FIX.4.4|9=110|35=A|34=1|49=073|50=073X01|52=20190715-20:47:26.172|56=EXC|43=N|98=0|108=30|141=Y|553=073FCM001|554=073FCM001|10=121|
8=FIX.4.4|9=0067|35=A|34=1|49=EXC|56=073|52=20190716-16:41:11.248|98=0|108=30|141=Y|10=016|
8=FIX.4.4|9=0049|35=0|34=2|49=EXC|56=073|52=20190716-16:41:41.000|10=175|
8=FIX.4.4|9=59|35=0|34=2|49=073|50=073X01|52=20190715-20:47:57.150|56=EXC|10=083|
8=FIX.4.4|9=0049|35=0|34=3|49=EXC|56=073|52=20190716-16:42:11.000|10=174|
8=FIX.4.4|9=59|35=0|34=3|49=073|50=073X01|52=20190715-20:48:27.150|56=EXC|10=082|
8=FIX.4.4|9=0049|35=0|34=4|49=EXC|56=073|52=20190716-16:42:41.000|10=178|
8=FIX.4.4|9=59|35=0|34=4|49=073|50=073X01|52=20190715-20:48:57.151|56=EXC|10=087|
8=FIX.4.4|9=0049|35=0|34=5|49=EXC|56=073|52=20190716-16:43:11.000|10=177|
8=FIX.4.4|9=59|35=0|34=5|49=073|50=073X01|52=20190715-20:49:27.150|56=EXC|10=085|
8=FIX.4.4|9=0049|35=0|34=6|49=EXC|56=073|52=20190716-16:43:41.000|10=181|
8=FIX.4.4|9=59|35=0|34=6|49=073|50=073X01|52=20190715-20:49:57.151|56=EXC|10=090|
8=FIX.4.4|9=0049|35=0|34=7|49=EXC|56=073|52=20190716-16:44:11.000|10=180|
8=FIX.4.4|9=59|35=0|34=7|49=073|50=073X01|52=20190715-20:50:27.150|56=EXC|10=079|
8=FIX.4.4|9=0049|35=0|34=8|49=EXC|56=073|52=20190716-16:44:41.000|10=184|
8=FIX.4.4|9=59|35=0|34=8|49=073|50=073X01|52=20190715-20:50:57.151|56=EXC|10=084|
8=FIX.4.4|9=0049|35=0|34=9|49=EXC|56=073|52=20190716-16:45:11.000|10=183|
8=FIX.4.4|9=59|35=0|34=9|49=073|50=073X01|52=20190715-20:51:27.152|56=EXC|10=084|
8=FIX.4.4|9=0050|35=0|34=10|49=EXC|56=073|52=20190716-16:45:41.000|10=218|
8=FIX.4.4|9=60|35=0|34=10|49=073|50=073X01|52=20190715-20:51:57.150|56=EXC|10=117|
8=FIX.4.4|9=0050|35=0|34=11|49=EXC|56=073|52=20190716-16:46:11.000|10=217|
8=FIX.4.4|9=60|35=0|34=11|49=073|50=073X01|52=20190715-20:52:27.151|56=EXC|10=117|
8=FIX.4.4|9=0050|35=0|34=12|49=EXC|56=073|52=20190716-16:46:41.000|10=221|
8=FIX.4.4|9=60|35=0|34=12|49=073|50=073X01|52=20190715-20:52:57.151|56=EXC|10=121|
8=FIX.4.4|9=0050|35=0|34=13|49=EXC|56=073|52=20190716-16:47:11.000|10=220|
8=FIX.4.4|9=60|35=0|34=13|49=073|50=073X01|52=20190715-20:53:27.151|56=EXC|10=120|
8=FIX.4.4|9=0050|35=0|34=14|49=EXC|56=073|52=20190716-16:47:41.000|10=224|
8=FIX.4.4|9=60|35=0|34=14|49=073|50=073X01|52=20190715-20:53:57.151|56=EXC|10=124|
8=FIX.4.4|9=0050|35=0|34=15|49=EXC|56=073|52=20190716-16:48:11.000|10=223|
8=FIX.4.4|9=60|35=0|34=15|49=073|50=073X01|52=20190715-20:54:27.151|56=EXC|10=123|
8=FIX.4.4|9=0050|35=0|34=16|49=EXC|56=073|52=20190716-16:48:41.000|10=227|
8=FIX.4.4|9=60|35=0|34=16|49=073|50=073X01|52=20190715-20:54:57.152|56=EXC|10=128|
8=FIX.4.4|9=0050|35=0|34=17|49=EXC|56=073|52=20190716-16:49:11.000|10=226|
8=FIX.4.4|9=60|35=0|34=17|49=073|50=073X01|52=20190715-20:55:27.151|56=EXC|10=126|
8=FIX.4.4|9=0050|35=0|34=18|49=EXC|56=073|52=20190716-16:49:41.000|10=230|
8=FIX.4.4|9=60|35=0|34=18|49=073|50=073X01|52=20190715-20:55:57.151|56=EXC|10=130|
8=FIX.4.4|9=0050|35=0|34=19|49=EXC|56=073|52=20190716-16:50:11.000|10=220|
8=FIX.4.4|9=60|35=0|34=19|49=073|50=073X01|52=20190715-20:56:27.151|56=EXC|10=129|
8=FIX.4.4|9=0050|35=0|34=20|49=EXC|56=073|52=20190716-16:50:41.000|10=215|
8=FIX.4.4|9=60|35=0|34=20|49=073|50=073X01|52=20190715-20:56:57.152|56=EXC|10=125|
8=FIX.4.4|9=0050|35=0|34=21|49=EXC|56=073|52=20190716-16:51:11.000|10=214|
8=FIX.4.4|9=60|35=0|34=21|49=073|50=073X01|52=20190715-20:57:27.162|56=EXC|10=125|
8=FIX.4.4|9=0050|35=0|34=22|49=EXC|56=073|52=20190716-16:51:41.000|10=218|
8=FIX.4.4|9=60|35=0|34=22|49=073|50=073X01|52=20190715-20:57:58.153|56=EXC|10=130|
8=FIX.4.4|9=0050|35=0|34=23|49=EXC|56=073|52=20190716-16:52:11.000|10=217|
8=FIX.4.4|9=60|35=0|34=23|49=073|50=073X01|52=20190715-20:58:28.152|56=EXC|10=128|
8=FIX.4.4|9=0050|35=0|34=24|49=EXC|56=073|52=20190716-16:52:41.000|10=221|
8=FIX.4.4|9=60|35=0|34=24|49=073|50=073X01|52=20190715-20:58:58.152|56=EXC|10=132|
8=FIX.4.4|9=0050|35=0|34=25|49=EXC|56=073|52=20190716-16:53:11.000|10=220|
8=FIX.4.4|9=60|35=0|34=25|49=073|50=073X01|52=20190715-20:59:28.151|56=EXC|10=130|
8=FIX.4.4|9=0050|35=0|34=26|49=EXC|56=073|52=20190716-16:53:41.000|10=224|
8=FIX.4.4|9=60|35=0|34=26|49=073|50=073X01|52=20190715-20:59:58.151|56=EXC|10=134|
8=FIX.4.4|9=0050|35=0|34=27|49=EXC|56=073|52=20190716-16:54:11.000|10=223|
8=FIX.4.4|9=60|35=0|34=27|49=073|50=073X01|52=20190715-21:00:28.151|56=EXC|10=119|
8=FIX.4.4|9=0050|35=0|34=28|49=EXC|56=073|52=20190716-16:54:41.000|10=227|
8=FIX.4.4|9=60|35=0|34=28|49=073|50=073X01|52=20190715-21:00:58.152|56=EXC|10=124|
8=FIX.4.4|9=0050|35=0|34=29|49=EXC|56=073|52=20190716-16:55:11.000|10=226|
8=FIX.4.4|9=60|35=0|34=29|49=073|50=073X01|52=20190715-21:01:28.152|56=EXC|10=123|
8=FIX.4.4|9=0050|35=0|34=30|49=EXC|56=073|52=20190716-16:55:41.000|10=221|
8=FIX.4.4|9=60|35=0|34=30|49=073|50=073X01|52=20190715-21:01:58.152|56=EXC|10=118|
8=FIX.4.4|9=0050|35=0|34=31|49=EXC|56=073|52=20190716-16:56:11.000|10=220|
>>>>>>> 5d4ed098bb2204ed7fc34799dbfeb53acad34fdf
