8=FIX.4.4|9=105|35=A|34=1|49=002|50=002B35|52=20190620-21:31:23.050|56=EXC|98=0|108=30|141=Y|553=002FCM001|554=002FCM001|10=072|
8=FIX.4.4|9=0067|35=A|34=1|49=EXC|56=002|52=20190620-21:31:23.583|98=0|108=30|141=Y|10=002|
8=FIX.4.4|9=105|35=A|34=1|49=002|50=002B35|52=20190620-21:41:55.243|56=EXC|98=0|108=30|141=Y|553=002FCM001|554=002FCM001|10=082|
8=FIX.4.4|9=0067|35=A|34=1|49=EXC|56=002|52=20190620-21:41:55.365|98=0|108=30|141=Y|10=006|
8=FIX.4.4|9=105|35=A|34=1|49=002|50=002B35|52=20190620-21:42:43.992|56=EXC|98=0|108=30|141=Y|553=002FCM001|554=002FCM001|10=091|
8=FIX.4.4|9=0067|35=A|34=1|49=EXC|56=002|52=20190620-21:42:44.075|98=0|108=30|141=Y|10=003|
8=FIX.4.4|9=105|35=A|34=1|49=002|50=002B35|52=20190620-21:54:13.017|56=EXC|98=0|108=30|141=Y|553=002FCM001|554=002FCM001|10=079|
8=FIX.4.4|9=0067|35=A|34=1|49=EXC|56=002|52=20190620-21:54:13.415|98=0|108=30|141=Y|10=000|
8=FIX.4.4|9=105|35=A|34=1|49=002|50=002B35|52=20190620-21:59:27.541|56=EXC|98=0|108=30|141=Y|553=002FCM001|554=002FCM001|10=091|
8=FIX.4.4|9=0067|35=A|34=1|49=EXC|56=002|52=20190620-21:59:28.013|98=0|108=30|141=Y|10=005|
8=FIX.4.4|9=105|35=A|34=1|49=002|50=002B35|52=20190621-13:46:46.394|56=EXC|98=0|108=30|141=Y|553=002FCM001|554=002FCM001|10=096|
8=FIX.4.4|9=0067|35=A|34=1|49=EXC|56=002|52=20190621-13:46:46.427|98=0|108=30|141=Y|10=012|
8=FIX.4.4|9=105|35=A|34=1|49=002|50=002B35|52=20190621-13:51:58.435|56=EXC|98=0|108=30|141=Y|553=002FCM001|554=002FCM001|10=091|
8=FIX.4.4|9=0067|35=A|34=1|49=EXC|56=002|52=20190621-13:51:58.467|98=0|108=30|141=Y|10=015|
8=FIX.4.4|9=105|35=A|34=1|49=002|50=002B35|52=20190621-14:01:12.650|56=EXC|98=0|108=30|141=Y|553=002FCM001|554=002FCM001|10=076|
8=FIX.4.4|9=0067|35=A|34=1|49=EXC|56=002|52=20190621-14:01:12.688|98=0|108=30|141=Y|10=006|
8=FIX.4.4|9=105|35=A|34=1|49=002|50=002B35|52=20190621-14:02:04.293|56=EXC|98=0|108=30|141=Y|553=002FCM001|554=002FCM001|10=081|
8=FIX.4.4|9=0067|35=A|34=1|49=EXC|56=002|52=20190621-14:02:04.329|98=0|108=30|141=Y|10=000|
8=FIX.4.4|9=105|35=A|34=1|49=002|50=002B35|52=20190621-15:58:27.413|56=EXC|98=0|108=30|141=Y|553=002FCM001|554=002FCM001|10=092|
8=FIX.4.4|9=0067|35=A|34=1|49=EXC|56=002|52=20190621-15:58:27.456|98=0|108=30|141=Y|10=018|
8=FIX.4.4|9=105|35=A|34=1|49=002|50=002B35|52=20190621-16:01:48.308|56=EXC|98=0|108=30|141=Y|553=002FCM001|554=002FCM001|10=087|
8=FIX.4.4|9=0067|35=A|34=1|49=EXC|56=002|52=20190621-16:01:48.355|98=0|108=30|141=Y|10=008|
8=FIX.4.4|9=105|35=A|34=1|49=002|50=002B35|52=20190621-16:17:31.152|56=EXC|98=0|108=30|141=Y|553=002FCM001|554=002FCM001|10=083|
8=FIX.4.4|9=0067|35=A|34=1|49=EXC|56=002|52=20190621-16:17:31.193|98=0|108=30|141=Y|10=007|
8=FIX.4.4|9=105|35=A|34=1|49=002|50=002B35|52=20190621-16:24:24.215|56=EXC|98=0|108=30|141=Y|553=002FCM001|554=002FCM001|10=083|
8=FIX.4.4|9=0067|35=A|34=1|49=EXC|56=002|52=20190621-16:24:24.268|98=0|108=30|141=Y|10=010|
8=FIX.4.4|9=105|35=A|34=1|49=002|50=002B35|52=20190621-16:29:19.146|56=EXC|98=0|108=30|141=Y|553=002FCM001|554=002FCM001|10=095|
8=FIX.4.4|9=0067|35=A|34=1|49=EXC|56=002|52=20190621-16:29:19.194|98=0|108=30|141=Y|10=017|
8=FIX.4.4|9=105|35=A|34=1|49=002|50=002B35|52=20190625-14:28:25.971|56=EXC|98=0|108=30|141=Y|553=002FCM001|554=002FCM001|10=099|
8=FIX.4.4|9=0067|35=A|34=1|49=EXC|56=002|52=20190627-14:28:15.663|98=0|108=30|141=Y|10=017|
8=FIX.4.4|9=105|35=A|34=1|49=002|50=002B35|52=20190625-14:51:25.893|56=EXC|98=0|108=30|141=Y|553=002FCM001|554=002FCM001|10=098|
8=FIX.4.4|9=0067|35=A|34=1|49=EXC|56=002|52=20190627-14:51:15.588|98=0|108=30|141=Y|10=019|
8=FIX.4.4|9=105|35=A|34=1|49=002|50=002B35|52=20190625-19:44:14.934|56=EXC|98=0|108=30|141=Y|553=002FCM001|554=002FCM001|10=099|
8=FIX.4.4|9=0067|35=A|34=1|49=EXC|56=002|52=20190627-19:44:14.990|98=0|108=30|141=Y|10=022|
8=FIX.4.4|9=105|35=A|34=1|49=002|50=002B35|52=20190625-19:45:34.998|56=EXC|98=0|108=30|141=Y|553=002FCM001|554=002FCM001|10=112|
8=FIX.4.4|9=0067|35=A|34=1|49=EXC|56=002|52=20190627-19:45:35.030|98=0|108=30|141=Y|10=011|
8=FIX.4.4|9=105|35=A|34=1|49=002|50=002B35|52=20190625-19:54:23.760|56=EXC|98=0|108=30|141=Y|553=002FCM001|554=002FCM001|10=097|
8=FIX.4.4|9=0067|35=A|34=1|49=EXC|56=002|52=20190627-19:54:23.825|98=0|108=30|141=Y|10=020|
8=FIX.4.4|9=105|35=A|34=1|49=002|50=002B35|52=20190625-19:55:23.511|56=EXC|98=0|108=30|141=Y|553=002FCM001|554=002FCM001|10=092|
8=FIX.4.4|9=0067|35=A|34=1|49=EXC|56=002|52=20190627-19:55:23.547|98=0|108=30|141=Y|10=022|
8=FIX.4.4|9=105|35=A|34=1|49=002|50=002B35|52=20190625-20:02:36.427|56=EXC|98=0|108=30|141=Y|553=002FCM001|554=002FCM001|10=086|
8=FIX.4.4|9=0067|35=A|34=1|49=EXC|56=002|52=20190627-20:02:36.504|98=0|108=30|141=Y|10=003|
8=FIX.4.4|9=105|35=A|34=1|49=002|50=002B35|52=20190626-19:09:44.118|56=EXC|98=0|108=30|141=Y|553=002FCM001|554=002FCM001|10=098|
8=FIX.4.4|9=0067|35=A|34=1|49=EXC|56=002|52=20190628-19:09:44.224|98=0|108=30|141=Y|10=017|
8=FIX.4.4|9=105|35=A|34=1|49=002|50=002B35|52=20190626-20:09:29.517|56=EXC|98=0|108=30|141=Y|553=002FCM001|554=002FCM001|10=096|
8=FIX.4.4|9=0067|35=A|34=1|49=EXC|56=002|52=20190628-20:09:29.567|98=0|108=30|141=Y|10=022|
8=FIX.4.4|9=0049|35=0|34=2|49=EXC|56=002|52=20190628-20:09:59.000|10=177|
8=FIX.4.4|9=59|35=0|34=2|49=002|50=002B35|52=20190626-20:10:00.453|56=EXC|10=037|
8=FIX.4.4|9=105|35=A|34=1|49=002|50=002B35|52=20190626-20:10:59.826|56=EXC|98=0|108=30|141=Y|553=002FCM001|554=002FCM001|10=094|
8=FIX.4.4|9=0067|35=A|34=1|49=EXC|56=002|52=20190628-20:10:59.918|98=0|108=30|141=Y|10=017|
8=FIX.4.4|9=0049|35=0|34=2|49=EXC|56=002|52=20190628-20:11:29.000|10=167|
8=FIX.4.4|9=59|35=0|34=2|49=002|50=002B35|52=20190626-20:11:30.741|56=EXC|10=041|
8=FIX.4.4|9=105|35=A|34=1|49=002|50=002B35|52=20190626-20:16:07.771|56=EXC|98=0|108=30|141=Y|553=002FCM001|554=002FCM001|10=092|
8=FIX.4.4|9=0067|35=A|34=1|49=EXC|56=002|52=20190628-20:16:07.878|98=0|108=30|141=Y|10=021|
8=FIX.4.4|9=105|35=A|34=1|49=002|50=002B35|52=20190626-20:20:26.257|56=EXC|98=0|108=30|141=Y|553=002FCM001|554=002FCM001|10=087|
8=FIX.4.4|9=0067|35=A|34=1|49=EXC|56=002|52=20190628-20:20:26.320|98=0|108=30|141=Y|10=255|
8=FIX.4.4|9=105|35=A|34=1|49=002|50=002B35|52=20190626-20:34:32.379|56=EXC|98=0|108=30|141=Y|553=002FCM001|554=002FCM001|10=094|
8=FIX.4.4|9=0067|35=A|34=1|49=EXC|56=002|52=20190628-20:34:32.436|98=0|108=30|141=Y|10=009|
8=FIX.4.4|9=105|35=A|34=1|49=002|50=002B35|52=20190626-20:45:46.221|56=EXC|98=0|108=30|141=Y|553=002FCM001|554=002FCM001|10=087|
8=FIX.4.4|9=0067|35=A|34=1|49=EXC|56=002|52=20190628-20:45:46.291|98=0|108=30|141=Y|10=015|
8=FIX.4.4|9=0049|35=0|34=2|49=EXC|56=002|52=20190628-20:46:16.000|10=171|
8=FIX.4.4|9=59|35=0|34=2|49=002|50=002B35|52=20190626-20:46:17.097|56=EXC|10=058|
8=FIX.4.4|9=0049|35=0|34=3|49=EXC|56=002|52=20190628-20:46:46.000|10=175|
8=FIX.4.4|9=59|35=0|34=3|49=002|50=002B35|52=20190626-20:46:47.098|56=EXC|10=063|
8=FIX.4.4|9=0049|35=0|34=4|49=EXC|56=002|52=20190628-20:47:16.000|10=174|
8=FIX.4.4|9=59|35=0|34=4|49=002|50=002B35|52=20190626-20:47:17.096|56=EXC|10=060|
8=FIX.4.4|9=105|35=A|34=1|49=002|50=002B35|52=20190626-20:47:57.527|56=EXC|98=0|108=30|141=Y|553=002FCM001|554=002FCM001|10=100|
8=FIX.4.4|9=0067|35=A|34=1|49=EXC|56=002|52=20190628-20:47:57.608|98=0|108=30|141=Y|10=021|
8=FIX.4.4|9=105|35=A|34=1|49=002|50=002B35|52=20190626-21:05:42.425|56=EXC|98=0|108=30|141=Y|553=002FCM001|554=002FCM001|10=086|
8=FIX.4.4|9=0067|35=A|34=1|49=EXC|56=002|52=20190628-21:05:41.976|98=0|108=30|141=Y|10=017|
8=FIX.4.4|9=105|35=A|34=1|49=002|50=002B35|52=20190626-21:06:19.663|56=EXC|98=0|108=30|141=Y|553=002FCM001|554=002FCM001|10=095|
8=FIX.4.4|9=0067|35=A|34=1|49=EXC|56=002|52=20190628-21:06:19.176|98=0|108=30|141=Y|10=015|
8=FIX.4.4|9=105|35=A|34=1|49=002|50=002B35|52=20190626-21:07:10.482|56=EXC|98=0|108=30|141=Y|553=002FCM001|554=002FCM001|10=086|
8=FIX.4.4|9=0067|35=A|34=1|49=EXC|56=002|52=20190628-21:07:10.015|98=0|108=30|141=Y|10=255|
8=FIX.4.4|9=105|35=A|34=1|49=002|50=002B35|52=20190626-21:09:36.666|56=EXC|98=0|108=30|141=Y|553=002FCM001|554=002FCM001|10=100|
8=FIX.4.4|9=0067|35=A|34=1|49=EXC|56=002|52=20190628-21:09:36.177|98=0|108=30|141=Y|10=018|
8=FIX.4.4|9=105|35=A|34=1|49=002|50=002B35|52=20190626-21:10:30.652|56=EXC|98=0|108=30|141=Y|553=002FCM001|554=002FCM001|10=081|
8=FIX.4.4|9=0067|35=A|34=1|49=EXC|56=002|52=20190628-21:10:30.174|98=0|108=30|141=Y|10=001|
8=FIX.4.4|9=105|35=A|34=1|49=002|50=002B35|52=20190626-21:11:06.654|56=EXC|98=0|108=30|141=Y|553=002FCM001|554=002FCM001|10=087|
8=FIX.4.4|9=0067|35=A|34=1|49=EXC|56=002|52=20190628-21:11:06.172|98=0|108=30|141=Y|10=003|
8=FIX.4.4|9=105|35=A|34=1|49=002|50=002B35|52=20190626-21:25:26.844|56=EXC|98=0|108=30|141=Y|553=002FCM001|554=002FCM001|10=095|
8=FIX.4.4|9=0067|35=A|34=1|49=EXC|56=002|52=20190628-21:25:26.761|98=0|108=30|141=Y|10=014|
8=FIX.4.4|9=0049|35=0|34=2|49=EXC|56=002|52=20190628-21:25:56.000|10=173|
8=FIX.4.4|9=105|35=A|34=1|49=002|50=002B35|52=20190626-21:35:17.708|56=EXC|98=0|108=30|141=Y|553=002FCM001|554=002FCM001|10=095|
8=FIX.4.4|9=0067|35=A|34=1|49=EXC|56=002|52=20190628-21:35:17.806|98=0|108=30|141=Y|10=015|
8=FIX.4.4|9=0049|35=0|34=2|49=EXC|56=002|52=20190628-21:35:47.000|10=174|
8=FIX.4.4|9=59|35=0|34=2|49=002|50=002B35|52=20190626-21:35:48.582|56=EXC|10=060|
8=FIX.4.4|9=105|35=A|34=1|49=002|50=002B35|52=20190626-21:55:41.918|56=EXC|98=0|108=30|141=Y|553=002FCM001|554=002FCM001|10=097|
8=FIX.4.4|9=0067|35=A|34=1|49=EXC|56=002|52=20190628-21:55:41.993|98=0|108=30|141=Y|10=021|
8=FIX.4.4|9=0049|35=0|34=2|49=EXC|56=002|52=20190628-21:56:11.000|10=168|
8=FIX.4.4|9=59|35=0|34=2|49=002|50=002B35|52=20190626-21:56:12.810|56=EXC|10=048|
8=FIX.4.4|9=99|35=A|34=3|49=002|50=002B35|52=20190626-21:56:28.142|56=EXC|98=0|108=30|553=002FCM001|554=002FCM001|10=013|
8=FIX.4.4|9=0061|35=A|34=3|49=EXC|56=002|52=20190628-21:56:28.187|98=0|108=30|10=229|
8=FIX.4.4|9=0049|35=0|34=4|49=EXC|56=002|52=20190628-21:56:58.000|10=181|
8=FIX.4.4|9=59|35=0|34=4|49=002|50=002B35|52=20190626-21:56:59.078|56=EXC|10=067|
8=FIX.4.4|9=105|35=A|34=1|49=002|50=002B35|52=20190626-22:01:39.680|56=EXC|98=0|108=30|141=Y|553=002FCM001|554=002FCM001|10=092|
8=FIX.4.4|9=0067|35=A|34=1|49=EXC|56=002|52=20190628-22:01:39.877|98=0|108=30|141=Y|10=021|
8=FIX.4.4|9=105|35=A|34=1|49=002|50=002B35|52=20190626-22:02:08.450|56=EXC|98=0|108=30|141=Y|553=002FCM001|554=002FCM001|10=084|
8=FIX.4.4|9=0067|35=A|34=1|49=EXC|56=002|52=20190628-22:02:08.681|98=0|108=30|141=Y|10=011|
8=FIX.4.4|9=105|35=A|34=1|49=002|50=002B35|52=20190627-19:53:15.676|56=EXC|98=0|108=30|141=Y|553=002FCM001|554=002FCM001|10=105|
8=FIX.4.4|9=0067|35=A|34=1|49=EXC|56=002|52=20190627-19:53:15.778|98=0|108=30|141=Y|10=027|
8=FIX.4.4|9=0049|35=0|34=2|49=EXC|56=002|52=20190627-19:53:45.000|10=178|
8=FIX.4.4|9=59|35=0|34=2|49=002|50=002B35|52=20190627-19:53:46.462|56=EXC|10=063|
8=FIX.4.4|9=105|35=A|34=1|49=002|50=002B35|52=20190627-19:54:05.935|56=EXC|98=0|108=30|141=Y|553=002FCM001|554=002FCM001|10=103|
8=FIX.4.4|9=0067|35=A|34=1|49=EXC|56=002|52=20190627-19:54:06.017|98=0|108=30|141=Y|10=014|
8=FIX.4.4|9=105|35=A|34=1|49=002|50=002B35|52=20190628-14:45:15.169|56=EXC|98=0|108=30|141=Y|553=002FCM001|554=002FCM001|10=099|
8=FIX.4.4|9=0067|35=A|34=1|49=EXC|56=002|52=20190628-14:45:15.275|98=0|108=30|141=Y|10=016|
8=FIX.4.4|9=0049|35=0|34=2|49=EXC|56=002|52=20190628-14:45:45.000|10=175|
8=FIX.4.4|9=59|35=0|34=2|49=002|50=002B35|52=20190628-14:45:46.039|56=EXC|10=060|
8=FIX.4.4|9=105|35=A|34=1|49=002|50=002B35|52=20190702-17:24:05.809|56=EXC|98=0|108=30|141=Y|553=002FCM001|554=002FCM001|10=092|
8=FIX.4.4|9=0067|35=A|34=1|49=EXC|56=002|52=20190702-17:24:05.864|98=0|108=30|141=Y|10=012|
8=FIX.4.4|9=0049|35=0|34=2|49=EXC|56=002|52=20190702-17:24:35.000|10=167|
8=FIX.4.4|9=59|35=0|34=2|49=002|50=002B35|52=20190702-17:24:36.725|56=EXC|10=054|
8=FIX.4.4|9=105|35=A|34=1|49=002|50=002B35|52=20190702-17:44:37.208|56=EXC|98=0|108=30|141=Y|553=002FCM001|554=002FCM001|10=092|
8=FIX.4.4|9=0067|35=A|34=1|49=EXC|56=002|52=20190702-17:44:37.255|98=0|108=30|141=Y|10=013|
8=FIX.4.4|9=0049|35=0|34=2|49=EXC|56=002|52=20190702-17:45:07.000|10=169|
8=FIX.4.4|9=59|35=0|34=2|49=002|50=002B35|52=20190702-17:45:08.160|56=EXC|10=049|
8=FIX.4.4|9=105|35=A|34=1|49=002|50=002B35|52=20190702-19:37:35.037|56=EXC|98=0|108=30|141=Y|553=002FCM001|554=002FCM001|10=094|
8=FIX.4.4|9=0067|35=A|34=1|49=EXC|56=002|52=20190702-19:37:35.216|98=0|108=30|141=Y|10=012|
8=FIX.4.4|9=110|35=A|34=1|49=002|50=002B35|52=20190702-20:10:01.045|56=EXC|43=Y|98=0|108=30|141=Y|553=002FCM001|554=002FCM001|10=063|
8=FIX.4.4|9=0067|35=A|34=1|49=EXC|56=002|52=20190702-20:10:01.113|98=0|108=30|141=Y|10=240|
8=FIX.4.4|9=110|35=A|34=1|49=002|50=002B35|52=20190702-21:28:51.635|56=EXC|43=Y|98=0|108=30|141=Y|553=002FCM001|554=002FCM001|10=083|
8=FIX.4.4|9=0067|35=A|34=1|49=EXC|56=002|52=20190702-21:28:51.719|98=0|108=30|141=Y|10=011|
8=FIX.4.4|9=0049|35=0|34=2|49=EXC|56=002|52=20190702-21:29:21.000|10=162|
8=FIX.4.4|9=59|35=0|34=2|49=002|50=002B35|52=20190702-21:29:22.454|56=EXC|10=048|
8=FIX.4.4|9=110|35=A|34=1|49=002|50=002B35|52=20190702-21:33:16.729|56=EXC|43=Y|98=0|108=30|141=Y|553=002FCM001|554=002FCM001|10=084|
8=FIX.4.4|9=0067|35=A|34=1|49=EXC|56=002|52=20190702-21:33:16.812|98=0|108=30|141=Y|10=002|
8=FIX.4.4|9=110|35=A|34=1|49=002|50=002B35|52=20190702-21:36:37.904|56=EXC|43=Y|98=0|108=30|141=Y|553=002FCM001|554=002FCM001|10=085|
8=FIX.4.4|9=0067|35=A|34=1|49=EXC|56=002|52=20190702-21:36:37.974|98=0|108=30|141=Y|10=017|
8=FIX.4.4|9=0049|35=0|34=2|49=EXC|56=002|52=20190702-21:37:07.000|10=165|
8=FIX.4.4|9=59|35=0|34=2|49=002|50=002B35|52=20190702-21:37:08.853|56=EXC|10=054|
8=FIX.4.4|9=110|35=A|34=1|49=002|50=002B35|52=20190702-21:39:52.275|56=EXC|43=Y|98=0|108=30|141=Y|553=002FCM001|554=002FCM001|10=086|
8=FIX.4.4|9=0067|35=A|34=1|49=EXC|56=002|52=20190702-21:39:52.346|98=0|108=30|141=Y|10=010|
8=FIX.4.4|9=110|35=A|34=1|49=002|50=002B35|52=20190703-15:49:21.936|56=EXC|43=Y|98=0|108=30|141=Y|553=002FCM001|554=002FCM001|10=091|
8=FIX.4.4|9=0067|35=A|34=1|49=EXC|56=002|52=20190703-15:55:15.060|98=0|108=30|141=Y|10=004|
8=FIX.4.4|9=110|35=A|34=1|49=002|50=002B35|52=20190703-17:04:33.232|56=EXC|43=Y|98=0|108=30|141=Y|553=002FCM001|554=002FCM001|10=076|
8=FIX.4.4|9=0067|35=A|34=1|49=EXC|56=002|52=20190703-17:10:26.422|98=0|108=30|141=Y|10=001|
8=FIX.4.4|9=110|35=A|34=1|49=002|50=002B35|52=20190703-21:16:39.768|56=EXC|43=Y|98=0|108=30|141=Y|553=002FCM001|554=002FCM001|10=094|
8=FIX.4.4|9=0067|35=A|34=1|49=EXC|56=002|52=20190703-21:22:33.155|98=0|108=30|141=Y|10=000|
8=FIX.4.4|9=0225|35=R|34=2|49=EXC|56=002|57=002B35|52=20190703-21:22:40.660|131=20190703-000000000016.00|146=1|55=TFIC13280425|762=RFQF|48=20626|22=M|54=1|38=500000000|453=3|448=001B27|447=C|452=12|448=001|447=C|452=1|448=002B35|447=C|452=37|10=253|
8=FIX.4.4|9=219|35=S|34=2|49=002|50=002B35|52=20190703-21:17:07.622|56=EXC|55=TFIC13280425|62=20190830-22:00:00.000|117=201907031616361_S|131=20190703-000000000016.00|134=0|135=500000000|632=0|634=3|762=RFQF|453=1|448=DCV|447=C|452=10|10=109|
8=FIX.4.4|9=0302|35=AI|34=3|49=EXC|56=002|57=002B35|52=20190703-21:23:00.972|131=20190703-000000000016.00|117=201907031616361_S|453=4|448=DCV|447=C|452=10|448=001B27|447=C|452=12|448=001|447=C|452=1|448=002B35|447=C|452=37|55=TFIC13280425|762=RFQF|48=20626|22=M|54=1|634=3.000|135=500000000|62=20190830-22:00:00|297=16|10=011|
8=FIX.4.4|9=0516|35=8|34=4|49=EXC|56=002|57=002B35|52=20190703-21:23:21.729|11=201907031616361_S|17=11|37=0|150=F|1080=20190703-000000000016.00|1081=6|453=6|448=002B35|447=C|452=12|448=002|447=C|452=1|448=001B27|447=C|452=37|448=001|447=C|452=17|448=002FCM001|447=C|452=36|448=DCV|447=C|452=10|55=TFIC13280425|762=RFQF|48=20626|22=M|6=84.197|14=500000000|31=84.197|32=500000000|38=500000000|39=2|20102=84.197|54=2|60=20190703-21:23:21.729|75=20190703|63=1|64=20190703|151=0|1623=3.000|381=420986000.000|880=201907030000000011|828=99|10=130|
8=FIX.4.4|9=59|35=0|34=3|49=002|50=002B35|52=20190703-21:17:37.672|56=EXC|10=055|
8=FIX.4.4|9=0049|35=0|34=5|49=EXC|56=002|52=20190703-21:23:51.000|10=163|
8=FIX.4.4|9=59|35=5|34=4|49=002|50=002B35|52=20190703-21:17:59.619|56=EXC|10=066|
8=FIX.4.4|9=0049|35=5|34=6|49=EXC|56=002|52=20190703-21:23:52.977|10=193|
