8=FIX.4.4|9=105|35=A|34=1|49=002|50=002B35|52=20190620-21:31:23.050|56=EXC|98=0|108=30|141=Y|553=002FCM001|554=002FCM001|10=072|
8=FIX.4.4|9=0067|35=A|34=1|49=EXC|56=002|52=20190620-21:31:23.583|98=0|108=30|141=Y|10=002|
8=FIX.4.4|9=105|35=A|34=1|49=002|50=002B35|52=20190620-21:41:55.243|56=EXC|98=0|108=30|141=Y|553=002FCM001|554=002FCM001|10=082|
8=FIX.4.4|9=0067|35=A|34=1|49=EXC|56=002|52=20190620-21:41:55.365|98=0|108=30|141=Y|10=006|
8=FIX.4.4|9=105|35=A|34=1|49=002|50=002B35|52=20190620-21:42:43.992|56=EXC|98=0|108=30|141=Y|553=002FCM001|554=002FCM001|10=091|
8=FIX.4.4|9=0067|35=A|34=1|49=EXC|56=002|52=20190620-21:42:44.075|98=0|108=30|141=Y|10=003|
8=FIX.4.4|9=105|35=A|34=1|49=002|50=002B35|52=20190620-21:54:13.017|56=EXC|98=0|108=30|141=Y|553=002FCM001|554=002FCM001|10=079|
8=FIX.4.4|9=0067|35=A|34=1|49=EXC|56=002|52=20190620-21:54:13.415|98=0|108=30|141=Y|10=000|
8=FIX.4.4|9=105|35=A|34=1|49=002|50=002B35|52=20190620-21:59:27.541|56=EXC|98=0|108=30|141=Y|553=002FCM001|554=002FCM001|10=091|
8=FIX.4.4|9=0067|35=A|34=1|49=EXC|56=002|52=20190620-21:59:28.013|98=0|108=30|141=Y|10=005|
8=FIX.4.4|9=105|35=A|34=1|49=002|50=002B35|52=20190621-13:46:46.394|56=EXC|98=0|108=30|141=Y|553=002FCM001|554=002FCM001|10=096|
8=FIX.4.4|9=0067|35=A|34=1|49=EXC|56=002|52=20190621-13:46:46.427|98=0|108=30|141=Y|10=012|
8=FIX.4.4|9=105|35=A|34=1|49=002|50=002B35|52=20190621-13:51:58.435|56=EXC|98=0|108=30|141=Y|553=002FCM001|554=002FCM001|10=091|
8=FIX.4.4|9=0067|35=A|34=1|49=EXC|56=002|52=20190621-13:51:58.467|98=0|108=30|141=Y|10=015|
8=FIX.4.4|9=105|35=A|34=1|49=002|50=002B35|52=20190621-14:01:12.650|56=EXC|98=0|108=30|141=Y|553=002FCM001|554=002FCM001|10=076|
8=FIX.4.4|9=0067|35=A|34=1|49=EXC|56=002|52=20190621-14:01:12.688|98=0|108=30|141=Y|10=006|
8=FIX.4.4|9=105|35=A|34=1|49=002|50=002B35|52=20190621-14:02:04.293|56=EXC|98=0|108=30|141=Y|553=002FCM001|554=002FCM001|10=081|
8=FIX.4.4|9=0067|35=A|34=1|49=EXC|56=002|52=20190621-14:02:04.329|98=0|108=30|141=Y|10=000|
8=FIX.4.4|9=105|35=A|34=1|49=002|50=002B35|52=20190621-15:58:27.413|56=EXC|98=0|108=30|141=Y|553=002FCM001|554=002FCM001|10=092|
8=FIX.4.4|9=0067|35=A|34=1|49=EXC|56=002|52=20190621-15:58:27.456|98=0|108=30|141=Y|10=018|
8=FIX.4.4|9=105|35=A|34=1|49=002|50=002B35|52=20190621-16:01:48.308|56=EXC|98=0|108=30|141=Y|553=002FCM001|554=002FCM001|10=087|
8=FIX.4.4|9=0067|35=A|34=1|49=EXC|56=002|52=20190621-16:01:48.355|98=0|108=30|141=Y|10=008|
8=FIX.4.4|9=105|35=A|34=1|49=002|50=002B35|52=20190621-16:17:31.152|56=EXC|98=0|108=30|141=Y|553=002FCM001|554=002FCM001|10=083|
8=FIX.4.4|9=0067|35=A|34=1|49=EXC|56=002|52=20190621-16:17:31.193|98=0|108=30|141=Y|10=007|
8=FIX.4.4|9=105|35=A|34=1|49=002|50=002B35|52=20190621-16:24:24.215|56=EXC|98=0|108=30|141=Y|553=002FCM001|554=002FCM001|10=083|
8=FIX.4.4|9=0067|35=A|34=1|49=EXC|56=002|52=20190621-16:24:24.268|98=0|108=30|141=Y|10=010|
8=FIX.4.4|9=105|35=A|34=1|49=002|50=002B35|52=20190621-16:29:19.146|56=EXC|98=0|108=30|141=Y|553=002FCM001|554=002FCM001|10=095|
8=FIX.4.4|9=0067|35=A|34=1|49=EXC|56=002|52=20190621-16:29:19.194|98=0|108=30|141=Y|10=017|
8=FIX.4.4|9=105|35=A|34=1|49=002|50=002B35|52=20190625-14:28:25.971|56=EXC|98=0|108=30|141=Y|553=002FCM001|554=002FCM001|10=099|
8=FIX.4.4|9=0067|35=A|34=1|49=EXC|56=002|52=20190627-14:28:15.663|98=0|108=30|141=Y|10=017|
8=FIX.4.4|9=105|35=A|34=1|49=002|50=002B35|52=20190625-14:51:25.893|56=EXC|98=0|108=30|141=Y|553=002FCM001|554=002FCM001|10=098|
8=FIX.4.4|9=0067|35=A|34=1|49=EXC|56=002|52=20190627-14:51:15.588|98=0|108=30|141=Y|10=019|
8=FIX.4.4|9=105|35=A|34=1|49=002|50=002B35|52=20190625-19:44:14.934|56=EXC|98=0|108=30|141=Y|553=002FCM001|554=002FCM001|10=099|
8=FIX.4.4|9=0067|35=A|34=1|49=EXC|56=002|52=20190627-19:44:14.990|98=0|108=30|141=Y|10=022|
8=FIX.4.4|9=105|35=A|34=1|49=002|50=002B35|52=20190625-19:45:34.998|56=EXC|98=0|108=30|141=Y|553=002FCM001|554=002FCM001|10=112|
8=FIX.4.4|9=0067|35=A|34=1|49=EXC|56=002|52=20190627-19:45:35.030|98=0|108=30|141=Y|10=011|
8=FIX.4.4|9=105|35=A|34=1|49=002|50=002B35|52=20190625-19:54:23.760|56=EXC|98=0|108=30|141=Y|553=002FCM001|554=002FCM001|10=097|
8=FIX.4.4|9=0067|35=A|34=1|49=EXC|56=002|52=20190627-19:54:23.825|98=0|108=30|141=Y|10=020|
8=FIX.4.4|9=105|35=A|34=1|49=002|50=002B35|52=20190625-19:55:23.511|56=EXC|98=0|108=30|141=Y|553=002FCM001|554=002FCM001|10=092|
8=FIX.4.4|9=0067|35=A|34=1|49=EXC|56=002|52=20190627-19:55:23.547|98=0|108=30|141=Y|10=022|
8=FIX.4.4|9=105|35=A|34=1|49=002|50=002B35|52=20190625-20:02:36.427|56=EXC|98=0|108=30|141=Y|553=002FCM001|554=002FCM001|10=086|
8=FIX.4.4|9=0067|35=A|34=1|49=EXC|56=002|52=20190627-20:02:36.504|98=0|108=30|141=Y|10=003|
8=FIX.4.4|9=105|35=A|34=1|49=002|50=002B35|52=20190626-19:09:44.118|56=EXC|98=0|108=30|141=Y|553=002FCM001|554=002FCM001|10=098|
8=FIX.4.4|9=0067|35=A|34=1|49=EXC|56=002|52=20190628-19:09:44.224|98=0|108=30|141=Y|10=017|
8=FIX.4.4|9=105|35=A|34=1|49=002|50=002B35|52=20190626-20:09:29.517|56=EXC|98=0|108=30|141=Y|553=002FCM001|554=002FCM001|10=096|
8=FIX.4.4|9=0067|35=A|34=1|49=EXC|56=002|52=20190628-20:09:29.567|98=0|108=30|141=Y|10=022|
8=FIX.4.4|9=0049|35=0|34=2|49=EXC|56=002|52=20190628-20:09:59.000|10=177|
8=FIX.4.4|9=59|35=0|34=2|49=002|50=002B35|52=20190626-20:10:00.453|56=EXC|10=037|
8=FIX.4.4|9=105|35=A|34=1|49=002|50=002B35|52=20190626-20:10:59.826|56=EXC|98=0|108=30|141=Y|553=002FCM001|554=002FCM001|10=094|
8=FIX.4.4|9=0067|35=A|34=1|49=EXC|56=002|52=20190628-20:10:59.918|98=0|108=30|141=Y|10=017|
8=FIX.4.4|9=0049|35=0|34=2|49=EXC|56=002|52=20190628-20:11:29.000|10=167|
8=FIX.4.4|9=59|35=0|34=2|49=002|50=002B35|52=20190626-20:11:30.741|56=EXC|10=041|
8=FIX.4.4|9=105|35=A|34=1|49=002|50=002B35|52=20190626-20:16:07.771|56=EXC|98=0|108=30|141=Y|553=002FCM001|554=002FCM001|10=092|
8=FIX.4.4|9=0067|35=A|34=1|49=EXC|56=002|52=20190628-20:16:07.878|98=0|108=30|141=Y|10=021|
8=FIX.4.4|9=105|35=A|34=1|49=002|50=002B35|52=20190626-20:20:26.257|56=EXC|98=0|108=30|141=Y|553=002FCM001|554=002FCM001|10=087|
8=FIX.4.4|9=0067|35=A|34=1|49=EXC|56=002|52=20190628-20:20:26.320|98=0|108=30|141=Y|10=255|
8=FIX.4.4|9=105|35=A|34=1|49=002|50=002B35|52=20190626-20:34:32.379|56=EXC|98=0|108=30|141=Y|553=002FCM001|554=002FCM001|10=094|
8=FIX.4.4|9=0067|35=A|34=1|49=EXC|56=002|52=20190628-20:34:32.436|98=0|108=30|141=Y|10=009|
8=FIX.4.4|9=105|35=A|34=1|49=002|50=002B35|52=20190626-20:45:46.221|56=EXC|98=0|108=30|141=Y|553=002FCM001|554=002FCM001|10=087|
8=FIX.4.4|9=0067|35=A|34=1|49=EXC|56=002|52=20190628-20:45:46.291|98=0|108=30|141=Y|10=015|
8=FIX.4.4|9=0049|35=0|34=2|49=EXC|56=002|52=20190628-20:46:16.000|10=171|
8=FIX.4.4|9=59|35=0|34=2|49=002|50=002B35|52=20190626-20:46:17.097|56=EXC|10=058|
8=FIX.4.4|9=0049|35=0|34=3|49=EXC|56=002|52=20190628-20:46:46.000|10=175|
8=FIX.4.4|9=59|35=0|34=3|49=002|50=002B35|52=20190626-20:46:47.098|56=EXC|10=063|
8=FIX.4.4|9=0049|35=0|34=4|49=EXC|56=002|52=20190628-20:47:16.000|10=174|
8=FIX.4.4|9=59|35=0|34=4|49=002|50=002B35|52=20190626-20:47:17.096|56=EXC|10=060|
8=FIX.4.4|9=105|35=A|34=1|49=002|50=002B35|52=20190626-20:47:57.527|56=EXC|98=0|108=30|141=Y|553=002FCM001|554=002FCM001|10=100|
8=FIX.4.4|9=0067|35=A|34=1|49=EXC|56=002|52=20190628-20:47:57.608|98=0|108=30|141=Y|10=021|
8=FIX.4.4|9=105|35=A|34=1|49=002|50=002B35|52=20190626-21:05:42.425|56=EXC|98=0|108=30|141=Y|553=002FCM001|554=002FCM001|10=086|
8=FIX.4.4|9=0067|35=A|34=1|49=EXC|56=002|52=20190628-21:05:41.976|98=0|108=30|141=Y|10=017|
8=FIX.4.4|9=105|35=A|34=1|49=002|50=002B35|52=20190626-21:06:19.663|56=EXC|98=0|108=30|141=Y|553=002FCM001|554=002FCM001|10=095|
8=FIX.4.4|9=0067|35=A|34=1|49=EXC|56=002|52=20190628-21:06:19.176|98=0|108=30|141=Y|10=015|
8=FIX.4.4|9=105|35=A|34=1|49=002|50=002B35|52=20190626-21:07:10.482|56=EXC|98=0|108=30|141=Y|553=002FCM001|554=002FCM001|10=086|
8=FIX.4.4|9=0067|35=A|34=1|49=EXC|56=002|52=20190628-21:07:10.015|98=0|108=30|141=Y|10=255|
8=FIX.4.4|9=105|35=A|34=1|49=002|50=002B35|52=20190626-21:09:36.666|56=EXC|98=0|108=30|141=Y|553=002FCM001|554=002FCM001|10=100|
8=FIX.4.4|9=0067|35=A|34=1|49=EXC|56=002|52=20190628-21:09:36.177|98=0|108=30|141=Y|10=018|
8=FIX.4.4|9=105|35=A|34=1|49=002|50=002B35|52=20190626-21:10:30.652|56=EXC|98=0|108=30|141=Y|553=002FCM001|554=002FCM001|10=081|
8=FIX.4.4|9=0067|35=A|34=1|49=EXC|56=002|52=20190628-21:10:30.174|98=0|108=30|141=Y|10=001|
8=FIX.4.4|9=105|35=A|34=1|49=002|50=002B35|52=20190626-21:11:06.654|56=EXC|98=0|108=30|141=Y|553=002FCM001|554=002FCM001|10=087|
8=FIX.4.4|9=0067|35=A|34=1|49=EXC|56=002|52=20190628-21:11:06.172|98=0|108=30|141=Y|10=003|
8=FIX.4.4|9=105|35=A|34=1|49=002|50=002B35|52=20190626-21:25:26.844|56=EXC|98=0|108=30|141=Y|553=002FCM001|554=002FCM001|10=095|
8=FIX.4.4|9=0067|35=A|34=1|49=EXC|56=002|52=20190628-21:25:26.761|98=0|108=30|141=Y|10=014|
8=FIX.4.4|9=0049|35=0|34=2|49=EXC|56=002|52=20190628-21:25:56.000|10=173|
8=FIX.4.4|9=105|35=A|34=1|49=002|50=002B35|52=20190626-21:35:17.708|56=EXC|98=0|108=30|141=Y|553=002FCM001|554=002FCM001|10=095|
8=FIX.4.4|9=0067|35=A|34=1|49=EXC|56=002|52=20190628-21:35:17.806|98=0|108=30|141=Y|10=015|
8=FIX.4.4|9=0049|35=0|34=2|49=EXC|56=002|52=20190628-21:35:47.000|10=174|
8=FIX.4.4|9=59|35=0|34=2|49=002|50=002B35|52=20190626-21:35:48.582|56=EXC|10=060|
8=FIX.4.4|9=105|35=A|34=1|49=002|50=002B35|52=20190626-21:55:41.918|56=EXC|98=0|108=30|141=Y|553=002FCM001|554=002FCM001|10=097|
8=FIX.4.4|9=0067|35=A|34=1|49=EXC|56=002|52=20190628-21:55:41.993|98=0|108=30|141=Y|10=021|
8=FIX.4.4|9=0049|35=0|34=2|49=EXC|56=002|52=20190628-21:56:11.000|10=168|
8=FIX.4.4|9=59|35=0|34=2|49=002|50=002B35|52=20190626-21:56:12.810|56=EXC|10=048|
8=FIX.4.4|9=99|35=A|34=3|49=002|50=002B35|52=20190626-21:56:28.142|56=EXC|98=0|108=30|553=002FCM001|554=002FCM001|10=013|
8=FIX.4.4|9=0061|35=A|34=3|49=EXC|56=002|52=20190628-21:56:28.187|98=0|108=30|10=229|
8=FIX.4.4|9=0049|35=0|34=4|49=EXC|56=002|52=20190628-21:56:58.000|10=181|
8=FIX.4.4|9=59|35=0|34=4|49=002|50=002B35|52=20190626-21:56:59.078|56=EXC|10=067|
8=FIX.4.4|9=105|35=A|34=1|49=002|50=002B35|52=20190626-22:01:39.680|56=EXC|98=0|108=30|141=Y|553=002FCM001|554=002FCM001|10=092|
8=FIX.4.4|9=0067|35=A|34=1|49=EXC|56=002|52=20190628-22:01:39.877|98=0|108=30|141=Y|10=021|
8=FIX.4.4|9=105|35=A|34=1|49=002|50=002B35|52=20190626-22:02:08.450|56=EXC|98=0|108=30|141=Y|553=002FCM001|554=002FCM001|10=084|
8=FIX.4.4|9=0067|35=A|34=1|49=EXC|56=002|52=20190628-22:02:08.681|98=0|108=30|141=Y|10=011|
8=FIX.4.4|9=105|35=A|34=1|49=002|50=002B35|52=20190627-19:53:15.676|56=EXC|98=0|108=30|141=Y|553=002FCM001|554=002FCM001|10=105|
8=FIX.4.4|9=0067|35=A|34=1|49=EXC|56=002|52=20190627-19:53:15.778|98=0|108=30|141=Y|10=027|
8=FIX.4.4|9=0049|35=0|34=2|49=EXC|56=002|52=20190627-19:53:45.000|10=178|
8=FIX.4.4|9=59|35=0|34=2|49=002|50=002B35|52=20190627-19:53:46.462|56=EXC|10=063|
8=FIX.4.4|9=105|35=A|34=1|49=002|50=002B35|52=20190627-19:54:05.935|56=EXC|98=0|108=30|141=Y|553=002FCM001|554=002FCM001|10=103|
8=FIX.4.4|9=0067|35=A|34=1|49=EXC|56=002|52=20190627-19:54:06.017|98=0|108=30|141=Y|10=014|
8=FIX.4.4|9=105|35=A|34=1|49=002|50=002B35|52=20190628-14:45:15.169|56=EXC|98=0|108=30|141=Y|553=002FCM001|554=002FCM001|10=099|
8=FIX.4.4|9=0067|35=A|34=1|49=EXC|56=002|52=20190628-14:45:15.275|98=0|108=30|141=Y|10=016|
8=FIX.4.4|9=0049|35=0|34=2|49=EXC|56=002|52=20190628-14:45:45.000|10=175|
8=FIX.4.4|9=59|35=0|34=2|49=002|50=002B35|52=20190628-14:45:46.039|56=EXC|10=060|
8=FIX.4.4|9=105|35=A|34=1|49=002|50=002B35|52=20190702-17:24:05.809|56=EXC|98=0|108=30|141=Y|553=002FCM001|554=002FCM001|10=092|
8=FIX.4.4|9=0067|35=A|34=1|49=EXC|56=002|52=20190702-17:24:05.864|98=0|108=30|141=Y|10=012|
8=FIX.4.4|9=0049|35=0|34=2|49=EXC|56=002|52=20190702-17:24:35.000|10=167|
8=FIX.4.4|9=59|35=0|34=2|49=002|50=002B35|52=20190702-17:24:36.725|56=EXC|10=054|
8=FIX.4.4|9=105|35=A|34=1|49=002|50=002B35|52=20190702-17:44:37.208|56=EXC|98=0|108=30|141=Y|553=002FCM001|554=002FCM001|10=092|
8=FIX.4.4|9=0067|35=A|34=1|49=EXC|56=002|52=20190702-17:44:37.255|98=0|108=30|141=Y|10=013|
8=FIX.4.4|9=0049|35=0|34=2|49=EXC|56=002|52=20190702-17:45:07.000|10=169|
8=FIX.4.4|9=59|35=0|34=2|49=002|50=002B35|52=20190702-17:45:08.160|56=EXC|10=049|
8=FIX.4.4|9=105|35=A|34=1|49=002|50=002B35|52=20190702-19:37:35.037|56=EXC|98=0|108=30|141=Y|553=002FCM001|554=002FCM001|10=094|
8=FIX.4.4|9=0067|35=A|34=1|49=EXC|56=002|52=20190702-19:37:35.216|98=0|108=30|141=Y|10=012|
8=FIX.4.4|9=110|35=A|34=1|49=002|50=002B35|52=20190702-20:10:01.045|56=EXC|43=Y|98=0|108=30|141=Y|553=002FCM001|554=002FCM001|10=063|
8=FIX.4.4|9=0067|35=A|34=1|49=EXC|56=002|52=20190702-20:10:01.113|98=0|108=30|141=Y|10=240|
8=FIX.4.4|9=110|35=A|34=1|49=002|50=002B35|52=20190702-21:28:51.635|56=EXC|43=Y|98=0|108=30|141=Y|553=002FCM001|554=002FCM001|10=083|
8=FIX.4.4|9=0067|35=A|34=1|49=EXC|56=002|52=20190702-21:28:51.719|98=0|108=30|141=Y|10=011|
8=FIX.4.4|9=0049|35=0|34=2|49=EXC|56=002|52=20190702-21:29:21.000|10=162|
8=FIX.4.4|9=59|35=0|34=2|49=002|50=002B35|52=20190702-21:29:22.454|56=EXC|10=048|
8=FIX.4.4|9=110|35=A|34=1|49=002|50=002B35|52=20190702-21:33:16.729|56=EXC|43=Y|98=0|108=30|141=Y|553=002FCM001|554=002FCM001|10=084|
8=FIX.4.4|9=0067|35=A|34=1|49=EXC|56=002|52=20190702-21:33:16.812|98=0|108=30|141=Y|10=002|
8=FIX.4.4|9=110|35=A|34=1|49=002|50=002B35|52=20190702-21:36:37.904|56=EXC|43=Y|98=0|108=30|141=Y|553=002FCM001|554=002FCM001|10=085|
8=FIX.4.4|9=0067|35=A|34=1|49=EXC|56=002|52=20190702-21:36:37.974|98=0|108=30|141=Y|10=017|
8=FIX.4.4|9=0049|35=0|34=2|49=EXC|56=002|52=20190702-21:37:07.000|10=165|
8=FIX.4.4|9=59|35=0|34=2|49=002|50=002B35|52=20190702-21:37:08.853|56=EXC|10=054|
8=FIX.4.4|9=110|35=A|34=1|49=002|50=002B35|52=20190702-21:39:52.275|56=EXC|43=Y|98=0|108=30|141=Y|553=002FCM001|554=002FCM001|10=086|
8=FIX.4.4|9=0067|35=A|34=1|49=EXC|56=002|52=20190702-21:39:52.346|98=0|108=30|141=Y|10=010|
8=FIX.4.4|9=110|35=A|34=1|49=002|50=002B35|52=20190703-15:49:21.936|56=EXC|43=Y|98=0|108=30|141=Y|553=002FCM001|554=002FCM001|10=091|
8=FIX.4.4|9=0067|35=A|34=1|49=EXC|56=002|52=20190703-15:55:15.060|98=0|108=30|141=Y|10=004|
8=FIX.4.4|9=110|35=A|34=1|49=002|50=002B35|52=20190703-17:04:33.232|56=EXC|43=Y|98=0|108=30|141=Y|553=002FCM001|554=002FCM001|10=076|
8=FIX.4.4|9=0067|35=A|34=1|49=EXC|56=002|52=20190703-17:10:26.422|98=0|108=30|141=Y|10=001|
8=FIX.4.4|9=110|35=A|34=1|49=002|50=002B35|52=20190703-21:16:39.768|56=EXC|43=Y|98=0|108=30|141=Y|553=002FCM001|554=002FCM001|10=094|
8=FIX.4.4|9=0067|35=A|34=1|49=EXC|56=002|52=20190703-21:22:33.155|98=0|108=30|141=Y|10=000|
8=FIX.4.4|9=0225|35=R|34=2|49=EXC|56=002|57=002B35|52=20190703-21:22:40.660|131=20190703-000000000016.00|146=1|55=TFIC13280425|762=RFQF|48=20626|22=M|54=1|38=500000000|453=3|448=001B27|447=C|452=12|448=001|447=C|452=1|448=002B35|447=C|452=37|10=253|
8=FIX.4.4|9=219|35=S|34=2|49=002|50=002B35|52=20190703-21:17:07.622|56=EXC|55=TFIC13280425|62=20190830-22:00:00.000|117=201907031616361_S|131=20190703-000000000016.00|134=0|135=500000000|632=0|634=3|762=RFQF|453=1|448=DCV|447=C|452=10|10=109|
8=FIX.4.4|9=0302|35=AI|34=3|49=EXC|56=002|57=002B35|52=20190703-21:23:00.972|131=20190703-000000000016.00|117=201907031616361_S|453=4|448=DCV|447=C|452=10|448=001B27|447=C|452=12|448=001|447=C|452=1|448=002B35|447=C|452=37|55=TFIC13280425|762=RFQF|48=20626|22=M|54=1|634=3.000|135=500000000|62=20190830-22:00:00|297=16|10=011|
8=FIX.4.4|9=0516|35=8|34=4|49=EXC|56=002|57=002B35|52=20190703-21:23:21.729|11=201907031616361_S|17=11|37=0|150=F|1080=20190703-000000000016.00|1081=6|453=6|448=002B35|447=C|452=12|448=002|447=C|452=1|448=001B27|447=C|452=37|448=001|447=C|452=17|448=002FCM001|447=C|452=36|448=DCV|447=C|452=10|55=TFIC13280425|762=RFQF|48=20626|22=M|6=84.197|14=500000000|31=84.197|32=500000000|38=500000000|39=2|20102=84.197|54=2|60=20190703-21:23:21.729|75=20190703|63=1|64=20190703|151=0|1623=3.000|381=420986000.000|880=201907030000000011|828=99|10=130|
8=FIX.4.4|9=59|35=0|34=3|49=002|50=002B35|52=20190703-21:17:37.672|56=EXC|10=055|
8=FIX.4.4|9=0049|35=0|34=5|49=EXC|56=002|52=20190703-21:23:51.000|10=163|
8=FIX.4.4|9=59|35=5|34=4|49=002|50=002B35|52=20190703-21:17:59.619|56=EXC|10=066|
8=FIX.4.4|9=0049|35=5|34=6|49=EXC|56=002|52=20190703-21:23:52.977|10=193|
8=FIX.4.4|9=110|35=A|34=1|49=002|50=002B35|52=20190703-21:24:25.530|56=EXC|43=Y|98=0|108=30|141=Y|553=002FCM001|554=002FCM001|10=075|
8=FIX.4.4|9=0067|35=A|34=1|49=EXC|56=002|52=20190703-21:30:18.912|98=0|108=30|141=Y|10=003|
8=FIX.4.4|9=0225|35=R|34=2|49=EXC|56=002|57=002B35|52=20190703-21:30:26.144|131=20190703-000000000017.00|146=1|55=TFIC13280425|762=RFQF|48=20626|22=M|54=1|38=500000000|453=3|448=001B27|447=C|452=12|448=001|447=C|452=1|448=002B35|447=C|452=37|10=254|
8=FIX.4.4|9=219|35=S|34=2|49=002|50=002B35|52=20190703-21:24:53.276|56=EXC|55=TFIC13280425|62=20190830-22:00:00.000|117=201907031624221_S|131=20190703-000000000017.00|134=0|135=500000000|632=0|634=3|762=RFQF|453=1|448=DCV|447=C|452=10|10=108|
8=FIX.4.4|9=0302|35=AI|34=3|49=EXC|56=002|57=002B35|52=20190703-21:30:46.636|131=20190703-000000000017.00|117=201907031624221_S|453=4|448=DCV|447=C|452=10|448=001B27|447=C|452=12|448=001|447=C|452=1|448=002B35|447=C|452=37|55=TFIC13280425|762=RFQF|48=20626|22=M|54=1|634=3.000|135=500000000|62=20190830-22:00:00|297=16|10=011|
8=FIX.4.4|9=0516|35=8|34=4|49=EXC|56=002|57=002B35|52=20190703-21:31:07.285|11=201907031624221_S|17=12|37=0|150=F|1080=20190703-000000000017.00|1081=6|453=6|448=002B35|447=C|452=12|448=002|447=C|452=1|448=001B27|447=C|452=37|448=001|447=C|452=17|448=002FCM001|447=C|452=36|448=DCV|447=C|452=10|55=TFIC13280425|762=RFQF|48=20626|22=M|6=84.197|14=500000000|31=84.197|32=500000000|38=500000000|39=2|20102=84.197|54=2|60=20190703-21:31:07.285|75=20190703|63=1|64=20190703|151=0|1623=3.000|381=420986000.000|880=201907030000000012|828=99|10=127|
8=FIX.4.4|9=59|35=0|34=3|49=002|50=002B35|52=20190703-21:25:23.463|56=EXC|10=047|
8=FIX.4.4|9=110|35=A|34=1|49=002|50=002B35|52=20190704-12:55:58.748|56=EXC|43=Y|98=0|108=30|141=Y|553=002FCM001|554=002FCM001|10=097|
8=FIX.4.4|9=0067|35=A|34=1|49=EXC|56=002|52=20190704-13:01:52.760|98=0|108=30|141=Y|10=002|
8=FIX.4.4|9=0049|35=0|34=2|49=EXC|56=002|52=20190704-13:02:22.000|10=157|
8=FIX.4.4|9=59|35=0|34=2|49=002|50=002B35|52=20190704-12:56:29.562|56=EXC|10=057|
8=FIX.4.4|9=0049|35=0|34=3|49=EXC|56=002|52=20190704-13:02:52.000|10=161|
8=FIX.4.4|9=59|35=0|34=3|49=002|50=002B35|52=20190704-12:56:59.563|56=EXC|10=062|
8=FIX.4.4|9=110|35=A|34=1|49=002|50=002B35|52=20190704-12:57:35.017|56=EXC|43=Y|98=0|108=30|141=Y|553=002FCM001|554=002FCM001|10=083|
8=FIX.4.4|9=0067|35=A|34=1|49=EXC|56=002|52=20190704-13:03:29.020|98=0|108=30|141=Y|10=253|
8=FIX.4.4|9=0049|35=0|34=2|49=EXC|56=002|52=20190704-13:03:59.000|10=168|
8=FIX.4.4|9=59|35=0|34=2|49=002|50=002B35|52=20190704-12:58:05.047|56=EXC|10=051|
8=FIX.4.4|9=0049|35=0|34=3|49=EXC|56=002|52=20190704-13:04:29.000|10=167|
8=FIX.4.4|9=59|35=0|34=3|49=002|50=002B35|52=20190704-12:58:35.045|56=EXC|10=053|
8=FIX.4.4|9=0049|35=0|34=4|49=EXC|56=002|52=20190704-13:04:59.000|10=171|
8=FIX.4.4|9=59|35=0|34=4|49=002|50=002B35|52=20190704-12:59:05.765|56=EXC|10=061|
8=FIX.4.4|9=0049|35=0|34=5|49=EXC|56=002|52=20190704-13:05:29.000|10=170|
8=FIX.4.4|9=59|35=0|34=5|49=002|50=002B35|52=20190704-12:59:36.312|56=EXC|10=054|
8=FIX.4.4|9=110|35=A|34=1|49=002|50=002B35|52=20190704-13:26:23.489|56=EXC|43=Y|98=0|108=30|141=Y|553=002FCM001|554=002FCM001|10=090|
8=FIX.4.4|9=0067|35=A|34=1|49=EXC|56=002|52=20190704-13:32:17.505|98=0|108=30|141=Y|10=004|
8=FIX.4.4|9=0049|35=0|34=2|49=EXC|56=002|52=20190704-13:32:47.000|10=167|
8=FIX.4.4|9=59|35=0|34=2|49=002|50=002B35|52=20190704-13:26:54.279|56=EXC|10=058|
8=FIX.4.4|9=110|35=A|34=1|49=002|50=002B35|52=20190704-13:34:07.385|56=EXC|43=Y|98=0|108=30|141=Y|553=002FCM001|554=002FCM001|10=086|
8=FIX.4.4|9=0067|35=A|34=1|49=EXC|56=002|52=20190704-13:40:01.441|98=0|108=30|141=Y|10=251|
8=FIX.4.4|9=0049|35=0|34=2|49=EXC|56=002|52=20190704-13:40:31.000|10=159|
8=FIX.4.4|9=59|35=0|34=2|49=002|50=002B35|52=20190704-13:34:38.135|56=EXC|10=050|
8=FIX.4.4|9=110|35=A|34=1|49=002|50=002B35|52=20190704-14:08:22.056|56=EXC|43=Y|98=0|108=30|141=Y|553=002FCM001|554=002FCM001|10=080|
8=FIX.4.4|9=0067|35=A|34=1|49=EXC|56=002|52=20190704-14:14:16.101|98=0|108=30|141=Y|10=252|
8=FIX.4.4|9=110|35=A|34=1|49=002|50=002B35|52=20190704-14:15:39.558|56=EXC|43=Y|98=0|108=30|141=Y|553=002FCM001|554=002FCM001|10=093|
8=FIX.4.4|9=0067|35=A|34=1|49=EXC|56=002|52=20190704-14:21:33.653|98=0|108=30|141=Y|10=005|
8=FIX.4.4|9=0225|35=R|34=2|49=EXC|56=002|57=002B35|52=20190704-14:21:40.741|131=20190704-000000000002.00|146=1|55=TFIC13280425|762=RFQF|48=20626|22=M|54=1|38=500000000|453=3|448=001B27|447=C|452=12|448=001|447=C|452=1|448=002B35|447=C|452=37|10=251|
8=FIX.4.4|9=218|35=S|34=2|49=002|50=002B35|52=20190704-14:16:07.050|56=EXC|55=TFIC13280425|62=20190830-22:00:00.000|117=20190704915361_S|131=20190704-000000000002.00|134=0|135=500000000|632=0|634=3|762=RFQF|453=1|448=DCV|447=C|452=10|10=055|
8=FIX.4.4|9=0301|35=AI|34=3|49=EXC|56=002|57=002B35|52=20190704-14:22:01.079|131=20190704-000000000002.00|117=20190704915361_S|453=4|448=DCV|447=C|452=10|448=001B27|447=C|452=12|448=001|447=C|452=1|448=002B35|447=C|452=37|55=TFIC13280425|762=RFQF|48=20626|22=M|54=1|634=3.000|135=500000000|62=20190830-22:00:00|297=16|10=217|
8=FIX.4.4|9=0514|35=8|34=4|49=EXC|56=002|57=002B35|52=20190704-14:22:21.715|11=20190704915361_S|17=1|37=0|150=F|1080=20190704-000000000002.00|1081=6|453=6|448=002B35|447=C|452=12|448=002|447=C|452=1|448=001B27|447=C|452=37|448=001|447=C|452=17|448=002FCM001|447=C|452=36|448=DCV|447=C|452=10|55=TFIC13280425|762=RFQF|48=20626|22=M|6=84.204|14=500000000|31=84.204|32=500000000|38=500000000|39=2|20102=84.204|54=2|60=20190704-14:22:21.715|75=20190704|63=1|64=20190704|151=0|1623=3.000|381=421020500.000|880=201907040000000001|828=99|10=233|
8=FIX.4.4|9=59|35=0|34=3|49=002|50=002B35|52=20190704-14:16:37.392|56=EXC|10=056|
8=FIX.4.4|9=0049|35=0|34=5|49=EXC|56=002|52=20190704-14:22:51.000|10=165|
8=FIX.4.4|9=59|35=0|34=4|49=002|50=002B35|52=20190704-14:17:07.398|56=EXC|10=061|
8=FIX.4.4|9=0049|35=0|34=6|49=EXC|56=002|52=20190704-14:23:21.000|10=164|
8=FIX.4.4|9=110|35=A|34=1|49=002|50=002B35|52=20190704-14:20:57.580|56=EXC|43=Y|98=0|108=30|141=Y|553=002FCM001|554=002FCM001|10=084|
8=FIX.4.4|9=0067|35=A|34=1|49=EXC|56=002|52=20190704-14:26:51.629|98=0|108=30|141=Y|10=013|
8=FIX.4.4|9=0225|35=R|34=2|49=EXC|56=002|57=002B35|52=20190704-14:26:58.857|131=20190704-000000000003.00|146=1|55=TFIC13280425|762=RFQF|48=20626|22=M|54=1|38=500000000|453=3|448=001B27|447=C|452=12|448=001|447=C|452=1|448=002B35|447=C|452=37|10=018|
8=FIX.4.4|9=218|35=S|34=2|49=002|50=002B35|52=20190704-14:21:25.351|56=EXC|55=TFIC13280425|62=20190830-22:00:00.000|117=20190704920541_S|131=20190704-000000000003.00|134=0|135=500000000|632=0|634=3|762=RFQF|453=1|448=DCV|447=C|452=10|10=052|
8=FIX.4.4|9=0301|35=AI|34=3|49=EXC|56=002|57=002B35|52=20190704-14:27:19.372|131=20190704-000000000003.00|117=20190704920541_S|453=4|448=DCV|447=C|452=10|448=001B27|447=C|452=12|448=001|447=C|452=1|448=002B35|447=C|452=37|55=TFIC13280425|762=RFQF|48=20626|22=M|54=1|634=3.000|135=500000000|62=20190830-22:00:00|297=16|10=224|
8=FIX.4.4|9=0514|35=8|34=4|49=EXC|56=002|57=002B35|52=20190704-14:27:40.081|11=20190704920541_S|17=2|37=0|150=F|1080=20190704-000000000003.00|1081=6|453=6|448=002B35|447=C|452=12|448=002|447=C|452=1|448=001B27|447=C|452=37|448=001|447=C|452=17|448=002FCM001|447=C|452=36|448=DCV|447=C|452=10|55=TFIC13280425|762=RFQF|48=20626|22=M|6=84.204|14=500000000|31=84.204|32=500000000|38=500000000|39=2|20102=84.204|54=2|60=20190704-14:27:40.081|75=20190704|63=1|64=20190704|151=0|1623=3.000|381=421020500.000|880=201907040000000002|828=99|10=236|
8=FIX.4.4|9=59|35=0|34=3|49=002|50=002B35|52=20190704-14:21:55.577|56=EXC|10=057|
8=FIX.4.4|9=0049|35=0|34=5|49=EXC|56=002|52=20190704-14:28:10.000|10=166|
8=FIX.4.4|9=110|35=A|34=1|49=002|50=002B35|52=20190704-15:09:50.560|56=EXC|43=Y|98=0|108=30|141=Y|553=002FCM001|554=002FCM001|10=083|
8=FIX.4.4|9=0067|35=A|34=1|49=EXC|56=002|52=20190704-15:15:44.654|98=0|108=30|141=Y|10=012|
8=FIX.4.4|9=0225|35=R|34=2|49=EXC|56=002|57=002B35|52=20190704-15:15:51.908|131=20190704-000000000006.00|146=1|55=TFIC13280425|762=RFQF|48=20626|22=M|54=1|38=500000000|453=3|448=001B27|447=C|452=12|448=001|447=C|452=1|448=002B35|447=C|452=37|10=010|
8=FIX.4.4|9=219|35=S|34=2|49=002|50=002B35|52=20190704-15:10:18.157|56=EXC|55=TFIC13280425|62=20190830-22:00:00.000|117=201907041009471_S|131=20190704-000000000006.00|134=0|135=500000000|632=0|634=3|762=RFQF|453=1|448=DCV|447=C|452=10|10=110|
8=FIX.4.4|9=0302|35=AI|34=3|49=EXC|56=002|57=002B35|52=20190704-15:16:12.233|131=20190704-000000000006.00|117=201907041009471_S|453=4|448=DCV|447=C|452=10|448=001B27|447=C|452=12|448=001|447=C|452=1|448=002B35|447=C|452=37|55=TFIC13280425|762=RFQF|48=20626|22=M|54=1|634=3.000|135=500000000|62=20190830-22:00:00|297=16|10=009|
8=FIX.4.4|9=0515|35=8|34=4|49=EXC|56=002|57=002B35|52=20190704-15:16:32.829|11=201907041009471_S|17=3|37=0|150=F|1080=20190704-000000000006.00|1081=6|453=6|448=002B35|447=C|452=12|448=002|447=C|452=1|448=001B27|447=C|452=37|448=001|447=C|452=17|448=002FCM001|447=C|452=36|448=DCV|447=C|452=10|55=TFIC13280425|762=RFQF|48=20626|22=M|6=84.204|14=500000000|31=84.204|32=500000000|38=500000000|39=2|20102=84.204|54=2|60=20190704-15:16:32.829|75=20190704|63=1|64=20190704|151=0|1623=3.000|381=421020500.000|880=201907040000000003|828=99|10=055|
8=FIX.4.4|9=59|35=0|34=3|49=002|50=002B35|52=20190704-15:10:48.471|56=EXC|10=051|
8=FIX.4.4|9=127|35=j|34=4|49=002|50=002B35|52=20190704-15:11:04.816|56=EXC|45=4|58=Conditionally Required Field Missing, field=453|372=8|380=5|10=029|
8=FIX.4.4|9=0109|35=j|34=5|49=EXC|56=002|57=002B35|52=20190704-15:16:58.888|45=4|372=j|380=3|58=(1468): MsgType(#35) invalido|10=084|
8=FIX.4.4|9=110|35=A|34=1|49=002|50=002B35|52=20190704-15:23:48.029|56=EXC|43=Y|98=0|108=30|141=Y|553=002FCM001|554=002FCM001|10=086|
8=FIX.4.4|9=0067|35=A|34=1|49=EXC|56=002|52=20190704-15:29:42.135|98=0|108=30|141=Y|10=009|
8=FIX.4.4|9=0225|35=R|34=2|49=EXC|56=002|57=002B35|52=20190704-15:29:49.469|131=20190704-000000000007.00|146=1|55=TFIC13280425|762=RFQF|48=20626|22=M|54=1|38=500000000|453=3|448=001B27|447=C|452=12|448=001|447=C|452=1|448=002B35|447=C|452=37|10=025|
8=FIX.4.4|9=219|35=S|34=2|49=002|50=002B35|52=20190704-15:24:15.852|56=EXC|55=TFIC13280425|62=20190830-22:00:00.000|117=201907041023441_S|131=20190704-000000000007.00|134=0|135=500000000|632=0|634=3|762=RFQF|453=1|448=DCV|447=C|452=10|10=108|
8=FIX.4.4|9=0302|35=AI|34=3|49=EXC|56=002|57=002B35|52=20190704-15:30:09.932|131=20190704-000000000007.00|117=201907041023441_S|453=4|448=DCV|447=C|452=10|448=001B27|447=C|452=12|448=001|447=C|452=1|448=002B35|447=C|452=37|55=TFIC13280425|762=RFQF|48=20626|22=M|54=1|634=3.000|135=500000000|62=20190830-22:00:00|297=16|10=011|
8=FIX.4.4|9=0515|35=8|34=4|49=EXC|56=002|57=002B35|52=20190704-15:30:30.672|11=201907041023441_S|17=4|37=0|150=F|1080=20190704-000000000007.00|1081=6|453=6|448=002B35|447=C|452=12|448=002|447=C|452=1|448=001B27|447=C|452=37|448=001|447=C|452=17|448=002FCM001|447=C|452=36|448=DCV|447=C|452=10|55=TFIC13280425|762=RFQF|48=20626|22=M|6=84.204|14=500000000|31=84.204|32=500000000|38=500000000|39=2|20102=84.204|54=2|60=20190704-15:30:30.672|75=20190704|63=1|64=20190704|151=0|1623=3.000|381=421020500.000|880=201907040000000004|828=99|10=031|
8=FIX.4.4|9=59|35=0|34=3|49=002|50=002B35|52=20190704-15:24:45.930|56=EXC|10=053|
8=FIX.4.4|9=0049|35=0|34=5|49=EXC|56=002|52=20190704-15:31:00.000|10=160|
8=FIX.4.4|9=59|35=0|34=4|49=002|50=002B35|52=20190704-15:25:15.936|56=EXC|10=058|
8=FIX.4.4|9=110|35=A|34=1|49=002|50=002B35|52=20190704-15:25:48.359|56=EXC|43=Y|98=0|108=30|141=Y|553=002FCM001|554=002FCM001|10=094|
8=FIX.4.4|9=0067|35=A|34=1|49=EXC|56=002|52=20190704-15:31:42.466|98=0|108=30|141=Y|10=009|
8=FIX.4.4|9=0225|35=R|34=2|49=EXC|56=002|57=002B35|52=20190704-15:31:49.721|131=20190704-000000000008.00|146=1|55=TFIC13280425|762=RFQF|48=20626|22=M|54=1|38=500000000|453=3|448=001B27|447=C|452=12|448=001|447=C|452=1|448=002B35|447=C|452=37|10=010|
8=FIX.4.4|9=219|35=S|34=2|49=002|50=002B35|52=20190704-15:26:16.044|56=EXC|55=TFIC13280425|62=20190830-22:00:00.000|117=201907041025451_S|131=20190704-000000000008.00|134=0|135=500000000|632=0|634=3|762=RFQF|453=1|448=DCV|447=C|452=10|10=108|
8=FIX.4.4|9=0302|35=AI|34=3|49=EXC|56=002|57=002B35|52=20190704-15:32:10.117|131=20190704-000000000008.00|117=201907041025451_S|453=4|448=DCV|447=C|452=10|448=001B27|447=C|452=12|448=001|447=C|452=1|448=002B35|447=C|452=37|55=TFIC13280425|762=RFQF|48=20626|22=M|54=1|634=3.000|135=500000000|62=20190830-22:00:00|297=16|10=004|
8=FIX.4.4|9=0515|35=8|34=4|49=EXC|56=002|57=002B35|52=20190704-15:32:30.742|11=201907041025451_S|17=5|37=0|150=F|1080=20190704-000000000008.00|1081=6|453=6|448=002B35|447=C|452=12|448=002|447=C|452=1|448=001B27|447=C|452=37|448=001|447=C|452=17|448=002FCM001|447=C|452=36|448=DCV|447=C|452=10|55=TFIC13280425|762=RFQF|48=20626|22=M|6=84.204|14=500000000|31=84.204|32=500000000|38=500000000|39=2|20102=84.204|54=2|60=20190704-15:32:30.742|75=20190704|63=1|64=20190704|151=0|1623=3.000|381=421020500.000|880=201907040000000005|828=99|10=037|
8=FIX.4.4|9=110|35=A|34=1|49=002|50=002B35|52=20190704-15:26:55.748|56=EXC|43=Y|98=0|108=30|141=Y|553=002FCM001|554=002FCM001|10=095|
8=FIX.4.4|9=0067|35=A|34=1|49=EXC|56=002|52=20190704-15:32:49.856|98=0|108=30|141=Y|10=020|
8=FIX.4.4|9=0225|35=R|34=2|49=EXC|56=002|57=002B35|52=20190704-15:32:57.089|131=20190704-000000000009.00|146=1|55=TFIC13280425|762=RFQF|48=20626|22=M|54=1|38=500000000|453=3|448=001B27|447=C|452=12|448=001|447=C|452=1|448=002B35|447=C|452=37|10=018|
8=FIX.4.4|9=219|35=S|34=2|49=002|50=002B35|52=20190704-15:27:23.344|56=EXC|55=TFIC13280425|62=20190830-22:00:00.000|117=201907041026521_S|131=20190704-000000000009.00|134=0|135=500000000|632=0|634=3|762=RFQF|453=1|448=DCV|447=C|452=10|10=110|
8=FIX.4.4|9=0302|35=AI|34=3|49=EXC|56=002|57=002B35|52=20190704-15:33:17.432|131=20190704-000000000009.00|117=201907041026521_S|453=4|448=DCV|447=C|452=10|448=001B27|447=C|452=12|448=001|447=C|452=1|448=002B35|447=C|452=37|55=TFIC13280425|762=RFQF|48=20626|22=M|54=1|634=3.000|135=500000000|62=20190830-22:00:00|297=16|10=012|
8=FIX.4.4|9=0515|35=8|34=4|49=EXC|56=002|57=002B35|52=20190704-15:33:38.081|11=201907041026521_S|17=6|37=0|150=F|1080=20190704-000000000009.00|1081=6|453=6|448=002B35|447=C|452=12|448=002|447=C|452=1|448=001B27|447=C|452=37|448=001|447=C|452=17|448=002FCM001|447=C|452=36|448=DCV|447=C|452=10|55=TFIC13280425|762=RFQF|48=20626|22=M|6=84.204|14=500000000|31=84.204|32=500000000|38=500000000|39=2|20102=84.204|54=2|60=20190704-15:33:38.081|75=20190704|63=1|64=20190704|151=0|1623=3.000|381=421020500.000|880=201907040000000006|828=99|10=049|
8=FIX.4.4|9=59|35=0|34=3|49=002|50=002B35|52=20190704-15:27:53.654|56=EXC|10=058|
8=FIX.4.4|9=127|35=j|34=4|49=002|50=002B35|52=20190704-15:28:09.774|56=EXC|45=4|58=Conditionally Required Field Missing, field=453|372=8|380=5|10=045|
8=FIX.4.4|9=0109|35=j|34=5|49=EXC|56=002|57=002B35|52=20190704-15:34:03.857|45=4|372=j|380=3|58=(1468): MsgType(#35) invalido|10=070|
8=FIX.4.4|9=110|35=A|34=1|49=002|50=002B35|52=20190704-16:32:38.375|56=EXC|43=Y|98=0|108=30|141=Y|553=002FCM001|554=002FCM001|10=090|
8=FIX.4.4|9=0067|35=A|34=1|49=EXC|56=002|52=20190704-16:38:32.535|98=0|108=30|141=Y|10=013|
8=FIX.4.4|9=0225|35=R|34=2|49=EXC|56=002|57=002B35|52=20190704-16:38:39.872|131=20190704-000000000010.00|146=1|55=TFIC13280425|762=RFQF|48=20626|22=M|54=1|38=500000000|453=3|448=001B27|447=C|452=12|448=001|447=C|452=1|448=002B35|447=C|452=37|10=017|
8=FIX.4.4|9=219|35=S|34=2|49=002|50=002B35|52=20190704-16:33:06.244|56=EXC|55=TFIC13280425|62=20190830-22:00:00.000|117=201907041132351_S|131=20190704-000000000010.00|134=0|135=500000000|632=0|634=3|762=RFQF|453=1|448=DCV|447=C|452=10|10=099|
8=FIX.4.4|9=0302|35=AI|34=3|49=EXC|56=002|57=002B35|52=20190704-16:39:00.378|131=20190704-000000000010.00|117=201907041132351_S|453=4|448=DCV|447=C|452=10|448=001B27|447=C|452=12|448=001|447=C|452=1|448=002B35|447=C|452=37|55=TFIC13280425|762=RFQF|48=20626|22=M|54=1|634=3.000|135=500000000|62=20190830-22:00:00|297=16|10=011|
8=FIX.4.4|9=0515|35=8|34=4|49=EXC|56=002|57=002B35|52=20190704-16:39:21.068|11=201907041132351_S|17=7|37=0|150=F|1080=20190704-000000000010.00|1081=6|453=6|448=002B35|447=C|452=12|448=002|447=C|452=1|448=001B27|447=C|452=37|448=001|447=C|452=17|448=002FCM001|447=C|452=36|448=DCV|447=C|452=10|55=TFIC13280425|762=RFQF|48=20626|22=M|6=84.204|14=500000000|31=84.204|32=500000000|38=500000000|39=2|20102=84.204|54=2|60=20190704-16:39:21.068|75=20190704|63=1|64=20190704|151=0|1623=3.000|381=421020500.000|880=201907040000000007|828=99|10=050|
8=FIX.4.4|9=59|35=0|34=3|49=002|50=002B35|52=20190704-16:33:36.277|56=EXC|10=058|
8=FIX.4.4|9=0049|35=0|34=5|49=EXC|56=002|52=20190704-16:39:51.000|10=175|
8=FIX.4.4|9=110|35=A|34=1|49=002|50=002B35|52=20190704-19:13:15.117|56=EXC|43=Y|98=0|108=30|141=Y|553=002FCM001|554=002FCM001|10=081|
8=FIX.4.4|9=0067|35=A|34=1|49=EXC|56=002|52=20190704-19:19:09.388|98=0|108=30|141=Y|10=025|
8=FIX.4.4|9=0225|35=R|34=2|49=EXC|56=002|57=002B35|52=20190704-19:19:16.640|131=20190704-000000000011.00|146=1|55=TFIC13280425|762=RFQF|48=20626|22=M|54=1|38=500000000|453=3|448=001B27|447=C|452=12|448=001|447=C|452=1|448=002B35|447=C|452=37|10=008|
8=FIX.4.4|9=219|35=S|34=2|49=002|50=002B35|52=20190704-19:13:42.735|56=EXC|55=TFIC13280425|62=20190830-22:00:00.000|117=201907041413111_S|131=20190704-000000000011.00|134=0|135=500000000|632=0|634=3|762=RFQF|453=1|448=DCV|447=C|452=10|10=102|
8=FIX.4.4|9=0302|35=AI|34=3|49=EXC|56=002|57=002B35|52=20190704-19:19:36.990|131=20190704-000000000011.00|117=201907041413111_S|453=4|448=DCV|447=C|452=10|448=001B27|447=C|452=12|448=001|447=C|452=1|448=002B35|447=C|452=37|55=TFIC13280425|762=RFQF|48=20626|22=M|54=1|634=3.000|135=500000000|62=20190830-22:00:00|297=16|10=018|
8=FIX.4.4|9=0515|35=8|34=4|49=EXC|56=002|57=002B35|52=20190704-19:19:57.584|11=201907041413111_S|17=8|37=0|150=F|1080=20190704-000000000011.00|1081=6|453=6|448=002B35|447=C|452=12|448=002|447=C|452=1|448=001B27|447=C|452=37|448=001|447=C|452=17|448=002FCM001|447=C|452=36|448=DCV|447=C|452=10|55=TFIC13280425|762=RFQF|48=20626|22=M|6=84.204|14=500000000|31=84.204|32=500000000|38=500000000|39=2|20102=84.204|54=2|60=20190704-19:19:57.584|75=20190704|63=1|64=20190704|151=0|1623=3.000|381=421020500.000|880=201907040000000008|828=99|10=075|
8=FIX.4.4|9=59|35=0|34=3|49=002|50=002B35|52=20190704-19:14:12.991|56=EXC|10=057|
8=FIX.4.4|9=127|35=j|34=4|49=002|50=002B35|52=20190704-19:14:29.234|56=EXC|45=4|58=Conditionally Required Field Missing, field=453|372=8|380=5|10=037|
8=FIX.4.4|9=0109|35=j|34=5|49=EXC|56=002|57=002B35|52=20190704-19:20:23.487|45=4|372=j|380=3|58=(1468): MsgType(#35) invalido|10=070|
8=FIX.4.4|9=110|35=A|34=1|49=002|50=002B35|52=20190704-21:29:09.794|56=EXC|43=Y|98=0|108=30|141=Y|553=002FCM001|554=002FCM001|10=095|
8=FIX.4.4|9=0067|35=A|34=1|49=EXC|56=002|52=20190704-21:35:04.163|98=0|108=30|141=Y|10=002|
8=FIX.4.4|9=0225|35=R|34=2|49=EXC|56=002|57=002B35|52=20190704-21:35:11.497|131=20190704-000000000012.00|146=1|55=TFIC13280425|762=RFQF|48=20626|22=M|54=1|38=500000000|453=3|448=001B27|447=C|452=12|448=001|447=C|452=1|448=002B35|447=C|452=37|10=005|
8=FIX.4.4|9=219|35=S|34=2|49=002|50=002B35|52=20190704-21:29:37.538|56=EXC|55=TFIC13280425|62=20190830-22:00:00.000|117=201907041629061_S|131=20190704-000000000012.00|134=0|135=500000000|632=0|634=3|762=RFQF|453=1|448=DCV|447=C|452=10|10=121|
8=FIX.4.4|9=0302|35=AI|34=3|49=EXC|56=002|57=002B35|52=20190704-21:35:31.887|131=20190704-000000000012.00|117=201907041629061_S|453=4|448=DCV|447=C|452=10|448=001B27|447=C|452=12|448=001|447=C|452=1|448=002B35|447=C|452=37|55=TFIC13280425|762=RFQF|48=20626|22=M|54=1|634=3.000|135=500000000|62=20190830-22:00:00|297=16|10=023|
8=FIX.4.4|9=0515|35=8|34=4|49=EXC|56=002|57=002B35|52=20190704-21:35:52.501|11=201907041629061_S|17=9|37=0|150=F|1080=20190704-000000000012.00|1081=6|453=6|448=002B35|447=C|452=12|448=002|447=C|452=1|448=001B27|447=C|452=37|448=001|447=C|452=17|448=002FCM001|447=C|452=36|448=DCV|447=C|452=10|55=TFIC13280425|762=RFQF|48=20626|22=M|6=84.204|14=500000000|31=84.204|32=500000000|38=500000000|39=2|20102=84.204|54=2|60=20190704-21:35:52.501|75=20190704|63=1|64=20190704|151=0|1623=3.000|381=421020500.000|880=201907040000000009|828=99|10=041|
8=FIX.4.4|9=59|35=0|34=3|49=002|50=002B35|52=20190704-21:30:07.698|56=EXC|10=056|
8=FIX.4.4|9=127|35=j|34=4|49=002|50=002B35|52=20190704-21:30:24.111|56=EXC|45=4|58=Conditionally Required Field Missing, field=453|372=8|380=5|10=017|
8=FIX.4.4|9=0109|35=j|34=5|49=EXC|56=002|57=002B35|52=20190704-21:36:18.450|45=4|372=j|380=3|58=(1468): MsgType(#35) invalido|10=064|
8=FIX.4.4|9=110|35=A|34=1|49=002|50=002B35|52=20190704-21:55:00.350|56=EXC|43=Y|98=0|108=30|141=Y|553=002FCM001|554=002FCM001|10=073|
8=FIX.4.4|9=0067|35=A|34=1|49=EXC|56=002|52=20190704-22:00:54.753|98=0|108=30|141=Y|10=005|
8=FIX.4.4|9=0225|35=R|34=2|49=EXC|56=002|57=002B35|52=20190704-22:01:01.927|131=20190704-000000000013.00|146=1|55=TFIC13280425|762=RFQF|48=20626|22=M|54=1|38=500000000|453=3|448=001B27|447=C|452=12|448=001|447=C|452=1|448=002B35|447=C|452=37|10=253|
8=FIX.4.4|9=219|35=S|34=2|49=002|50=002B35|52=20190704-21:55:27.923|56=EXC|55=TFIC13280425|62=20190830-22:00:00.000|117=201907041654561_S|131=20190704-000000000013.00|134=0|135=500000000|632=0|634=3|762=RFQF|453=1|448=DCV|447=C|452=10|10=121|
8=FIX.4.4|9=0302|35=AI|34=3|49=EXC|56=002|57=002B35|52=20190704-22:01:22.294|131=20190704-000000000013.00|117=201907041654561_S|453=4|448=DCV|447=C|452=10|448=001B27|447=C|452=12|448=001|447=C|452=1|448=002B35|447=C|452=37|55=TFIC13280425|762=RFQF|48=20626|22=M|54=1|634=3.000|135=500000000|62=20190830-22:00:00|297=16|10=013|
8=FIX.4.4|9=0516|35=8|34=4|49=EXC|56=002|57=002B35|52=20190704-22:01:42.928|11=201907041654561_S|17=10|37=0|150=F|1080=20190704-000000000013.00|1081=6|453=6|448=002B35|447=C|452=12|448=002|447=C|452=1|448=001B27|447=C|452=37|448=001|447=C|452=17|448=002FCM001|447=C|452=36|448=DCV|447=C|452=10|55=TFIC13280425|762=RFQF|48=20626|22=M|6=84.204|14=500000000|31=84.204|32=500000000|38=500000000|39=2|20102=84.204|54=2|60=20190704-22:01:42.928|75=20190704|63=1|64=20190704|151=0|1623=3.000|381=421020500.000|880=201907040000000010|828=99|10=090|
8=FIX.4.4|9=59|35=0|34=3|49=002|50=002B35|52=20190704-21:55:58.268|56=EXC|10=062|
8=FIX.4.4|9=127|35=j|34=4|49=002|50=002B35|52=20190704-21:56:14.599|56=EXC|45=4|58=Conditionally Required Field Missing, field=453|372=8|380=5|10=044|
8=FIX.4.4|9=0109|35=j|34=5|49=EXC|56=002|57=002B35|52=20190704-22:02:08.961|45=4|372=j|380=3|58=(1468): MsgType(#35) invalido|10=064|
8=FIX.4.4|9=110|35=A|34=1|49=002|50=002B35|52=20190705-15:23:21.232|56=EXC|43=Y|98=0|108=30|141=Y|553=002FCM001|554=002FCM001|10=074|
8=FIX.4.4|9=0067|35=A|34=1|49=EXC|56=002|52=20190705-15:29:16.311|98=0|108=30|141=Y|10=007|
8=FIX.4.4|9=0225|35=R|34=2|49=EXC|56=002|57=002B35|52=20190705-15:29:23.585|131=20190705-000000000005.00|146=1|55=TFIC13280425|762=RFQF|48=20626|22=M|54=1|38=500000000|453=3|448=001B27|447=C|452=12|448=001|447=C|452=1|448=002B35|447=C|452=37|10=016|
8=FIX.4.4|9=219|35=S|34=2|49=002|50=002B35|52=20190705-15:23:48.878|56=EXC|55=TFIC13280425|62=20190830-22:00:00.000|117=201907051023171_S|131=20190705-000000000005.00|134=0|135=500000000|632=0|634=3|762=RFQF|453=1|448=DCV|447=C|452=10|10=122|
8=FIX.4.4|9=0302|35=AI|34=3|49=EXC|56=002|57=002B35|52=20190705-15:29:43.912|131=20190705-000000000005.00|117=201907051023171_S|453=4|448=DCV|447=C|452=10|448=001B27|447=C|452=12|448=001|447=C|452=1|448=002B35|447=C|452=37|55=TFIC13280425|762=RFQF|48=20626|22=M|54=1|634=3.000|135=500000000|62=20190830-22:00:00|297=16|10=016|
8=FIX.4.4|9=0515|35=8|34=4|49=EXC|56=002|57=002B35|52=20190705-15:30:04.489|11=201907051023171_S|17=1|37=0|150=F|1080=20190705-000000000005.00|1081=6|453=6|448=002B35|447=C|452=12|448=002|447=C|452=1|448=001B27|447=C|452=37|448=001|447=C|452=17|448=002FCM001|447=C|452=36|448=DCV|447=C|452=10|55=TFIC13280425|762=RFQF|48=20626|22=M|6=84.210|14=500000000|31=84.210|32=500000000|38=500000000|39=2|20102=84.210|54=2|60=20190705-15:30:04.489|75=20190705|63=1|64=20190705|151=0|1623=3.000|381=421054500.000|880=201907050000000001|828=99|10=042|
8=FIX.4.4|9=110|35=A|34=1|49=002|50=002B35|52=20190705-15:24:40.693|56=EXC|43=Y|98=0|108=30|141=Y|553=002FCM001|554=002FCM001|10=087|
8=FIX.4.4|9=0067|35=A|34=1|49=EXC|56=002|52=20190705-15:30:35.755|98=0|108=30|141=Y|10=012|
8=FIX.4.4|9=0225|35=R|34=2|49=EXC|56=002|57=002B35|52=20190705-15:30:43.035|131=20190705-000000000006.00|146=1|55=TFIC13280425|762=RFQF|48=20626|22=M|54=1|38=500000000|453=3|448=001B27|447=C|452=12|448=001|447=C|452=1|448=002B35|447=C|452=37|10=001|
8=FIX.4.4|9=219|35=S|34=2|49=002|50=002B35|52=20190705-15:25:08.371|56=EXC|55=TFIC13280425|62=20190830-22:00:00.000|117=201907051024371_S|131=20190705-000000000006.00|134=0|135=500000000|632=0|634=3|762=RFQF|453=1|448=DCV|447=C|452=10|10=112|
8=FIX.4.4|9=0302|35=AI|34=3|49=EXC|56=002|57=002B35|52=20190705-15:31:03.409|131=20190705-000000000006.00|117=201907051024371_S|453=4|448=DCV|447=C|452=10|448=001B27|447=C|452=12|448=001|447=C|452=1|448=002B35|447=C|452=37|55=TFIC13280425|762=RFQF|48=20626|22=M|54=1|634=3.000|135=500000000|62=20190830-22:00:00|297=16|10=010|
8=FIX.4.4|9=0515|35=8|34=4|49=EXC|56=002|57=002B35|52=20190705-15:31:24.009|11=201907051024371_S|17=2|37=0|150=F|1080=20190705-000000000006.00|1081=6|453=6|448=002B35|447=C|452=12|448=002|447=C|452=1|448=001B27|447=C|452=37|448=001|447=C|452=17|448=002FCM001|447=C|452=36|448=DCV|447=C|452=10|55=TFIC13280425|762=RFQF|48=20626|22=M|6=84.210|14=500000000|31=84.210|32=500000000|38=500000000|39=2|20102=84.210|54=2|60=20190705-15:31:24.009|75=20190705|63=1|64=20190705|151=0|1623=3.000|381=421054500.000|880=201907050000000002|828=99|10=030|
8=FIX.4.4|9=59|35=0|34=3|49=002|50=002B35|52=20190705-15:25:38.625|56=EXC|10=058|
8=FIX.4.4|9=0049|35=0|34=5|49=EXC|56=002|52=20190705-15:31:54.000|10=170|
8=FIX.4.4|9=110|35=A|34=1|49=002|50=002B35|52=20190705-15:28:38.310|56=EXC|43=Y|98=0|108=30|141=Y|553=002FCM001|554=002FCM001|10=084|
8=FIX.4.4|9=0067|35=A|34=1|49=EXC|56=002|52=20190705-15:34:33.366|98=0|108=30|141=Y|10=012|
8=FIX.4.4|9=0225|35=R|34=2|49=EXC|56=002|57=002B35|52=20190705-15:34:40.574|131=20190705-000000000007.00|146=1|55=TFIC13280425|762=RFQF|48=20626|22=M|54=1|38=500000000|453=3|448=001B27|447=C|452=12|448=001|447=C|452=1|448=002B35|447=C|452=37|10=011|
8=FIX.4.4|9=219|35=S|34=2|49=002|50=002B35|52=20190705-15:29:05.919|56=EXC|55=TFIC13280425|62=20190830-22:00:00.000|117=201907051028341_S|131=20190705-000000000007.00|134=0|135=500000000|632=0|634=3|762=RFQF|453=1|448=DCV|447=C|452=10|10=123|
8=FIX.4.4|9=0302|35=AI|34=3|49=EXC|56=002|57=002B35|52=20190705-15:35:00.952|131=20190705-000000000007.00|117=201907051028341_S|453=4|448=DCV|447=C|452=10|448=001B27|447=C|452=12|448=001|447=C|452=1|448=002B35|447=C|452=37|55=TFIC13280425|762=RFQF|48=20626|22=M|54=1|634=3.000|135=500000000|62=20190830-22:00:00|297=16|10=016|
8=FIX.4.4|9=0515|35=8|34=4|49=EXC|56=002|57=002B35|52=20190705-15:35:21.673|11=201907051028341_S|17=3|37=0|150=F|1080=20190705-000000000007.00|1081=6|453=6|448=002B35|447=C|452=12|448=002|447=C|452=1|448=001B27|447=C|452=37|448=001|447=C|452=17|448=002FCM001|447=C|452=36|448=DCV|447=C|452=10|55=TFIC13280425|762=RFQF|48=20626|22=M|6=84.210|14=500000000|31=84.210|32=500000000|38=500000000|39=2|20102=84.210|54=2|60=20190705-15:35:21.673|75=20190705|63=1|64=20190705|151=0|1623=3.000|381=421054500.000|880=201907050000000003|828=99|10=050|
8=FIX.4.4|9=59|35=0|34=3|49=002|50=002B35|52=20190705-15:29:36.204|56=EXC|10=053|
8=FIX.4.4|9=0049|35=0|34=5|49=EXC|56=002|52=20190705-15:35:51.000|10=171|
8=FIX.4.4|9=110|35=A|34=1|49=002|50=002B35|52=20190705-16:02:51.384|56=EXC|43=Y|98=0|108=30|141=Y|553=002FCM001|554=002FCM001|10=083|
8=FIX.4.4|9=0067|35=A|34=1|49=EXC|56=002|52=20190705-16:08:46.461|98=0|108=30|141=Y|10=014|
8=FIX.4.4|9=0225|35=R|34=2|49=EXC|56=002|57=002B35|52=20190705-16:08:53.794|131=20190705-000000000008.00|146=1|55=TFIC13280425|762=RFQF|48=20626|22=M|54=1|38=500000000|453=3|448=001B27|447=C|452=12|448=001|447=C|452=1|448=002B35|447=C|452=37|10=022|
8=FIX.4.4|9=219|35=S|34=2|49=002|50=002B35|52=20190705-16:03:19.095|56=EXC|55=TFIC13280425|62=20190830-22:00:00.000|117=201907051102471_S|131=20190705-000000000008.00|134=0|135=500000000|632=0|634=3|762=RFQF|453=1|448=DCV|447=C|452=10|10=114|
8=FIX.4.4|9=0302|35=AI|34=3|49=EXC|56=002|57=002B35|52=20190705-16:09:14.162|131=20190705-000000000008.00|117=201907051102471_S|453=4|448=DCV|447=C|452=10|448=001B27|447=C|452=12|448=001|447=C|452=1|448=002B35|447=C|452=37|55=TFIC13280425|762=RFQF|48=20626|22=M|54=1|634=3.000|135=500000000|62=20190830-22:00:00|297=16|10=014|
8=FIX.4.4|9=0515|35=8|34=4|49=EXC|56=002|57=002B35|52=20190705-16:09:34.786|11=201907051102471_S|17=4|37=0|150=F|1080=20190705-000000000008.00|1081=6|453=6|448=002B35|447=C|452=12|448=002|447=C|452=1|448=001B27|447=C|452=37|448=001|447=C|452=17|448=002FCM001|447=C|452=36|448=DCV|447=C|452=10|55=TFIC13280425|762=RFQF|48=20626|22=M|6=84.210|14=500000000|31=84.210|32=500000000|38=500000000|39=2|20102=84.210|54=2|60=20190705-16:09:34.786|75=20190705|63=1|64=20190705|151=0|1623=3.000|381=421054500.000|880=201907050000000004|828=99|10=072|
8=FIX.4.4|9=59|35=0|34=3|49=002|50=002B35|52=20190705-16:03:49.288|56=EXC|10=062|
8=FIX.4.4|9=0049|35=0|34=5|49=EXC|56=002|52=20190705-16:10:04.000|10=163|
8=FIX.4.4|9=110|35=A|34=1|49=002|50=002B35|52=20190705-16:04:44.317|56=EXC|43=Y|98=0|108=30|141=Y|553=002FCM001|554=002FCM001|10=083|
8=FIX.4.4|9=0067|35=A|34=1|49=EXC|56=002|52=20190705-16:10:39.404|98=0|108=30|141=Y|10=006|
8=FIX.4.4|9=0225|35=R|34=2|49=EXC|56=002|57=002B35|52=20190705-16:10:46.669|131=20190705-000000000009.00|146=1|55=TFIC13280425|762=RFQF|48=20626|22=M|54=1|38=500000000|453=3|448=001B27|447=C|452=12|448=001|447=C|452=1|448=002B35|447=C|452=37|10=019|
8=FIX.4.4|9=219|35=S|34=2|49=002|50=002B35|52=20190705-16:05:11.996|56=EXC|55=TFIC13280425|62=20190830-22:00:00.000|117=201907051104401_S|131=20190705-000000000009.00|134=0|135=500000000|632=0|634=3|762=RFQF|453=1|448=DCV|447=C|452=10|10=114|
8=FIX.4.4|9=0302|35=AI|34=3|49=EXC|56=002|57=002B35|52=20190705-16:11:07.066|131=20190705-000000000009.00|117=201907051104401_S|453=4|448=DCV|447=C|452=10|448=001B27|447=C|452=12|448=001|447=C|452=1|448=002B35|447=C|452=37|55=TFIC13280425|762=RFQF|48=20626|22=M|54=1|634=3.000|135=500000000|62=20190830-22:00:00|297=16|10=008|
8=FIX.4.4|9=0515|35=8|34=4|49=EXC|56=002|57=002B35|52=20190705-16:11:27.866|11=201907051104401_S|17=5|37=0|150=F|1080=20190705-000000000009.00|1081=6|453=6|448=002B35|447=C|452=12|448=002|447=C|452=1|448=001B27|447=C|452=37|448=001|447=C|452=17|448=002FCM001|447=C|452=36|448=DCV|447=C|452=10|55=TFIC13280425|762=RFQF|48=20626|22=M|6=84.210|14=500000000|31=84.210|32=500000000|38=500000000|39=2|20102=84.210|54=2|60=20190705-16:11:27.866|75=20190705|63=1|64=20190705|151=0|1623=3.000|381=421054500.000|880=201907050000000005|828=99|10=058|
8=FIX.4.4|9=59|35=0|34=3|49=002|50=002B35|52=20190705-16:05:42.254|56=EXC|10=050|
8=FIX.4.4|9=127|35=j|34=4|49=002|50=002B35|52=20190705-16:05:58.821|56=EXC|45=4|58=Conditionally Required Field Missing, field=453|372=8|380=5|10=039|
8=FIX.4.4|9=0109|35=j|34=5|49=EXC|56=002|57=002B35|52=20190705-16:11:53.887|45=4|372=j|380=3|58=(1468): MsgType(#35) invalido|10=075|
8=FIX.4.4|9=110|35=A|34=1|49=002|50=002B35|52=20190705-16:38:08.356|56=EXC|43=Y|98=0|108=30|141=Y|553=002FCM001|554=002FCM001|10=093|
8=FIX.4.4|9=0067|35=A|34=1|49=EXC|56=002|52=20190705-16:44:03.477|98=0|108=30|141=Y|10=014|
8=FIX.4.4|9=0225|35=R|34=2|49=EXC|56=002|57=002B35|52=20190705-16:44:10.632|131=20190705-000000000010.00|146=1|55=TFIC13280425|762=RFQF|48=20626|22=M|54=1|38=500000000|453=3|448=001B27|447=C|452=12|448=001|447=C|452=1|448=002B35|447=C|452=37|10=255|
8=FIX.4.4|9=219|35=S|34=2|49=002|50=002B35|52=20190705-16:38:35.928|56=EXC|55=TFIC13280425|62=20190830-22:00:00.000|117=201907051138041_S|131=20190705-000000000010.00|134=0|135=500000000|632=0|634=3|762=RFQF|453=1|448=DCV|447=C|452=10|10=120|
8=FIX.4.4|9=0302|35=AI|34=3|49=EXC|56=002|57=002B35|52=20190705-16:44:31.013|131=20190705-000000000010.00|117=201907051138041_S|453=4|448=DCV|447=C|452=10|448=001B27|447=C|452=12|448=001|447=C|452=1|448=002B35|447=C|452=37|55=TFIC13280425|762=RFQF|48=20626|22=M|54=1|634=3.000|135=500000000|62=20190830-22:00:00|297=16|10=002|
8=FIX.4.4|9=0515|35=8|34=4|49=EXC|56=002|57=002B35|52=20190705-16:44:51.567|11=201907051138041_S|17=6|37=0|150=F|1080=20190705-000000000010.00|1081=6|453=6|448=002B35|447=C|452=12|448=002|447=C|452=1|448=001B27|447=C|452=37|448=001|447=C|452=17|448=002FCM001|447=C|452=36|448=DCV|447=C|452=10|55=TFIC13280425|762=RFQF|48=20626|22=M|6=84.210|14=500000000|31=84.210|32=500000000|38=500000000|39=2|20102=84.210|54=2|60=20190705-16:44:51.567|75=20190705|63=1|64=20190705|151=0|1623=3.000|381=421054500.000|880=201907050000000006|828=99|10=061|
8=FIX.4.4|9=59|35=0|34=3|49=002|50=002B35|52=20190705-16:39:06.220|56=EXC|10=050|
8=FIX.4.4|9=0049|35=0|34=5|49=EXC|56=002|52=20190705-16:45:21.000|10=170|
8=FIX.4.4|9=59|35=0|34=4|49=002|50=002B35|52=20190705-16:39:36.223|56=EXC|10=057|
8=FIX.4.4|9=0049|35=0|34=6|49=EXC|56=002|52=20190705-16:45:51.000|10=174|
8=FIX.4.4|9=59|35=0|34=5|49=002|50=002B35|52=20190705-16:40:06.223|56=EXC|10=047|
8=FIX.4.4|9=110|35=A|34=1|49=002|50=002B35|52=20190705-16:44:28.152|56=EXC|43=Y|98=0|108=30|141=Y|553=002FCM001|554=002FCM001|10=086|
8=FIX.4.4|9=0067|35=A|34=1|49=EXC|56=002|52=20190705-16:50:23.262|98=0|108=30|141=Y|10=005|
8=FIX.4.4|9=0225|35=R|34=2|49=EXC|56=002|57=002B35|52=20190705-16:50:30.649|131=20190705-000000000011.00|146=1|55=TFIC13280425|762=RFQF|48=20626|22=M|54=1|38=500000000|453=3|448=001B27|447=C|452=12|448=001|447=C|452=1|448=002B35|447=C|452=37|10=007|
8=FIX.4.4|9=219|35=S|34=2|49=002|50=002B35|52=20190705-16:44:55.959|56=EXC|55=TFIC13280425|62=20190830-22:00:00.000|117=201907051144241_S|131=20190705-000000000011.00|134=0|135=500000000|632=0|634=3|762=RFQF|453=1|448=DCV|447=C|452=10|10=123|
8=FIX.4.4|9=0302|35=AI|34=3|49=EXC|56=002|57=002B35|52=20190705-16:50:51.054|131=20190705-000000000011.00|117=201907051144241_S|453=4|448=DCV|447=C|452=10|448=001B27|447=C|452=12|448=001|447=C|452=1|448=002B35|447=C|452=37|55=TFIC13280425|762=RFQF|48=20626|22=M|54=1|634=3.000|135=500000000|62=20190830-22:00:00|297=16|10=006|
8=FIX.4.4|9=0515|35=8|34=4|49=EXC|56=002|57=002B35|52=20190705-16:51:11.667|11=201907051144241_S|17=7|37=0|150=F|1080=20190705-000000000011.00|1081=6|453=6|448=002B35|447=C|452=12|448=002|447=C|452=1|448=001B27|447=C|452=37|448=001|447=C|452=17|448=002FCM001|447=C|452=36|448=DCV|447=C|452=10|55=TFIC13280425|762=RFQF|48=20626|22=M|6=84.210|14=500000000|31=84.210|32=500000000|38=500000000|39=2|20102=84.210|54=2|60=20190705-16:51:11.667|75=20190705|63=1|64=20190705|151=0|1623=3.000|381=421054500.000|880=201907050000000007|828=99|10=053|
8=FIX.4.4|9=59|35=0|34=3|49=002|50=002B35|52=20190705-16:45:26.084|56=EXC|10=057|
8=FIX.4.4|9=0049|35=0|34=5|49=EXC|56=002|52=20190705-16:51:41.000|10=169|
8=FIX.4.4|9=59|35=0|34=4|49=002|50=002B35|52=20190705-16:45:56.079|56=EXC|10=065|
8=FIX.4.4|9=0049|35=0|34=6|49=EXC|56=002|52=20190705-16:52:11.000|10=168|
8=FIX.4.4|9=59|35=0|34=5|49=002|50=002B35|52=20190705-16:46:26.078|56=EXC|10=063|
8=FIX.4.4|9=0049|35=0|34=7|49=EXC|56=002|52=20190705-16:52:41.000|10=172|
8=FIX.4.4|9=59|35=0|34=6|49=002|50=002B35|52=20190705-16:46:56.082|56=EXC|10=062|
8=FIX.4.4|9=0049|35=0|34=8|49=EXC|56=002|52=20190705-16:53:11.000|10=171|
8=FIX.4.4|9=59|35=0|34=7|49=002|50=002B35|52=20190705-16:47:26.077|56=EXC|10=065|
8=FIX.4.4|9=110|35=A|34=1|49=002|50=002B35|52=20190705-16:51:15.041|56=EXC|43=Y|98=0|108=30|141=Y|553=002FCM001|554=002FCM001|10=077|
8=FIX.4.4|9=0067|35=A|34=1|49=EXC|56=002|52=20190705-16:57:10.170|98=0|108=30|141=Y|10=006|
8=FIX.4.4|9=0225|35=R|34=2|49=EXC|56=002|57=002B35|52=20190705-16:57:17.358|131=20190705-000000000012.00|146=1|55=TFIC13280425|762=RFQF|48=20626|22=M|54=1|38=500000000|453=3|448=001B27|447=C|452=12|448=001|447=C|452=1|448=002B35|447=C|452=37|10=017|
8=FIX.4.4|9=219|35=S|34=2|49=002|50=002B35|52=20190705-16:51:42.660|56=EXC|55=TFIC13280425|62=20190830-22:00:00.000|117=201907051151111_S|131=20190705-000000000012.00|134=0|135=500000000|632=0|634=3|762=RFQF|453=1|448=DCV|447=C|452=10|10=101|
8=FIX.4.4|9=0302|35=AI|34=3|49=EXC|56=002|57=002B35|52=20190705-16:57:37.750|131=20190705-000000000012.00|117=201907051151111_S|453=4|448=DCV|447=C|452=10|448=001B27|447=C|452=12|448=001|447=C|452=1|448=002B35|447=C|452=37|55=TFIC13280425|762=RFQF|48=20626|22=M|54=1|634=3.000|135=500000000|62=20190830-22:00:00|297=16|10=015|
8=FIX.4.4|9=0515|35=8|34=4|49=EXC|56=002|57=002B35|52=20190705-16:57:58.273|11=201907051151111_S|17=8|37=0|150=F|1080=20190705-000000000012.00|1081=6|453=6|448=002B35|447=C|452=12|448=002|447=C|452=1|448=001B27|447=C|452=37|448=001|447=C|452=17|448=002FCM001|447=C|452=36|448=DCV|447=C|452=10|55=TFIC13280425|762=RFQF|48=20626|22=M|6=84.210|14=500000000|31=84.210|32=500000000|38=500000000|39=2|20102=84.210|54=2|60=20190705-16:57:58.273|75=20190705|63=1|64=20190705|151=0|1623=3.000|381=421054500.000|880=201907050000000008|828=99|10=070|
8=FIX.4.4|9=59|35=0|34=3|49=002|50=002B35|52=20190705-16:52:12.914|56=EXC|10=052|
8=FIX.4.4|9=0049|35=0|34=5|49=EXC|56=002|52=20190705-16:58:28.000|10=181|
8=FIX.4.4|9=59|35=0|34=4|49=002|50=002B35|52=20190705-16:52:42.921|56=EXC|10=054|
8=FIX.4.4|9=110|35=A|34=1|49=002|50=002B35|52=20190705-16:54:04.080|56=EXC|43=Y|98=0|108=30|141=Y|553=002FCM001|554=002FCM001|10=081|
8=FIX.4.4|9=0067|35=A|34=1|49=EXC|56=002|52=20190705-16:59:59.196|98=0|108=30|141=Y|10=029|
8=FIX.4.4|9=0225|35=R|34=2|49=EXC|56=002|57=002B35|52=20190705-17:00:06.395|131=20190705-000000000013.00|146=1|55=TFIC13280425|762=RFQF|48=20626|22=M|54=1|38=500000000|453=3|448=001B27|447=C|452=12|448=001|447=C|452=1|448=002B35|447=C|452=37|10=006|
8=FIX.4.4|9=219|35=S|34=2|49=002|50=002B35|52=20190705-16:54:31.636|56=EXC|55=TFIC13280425|62=20190830-22:00:00.000|117=201907051154001_S|131=20190705-000000000013.00|134=0|135=500000000|632=0|634=3|762=RFQF|453=1|448=DCV|447=C|452=10|10=107|
8=FIX.4.4|9=0302|35=AI|34=3|49=EXC|56=002|57=002B35|52=20190705-17:00:26.735|131=20190705-000000000013.00|117=201907051154001_S|453=4|448=DCV|447=C|452=10|448=001B27|447=C|452=12|448=001|447=C|452=1|448=002B35|447=C|452=37|55=TFIC13280425|762=RFQF|48=20626|22=M|54=1|634=3.000|135=500000000|62=20190830-22:00:00|297=16|10=007|
8=FIX.4.4|9=0515|35=8|34=4|49=EXC|56=002|57=002B35|52=20190705-17:00:47.277|11=201907051154001_S|17=9|37=0|150=F|1080=20190705-000000000013.00|1081=6|453=6|448=002B35|447=C|452=12|448=002|447=C|452=1|448=001B27|447=C|452=37|448=001|447=C|452=17|448=002FCM001|447=C|452=36|448=DCV|447=C|452=10|55=TFIC13280425|762=RFQF|48=20626|22=M|6=84.210|14=500000000|31=84.210|32=500000000|38=500000000|39=2|20102=84.210|54=2|60=20190705-17:00:47.277|75=20190705|63=1|64=20190705|151=0|1623=3.000|381=421054500.000|880=201907050000000009|828=99|10=056|
8=FIX.4.4|9=59|35=0|34=3|49=002|50=002B35|52=20190705-16:55:02.074|56=EXC|10=051|
8=FIX.4.4|9=0049|35=0|34=5|49=EXC|56=002|52=20190705-17:01:17.000|10=168|
8=FIX.4.4|9=59|35=0|34=4|49=002|50=002B35|52=20190705-16:55:32.076|56=EXC|10=057|
8=FIX.4.4|9=110|35=A|34=1|49=002|50=002B35|52=20190705-19:47:04.996|56=EXC|43=Y|98=0|108=30|141=Y|553=002FCM001|554=002FCM001|10=102|
8=FIX.4.4|9=0067|35=A|34=1|49=EXC|56=002|52=20190705-19:53:00.246|98=0|108=30|141=Y|10=008|
8=FIX.4.4|9=0225|35=R|34=2|49=EXC|56=002|57=002B35|52=20190705-19:53:07.441|131=20190705-000000000014.00|146=1|55=TFIC13280425|762=RFQF|48=20626|22=M|54=1|38=500000000|453=3|448=001B27|447=C|452=12|448=001|447=C|452=1|448=002B35|447=C|452=37|10=010|
8=FIX.4.4|9=219|35=S|34=2|49=002|50=002B35|52=20190705-19:47:32.685|56=EXC|55=TFIC13280425|62=20190830-22:00:00.000|117=201907051447011_S|131=20190705-000000000014.00|134=0|135=500000000|632=0|634=3|762=RFQF|453=1|448=DCV|447=C|452=10|10=124|
8=FIX.4.4|9=0302|35=AI|34=3|49=EXC|56=002|57=002B35|52=20190705-19:53:27.912|131=20190705-000000000014.00|117=201907051447011_S|453=4|448=DCV|447=C|452=10|448=001B27|447=C|452=12|448=001|447=C|452=1|448=002B35|447=C|452=37|55=TFIC13280425|762=RFQF|48=20626|22=M|54=1|634=3.000|135=500000000|62=20190830-22:00:00|297=16|10=022|
8=FIX.4.4|9=0516|35=8|34=4|49=EXC|56=002|57=002B35|52=20190705-19:53:48.531|11=201907051447011_S|17=10|37=0|150=F|1080=20190705-000000000014.00|1081=6|453=6|448=002B35|447=C|452=12|448=002|447=C|452=1|448=001B27|447=C|452=37|448=001|447=C|452=17|448=002FCM001|447=C|452=36|448=DCV|447=C|452=10|55=TFIC13280425|762=RFQF|48=20626|22=M|6=84.210|14=500000000|31=84.210|32=500000000|38=500000000|39=2|20102=84.210|54=2|60=20190705-19:53:48.531|75=20190705|63=1|64=20190705|151=0|1623=3.000|381=421054500.000|880=201907050000000010|828=99|10=104|
8=FIX.4.4|9=59|35=0|34=3|49=002|50=002B35|52=20190705-19:48:02.906|56=EXC|10=060|
8=FIX.4.4|9=0049|35=0|34=5|49=EXC|56=002|52=20190705-19:54:18.000|10=179|
8=FIX.4.4|9=59|35=0|34=4|49=002|50=002B35|52=20190705-19:48:32.901|56=EXC|10=059|
8=FIX.4.4|9=110|35=A|34=1|49=002|50=002B35|52=20190705-20:28:22.938|56=EXC|43=Y|98=0|108=30|141=Y|553=002FCM001|554=002FCM001|10=089|
8=FIX.4.4|9=0067|35=A|34=1|49=EXC|56=002|52=20190705-20:34:18.243|98=0|108=30|141=Y|10=005|
8=FIX.4.4|9=0225|35=R|34=2|49=EXC|56=002|57=002B35|52=20190705-20:34:25.435|131=20190705-000000000015.00|146=1|55=TFIC13280425|762=RFQF|48=20626|22=M|54=1|38=500000000|453=3|448=001B27|447=C|452=12|448=001|447=C|452=1|448=002B35|447=C|452=37|10=005|
8=FIX.4.4|9=219|35=S|34=2|49=002|50=002B35|52=20190705-20:28:50.555|56=EXC|55=TFIC13280425|62=20190830-22:00:00.000|117=201907051528191_S|131=20190705-000000000015.00|134=0|135=500000000|632=0|634=3|762=RFQF|453=1|448=DCV|447=C|452=10|10=121|
8=FIX.4.4|9=0302|35=AI|34=3|49=EXC|56=002|57=002B35|52=20190705-20:34:45.804|131=20190705-000000000015.00|117=201907051528191_S|453=4|448=DCV|447=C|452=10|448=001B27|447=C|452=12|448=001|447=C|452=1|448=002B35|447=C|452=37|55=TFIC13280425|762=RFQF|48=20626|22=M|54=1|634=3.000|135=500000000|62=20190830-22:00:00|297=16|10=023|
8=FIX.4.4|9=0516|35=8|34=4|49=EXC|56=002|57=002B35|52=20190705-20:35:06.320|11=201907051528191_S|17=11|37=0|150=F|1080=20190705-000000000015.00|1081=6|453=6|448=002B35|447=C|452=12|448=002|447=C|452=1|448=001B27|447=C|452=37|448=001|447=C|452=17|448=002FCM001|447=C|452=36|448=DCV|447=C|452=10|55=TFIC13280425|762=RFQF|48=20626|22=M|6=84.210|14=500000000|31=84.210|32=500000000|38=500000000|39=2|20102=84.210|54=2|60=20190705-20:35:06.320|75=20190705|63=1|64=20190705|151=0|1623=3.000|381=421054500.000|880=201907050000000011|828=99|10=080|
8=FIX.4.4|9=59|35=0|34=3|49=002|50=002B35|52=20190705-20:29:20.846|56=EXC|10=054|
8=FIX.4.4|9=0049|35=0|34=5|49=EXC|56=002|52=20190705-20:35:36.000|10=170|
8=FIX.4.4|9=110|35=A|34=1|49=002|50=002B35|52=20190705-20:35:48.143|56=EXC|43=Y|98=0|108=30|141=Y|553=002FCM001|554=002FCM001|10=083|
8=FIX.4.4|9=0067|35=A|34=1|49=EXC|56=002|52=20190705-20:41:43.418|98=0|108=30|141=Y|10=005|
8=FIX.4.4|9=0225|35=R|34=2|49=EXC|56=002|57=002B35|52=20190705-20:41:50.607|131=20190705-000000000016.00|146=1|55=TFIC13280425|762=RFQF|48=20626|22=M|54=1|38=500000000|453=3|448=001B27|447=C|452=12|448=001|447=C|452=1|448=002B35|447=C|452=37|10=003|
8=FIX.4.4|9=219|35=S|34=2|49=002|50=002B35|52=20190705-20:36:15.695|56=EXC|55=TFIC13280425|62=20190830-22:00:00.000|117=201907051535441_S|131=20190705-000000000016.00|134=0|135=500000000|632=0|634=3|762=RFQF|453=1|448=DCV|447=C|452=10|10=123|
8=FIX.4.4|9=0302|35=AI|34=3|49=EXC|56=002|57=002B35|52=20190705-20:42:10.956|131=20190705-000000000016.00|117=201907051535441_S|453=4|448=DCV|447=C|452=10|448=001B27|447=C|452=12|448=001|447=C|452=1|448=002B35|447=C|452=37|55=TFIC13280425|762=RFQF|48=20626|22=M|54=1|634=3.000|135=500000000|62=20190830-22:00:00|297=16|10=019|
8=FIX.4.4|9=0516|35=8|34=4|49=EXC|56=002|57=002B35|52=20190705-20:42:31.484|11=201907051535441_S|17=12|37=0|150=F|1080=20190705-000000000016.00|1081=6|453=6|448=002B35|447=C|452=12|448=002|447=C|452=1|448=001B27|447=C|452=37|448=001|447=C|452=17|448=002FCM001|447=C|452=36|448=DCV|447=C|452=10|55=TFIC13280425|762=RFQF|48=20626|22=M|6=84.210|14=500000000|31=84.210|32=500000000|38=500000000|39=2|20102=84.210|54=2|60=20190705-20:42:31.484|75=20190705|63=1|64=20190705|151=0|1623=3.000|381=421054500.000|880=201907050000000012|828=99|10=093|
8=FIX.4.4|9=59|35=0|34=3|49=002|50=002B35|52=20190705-20:36:46.049|56=EXC|10=055|
8=FIX.4.4|9=0049|35=0|34=5|49=EXC|56=002|52=20190705-20:43:01.000|10=161|
8=FIX.4.4|9=59|35=0|34=4|49=002|50=002B35|52=20190705-20:37:16.058|56=EXC|10=054|
8=FIX.4.4|9=0049|35=0|34=6|49=EXC|56=002|52=20190705-20:43:31.000|10=165|
8=FIX.4.4|9=110|35=A|34=1|49=002|50=002B35|52=20190705-20:40:30.917|56=EXC|43=Y|98=0|108=30|141=Y|553=002FCM001|554=002FCM001|10=079|
8=FIX.4.4|9=0067|35=A|34=1|49=EXC|56=002|52=20190705-20:46:26.297|98=0|108=30|141=Y|10=016|
8=FIX.4.4|9=0225|35=R|34=2|49=EXC|56=002|57=002B35|52=20190705-20:46:33.411|131=20190705-000000000017.00|146=1|55=TFIC13280425|762=RFQF|48=20626|22=M|54=1|38=500000000|453=3|448=001B27|447=C|452=12|448=001|447=C|452=1|448=002B35|447=C|452=37|10=003|
8=FIX.4.4|9=219|35=S|34=2|49=002|50=002B35|52=20190705-20:40:58.552|56=EXC|55=TFIC13280425|62=20190830-22:00:00.000|117=201907051540271_S|131=20190705-000000000017.00|134=0|135=500000000|632=0|634=3|762=RFQF|453=1|448=DCV|447=C|452=10|10=115|
8=FIX.4.4|9=0302|35=AI|34=3|49=EXC|56=002|57=002B35|52=20190705-20:46:53.812|131=20190705-000000000017.00|117=201907051540271_S|453=4|448=DCV|447=C|452=10|448=001B27|447=C|452=12|448=001|447=C|452=1|448=002B35|447=C|452=37|55=TFIC13280425|762=RFQF|48=20626|22=M|54=1|634=3.000|135=500000000|62=20190830-22:00:00|297=16|10=019|
8=FIX.4.4|9=0516|35=8|34=4|49=EXC|56=002|57=002B35|52=20190705-20:47:14.469|11=201907051540271_S|17=13|37=0|150=F|1080=20190705-000000000017.00|1081=6|453=6|448=002B35|447=C|452=12|448=002|447=C|452=1|448=001B27|447=C|452=37|448=001|447=C|452=17|448=002FCM001|447=C|452=36|448=DCV|447=C|452=10|55=TFIC13280425|762=RFQF|48=20626|22=M|6=84.210|14=500000000|31=84.210|32=500000000|38=500000000|39=2|20102=84.210|54=2|60=20190705-20:47:14.469|75=20190705|63=1|64=20190705|151=0|1623=3.000|381=421054500.000|880=201907050000000013|828=99|10=111|
8=FIX.4.4|9=110|35=A|34=1|49=002|50=002B35|52=20190705-20:41:56.671|56=EXC|43=Y|98=0|108=30|141=Y|553=002FCM001|554=002FCM001|10=085|
8=FIX.4.4|9=0067|35=A|34=1|49=EXC|56=002|52=20190705-20:47:51.955|98=0|108=30|141=Y|10=016|
8=FIX.4.4|9=0225|35=R|34=2|49=EXC|56=002|57=002B35|52=20190705-20:47:59.244|131=20190705-000000000018.00|146=1|55=TFIC13280425|762=RFQF|48=20626|22=M|54=1|38=500000000|453=3|448=001B27|447=C|452=12|448=001|447=C|452=1|448=002B35|447=C|452=37|10=017|
8=FIX.4.4|9=219|35=S|34=2|49=002|50=002B35|52=20190705-20:42:24.331|56=EXC|55=TFIC13280425|62=20190830-22:00:00.000|117=201907051541531_S|131=20190705-000000000018.00|134=0|135=500000000|632=0|634=3|762=RFQF|453=1|448=DCV|447=C|452=10|10=106|
8=FIX.4.4|9=0302|35=AI|34=3|49=EXC|56=002|57=002B35|52=20190705-20:48:19.590|131=20190705-000000000018.00|117=201907051541531_S|453=4|448=DCV|447=C|452=10|448=001B27|447=C|452=12|448=001|447=C|452=1|448=002B35|447=C|452=37|55=TFIC13280425|762=RFQF|48=20626|22=M|54=1|634=3.000|135=500000000|62=20190830-22:00:00|297=16|10=027|
8=FIX.4.4|9=0516|35=8|34=4|49=EXC|56=002|57=002B35|52=20190705-20:48:40.152|11=201907051541531_S|17=14|37=0|150=F|1080=20190705-000000000018.00|1081=6|453=6|448=002B35|447=C|452=12|448=002|447=C|452=1|448=001B27|447=C|452=37|448=001|447=C|452=17|448=002FCM001|447=C|452=36|448=DCV|447=C|452=10|55=TFIC13280425|762=RFQF|48=20626|22=M|6=84.210|14=500000000|31=84.210|32=500000000|38=500000000|39=2|20102=84.210|54=2|60=20190705-20:48:40.152|75=20190705|63=1|64=20190705|151=0|1623=3.000|381=421054500.000|880=201907050000000014|828=99|10=092|
8=FIX.4.4|9=59|35=0|34=3|49=002|50=002B35|52=20190705-20:42:54.602|56=EXC|10=046|
8=FIX.4.4|9=0049|35=0|34=5|49=EXC|56=002|52=20190705-20:49:10.000|10=167|
8=FIX.4.4|9=110|35=A|34=1|49=002|50=002B35|52=20190705-20:44:31.559|56=EXC|43=Y|98=0|108=30|141=Y|553=002FCM001|554=002FCM001|10=086|
8=FIX.4.4|9=0067|35=A|34=1|49=EXC|56=002|52=20190705-20:50:26.850|98=0|108=30|141=Y|10=006|
8=FIX.4.4|9=0225|35=R|34=2|49=EXC|56=002|57=002B35|52=20190705-20:50:34.103|131=20190705-000000000019.00|146=1|55=TFIC13280425|762=RFQF|48=20626|22=M|54=1|38=500000000|453=3|448=001B27|447=C|452=12|448=001|447=C|452=1|448=002B35|447=C|452=37|10=255|
8=FIX.4.4|9=219|35=S|34=2|49=002|50=002B35|52=20190705-20:44:59.280|56=EXC|55=TFIC13280425|62=20190830-22:00:00.000|117=201907051544281_S|131=20190705-000000000019.00|134=0|135=500000000|632=0|634=3|762=RFQF|453=1|448=DCV|447=C|452=10|10=125|
8=FIX.4.4|9=0302|35=AI|34=3|49=EXC|56=002|57=002B35|52=20190705-20:50:54.549|131=20190705-000000000019.00|117=201907051544281_S|453=4|448=DCV|447=C|452=10|448=001B27|447=C|452=12|448=001|447=C|452=1|448=002B35|447=C|452=37|55=TFIC13280425|762=RFQF|48=20626|22=M|54=1|634=3.000|135=500000000|62=20190830-22:00:00|297=16|10=029|
8=FIX.4.4|9=0516|35=8|34=4|49=EXC|56=002|57=002B35|52=20190705-20:51:15.125|11=201907051544281_S|17=15|37=0|150=F|1080=20190705-000000000019.00|1081=6|453=6|448=002B35|447=C|452=12|448=002|447=C|452=1|448=001B27|447=C|452=37|448=001|447=C|452=17|448=002FCM001|447=C|452=36|448=DCV|447=C|452=10|55=TFIC13280425|762=RFQF|48=20626|22=M|6=84.210|14=500000000|31=84.210|32=500000000|38=500000000|39=2|20102=84.210|54=2|60=20190705-20:51:15.125|75=20190705|63=1|64=20190705|151=0|1623=3.000|381=421054500.000|880=201907050000000015|828=99|10=092|
8=FIX.4.4|9=59|35=0|34=3|49=002|50=002B35|52=20190705-20:45:29.478|56=EXC|10=062|
8=FIX.4.4|9=0049|35=0|34=5|49=EXC|56=002|52=20190705-20:51:45.000|10=168|
8=FIX.4.4|9=59|35=0|34=4|49=002|50=002B35|52=20190705-20:45:59.474|56=EXC|10=062|
8=FIX.4.4|9=110|35=A|34=1|49=002|50=002B35|52=20190709-15:57:59.746|56=EXC|43=Y|98=0|108=30|141=Y|553=002FCM001|554=002FCM001|10=106|
8=FIX.4.4|9=0067|35=A|34=1|49=EXC|56=002|52=20190710-16:03:58.497|98=0|108=30|141=Y|10=017|
8=FIX.4.4|9=0225|35=R|34=2|49=EXC|56=002|57=002B35|52=20190710-16:04:06.098|131=20190710-000000000001.00|146=1|55=TFIC13280425|762=RFQF|48=20626|22=M|54=1|38=500000000|453=3|448=001B27|447=C|452=12|448=001|447=C|452=1|448=002B35|447=C|452=37|10=254|
8=FIX.4.4|9=219|35=S|34=2|49=002|50=002B35|52=20190709-15:58:27.847|56=EXC|55=TFIC13280425|62=20190830-22:00:00.000|117=201907091057551_S|131=20190710-000000000001.00|134=0|135=500000000|632=0|634=3|762=RFQF|453=1|448=DCV|447=C|452=10|10=132|
8=FIX.4.4|9=0302|35=AI|34=3|49=EXC|56=002|57=002B35|52=20190710-16:04:26.567|131=20190710-000000000001.00|117=201907091057551_S|453=4|448=DCV|447=C|452=10|448=001B27|447=C|452=12|448=001|447=C|452=1|448=002B35|447=C|452=37|55=TFIC13280425|762=RFQF|48=20626|22=M|54=1|634=3.000|135=500000000|62=20190830-22:00:00|297=16|10=018|
8=FIX.4.4|9=0515|35=8|34=4|49=EXC|56=002|57=002B35|52=20190710-16:04:47.563|11=201907091057551_S|17=1|37=0|150=F|1080=20190710-000000000001.00|1081=6|453=6|448=002B35|447=C|452=12|448=002|447=C|452=1|448=001B27|447=C|452=37|448=001|447=C|452=17|448=002FCM001|447=C|452=36|448=DCV|447=C|452=10|55=TFIC13280425|762=RFQF|48=20626|22=M|6=84.245|14=500000000|31=84.245|32=500000000|38=500000000|39=2|20102=84.245|54=2|60=20190710-16:04:47.563|75=20190710|63=1|64=20190710|151=0|1623=3.000|381=421225000.000|880=201907100000000001|828=99|10=050|
8=FIX.4.4|9=59|35=0|34=3|49=002|50=002B35|52=20190709-15:58:58.633|56=EXC|10=069|
8=FIX.4.4|9=0049|35=0|34=5|49=EXC|56=002|52=20190710-16:05:17.000|10=167|
8=FIX.4.4|9=110|35=A|34=1|49=002|50=002B35|52=20190709-16:47:22.148|56=EXC|43=Y|98=0|108=30|141=Y|553=002FCM001|554=002FCM001|10=092|
8=FIX.4.4|9=0067|35=A|34=1|49=EXC|56=002|52=20190710-16:53:20.972|98=0|108=30|141=Y|10=009|
8=FIX.4.4|9=0225|35=R|34=2|49=EXC|56=002|57=002B35|52=20190710-16:53:28.304|131=20190710-000000000002.00|146=1|55=TFIC13280425|762=RFQF|48=20626|22=M|54=1|38=500000000|453=3|448=001B27|447=C|452=12|448=001|447=C|452=1|448=002B35|447=C|452=37|10=253|
8=FIX.4.4|9=219|35=S|34=2|49=002|50=002B35|52=20190709-16:47:49.950|56=EXC|55=TFIC13280425|62=20190830-22:00:00.000|117=201907091147181_S|131=20190710-000000000002.00|134=0|135=500000000|632=0|634=3|762=RFQF|453=1|448=DCV|447=C|452=10|10=130|
8=FIX.4.4|9=0302|35=AI|34=3|49=EXC|56=002|57=002B35|52=20190710-16:53:48.702|131=20190710-000000000002.00|117=201907091147181_S|453=4|448=DCV|447=C|452=10|448=001B27|447=C|452=12|448=001|447=C|452=1|448=002B35|447=C|452=37|55=TFIC13280425|762=RFQF|48=20626|22=M|54=1|634=3.000|135=500000000|62=20190830-22:00:00|297=16|10=017|
8=FIX.4.4|9=0515|35=8|34=4|49=EXC|56=002|57=002B35|52=20190710-16:54:09.272|11=201907091147181_S|17=2|37=0|150=F|1080=20190710-000000000002.00|1081=6|453=6|448=002B35|447=C|452=12|448=002|447=C|452=1|448=001B27|447=C|452=37|448=001|447=C|452=17|448=002FCM001|447=C|452=36|448=DCV|447=C|452=10|55=TFIC13280425|762=RFQF|48=20626|22=M|6=84.245|14=500000000|31=84.245|32=500000000|38=500000000|39=2|20102=84.245|54=2|60=20190710-16:54:09.272|75=20190710|63=1|64=20190710|151=0|1623=3.000|381=421225000.000|880=201907100000000002|828=99|10=052|
8=FIX.4.4|9=59|35=0|34=3|49=002|50=002B35|52=20190709-16:48:20.061|56=EXC|10=053|
8=FIX.4.4|9=0049|35=0|34=5|49=EXC|56=002|52=20190710-16:54:39.000|10=175|
8=FIX.4.4|9=110|35=A|34=1|49=002|50=002B35|52=20190709-19:18:46.863|56=EXC|43=Y|98=0|108=30|141=Y|553=002FCM001|554=002FCM001|10=103|
8=FIX.4.4|9=0067|35=A|34=1|49=EXC|56=002|52=20190710-19:24:45.745|98=0|108=30|141=Y|10=015|
8=FIX.4.4|9=0225|35=R|34=2|49=EXC|56=002|57=002B35|52=20190710-19:24:52.900|131=20190710-000000000003.00|146=1|55=TFIC13280425|762=RFQF|48=20626|22=M|54=1|38=500000000|453=3|448=001B27|447=C|452=12|448=001|447=C|452=1|448=002B35|447=C|452=37|10=254|
8=FIX.4.4|9=219|35=S|34=2|49=002|50=002B35|52=20190709-19:19:14.413|56=EXC|55=TFIC13280425|62=20190830-22:00:00.000|117=201907091418431_S|131=20190710-000000000003.00|134=0|135=500000000|632=0|634=3|762=RFQF|453=1|448=DCV|447=C|452=10|10=118|
8=FIX.4.4|9=0302|35=AI|34=3|49=EXC|56=002|57=002B35|52=20190710-19:25:13.279|131=20190710-000000000003.00|117=201907091418431_S|453=4|448=DCV|447=C|452=10|448=001B27|447=C|452=12|448=001|447=C|452=1|448=002B35|447=C|452=37|55=TFIC13280425|762=RFQF|48=20626|22=M|54=1|634=3.000|135=500000000|62=20190830-22:00:00|297=16|10=020|
8=FIX.4.4|9=0515|35=8|34=4|49=EXC|56=002|57=002B35|52=20190710-19:25:33.911|11=201907091418431_S|17=3|37=0|150=F|1080=20190710-000000000003.00|1081=6|453=6|448=002B35|447=C|452=12|448=002|447=C|452=1|448=001B27|447=C|452=37|448=001|447=C|452=17|448=002FCM001|447=C|452=36|448=DCV|447=C|452=10|55=TFIC13280425|762=RFQF|48=20626|22=M|6=84.245|14=500000000|31=84.245|32=500000000|38=500000000|39=2|20102=84.245|54=2|60=20190710-19:25:33.911|75=20190710|63=1|64=20190710|151=0|1623=3.000|381=421225000.000|880=201907100000000003|828=99|10=050|
8=FIX.4.4|9=59|35=0|34=3|49=002|50=002B35|52=20190709-19:19:44.663|56=EXC|10=068|
8=FIX.4.4|9=0049|35=0|34=5|49=EXC|56=002|52=20190710-19:26:03.000|10=168|
8=FIX.4.4|9=110|35=A|34=1|49=002|50=002B35|52=20190709-19:48:39.259|56=EXC|43=Y|98=0|108=30|141=Y|553=002FCM001|554=002FCM001|10=107|
8=FIX.4.4|9=0067|35=A|34=1|49=EXC|56=002|52=20190710-19:54:38.173|98=0|108=30|141=Y|10=015|
8=FIX.4.4|9=0225|35=R|34=2|49=EXC|56=002|57=002B35|52=20190710-19:54:45.313|131=20190710-000000000004.00|146=1|55=TFIC13280425|762=RFQF|48=20626|22=M|54=1|38=500000000|453=3|448=001B27|447=C|452=12|448=001|447=C|452=1|448=002B35|447=C|452=37|10=002|
8=FIX.4.4|9=219|35=S|34=2|49=002|50=002B35|52=20190709-19:49:06.846|56=EXC|55=TFIC13280425|62=20190830-22:00:00.000|117=201907091448351_S|131=20190710-000000000004.00|134=0|135=500000000|632=0|634=3|762=RFQF|453=1|448=DCV|447=C|452=10|10=137|
8=FIX.4.4|9=0302|35=AI|34=3|49=EXC|56=002|57=002B35|52=20190710-19:55:05.730|131=20190710-000000000004.00|117=201907091448351_S|453=4|448=DCV|447=C|452=10|448=001B27|447=C|452=12|448=001|447=C|452=1|448=002B35|447=C|452=37|55=TFIC13280425|762=RFQF|48=20626|22=M|54=1|634=3.000|135=500000000|62=20190830-22:00:00|297=16|10=021|
8=FIX.4.4|9=0515|35=8|34=4|49=EXC|56=002|57=002B35|52=20190710-19:55:26.498|11=201907091448351_S|17=4|37=0|150=F|1080=20190710-000000000004.00|1081=6|453=6|448=002B35|447=C|452=12|448=002|447=C|452=1|448=001B27|447=C|452=37|448=001|447=C|452=17|448=002FCM001|447=C|452=36|448=DCV|447=C|452=10|55=TFIC13280425|762=RFQF|48=20626|22=M|6=84.245|14=500000000|31=84.245|32=500000000|38=500000000|39=2|20102=84.245|54=2|60=20190710-19:55:26.498|75=20190710|63=1|64=20190710|151=0|1623=3.000|381=421225000.000|880=201907100000000004|828=99|10=087|
8=FIX.4.4|9=59|35=0|34=3|49=002|50=002B35|52=20190709-19:49:37.129|56=EXC|10=070|
8=FIX.4.4|9=0049|35=0|34=5|49=EXC|56=002|52=20190710-19:55:56.000|10=178|
8=FIX.4.4|9=68|35=2|34=4|49=002|50=002B35|52=20190709-19:49:57.134|56=EXC|7=4|16=0|10=197|
8=FIX.4.4|9=0546|35=8|34=4|43=Y|52=20190709-19:55:56.006|49=EXC|56=002|57=002B35|122=20190710-19:55:26.498|11=201907091448351_S|17=4|37=0|150=F|1080=20190710-000000000004.00|1081=6|453=6|448=002B35|447=C|452=12|448=002|447=C|452=1|448=001B27|447=C|452=37|448=001|447=C|452=17|448=002FCM001|447=C|452=36|448=DCV|447=C|452=10|55=TFIC13280425|762=RFQF|48=20626|22=M|6=84.245|14=500000000|31=84.245|32=500000000|38=500000000|39=2|20102=84.245|54=2|60=20190710-19:55:26.498|75=20190710|63=1|64=20190710|151=0|1623=3.000|381=421225000.000|880=201907100000000004|828=99|10=108|
8=FIX.4.4|9=0065|35=4|34=5|43=Y|49=EXC|56=002|52=20190709-19:55:56.006|123=Y|36=6|10=202|
8=FIX.4.4|9=0054|35=4|34=6|49=EXC|56=002|52=20190710-19:55:56.007|36=7|10=152|
8=FIX.4.4|9=117|35=3|34=5|49=002|50=002B35|52=20190709-19:49:57.135|56=EXC|45=4|58=SendingTime accuracy problem|371=122|372=8|373=10|10=138|
8=FIX.4.4|9=102|35=5|34=6|49=002|50=002B35|52=20190709-19:50:07.143|56=EXC|58=SendingTime accuracy problem, field=122|10=004|
8=FIX.4.4|9=0049|35=5|34=7|49=EXC|56=002|52=20190710-19:56:06.015|10=187|
8=FIX.4.4|9=110|35=A|34=1|49=002|50=002B35|52=20190709-19:50:08.158|56=EXC|43=Y|98=0|108=30|141=Y|553=002FCM001|554=002FCM001|10=094|
8=FIX.4.4|9=0067|35=A|34=1|49=EXC|56=002|52=20190710-19:56:07.103|98=0|108=30|141=Y|10=006|
8=FIX.4.4|9=110|35=A|34=1|49=002|50=002B35|52=20190709-19:51:37.072|56=EXC|43=Y|98=0|108=30|141=Y|553=002FCM001|554=002FCM001|10=092|
8=FIX.4.4|9=0067|35=A|34=1|49=EXC|56=002|52=20190710-19:57:35.974|98=0|108=30|141=Y|10=024|
8=FIX.4.4|9=0225|35=R|34=2|49=EXC|56=002|57=002B35|52=20190710-19:57:43.339|131=20190710-000000000005.00|146=1|55=TFIC13280425|762=RFQF|48=20626|22=M|54=1|38=500000000|453=3|448=001B27|447=C|452=12|448=001|447=C|452=1|448=002B35|447=C|452=37|10=012|
8=FIX.4.4|9=219|35=S|34=2|49=002|50=002B35|52=20190709-19:52:04.947|56=EXC|55=TFIC13280425|62=20190830-22:00:00.000|117=201907091451331_S|131=20190710-000000000005.00|134=0|135=500000000|632=0|634=3|762=RFQF|453=1|448=DCV|447=C|452=10|10=124|
8=FIX.4.4|9=0302|35=AI|34=3|49=EXC|56=002|57=002B35|52=20190710-19:58:03.840|131=20190710-000000000005.00|117=201907091451331_S|453=4|448=DCV|447=C|452=10|448=001B27|447=C|452=12|448=001|447=C|452=1|448=002B35|447=C|452=37|55=TFIC13280425|762=RFQF|48=20626|22=M|54=1|634=3.000|135=500000000|62=20190830-22:00:00|297=16|10=017|
8=FIX.4.4|9=0515|35=8|34=4|49=EXC|56=002|57=002B35|52=20190710-19:58:24.432|11=201907091451331_S|17=5|37=0|150=F|1080=20190710-000000000005.00|1081=6|453=6|448=002B35|447=C|452=12|448=002|447=C|452=1|448=001B27|447=C|452=37|448=001|447=C|452=17|448=002FCM001|447=C|452=36|448=DCV|447=C|452=10|55=TFIC13280425|762=RFQF|48=20626|22=M|6=84.245|14=500000000|31=84.245|32=500000000|38=500000000|39=2|20102=84.245|54=2|60=20190710-19:58:24.432|75=20190710|63=1|64=20190710|151=0|1623=3.000|381=421225000.000|880=201907100000000005|828=99|10=060|
8=FIX.4.4|9=59|35=0|34=3|49=002|50=002B35|52=20190709-19:52:35.003|56=EXC|10=053|
8=FIX.4.4|9=0049|35=0|34=5|49=EXC|56=002|52=20190710-19:58:54.000|10=179|
8=FIX.4.4|9=110|35=A|34=1|49=002|50=002B35|52=20190709-19:53:31.502|56=EXC|43=Y|98=0|108=30|141=Y|553=002FCM001|554=002FCM001|10=086|
8=FIX.4.4|9=0067|35=A|34=1|49=EXC|56=002|52=20190710-19:59:30.421|98=0|108=30|141=Y|10=008|
8=FIX.4.4|9=0225|35=R|34=2|49=EXC|56=002|57=002B35|52=20190710-19:59:37.585|131=20190710-000000000006.00|146=1|55=TFIC13280425|762=RFQF|48=20626|22=M|54=1|38=500000000|453=3|448=001B27|447=C|452=12|448=001|447=C|452=1|448=002B35|447=C|452=37|10=021|
8=FIX.4.4|9=219|35=S|34=2|49=002|50=002B35|52=20190709-19:53:59.034|56=EXC|55=TFIC13280425|62=20190830-22:00:00.000|117=201907091453281_S|131=20190710-000000000006.00|134=0|135=500000000|632=0|634=3|762=RFQF|453=1|448=DCV|447=C|452=10|10=129|
8=FIX.4.4|9=0302|35=AI|34=3|49=EXC|56=002|57=002B35|52=20190710-19:59:57.913|131=20190710-000000000006.00|117=201907091453281_S|453=4|448=DCV|447=C|452=10|448=001B27|447=C|452=12|448=001|447=C|452=1|448=002B35|447=C|452=37|55=TFIC13280425|762=RFQF|48=20626|22=M|54=1|634=3.000|135=500000000|62=20190830-22:00:00|297=16|10=035|
8=FIX.4.4|9=0515|35=8|34=4|49=EXC|56=002|57=002B35|52=20190710-20:00:18.466|11=201907091453281_S|17=6|37=0|150=F|1080=20190710-000000000006.00|1081=6|453=6|448=002B35|447=C|452=12|448=002|447=C|452=1|448=001B27|447=C|452=37|448=001|447=C|452=17|448=002FCM001|447=C|452=36|448=DCV|447=C|452=10|55=TFIC13280425|762=RFQF|48=20626|22=M|6=84.245|14=500000000|31=84.245|32=500000000|38=500000000|39=2|20102=84.245|54=2|60=20190710-20:00:18.466|75=20190710|63=1|64=20190710|151=0|1623=3.000|381=421225000.000|880=201907100000000006|828=99|10=047|
8=FIX.4.4|9=59|35=0|34=3|49=002|50=002B35|52=20190709-19:54:29.484|56=EXC|10=071|
8=FIX.4.4|9=0049|35=0|34=5|49=EXC|56=002|52=20190710-20:00:48.000|10=161|
8=FIX.4.4|9=110|35=A|34=1|49=002|50=002B35|52=20190709-20:02:06.992|56=EXC|43=Y|98=0|108=30|141=Y|553=002FCM001|554=002FCM001|10=087|
8=FIX.4.4|9=0067|35=A|34=1|49=EXC|56=002|52=20190710-20:08:05.911|98=0|108=30|141=Y|10=000|
8=FIX.4.4|9=0225|35=R|34=2|49=EXC|56=002|57=002B35|52=20190710-20:08:13.074|131=20190710-000000000007.00|146=1|55=TFIC13280425|762=RFQF|48=20626|22=M|54=1|38=500000000|453=3|448=001B27|447=C|452=12|448=001|447=C|452=1|448=002B35|447=C|452=37|10=251|
8=FIX.4.4|9=219|35=S|34=2|49=002|50=002B35|52=20190709-20:02:34.747|56=EXC|55=TFIC13280425|62=20190830-22:00:00.000|117=201907091502031_S|131=20190710-000000000007.00|134=0|135=500000000|632=0|634=3|762=RFQF|453=1|448=DCV|447=C|452=10|10=108|
8=FIX.4.4|9=0302|35=AI|34=3|49=EXC|56=002|57=002B35|52=20190710-20:08:33.638|131=20190710-000000000007.00|117=201907091502031_S|453=4|448=DCV|447=C|452=10|448=001B27|447=C|452=12|448=001|447=C|452=1|448=002B35|447=C|452=37|55=TFIC13280425|762=RFQF|48=20626|22=M|54=1|634=3.000|135=500000000|62=20190830-22:00:00|297=16|10=008|
8=FIX.4.4|9=0515|35=8|34=4|49=EXC|56=002|57=002B35|52=20190710-20:08:54.293|11=201907091502031_S|17=7|37=0|150=F|1080=20190710-000000000007.00|1081=6|453=6|448=002B35|447=C|452=12|448=002|447=C|452=1|448=001B27|447=C|452=37|448=001|447=C|452=17|448=002FCM001|447=C|452=36|448=DCV|447=C|452=10|55=TFIC13280425|762=RFQF|48=20626|22=M|6=84.245|14=500000000|31=84.245|32=500000000|38=500000000|39=2|20102=84.245|54=2|60=20190710-20:08:54.293|75=20190710|63=1|64=20190710|151=0|1623=3.000|381=421225000.000|880=201907100000000007|828=99|10=050|
8=FIX.4.4|9=59|35=0|34=3|49=002|50=002B35|52=20190709-20:03:04.882|56=EXC|10=052|
8=FIX.4.4|9=0049|35=0|34=5|49=EXC|56=002|52=20190710-20:09:24.000|10=164|
8=FIX.4.4|9=110|35=A|34=1|49=002|50=002B35|52=20190709-20:30:10.903|56=EXC|43=Y|98=0|108=30|141=Y|553=002FCM001|554=002FCM001|10=075|
8=FIX.4.4|9=0067|35=A|34=1|49=EXC|56=002|52=20190710-20:36:09.830|98=0|108=30|141=Y|10=005|
8=FIX.4.4|9=0225|35=R|34=2|49=EXC|56=002|57=002B35|52=20190710-20:36:17.068|131=20190710-000000000008.00|146=1|55=TFIC13280425|762=RFQF|48=20626|22=M|54=1|38=500000000|453=3|448=001B27|447=C|452=12|448=001|447=C|452=1|448=002B35|447=C|452=37|10=004|
8=FIX.4.4|9=219|35=S|34=2|49=002|50=002B35|52=20190709-20:30:38.664|56=EXC|55=TFIC13280425|62=20190830-22:00:00.000|117=201907091530071_S|131=20190710-000000000008.00|134=0|135=500000000|632=0|634=3|762=RFQF|453=1|448=DCV|447=C|452=10|10=117|
8=FIX.4.4|9=0302|35=AI|34=3|49=EXC|56=002|57=002B35|52=20190710-20:36:37.569|131=20190710-000000000008.00|117=201907091530071_S|453=4|448=DCV|447=C|452=10|448=001B27|447=C|452=12|448=001|447=C|452=1|448=002B35|447=C|452=37|55=TFIC13280425|762=RFQF|48=20626|22=M|54=1|634=3.000|135=500000000|62=20190830-22:00:00|297=16|10=022|
8=FIX.4.4|9=0515|35=8|34=4|49=EXC|56=002|57=002B35|52=20190710-20:36:58.486|11=201907091530071_S|17=8|37=0|150=F|1080=20190710-000000000008.00|1081=6|453=6|448=002B35|447=C|452=12|448=002|447=C|452=1|448=001B27|447=C|452=37|448=001|447=C|452=17|448=002FCM001|447=C|452=36|448=DCV|447=C|452=10|55=TFIC13280425|762=RFQF|48=20626|22=M|6=84.245|14=500000000|31=84.245|32=500000000|38=500000000|39=2|20102=84.245|54=2|60=20190710-20:36:58.486|75=20190710|63=1|64=20190710|151=0|1623=3.000|381=421225000.000|880=201907100000000008|828=99|10=076|
8=FIX.4.4|9=59|35=0|34=3|49=002|50=002B35|52=20190709-20:31:08.892|56=EXC|10=058|
8=FIX.4.4|9=0049|35=0|34=5|49=EXC|56=002|52=20190710-20:37:28.000|10=169|
8=FIX.4.4|9=110|35=A|34=1|49=002|50=002B35|52=20190709-20:41:32.436|56=EXC|43=Y|98=0|108=30|141=Y|553=002FCM001|554=002FCM001|10=082|
8=FIX.4.4|9=0067|35=A|34=1|49=EXC|56=002|52=20190710-20:47:31.381|98=0|108=30|141=Y|10=003|
8=FIX.4.4|9=0225|35=R|34=2|49=EXC|56=002|57=002B35|52=20190710-20:47:38.750|131=20190710-000000000009.00|146=1|55=TFIC13280425|762=RFQF|48=20626|22=M|54=1|38=500000000|453=3|448=001B27|447=C|452=12|448=001|447=C|452=1|448=002B35|447=C|452=37|10=008|
8=FIX.4.4|9=219|35=S|34=2|49=002|50=002B35|52=20190709-20:42:00.252|56=EXC|55=TFIC13280425|62=20190830-22:00:00.000|117=201907091541291_S|131=20190710-000000000009.00|134=0|135=500000000|632=0|634=3|762=RFQF|453=1|448=DCV|447=C|452=10|10=109|
8=FIX.4.4|9=0302|35=AI|34=3|49=EXC|56=002|57=002B35|52=20190710-20:47:59.170|131=20190710-000000000009.00|117=201907091541291_S|453=4|448=DCV|447=C|452=10|448=001B27|447=C|452=12|448=001|447=C|452=1|448=002B35|447=C|452=37|55=TFIC13280425|762=RFQF|48=20626|22=M|54=1|634=3.000|135=500000000|62=20190830-22:00:00|297=16|10=023|
8=FIX.4.4|9=0515|35=8|34=4|49=EXC|56=002|57=002B35|52=20190710-20:48:19.850|11=201907091541291_S|17=9|37=0|150=F|1080=20190710-000000000009.00|1081=6|453=6|448=002B35|447=C|452=12|448=002|447=C|452=1|448=001B27|447=C|452=37|448=001|447=C|452=17|448=002FCM001|447=C|452=36|448=DCV|447=C|452=10|55=TFIC13280425|762=RFQF|48=20626|22=M|6=84.245|14=500000000|31=84.245|32=500000000|38=500000000|39=2|20102=84.245|54=2|60=20190710-20:48:19.850|75=20190710|63=1|64=20190710|151=0|1623=3.000|381=421225000.000|880=201907100000000009|828=99|10=075|
8=FIX.4.4|9=59|35=0|34=3|49=002|50=002B35|52=20190709-20:42:30.363|56=EXC|10=048|
8=FIX.4.4|9=0049|35=0|34=5|49=EXC|56=002|52=20190710-20:48:49.000|10=174|
8=FIX.4.4|9=59|35=0|34=4|49=002|50=002B35|52=20190709-20:43:00.368|56=EXC|10=052|
8=FIX.4.4|9=110|35=A|34=1|49=002|50=002B35|52=20190709-20:50:25.223|56=EXC|43=Y|98=0|108=30|141=Y|553=002FCM001|554=002FCM001|10=078|
8=FIX.4.4|9=0067|35=A|34=1|49=EXC|56=002|52=20190710-20:56:24.174|98=0|108=30|141=Y|10=005|
8=FIX.4.4|9=0225|35=R|34=2|49=EXC|56=002|57=002B35|52=20190710-20:56:31.417|131=20190710-000000000010.00|146=1|55=TFIC13280425|762=RFQF|48=20626|22=M|54=1|38=500000000|453=3|448=001B27|447=C|452=12|448=001|447=C|452=1|448=002B35|447=C|452=37|10=249|
8=FIX.4.4|9=219|35=S|34=2|49=002|50=002B35|52=20190709-20:50:52.855|56=EXC|55=TFIC13280425|62=20190830-22:00:00.000|117=201907091550211_S|131=20190710-000000000010.00|134=0|135=500000000|632=0|634=3|762=RFQF|453=1|448=DCV|447=C|452=10|10=108|
8=FIX.4.4|9=0302|35=AI|34=3|49=EXC|56=002|57=002B35|52=20190710-20:56:51.782|131=20190710-000000000010.00|117=201907091550211_S|453=4|448=DCV|447=C|452=10|448=001B27|447=C|452=12|448=001|447=C|452=1|448=002B35|447=C|452=37|55=TFIC13280425|762=RFQF|48=20626|22=M|54=1|634=3.000|135=500000000|62=20190830-22:00:00|297=16|10=008|
8=FIX.4.4|9=0516|35=8|34=4|49=EXC|56=002|57=002B35|52=20190710-20:57:12.420|11=201907091550211_S|17=10|37=0|150=F|1080=20190710-000000000010.00|1081=6|453=6|448=002B35|447=C|452=12|448=002|447=C|452=1|448=001B27|447=C|452=37|448=001|447=C|452=17|448=002FCM001|447=C|452=36|448=DCV|447=C|452=10|55=TFIC13280425|762=RFQF|48=20626|22=M|6=84.245|14=500000000|31=84.245|32=500000000|38=500000000|39=2|20102=84.245|54=2|60=20190710-20:57:12.420|75=20190710|63=1|64=20190710|151=0|1623=3.000|381=421225000.000|880=201907100000000010|828=99|10=064|
8=FIX.4.4|9=59|35=0|34=3|49=002|50=002B35|52=20190709-20:51:23.174|56=EXC|10=050|
8=FIX.4.4|9=0049|35=0|34=5|49=EXC|56=002|52=20190710-20:57:42.000|10=167|
8=FIX.4.4|9=59|35=0|34=4|49=002|50=002B35|52=20190709-20:51:53.174|56=EXC|10=054|
8=FIX.4.4|9=110|35=A|34=1|49=002|50=002B35|52=20190709-20:52:59.236|56=EXC|43=Y|98=0|108=30|141=Y|553=002FCM001|554=002FCM001|10=091|
8=FIX.4.4|9=0067|35=A|34=1|49=EXC|56=002|52=20190710-20:58:58.191|98=0|108=30|141=Y|10=013|
8=FIX.4.4|9=0225|35=R|34=2|49=EXC|56=002|57=002B35|52=20190710-20:59:05.377|131=20190710-000000000011.00|146=1|55=TFIC13280425|762=RFQF|48=20626|22=M|54=1|38=500000000|453=3|448=001B27|447=C|452=12|448=001|447=C|452=1|448=002B35|447=C|452=37|10=003|
8=FIX.4.4|9=219|35=S|34=2|49=002|50=002B35|52=20190709-20:53:27.024|56=EXC|55=TFIC13280425|62=20190830-22:00:00.000|117=201907091552551_S|131=20190710-000000000011.00|134=0|135=500000000|632=0|634=3|762=RFQF|453=1|448=DCV|447=C|452=10|10=111|
8=FIX.4.4|9=0302|35=AI|34=3|49=EXC|56=002|57=002B35|52=20190710-20:59:25.945|131=20190710-000000000011.00|117=201907091552551_S|453=4|448=DCV|447=C|452=10|448=001B27|447=C|452=12|448=001|447=C|452=1|448=002B35|447=C|452=37|55=TFIC13280425|762=RFQF|48=20626|22=M|54=1|634=3.000|135=500000000|62=20190830-22:00:00|297=16|10=023|
8=FIX.4.4|9=0516|35=8|34=4|49=EXC|56=002|57=002B35|52=20190710-20:59:46.895|11=201907091552551_S|17=11|37=0|150=F|1080=20190710-000000000011.00|1081=6|453=6|448=002B35|447=C|452=12|448=002|447=C|452=1|448=001B27|447=C|452=37|448=001|447=C|452=17|448=002FCM001|447=C|452=36|448=DCV|447=C|452=10|55=TFIC13280425|762=RFQF|48=20626|22=M|6=84.245|14=500000000|31=84.245|32=500000000|38=500000000|39=2|20102=84.245|54=2|60=20190710-20:59:46.895|75=20190710|63=1|64=20190710|151=0|1623=3.000|381=421225000.000|880=201907100000000011|828=99|10=126|
8=FIX.4.4|9=59|35=0|34=3|49=002|50=002B35|52=20190709-20:53:57.161|56=EXC|10=055|
8=FIX.4.4|9=0049|35=0|34=5|49=EXC|56=002|52=20190710-21:00:16.000|10=157|
8=FIX.4.4|9=110|35=A|34=1|49=002|50=002B35|52=20190709-20:56:22.670|56=EXC|43=Y|98=0|108=30|141=Y|553=002FCM001|554=002FCM001|10=087|
8=FIX.4.4|9=0067|35=A|34=1|49=EXC|56=002|52=20190710-21:02:21.614|98=0|108=30|141=Y|10=249|
8=FIX.4.4|9=0225|35=R|34=2|49=EXC|56=002|57=002B35|52=20190710-21:02:28.804|131=20190710-000000000012.00|146=1|55=TFIC13280425|762=RFQF|48=20626|22=M|54=1|38=500000000|453=3|448=001B27|447=C|452=12|448=001|447=C|452=1|448=002B35|447=C|452=37|10=249|
8=FIX.4.4|9=219|35=S|34=2|49=002|50=002B35|52=20190709-20:56:50.320|56=EXC|55=TFIC13280425|62=20190830-22:00:00.000|117=201907091556191_S|131=20190710-000000000012.00|134=0|135=500000000|632=0|634=3|762=RFQF|453=1|448=DCV|447=C|452=10|10=114|
8=FIX.4.4|9=0302|35=AI|34=3|49=EXC|56=002|57=002B35|52=20190710-21:02:49.240|131=20190710-000000000012.00|117=201907091556191_S|453=4|448=DCV|447=C|452=10|448=001B27|447=C|452=12|448=001|447=C|452=1|448=002B35|447=C|452=37|55=TFIC13280425|762=RFQF|48=20626|22=M|54=1|634=3.000|135=500000000|62=20190830-22:00:00|297=16|10=011|
8=FIX.4.4|9=0516|35=8|34=4|49=EXC|56=002|57=002B35|52=20190710-21:03:09.961|11=201907091556191_S|17=12|37=0|150=F|1080=20190710-000000000012.00|1081=6|453=6|448=002B35|447=C|452=12|448=002|447=C|452=1|448=001B27|447=C|452=37|448=001|447=C|452=17|448=002FCM001|447=C|452=36|448=DCV|447=C|452=10|55=TFIC13280425|762=RFQF|48=20626|22=M|6=84.245|14=500000000|31=84.245|32=500000000|38=500000000|39=2|20102=84.245|54=2|60=20190710-21:03:09.961|75=20190710|63=1|64=20190710|151=0|1623=3.000|381=421225000.000|880=201907100000000012|828=99|10=099|
8=FIX.4.4|9=59|35=0|34=3|49=002|50=002B35|52=20190709-20:57:20.534|56=EXC|10=053|
8=FIX.4.4|9=0049|35=0|34=5|49=EXC|56=002|52=20190710-21:03:39.000|10=165|
8=FIX.4.4|9=110|35=A|34=1|49=002|50=002B35|52=20190709-20:59:39.713|56=EXC|43=Y|98=0|108=30|141=Y|553=002FCM001|554=002FCM001|10=096|
8=FIX.4.4|9=0067|35=A|34=1|49=EXC|56=002|52=20190710-21:05:38.660|98=0|108=30|141=Y|10=005|
8=FIX.4.4|9=0225|35=R|34=2|49=EXC|56=002|57=002B35|52=20190710-21:05:45.801|131=20190710-000000000013.00|146=1|55=TFIC13280425|762=RFQF|48=20626|22=M|54=1|38=500000000|453=3|448=001B27|447=C|452=12|448=001|447=C|452=1|448=002B35|447=C|452=37|10=249|
8=FIX.4.4|9=219|35=S|34=2|49=002|50=002B35|52=20190709-21:00:07.202|56=EXC|55=TFIC13280425|62=20190830-22:00:00.000|117=201907091559361_S|131=20190710-000000000013.00|134=0|135=500000000|632=0|634=3|762=RFQF|453=1|448=DCV|447=C|452=10|10=108|
8=FIX.4.4|9=0302|35=AI|34=3|49=EXC|56=002|57=002B35|52=20190710-21:06:06.131|131=20190710-000000000013.00|117=201907091559361_S|453=4|448=DCV|447=C|452=10|448=001B27|447=C|452=12|448=001|447=C|452=1|448=002B35|447=C|452=37|55=TFIC13280425|762=RFQF|48=20626|22=M|54=1|634=3.000|135=500000000|62=20190830-22:00:00|297=16|10=010|
8=FIX.4.4|9=0516|35=8|34=4|49=EXC|56=002|57=002B35|52=20190710-21:06:26.714|11=201907091559361_S|17=13|37=0|150=F|1080=20190710-000000000013.00|1081=6|453=6|448=002B35|447=C|452=12|448=002|447=C|452=1|448=001B27|447=C|452=37|448=001|447=C|452=17|448=002FCM001|447=C|452=36|448=DCV|447=C|452=10|55=TFIC13280425|762=RFQF|48=20626|22=M|6=84.245|14=500000000|31=84.245|32=500000000|38=500000000|39=2|20102=84.245|54=2|60=20190710-21:06:26.714|75=20190710|63=1|64=20190710|151=0|1623=3.000|381=421225000.000|880=201907100000000013|828=99|10=100|
8=FIX.4.4|9=59|35=0|34=3|49=002|50=002B35|52=20190709-21:00:37.567|56=EXC|10=056|
8=FIX.4.4|9=0049|35=0|34=5|49=EXC|56=002|52=20190710-21:06:56.000|10=167|
8=FIX.4.4|9=110|35=A|34=1|49=002|50=002B35|52=20190709-21:02:35.540|56=EXC|43=Y|98=0|108=30|141=Y|553=002FCM001|554=002FCM001|10=079|
8=FIX.4.4|9=0067|35=A|34=1|49=EXC|56=002|52=20190710-21:08:34.513|98=0|108=30|141=Y|10=001|
8=FIX.4.4|9=0225|35=R|34=2|49=EXC|56=002|57=002B35|52=20190710-21:08:41.693|131=20190710-000000000014.00|146=1|55=TFIC13280425|762=RFQF|48=20626|22=M|54=1|38=500000000|453=3|448=001B27|447=C|452=12|448=001|447=C|452=1|448=002B35|447=C|452=37|10=002|
8=FIX.4.4|9=219|35=S|34=2|49=002|50=002B35|52=20190709-21:03:03.091|56=EXC|55=TFIC13280425|62=20190830-22:00:00.000|117=201907091602321_S|131=20190710-000000000014.00|134=0|135=500000000|632=0|634=3|762=RFQF|453=1|448=DCV|447=C|452=10|10=099|
8=FIX.4.4|9=0302|35=AI|34=3|49=EXC|56=002|57=002B35|52=20190710-21:09:02.025|131=20190710-000000000014.00|117=201907091602321_S|453=4|448=DCV|447=C|452=10|448=001B27|447=C|452=12|448=001|447=C|452=1|448=002B35|447=C|452=37|55=TFIC13280425|762=RFQF|48=20626|22=M|54=1|634=3.000|135=500000000|62=20190830-22:00:00|297=16|10=253|
8=FIX.4.4|9=0516|35=8|34=4|49=EXC|56=002|57=002B35|52=20190710-21:09:22.475|11=201907091602321_S|17=14|37=0|150=F|1080=20190710-000000000014.00|1081=6|453=6|448=002B35|447=C|452=12|448=002|447=C|452=1|448=001B27|447=C|452=37|448=001|447=C|452=17|448=002FCM001|447=C|452=36|448=DCV|447=C|452=10|55=TFIC13280425|762=RFQF|48=20626|22=M|6=84.245|14=500000000|31=84.245|32=500000000|38=500000000|39=2|20102=84.245|54=2|60=20190710-21:09:22.475|75=20190710|63=1|64=20190710|151=0|1623=3.000|381=421225000.000|880=201907100000000014|828=99|10=094|
8=FIX.4.4|9=59|35=0|34=3|49=002|50=002B35|52=20190709-21:03:33.428|56=EXC|10=051|
8=FIX.4.4|9=0049|35=0|34=5|49=EXC|56=002|52=20190710-21:09:52.000|10=166|
8=FIX.4.4|9=110|35=A|34=1|49=002|50=002B35|52=20190709-21:06:22.267|56=EXC|43=Y|98=0|108=30|141=Y|553=002FCM001|554=002FCM001|10=085|
8=FIX.4.4|9=0067|35=A|34=1|49=EXC|56=002|52=20190710-21:12:21.229|98=0|108=30|141=Y|10=252|
8=FIX.4.4|9=0225|35=R|34=2|49=EXC|56=002|57=002B35|52=20190710-21:12:28.524|131=20190710-000000000015.00|146=1|55=TFIC13280425|762=RFQF|48=20626|22=M|54=1|38=500000000|453=3|448=001B27|447=C|452=12|448=001|447=C|452=1|448=002B35|447=C|452=37|10=252|
8=FIX.4.4|9=219|35=S|34=2|49=002|50=002B35|52=20190709-21:06:49.991|56=EXC|55=TFIC13280425|62=20190830-22:00:00.000|117=201907091606181_S|131=20190710-000000000015.00|134=0|135=500000000|632=0|634=3|762=RFQF|453=1|448=DCV|447=C|452=10|10=130|
8=FIX.4.4|9=0302|35=AI|34=3|49=EXC|56=002|57=002B35|52=20190710-21:12:48.921|131=20190710-000000000015.00|117=201907091606181_S|453=4|448=DCV|447=C|452=10|448=001B27|447=C|452=12|448=001|447=C|452=1|448=002B35|447=C|452=37|55=TFIC13280425|762=RFQF|48=20626|22=M|54=1|634=3.000|135=500000000|62=20190830-22:00:00|297=16|10=015|
8=FIX.4.4|9=0516|35=8|34=4|49=EXC|56=002|57=002B35|52=20190710-21:13:09.527|11=201907091606181_S|17=15|37=0|150=F|1080=20190710-000000000015.00|1081=6|453=6|448=002B35|447=C|452=12|448=002|447=C|452=1|448=001B27|447=C|452=37|448=001|447=C|452=17|448=002FCM001|447=C|452=36|448=DCV|447=C|452=10|55=TFIC13280425|762=RFQF|48=20626|22=M|6=84.245|14=500000000|31=84.245|32=500000000|38=500000000|39=2|20102=84.245|54=2|60=20190710-21:13:09.527|75=20190710|63=1|64=20190710|151=0|1623=3.000|381=421225000.000|880=201907100000000015|828=99|10=101|
8=FIX.4.4|9=59|35=0|34=3|49=002|50=002B35|52=20190709-21:07:20.162|56=EXC|10=046|
8=FIX.4.4|9=0049|35=0|34=5|49=EXC|56=002|52=20190710-21:13:39.000|10=166|
8=FIX.4.4|9=59|35=0|34=4|49=002|50=002B35|52=20190709-21:07:50.163|56=EXC|10=051|
8=FIX.4.4|9=110|35=A|34=1|49=002|50=002B35|52=20190709-21:10:36.265|56=EXC|43=Y|98=0|108=30|141=Y|553=002FCM001|554=002FCM001|10=083|
8=FIX.4.4|9=0067|35=A|34=1|49=EXC|56=002|52=20190710-21:16:35.231|98=0|108=30|141=Y|10=254|
8=FIX.4.4|9=0225|35=R|34=2|49=EXC|56=002|57=002B35|52=20190710-21:16:42.458|131=20190710-000000000016.00|146=1|55=TFIC13280425|762=RFQF|48=20626|22=M|54=1|38=500000000|453=3|448=001B27|447=C|452=12|448=001|447=C|452=1|448=002B35|447=C|452=37|10=003|
8=FIX.4.4|9=219|35=S|34=2|49=002|50=002B35|52=20190709-21:11:04.102|56=EXC|55=TFIC13280425|62=20190830-22:00:00.000|117=201907091610321_S|131=20190710-000000000016.00|134=0|135=500000000|632=0|634=3|762=RFQF|453=1|448=DCV|447=C|452=10|10=093|
8=FIX.4.4|9=0302|35=AI|34=3|49=EXC|56=002|57=002B35|52=20190710-21:17:03.032|131=20190710-000000000016.00|117=201907091610321_S|453=4|448=DCV|447=C|452=10|448=001B27|447=C|452=12|448=001|447=C|452=1|448=002B35|447=C|452=37|55=TFIC13280425|762=RFQF|48=20626|22=M|54=1|634=3.000|135=500000000|62=20190830-22:00:00|297=16|10=252|
8=FIX.4.4|9=0516|35=8|34=4|49=EXC|56=002|57=002B35|52=20190710-21:17:23.748|11=201907091610321_S|17=16|37=0|150=F|1080=20190710-000000000016.00|1081=6|453=6|448=002B35|447=C|452=12|448=002|447=C|452=1|448=001B27|447=C|452=37|448=001|447=C|452=17|448=002FCM001|447=C|452=36|448=DCV|447=C|452=10|55=TFIC13280425|762=RFQF|48=20626|22=M|6=84.245|14=500000000|31=84.245|32=500000000|38=500000000|39=2|20102=84.245|54=2|60=20190710-21:17:23.748|75=20190710|63=1|64=20190710|151=0|1623=3.000|381=421225000.000|880=201907100000000016|828=99|10=105|
8=FIX.4.4|9=59|35=0|34=3|49=002|50=002B35|52=20190709-21:11:34.134|56=EXC|10=045|
8=FIX.4.4|9=0049|35=0|34=5|49=EXC|56=002|52=20190710-21:17:53.000|10=166|
8=FIX.4.4|9=68|35=2|34=4|49=002|50=002B35|52=20190709-21:11:54.067|56=EXC|7=4|16=0|10=181|
8=FIX.4.4|9=0547|35=8|34=4|43=Y|52=20190709-21:17:53.005|49=EXC|56=002|57=002B35|122=20190710-21:17:23.748|11=201907091610321_S|17=16|37=0|150=F|1080=20190710-000000000016.00|1081=6|453=6|448=002B35|447=C|452=12|448=002|447=C|452=1|448=001B27|447=C|452=37|448=001|447=C|452=17|448=002FCM001|447=C|452=36|448=DCV|447=C|452=10|55=TFIC13280425|762=RFQF|48=20626|22=M|6=84.245|14=500000000|31=84.245|32=500000000|38=500000000|39=2|20102=84.245|54=2|60=20190710-21:17:23.748|75=20190710|63=1|64=20190710|151=0|1623=3.000|381=421225000.000|880=201907100000000016|828=99|10=113|
8=FIX.4.4|9=0065|35=4|34=5|43=Y|49=EXC|56=002|52=20190709-21:17:53.005|123=Y|36=6|10=189|
8=FIX.4.4|9=0054|35=4|34=6|49=EXC|56=002|52=20190710-21:17:53.006|36=7|10=139|
8=FIX.4.4|9=110|35=A|34=1|49=002|50=002B35|52=20190709-21:12:42.862|56=EXC|43=Y|98=0|108=30|141=Y|553=002FCM001|554=002FCM001|10=085|
8=FIX.4.4|9=0067|35=A|34=1|49=EXC|56=002|52=20190710-21:18:41.846|98=0|108=30|141=Y|10=009|
8=FIX.4.4|9=0225|35=R|34=2|49=EXC|56=002|57=002B35|52=20190710-21:18:48.965|131=20190710-000000000017.00|146=1|55=TFIC13280425|762=RFQF|48=20626|22=M|54=1|38=500000000|453=3|448=001B27|447=C|452=12|448=001|447=C|452=1|448=002B35|447=C|452=37|10=015|
8=FIX.4.4|9=219|35=S|34=2|49=002|50=002B35|52=20190709-21:13:10.392|56=EXC|55=TFIC13280425|62=20190830-22:00:00.000|117=201907091612391_S|131=20190710-000000000017.00|134=0|135=500000000|632=0|634=3|762=RFQF|453=1|448=DCV|447=C|452=10|10=113|
8=FIX.4.4|9=0302|35=AI|34=3|49=EXC|56=002|57=002B35|52=20190710-21:19:09.327|131=20190710-000000000017.00|117=201907091612391_S|453=4|448=DCV|447=C|452=10|448=001B27|447=C|452=12|448=001|447=C|452=1|448=002B35|447=C|452=37|55=TFIC13280425|762=RFQF|48=20626|22=M|54=1|634=3.000|135=500000000|62=20190830-22:00:00|297=16|10=021|
8=FIX.4.4|9=0516|35=8|34=4|49=EXC|56=002|57=002B35|52=20190710-21:19:30.125|11=201907091612391_S|17=17|37=0|150=F|1080=20190710-000000000017.00|1081=6|453=6|448=002B35|447=C|452=12|448=002|447=C|452=1|448=001B27|447=C|452=37|448=001|447=C|452=17|448=002FCM001|447=C|452=36|448=DCV|447=C|452=10|55=TFIC13280425|762=RFQF|48=20626|22=M|6=84.245|14=500000000|31=84.245|32=500000000|38=500000000|39=2|20102=84.245|54=2|60=20190710-21:19:30.125|75=20190710|63=1|64=20190710|151=0|1623=3.000|381=421225000.000|880=201907100000000017|828=99|10=095|
8=FIX.4.4|9=59|35=0|34=3|49=002|50=002B35|52=20190709-21:13:40.617|56=EXC|10=050|
8=FIX.4.4|9=0049|35=0|34=5|49=EXC|56=002|52=20190710-21:20:00.000|10=152|
8=FIX.4.4|9=59|35=0|34=4|49=002|50=002B35|52=20190709-21:14:10.612|56=EXC|10=044|
8=FIX.4.4|9=110|35=A|34=1|49=002|50=002B35|52=20190709-21:27:34.023|56=EXC|43=Y|98=0|108=30|141=Y|553=002FCM001|554=002FCM001|10=081|
8=FIX.4.4|9=0067|35=A|34=1|49=EXC|56=002|52=20190710-21:33:33.002|98=0|108=30|141=Y|10=247|
8=FIX.4.4|9=0225|35=R|34=2|49=EXC|56=002|57=002B35|52=20190710-21:33:40.232|131=20190710-000000000018.00|146=1|55=TFIC13280425|762=RFQF|48=20626|22=M|54=1|38=500000000|453=3|448=001B27|447=C|452=12|448=001|447=C|452=1|448=002B35|447=C|452=37|10=248|
8=FIX.4.4|9=59|35=0|34=2|49=002|50=002B35|52=20190709-21:28:04.942|56=EXC|10=056|
8=FIX.4.4|9=0049|35=0|34=3|49=EXC|56=002|52=20190710-21:34:10.000|10=156|
8=FIX.4.4|9=110|35=A|34=1|49=002|50=002B35|52=20190709-21:29:02.572|56=EXC|43=Y|98=0|108=30|141=Y|553=002FCM001|554=002FCM001|10=087|
8=FIX.4.4|9=0067|35=A|34=1|49=EXC|56=002|52=20190710-21:35:01.552|98=0|108=30|141=Y|10=254|
8=FIX.4.4|9=0225|35=R|34=2|49=EXC|56=002|57=002B35|52=20190710-21:35:08.795|131=20190710-000000000019.00|146=1|55=TFIC13280425|762=RFQF|48=20626|22=M|54=1|38=500000000|453=3|448=001B27|447=C|452=12|448=001|447=C|452=1|448=002B35|447=C|452=37|10=013|
8=FIX.4.4|9=219|35=S|34=2|49=002|50=002B35|52=20190709-21:29:30.440|56=EXC|55=TFIC13280425|62=20190830-22:00:00.000|117=201907091628591_S|131=20190710-000000000019.00|134=0|135=500000000|632=0|634=3|762=RFQF|453=1|448=DCV|447=C|452=10|10=127|
8=FIX.4.4|9=0302|35=AI|34=3|49=EXC|56=002|57=002B35|52=20190710-21:35:29.389|131=20190710-000000000019.00|117=201907091628591_S|453=4|448=DCV|447=C|452=10|448=001B27|447=C|452=12|448=001|447=C|452=1|448=002B35|447=C|452=37|55=TFIC13280425|762=RFQF|48=20626|22=M|54=1|634=3.000|135=500000000|62=20190830-22:00:00|297=16|10=040|
