8=FIX.4.4|9=110|35=A|34=1|49=051|50=051B17|52=20190718-20:57:47.418|56=EXC|43=N|98=0|108=30|141=Y|553=051FCM001|554=051FCM001|10=100|
8=FIX.4.4|9=0067|35=A|34=1|49=EXC|56=051|52=20190718-20:57:47.472|98=0|108=30|141=Y|10=024|
8=FIX.4.4|9=0049|35=0|34=2|49=EXC|56=051|52=20190718-20:58:17.000|10=179|
8=FIX.4.4|9=59|35=0|34=2|49=051|50=051B17|52=20190718-20:58:18.385|56=EXC|10=072|
8=FIX.4.4|9=0049|35=0|34=3|49=EXC|56=051|52=20190718-20:58:47.000|10=183|
8=FIX.4.4|9=59|35=0|34=3|49=051|50=051B17|52=20190718-20:58:48.384|56=EXC|10=075|
8=FIX.4.4|9=0049|35=0|34=4|49=EXC|56=051|52=20190718-20:59:17.000|10=182|
8=FIX.4.4|9=110|35=A|34=1|49=051|50=051B17|52=20190718-21:12:11.319|56=EXC|43=N|98=0|108=30|141=Y|553=051FCM001|554=051FCM001|10=083|
8=FIX.4.4|9=0067|35=A|34=1|49=EXC|56=051|52=20190718-21:12:11.386|98=0|108=30|141=Y|10=011|
8=FIX.4.4|9=0049|35=0|34=2|49=EXC|56=051|52=20190718-21:12:41.000|10=167|
8=FIX.4.4|9=59|35=0|34=2|49=051|50=051B17|52=20190718-21:12:42.273|56=EXC|10=056|
8=FIX.4.4|9=0049|35=0|34=3|49=EXC|56=051|52=20190718-21:13:11.000|10=166|
8=FIX.4.4|9=59|35=0|34=3|49=051|50=051B17|52=20190718-21:13:12.274|56=EXC|10=056|
8=FIX.4.4|9=0049|35=0|34=4|49=EXC|56=051|52=20190718-21:13:41.000|10=170|
8=FIX.4.4|9=59|35=0|34=4|49=051|50=051B17|52=20190718-21:13:42.274|56=EXC|10=060|
8=FIX.4.4|9=110|35=A|34=1|49=051|50=051B17|52=20190718-22:18:19.618|56=EXC|43=N|98=0|108=30|141=Y|553=051FCM001|554=051FCM001|10=100|
8=FIX.4.4|9=0067|35=A|34=1|49=EXC|56=051|52=20190718-14:42:18.683|98=0|108=30|141=Y|10=023|
8=FIX.4.4|9=0049|35=0|34=2|49=EXC|56=051|52=20190718-14:42:48.000|10=179|
8=FIX.4.4|9=59|35=0|34=2|49=051|50=051B17|52=20190718-22:18:50.610|56=EXC|10=057|
8=FIX.4.4|9=110|35=A|34=1|49=051|50=051B17|52=20190718-22:35:57.116|56=EXC|43=N|98=0|108=30|141=Y|553=051FCM001|554=051FCM001|10=094|
8=FIX.4.4|9=0067|35=A|34=1|49=EXC|56=051|52=20190718-14:59:56.188|98=0|108=30|141=Y|10=033|
8=FIX.4.4|9=0049|35=0|34=2|49=EXC|56=051|52=20190718-15:00:26.000|10=170|
8=FIX.4.4|9=59|35=0|34=2|49=051|50=051B17|52=20190718-22:36:28.076|56=EXC|10=068|
8=FIX.4.4|9=0049|35=0|34=3|49=EXC|56=051|52=20190718-15:00:56.000|10=174|
8=FIX.4.4|9=59|35=0|34=3|49=051|50=051B17|52=20190718-22:36:58.080|56=EXC|10=067|
8=FIX.4.4|9=110|35=A|34=1|49=051|50=051B17|52=20190718-22:44:50.449|56=EXC|43=N|98=0|108=30|141=Y|553=051FCM001|554=051FCM001|10=096|
8=FIX.4.4|9=0067|35=A|34=1|49=EXC|56=051|52=20190718-15:08:49.529|98=0|108=30|141=Y|10=029|
8=FIX.4.4|9=0049|35=0|34=2|49=EXC|56=051|52=20190718-15:09:19.000|10=181|
8=FIX.4.4|9=59|35=0|34=2|49=051|50=051B17|52=20190718-22:45:20.440|56=EXC|10=055|
8=FIX.4.4|9=110|35=A|34=1|49=051|50=051B17|52=20190718-22:46:55.085|56=EXC|43=N|98=0|108=30|141=Y|553=051FCM001|554=051FCM001|10=099|
8=FIX.4.4|9=0067|35=A|34=1|49=EXC|56=051|52=20190718-15:10:54.164|98=0|108=30|141=Y|10=013|
8=FIX.4.4|9=59|35=5|34=2|49=051|50=051B17|52=20190718-22:47:18.054|56=EXC|10=070|
8=FIX.4.4|9=0055|35=5|34=2|49=EXC|56=051|52=20190718-15:11:17.109|369=2|10=202|
8=FIX.4.4|9=110|35=A|34=1|49=051|50=051B17|52=20190718-22:49:25.617|56=EXC|43=N|98=0|108=30|141=Y|553=051FCM001|554=051FCM001|10=100|
8=FIX.4.4|9=0067|35=A|34=1|49=EXC|56=051|52=20190718-15:13:24.689|98=0|108=30|141=Y|10=025|
8=FIX.4.4|9=110|35=A|34=1|49=051|50=051B17|52=20190718-22:59:06.309|56=EXC|43=N|98=0|108=30|141=Y|553=051FCM001|554=051FCM001|10=098|
8=FIX.4.4|9=0067|35=A|34=1|49=EXC|56=051|52=20190718-15:23:05.392|98=0|108=30|141=Y|10=016|
8=FIX.4.4|9=0049|35=0|34=2|49=EXC|56=051|52=20190718-15:23:35.000|10=175|
8=FIX.4.4|9=59|35=0|34=2|49=051|50=051B17|52=20190718-22:59:36.309|56=EXC|10=071|
8=FIX.4.4|9=59|35=5|34=3|49=051|50=051B17|52=20190718-22:59:50.299|56=EXC|10=081|
8=FIX.4.4|9=0055|35=5|34=3|49=EXC|56=051|52=20190718-15:23:49.353|369=3|10=213|
8=FIX.4.4|9=110|35=A|34=1|49=051|50=051B17|52=20190718-23:14:21.332|56=EXC|43=N|98=0|108=30|141=Y|553=051FCM001|554=051FCM001|10=083|
8=FIX.4.4|9=0067|35=A|34=1|49=EXC|56=051|52=20190718-15:38:20.395|98=0|108=30|141=Y|10=022|
8=FIX.4.4|9=0049|35=0|34=2|49=EXC|56=051|52=20190718-15:38:50.000|10=178|
8=FIX.4.4|9=59|35=0|34=2|49=051|50=051B17|52=20190718-23:14:52.281|56=EXC|10=060|
8=FIX.4.4|9=59|35=5|34=3|49=051|50=051B17|52=20190718-23:15:06.281|56=EXC|10=066|
8=FIX.4.4|9=0055|35=5|34=3|49=EXC|56=051|52=20190718-15:39:05.327|369=3|10=213|
8=FIX.4.4|9=110|35=A|34=1|49=051|50=051B17|52=20190718-23:25:09.417|56=EXC|43=N|98=0|108=30|141=Y|553=051FCM001|554=051FCM001|10=095|
8=FIX.4.4|9=0067|35=A|34=1|49=EXC|56=051|52=20190718-15:49:08.479|98=0|108=30|141=Y|10=033|
8=FIX.4.4|9=0049|35=0|34=2|49=EXC|56=051|52=20190718-15:49:38.000|10=186|
8=FIX.4.4|9=59|35=0|34=2|49=051|50=051B17|52=20190718-23:25:40.383|56=EXC|10=062|
8=FIX.4.4|9=59|35=5|34=3|49=051|50=051B17|52=20190718-23:25:53.382|56=EXC|10=071|
8=FIX.4.4|9=0055|35=5|34=3|49=EXC|56=051|52=20190718-15:49:52.424|369=3|10=214|
8=FIX.4.4|9=110|35=A|34=1|49=051|50=051B17|52=20190719-15:27:44.387|56=EXC|43=N|98=0|108=30|141=Y|553=051FCM001|554=051FCM001|10=104|
8=FIX.4.4|9=0067|35=A|34=1|49=EXC|56=051|52=20190719-15:27:44.419|98=0|108=30|141=Y|10=024|
8=FIX.4.4|9=59|35=5|34=2|49=051|50=051B17|52=20190719-15:28:11.377|56=EXC|10=073|
8=FIX.4.4|9=0055|35=5|34=2|49=EXC|56=051|52=20190719-15:28:11.425|369=2|10=206|
8=FIX.4.4|9=110|35=A|34=1|49=051|50=051B17|52=20190719-15:59:22.414|56=EXC|43=N|98=0|108=30|141=Y|553=051FCM001|554=051FCM001|10=096|
8=FIX.4.4|9=0067|35=A|34=1|49=EXC|56=051|52=20190719-15:59:22.448|98=0|108=30|141=Y|10=027|
8=FIX.4.4|9=0049|35=0|34=2|49=EXC|56=051|52=20190719-15:59:52.000|10=184|
8=FIX.4.4|9=59|35=0|34=2|49=051|50=051B17|52=20190719-15:59:53.388|56=EXC|10=080|
8=FIX.4.4|9=59|35=5|34=3|49=051|50=051B17|52=20190719-15:59:56.392|56=EXC|10=084|
8=FIX.4.4|9=0055|35=5|34=3|49=EXC|56=051|52=20190719-15:59:56.412|369=3|10=217|
8=FIX.4.4|9=110|35=A|34=1|49=051|50=051B17|52=20190719-19:27:59.400|56=EXC|43=N|98=0|108=30|141=Y|553=051FCM001|554=051FCM001|10=100|
8=FIX.4.4|9=0067|35=A|34=1|49=EXC|56=051|52=20190719-19:27:59.440|98=0|108=30|141=Y|10=028|
8=FIX.4.4|9=0049|35=0|34=2|49=EXC|56=051|52=20190719-19:28:29.000|10=188|
8=FIX.4.4|9=59|35=0|34=2|49=051|50=051B17|52=20190719-19:28:30.304|56=EXC|10=063|
8=FIX.4.4|9=59|35=5|34=3|49=051|50=051B17|52=20190719-19:28:33.304|56=EXC|10=072|
8=FIX.4.4|9=0055|35=5|34=3|49=EXC|56=051|52=20190719-19:28:33.328|369=3|10=218|
8=FIX.4.4|9=110|35=A|34=1|49=051|50=051B17|52=20190719-19:30:25.172|56=EXC|43=N|98=0|108=30|141=Y|553=051FCM001|554=051FCM001|10=093|
8=FIX.4.4|9=0067|35=A|34=1|49=EXC|56=051|52=20190719-19:30:25.210|98=0|108=30|141=Y|10=010|
8=FIX.4.4|9=59|35=5|34=2|49=051|50=051B17|52=20190719-19:30:53.153|56=EXC|10=068|
8=FIX.4.4|9=0055|35=5|34=2|49=EXC|56=051|52=20190719-19:30:53.178|369=2|10=214|
8=FIX.4.4|9=110|35=A|34=1|49=051|50=051B17|52=20190719-20:12:25.093|56=EXC|43=N|98=0|108=30|141=Y|553=051FCM001|554=051FCM001|10=087|
8=FIX.4.4|9=0067|35=A|34=1|49=EXC|56=051|52=20190719-20:12:25.135|98=0|108=30|141=Y|10=008|
8=FIX.4.4|9=0049|35=0|34=2|49=EXC|56=051|52=20190719-20:12:55.000|10=172|
8=FIX.4.4|9=59|35=0|34=2|49=051|50=051B17|52=20190719-20:12:56.058|56=EXC|10=062|
8=FIX.4.4|9=59|35=5|34=3|49=051|50=051B17|52=20190719-20:12:59.058|56=EXC|10=071|
8=FIX.4.4|9=0055|35=5|34=3|49=EXC|56=051|52=20190719-20:12:59.095|369=3|10=212|
8=FIX.4.4|9=110|35=A|34=1|49=051|50=051B17|52=20190719-20:34:37.777|56=EXC|43=N|98=0|108=30|141=Y|553=051FCM001|554=051FCM001|10=103|
8=FIX.4.4|9=0067|35=A|34=1|49=EXC|56=051|52=20190719-20:34:37.823|98=0|108=30|141=Y|10=019|
8=FIX.4.4|9=0049|35=0|34=2|49=EXC|56=051|52=20190719-20:35:07.000|10=174|
8=FIX.4.4|9=59|35=5|34=2|49=051|50=051B17|52=20190719-20:35:06.981|56=EXC|10=072|
8=FIX.4.4|9=0055|35=5|34=3|49=EXC|56=051|52=20190719-20:35:07.015|369=2|10=201|
8=FIX.4.4|9=110|35=A|34=1|49=051|50=051B17|52=20190719-21:55:57.797|56=EXC|43=N|98=0|108=30|141=Y|553=051FCM001|554=051FCM001|10=111|
8=FIX.4.4|9=0067|35=A|34=1|49=EXC|56=051|52=20190719-21:56:33.075|98=0|108=30|141=Y|10=019|
8=FIX.4.4|9=0049|35=0|34=2|49=EXC|56=051|52=20190719-21:57:03.000|10=175|
8=FIX.4.4|9=59|35=0|34=2|49=051|50=051B17|52=20190719-21:56:28.772|56=EXC|10=073|
8=FIX.4.4|9=59|35=5|34=3|49=051|50=051B17|52=20190719-21:56:42.774|56=EXC|10=077|
8=FIX.4.4|9=0055|35=5|34=3|49=EXC|56=051|52=20190719-21:57:18.053|369=3|10=211|
8=FIX.4.4|9=59|35=5|34=4|49=051|50=051B17|52=20190719-21:56:42.805|56=EXC|10=073|
8=FIX.4.4|9=110|35=A|34=1|49=051|50=051B17|52=20190719-21:58:29.834|56=EXC|43=N|98=0|108=30|141=Y|553=051FCM001|554=051FCM001|10=105|
8=FIX.4.4|9=0067|35=A|34=1|49=EXC|56=051|52=20190719-21:59:05.115|98=0|108=30|141=Y|10=016|
8=FIX.4.4|9=0049|35=0|34=2|49=EXC|56=051|52=20190719-21:59:35.000|10=182|
8=FIX.4.4|9=59|35=0|34=2|49=051|50=051B17|52=20190719-21:59:00.823|56=EXC|10=063|
8=FIX.4.4|9=0049|35=0|34=3|49=EXC|56=051|52=20190719-22:00:05.000|10=167|
8=FIX.4.4|9=59|35=0|34=3|49=051|50=051B17|52=20190719-21:59:30.822|56=EXC|10=066|
8=FIX.4.4|9=59|35=5|34=4|49=051|50=051B17|52=20190719-21:59:32.824|56=EXC|10=076|
8=FIX.4.4|9=0055|35=5|34=4|49=EXC|56=051|52=20190719-22:00:08.079|369=4|10=209|
8=FIX.4.4|9=110|35=A|34=1|49=051|50=051B17|52=20190719-22:16:41.451|56=EXC|43=N|98=0|108=30|141=Y|553=051FCM001|554=051FCM001|10=089|
8=FIX.4.4|9=0067|35=A|34=1|49=EXC|56=051|52=20190719-14:10:24.747|98=0|108=30|141=Y|10=017|
8=FIX.4.4|9=0049|35=0|34=2|49=EXC|56=051|52=20190719-14:10:54.000|10=172|
8=FIX.4.4|9=59|35=5|34=2|49=051|50=051B17|52=20190719-22:17:10.736|56=EXC|10=067|
8=FIX.4.4|9=0055|35=5|34=3|49=EXC|56=051|52=20190719-14:10:54.011|369=2|10=195|
8=FIX.4.4|9=110|35=A|34=1|49=051|50=051B17|52=20190722-14:09:22.587|56=EXC|43=N|98=0|108=30|141=Y|553=051FCM001|554=051FCM001|10=095|
8=FIX.4.4|9=0067|35=A|34=1|49=EXC|56=051|52=20190722-15:15:56.767|98=0|108=30|141=Y|10=024|
8=FIX.4.4|9=59|35=5|34=2|49=051|50=051B17|52=20190722-14:09:48.527|56=EXC|10=072|
8=FIX.4.4|9=0055|35=5|34=2|49=EXC|56=051|52=20190722-15:16:22.677|369=2|10=208|
8=FIX.4.4|9=110|35=A|34=1|49=051|50=051B17|52=20190722-14:25:51.305|56=EXC|43=N|98=0|108=30|141=Y|553=051FCM001|554=051FCM001|10=083|
8=FIX.4.4|9=0067|35=A|34=1|49=EXC|56=051|52=20190722-15:32:25.482|98=0|108=30|141=Y|10=013|
8=FIX.4.4|9=59|35=5|34=2|49=051|50=051B17|52=20190722-14:26:17.023|56=EXC|10=058|
8=FIX.4.4|9=0055|35=5|34=2|49=EXC|56=051|52=20190722-15:32:51.183|369=2|10=200|
8=FIX.4.4|9=110|35=A|34=1|49=051|50=051B17|52=20190722-14:42:54.836|56=EXC|43=N|98=0|108=30|141=Y|553=051FCM001|554=051FCM001|10=094|
8=FIX.4.4|9=0067|35=A|34=1|49=EXC|56=051|52=20190722-15:49:29.022|98=0|108=30|141=Y|10=015|
8=FIX.4.4|9=59|35=5|34=2|49=051|50=051B17|52=20190722-14:43:24.726|56=EXC|10=065|
8=FIX.4.4|9=0055|35=5|34=2|49=EXC|56=051|52=20190722-15:49:58.898|369=2|10=228|
8=FIX.4.4|9=110|35=A|34=1|49=051|50=051B17|52=20190722-15:03:34.237|56=EXC|43=N|98=0|108=30|141=Y|553=051FCM001|554=051FCM001|10=085|
8=FIX.4.4|9=0067|35=A|34=1|49=EXC|56=051|52=20190722-16:10:08.437|98=0|108=30|141=Y|10=011|
8=FIX.4.4|9=59|35=5|34=2|49=051|50=051B17|52=20190722-15:03:42.071|56=EXC|10=055|
8=FIX.4.4|9=0055|35=5|34=2|49=EXC|56=051|52=20190722-16:10:16.264|369=2|10=198|
8=FIX.4.4|9=59|35=5|34=3|49=051|50=051B17|52=20190722-15:03:42.077|56=EXC|10=062|
8=FIX.4.4|9=110|35=A|34=1|49=051|50=051B17|52=20190722-15:04:27.515|56=EXC|43=N|98=0|108=30|141=Y|553=051FCM001|554=051FCM001|10=087|
8=FIX.4.4|9=0067|35=A|34=1|49=EXC|56=051|52=20190722-16:11:01.728|98=0|108=30|141=Y|10=008|
8=FIX.4.4|9=59|35=5|34=2|49=051|50=051B17|52=20190722-15:04:35.144|56=EXC|10=059|
8=FIX.4.4|9=0055|35=5|34=2|49=EXC|56=051|52=20190722-16:11:09.330|369=2|10=195|
8=FIX.4.4|9=110|35=A|34=1|49=051|50=051B17|52=20190722-15:06:51.965|56=EXC|43=N|98=0|108=30|141=Y|553=051FCM001|554=051FCM001|10=095|
8=FIX.4.4|9=0067|35=A|34=1|49=EXC|56=051|52=20190722-16:13:26.175|98=0|108=30|141=Y|10=013|
8=FIX.4.4|9=0049|35=0|34=2|49=EXC|56=051|52=20190722-16:13:56.000|10=173|
8=FIX.4.4|9=59|35=5|34=2|49=051|50=051B17|52=20190722-15:07:21.823|56=EXC|10=061|
8=FIX.4.4|9=0055|35=5|34=3|49=EXC|56=051|52=20190722-16:13:56.020|369=2|10=196|
8=FIX.4.4|9=110|35=A|34=1|49=051|50=051B17|52=20190722-15:26:05.255|56=EXC|43=N|98=0|108=30|141=Y|553=051FCM001|554=051FCM001|10=088|
8=FIX.4.4|9=0067|35=A|34=1|49=EXC|56=051|52=20190722-16:32:39.466|98=0|108=30|141=Y|10=021|
8=FIX.4.4|9=0049|35=0|34=2|49=EXC|56=051|52=20190722-16:33:09.000|10=173|
8=FIX.4.4|9=59|35=5|34=2|49=051|50=051B17|52=20190722-15:26:34.809|56=EXC|10=070|
8=FIX.4.4|9=0055|35=5|34=3|49=EXC|56=051|52=20190722-16:33:09.007|369=2|10=201|
8=FIX.4.4|9=110|35=A|34=1|49=051|50=051B17|52=20190722-21:29:46.768|56=EXC|43=N|98=0|108=30|141=Y|553=051FCM001|554=051FCM001|10=102|
8=FIX.4.4|9=0067|35=A|34=1|49=EXC|56=051|52=20190722-21:30:25.277|98=0|108=30|141=Y|10=010|
8=FIX.4.4|9=0049|35=0|34=2|49=EXC|56=051|52=20190722-21:30:55.000|10=167|
8=FIX.4.4|9=59|35=0|34=2|49=051|50=051B17|52=20190722-21:30:17.530|56=EXC|10=049|
8=FIX.4.4|9=110|35=A|34=1|49=051|50=051B17|52=20190722-21:45:09.141|56=EXC|43=N|98=0|108=30|141=Y|553=051FCM001|554=051FCM001|10=084|
8=FIX.4.4|9=0067|35=A|34=1|49=EXC|56=051|52=20190722-21:45:47.651|98=0|108=30|141=Y|10=016|
8=FIX.4.4|9=59|35=5|34=2|49=051|50=051B17|52=20190722-21:45:38.026|56=EXC|10=063|
8=FIX.4.4|9=0055|35=5|34=2|49=EXC|56=051|52=20190722-21:46:16.531|369=2|10=200|
8=FIX.4.4|9=110|35=A|34=1|49=051|50=051B17|52=20190722-22:05:05.038|56=EXC|43=N|98=0|108=30|141=Y|553=051FCM001|554=051FCM001|10=082|
8=FIX.4.4|9=0067|35=A|34=1|49=EXC|56=051|52=20190722-14:39:00.580|98=0|108=30|141=Y|10=011|
8=FIX.4.4|9=0049|35=0|34=2|49=EXC|56=051|52=20190722-14:39:30.000|10=171|
8=FIX.4.4|9=59|35=0|34=2|49=051|50=051B17|52=20190722-22:05:36.007|56=EXC|10=052|
8=FIX.4.4|9=0049|35=0|34=3|49=EXC|56=051|52=20190722-14:40:00.000|10=161|
8=FIX.4.4|9=59|35=0|34=3|49=051|50=051B17|52=20190722-22:06:06.011|56=EXC|10=046|
