8=FIX.4.4|9=110|35=A|34=1|49=029|50=029B17|52=20190718-20:57:47.316|56=EXC|43=N|98=0|108=30|141=Y|553=029FCM001|554=029FCM001|10=117|
8=FIX.4.4|9=0067|35=A|34=1|49=EXC|56=029|52=20190718-20:57:47.397|98=0|108=30|141=Y|10=035|
8=FIX.4.4|9=189|35=AE|34=2|49=029|50=029B17|52=20190718-20:57:54.481|56=EXC|31=1000|32=100|55=T24U19F|60=20190718-19:51:06.622|487=0|571=20190718155745_AE|762=AFIR|856=96|880=201907180000000002|552=1|54=1|10=235|
8=FIX.4.4|9=0131|35=AR|34=2|49=EXC|56=029|57=029B17|52=20190718-20:57:54.519|571=20190718155745_AE|487=0|856=96|939=0|17=4|60=20190718-20:57:54.519|10=219|
8=FIX.4.4|9=0049|35=0|34=3|49=EXC|56=029|52=20190718-20:58:24.000|10=183|
8=FIX.4.4|9=59|35=0|34=3|49=029|50=029B17|52=20190718-20:58:25.278|56=EXC|10=082|
8=FIX.4.4|9=0049|35=0|34=4|49=EXC|56=029|52=20190718-20:58:54.000|10=187|
8=FIX.4.4|9=59|35=0|34=4|49=029|50=029B17|52=20190718-20:58:55.278|56=EXC|10=086|
8=FIX.4.4|9=110|35=A|34=1|49=029|50=029B17|52=20190718-21:12:11.225|56=EXC|43=N|98=0|108=30|141=Y|553=029FCM001|554=029FCM001|10=099|
8=FIX.4.4|9=0067|35=A|34=1|49=EXC|56=029|52=20190718-21:12:11.298|98=0|108=30|141=Y|10=018|
8=FIX.4.4|9=189|35=AE|34=2|49=029|50=029B17|52=20190718-21:12:18.614|56=EXC|31=1000|32=100|55=T24U19F|60=20190718-19:51:06.622|487=0|571=20190718161209_AE|762=AFIR|856=96|880=201907180000000002|552=1|54=1|10=217|
8=FIX.4.4|9=0215|35=AR|34=2|49=EXC|56=029|57=029B17|52=20190718-21:12:18.655|571=20190718161209_AE|487=0|856=96|939=1|17=5|60=20190718-21:12:18.655|751=99|58=(369): Operaciones con status (L) no se pueden solicitar para cancelación|10=192|
8=FIX.4.4|9=0049|35=0|34=3|49=EXC|56=029|52=20190718-21:12:48.000|10=180|
8=FIX.4.4|9=59|35=0|34=3|49=029|50=029B17|52=20190718-21:12:49.172|56=EXC|10=072|
8=FIX.4.4|9=0049|35=0|34=4|49=EXC|56=029|52=20190718-21:13:18.000|10=179|
8=FIX.4.4|9=59|35=0|34=4|49=029|50=029B17|52=20190718-21:13:19.172|56=EXC|10=071|
8=FIX.4.4|9=110|35=A|34=1|49=029|50=029B17|52=20190718-22:18:19.509|56=EXC|43=N|98=0|108=30|141=Y|553=029FCM001|554=029FCM001|10=119|
8=FIX.4.4|9=0067|35=A|34=1|49=EXC|56=029|52=20190718-14:42:18.579|98=0|108=30|141=Y|10=032|
8=FIX.4.4|9=188|35=AE|34=2|49=029|50=029B17|52=20190718-22:18:26.678|56=EXC|31=120|32=100|55=T24U19F|60=20190718-14:36:50.718|487=0|571=20190718171817_AE|762=AFIR|856=96|880=201907180000000001|552=1|54=1|10=194|
8=FIX.4.4|9=0131|35=AR|34=2|49=EXC|56=029|57=029B17|52=20190718-14:42:25.731|571=20190718171817_AE|487=0|856=96|939=0|17=2|60=20190718-14:42:25.731|10=197|
8=FIX.4.4|9=0049|35=0|34=3|49=EXC|56=029|52=20190718-14:42:55.000|10=183|
8=FIX.4.4|9=59|35=0|34=3|49=029|50=029B17|52=20190718-22:18:57.492|56=EXC|10=083|
8=FIX.4.4|9=110|35=A|34=1|49=029|50=029B17|52=20190718-22:35:57.021|56=EXC|43=N|98=0|108=30|141=Y|553=029FCM001|554=029FCM001|10=109|
8=FIX.4.4|9=0067|35=A|34=1|49=EXC|56=029|52=20190718-14:59:56.100|98=0|108=30|141=Y|10=022|
8=FIX.4.4|9=188|35=AE|34=2|49=029|50=029B17|52=20190718-22:36:04.164|56=EXC|31=120|32=100|55=T24U19F|60=20190718-14:46:51.234|487=0|571=20190718173555_AE|762=AFIR|856=96|880=201907180000000002|552=1|54=1|10=177|
8=FIX.4.4|9=0131|35=AR|34=2|49=EXC|56=029|57=029B17|52=20190718-15:00:03.231|571=20190718173555_AE|487=0|856=96|939=0|17=4|60=20190718-15:00:03.231|10=172|
8=FIX.4.4|9=0049|35=0|34=3|49=EXC|56=029|52=20190718-15:00:33.000|10=174|
8=FIX.4.4|9=59|35=0|34=3|49=029|50=029B17|52=20190718-22:36:34.975|56=EXC|10=084|
8=FIX.4.4|9=110|35=A|34=1|49=029|50=029B17|52=20190718-22:44:50.376|56=EXC|43=N|98=0|108=30|141=Y|553=029FCM001|554=029FCM001|10=115|
8=FIX.4.4|9=0067|35=A|34=1|49=EXC|56=029|52=20190718-15:08:49.451|98=0|108=30|141=Y|10=028|
8=FIX.4.4|9=188|35=AE|34=2|49=029|50=029B17|52=20190718-22:44:57.514|56=EXC|31=120|32=100|55=T24U19F|60=20190718-15:06:58.488|487=0|571=20190718174448_AE|762=AFIR|856=96|880=201907180000000003|552=1|54=1|10=201|
8=FIX.4.4|9=0131|35=AR|34=2|49=EXC|56=029|57=029B17|52=20190718-15:08:56.581|571=20190718174448_AE|487=0|856=96|939=0|17=6|60=20190718-15:08:56.581|10=224|
8=FIX.4.4|9=0049|35=0|34=3|49=EXC|56=029|52=20190718-15:09:26.000|10=185|
8=FIX.4.4|9=59|35=0|34=3|49=029|50=029B17|52=20190718-22:45:28.331|56=EXC|10=073|
8=FIX.4.4|9=110|35=A|34=1|49=029|50=029B17|52=20190718-22:46:54.967|56=EXC|43=N|98=0|108=30|141=Y|553=029FCM001|554=029FCM001|10=127|
8=FIX.4.4|9=0067|35=A|34=1|49=EXC|56=029|52=20190718-15:10:54.045|98=0|108=30|141=Y|10=016|
8=FIX.4.4|9=188|35=AE|34=2|49=029|50=029B17|52=20190718-22:47:02.156|56=EXC|31=120|32=100|55=T24U19F|60=20190718-15:06:58.488|487=0|571=20190718174653_AE|762=AFIR|856=96|880=201907180000000003|552=1|54=1|10=194|
8=FIX.4.4|9=0215|35=AR|34=2|49=EXC|56=029|57=029B17|52=20190718-15:11:01.222|571=20190718174653_AE|487=0|856=96|939=1|17=7|60=20190718-15:11:01.222|751=99|58=(369): Operaciones con status (L) no se pueden solicitar para cancelación|10=169|
8=FIX.4.4|9=59|35=5|34=3|49=029|50=029B17|52=20190718-22:47:17.604|56=EXC|10=081|
8=FIX.4.4|9=0055|35=5|34=3|49=EXC|56=029|52=20190718-15:11:16.659|369=3|10=218|
8=FIX.4.4|9=110|35=A|34=1|49=029|50=029B17|52=20190718-22:49:25.536|56=EXC|43=N|98=0|108=30|141=Y|553=029FCM001|554=029FCM001|10=120|
8=FIX.4.4|9=0067|35=A|34=1|49=EXC|56=029|52=20190718-15:13:24.612|98=0|108=30|141=Y|10=016|
8=FIX.4.4|9=188|35=AE|34=2|49=029|50=029B17|52=20190718-22:49:32.674|56=EXC|31=120|32=100|55=T24U19F|60=20190718-15:11:44.218|487=0|571=20190718174923_AE|762=AFIR|856=96|880=201907180000000004|552=1|54=1|10=187|
8=FIX.4.4|9=0131|35=AR|34=2|49=EXC|56=029|57=029B17|52=20190718-15:13:31.744|571=20190718174923_AE|487=0|856=96|939=0|17=9|60=20190718-15:13:31.744|10=205|
8=FIX.4.4|9=110|35=A|34=1|49=029|50=029B17|52=20190718-22:59:06.209|56=EXC|43=N|98=0|108=30|141=Y|553=029FCM001|554=029FCM001|10=117|
8=FIX.4.4|9=0067|35=A|34=1|49=EXC|56=029|52=20190718-15:23:05.283|98=0|108=30|141=Y|10=020|
8=FIX.4.4|9=188|35=AE|34=2|49=029|50=029B17|52=20190718-22:59:13.360|56=EXC|31=120|32=100|55=T24U19F|60=20190718-15:14:31.916|487=0|571=20190718175904_AE|762=AFIR|856=96|880=201907180000000005|552=1|54=1|10=184|
8=FIX.4.4|9=0132|35=AR|34=2|49=EXC|56=029|57=029B17|52=20190718-15:23:12.429|571=20190718175904_AE|487=0|856=96|939=0|17=11|60=20190718-15:23:12.429|10=247|
8=FIX.4.4|9=0361|35=AE|34=3|49=EXC|56=029|57=029B17|52=20190718-15:23:28.263|571=20190718175904_AE|487=2|856=99|17=12|829=98|573=0|15=COP|880=201907180000000005|75=20190718|55=T24U19F|762=AFIR|48=27227|22=M|31=120.000|32=100|381=30000000000.000|60=20190718-15:23:28.263|64=20190718|552=1|54=1|453=3|448=029B17|447=C|452=12|448=029|447=C|452=1|448=029FCM001|447=C|452=36|1=RT001|10=133|
8=FIX.4.4|9=59|35=0|34=3|49=029|50=029B17|52=20190718-22:59:44.184|56=EXC|10=082|
8=FIX.4.4|9=59|35=5|34=4|49=029|50=029B17|52=20190718-22:59:50.190|56=EXC|10=082|
8=FIX.4.4|9=0055|35=5|34=4|49=EXC|56=029|52=20190718-15:23:49.244|369=4|10=219|
8=FIX.4.4|9=110|35=A|34=1|49=029|50=029B17|52=20190718-23:14:21.112|56=EXC|43=N|98=0|108=30|141=Y|553=029FCM001|554=029FCM001|10=099|
8=FIX.4.4|9=0067|35=A|34=1|49=EXC|56=029|52=20190718-15:38:20.273|98=0|108=30|141=Y|10=022|
8=FIX.4.4|9=188|35=AE|34=2|49=029|50=029B17|52=20190718-23:14:28.725|56=EXC|31=120|32=100|55=T24U19F|60=20190718-15:30:00.186|487=0|571=20190718181417_AE|762=AFIR|856=96|880=201907180000000006|552=1|54=1|10=177|
8=FIX.4.4|9=0132|35=AR|34=2|49=EXC|56=029|57=029B17|52=20190718-15:38:27.772|571=20190718181417_AE|487=0|856=96|939=0|17=14|60=20190718-15:38:27.772|10=016|
8=FIX.4.4|9=0361|35=AE|34=3|49=EXC|56=029|57=029B17|52=20190718-15:38:43.706|571=20190718181417_AE|487=2|856=99|17=15|829=98|573=0|15=COP|880=201907180000000006|75=20190718|55=T24U19F|762=AFIR|48=27227|22=M|31=120.000|32=100|381=30000000000.000|60=20190718-15:38:43.706|64=20190718|552=1|54=1|453=3|448=029B17|447=C|452=12|448=029|447=C|452=1|448=029FCM001|447=C|452=36|1=RT001|10=143|
8=FIX.4.4|9=0458|35=8|34=4|49=EXC|56=029|57=029B17|52=20190718-15:38:56.098|11=156349116102567|17=16|37=0|150=H|1080=20190718-000000000012.00|1081=5|453=5|448=029B17|447=C|452=12|448=029|447=C|452=1|448=037B18|447=C|452=37|448=037|447=C|452=17|448=029FCM001|447=C|452=36|55=T24U19F|762=AFIR|48=27227|22=M|6=120.000|14=100|31=120.000|32=100|38=100|39=2|54=1|60=20190718-15:38:56.098|75=20190718|63=1|64=20190718|151=0|1=RT001|381=30000000000.000|880=201907180000000006|828=99|10=140|
8=FIX.4.4|9=59|35=0|34=3|49=029|50=029B17|52=20190718-23:14:58.922|56=EXC|10=079|
8=FIX.4.4|9=59|35=5|34=4|49=029|50=029B17|52=20190718-23:15:05.923|56=EXC|10=079|
8=FIX.4.4|9=0055|35=5|34=5|49=EXC|56=029|52=20190718-15:39:04.969|369=4|10=232|
8=FIX.4.4|9=110|35=A|34=1|49=029|50=029B17|52=20190718-23:25:09.304|56=EXC|43=N|98=0|108=30|141=Y|553=029FCM001|554=029FCM001|10=110|
8=FIX.4.4|9=0067|35=A|34=1|49=EXC|56=029|52=20190718-15:49:08.373|98=0|108=30|141=Y|10=031|
8=FIX.4.4|9=188|35=AE|34=2|49=029|50=029B17|52=20190718-23:25:16.465|56=EXC|31=120|32=100|55=T24U19F|60=20190718-15:44:19.446|487=0|571=20190718182507_AE|762=AFIR|856=96|880=201907180000000007|552=1|54=1|10=193|
8=FIX.4.4|9=0132|35=AR|34=2|49=EXC|56=029|57=029B17|52=20190718-15:49:15.508|571=20190718182507_AE|487=0|856=96|939=0|17=18|60=20190718-15:49:15.508|10=013|
8=FIX.4.4|9=0361|35=AE|34=3|49=EXC|56=029|57=029B17|52=20190718-15:49:31.343|571=20190718182507_AE|487=2|856=99|17=19|829=98|573=0|15=COP|880=201907180000000007|75=20190718|55=T24U19F|762=AFIR|48=27227|22=M|31=120.000|32=100|381=30000000000.000|60=20190718-15:49:31.343|64=20190718|552=1|54=1|453=3|448=029B17|447=C|452=12|448=029|447=C|452=1|448=029FCM001|447=C|452=36|1=RT001|10=141|
8=FIX.4.4|9=0458|35=8|34=4|49=EXC|56=029|57=029B17|52=20190718-15:49:43.433|11=156349202023469|17=20|37=0|150=H|1080=20190718-000000000013.00|1081=5|453=5|448=029B17|447=C|452=12|448=029|447=C|452=1|448=037B18|447=C|452=37|448=037|447=C|452=17|448=029FCM001|447=C|452=36|55=T24U19F|762=AFIR|48=27227|22=M|6=120.000|14=100|31=120.000|32=100|38=100|39=2|54=1|60=20190718-15:49:43.433|75=20190718|63=1|64=20190718|151=0|1=RT001|381=30000000000.000|880=201907180000000007|828=99|10=118|
8=FIX.4.4|9=59|35=0|34=3|49=029|50=029B17|52=20190718-23:25:47.281|56=EXC|10=077|
8=FIX.4.4|9=59|35=5|34=4|49=029|50=029B17|52=20190718-23:25:53.281|56=EXC|10=080|
8=FIX.4.4|9=0055|35=5|34=5|49=EXC|56=029|52=20190718-15:49:52.322|369=4|10=219|
8=FIX.4.4|9=110|35=A|34=1|49=029|50=029B17|52=20190719-15:27:44.249|56=EXC|43=N|98=0|108=30|141=Y|553=029FCM001|554=029FCM001|10=121|
8=FIX.4.4|9=0067|35=A|34=1|49=EXC|56=029|52=20190719-15:27:44.302|98=0|108=30|141=Y|10=020|
8=FIX.4.4|9=188|35=AE|34=2|49=029|50=029B17|52=20190719-15:27:51.547|56=EXC|31=120|32=100|55=T24U19F|60=20190719-15:18:37.156|487=0|571=20190719102741_AE|762=AFIR|856=96|880=201907190000000001|552=1|54=1|10=185|
8=FIX.4.4|9=0131|35=AR|34=2|49=EXC|56=029|57=029B17|52=20190719-15:27:51.565|571=20190719102741_AE|487=0|856=96|939=0|17=2|60=20190719-15:27:51.565|10=206|
8=FIX.4.4|9=0360|35=AE|34=3|49=EXC|56=029|57=029B17|52=20190719-15:28:10.031|571=20190719102741_AE|487=2|856=99|17=3|829=98|573=0|15=COP|880=201907190000000001|75=20190719|55=T24U19F|762=AFIR|48=27227|22=M|31=120.000|32=100|381=30000000000.000|60=20190719-15:28:10.031|64=20190719|552=1|54=1|453=3|448=029B17|447=C|452=12|448=029|447=C|452=1|448=029FCM001|447=C|452=36|1=RT001|10=053|
8=FIX.4.4|9=59|35=5|34=3|49=029|50=029B17|52=20190719-15:28:11.171|56=EXC|10=076|
8=FIX.4.4|9=0055|35=5|34=4|49=EXC|56=029|52=20190719-15:28:11.190|369=3|10=213|
8=FIX.4.4|9=110|35=A|34=1|49=029|50=029B17|52=20190719-15:59:22.303|56=EXC|43=N|98=0|108=30|141=Y|553=029FCM001|554=029FCM001|10=113|
8=FIX.4.4|9=0067|35=A|34=1|49=EXC|56=029|52=20190719-15:59:22.355|98=0|108=30|141=Y|10=029|
8=FIX.4.4|9=188|35=AE|34=2|49=029|50=029B17|52=20190719-15:59:29.570|56=EXC|31=120|32=100|55=T24U19F|60=20190719-15:56:26.984|487=0|571=20190719105920_AE|762=AFIR|856=96|880=201907190000000002|552=1|54=1|10=203|
8=FIX.4.4|9=0131|35=AR|34=2|49=EXC|56=029|57=029B17|52=20190719-15:59:29.603|571=20190719105920_AE|487=0|856=96|939=0|17=5|60=20190719-15:59:29.603|10=217|
8=FIX.4.4|9=0360|35=AE|34=3|49=EXC|56=029|57=029B17|52=20190719-15:59:55.115|571=20190719105920_AE|487=2|856=99|17=6|829=98|573=0|15=COP|880=201907190000000002|75=20190719|55=T24U19F|762=AFIR|48=27227|22=M|31=120.000|32=100|381=30000000000.000|60=20190719-15:59:55.115|64=20190719|552=1|54=1|453=3|448=029B17|447=C|452=12|448=029|447=C|452=1|448=029FCM001|447=C|452=36|1=RT001|10=091|
8=FIX.4.4|9=59|35=5|34=3|49=029|50=029B17|52=20190719-15:59:56.295|56=EXC|10=096|
8=FIX.4.4|9=0055|35=5|34=4|49=EXC|56=029|52=20190719-15:59:56.314|369=3|10=224|
8=FIX.4.4|9=110|35=A|34=1|49=029|50=029B17|52=20190719-19:27:59.253|56=EXC|43=N|98=0|108=30|141=Y|553=029FCM001|554=029FCM001|10=126|
8=FIX.4.4|9=0067|35=A|34=1|49=EXC|56=029|52=20190719-19:27:59.329|98=0|108=30|141=Y|10=039|
8=FIX.4.4|9=188|35=AE|34=2|49=029|50=029B17|52=20190719-19:28:06.476|56=EXC|31=120|32=100|55=T24U19F|60=20190719-18:53:31.712|487=0|571=20190719142756_AE|762=AFIR|856=96|880=201907190000000001|552=1|54=1|10=195|
8=FIX.4.4|9=0131|35=AR|34=2|49=EXC|56=029|57=029B17|52=20190719-19:28:06.500|571=20190719142756_AE|487=0|856=96|939=0|17=2|60=20190719-19:28:06.500|10=204|
8=FIX.4.4|9=0360|35=AE|34=3|49=EXC|56=029|57=029B17|52=20190719-19:28:32.041|571=20190719142756_AE|487=2|856=99|17=3|829=98|573=0|15=COP|880=201907190000000001|75=20190719|55=T24U19F|762=AFIR|48=27227|22=M|31=120.000|32=100|381=30000000000.000|60=20190719-19:28:32.041|64=20190719|552=1|54=1|453=3|448=029B17|447=C|452=12|448=029|447=C|452=1|448=029FCM001|447=C|452=36|1=RT001|10=081|
8=FIX.4.4|9=59|35=5|34=3|49=029|50=029B17|52=20190719-19:28:33.087|56=EXC|10=090|
8=FIX.4.4|9=0055|35=5|34=4|49=EXC|56=029|52=20190719-19:28:33.111|369=3|10=214|
8=FIX.4.4|9=110|35=A|34=1|49=029|50=029B17|52=20190719-19:30:25.083|56=EXC|43=N|98=0|108=30|141=Y|553=029FCM001|554=029FCM001|10=114|
8=FIX.4.4|9=0067|35=A|34=1|49=EXC|56=029|52=20190719-19:30:25.129|98=0|108=30|141=Y|10=024|
8=FIX.4.4|9=188|35=AE|34=2|49=029|50=029B17|52=20190719-19:30:32.259|56=EXC|31=120|32=100|55=T24U19F|60=20190719-18:53:31.712|487=0|571=20190719143023_AE|762=AFIR|856=96|880=201907190000000001|552=1|54=1|10=174|
8=FIX.4.4|9=0215|35=AR|34=2|49=EXC|56=029|57=029B17|52=20190719-19:30:32.284|571=20190719143023_AE|487=0|856=96|939=1|17=4|60=20190719-19:30:32.284|751=99|58=(369): Operaciones con status (U) no se pueden solicitar para cancelación|10=199|
8=FIX.4.4|9=59|35=5|34=3|49=029|50=029B17|52=20190719-19:30:52.654|56=EXC|10=084|
8=FIX.4.4|9=0055|35=5|34=3|49=EXC|56=029|52=20190719-19:30:52.680|369=3|10=218|
8=FIX.4.4|9=110|35=A|34=1|49=029|50=029B17|52=20190719-20:12:25.008|56=EXC|43=N|98=0|108=30|141=Y|553=029FCM001|554=029FCM001|10=103|
8=FIX.4.4|9=0067|35=A|34=1|49=EXC|56=029|52=20190719-20:12:25.059|98=0|108=30|141=Y|10=018|
8=FIX.4.4|9=188|35=AE|34=2|49=029|50=029B17|52=20190719-20:12:32.173|56=EXC|31=120|32=100|55=T24U19F|60=20190719-20:08:32.537|487=0|571=20190719151223_AE|762=AFIR|856=96|880=201907190000000002|552=1|54=1|10=162|
8=FIX.4.4|9=0131|35=AR|34=2|49=EXC|56=029|57=029B17|52=20190719-20:12:32.204|571=20190719151223_AE|487=0|856=96|939=0|17=7|60=20190719-20:12:32.204|10=168|
8=FIX.4.4|9=0360|35=AE|34=3|49=EXC|56=029|57=029B17|52=20190719-20:12:57.737|571=20190719151223_AE|487=2|856=99|17=8|829=98|573=0|15=COP|880=201907190000000002|75=20190719|55=T24U19F|762=AFIR|48=27227|22=M|31=120.000|32=100|381=30000000000.000|60=20190719-20:12:57.737|64=20190719|552=1|54=1|453=3|448=029B17|447=C|452=12|448=029|447=C|452=1|448=029FCM001|447=C|452=36|1=RT001|10=084|
8=FIX.4.4|9=59|35=5|34=3|49=029|50=029B17|52=20190719-20:12:58.957|56=EXC|10=088|
8=FIX.4.4|9=0055|35=5|34=4|49=EXC|56=029|52=20190719-20:12:58.988|369=3|10=228|
8=FIX.4.4|9=110|35=A|34=1|49=029|50=029B17|52=20190719-20:34:37.669|56=EXC|43=N|98=0|108=30|141=Y|553=029FCM001|554=029FCM001|10=123|
8=FIX.4.4|9=0067|35=A|34=1|49=EXC|56=029|52=20190719-20:34:37.725|98=0|108=30|141=Y|10=025|
8=FIX.4.4|9=188|35=AE|34=2|49=029|50=029B17|52=20190719-20:34:44.838|56=EXC|31=120|32=100|55=T24U19F|60=20190719-20:11:53.899|487=0|571=20190719153436_AE|762=AFIR|856=96|880=201907190000000003|552=1|54=1|10=194|
8=FIX.4.4|9=0131|35=AR|34=2|49=EXC|56=029|57=029B17|52=20190719-20:34:44.872|571=20190719153436_AE|487=0|856=96|939=0|17=9|60=20190719-20:34:44.872|10=214|
8=FIX.4.4|9=0361|35=AE|34=3|49=EXC|56=029|57=029B17|52=20190719-20:35:06.497|571=20190719153436_AE|487=2|856=99|17=10|829=98|573=0|15=COP|880=201907190000000003|75=20190719|55=T24U19F|762=AFIR|48=27227|22=M|31=120.000|32=100|381=30000000000.000|60=20190719-20:35:06.497|64=20190719|552=1|54=1|453=3|448=029B17|447=C|452=12|448=029|447=C|452=1|448=029FCM001|447=C|452=36|1=RT001|10=139|
8=FIX.4.4|9=59|35=5|34=3|49=029|50=029B17|52=20190719-20:35:07.616|56=EXC|10=079|
8=FIX.4.4|9=0055|35=5|34=4|49=EXC|56=029|52=20190719-20:35:07.649|369=3|10=221|
