8=FIX.4.4|9=105|35=A|34=1|49=013|50=013B17|52=20190620-21:31:23.158|56=EXC|98=0|108=30|141=Y|553=013FCM001|554=013FCM001|10=089|
8=FIX.4.4|9=0067|35=A|34=1|49=EXC|56=013|52=20190620-21:31:23.690|98=0|108=30|141=Y|10=003|
8=FIX.4.4|9=105|35=A|34=1|49=013|50=013B17|52=20190620-21:41:55.650|56=EXC|98=0|108=30|141=Y|553=013FCM001|554=013FCM001|10=092|
8=FIX.4.4|9=0067|35=A|34=1|49=EXC|56=013|52=20190620-21:41:55.857|98=0|108=30|141=Y|10=014|
8=FIX.4.4|9=105|35=A|34=1|49=013|50=013B17|52=20190620-21:42:44.122|56=EXC|98=0|108=30|141=Y|553=013FCM001|554=013FCM001|10=085|
8=FIX.4.4|9=0067|35=A|34=1|49=EXC|56=013|52=20190620-21:42:44.234|98=0|108=30|141=Y|10=002|
8=FIX.4.4|9=105|35=A|34=1|49=013|50=013B17|52=20190620-21:54:13.253|56=EXC|98=0|108=30|141=Y|553=013FCM001|554=013FCM001|10=089|
8=FIX.4.4|9=0067|35=A|34=1|49=EXC|56=013|52=20190620-21:54:13.683|98=0|108=30|141=Y|10=009|
8=FIX.4.4|9=105|35=A|34=1|49=013|50=013B17|52=20190620-21:59:27.641|56=EXC|98=0|108=30|141=Y|553=013FCM001|554=013FCM001|10=100|
8=FIX.4.4|9=0067|35=A|34=1|49=EXC|56=013|52=20190620-21:59:28.112|98=0|108=30|141=Y|10=007|
8=FIX.4.4|9=105|35=A|34=1|49=013|50=013B17|52=20190621-13:46:46.522|56=EXC|98=0|108=30|141=Y|553=013FCM001|554=013FCM001|10=097|
8=FIX.4.4|9=0067|35=A|34=1|49=EXC|56=013|52=20190621-13:46:46.542|98=0|108=30|141=Y|10=012|
8=FIX.4.4|9=105|35=A|34=1|49=013|50=013B17|52=20190621-13:51:58.610|56=EXC|98=0|108=30|141=Y|553=013FCM001|554=013FCM001|10=094|
8=FIX.4.4|9=0067|35=A|34=1|49=EXC|56=013|52=20190621-13:51:58.632|98=0|108=30|141=Y|10=011|
8=FIX.4.4|9=105|35=A|34=1|49=013|50=013B17|52=20190621-14:01:12.838|56=EXC|98=0|108=30|141=Y|553=013FCM001|554=013FCM001|10=092|
8=FIX.4.4|9=0067|35=A|34=1|49=EXC|56=013|52=20190621-14:01:12.883|98=0|108=30|141=Y|10=005|
8=FIX.4.4|9=105|35=A|34=1|49=013|50=013B17|52=20190621-14:02:04.394|56=EXC|98=0|108=30|141=Y|553=013FCM001|554=013FCM001|10=091|
8=FIX.4.4|9=0067|35=A|34=1|49=EXC|56=013|52=20190621-14:02:04.432|98=0|108=30|141=Y|10=253|
8=FIX.4.4|9=105|35=A|34=1|49=013|50=013B17|52=20190621-15:58:27.620|56=EXC|98=0|108=30|141=Y|553=013FCM001|554=013FCM001|10=100|
8=FIX.4.4|9=0067|35=A|34=1|49=EXC|56=013|52=20190621-15:58:27.663|98=0|108=30|141=Y|10=020|
8=FIX.4.4|9=105|35=A|34=1|49=013|50=013B17|52=20190621-16:01:48.528|56=EXC|98=0|108=30|141=Y|553=013FCM001|554=013FCM001|10=099|
8=FIX.4.4|9=0067|35=A|34=1|49=EXC|56=013|52=20190621-16:01:48.583|98=0|108=30|141=Y|10=013|
8=FIX.4.4|9=105|35=A|34=1|49=013|50=013B17|52=20190621-16:17:31.401|56=EXC|98=0|108=30|141=Y|553=013FCM001|554=013FCM001|10=088|
8=FIX.4.4|9=0067|35=A|34=1|49=EXC|56=013|52=20190621-16:17:31.447|98=0|108=30|141=Y|10=011|
8=FIX.4.4|9=105|35=A|34=1|49=013|50=013B17|52=20190621-16:24:24.472|56=EXC|98=0|108=30|141=Y|553=013FCM001|554=013FCM001|10=096|
8=FIX.4.4|9=0067|35=A|34=1|49=EXC|56=013|52=20190621-16:24:24.531|98=0|108=30|141=Y|10=005|
8=FIX.4.4|9=105|35=A|34=1|49=013|50=013B17|52=20190621-16:29:19.383|56=EXC|98=0|108=30|141=Y|553=013FCM001|554=013FCM001|10=106|
8=FIX.4.4|9=0067|35=A|34=1|49=EXC|56=013|52=20190621-16:29:19.412|98=0|108=30|141=Y|10=012|
8=FIX.4.4|9=105|35=A|34=1|49=013|50=013B17|52=20190625-14:28:26.126|56=EXC|98=0|108=30|141=Y|553=013FCM001|554=013FCM001|10=100|
8=FIX.4.4|9=0067|35=A|34=1|49=EXC|56=013|52=20190627-14:28:15.849|98=0|108=30|141=Y|10=025|
8=FIX.4.4|9=105|35=A|34=1|49=013|50=013B17|52=20190625-14:51:26.050|56=EXC|98=0|108=30|141=Y|553=013FCM001|554=013FCM001|10=092|
8=FIX.4.4|9=0067|35=A|34=1|49=EXC|56=013|52=20190627-14:51:15.743|98=0|108=30|141=Y|10=014|
8=FIX.4.4|9=105|35=A|34=1|49=013|50=013B17|52=20190625-19:44:15.107|56=EXC|98=0|108=30|141=Y|553=013FCM001|554=013FCM001|10=100|
8=FIX.4.4|9=0067|35=A|34=1|49=EXC|56=013|52=20190627-19:44:15.153|98=0|108=30|141=Y|10=016|
8=FIX.4.4|9=105|35=A|34=1|49=013|50=013B17|52=20190625-19:45:35.142|56=EXC|98=0|108=30|141=Y|553=013FCM001|554=013FCM001|10=102|
8=FIX.4.4|9=0067|35=A|34=1|49=EXC|56=013|52=20190627-19:45:35.177|98=0|108=30|141=Y|10=025|
8=FIX.4.4|9=105|35=A|34=1|49=013|50=013B17|52=20190625-19:54:23.992|56=EXC|98=0|108=30|141=Y|553=013FCM001|554=013FCM001|10=112|
8=FIX.4.4|9=0067|35=A|34=1|49=EXC|56=013|52=20190627-19:54:24.047|98=0|108=30|141=Y|10=019|
8=FIX.4.4|9=105|35=A|34=1|49=013|50=013B17|52=20190625-19:55:23.734|56=EXC|98=0|108=30|141=Y|553=013FCM001|554=013FCM001|10=107|
8=FIX.4.4|9=0067|35=A|34=1|49=EXC|56=013|52=20190627-19:55:23.787|98=0|108=30|141=Y|10=030|
8=FIX.4.4|9=105|35=A|34=1|49=013|50=013B17|52=20190625-20:02:36.670|56=EXC|98=0|108=30|141=Y|553=013FCM001|554=013FCM001|10=094|
8=FIX.4.4|9=0067|35=A|34=1|49=EXC|56=013|52=20190627-20:02:36.703|98=0|108=30|141=Y|10=006|
8=FIX.4.4|9=105|35=A|34=1|49=013|50=013B17|52=20190626-19:09:44.354|56=EXC|98=0|108=30|141=Y|553=013FCM001|554=013FCM001|10=108|
8=FIX.4.4|9=0067|35=A|34=1|49=EXC|56=013|52=20190628-19:09:44.425|98=0|108=30|141=Y|10=022|
8=FIX.4.4|9=105|35=A|34=1|49=013|50=013B17|52=20190626-20:09:29.680|56=EXC|98=0|108=30|141=Y|553=013FCM001|554=013FCM001|10=105|
8=FIX.4.4|9=0067|35=A|34=1|49=EXC|56=013|52=20190628-20:09:29.737|98=0|108=30|141=Y|10=023|
8=FIX.4.4|9=0049|35=0|34=2|49=EXC|56=013|52=20190628-20:09:59.000|10=179|
8=FIX.4.4|9=59|35=0|34=2|49=013|50=013B17|52=20190626-20:10:00.521|56=EXC|10=037|
8=FIX.4.4|9=105|35=A|34=1|49=013|50=013B17|52=20190626-20:11:00.045|56=EXC|98=0|108=30|141=Y|553=013FCM001|554=013FCM001|10=082|
8=FIX.4.4|9=0067|35=A|34=1|49=EXC|56=013|52=20190628-20:11:00.108|98=0|108=30|141=Y|10=253|
8=FIX.4.4|9=0049|35=0|34=2|49=EXC|56=013|52=20190628-20:11:30.000|10=161|
8=FIX.4.4|9=59|35=0|34=2|49=013|50=013B17|52=20190626-20:11:30.807|56=EXC|10=048|
8=FIX.4.4|9=105|35=A|34=1|49=013|50=013B17|52=20190626-20:16:08.012|56=EXC|98=0|108=30|141=Y|553=013FCM001|554=013FCM001|10=089|
8=FIX.4.4|9=0067|35=A|34=1|49=EXC|56=013|52=20190628-20:16:08.083|98=0|108=30|141=Y|10=012|
8=FIX.4.4|9=105|35=A|34=1|49=013|50=013B17|52=20190626-20:20:26.446|56=EXC|98=0|108=30|141=Y|553=013FCM001|554=013FCM001|10=095|
8=FIX.4.4|9=0067|35=A|34=1|49=EXC|56=013|52=20190628-20:20:26.495|98=0|108=30|141=Y|10=014|
8=FIX.4.4|9=105|35=A|34=1|49=013|50=013B17|52=20190626-20:34:32.550|56=EXC|98=0|108=30|141=Y|553=013FCM001|554=013FCM001|10=093|
8=FIX.4.4|9=0067|35=A|34=1|49=EXC|56=013|52=20190628-20:34:32.627|98=0|108=30|141=Y|10=013|
8=FIX.4.4|9=105|35=A|34=1|49=013|50=013B17|52=20190626-20:45:46.434|56=EXC|98=0|108=30|141=Y|553=013FCM001|554=013FCM001|10=101|
8=FIX.4.4|9=0067|35=A|34=1|49=EXC|56=013|52=20190628-20:45:46.493|98=0|108=30|141=Y|10=021|
8=FIX.4.4|9=0049|35=0|34=2|49=EXC|56=013|52=20190628-20:46:16.000|10=173|
8=FIX.4.4|9=59|35=0|34=2|49=013|50=013B17|52=20190626-20:46:17.154|56=EXC|10=056|
8=FIX.4.4|9=0049|35=0|34=3|49=EXC|56=013|52=20190628-20:46:46.000|10=177|
8=FIX.4.4|9=59|35=0|34=3|49=013|50=013B17|52=20190626-20:46:47.153|56=EXC|10=059|
8=FIX.4.4|9=0049|35=0|34=4|49=EXC|56=013|52=20190628-20:47:16.000|10=176|
8=FIX.4.4|9=59|35=0|34=4|49=013|50=013B17|52=20190626-20:47:17.153|56=EXC|10=058|
8=FIX.4.4|9=105|35=A|34=1|49=013|50=013B17|52=20190626-20:47:57.712|56=EXC|98=0|108=30|141=Y|553=013FCM001|554=013FCM001|10=104|
8=FIX.4.4|9=0067|35=A|34=1|49=EXC|56=013|52=20190628-20:47:57.788|98=0|108=30|141=Y|10=032|
8=FIX.4.4|9=105|35=A|34=1|49=013|50=013B17|52=20190626-21:05:42.627|56=EXC|98=0|108=30|141=Y|553=013FCM001|554=013FCM001|10=098|
8=FIX.4.4|9=0067|35=A|34=1|49=EXC|56=013|52=20190628-21:05:42.176|98=0|108=30|141=Y|10=012|
8=FIX.4.4|9=105|35=A|34=1|49=013|50=013B17|52=20190626-21:06:19.803|56=EXC|98=0|108=30|141=Y|553=013FCM001|554=013FCM001|10=099|
8=FIX.4.4|9=0067|35=A|34=1|49=EXC|56=013|52=20190628-21:06:19.323|98=0|108=30|141=Y|10=011|
8=FIX.4.4|9=105|35=A|34=1|49=013|50=013B17|52=20190626-21:07:10.734|56=EXC|98=0|108=30|141=Y|553=013FCM001|554=013FCM001|10=094|
8=FIX.4.4|9=0067|35=A|34=1|49=EXC|56=013|52=20190628-21:07:10.248|98=0|108=30|141=Y|10=009|
8=FIX.4.4|9=105|35=A|34=1|49=013|50=013B17|52=20190626-21:09:36.805|56=EXC|98=0|108=30|141=Y|553=013FCM001|554=013FCM001|10=103|
8=FIX.4.4|9=0067|35=A|34=1|49=EXC|56=013|52=20190628-21:09:36.323|98=0|108=30|141=Y|10=013|
8=FIX.4.4|9=105|35=A|34=1|49=013|50=013B17|52=20190626-21:10:30.827|56=EXC|98=0|108=30|141=Y|553=013FCM001|554=013FCM001|10=093|
8=FIX.4.4|9=0067|35=A|34=1|49=EXC|56=013|52=20190628-21:10:30.361|98=0|108=30|141=Y|10=001|
8=FIX.4.4|9=105|35=A|34=1|49=013|50=013B17|52=20190626-21:11:06.833|56=EXC|98=0|108=30|141=Y|553=013FCM001|554=013FCM001|10=094|
8=FIX.4.4|9=0067|35=A|34=1|49=EXC|56=013|52=20190628-21:11:06.361|98=0|108=30|141=Y|10=005|
8=FIX.4.4|9=105|35=A|34=1|49=013|50=013B17|52=20190626-21:25:27.044|56=EXC|98=0|108=30|141=Y|553=013FCM001|554=013FCM001|10=096|
8=FIX.4.4|9=0067|35=A|34=1|49=EXC|56=013|52=20190628-21:25:26.939|98=0|108=30|141=Y|10=023|
8=FIX.4.4|9=0049|35=0|34=2|49=EXC|56=013|52=20190628-21:25:56.000|10=175|
8=FIX.4.4|9=105|35=A|34=1|49=013|50=013B17|52=20190626-21:35:17.986|56=EXC|98=0|108=30|141=Y|553=013FCM001|554=013FCM001|10=111|
8=FIX.4.4|9=0067|35=A|34=1|49=EXC|56=013|52=20190628-21:35:18.055|98=0|108=30|141=Y|10=014|
8=FIX.4.4|9=0049|35=0|34=2|49=EXC|56=013|52=20190628-21:35:48.000|10=177|
8=FIX.4.4|9=59|35=0|34=2|49=013|50=013B17|52=20190626-21:35:48.024|56=EXC|10=055|
8=FIX.4.4|9=105|35=A|34=1|49=013|50=013B17|52=20190626-21:55:42.126|56=EXC|98=0|108=30|141=Y|553=013FCM001|554=013FCM001|10=097|
8=FIX.4.4|9=0067|35=A|34=1|49=EXC|56=013|52=20190628-21:55:42.182|98=0|108=30|141=Y|10=014|
8=FIX.4.4|9=0049|35=0|34=2|49=EXC|56=013|52=20190628-21:56:12.000|10=171|
8=FIX.4.4|9=59|35=0|34=2|49=013|50=013B17|52=20190626-21:56:12.873|56=EXC|10=061|
8=FIX.4.4|9=99|35=A|34=3|49=013|50=013B17|52=20190626-21:56:28.255|56=EXC|98=0|108=30|553=013FCM001|554=013FCM001|10=026|
8=FIX.4.4|9=0061|35=A|34=3|49=EXC|56=013|52=20190628-21:56:28.304|98=0|108=30|10=222|
8=FIX.4.4|9=0049|35=0|34=4|49=EXC|56=013|52=20190628-21:56:58.000|10=183|
8=FIX.4.4|9=59|35=0|34=4|49=013|50=013B17|52=20190626-21:56:59.137|56=EXC|10=067|
8=FIX.4.4|9=105|35=A|34=1|49=013|50=013B17|52=20190626-22:01:39.822|56=EXC|98=0|108=30|141=Y|553=013FCM001|554=013FCM001|10=098|
8=FIX.4.4|9=0067|35=A|34=1|49=EXC|56=013|52=20190628-22:01:40.037|98=0|108=30|141=Y|10=003|
8=FIX.4.4|9=105|35=A|34=1|49=013|50=013B17|52=20190626-22:02:08.622|56=EXC|98=0|108=30|141=Y|553=013FCM001|554=013FCM001|10=093|
8=FIX.4.4|9=0067|35=A|34=1|49=EXC|56=013|52=20190628-22:02:08.817|98=0|108=30|141=Y|10=014|
8=FIX.4.4|9=105|35=A|34=1|49=013|50=013B17|52=20190627-19:53:15.852|56=EXC|98=0|108=30|141=Y|553=013FCM001|554=013FCM001|10=109|
8=FIX.4.4|9=0067|35=A|34=1|49=EXC|56=013|52=20190627-19:53:15.922|98=0|108=30|141=Y|10=020|
8=FIX.4.4|9=0049|35=0|34=2|49=EXC|56=013|52=20190627-19:53:45.000|10=180|
8=FIX.4.4|9=59|35=0|34=2|49=013|50=013B17|52=20190627-19:53:46.557|56=EXC|10=072|
8=FIX.4.4|9=105|35=A|34=1|49=013|50=013B17|52=20190627-19:54:06.107|56=EXC|98=0|108=30|141=Y|553=013FCM001|554=013FCM001|10=103|
8=FIX.4.4|9=0067|35=A|34=1|49=EXC|56=013|52=20190627-19:54:06.177|98=0|108=30|141=Y|10=023|
8=FIX.4.4|9=105|35=A|34=1|49=013|50=013B17|52=20190628-14:45:15.481|56=EXC|98=0|108=30|141=Y|553=013FCM001|554=013FCM001|10=104|
8=FIX.4.4|9=0067|35=A|34=1|49=EXC|56=013|52=20190628-14:45:15.557|98=0|108=30|141=Y|10=021|
8=FIX.4.4|9=0049|35=0|34=2|49=EXC|56=013|52=20190628-14:45:45.000|10=177|
8=FIX.4.4|9=59|35=0|34=2|49=013|50=013B17|52=20190628-14:45:46.225|56=EXC|10=061|
8=FIX.4.4|9=105|35=A|34=1|49=013|50=013B17|52=20190702-17:24:05.949|56=EXC|98=0|108=30|141=Y|553=013FCM001|554=013FCM001|10=105|
8=FIX.4.4|9=0067|35=A|34=1|49=EXC|56=013|52=20190702-17:24:06.014|98=0|108=30|141=Y|10=002|
8=FIX.4.4|9=0049|35=0|34=2|49=EXC|56=013|52=20190702-17:24:36.000|10=170|
8=FIX.4.4|9=59|35=0|34=2|49=013|50=013B17|52=20190702-17:24:36.020|56=EXC|10=046|
8=FIX.4.4|9=105|35=A|34=1|49=013|50=013B17|52=20190702-17:44:37.362|56=EXC|98=0|108=30|141=Y|553=013FCM001|554=013FCM001|10=101|
8=FIX.4.4|9=0067|35=A|34=1|49=EXC|56=013|52=20190702-17:44:37.409|98=0|108=30|141=Y|10=016|
8=FIX.4.4|9=0049|35=0|34=2|49=EXC|56=013|52=20190702-17:45:07.000|10=171|
8=FIX.4.4|9=59|35=0|34=2|49=013|50=013B17|52=20190702-17:45:08.246|56=EXC|10=058|
8=FIX.4.4|9=105|35=A|34=1|49=013|50=013B17|52=20190702-19:37:35.273|56=EXC|98=0|108=30|141=Y|553=013FCM001|554=013FCM001|10=104|
8=FIX.4.4|9=0067|35=A|34=1|49=EXC|56=013|52=20190702-19:37:35.455|98=0|108=30|141=Y|10=019|
8=FIX.4.4|9=110|35=A|34=1|49=013|50=013B17|52=20190702-20:10:01.213|56=EXC|43=Y|98=0|108=30|141=Y|553=013FCM001|554=013FCM001|10=068|
8=FIX.4.4|9=0067|35=A|34=1|49=EXC|56=013|52=20190702-20:10:01.264|98=0|108=30|141=Y|10=249|
8=FIX.4.4|9=110|35=A|34=1|49=013|50=013B17|52=20190702-21:28:51.920|56=EXC|43=Y|98=0|108=30|141=Y|553=013FCM001|554=013FCM001|10=088|
8=FIX.4.4|9=0067|35=A|34=1|49=EXC|56=013|52=20190702-21:28:52.008|98=0|108=30|141=Y|10=005|
8=FIX.4.4|9=0049|35=0|34=2|49=EXC|56=013|52=20190702-21:29:22.000|10=165|
8=FIX.4.4|9=59|35=0|34=2|49=013|50=013B17|52=20190702-21:29:22.023|56=EXC|10=044|
8=FIX.4.4|9=110|35=A|34=1|49=013|50=013B17|52=20190702-21:33:16.994|56=EXC|43=Y|98=0|108=30|141=Y|553=013FCM001|554=013FCM001|10=096|
8=FIX.4.4|9=0067|35=A|34=1|49=EXC|56=013|52=20190702-21:33:17.060|98=0|108=30|141=Y|10=000|
8=FIX.4.4|9=110|35=A|34=1|49=013|50=013B17|52=20190702-21:36:38.113|56=EXC|43=Y|98=0|108=30|141=Y|553=013FCM001|554=013FCM001|10=086|
8=FIX.4.4|9=0067|35=A|34=1|49=EXC|56=013|52=20190702-21:36:38.183|98=0|108=30|141=Y|10=012|
8=FIX.4.4|9=0049|35=0|34=2|49=EXC|56=013|52=20190702-21:37:08.000|10=168|
8=FIX.4.4|9=59|35=0|34=2|49=013|50=013B17|52=20190702-21:37:09.009|56=EXC|10=052|
8=FIX.4.4|9=110|35=A|34=1|49=013|50=013B17|52=20190702-21:39:52.520|56=EXC|43=Y|98=0|108=30|141=Y|553=013FCM001|554=013FCM001|10=087|
8=FIX.4.4|9=0067|35=A|34=1|49=EXC|56=013|52=20190702-21:39:52.588|98=0|108=30|141=Y|10=020|
8=FIX.4.4|9=110|35=A|34=1|49=013|50=013B17|52=20190703-15:49:22.233|56=EXC|43=Y|98=0|108=30|141=Y|553=013FCM001|554=013FCM001|10=090|
8=FIX.4.4|9=0067|35=A|34=1|49=EXC|56=013|52=20190703-15:55:15.351|98=0|108=30|141=Y|10=009|
8=FIX.4.4|9=110|35=A|34=1|49=013|50=013B17|52=20190703-17:04:33.420|56=EXC|43=Y|98=0|108=30|141=Y|553=013FCM001|554=013FCM001|10=083|
8=FIX.4.4|9=0067|35=A|34=1|49=EXC|56=013|52=20190703-17:10:26.603|98=0|108=30|141=Y|10=004|
8=FIX.4.4|9=110|35=A|34=1|49=013|50=013B17|52=20190703-21:16:40.018|56=EXC|43=Y|98=0|108=30|141=Y|553=013FCM001|554=013FCM001|10=082|
8=FIX.4.4|9=0067|35=A|34=1|49=EXC|56=013|52=20190703-21:22:33.401|98=0|108=30|141=Y|10=252|
8=FIX.4.4|9=0049|35=0|34=2|49=EXC|56=013|52=20190703-21:23:03.000|10=159|
8=FIX.4.4|9=59|35=0|34=2|49=013|50=013B17|52=20190703-21:17:10.966|56=EXC|10=055|
8=FIX.4.4|9=0049|35=0|34=3|49=EXC|56=013|52=20190703-21:23:33.000|10=163|
8=FIX.4.4|9=59|35=0|34=3|49=013|50=013B17|52=20190703-21:17:40.964|56=EXC|10=057|
8=FIX.4.4|9=59|35=5|34=4|49=013|50=013B17|52=20190703-21:17:59.962|56=EXC|10=071|
8=FIX.4.4|9=0049|35=5|34=4|49=EXC|56=013|52=20190703-21:23:53.318|10=183|
8=FIX.4.4|9=110|35=A|34=1|49=013|50=013B17|52=20190703-21:24:25.686|56=EXC|43=Y|98=0|108=30|141=Y|553=013FCM001|554=013FCM001|10=095|
8=FIX.4.4|9=0067|35=A|34=1|49=EXC|56=013|52=20190703-21:30:19.053|98=0|108=30|141=Y|10=002|
8=FIX.4.4|9=0049|35=0|34=2|49=EXC|56=013|52=20190703-21:30:49.000|10=167|
8=FIX.4.4|9=59|35=0|34=2|49=013|50=013B17|52=20190703-21:24:56.616|56=EXC|10=055|
8=FIX.4.4|9=110|35=A|34=1|49=013|50=013B17|52=20190704-12:55:58.929|56=EXC|43=Y|98=0|108=30|141=Y|553=013FCM001|554=013FCM001|10=106|
8=FIX.4.4|9=0067|35=A|34=1|49=EXC|56=013|52=20190704-13:01:52.926|98=0|108=30|141=Y|10=008|
8=FIX.4.4|9=0049|35=0|34=2|49=EXC|56=013|52=20190704-13:02:22.000|10=159|
8=FIX.4.4|9=59|35=0|34=2|49=013|50=013B17|52=20190704-12:56:29.802|56=EXC|10=058|
8=FIX.4.4|9=0049|35=0|34=3|49=EXC|56=013|52=20190704-13:02:52.000|10=163|
8=FIX.4.4|9=59|35=0|34=3|49=013|50=013B17|52=20190704-12:56:59.802|56=EXC|10=062|
8=FIX.4.4|9=110|35=A|34=1|49=013|50=013B17|52=20190704-12:57:35.205|56=EXC|43=Y|98=0|108=30|141=Y|553=013FCM001|554=013FCM001|10=090|
8=FIX.4.4|9=0067|35=A|34=1|49=EXC|56=013|52=20190704-13:03:29.186|98=0|108=30|141=Y|10=012|
8=FIX.4.4|9=0049|35=0|34=2|49=EXC|56=013|52=20190704-13:03:59.000|10=170|
8=FIX.4.4|9=59|35=0|34=2|49=013|50=013B17|52=20190704-12:58:05.829|56=EXC|10=063|
8=FIX.4.4|9=0049|35=0|34=3|49=EXC|56=013|52=20190704-13:04:29.000|10=169|
8=FIX.4.4|9=59|35=0|34=3|49=013|50=013B17|52=20190704-12:58:35.827|56=EXC|10=065|
8=FIX.4.4|9=0049|35=0|34=4|49=EXC|56=013|52=20190704-13:04:59.000|10=173|
8=FIX.4.4|9=59|35=0|34=4|49=013|50=013B17|52=20190704-12:59:05.827|56=EXC|10=064|
8=FIX.4.4|9=0049|35=0|34=5|49=EXC|56=013|52=20190704-13:05:29.000|10=172|
8=FIX.4.4|9=59|35=0|34=5|49=013|50=013B17|52=20190704-12:59:36.318|56=EXC|10=064|
8=FIX.4.4|9=110|35=A|34=1|49=013|50=013B17|52=20190704-13:26:23.631|56=EXC|43=Y|98=0|108=30|141=Y|553=013FCM001|554=013FCM001|10=087|
8=FIX.4.4|9=0067|35=A|34=1|49=EXC|56=013|52=20190704-13:32:17.640|98=0|108=30|141=Y|10=006|
8=FIX.4.4|9=0049|35=0|34=2|49=EXC|56=013|52=20190704-13:32:47.000|10=169|
8=FIX.4.4|9=59|35=0|34=2|49=013|50=013B17|52=20190704-13:26:54.316|56=EXC|10=054|
8=FIX.4.4|9=110|35=A|34=1|49=013|50=013B17|52=20190704-13:34:07.584|56=EXC|43=Y|98=0|108=30|141=Y|553=013FCM001|554=013FCM001|10=095|
8=FIX.4.4|9=0067|35=A|34=1|49=EXC|56=013|52=20190704-13:40:01.607|98=0|108=30|141=Y|10=001|
8=FIX.4.4|9=0049|35=0|34=2|49=EXC|56=013|52=20190704-13:40:31.000|10=161|
8=FIX.4.4|9=59|35=0|34=2|49=013|50=013B17|52=20190704-13:34:38.187|56=EXC|10=061|
8=FIX.4.4|9=110|35=A|34=1|49=013|50=013B17|52=20190704-14:08:22.180|56=EXC|43=Y|98=0|108=30|141=Y|553=013FCM001|554=013FCM001|10=086|
8=FIX.4.4|9=0067|35=A|34=1|49=EXC|56=013|52=20190704-14:14:16.401|98=0|108=30|141=Y|10=001|
8=FIX.4.4|9=110|35=A|34=1|49=013|50=013B17|52=20190704-14:15:40.074|56=EXC|43=Y|98=0|108=30|141=Y|553=013FCM001|554=013FCM001|10=086|
8=FIX.4.4|9=0067|35=A|34=1|49=EXC|56=013|52=20190704-14:21:34.125|98=0|108=30|141=Y|10=002|
8=FIX.4.4|9=0049|35=0|34=2|49=EXC|56=013|52=20190704-14:22:04.000|10=162|
8=FIX.4.4|9=59|35=0|34=2|49=013|50=013B17|52=20190704-14:16:10.469|56=EXC|10=055|
8=FIX.4.4|9=0049|35=0|34=3|49=EXC|56=013|52=20190704-14:22:34.000|10=166|
8=FIX.4.4|9=59|35=0|34=3|49=013|50=013B17|52=20190704-14:16:40.476|56=EXC|10=057|
8=FIX.4.4|9=0049|35=0|34=4|49=EXC|56=013|52=20190704-14:23:04.000|10=165|
8=FIX.4.4|9=59|35=0|34=4|49=013|50=013B17|52=20190704-14:17:11.463|56=EXC|10=053|
8=FIX.4.4|9=110|35=A|34=1|49=013|50=013B17|52=20190704-14:20:57.720|56=EXC|43=Y|98=0|108=30|141=Y|553=013FCM001|554=013FCM001|10=088|
8=FIX.4.4|9=0067|35=A|34=1|49=EXC|56=013|52=20190704-14:26:51.756|98=0|108=30|141=Y|10=016|
8=FIX.4.4|9=0049|35=0|34=2|49=EXC|56=013|52=20190704-14:27:21.000|10=166|
8=FIX.4.4|9=59|35=0|34=2|49=013|50=013B17|52=20190704-14:21:28.620|56=EXC|10=049|
8=FIX.4.4|9=0049|35=0|34=3|49=EXC|56=013|52=20190704-14:27:51.000|10=170|
8=FIX.4.4|9=59|35=0|34=3|49=013|50=013B17|52=20190704-14:21:59.607|56=EXC|10=059|
8=FIX.4.4|9=110|35=A|34=1|49=013|50=013B17|52=20190704-15:09:50.701|56=EXC|43=Y|98=0|108=30|141=Y|553=013FCM001|554=013FCM001|10=088|
8=FIX.4.4|9=0067|35=A|34=1|49=EXC|56=013|52=20190704-15:15:44.793|98=0|108=30|141=Y|10=018|
8=FIX.4.4|9=0049|35=0|34=2|49=EXC|56=013|52=20190704-15:16:14.000|10=167|
8=FIX.4.4|9=59|35=0|34=2|49=013|50=013B17|52=20190704-15:10:21.624|56=EXC|10=045|
8=FIX.4.4|9=0049|35=0|34=3|49=EXC|56=013|52=20190704-15:16:44.000|10=171|
8=FIX.4.4|9=59|35=0|34=3|49=013|50=013B17|52=20190704-15:10:51.632|56=EXC|10=048|
8=FIX.4.4|9=110|35=A|34=1|49=013|50=013B17|52=20190704-15:23:48.233|56=EXC|43=Y|98=0|108=30|141=Y|553=013FCM001|554=013FCM001|10=091|
8=FIX.4.4|9=0067|35=A|34=1|49=EXC|56=013|52=20190704-15:29:42.333|98=0|108=30|141=Y|10=011|
8=FIX.4.4|9=0049|35=0|34=2|49=EXC|56=013|52=20190704-15:30:12.000|10=161|
8=FIX.4.4|9=59|35=0|34=2|49=013|50=013B17|52=20190704-15:24:19.192|56=EXC|10=057|
8=FIX.4.4|9=0049|35=0|34=3|49=EXC|56=013|52=20190704-15:30:42.000|10=165|
8=FIX.4.4|9=59|35=0|34=3|49=013|50=013B17|52=20190704-15:24:49.188|56=EXC|10=066|
8=FIX.4.4|9=0049|35=0|34=4|49=EXC|56=013|52=20190704-15:31:12.000|10=164|
8=FIX.4.4|9=59|35=0|34=4|49=013|50=013B17|52=20190704-15:25:19.191|56=EXC|10=059|
8=FIX.4.4|9=110|35=A|34=1|49=013|50=013B17|52=20190704-15:25:48.499|56=EXC|43=Y|98=0|108=30|141=Y|553=013FCM001|554=013FCM001|10=107|
8=FIX.4.4|9=0067|35=A|34=1|49=EXC|56=013|52=20190704-15:31:42.612|98=0|108=30|141=Y|10=004|
8=FIX.4.4|9=0049|35=0|34=2|49=EXC|56=013|52=20190704-15:32:12.000|10=163|
8=FIX.4.4|9=59|35=0|34=2|49=013|50=013B17|52=20190704-15:26:19.410|56=EXC|10=052|
8=FIX.4.4|9=110|35=A|34=1|49=013|50=013B17|52=20190704-15:26:55.936|56=EXC|43=Y|98=0|108=30|141=Y|553=013FCM001|554=013FCM001|10=102|
8=FIX.4.4|9=0067|35=A|34=1|49=EXC|56=013|52=20190704-15:32:50.037|98=0|108=30|141=Y|10=005|
8=FIX.4.4|9=0049|35=0|34=2|49=EXC|56=013|52=20190704-15:33:20.000|10=163|
8=FIX.4.4|9=59|35=0|34=2|49=013|50=013B17|52=20190704-15:27:26.846|56=EXC|10=064|
8=FIX.4.4|9=0049|35=0|34=3|49=EXC|56=013|52=20190704-15:33:50.000|10=167|
8=FIX.4.4|9=59|35=0|34=3|49=013|50=013B17|52=20190704-15:27:56.840|56=EXC|10=062|
8=FIX.4.4|9=110|35=A|34=1|49=013|50=013B17|52=20190704-16:32:38.813|56=EXC|43=Y|98=0|108=30|141=Y|553=013FCM001|554=013FCM001|10=095|
8=FIX.4.4|9=0067|35=A|34=1|49=EXC|56=013|52=20190704-16:38:32.959|98=0|108=30|141=Y|10=025|
8=FIX.4.4|9=0049|35=0|34=2|49=EXC|56=013|52=20190704-16:39:02.000|10=170|
8=FIX.4.4|9=59|35=0|34=2|49=013|50=013B17|52=20190704-16:33:09.469|56=EXC|10=064|
8=FIX.4.4|9=0049|35=0|34=3|49=EXC|56=013|52=20190704-16:39:32.000|10=174|
8=FIX.4.4|9=59|35=0|34=3|49=013|50=013B17|52=20190704-16:33:39.461|56=EXC|10=060|
8=FIX.4.4|9=110|35=A|34=1|49=013|50=013B17|52=20190704-19:13:15.289|56=EXC|43=Y|98=0|108=30|141=Y|553=013FCM001|554=013FCM001|10=099|
8=FIX.4.4|9=0067|35=A|34=1|49=EXC|56=013|52=20190704-19:19:09.561|98=0|108=30|141=Y|10=020|
8=FIX.4.4|9=0049|35=0|34=2|49=EXC|56=013|52=20190704-19:19:39.000|10=181|
8=FIX.4.4|9=59|35=0|34=2|49=013|50=013B17|52=20190704-19:13:46.195|56=EXC|10=062|
8=FIX.4.4|9=0049|35=0|34=3|49=EXC|56=013|52=20190704-19:20:09.000|10=171|
8=FIX.4.4|9=59|35=0|34=3|49=013|50=013B17|52=20190704-19:14:16.198|56=EXC|10=064|
8=FIX.4.4|9=110|35=A|34=1|49=013|50=013B17|52=20190704-21:29:09.982|56=EXC|43=Y|98=0|108=30|141=Y|553=013FCM001|554=013FCM001|10=102|
8=FIX.4.4|9=0067|35=A|34=1|49=EXC|56=013|52=20190704-21:35:04.346|98=0|108=30|141=Y|10=007|
8=FIX.4.4|9=0049|35=0|34=2|49=EXC|56=013|52=20190704-21:35:34.000|10=167|
8=FIX.4.4|9=59|35=0|34=2|49=013|50=013B17|52=20190704-21:29:40.878|56=EXC|10=064|
8=FIX.4.4|9=0049|35=0|34=3|49=EXC|56=013|52=20190704-21:36:04.000|10=166|
8=FIX.4.4|9=59|35=0|34=3|49=013|50=013B17|52=20190704-21:30:10.883|56=EXC|10=050|
8=FIX.4.4|9=0049|35=0|34=4|49=EXC|56=013|52=20190704-21:36:34.000|10=170|
8=FIX.4.4|9=59|35=0|34=4|49=013|50=013B17|52=20190704-21:30:40.890|56=EXC|10=052|
8=FIX.4.4|9=110|35=A|34=1|49=013|50=013B17|52=20190704-21:55:00.616|56=EXC|43=Y|98=0|108=30|141=Y|553=013FCM001|554=013FCM001|10=086|
8=FIX.4.4|9=0067|35=A|34=1|49=EXC|56=013|52=20190704-22:00:55.003|98=0|108=30|141=Y|10=252|
8=FIX.4.4|9=0049|35=0|34=2|49=EXC|56=013|52=20190704-22:01:25.000|10=161|
8=FIX.4.4|9=59|35=0|34=2|49=013|50=013B17|52=20190704-21:55:30.637|56=EXC|10=055|
8=FIX.4.4|9=0049|35=0|34=3|49=EXC|56=013|52=20190704-22:01:55.000|10=165|
8=FIX.4.4|9=59|35=0|34=3|49=013|50=013B17|52=20190704-21:56:00.649|56=EXC|10=057|
8=FIX.4.4|9=110|35=A|34=1|49=013|50=013B17|52=20190705-15:23:21.419|56=EXC|43=Y|98=0|108=30|141=Y|553=013FCM001|554=013FCM001|10=089|
8=FIX.4.4|9=0067|35=A|34=1|49=EXC|56=013|52=20190705-15:29:16.478|98=0|108=30|141=Y|10=023|
8=FIX.4.4|9=0049|35=0|34=2|49=EXC|56=013|52=20190705-15:29:46.000|10=177|
8=FIX.4.4|9=59|35=0|34=2|49=013|50=013B17|52=20190705-15:23:52.344|56=EXC|10=053|
8=FIX.4.4|9=110|35=A|34=1|49=013|50=013B17|52=20190705-15:24:40.975|56=EXC|43=Y|98=0|108=30|141=Y|553=013FCM001|554=013FCM001|10=098|
8=FIX.4.4|9=0067|35=A|34=1|49=EXC|56=013|52=20190705-15:30:36.039|98=0|108=30|141=Y|10=010|
8=FIX.4.4|9=0049|35=0|34=2|49=EXC|56=013|52=20190705-15:31:06.000|10=166|
8=FIX.4.4|9=59|35=0|34=2|49=013|50=013B17|52=20190705-15:25:11.797|56=EXC|10=062|
8=FIX.4.4|9=0049|35=0|34=3|49=EXC|56=013|52=20190705-15:31:36.000|10=170|
8=FIX.4.4|9=59|35=0|34=3|49=013|50=013B17|52=20190705-15:25:41.790|56=EXC|10=059|
8=FIX.4.4|9=110|35=A|34=1|49=013|50=013B17|52=20190705-15:28:38.451|56=EXC|43=Y|98=0|108=30|141=Y|553=013FCM001|554=013FCM001|10=098|
8=FIX.4.4|9=0067|35=A|34=1|49=EXC|56=013|52=20190705-15:34:33.516|98=0|108=30|141=Y|10=011|
8=FIX.4.4|9=0049|35=0|34=2|49=EXC|56=013|52=20190705-15:35:03.000|10=167|
8=FIX.4.4|9=59|35=0|34=2|49=013|50=013B17|52=20190705-15:29:09.374|56=EXC|10=064|
8=FIX.4.4|9=0049|35=0|34=3|49=EXC|56=013|52=20190705-15:35:33.000|10=171|
8=FIX.4.4|9=59|35=0|34=3|49=013|50=013B17|52=20190705-15:29:39.378|56=EXC|10=072|
8=FIX.4.4|9=110|35=A|34=1|49=013|50=013B17|52=20190705-16:02:51.524|56=EXC|43=Y|98=0|108=30|141=Y|553=013FCM001|554=013FCM001|10=087|
8=FIX.4.4|9=0067|35=A|34=1|49=EXC|56=013|52=20190705-16:08:46.613|98=0|108=30|141=Y|10=015|
8=FIX.4.4|9=0049|35=0|34=2|49=EXC|56=013|52=20190705-16:09:16.000|10=173|
8=FIX.4.4|9=59|35=0|34=2|49=013|50=013B17|52=20190705-16:03:22.492|56=EXC|10=053|
8=FIX.4.4|9=0049|35=0|34=3|49=EXC|56=013|52=20190705-16:09:46.000|10=177|
8=FIX.4.4|9=59|35=0|34=3|49=013|50=013B17|52=20190705-16:03:52.483|56=EXC|10=057|
8=FIX.4.4|9=110|35=A|34=1|49=013|50=013B17|52=20190705-16:04:44.458|56=EXC|43=Y|98=0|108=30|141=Y|553=013FCM001|554=013FCM001|10=097|
8=FIX.4.4|9=0067|35=A|34=1|49=EXC|56=013|52=20190705-16:10:39.553|98=0|108=30|141=Y|10=013|
8=FIX.4.4|9=0049|35=0|34=2|49=EXC|56=013|52=20190705-16:11:09.000|10=168|
8=FIX.4.4|9=59|35=0|34=2|49=013|50=013B17|52=20190705-16:05:15.443|56=EXC|10=053|
8=FIX.4.4|9=0049|35=0|34=3|49=EXC|56=013|52=20190705-16:11:39.000|10=172|
8=FIX.4.4|9=59|35=0|34=3|49=013|50=013B17|52=20190705-16:05:45.444|56=EXC|10=058|
8=FIX.4.4|9=110|35=A|34=1|49=013|50=013B17|52=20190705-16:38:08.512|56=EXC|43=Y|98=0|108=30|141=Y|553=013FCM001|554=013FCM001|10=095|
8=FIX.4.4|9=0067|35=A|34=1|49=EXC|56=013|52=20190705-16:44:03.624|98=0|108=30|141=Y|10=010|
8=FIX.4.4|9=0049|35=0|34=2|49=EXC|56=013|52=20190705-16:44:33.000|10=171|
8=FIX.4.4|9=59|35=0|34=2|49=013|50=013B17|52=20190705-16:38:39.402|56=EXC|10=060|
8=FIX.4.4|9=0049|35=0|34=3|49=EXC|56=013|52=20190705-16:45:03.000|10=170|
8=FIX.4.4|9=59|35=0|34=3|49=013|50=013B17|52=20190705-16:39:09.396|56=EXC|10=071|
8=FIX.4.4|9=0049|35=0|34=4|49=EXC|56=013|52=20190705-16:45:33.000|10=174|
8=FIX.4.4|9=59|35=0|34=4|49=013|50=013B17|52=20190705-16:39:39.419|56=EXC|10=071|
8=FIX.4.4|9=0049|35=0|34=5|49=EXC|56=013|52=20190705-16:46:03.000|10=173|
8=FIX.4.4|9=59|35=0|34=5|49=013|50=013B17|52=20190705-16:40:10.397|56=EXC|10=058|
8=FIX.4.4|9=110|35=A|34=1|49=013|50=013B17|52=20190705-16:44:28.527|56=EXC|43=Y|98=0|108=30|141=Y|553=013FCM001|554=013FCM001|10=100|
8=FIX.4.4|9=0067|35=A|34=1|49=EXC|56=013|52=20190705-16:50:23.670|98=0|108=30|141=Y|10=010|
8=FIX.4.4|9=0049|35=0|34=2|49=EXC|56=013|52=20190705-16:50:53.000|10=170|
8=FIX.4.4|9=59|35=0|34=2|49=013|50=013B17|52=20190705-16:44:59.334|56=EXC|10=063|
8=FIX.4.4|9=0049|35=0|34=3|49=EXC|56=013|52=20190705-16:51:23.000|10=169|
8=FIX.4.4|9=59|35=0|34=3|49=013|50=013B17|52=20190705-16:45:29.334|56=EXC|10=062|
8=FIX.4.4|9=0049|35=0|34=4|49=EXC|56=013|52=20190705-16:51:53.000|10=173|
8=FIX.4.4|9=59|35=0|34=4|49=013|50=013B17|52=20190705-16:45:59.364|56=EXC|10=069|
8=FIX.4.4|9=0049|35=0|34=5|49=EXC|56=013|52=20190705-16:52:23.000|10=172|
8=FIX.4.4|9=59|35=0|34=5|49=013|50=013B17|52=20190705-16:46:30.335|56=EXC|10=058|
8=FIX.4.4|9=0049|35=0|34=6|49=EXC|56=013|52=20190705-16:52:53.000|10=176|
8=FIX.4.4|9=59|35=0|34=6|49=013|50=013B17|52=20190705-16:47:00.346|56=EXC|10=059|
8=FIX.4.4|9=0049|35=0|34=7|49=EXC|56=013|52=20190705-16:53:23.000|10=175|
8=FIX.4.4|9=59|35=0|34=7|49=013|50=013B17|52=20190705-16:47:30.347|56=EXC|10=064|
8=FIX.4.4|9=110|35=A|34=1|49=013|50=013B17|52=20190705-16:51:15.197|56=EXC|43=Y|98=0|108=30|141=Y|553=013FCM001|554=013FCM001|10=097|
8=FIX.4.4|9=0067|35=A|34=1|49=EXC|56=013|52=20190705-16:57:10.313|98=0|108=30|141=Y|10=007|
8=FIX.4.4|9=0049|35=0|34=2|49=EXC|56=013|52=20190705-16:57:40.000|10=173|
8=FIX.4.4|9=59|35=0|34=2|49=013|50=013B17|52=20190705-16:51:46.035|56=EXC|10=055|
8=FIX.4.4|9=0049|35=0|34=3|49=EXC|56=013|52=20190705-16:58:10.000|10=172|
8=FIX.4.4|9=59|35=0|34=3|49=013|50=013B17|52=20190705-16:52:16.041|56=EXC|10=051|
8=FIX.4.4|9=0049|35=0|34=4|49=EXC|56=013|52=20190705-16:58:40.000|10=176|
8=FIX.4.4|9=59|35=0|34=4|49=013|50=013B17|52=20190705-16:52:46.047|56=EXC|10=061|
8=FIX.4.4|9=110|35=A|34=1|49=013|50=013B17|52=20190705-16:54:04.236|56=EXC|43=Y|98=0|108=30|141=Y|553=013FCM001|554=013FCM001|10=092|
8=FIX.4.4|9=0067|35=A|34=1|49=EXC|56=013|52=20190705-16:59:59.360|98=0|108=30|141=Y|10=024|
8=FIX.4.4|9=0049|35=0|34=2|49=EXC|56=013|52=20190705-17:00:29.000|10=169|
8=FIX.4.4|9=59|35=0|34=2|49=013|50=013B17|52=20190705-16:54:35.157|56=EXC|10=061|
8=FIX.4.4|9=0049|35=0|34=3|49=EXC|56=013|52=20190705-17:00:59.000|10=173|
8=FIX.4.4|9=59|35=0|34=3|49=013|50=013B17|52=20190705-16:55:05.169|56=EXC|10=063|
8=FIX.4.4|9=0049|35=0|34=4|49=EXC|56=013|52=20190705-17:01:29.000|10=172|
8=FIX.4.4|9=59|35=0|34=4|49=013|50=013B17|52=20190705-16:55:35.170|56=EXC|10=059|
8=FIX.4.4|9=110|35=A|34=1|49=013|50=013B17|52=20190705-19:47:05.152|56=EXC|43=Y|98=0|108=30|141=Y|553=013FCM001|554=013FCM001|10=095|
8=FIX.4.4|9=0067|35=A|34=1|49=EXC|56=013|52=20190705-19:53:00.395|98=0|108=30|141=Y|10=015|
8=FIX.4.4|9=0049|35=0|34=2|49=EXC|56=013|52=20190705-19:53:30.000|10=171|
8=FIX.4.4|9=59|35=0|34=2|49=013|50=013B17|52=20190705-19:47:36.059|56=EXC|10=068|
8=FIX.4.4|9=0049|35=0|34=3|49=EXC|56=013|52=20190705-19:54:00.000|10=170|
8=FIX.4.4|9=59|35=0|34=3|49=013|50=013B17|52=20190705-19:48:06.056|56=EXC|10=064|
8=FIX.4.4|9=0049|35=0|34=4|49=EXC|56=013|52=20190705-19:54:30.000|10=174|
8=FIX.4.4|9=59|35=0|34=4|49=013|50=013B17|52=20190705-19:48:36.055|56=EXC|10=067|
8=FIX.4.4|9=110|35=A|34=1|49=013|50=013B17|52=20190705-20:28:23.125|56=EXC|43=Y|98=0|108=30|141=Y|553=013FCM001|554=013FCM001|10=086|
8=FIX.4.4|9=0067|35=A|34=1|49=EXC|56=013|52=20190705-20:34:18.417|98=0|108=30|141=Y|10=010|
8=FIX.4.4|9=0049|35=0|34=2|49=EXC|56=013|52=20190705-20:34:48.000|10=171|
8=FIX.4.4|9=59|35=0|34=2|49=013|50=013B17|52=20190705-20:28:54.033|56=EXC|10=051|
8=FIX.4.4|9=0049|35=0|34=3|49=EXC|56=013|52=20190705-20:35:18.000|10=170|
8=FIX.4.4|9=59|35=0|34=3|49=013|50=013B17|52=20190705-20:29:24.033|56=EXC|10=050|
8=FIX.4.4|9=110|35=A|34=1|49=013|50=013B17|52=20190705-20:35:48.299|56=EXC|43=Y|98=0|108=30|141=Y|553=013FCM001|554=013FCM001|10=103|
8=FIX.4.4|9=0067|35=A|34=1|49=EXC|56=013|52=20190705-20:41:43.576|98=0|108=30|141=Y|10=012|
8=FIX.4.4|9=0049|35=0|34=2|49=EXC|56=013|52=20190705-20:42:13.000|10=162|
8=FIX.4.4|9=59|35=0|34=2|49=013|50=013B17|52=20190705-20:36:19.169|56=EXC|10=061|
8=FIX.4.4|9=0049|35=0|34=3|49=EXC|56=013|52=20190705-20:42:43.000|10=166|
8=FIX.4.4|9=59|35=0|34=3|49=013|50=013B17|52=20190705-20:36:49.171|56=EXC|10=058|
8=FIX.4.4|9=0049|35=0|34=4|49=EXC|56=013|52=20190705-20:43:13.000|10=165|
8=FIX.4.4|9=59|35=0|34=4|49=013|50=013B17|52=20190705-20:37:19.164|56=EXC|10=059|
8=FIX.4.4|9=110|35=A|34=1|49=013|50=013B17|52=20190705-20:40:31.151|56=EXC|43=Y|98=0|108=30|141=Y|553=013FCM001|554=013FCM001|10=078|
8=FIX.4.4|9=0067|35=A|34=1|49=EXC|56=013|52=20190705-20:46:26.433|98=0|108=30|141=Y|10=010|
8=FIX.4.4|9=0049|35=0|34=2|49=EXC|56=013|52=20190705-20:46:56.000|10=173|
8=FIX.4.4|9=59|35=0|34=2|49=013|50=013B17|52=20190705-20:41:01.948|56=EXC|10=053|
8=FIX.4.4|9=110|35=A|34=1|49=013|50=013B17|52=20190705-20:41:56.828|56=EXC|43=Y|98=0|108=30|141=Y|553=013FCM001|554=013FCM001|10=097|
8=FIX.4.4|9=0067|35=A|34=1|49=EXC|56=013|52=20190705-20:47:52.104|98=0|108=30|141=Y|10=005|
8=FIX.4.4|9=0049|35=0|34=2|49=EXC|56=013|52=20190705-20:48:22.000|10=168|
8=FIX.4.4|9=59|35=0|34=2|49=013|50=013B17|52=20190705-20:42:27.772|56=EXC|10=057|
8=FIX.4.4|9=0049|35=0|34=3|49=EXC|56=013|52=20190705-20:48:52.000|10=172|
8=FIX.4.4|9=59|35=0|34=3|49=013|50=013B17|52=20190705-20:42:57.772|56=EXC|10=061|
8=FIX.4.4|9=110|35=A|34=1|49=013|50=013B17|52=20190705-20:44:31.716|56=EXC|43=Y|98=0|108=30|141=Y|553=013FCM001|554=013FCM001|10=089|
8=FIX.4.4|9=0067|35=A|34=1|49=EXC|56=013|52=20190705-20:50:27.010|98=0|108=30|141=Y|10=253|
8=FIX.4.4|9=0049|35=0|34=2|49=EXC|56=013|52=20190705-20:50:57.000|10=169|
8=FIX.4.4|9=59|35=0|34=2|49=013|50=013B17|52=20190705-20:45:01.755|56=EXC|10=053|
8=FIX.4.4|9=0049|35=0|34=3|49=EXC|56=013|52=20190705-20:51:27.000|10=168|
8=FIX.4.4|9=59|35=0|34=3|49=013|50=013B17|52=20190705-20:45:32.673|56=EXC|10=057|
8=FIX.4.4|9=0049|35=0|34=4|49=EXC|56=013|52=20190705-20:51:57.000|10=172|
8=FIX.4.4|9=59|35=0|34=4|49=013|50=013B17|52=20190705-20:46:02.667|56=EXC|10=059|
8=FIX.4.4|9=110|35=A|34=1|49=013|50=013B17|52=20190709-15:58:00.121|56=EXC|43=Y|98=0|108=30|141=Y|553=013FCM001|554=013FCM001|10=088|
8=FIX.4.4|9=0067|35=A|34=1|49=EXC|56=013|52=20190710-16:03:58.857|98=0|108=30|141=Y|10=019|
8=FIX.4.4|9=0049|35=0|34=2|49=EXC|56=013|52=20190710-16:04:28.000|10=167|
8=FIX.4.4|9=59|35=0|34=2|49=013|50=013B17|52=20190709-15:58:31.050|56=EXC|10=056|
8=FIX.4.4|9=0049|35=0|34=3|49=EXC|56=013|52=20190710-16:04:58.000|10=171|
8=FIX.4.4|9=59|35=0|34=3|49=013|50=013B17|52=20190709-15:59:01.044|56=EXC|10=058|
8=FIX.4.4|9=110|35=A|34=1|49=013|50=013B17|52=20190709-16:47:22.320|56=EXC|43=Y|98=0|108=30|141=Y|553=013FCM001|554=013FCM001|10=092|
8=FIX.4.4|9=0067|35=A|34=1|49=EXC|56=013|52=20190710-16:53:21.074|98=0|108=30|141=Y|10=005|
8=FIX.4.4|9=0049|35=0|34=2|49=EXC|56=013|52=20190710-16:53:51.000|10=167|
8=FIX.4.4|9=59|35=0|34=2|49=013|50=013B17|52=20190709-16:47:53.309|56=EXC|10=066|
8=FIX.4.4|9=0049|35=0|34=3|49=EXC|56=013|52=20190710-16:54:21.000|10=166|
8=FIX.4.4|9=59|35=0|34=3|49=013|50=013B17|52=20190709-16:48:23.314|56=EXC|10=061|
8=FIX.4.4|9=110|35=A|34=1|49=013|50=013B17|52=20190709-19:18:47.019|56=EXC|43=Y|98=0|108=30|141=Y|553=013FCM001|554=013FCM001|10=105|
8=FIX.4.4|9=0067|35=A|34=1|49=EXC|56=013|52=20190710-19:24:45.889|98=0|108=30|141=Y|10=026|
8=FIX.4.4|9=0049|35=0|34=2|49=EXC|56=013|52=20190710-19:25:15.000|10=169|
8=FIX.4.4|9=59|35=0|34=2|49=013|50=013B17|52=20190709-19:19:17.829|56=EXC|10=075|
8=FIX.4.4|9=0049|35=0|34=3|49=EXC|56=013|52=20190710-19:25:45.000|10=173|
8=FIX.4.4|9=59|35=0|34=3|49=013|50=013B17|52=20190709-19:19:47.826|56=EXC|10=076|
8=FIX.4.4|9=110|35=A|34=1|49=013|50=013B17|52=20190709-19:48:39.494|56=EXC|43=Y|98=0|108=30|141=Y|553=013FCM001|554=013FCM001|10=116|
8=FIX.4.4|9=0067|35=A|34=1|49=EXC|56=013|52=20190710-19:54:38.386|98=0|108=30|141=Y|10=023|
8=FIX.4.4|9=0049|35=0|34=2|49=EXC|56=013|52=20190710-19:55:08.000|10=174|
8=FIX.4.4|9=59|35=0|34=2|49=013|50=013B17|52=20190709-19:49:10.267|56=EXC|10=067|
8=FIX.4.4|9=0049|35=0|34=3|49=EXC|56=013|52=20190710-19:55:38.000|10=178|
8=FIX.4.4|9=59|35=0|34=3|49=013|50=013B17|52=20190709-19:49:40.259|56=EXC|10=072|
8=FIX.4.4|9=0049|35=0|34=4|49=EXC|56=013|52=20190710-19:56:08.000|10=177|
8=FIX.4.4|9=59|35=0|34=4|49=013|50=013B17|52=20190709-19:50:10.262|56=EXC|10=056|
8=FIX.4.4|9=110|35=A|34=1|49=013|50=013B17|52=20190709-19:51:37.322|56=EXC|43=Y|98=0|108=30|141=Y|553=013FCM001|554=013FCM001|10=098|
8=FIX.4.4|9=0067|35=A|34=1|49=EXC|56=013|52=20190710-19:57:36.220|98=0|108=30|141=Y|10=011|
8=FIX.4.4|9=0049|35=0|34=2|49=EXC|56=013|52=20190710-19:58:06.000|10=175|
8=FIX.4.4|9=59|35=0|34=2|49=013|50=013B17|52=20190709-19:52:08.216|56=EXC|10=062|
8=FIX.4.4|9=0049|35=0|34=3|49=EXC|56=013|52=20190710-19:58:36.000|10=179|
8=FIX.4.4|9=59|35=0|34=3|49=013|50=013B17|52=20190709-19:52:38.215|56=EXC|10=065|
8=FIX.4.4|9=110|35=A|34=1|49=013|50=013B17|52=20190709-19:53:31.674|56=EXC|43=Y|98=0|108=30|141=Y|553=013FCM001|554=013FCM001|10=104|
8=FIX.4.4|9=0067|35=A|34=1|49=EXC|56=013|52=20190710-19:59:30.564|98=0|108=30|141=Y|10=018|
8=FIX.4.4|9=0049|35=0|34=2|49=EXC|56=013|52=20190710-20:00:00.000|10=148|
8=FIX.4.4|9=59|35=0|34=2|49=013|50=013B17|52=20190709-19:54:02.543|56=EXC|10=061|
8=FIX.4.4|9=0049|35=0|34=3|49=EXC|56=013|52=20190710-20:00:30.000|10=152|
8=FIX.4.4|9=59|35=0|34=3|49=013|50=013B17|52=20190709-19:54:32.541|56=EXC|10=063|
8=FIX.4.4|9=110|35=A|34=1|49=013|50=013B17|52=20190709-20:02:07.148|56=EXC|43=Y|98=0|108=30|141=Y|553=013FCM001|554=013FCM001|10=089|
8=FIX.4.4|9=0067|35=A|34=1|49=EXC|56=013|52=20190710-20:08:06.065|98=0|108=30|141=Y|10=003|
8=FIX.4.4|9=0049|35=0|34=2|49=EXC|56=013|52=20190710-20:08:36.000|10=165|
8=FIX.4.4|9=59|35=0|34=2|49=013|50=013B17|52=20190709-20:02:38.040|56=EXC|10=047|
8=FIX.4.4|9=0049|35=0|34=3|49=EXC|56=013|52=20190710-20:09:06.000|10=164|
8=FIX.4.4|9=59|35=0|34=3|49=013|50=013B17|52=20190709-20:03:08.063|56=EXC|10=051|
8=FIX.4.4|9=110|35=A|34=1|49=013|50=013B17|52=20190709-20:30:11.168|56=EXC|43=Y|98=0|108=30|141=Y|553=013FCM001|554=013FCM001|10=087|
8=FIX.4.4|9=0067|35=A|34=1|49=EXC|56=013|52=20190710-20:36:10.272|98=0|108=30|141=Y|10=255|
8=FIX.4.4|9=0049|35=0|34=2|49=EXC|56=013|52=20190710-20:36:40.000|10=161|
8=FIX.4.4|9=59|35=0|34=2|49=013|50=013B17|52=20190709-20:30:41.972|56=EXC|10=056|
8=FIX.4.4|9=0049|35=0|34=3|49=EXC|56=013|52=20190710-20:37:10.000|10=160|
8=FIX.4.4|9=59|35=0|34=3|49=013|50=013B17|52=20190709-20:31:11.966|56=EXC|10=058|
8=FIX.4.4|9=110|35=A|34=1|49=013|50=013B17|52=20190709-20:41:32.593|56=EXC|43=Y|98=0|108=30|141=Y|553=013FCM001|554=013FCM001|10=094|
8=FIX.4.4|9=0067|35=A|34=1|49=EXC|56=013|52=20190710-20:47:31.529|98=0|108=30|141=Y|10=009|
8=FIX.4.4|9=0049|35=0|34=2|49=EXC|56=013|52=20190710-20:48:01.000|10=161|
8=FIX.4.4|9=59|35=0|34=2|49=013|50=013B17|52=20190709-20:42:03.527|56=EXC|10=053|
8=FIX.4.4|9=0049|35=0|34=3|49=EXC|56=013|52=20190710-20:48:31.000|10=165|
8=FIX.4.4|9=59|35=0|34=3|49=013|50=013B17|52=20190709-20:42:33.532|56=EXC|10=053|
8=FIX.4.4|9=0049|35=0|34=4|49=EXC|56=013|52=20190710-20:49:01.000|10=164|
8=FIX.4.4|9=59|35=0|34=4|49=013|50=013B17|52=20190709-20:43:03.525|56=EXC|10=054|
8=FIX.4.4|9=110|35=A|34=1|49=013|50=013B17|52=20190709-20:50:25.380|56=EXC|43=Y|98=0|108=30|141=Y|553=013FCM001|554=013FCM001|10=090|
8=FIX.4.4|9=0067|35=A|34=1|49=EXC|56=013|52=20190710-20:56:24.320|98=0|108=30|141=Y|10=000|
8=FIX.4.4|9=0049|35=0|34=2|49=EXC|56=013|52=20190710-20:56:54.000|10=168|
8=FIX.4.4|9=59|35=0|34=2|49=013|50=013B17|52=20190709-20:50:56.367|56=EXC|10=062|
8=FIX.4.4|9=0049|35=0|34=3|49=EXC|56=013|52=20190710-20:57:24.000|10=167|
8=FIX.4.4|9=59|35=0|34=3|49=013|50=013B17|52=20190709-20:51:26.377|56=EXC|10=062|
8=FIX.4.4|9=0049|35=0|34=4|49=EXC|56=013|52=20190710-20:57:54.000|10=171|
8=FIX.4.4|9=59|35=0|34=4|49=013|50=013B17|52=20190709-20:51:56.378|56=EXC|10=067|
8=FIX.4.4|9=110|35=A|34=1|49=013|50=013B17|52=20190709-20:52:59.439|56=EXC|43=Y|98=0|108=30|141=Y|553=013FCM001|554=013FCM001|10=104|
8=FIX.4.4|9=0067|35=A|34=1|49=EXC|56=013|52=20190710-20:58:58.486|98=0|108=30|141=Y|10=022|
8=FIX.4.4|9=0049|35=0|34=2|49=EXC|56=013|52=20190710-20:59:28.000|10=172|
8=FIX.4.4|9=59|35=0|34=2|49=013|50=013B17|52=20190709-20:53:30.286|56=EXC|10=057|
8=FIX.4.4|9=0049|35=0|34=3|49=EXC|56=013|52=20190710-20:59:58.000|10=176|
8=FIX.4.4|9=59|35=0|34=3|49=013|50=013B17|52=20190709-20:54:00.287|56=EXC|10=057|
8=FIX.4.4|9=110|35=A|34=1|49=013|50=013B17|52=20190709-20:56:22.842|56=EXC|43=Y|98=0|108=30|141=Y|553=013FCM001|554=013FCM001|10=096|
8=FIX.4.4|9=0067|35=A|34=1|49=EXC|56=013|52=20190710-21:02:21.875|98=0|108=30|141=Y|10=004|
8=FIX.4.4|9=0049|35=0|34=2|49=EXC|56=013|52=20190710-21:02:51.000|10=157|
8=FIX.4.4|9=59|35=0|34=2|49=013|50=013B17|52=20190709-20:56:53.706|56=EXC|10=062|
8=FIX.4.4|9=0049|35=0|34=3|49=EXC|56=013|52=20190710-21:03:21.000|10=156|
8=FIX.4.4|9=59|35=0|34=3|49=013|50=013B17|52=20190709-20:57:24.694|56=EXC|10=068|
8=FIX.4.4|9=110|35=A|34=1|49=013|50=013B17|52=20190709-20:59:39.963|56=EXC|43=Y|98=0|108=30|141=Y|553=013FCM001|554=013FCM001|10=111|
8=FIX.4.4|9=0067|35=A|34=1|49=EXC|56=013|52=20190710-21:05:38.909|98=0|108=30|141=Y|10=013|
8=FIX.4.4|9=0049|35=0|34=2|49=EXC|56=013|52=20190710-21:06:08.000|10=163|
8=FIX.4.4|9=59|35=0|34=2|49=013|50=013B17|52=20190709-21:00:10.723|56=EXC|10=044|
8=FIX.4.4|9=0049|35=0|34=3|49=EXC|56=013|52=20190710-21:06:38.000|10=167|
8=FIX.4.4|9=59|35=0|34=3|49=013|50=013B17|52=20190709-21:00:40.719|56=EXC|10=053|
8=FIX.4.4|9=110|35=A|34=1|49=013|50=013B17|52=20190709-21:02:35.696|56=EXC|43=Y|98=0|108=30|141=Y|553=013FCM001|554=013FCM001|10=099|
8=FIX.4.4|9=0067|35=A|34=1|49=EXC|56=013|52=20190710-21:08:34.657|98=0|108=30|141=Y|10=012|
8=FIX.4.4|9=0049|35=0|34=2|49=EXC|56=013|52=20190710-21:09:04.000|10=162|
8=FIX.4.4|9=59|35=0|34=2|49=013|50=013B17|52=20190709-21:03:06.544|56=EXC|10=053|
8=FIX.4.4|9=0049|35=0|34=3|49=EXC|56=013|52=20190710-21:09:34.000|10=166|
8=FIX.4.4|9=59|35=0|34=3|49=013|50=013B17|52=20190709-21:03:36.548|56=EXC|10=061|
8=FIX.4.4|9=110|35=A|34=1|49=013|50=013B17|52=20190709-21:06:22.470|56=EXC|43=Y|98=0|108=30|141=Y|553=013FCM001|554=013FCM001|10=089|
8=FIX.4.4|9=0067|35=A|34=1|49=EXC|56=013|52=20190710-21:12:21.426|98=0|108=30|141=Y|10=253|
8=FIX.4.4|9=0049|35=0|34=2|49=EXC|56=013|52=20190710-21:12:51.000|10=158|
8=FIX.4.4|9=59|35=0|34=2|49=013|50=013B17|52=20190709-21:06:53.276|56=EXC|10=060|
8=FIX.4.4|9=0049|35=0|34=3|49=EXC|56=013|52=20190710-21:13:21.000|10=157|
8=FIX.4.4|9=59|35=0|34=3|49=013|50=013B17|52=20190709-21:07:23.281|56=EXC|10=055|
8=FIX.4.4|9=0049|35=0|34=4|49=EXC|56=013|52=20190710-21:13:51.000|10=161|
8=FIX.4.4|9=110|35=A|34=1|49=013|50=013B17|52=20190709-21:10:36.437|56=EXC|43=Y|98=0|108=30|141=Y|553=013FCM001|554=013FCM001|10=092|
8=FIX.4.4|9=0067|35=A|34=1|49=EXC|56=013|52=20190710-21:16:35.391|98=0|108=30|141=Y|10=007|
8=FIX.4.4|9=0049|35=0|34=2|49=EXC|56=013|52=20190710-21:17:05.000|10=162|
8=FIX.4.4|9=59|35=0|34=2|49=013|50=013B17|52=20190709-21:11:07.338|56=EXC|10=054|
8=FIX.4.4|9=0049|35=0|34=3|49=EXC|56=013|52=20190710-21:17:35.000|10=166|
8=FIX.4.4|9=59|35=0|34=3|49=013|50=013B17|52=20190709-21:11:37.336|56=EXC|10=056|
8=FIX.4.4|9=110|35=A|34=1|49=013|50=013B17|52=20190709-21:12:43.080|56=EXC|43=Y|98=0|108=30|141=Y|553=013FCM001|554=013FCM001|10=086|
8=FIX.4.4|9=0067|35=A|34=1|49=EXC|56=013|52=20190710-21:18:42.036|98=0|108=30|141=Y|10=003|
8=FIX.4.4|9=0049|35=0|34=2|49=EXC|56=013|52=20190710-21:19:12.000|10=162|
8=FIX.4.4|9=59|35=0|34=2|49=013|50=013B17|52=20190709-21:13:13.078|56=EXC|10=054|
8=FIX.4.4|9=0049|35=0|34=3|49=EXC|56=013|52=20190710-21:19:42.000|10=166|
8=FIX.4.4|9=59|35=0|34=3|49=013|50=013B17|52=20190709-21:13:43.077|56=EXC|10=057|
8=FIX.4.4|9=0049|35=0|34=4|49=EXC|56=013|52=20190710-21:20:12.000|10=156|
8=FIX.4.4|9=110|35=A|34=1|49=013|50=013B17|52=20190709-21:27:34.148|56=EXC|43=Y|98=0|108=30|141=Y|553=013FCM001|554=013FCM001|10=097|
8=FIX.4.4|9=0067|35=A|34=1|49=EXC|56=013|52=20190710-21:33:33.115|98=0|108=30|141=Y|10=254|
8=FIX.4.4|9=0049|35=0|34=2|49=EXC|56=013|52=20190710-21:34:03.000|10=159|
8=FIX.4.4|9=59|35=0|34=2|49=013|50=013B17|52=20190709-21:28:05.114|56=EXC|10=052|
8=FIX.4.4|9=110|35=A|34=1|49=013|50=013B17|52=20190709-21:29:02.728|56=EXC|43=Y|98=0|108=30|141=Y|553=013FCM001|554=013FCM001|10=098|
8=FIX.4.4|9=0067|35=A|34=1|49=EXC|56=013|52=20190710-21:35:01.793|98=0|108=30|141=Y|10=007|
8=FIX.4.4|9=0049|35=0|34=2|49=EXC|56=013|52=20190710-21:35:31.000|10=161|
8=FIX.4.4|9=59|35=0|34=2|49=013|50=013B17|52=20190709-21:29:33.617|56=EXC|10=062|
8=FIX.4.4|9=0049|35=0|34=3|49=EXC|56=013|52=20190710-21:36:01.000|10=160|
8=FIX.4.4|9=59|35=0|34=3|49=013|50=013B17|52=20190709-21:30:03.617|56=EXC|10=052|
8=FIX.4.4|9=110|35=A|34=1|49=013|50=013B17|52=20190709-21:54:33.800|56=EXC|43=Y|98=0|108=30|141=Y|553=013FCM001|554=013FCM001|10=091|
8=FIX.4.4|9=0067|35=A|34=1|49=EXC|56=013|52=20190710-22:00:32.782|98=0|108=30|141=Y|10=002|
8=FIX.4.4|9=0049|35=0|34=2|49=EXC|56=013|52=20190710-22:01:02.000|10=153|
8=FIX.4.4|9=59|35=0|34=2|49=013|50=013B17|52=20190709-21:55:04.776|56=EXC|10=065|
8=FIX.4.4|9=0049|35=0|34=3|49=EXC|56=013|52=20190710-22:01:32.000|10=157|
8=FIX.4.4|9=59|35=0|34=3|49=013|50=013B17|52=20190709-21:55:34.776|56=EXC|10=069|
8=FIX.4.4|9=0049|35=0|34=4|49=EXC|56=013|52=20190710-22:02:02.000|10=156|
8=FIX.4.4|9=59|35=0|34=4|49=013|50=013B17|52=20190709-21:56:04.775|56=EXC|10=067|
8=FIX.4.4|9=110|35=A|34=1|49=013|50=013B17|52=20190709-22:10:35.038|56=EXC|43=Y|98=0|108=30|141=Y|553=013FCM001|554=013FCM001|10=089|
8=FIX.4.4|9=0067|35=A|34=1|49=EXC|56=013|52=20190710-22:16:34.031|98=0|108=30|141=Y|10=254|
8=FIX.4.4|9=0049|35=0|34=2|49=EXC|56=013|52=20190710-22:17:04.000|10=162|
8=FIX.4.4|9=59|35=0|34=2|49=013|50=013B17|52=20190709-22:11:05.858|56=EXC|10=060|
8=FIX.4.4|9=0049|35=0|34=3|49=EXC|56=013|52=20190710-22:17:34.000|10=166|
8=FIX.4.4|9=59|35=0|34=3|49=013|50=013B17|52=20190709-22:11:35.853|56=EXC|10=059|
8=FIX.4.4|9=110|35=A|34=1|49=013|50=013B17|52=20190709-22:16:13.225|56=EXC|43=Y|98=0|108=30|141=Y|553=013FCM001|554=013FCM001|10=089|
8=FIX.4.4|9=0067|35=A|34=1|49=EXC|56=013|52=20190710-22:22:12.212|98=0|108=30|141=Y|10=248|
8=FIX.4.4|9=0049|35=0|34=2|49=EXC|56=013|52=20190710-22:22:42.000|10=160|
8=FIX.4.4|9=59|35=0|34=2|49=013|50=013B17|52=20190709-22:16:44.119|56=EXC|10=058|
8=FIX.4.4|9=0049|35=0|34=3|49=EXC|56=013|52=20190710-22:23:12.000|10=159|
8=FIX.4.4|9=59|35=0|34=3|49=013|50=013B17|52=20190709-22:17:14.119|56=EXC|10=057|
8=FIX.4.4|9=0049|35=0|34=4|49=EXC|56=013|52=20190710-22:23:42.000|10=163|
8=FIX.4.4|9=59|35=0|34=4|49=013|50=013B17|52=20190709-22:17:45.106|56=EXC|10=058|
8=FIX.4.4|9=110|35=A|34=1|49=013|50=013B17|52=20190709-22:20:05.241|56=EXC|43=Y|98=0|108=30|141=Y|553=013FCM001|554=013FCM001|10=083|
8=FIX.4.4|9=0067|35=A|34=1|49=EXC|56=013|52=20190710-22:26:04.258|98=0|108=30|141=Y|10=007|
8=FIX.4.4|9=0049|35=0|34=2|49=EXC|56=013|52=20190710-22:26:34.000|10=165|
8=FIX.4.4|9=59|35=0|34=2|49=013|50=013B17|52=20190709-22:20:36.132|56=EXC|10=049|
8=FIX.4.4|9=0049|35=0|34=3|49=EXC|56=013|52=20190710-22:27:04.000|10=164|
8=FIX.4.4|9=59|35=0|34=3|49=013|50=013B17|52=20190709-22:21:06.129|56=EXC|10=054|
8=FIX.4.4|9=0049|35=0|34=4|49=EXC|56=013|52=20190710-22:27:34.000|10=168|
8=FIX.4.4|9=59|35=0|34=4|49=013|50=013B17|52=20190709-22:21:36.129|56=EXC|10=058|
8=FIX.4.4|9=110|35=A|34=1|49=013|50=013B17|52=20190709-22:59:59.849|56=EXC|43=N|98=0|108=30|141=Y|553=013FCM001|554=013FCM001|10=107|
8=FIX.4.4|9=0067|35=A|34=1|49=EXC|56=013|52=20190710-23:05:58.879|98=0|108=30|141=Y|10=023|
8=FIX.4.4|9=0049|35=0|34=2|49=EXC|56=013|52=20190710-23:06:28.000|10=167|
8=FIX.4.4|9=59|35=0|34=2|49=013|50=013B17|52=20190709-23:00:30.602|56=EXC|10=044|
8=FIX.4.4|9=0049|35=0|34=3|49=EXC|56=013|52=20190710-23:06:58.000|10=171|
8=FIX.4.4|9=59|35=0|34=3|49=013|50=013B17|52=20190709-23:01:00.612|56=EXC|10=044|
8=FIX.4.4|9=0049|35=0|34=4|49=EXC|56=013|52=20190710-23:07:28.000|10=170|
8=FIX.4.4|9=110|35=A|34=1|49=013|50=013B17|52=20190710-16:44:50.311|56=EXC|43=N|98=0|108=30|141=Y|553=013FCM001|554=013FCM001|10=071|
8=FIX.4.4|9=0067|35=A|34=1|49=EXC|56=013|52=20190711-16:50:50.162|98=0|108=30|141=Y|10=003|
8=FIX.4.4|9=0049|35=0|34=2|49=EXC|56=013|52=20190711-16:51:20.000|10=162|
8=FIX.4.4|9=59|35=0|34=2|49=013|50=013B17|52=20190710-16:45:21.298|56=EXC|10=058|
8=FIX.4.4|9=0049|35=0|34=3|49=EXC|56=013|52=20190711-16:51:50.000|10=166|
8=FIX.4.4|9=59|35=0|34=3|49=013|50=013B17|52=20190710-16:45:51.301|56=EXC|10=047|
8=FIX.4.4|9=0049|35=0|34=4|49=EXC|56=013|52=20190711-16:52:20.000|10=165|
8=FIX.4.4|9=59|35=0|34=4|49=013|50=013B17|52=20190710-16:46:21.295|56=EXC|10=058|
8=FIX.4.4|9=110|35=A|34=1|49=013|50=013B17|52=20190710-16:48:26.998|56=EXC|43=N|98=0|108=30|141=Y|553=013FCM001|554=013FCM001|10=099|
8=FIX.4.4|9=0067|35=A|34=1|49=EXC|56=013|52=20190711-16:54:26.852|98=0|108=30|141=Y|10=016|
8=FIX.4.4|9=0049|35=0|34=2|49=EXC|56=013|52=20190711-16:54:56.000|10=174|
8=FIX.4.4|9=59|35=0|34=2|49=013|50=013B17|52=20190710-16:48:57.939|56=EXC|10=072|
8=FIX.4.4|9=0049|35=0|34=3|49=EXC|56=013|52=20190711-16:55:26.000|10=173|
8=FIX.4.4|9=59|35=0|34=3|49=013|50=013B17|52=20190710-16:49:27.948|56=EXC|10=071|
8=FIX.4.4|9=0049|35=0|34=4|49=EXC|56=013|52=20190711-16:55:56.000|10=177|
8=FIX.4.4|9=59|35=0|34=4|49=013|50=013B17|52=20190710-16:49:58.954|56=EXC|10=073|
8=FIX.4.4|9=110|35=A|34=1|49=013|50=013B17|52=20190710-16:51:29.057|56=EXC|43=N|98=0|108=30|141=Y|553=013FCM001|554=013FCM001|10=082|
8=FIX.4.4|9=0067|35=A|34=1|49=EXC|56=013|52=20190711-16:57:28.900|98=0|108=30|141=Y|10=015|
8=FIX.4.4|9=0049|35=0|34=2|49=EXC|56=013|52=20190711-16:57:58.000|10=179|
8=FIX.4.4|9=59|35=0|34=2|49=013|50=013B17|52=20190710-16:51:59.835|56=EXC|10=063|
8=FIX.4.4|9=0049|35=0|34=3|49=EXC|56=013|52=20190711-16:58:28.000|10=178|
8=FIX.4.4|9=59|35=0|34=3|49=013|50=013B17|52=20190710-16:52:29.839|56=EXC|10=066|
8=FIX.4.4|9=110|35=A|34=1|49=013|50=013B17|52=20190710-22:28:09.051|56=EXC|43=N|98=0|108=30|141=Y|553=013FCM001|554=013FCM001|10=075|
8=FIX.4.4|9=0067|35=A|34=1|49=EXC|56=013|52=20190711-22:34:09.200|98=0|108=30|141=Y|10=255|
8=FIX.4.4|9=110|35=A|34=1|49=013|50=013B17|52=20190710-23:05:16.827|56=EXC|43=N|98=0|108=30|141=Y|553=013FCM001|554=013FCM001|10=080|
8=FIX.4.4|9=0067|35=A|34=1|49=EXC|56=013|52=20190711-23:11:16.982|98=0|108=30|141=Y|10=010|
8=FIX.4.4|9=0049|35=0|34=2|49=EXC|56=013|52=20190711-23:11:46.000|10=164|
8=FIX.4.4|9=59|35=0|34=2|49=013|50=013B17|52=20190710-23:05:47.502|56=EXC|10=048|
8=FIX.4.4|9=0049|35=0|34=3|49=EXC|56=013|52=20190711-23:12:16.000|10=163|
8=FIX.4.4|9=59|35=0|34=3|49=013|50=013B17|52=20190710-23:06:17.500|56=EXC|10=045|
8=FIX.4.4|9=0049|35=0|34=4|49=EXC|56=013|52=20190711-23:12:46.000|10=167|
8=FIX.4.4|9=59|35=0|34=4|49=013|50=013B17|52=20190710-23:06:47.501|56=EXC|10=050|
8=FIX.4.4|9=0049|35=0|34=5|49=EXC|56=013|52=20190711-23:13:16.000|10=166|
8=FIX.4.4|9=59|35=0|34=5|49=013|50=013B17|52=20190710-23:07:17.507|56=EXC|10=055|
8=FIX.4.4|9=0049|35=0|34=6|49=EXC|56=013|52=20190711-23:13:46.000|10=170|
8=FIX.4.4|9=59|35=0|34=6|49=013|50=013B17|52=20190710-23:07:47.500|56=EXC|10=052|
8=FIX.4.4|9=0049|35=0|34=7|49=EXC|56=013|52=20190711-23:14:16.000|10=169|
8=FIX.4.4|9=59|35=0|34=7|49=013|50=013B17|52=20190710-23:08:17.503|56=EXC|10=054|
8=FIX.4.4|9=0049|35=0|34=8|49=EXC|56=013|52=20190711-23:14:46.000|10=173|
8=FIX.4.4|9=59|35=0|34=8|49=013|50=013B17|52=20190710-23:08:47.502|56=EXC|10=057|
8=FIX.4.4|9=0049|35=0|34=9|49=EXC|56=013|52=20190711-23:15:16.000|10=172|
8=FIX.4.4|9=59|35=0|34=9|49=013|50=013B17|52=20190710-23:09:17.498|56=EXC|10=070|
8=FIX.4.4|9=0050|35=0|34=10|49=EXC|56=013|52=20190711-23:15:46.000|10=207|
8=FIX.4.4|9=60|35=0|34=10|49=013|50=013B17|52=20190710-23:09:47.509|56=EXC|10=098|
8=FIX.4.4|9=0050|35=0|34=11|49=EXC|56=013|52=20190711-23:16:16.000|10=206|
8=FIX.4.4|9=60|35=0|34=11|49=013|50=013B17|52=20190710-23:10:18.500|56=EXC|10=080|
8=FIX.4.4|9=0050|35=0|34=12|49=EXC|56=013|52=20190711-23:16:46.000|10=210|
8=FIX.4.4|9=60|35=0|34=12|49=013|50=013B17|52=20190710-23:10:48.508|56=EXC|10=092|
8=FIX.4.4|9=0050|35=0|34=13|49=EXC|56=013|52=20190711-23:17:16.000|10=209|
8=FIX.4.4|9=60|35=0|34=13|49=013|50=013B17|52=20190710-23:11:18.506|56=EXC|10=089|
8=FIX.4.4|9=0050|35=0|34=14|49=EXC|56=013|52=20190711-23:17:46.000|10=213|
8=FIX.4.4|9=60|35=0|34=14|49=013|50=013B17|52=20190710-23:11:48.498|56=EXC|10=103|
8=FIX.4.4|9=0050|35=0|34=15|49=EXC|56=013|52=20190711-23:18:16.000|10=212|
8=FIX.4.4|9=60|35=0|34=15|49=013|50=013B17|52=20190710-23:12:18.501|56=EXC|10=087|
8=FIX.4.4|9=0050|35=0|34=16|49=EXC|56=013|52=20190711-23:18:46.000|10=216|
8=FIX.4.4|9=60|35=0|34=16|49=013|50=013B17|52=20190710-23:12:48.505|56=EXC|10=095|
8=FIX.4.4|9=0050|35=0|34=17|49=EXC|56=013|52=20190711-23:19:16.000|10=215|
8=FIX.4.4|9=60|35=0|34=17|49=013|50=013B17|52=20190710-23:13:18.501|56=EXC|10=090|
8=FIX.4.4|9=0050|35=0|34=18|49=EXC|56=013|52=20190711-23:19:46.000|10=219|
8=FIX.4.4|9=60|35=0|34=18|49=013|50=013B17|52=20190710-23:13:48.512|56=EXC|10=096|
8=FIX.4.4|9=0050|35=0|34=19|49=EXC|56=013|52=20190711-23:20:16.000|10=209|
8=FIX.4.4|9=60|35=0|34=19|49=013|50=013B17|52=20190710-23:14:19.497|56=EXC|10=108|
8=FIX.4.4|9=0050|35=0|34=20|49=EXC|56=013|52=20190711-23:20:46.000|10=204|
8=FIX.4.4|9=60|35=0|34=20|49=013|50=013B17|52=20190710-23:14:49.497|56=EXC|10=103|
8=FIX.4.4|9=0050|35=0|34=21|49=EXC|56=013|52=20190711-23:21:16.000|10=203|
8=FIX.4.4|9=60|35=0|34=21|49=013|50=013B17|52=20190710-23:15:19.505|56=EXC|10=092|
8=FIX.4.4|9=0050|35=0|34=22|49=EXC|56=013|52=20190711-23:21:46.000|10=207|
8=FIX.4.4|9=60|35=0|34=22|49=013|50=013B17|52=20190710-23:15:49.502|56=EXC|10=093|
8=FIX.4.4|9=0050|35=0|34=23|49=EXC|56=013|52=20190711-23:22:16.000|10=206|
8=FIX.4.4|9=60|35=0|34=23|49=013|50=013B17|52=20190710-23:16:19.498|56=EXC|10=106|
8=FIX.4.4|9=0050|35=0|34=24|49=EXC|56=013|52=20190711-23:22:46.000|10=210|
8=FIX.4.4|9=60|35=0|34=24|49=013|50=013B17|52=20190710-23:16:49.497|56=EXC|10=109|
8=FIX.4.4|9=0050|35=0|34=25|49=EXC|56=013|52=20190711-23:23:16.000|10=209|
8=FIX.4.4|9=60|35=0|34=25|49=013|50=013B17|52=20190710-23:17:19.511|56=EXC|10=095|
8=FIX.4.4|9=0050|35=0|34=26|49=EXC|56=013|52=20190711-23:23:46.000|10=213|
8=FIX.4.4|9=60|35=0|34=26|49=013|50=013B17|52=20190710-23:17:49.510|56=EXC|10=098|
8=FIX.4.4|9=0050|35=0|34=27|49=EXC|56=013|52=20190711-23:24:16.000|10=212|
8=FIX.4.4|9=60|35=0|34=27|49=013|50=013B17|52=20190710-23:18:19.508|56=EXC|10=104|
8=FIX.4.4|9=0050|35=0|34=28|49=EXC|56=013|52=20190711-23:24:46.000|10=216|
8=FIX.4.4|9=60|35=0|34=28|49=013|50=013B17|52=20190710-23:18:49.506|56=EXC|10=106|
8=FIX.4.4|9=0050|35=0|34=29|49=EXC|56=013|52=20190711-23:25:16.000|10=215|
8=FIX.4.4|9=60|35=0|34=29|49=013|50=013B17|52=20190710-23:19:19.506|56=EXC|10=105|
8=FIX.4.4|9=0050|35=0|34=30|49=EXC|56=013|52=20190711-23:25:46.000|10=210|
8=FIX.4.4|9=60|35=0|34=30|49=013|50=013B17|52=20190710-23:19:49.501|56=EXC|10=095|
8=FIX.4.4|9=0050|35=0|34=31|49=EXC|56=013|52=20190711-23:26:16.000|10=209|
8=FIX.4.4|9=60|35=0|34=31|49=013|50=013B17|52=20190710-23:20:19.509|56=EXC|10=093|
8=FIX.4.4|9=0050|35=0|34=32|49=EXC|56=013|52=20190711-23:26:46.000|10=213|
8=FIX.4.4|9=60|35=0|34=32|49=013|50=013B17|52=20190710-23:20:49.509|56=EXC|10=097|
8=FIX.4.4|9=0050|35=0|34=33|49=EXC|56=013|52=20190711-23:27:16.000|10=212|
8=FIX.4.4|9=60|35=0|34=33|49=013|50=013B17|52=20190710-23:21:20.502|56=EXC|10=081|
8=FIX.4.4|9=0050|35=0|34=34|49=EXC|56=013|52=20190711-23:27:46.000|10=216|
8=FIX.4.4|9=60|35=0|34=34|49=013|50=013B17|52=20190710-23:21:50.503|56=EXC|10=086|
8=FIX.4.4|9=0050|35=0|34=35|49=EXC|56=013|52=20190711-23:28:16.000|10=215|
8=FIX.4.4|9=60|35=0|34=35|49=013|50=013B17|52=20190710-23:22:20.503|56=EXC|10=085|
8=FIX.4.4|9=0050|35=0|34=36|49=EXC|56=013|52=20190711-23:28:46.000|10=219|
8=FIX.4.4|9=60|35=0|34=36|49=013|50=013B17|52=20190710-23:22:50.497|56=EXC|10=101|
8=FIX.4.4|9=0050|35=0|34=37|49=EXC|56=013|52=20190711-23:29:16.000|10=218|
8=FIX.4.4|9=60|35=0|34=37|49=013|50=013B17|52=20190710-23:23:20.511|56=EXC|10=087|
8=FIX.4.4|9=0050|35=0|34=38|49=EXC|56=013|52=20190711-23:29:46.000|10=222|
8=FIX.4.4|9=60|35=0|34=38|49=013|50=013B17|52=20190710-23:23:50.509|56=EXC|10=098|
8=FIX.4.4|9=0050|35=0|34=39|49=EXC|56=013|52=20190711-23:30:16.000|10=212|
8=FIX.4.4|9=60|35=0|34=39|49=013|50=013B17|52=20190710-23:24:20.506|56=EXC|10=094|
8=FIX.4.4|9=0050|35=0|34=40|49=EXC|56=013|52=20190711-23:30:46.000|10=207|
8=FIX.4.4|9=60|35=0|34=40|49=013|50=013B17|52=20190710-23:24:50.497|56=EXC|10=098|
8=FIX.4.4|9=0050|35=0|34=41|49=EXC|56=013|52=20190711-23:31:16.000|10=206|
8=FIX.4.4|9=60|35=0|34=41|49=013|50=013B17|52=20190710-23:25:20.503|56=EXC|10=085|
8=FIX.4.4|9=0050|35=0|34=42|49=EXC|56=013|52=20190711-23:31:46.000|10=210|
8=FIX.4.4|9=60|35=0|34=42|49=013|50=013B17|52=20190710-23:25:50.500|56=EXC|10=086|
8=FIX.4.4|9=0050|35=0|34=43|49=EXC|56=013|52=20190711-23:32:16.000|10=209|
8=FIX.4.4|9=60|35=0|34=43|49=013|50=013B17|52=20190710-23:26:20.497|56=EXC|10=100|
8=FIX.4.4|9=0050|35=0|34=44|49=EXC|56=013|52=20190711-23:32:46.000|10=213|
8=FIX.4.4|9=60|35=0|34=44|49=013|50=013B17|52=20190710-23:26:50.512|56=EXC|10=092|
8=FIX.4.4|9=0050|35=0|34=45|49=EXC|56=013|52=20190711-23:33:16.000|10=212|
8=FIX.4.4|9=60|35=0|34=45|49=013|50=013B17|52=20190710-23:27:21.497|56=EXC|10=104|
8=FIX.4.4|9=0050|35=0|34=46|49=EXC|56=013|52=20190711-23:33:46.000|10=216|
8=FIX.4.4|9=60|35=0|34=46|49=013|50=013B17|52=20190710-23:27:51.510|56=EXC|10=094|
8=FIX.4.4|9=0050|35=0|34=47|49=EXC|56=013|52=20190711-23:34:16.000|10=215|
8=FIX.4.4|9=60|35=0|34=47|49=013|50=013B17|52=20190710-23:28:21.508|56=EXC|10=100|
8=FIX.4.4|9=0050|35=0|34=48|49=EXC|56=013|52=20190711-23:34:46.000|10=219|
8=FIX.4.4|9=60|35=0|34=48|49=013|50=013B17|52=20190710-23:28:51.502|56=EXC|10=098|
8=FIX.4.4|9=0050|35=0|34=49|49=EXC|56=013|52=20190711-23:35:16.000|10=218|
8=FIX.4.4|9=60|35=0|34=49|49=013|50=013B17|52=20190710-23:29:21.510|56=EXC|10=096|
8=FIX.4.4|9=0050|35=0|34=50|49=EXC|56=013|52=20190711-23:35:46.000|10=213|
8=FIX.4.4|9=60|35=0|34=50|49=013|50=013B17|52=20190710-23:29:51.508|56=EXC|10=098|
8=FIX.4.4|9=0050|35=0|34=51|49=EXC|56=013|52=20190711-23:36:16.000|10=212|
8=FIX.4.4|9=60|35=0|34=51|49=013|50=013B17|52=20190710-23:30:21.507|56=EXC|10=087|
8=FIX.4.4|9=0050|35=0|34=52|49=EXC|56=013|52=20190711-23:36:46.000|10=216|
8=FIX.4.4|9=60|35=0|34=52|49=013|50=013B17|52=20190710-23:30:51.506|56=EXC|10=090|
8=FIX.4.4|9=0050|35=0|34=53|49=EXC|56=013|52=20190711-23:37:16.000|10=215|
8=FIX.4.4|9=60|35=0|34=53|49=013|50=013B17|52=20190710-23:31:21.511|56=EXC|10=085|
8=FIX.4.4|9=0050|35=0|34=54|49=EXC|56=013|52=20190711-23:37:46.000|10=219|
8=FIX.4.4|9=60|35=0|34=54|49=013|50=013B17|52=20190710-23:31:51.510|56=EXC|10=088|
8=FIX.4.4|9=0050|35=0|34=55|49=EXC|56=013|52=20190711-23:38:16.000|10=218|
8=FIX.4.4|9=60|35=0|34=55|49=013|50=013B17|52=20190710-23:32:21.511|56=EXC|10=088|
8=FIX.4.4|9=0050|35=0|34=56|49=EXC|56=013|52=20190711-23:38:46.000|10=222|
8=FIX.4.4|9=60|35=0|34=56|49=013|50=013B17|52=20190710-23:32:51.502|56=EXC|10=092|
8=FIX.4.4|9=0050|35=0|34=57|49=EXC|56=013|52=20190711-23:39:16.000|10=221|
8=FIX.4.4|9=60|35=0|34=57|49=013|50=013B17|52=20190710-23:33:21.503|56=EXC|10=092|
8=FIX.4.4|9=0050|35=0|34=58|49=EXC|56=013|52=20190711-23:39:46.000|10=225|
8=FIX.4.4|9=60|35=0|34=58|49=013|50=013B17|52=20190710-23:33:51.498|56=EXC|10=109|
8=FIX.4.4|9=0050|35=0|34=59|49=EXC|56=013|52=20190711-23:40:16.000|10=215|
8=FIX.4.4|9=60|35=0|34=59|49=013|50=013B17|52=20190710-23:34:21.502|56=EXC|10=094|
8=FIX.4.4|9=0050|35=0|34=60|49=EXC|56=013|52=20190711-23:40:46.000|10=210|
8=FIX.4.4|9=60|35=0|34=60|49=013|50=013B17|52=20190710-23:34:51.501|56=EXC|10=088|
8=FIX.4.4|9=0050|35=0|34=61|49=EXC|56=013|52=20190711-23:41:16.000|10=209|
8=FIX.4.4|9=60|35=0|34=61|49=013|50=013B17|52=20190710-23:35:21.502|56=EXC|10=088|
8=FIX.4.4|9=0050|35=0|34=62|49=EXC|56=013|52=20190711-23:41:46.000|10=213|
8=FIX.4.4|9=60|35=0|34=62|49=013|50=013B17|52=20190710-23:35:51.501|56=EXC|10=091|
8=FIX.4.4|9=0050|35=0|34=63|49=EXC|56=013|52=20190711-23:42:16.000|10=212|
8=FIX.4.4|9=60|35=0|34=63|49=013|50=013B17|52=20190710-23:36:21.501|56=EXC|10=090|
8=FIX.4.4|9=0050|35=0|34=64|49=EXC|56=013|52=20190711-23:42:46.000|10=216|
8=FIX.4.4|9=60|35=0|34=64|49=013|50=013B17|52=20190710-23:36:51.509|56=EXC|10=102|
8=FIX.4.4|9=0050|35=0|34=65|49=EXC|56=013|52=20190711-23:43:16.000|10=215|
8=FIX.4.4|9=60|35=0|34=65|49=013|50=013B17|52=20190710-23:37:22.498|56=EXC|10=109|
8=FIX.4.4|9=0050|35=0|34=66|49=EXC|56=013|52=20190711-23:43:46.000|10=219|
8=FIX.4.4|9=60|35=0|34=66|49=013|50=013B17|52=20190710-23:37:52.502|56=EXC|10=099|
8=FIX.4.4|9=0050|35=0|34=67|49=EXC|56=013|52=20190711-23:44:16.000|10=218|
8=FIX.4.4|9=60|35=0|34=67|49=013|50=013B17|52=20190710-23:38:22.501|56=EXC|10=097|
8=FIX.4.4|9=0050|35=0|34=68|49=EXC|56=013|52=20190711-23:44:46.000|10=222|
8=FIX.4.4|9=60|35=0|34=68|49=013|50=013B17|52=20190710-23:38:52.498|56=EXC|10=116|
8=FIX.4.4|9=0050|35=0|34=69|49=EXC|56=013|52=20190711-23:45:16.000|10=221|
8=FIX.4.4|9=60|35=0|34=69|49=013|50=013B17|52=20190710-23:39:22.507|56=EXC|10=106|
8=FIX.4.4|9=0050|35=0|34=70|49=EXC|56=013|52=20190711-23:45:46.000|10=216|
8=FIX.4.4|9=60|35=0|34=70|49=013|50=013B17|52=20190710-23:39:52.506|56=EXC|10=100|
8=FIX.4.4|9=0050|35=0|34=71|49=EXC|56=013|52=20190711-23:46:16.000|10=215|
8=FIX.4.4|9=60|35=0|34=71|49=013|50=013B17|52=20190710-23:40:22.497|56=EXC|10=099|
8=FIX.4.4|9=0050|35=0|34=72|49=EXC|56=013|52=20190711-23:46:46.000|10=219|
8=FIX.4.4|9=60|35=0|34=72|49=013|50=013B17|52=20190710-23:40:52.497|56=EXC|10=103|
8=FIX.4.4|9=0050|35=0|34=73|49=EXC|56=013|52=20190711-23:47:16.000|10=218|
8=FIX.4.4|9=60|35=0|34=73|49=013|50=013B17|52=20190710-23:41:22.503|56=EXC|10=090|
8=FIX.4.4|9=0050|35=0|34=74|49=EXC|56=013|52=20190711-23:47:46.000|10=222|
8=FIX.4.4|9=60|35=0|34=74|49=013|50=013B17|52=20190710-23:41:52.511|56=EXC|10=093|
8=FIX.4.4|9=0050|35=0|34=75|49=EXC|56=013|52=20190711-23:48:16.000|10=221|
8=FIX.4.4|9=60|35=0|34=75|49=013|50=013B17|52=20190710-23:42:22.511|56=EXC|10=092|
8=FIX.4.4|9=0050|35=0|34=76|49=EXC|56=013|52=20190711-23:48:46.000|10=225|
8=FIX.4.4|9=60|35=0|34=76|49=013|50=013B17|52=20190710-23:42:52.511|56=EXC|10=096|
8=FIX.4.4|9=0050|35=0|34=77|49=EXC|56=013|52=20190711-23:49:16.000|10=224|
8=FIX.4.4|9=60|35=0|34=77|49=013|50=013B17|52=20190710-23:43:22.508|56=EXC|10=101|
8=FIX.4.4|9=0050|35=0|34=78|49=EXC|56=013|52=20190711-23:49:46.000|10=228|
8=FIX.4.4|9=60|35=0|34=78|49=013|50=013B17|52=20190710-23:43:52.506|56=EXC|10=103|
8=FIX.4.4|9=0050|35=0|34=79|49=EXC|56=013|52=20190711-23:50:16.000|10=218|
8=FIX.4.4|9=60|35=0|34=79|49=013|50=013B17|52=20190710-23:44:22.502|56=EXC|10=098|
8=FIX.4.4|9=0050|35=0|34=80|49=EXC|56=013|52=20190711-23:50:46.000|10=213|
8=FIX.4.4|9=60|35=0|34=80|49=013|50=013B17|52=20190710-23:44:52.511|56=EXC|10=093|
8=FIX.4.4|9=0050|35=0|34=81|49=EXC|56=013|52=20190711-23:51:16.000|10=212|
8=FIX.4.4|9=110|35=A|34=1|49=013|50=013B17|52=20190710-23:45:31.885|56=EXC|43=N|98=0|108=30|141=Y|553=013FCM001|554=013FCM001|10=085|
8=FIX.4.4|9=0067|35=A|34=1|49=EXC|56=013|52=20190711-23:51:32.074|98=0|108=30|141=Y|10=004|
8=FIX.4.4|9=110|35=A|34=1|49=013|50=013B17|52=20190710-23:49:41.057|56=EXC|43=N|98=0|108=30|141=Y|553=013FCM001|554=013FCM001|10=081|
8=FIX.4.4|9=0067|35=A|34=1|49=EXC|56=013|52=20190711-23:55:41.255|98=0|108=30|141=Y|10=009|
8=FIX.4.4|9=110|35=A|34=1|49=013|50=013B17|52=20190710-23:51:02.774|56=EXC|43=N|98=0|108=30|141=Y|553=013FCM001|554=013FCM001|10=077|
8=FIX.4.4|9=0067|35=A|34=1|49=EXC|56=013|52=20190711-23:57:02.970|98=0|108=30|141=Y|10=012|
8=FIX.4.4|9=0049|35=0|34=2|49=EXC|56=013|52=20190711-23:57:32.000|10=169|
8=FIX.4.4|9=59|35=0|34=2|49=013|50=013B17|52=20190710-23:51:33.722|56=EXC|10=048|
8=FIX.4.4|9=110|35=A|34=1|49=013|50=013B17|52=20190710-23:53:58.874|56=EXC|43=N|98=0|108=30|141=Y|553=013FCM001|554=013FCM001|10=091|
8=FIX.4.4|9=0067|35=A|34=1|49=EXC|56=013|52=20190711-23:59:59.060|98=0|108=30|141=Y|10=016|
8=FIX.4.4|9=110|35=A|34=1|49=013|50=013B17|52=20190711-00:00:17.790|56=EXC|43=N|98=0|108=30|141=Y|553=013FCM001|554=013FCM001|10=071|
8=FIX.4.4|9=0067|35=A|34=1|49=EXC|56=013|52=20190712-00:06:17.987|98=0|108=30|141=Y|10=016|
8=FIX.4.4|9=110|35=A|34=1|49=013|50=013B17|52=20190711-00:01:27.950|56=EXC|43=N|98=0|108=30|141=Y|553=013FCM001|554=013FCM001|10=071|
8=FIX.4.4|9=0067|35=A|34=1|49=EXC|56=013|52=20190712-00:07:28.144|98=0|108=30|141=Y|10=004|
8=FIX.4.4|9=110|35=A|34=1|49=013|50=013B17|52=20190711-00:02:43.535|56=EXC|43=N|98=0|108=30|141=Y|553=013FCM001|554=013FCM001|10=069|
8=FIX.4.4|9=0067|35=A|34=1|49=EXC|56=013|52=20190712-00:08:43.744|98=0|108=30|141=Y|10=008|
8=FIX.4.4|9=0049|35=0|34=2|49=EXC|56=013|52=20190712-00:09:13.000|10=161|
8=FIX.4.4|9=59|35=0|34=2|49=013|50=013B17|52=20190711-00:03:14.467|56=EXC|10=046|
8=FIX.4.4|9=0049|35=0|34=3|49=EXC|56=013|52=20190712-00:09:43.000|10=165|
8=FIX.4.4|9=59|35=0|34=3|49=013|50=013B17|52=20190711-00:03:44.481|56=EXC|10=046|
8=FIX.4.4|9=0049|35=0|34=4|49=EXC|56=013|52=20190712-00:10:13.000|10=155|
8=FIX.4.4|9=59|35=0|34=4|49=013|50=013B17|52=20190711-00:04:14.479|56=EXC|10=052|
8=FIX.4.4|9=0049|35=0|34=5|49=EXC|56=013|52=20190712-00:10:43.000|10=159|
8=FIX.4.4|9=59|35=0|34=5|49=013|50=013B17|52=20190711-00:04:44.476|56=EXC|10=053|
8=FIX.4.4|9=110|35=A|34=1|49=013|50=013B17|52=20190711-00:06:02.395|56=EXC|43=N|98=0|108=30|141=Y|553=013FCM001|554=013FCM001|10=072|
8=FIX.4.4|9=0067|35=A|34=1|49=EXC|56=013|52=20190712-00:12:02.601|98=0|108=30|141=Y|10=246|
8=FIX.4.4|9=0049|35=0|34=2|49=EXC|56=013|52=20190712-00:12:32.000|10=156|
8=FIX.4.4|9=59|35=0|34=2|49=013|50=013B17|52=20190711-00:06:33.304|56=EXC|10=040|
8=FIX.4.4|9=110|35=A|34=1|49=013|50=013B17|52=20190711-00:07:18.957|56=EXC|43=N|98=0|108=30|141=Y|553=013FCM001|554=013FCM001|10=084|
8=FIX.4.4|9=0067|35=A|34=1|49=EXC|56=013|52=20190712-00:13:19.161|98=0|108=30|141=Y|10=000|
8=FIX.4.4|9=110|35=A|34=1|49=013|50=013B17|52=20190711-00:09:47.515|56=EXC|43=N|98=0|108=30|141=Y|553=013FCM001|554=013FCM001|10=078|
8=FIX.4.4|9=0067|35=A|34=1|49=EXC|56=013|52=20190712-00:15:47.717|98=0|108=30|141=Y|10=010|
8=FIX.4.4|9=0049|35=0|34=2|49=EXC|56=013|52=20190712-00:16:17.000|10=163|
8=FIX.4.4|9=59|35=0|34=2|49=013|50=013B17|52=20190711-00:10:18.463|56=EXC|10=044|
8=FIX.4.4|9=110|35=A|34=1|49=013|50=013B17|52=20190711-00:19:46.276|56=EXC|43=N|98=0|108=30|141=Y|553=013FCM001|554=013FCM001|10=082|
8=FIX.4.4|9=0067|35=A|34=1|49=EXC|56=013|52=20190712-00:25:46.503|98=0|108=30|141=Y|10=003|
8=FIX.4.4|9=0049|35=0|34=2|49=EXC|56=013|52=20190712-00:26:16.000|10=163|
8=FIX.4.4|9=59|35=0|34=2|49=013|50=013B17|52=20190711-00:20:17.182|56=EXC|10=042|
8=FIX.4.4|9=0049|35=0|34=3|49=EXC|56=013|52=20190712-00:26:46.000|10=167|
8=FIX.4.4|9=59|35=0|34=3|49=013|50=013B17|52=20190711-00:20:47.191|56=EXC|10=046|
8=FIX.4.4|9=0049|35=0|34=4|49=EXC|56=013|52=20190712-00:27:16.000|10=166|
8=FIX.4.4|9=59|35=0|34=4|49=013|50=013B17|52=20190711-00:21:17.188|56=EXC|10=051|
8=FIX.4.4|9=0049|35=0|34=5|49=EXC|56=013|52=20190712-00:27:46.000|10=170|
8=FIX.4.4|9=59|35=0|34=5|49=013|50=013B17|52=20190711-00:21:47.193|56=EXC|10=051|
8=FIX.4.4|9=0049|35=0|34=6|49=EXC|56=013|52=20190712-00:28:16.000|10=169|
8=FIX.4.4|9=59|35=0|34=6|49=013|50=013B17|52=20190711-00:22:17.193|56=EXC|10=050|
8=FIX.4.4|9=110|35=A|34=1|49=013|50=013B17|52=20190711-00:23:06.193|56=EXC|43=N|98=0|108=30|141=Y|553=013FCM001|554=013FCM001|10=071|
8=FIX.4.4|9=0067|35=A|34=1|49=EXC|56=013|52=20190712-00:29:06.424|98=0|108=30|141=Y|10=005|
8=FIX.4.4|9=110|35=A|34=1|49=013|50=013B17|52=20190711-00:26:24.962|56=EXC|43=N|98=0|108=30|141=Y|553=013FCM001|554=013FCM001|10=078|
8=FIX.4.4|9=0067|35=A|34=1|49=EXC|56=013|52=20190712-00:32:25.192|98=0|108=30|141=Y|10=002|
8=FIX.4.4|9=110|35=A|34=1|49=013|50=013B17|52=20190711-00:29:10.485|56=EXC|43=N|98=0|108=30|141=Y|553=013FCM001|554=013FCM001|10=076|
8=FIX.4.4|9=0067|35=A|34=1|49=EXC|56=013|52=20190712-00:35:10.720|98=0|108=30|141=Y|10=252|
8=FIX.4.4|9=110|35=A|34=1|49=013|50=013B17|52=20190711-00:31:37.169|56=EXC|43=N|98=0|108=30|141=Y|553=013FCM001|554=013FCM001|10=077|
8=FIX.4.4|9=0067|35=A|34=1|49=EXC|56=013|52=20190712-00:37:37.407|98=0|108=30|141=Y|10=009|
8=FIX.4.4|9=110|35=A|34=1|49=013|50=013B17|52=20190711-00:33:14.459|56=EXC|43=N|98=0|108=30|141=Y|553=013FCM001|554=013FCM001|10=076|
8=FIX.4.4|9=0067|35=A|34=1|49=EXC|56=013|52=20190712-00:39:14.704|98=0|108=30|141=Y|10=006|
8=FIX.4.4|9=110|35=A|34=1|49=013|50=013B17|52=20190711-00:33:53.172|56=EXC|43=N|98=0|108=30|141=Y|553=013FCM001|554=013FCM001|10=071|
8=FIX.4.4|9=0067|35=A|34=1|49=EXC|56=013|52=20190712-00:39:53.422|98=0|108=30|141=Y|10=006|
8=FIX.4.4|9=110|35=A|34=1|49=013|50=013B17|52=20190711-00:38:28.286|56=EXC|43=N|98=0|108=30|141=Y|553=013FCM001|554=013FCM001|10=084|
8=FIX.4.4|9=0067|35=A|34=1|49=EXC|56=013|52=20190712-00:44:28.613|98=0|108=30|141=Y|10=006|
8=FIX.4.4|9=110|35=A|34=1|49=013|50=013B17|52=20190711-13:44:47.032|56=EXC|43=N|98=0|108=30|141=Y|553=013FCM001|554=013FCM001|10=075|
8=FIX.4.4|9=0067|35=A|34=1|49=EXC|56=013|52=20190712-13:50:47.884|98=0|108=30|141=Y|10=018|
8=FIX.4.4|9=110|35=A|34=1|49=013|50=013B17|52=20190711-13:45:15.328|56=EXC|43=N|98=0|108=30|141=Y|553=013FCM001|554=013FCM001|10=079|
8=FIX.4.4|9=0067|35=A|34=1|49=EXC|56=013|52=20190712-13:51:16.170|98=0|108=30|141=Y|10=003|
8=FIX.4.4|9=0049|35=0|34=2|49=EXC|56=013|52=20190712-13:51:46.000|10=168|
8=FIX.4.4|9=59|35=0|34=2|49=013|50=013B17|52=20190711-13:45:46.255|56=EXC|10=056|
8=FIX.4.4|9=110|35=A|34=1|49=013|50=013B17|52=20190711-13:50:55.528|56=EXC|43=N|98=0|108=30|141=Y|553=013FCM001|554=013FCM001|10=081|
8=FIX.4.4|9=0067|35=A|34=1|49=EXC|56=013|52=20190712-13:56:56.367|98=0|108=30|141=Y|10=020|
8=FIX.4.4|9=110|35=A|34=1|49=013|50=013B17|52=20190711-14:26:26.909|56=EXC|43=N|98=0|108=30|141=Y|553=013FCM001|554=013FCM001|10=086|
8=FIX.4.4|9=0067|35=A|34=1|49=EXC|56=013|52=20190712-14:32:27.785|98=0|108=30|141=Y|10=017|
8=FIX.4.4|9=110|35=A|34=1|49=013|50=013B17|52=20190711-14:28:43.483|56=EXC|43=N|98=0|108=30|141=Y|553=013FCM001|554=013FCM001|10=084|
8=FIX.4.4|9=0067|35=A|34=1|49=EXC|56=013|52=20190712-14:34:44.373|98=0|108=30|141=Y|10=011|
8=FIX.4.4|9=110|35=A|34=1|49=013|50=013B17|52=20190711-14:38:25.808|56=EXC|43=N|98=0|108=30|141=Y|553=013FCM001|554=013FCM001|10=086|
8=FIX.4.4|9=0067|35=A|34=1|49=EXC|56=013|52=20190712-14:44:26.697|98=0|108=30|141=Y|10=021|
8=FIX.4.4|9=110|35=A|34=1|49=013|50=013B17|52=20190711-14:39:45.257|56=EXC|43=N|98=0|108=30|141=Y|553=013FCM001|554=013FCM001|10=087|
8=FIX.4.4|9=0067|35=A|34=1|49=EXC|56=013|52=20190712-14:45:46.136|98=0|108=30|141=Y|10=012|
8=FIX.4.4|9=110|35=A|34=1|49=013|50=013B17|52=20190711-14:40:20.662|56=EXC|43=N|98=0|108=30|141=Y|553=013FCM001|554=013FCM001|10=072|
8=FIX.4.4|9=0067|35=A|34=1|49=EXC|56=013|52=20190712-14:46:21.552|98=0|108=30|141=Y|10=008|
8=FIX.4.4|9=110|35=A|34=1|49=013|50=013B17|52=20190711-15:28:20.990|56=EXC|43=N|98=0|108=30|141=Y|553=013FCM001|554=013FCM001|10=083|
8=FIX.4.4|9=0067|35=A|34=1|49=EXC|56=013|52=20190712-15:34:21.931|98=0|108=30|141=Y|10=007|
8=FIX.4.4|9=110|35=A|34=1|49=013|50=013B17|52=20190711-15:33:52.348|56=EXC|43=N|98=0|108=30|141=Y|553=013FCM001|554=013FCM001|10=081|
8=FIX.4.4|9=0067|35=A|34=1|49=EXC|56=013|52=20190712-15:39:53.279|98=0|108=30|141=Y|10=022|
8=FIX.4.4|9=0049|35=0|34=2|49=EXC|56=013|52=20190712-15:40:23.000|10=163|
8=FIX.4.4|9=59|35=0|34=2|49=013|50=013B17|52=20190711-15:34:23.299|56=EXC|10=059|
8=FIX.4.4|9=110|35=A|34=1|49=013|50=013B17|52=20190711-15:58:19.056|56=EXC|43=N|98=0|108=30|141=Y|553=013FCM001|554=013FCM001|10=087|
8=FIX.4.4|9=0067|35=A|34=1|49=EXC|56=013|52=20190712-16:04:20.005|98=0|108=30|141=Y|10=252|
8=FIX.4.4|9=0049|35=0|34=2|49=EXC|56=013|52=20190712-16:04:50.000|10=164|
8=FIX.4.4|9=59|35=0|34=2|49=013|50=013B17|52=20190711-15:58:49.071|56=EXC|10=061|
8=FIX.4.4|9=110|35=A|34=1|49=013|50=013B17|52=20190711-16:15:52.719|56=EXC|43=N|98=0|108=30|141=Y|553=013FCM001|554=013FCM001|10=084|
8=FIX.4.4|9=0067|35=A|34=1|49=EXC|56=013|52=20190712-16:21:53.682|98=0|108=30|141=Y|10=012|
8=FIX.4.4|9=0049|35=0|34=2|49=EXC|56=013|52=20190712-16:22:23.000|10=164|
8=FIX.4.4|9=59|35=0|34=2|49=013|50=013B17|52=20190711-16:16:23.409|56=EXC|10=053|
8=FIX.4.4|9=110|35=A|34=1|49=013|50=013B17|52=20190711-16:19:20.331|56=EXC|43=N|98=0|108=30|141=Y|553=013FCM001|554=013FCM001|10=073|
8=FIX.4.4|9=0067|35=A|34=1|49=EXC|56=013|52=20190712-16:25:21.301|98=0|108=30|141=Y|10=255|
8=FIX.4.4|9=0049|35=0|34=2|49=EXC|56=013|52=20190712-16:25:51.000|10=168|
8=FIX.4.4|9=59|35=0|34=2|49=013|50=013B17|52=20190711-16:19:51.005|56=EXC|10=049|
8=FIX.4.4|9=0049|35=0|34=3|49=EXC|56=013|52=20190712-16:26:21.000|10=167|
