8=FIX.4.4|9=105|35=A|34=1|49=010|50=010BWN|52=20190620-21:31:23.123|56=EXC|98=0|108=30|141=Y|553=010FCE003|554=010FCE003|10=118|
8=FIX.4.4|9=0067|35=A|34=1|49=EXC|56=010|52=20190620-21:31:23.655|98=0|108=30|141=Y|10=001|
8=FIX.4.4|9=105|35=A|34=1|49=010|50=010BWN|52=20190620-21:41:55.429|56=EXC|98=0|108=30|141=Y|553=010FCE003|554=010FCE003|10=133|
8=FIX.4.4|9=0067|35=A|34=1|49=EXC|56=010|52=20190620-21:41:55.686|98=0|108=30|141=Y|10=011|
8=FIX.4.4|9=105|35=A|34=1|49=010|50=010BWN|52=20190620-21:42:44.060|56=EXC|98=0|108=30|141=Y|553=010FCE003|554=010FCE003|10=123|
8=FIX.4.4|9=0067|35=A|34=1|49=EXC|56=010|52=20190620-21:42:44.165|98=0|108=30|141=Y|10=002|
8=FIX.4.4|9=105|35=A|34=1|49=010|50=010BWN|52=20190620-21:54:13.147|56=EXC|98=0|108=30|141=Y|553=010FCE003|554=010FCE003|10=128|
8=FIX.4.4|9=0067|35=A|34=1|49=EXC|56=010|52=20190620-21:54:13.565|98=0|108=30|141=Y|10=005|
8=FIX.4.4|9=105|35=A|34=1|49=010|50=010BWN|52=20190620-21:59:27.608|56=EXC|98=0|108=30|141=Y|553=010FCE003|554=010FCE003|10=140|
8=FIX.4.4|9=0067|35=A|34=1|49=EXC|56=010|52=20190620-21:59:28.077|98=0|108=30|141=Y|10=014|
8=FIX.4.4|9=105|35=A|34=1|49=010|50=010BWN|52=20190621-13:46:46.488|56=EXC|98=0|108=30|141=Y|553=010FCE003|554=010FCE003|10=145|
8=FIX.4.4|9=0067|35=A|34=1|49=EXC|56=010|52=20190621-13:46:46.507|98=0|108=30|141=Y|10=010|
8=FIX.4.4|9=105|35=A|34=1|49=010|50=010BWN|52=20190621-13:51:58.540|56=EXC|98=0|108=30|141=Y|553=010FCE003|554=010FCE003|10=133|
8=FIX.4.4|9=0067|35=A|34=1|49=EXC|56=010|52=20190621-13:51:58.586|98=0|108=30|141=Y|10=016|
8=FIX.4.4|9=105|35=A|34=1|49=010|50=010BWN|52=20190621-14:01:12.738|56=EXC|98=0|108=30|141=Y|553=010FCE003|554=010FCE003|10=128|
8=FIX.4.4|9=0067|35=A|34=1|49=EXC|56=010|52=20190621-14:01:12.820|98=0|108=30|141=Y|10=249|
8=FIX.4.4|9=105|35=A|34=1|49=010|50=010BWN|52=20190621-14:02:04.361|56=EXC|98=0|108=30|141=Y|553=010FCE003|554=010FCE003|10=122|
8=FIX.4.4|9=0067|35=A|34=1|49=EXC|56=010|52=20190621-14:02:04.399|98=0|108=30|141=Y|10=006|
8=FIX.4.4|9=105|35=A|34=1|49=010|50=010BWN|52=20190621-15:58:27.555|56=EXC|98=0|108=30|141=Y|553=010FCE003|554=010FCE003|10=144|
8=FIX.4.4|9=0067|35=A|34=1|49=EXC|56=010|52=20190621-15:58:27.594|98=0|108=30|141=Y|10=020|
8=FIX.4.4|9=105|35=A|34=1|49=010|50=010BWN|52=20190621-16:01:48.463|56=EXC|98=0|108=30|141=Y|553=010FCE003|554=010FCE003|10=134|
8=FIX.4.4|9=0067|35=A|34=1|49=EXC|56=010|52=20190621-16:01:48.503|98=0|108=30|141=Y|10=002|
8=FIX.4.4|9=105|35=A|34=1|49=010|50=010BWN|52=20190621-16:17:31.295|56=EXC|98=0|108=30|141=Y|553=010FCE003|554=010FCE003|10=136|
8=FIX.4.4|9=0067|35=A|34=1|49=EXC|56=010|52=20190621-16:17:31.359|98=0|108=30|141=Y|10=010|
8=FIX.4.4|9=105|35=A|34=1|49=010|50=010BWN|52=20190621-16:24:24.387|56=EXC|98=0|108=30|141=Y|553=010FCE003|554=010FCE003|10=138|
8=FIX.4.4|9=0067|35=A|34=1|49=EXC|56=010|52=20190621-16:24:24.431|98=0|108=30|141=Y|10=001|
8=FIX.4.4|9=105|35=A|34=1|49=010|50=010BWN|52=20190621-16:29:19.305|56=EXC|98=0|108=30|141=Y|553=010FCE003|554=010FCE003|10=137|
8=FIX.4.4|9=0067|35=A|34=1|49=EXC|56=010|52=20190621-16:29:19.353|98=0|108=30|141=Y|10=013|
8=FIX.4.4|9=105|35=A|34=1|49=010|50=010BWN|52=20190625-14:28:26.069|56=EXC|98=0|108=30|141=Y|553=010FCE003|554=010FCE003|10=143|
8=FIX.4.4|9=0067|35=A|34=1|49=EXC|56=010|52=20190627-14:28:15.764|98=0|108=30|141=Y|10=018|
8=FIX.4.4|9=105|35=A|34=1|49=010|50=010BWN|52=20190625-14:51:26.009|56=EXC|98=0|108=30|141=Y|553=010FCE003|554=010FCE003|10=133|
8=FIX.4.4|9=0067|35=A|34=1|49=EXC|56=010|52=20190627-14:51:15.684|98=0|108=30|141=Y|10=015|
8=FIX.4.4|9=105|35=A|34=1|49=010|50=010BWN|52=20190625-19:44:15.062|56=EXC|98=0|108=30|141=Y|553=010FCE003|554=010FCE003|10=137|
8=FIX.4.4|9=0067|35=A|34=1|49=EXC|56=010|52=20190627-19:44:15.101|98=0|108=30|141=Y|10=006|
8=FIX.4.4|9=105|35=A|34=1|49=010|50=010BWN|52=20190625-19:45:35.084|56=EXC|98=0|108=30|141=Y|553=010FCE003|554=010FCE003|10=144|
8=FIX.4.4|9=0067|35=A|34=1|49=EXC|56=010|52=20190627-19:45:35.132|98=0|108=30|141=Y|10=013|
8=FIX.4.4|9=105|35=A|34=1|49=010|50=010BWN|52=20190625-19:54:23.927|56=EXC|98=0|108=30|141=Y|553=010FCE003|554=010FCE003|10=147|
8=FIX.4.4|9=0067|35=A|34=1|49=EXC|56=010|52=20190627-19:54:23.967|98=0|108=30|141=Y|10=026|
8=FIX.4.4|9=105|35=A|34=1|49=010|50=010BWN|52=20190625-19:55:23.652|56=EXC|98=0|108=30|141=Y|553=010FCE003|554=010FCE003|10=143|
8=FIX.4.4|9=0067|35=A|34=1|49=EXC|56=010|52=20190627-19:55:23.703|98=0|108=30|141=Y|10=015|
8=FIX.4.4|9=105|35=A|34=1|49=010|50=010BWN|52=20190625-20:02:36.616|56=EXC|98=0|108=30|141=Y|553=010FCE003|554=010FCE003|10=131|
8=FIX.4.4|9=0067|35=A|34=1|49=EXC|56=010|52=20190627-20:02:36.657|98=0|108=30|141=Y|10=011|
8=FIX.4.4|9=105|35=A|34=1|49=010|50=010BWN|52=20190626-19:09:44.283|56=EXC|98=0|108=30|141=Y|553=010FCE003|554=010FCE003|10=146|
8=FIX.4.4|9=0067|35=A|34=1|49=EXC|56=010|52=20190628-19:09:44.362|98=0|108=30|141=Y|10=019|
8=FIX.4.4|9=105|35=A|34=1|49=010|50=010BWN|52=20190626-20:09:29.628|56=EXC|98=0|108=30|141=Y|553=010FCE003|554=010FCE003|10=144|
8=FIX.4.4|9=0067|35=A|34=1|49=EXC|56=010|52=20190628-20:09:29.683|98=0|108=30|141=Y|10=020|
8=FIX.4.4|9=0049|35=0|34=2|49=EXC|56=010|52=20190628-20:09:59.000|10=176|
8=FIX.4.4|9=59|35=0|34=2|49=010|50=010BWN|52=20190626-20:10:00.498|56=EXC|10=105|
8=FIX.4.4|9=105|35=A|34=1|49=010|50=010BWN|52=20190626-20:10:59.990|56=EXC|98=0|108=30|141=Y|553=010FCE003|554=010FCE003|10=141|
8=FIX.4.4|9=0067|35=A|34=1|49=EXC|56=010|52=20190628-20:11:00.059|98=0|108=30|141=Y|10=255|
8=FIX.4.4|9=0049|35=0|34=2|49=EXC|56=010|52=20190628-20:11:30.000|10=158|
8=FIX.4.4|9=59|35=0|34=2|49=010|50=010BWN|52=20190626-20:11:30.024|56=EXC|10=094|
8=FIX.4.4|9=105|35=A|34=1|49=010|50=010BWN|52=20190626-20:16:07.937|56=EXC|98=0|108=30|141=Y|553=010FCE003|554=010FCE003|10=141|
8=FIX.4.4|9=0067|35=A|34=1|49=EXC|56=010|52=20190628-20:16:07.998|98=0|108=30|141=Y|10=023|
8=FIX.4.4|9=105|35=A|34=1|49=010|50=010BWN|52=20190626-20:20:26.397|56=EXC|98=0|108=30|141=Y|553=010FCE003|554=010FCE003|10=137|
8=FIX.4.4|9=0067|35=A|34=1|49=EXC|56=010|52=20190628-20:20:26.450|98=0|108=30|141=Y|10=002|
8=FIX.4.4|9=105|35=A|34=1|49=010|50=010BWN|52=20190626-20:34:32.504|56=EXC|98=0|108=30|141=Y|553=010FCE003|554=010FCE003|10=129|
8=FIX.4.4|9=0067|35=A|34=1|49=EXC|56=010|52=20190628-20:34:32.556|98=0|108=30|141=Y|10=011|
8=FIX.4.4|9=105|35=A|34=1|49=010|50=010BWN|52=20190626-20:45:46.366|56=EXC|98=0|108=30|141=Y|553=010FCE003|554=010FCE003|10=142|
8=FIX.4.4|9=0067|35=A|34=1|49=EXC|56=010|52=20190628-20:45:46.436|98=0|108=30|141=Y|10=015|
8=FIX.4.4|9=0049|35=0|34=2|49=EXC|56=010|52=20190628-20:46:16.000|10=170|
8=FIX.4.4|9=59|35=0|34=2|49=010|50=010BWN|52=20190626-20:46:17.137|56=EXC|10=112|
8=FIX.4.4|9=0049|35=0|34=3|49=EXC|56=010|52=20190628-20:46:46.000|10=174|
8=FIX.4.4|9=59|35=0|34=3|49=010|50=010BWN|52=20190626-20:46:47.136|56=EXC|10=115|
8=FIX.4.4|9=0049|35=0|34=4|49=EXC|56=010|52=20190628-20:47:16.000|10=173|
8=FIX.4.4|9=59|35=0|34=4|49=010|50=010BWN|52=20190626-20:47:17.135|56=EXC|10=113|
8=FIX.4.4|9=105|35=A|34=1|49=010|50=010BWN|52=20190626-20:47:57.648|56=EXC|98=0|108=30|141=Y|553=010FCE003|554=010FCE003|10=149|
8=FIX.4.4|9=0067|35=A|34=1|49=EXC|56=010|52=20190628-20:47:57.713|98=0|108=30|141=Y|10=017|
8=FIX.4.4|9=105|35=A|34=1|49=010|50=010BWN|52=20190626-21:05:42.561|56=EXC|98=0|108=30|141=Y|553=010FCE003|554=010FCE003|10=132|
8=FIX.4.4|9=0067|35=A|34=1|49=EXC|56=010|52=20190628-21:05:42.084|98=0|108=30|141=Y|10=007|
8=FIX.4.4|9=105|35=A|34=1|49=010|50=010BWN|52=20190626-21:06:19.758|56=EXC|98=0|108=30|141=Y|553=010FCE003|554=010FCE003|10=145|
8=FIX.4.4|9=0067|35=A|34=1|49=EXC|56=010|52=20190628-21:06:19.269|98=0|108=30|141=Y|10=017|
8=FIX.4.4|9=105|35=A|34=1|49=010|50=010BWN|52=20190626-21:07:10.652|56=EXC|98=0|108=30|141=Y|553=010FCE003|554=010FCE003|10=130|
8=FIX.4.4|9=0067|35=A|34=1|49=EXC|56=010|52=20190628-21:07:10.186|98=0|108=30|141=Y|10=007|
8=FIX.4.4|9=105|35=A|34=1|49=010|50=010BWN|52=20190626-21:09:36.761|56=EXC|98=0|108=30|141=Y|553=010FCE003|554=010FCE003|10=141|
8=FIX.4.4|9=0067|35=A|34=1|49=EXC|56=010|52=20190628-21:09:36.270|98=0|108=30|141=Y|10=011|
8=FIX.4.4|9=105|35=A|34=1|49=010|50=010BWN|52=20190626-21:10:30.761|56=EXC|98=0|108=30|141=Y|553=010FCE003|554=010FCE003|10=127|
8=FIX.4.4|9=0067|35=A|34=1|49=EXC|56=010|52=20190628-21:10:30.281|98=0|108=30|141=Y|10=255|
8=FIX.4.4|9=105|35=A|34=1|49=010|50=010BWN|52=20190626-21:11:06.762|56=EXC|98=0|108=30|141=Y|553=010FCE003|554=010FCE003|10=132|
8=FIX.4.4|9=0067|35=A|34=1|49=EXC|56=010|52=20190628-21:11:06.291|98=0|108=30|141=Y|10=004|
8=FIX.4.4|9=105|35=A|34=1|49=010|50=010BWN|52=20190626-21:25:26.999|56=EXC|98=0|108=30|141=Y|553=010FCE003|554=010FCE003|10=151|
8=FIX.4.4|9=0067|35=A|34=1|49=EXC|56=010|52=20190628-21:25:26.890|98=0|108=30|141=Y|10=016|
8=FIX.4.4|9=0049|35=0|34=2|49=EXC|56=010|52=20190628-21:25:56.000|10=172|
8=FIX.4.4|9=105|35=A|34=1|49=010|50=010BWN|52=20190626-21:35:17.890|56=EXC|98=0|108=30|141=Y|553=010FCE003|554=010FCE003|10=142|
8=FIX.4.4|9=0067|35=A|34=1|49=EXC|56=010|52=20190628-21:35:17.990|98=0|108=30|141=Y|10=018|
8=FIX.4.4|9=0049|35=0|34=2|49=EXC|56=010|52=20190628-21:35:47.000|10=173|
8=FIX.4.4|9=59|35=0|34=2|49=010|50=010BWN|52=20190626-21:35:48.622|56=EXC|10=114|
8=FIX.4.4|9=105|35=A|34=1|49=010|50=010BWN|52=20190626-21:55:42.048|56=EXC|98=0|108=30|141=Y|553=010FCE003|554=010FCE003|10=137|
8=FIX.4.4|9=0067|35=A|34=1|49=EXC|56=010|52=20190628-21:55:42.125|98=0|108=30|141=Y|10=008|
8=FIX.4.4|9=0049|35=0|34=2|49=EXC|56=010|52=20190628-21:56:12.000|10=168|
8=FIX.4.4|9=59|35=0|34=2|49=010|50=010BWN|52=20190626-21:56:12.857|56=EXC|10=118|
8=FIX.4.4|9=99|35=A|34=3|49=010|50=010BWN|52=20190626-21:56:28.216|56=EXC|98=0|108=30|553=010FCE003|554=010FCE003|10=060|
8=FIX.4.4|9=0061|35=A|34=3|49=EXC|56=010|52=20190628-21:56:28.264|98=0|108=30|10=224|
8=FIX.4.4|9=0049|35=0|34=4|49=EXC|56=010|52=20190628-21:56:58.000|10=180|
8=FIX.4.4|9=59|35=0|34=4|49=010|50=010BWN|52=20190626-21:56:59.123|56=EXC|10=117|
8=FIX.4.4|9=105|35=A|34=1|49=010|50=010BWN|52=20190626-22:01:39.773|56=EXC|98=0|108=30|141=Y|553=010FCE003|554=010FCE003|10=140|
8=FIX.4.4|9=0067|35=A|34=1|49=EXC|56=010|52=20190628-22:01:39.971|98=0|108=30|141=Y|10=015|
8=FIX.4.4|9=105|35=A|34=1|49=010|50=010BWN|52=20190626-22:02:08.577|56=EXC|98=0|108=30|141=Y|553=010FCE003|554=010FCE003|10=139|
8=FIX.4.4|9=0067|35=A|34=1|49=EXC|56=010|52=20190628-22:02:08.771|98=0|108=30|141=Y|10=010|
8=FIX.4.4|9=105|35=A|34=1|49=010|50=010BWN|52=20190627-19:53:15.805|56=EXC|98=0|108=30|141=Y|553=010FCE003|554=010FCE003|10=144|
8=FIX.4.4|9=0067|35=A|34=1|49=EXC|56=010|52=20190627-19:53:15.874|98=0|108=30|141=Y|10=023|
8=FIX.4.4|9=0049|35=0|34=2|49=EXC|56=010|52=20190627-19:53:45.000|10=177|
8=FIX.4.4|9=59|35=0|34=2|49=010|50=010BWN|52=20190627-19:53:46.530|56=EXC|10=118|
8=FIX.4.4|9=105|35=A|34=1|49=010|50=010BWN|52=20190627-19:54:06.057|56=EXC|98=0|108=30|141=Y|553=010FCE003|554=010FCE003|10=144|
8=FIX.4.4|9=0067|35=A|34=1|49=EXC|56=010|52=20190627-19:54:06.131|98=0|108=30|141=Y|10=010|
8=FIX.4.4|9=105|35=A|34=1|49=010|50=010BWN|52=20190628-14:45:15.395|56=EXC|98=0|108=30|141=Y|553=010FCE003|554=010FCE003|10=145|
8=FIX.4.4|9=0067|35=A|34=1|49=EXC|56=010|52=20190628-14:45:15.472|98=0|108=30|141=Y|10=014|
8=FIX.4.4|9=0049|35=0|34=2|49=EXC|56=010|52=20190628-14:45:45.000|10=174|
8=FIX.4.4|9=59|35=0|34=2|49=010|50=010BWN|52=20190628-14:45:46.157|56=EXC|10=120|
8=FIX.4.4|9=105|35=A|34=1|49=010|50=010BWN|52=20190702-17:24:05.903|56=EXC|98=0|108=30|141=Y|553=010FCE003|554=010FCE003|10=132|
8=FIX.4.4|9=0067|35=A|34=1|49=EXC|56=010|52=20190702-17:24:05.954|98=0|108=30|141=Y|10=011|
8=FIX.4.4|9=0049|35=0|34=2|49=EXC|56=010|52=20190702-17:24:35.000|10=166|
8=FIX.4.4|9=59|35=0|34=2|49=010|50=010BWN|52=20190702-17:24:36.804|56=EXC|10=111|
8=FIX.4.4|9=105|35=A|34=1|49=010|50=010BWN|52=20190702-17:44:37.296|56=EXC|98=0|108=30|141=Y|553=010FCE003|554=010FCE003|10=144|
8=FIX.4.4|9=0067|35=A|34=1|49=EXC|56=010|52=20190702-17:44:37.356|98=0|108=30|141=Y|10=014|
8=FIX.4.4|9=0049|35=0|34=2|49=EXC|56=010|52=20190702-17:45:07.000|10=168|
8=FIX.4.4|9=59|35=0|34=2|49=010|50=010BWN|52=20190702-17:45:08.216|56=EXC|10=110|
8=FIX.4.4|9=105|35=A|34=1|49=010|50=010BWN|52=20190702-19:37:35.189|56=EXC|98=0|108=30|141=Y|553=010FCE003|554=010FCE003|10=147|
8=FIX.4.4|9=0067|35=A|34=1|49=EXC|56=010|52=20190702-19:37:35.374|98=0|108=30|141=Y|10=016|
8=FIX.4.4|9=110|35=A|34=1|49=010|50=010BWN|52=20190702-20:10:01.166|56=EXC|43=Y|98=0|108=30|141=Y|553=010FCE003|554=010FCE003|10=112|
8=FIX.4.4|9=0067|35=A|34=1|49=EXC|56=010|52=20190702-20:10:01.218|98=0|108=30|141=Y|10=245|
8=FIX.4.4|9=110|35=A|34=1|49=010|50=010BWN|52=20190702-21:28:51.822|56=EXC|43=Y|98=0|108=30|141=Y|553=010FCE003|554=010FCE003|10=126|
8=FIX.4.4|9=0067|35=A|34=1|49=EXC|56=010|52=20190702-21:28:51.906|98=0|108=30|141=Y|10=008|
8=FIX.4.4|9=0049|35=0|34=2|49=EXC|56=010|52=20190702-21:29:21.000|10=161|
8=FIX.4.4|9=59|35=0|34=2|49=010|50=010BWN|52=20190702-21:29:22.543|56=EXC|10=106|
8=FIX.4.4|9=110|35=A|34=1|49=010|50=010BWN|52=20190702-21:33:16.922|56=EXC|43=Y|98=0|108=30|141=Y|553=010FCE003|554=010FCE003|10=124|
8=FIX.4.4|9=0067|35=A|34=1|49=EXC|56=010|52=20190702-21:33:16.991|98=0|108=30|141=Y|10=009|
8=FIX.4.4|9=110|35=A|34=1|49=010|50=010BWN|52=20190702-21:36:38.048|56=EXC|43=Y|98=0|108=30|141=Y|553=010FCE003|554=010FCE003|10=130|
8=FIX.4.4|9=0067|35=A|34=1|49=EXC|56=010|52=20190702-21:36:38.122|98=0|108=30|141=Y|10=002|
8=FIX.4.4|9=0049|35=0|34=2|49=EXC|56=010|52=20190702-21:37:08.000|10=165|
8=FIX.4.4|9=59|35=0|34=2|49=010|50=010BWN|52=20190702-21:37:08.972|56=EXC|10=115|
8=FIX.4.4|9=110|35=A|34=1|49=010|50=010BWN|52=20190702-21:39:52.437|56=EXC|43=Y|98=0|108=30|141=Y|553=010FCE003|554=010FCE003|10=131|
8=FIX.4.4|9=0067|35=A|34=1|49=EXC|56=010|52=20190702-21:39:52.516|98=0|108=30|141=Y|10=008|
8=FIX.4.4|9=110|35=A|34=1|49=010|50=010BWN|52=20190703-15:49:22.186|56=EXC|43=Y|98=0|108=30|141=Y|553=010FCE003|554=010FCE003|10=134|
8=FIX.4.4|9=0067|35=A|34=1|49=EXC|56=010|52=20190703-15:55:15.299|98=0|108=30|141=Y|10=017|
8=FIX.4.4|9=110|35=A|34=1|49=010|50=010BWN|52=20190703-17:04:33.357|56=EXC|43=Y|98=0|108=30|141=Y|553=010FCE003|554=010FCE003|10=129|
8=FIX.4.4|9=0067|35=A|34=1|49=EXC|56=010|52=20190703-17:10:26.550|98=0|108=30|141=Y|10=002|
8=FIX.4.4|9=110|35=A|34=1|49=010|50=010BWN|52=20190703-21:16:39.956|56=EXC|43=Y|98=0|108=30|141=Y|553=010FCE003|554=010FCE003|10=138|
8=FIX.4.4|9=0067|35=A|34=1|49=EXC|56=010|52=20190703-21:22:33.347|98=0|108=30|141=Y|10=002|
8=FIX.4.4|9=0049|35=0|34=2|49=EXC|56=010|52=20190703-21:23:03.000|10=156|
8=FIX.4.4|9=59|35=0|34=2|49=010|50=010BWN|52=20190703-21:17:10.916|56=EXC|10=105|
8=FIX.4.4|9=0049|35=0|34=3|49=EXC|56=010|52=20190703-21:23:33.000|10=160|
8=FIX.4.4|9=59|35=0|34=3|49=010|50=010BWN|52=20190703-21:17:40.914|56=EXC|10=107|
8=FIX.4.4|9=59|35=5|34=4|49=010|50=010BWN|52=20190703-21:17:59.916|56=EXC|10=125|
8=FIX.4.4|9=0049|35=5|34=4|49=EXC|56=010|52=20190703-21:23:53.262|10=178|
