8=FIX.4.4|9=110|35=A|34=1|49=035|50=035X01|52=20190709-15:51:46.052|56=EXC|43=N|98=0|108=30|141=Y|553=035FCM001|554=035FCM001|10=114|
8=FIX.4.4|9=0067|35=A|34=1|49=EXC|56=035|52=20190712-15:52:20.582|98=0|108=30|141=Y|10=012|
8=FIX.4.4|9=162|35=R|34=2|49=035|50=035X01|52=20190709-15:51:53.231|56=EXC|131=201907091051421_R|146=1|55=T24Q19F|22=M|762=FUIR|54=1|38=100|1=DP003|453=1|448=002B35|447=C|452=37|10=183|
8=FIX.4.4|9=0196|35=AG|34=2|49=EXC|56=035|57=035X01|52=20190712-15:52:27.714|131=201907091051421_R|658=99|146=1|55=T24Q19F|762=FUIR|22=M|58=(1591): PartyID(#448) value is invalid for role type 'ContraTrader' (37)|10=148|
8=FIX.4.4|9=0049|35=0|34=3|49=EXC|56=035|52=20190712-15:52:57.000|10=178|
8=FIX.4.4|9=59|35=0|34=3|49=035|50=035X01|52=20190709-15:52:24.015|56=EXC|10=077|
8=FIX.4.4|9=110|35=A|34=1|49=035|50=035X01|52=20190709-15:57:56.670|56=EXC|43=N|98=0|108=30|141=Y|553=035FCM001|554=035FCM001|10=127|
8=FIX.4.4|9=0067|35=A|34=1|49=EXC|56=035|52=20190712-15:58:31.186|98=0|108=30|141=Y|10=020|
8=FIX.4.4|9=162|35=R|34=2|49=035|50=035X01|52=20190709-15:58:03.595|56=EXC|131=201907091057531_R|146=1|55=T24Q19F|22=M|762=FUIR|54=1|38=100|1=DP003|453=1|448=071X01|447=C|452=37|10=227|
8=FIX.4.4|9=0244|35=AI|34=2|49=EXC|56=035|57=035X01|52=20190712-15:58:38.087|131=201907091057531_R|453=4|448=035X01|447=C|452=12|448=035|447=C|452=1|448=035FCM001|447=C|452=36|448=071X01|447=C|452=37|55=T24Q19F|762=FUIR|48=26622|22=M|54=1|1=DP003|38=100|297=10|10=161|
8=FIX.4.4|9=0287|35=S|34=3|49=EXC|56=035|57=035X01|52=20190712-15:58:58.189|131=201907091057531_R|117=20190712-000000000001.00|55=T24Q19F|762=FUIR|48=26622|22=M|453=4|448=035X01|447=C|452=12|448=035|447=C|452=1|448=035FCM001|447=C|452=36|448=071X01|447=C|452=37|133=1000.000|135=100|62=20190830-22:00:00|10=181|
8=FIX.4.4|9=59|35=0|34=3|49=035|50=035X01|52=20190709-15:58:34.484|56=EXC|10=094|
8=FIX.4.4|9=110|35=A|34=1|49=035|50=035X01|52=20190709-16:12:10.120|56=EXC|43=N|98=0|108=30|141=Y|553=035FCM001|554=035FCM001|10=099|
8=FIX.4.4|9=0067|35=A|34=1|49=EXC|56=035|52=20190712-16:12:44.656|98=0|108=30|141=Y|10=017|
8=FIX.4.4|9=162|35=R|34=2|49=035|50=035X01|52=20190709-16:12:17.080|56=EXC|131=201907091112061_R|146=1|55=T24Q19F|22=M|762=FUIR|54=1|38=100|1=DP003|453=1|448=071X01|447=C|452=37|10=202|
8=FIX.4.4|9=0244|35=AI|34=2|49=EXC|56=035|57=035X01|52=20190712-16:12:51.582|131=201907091112061_R|453=4|448=035X01|447=C|452=12|448=035|447=C|452=1|448=035FCM001|447=C|452=36|448=071X01|447=C|452=37|55=T24Q19F|762=FUIR|48=26622|22=M|54=1|1=DP003|38=100|297=10|10=137|
8=FIX.4.4|9=0287|35=S|34=3|49=EXC|56=035|57=035X01|52=20190712-16:13:11.684|131=201907091112061_R|117=20190712-000000000002.00|55=T24Q19F|762=FUIR|48=26622|22=M|453=4|448=035X01|447=C|452=12|448=035|447=C|452=1|448=035FCM001|447=C|452=36|448=071X01|447=C|452=37|133=1000.000|135=100|62=20190830-22:00:00|10=153|
8=FIX.4.4|9=59|35=0|34=3|49=035|50=035X01|52=20190709-16:12:47.932|56=EXC|10=087|
8=FIX.4.4|9=0049|35=0|34=4|49=EXC|56=035|52=20190712-16:13:41.000|10=170|
8=FIX.4.4|9=110|35=A|34=1|49=035|50=035X01|52=20190709-16:22:38.495|56=EXC|43=N|98=0|108=30|141=Y|553=035FCM001|554=035FCM001|10=125|
8=FIX.4.4|9=0067|35=A|34=1|49=EXC|56=035|52=20190712-16:23:13.021|98=0|108=30|141=Y|10=001|
8=FIX.4.4|9=162|35=R|34=2|49=035|50=035X01|52=20190709-16:22:45.409|56=EXC|131=201907091122351_R|146=1|55=T24Q19F|22=M|762=FUIR|54=1|38=100|1=DP003|453=1|448=071X01|447=C|452=37|10=212|
8=FIX.4.4|9=0244|35=AI|34=2|49=EXC|56=035|57=035X01|52=20190712-16:23:19.919|131=201907091122351_R|453=4|448=035X01|447=C|452=12|448=035|447=C|452=1|448=035FCM001|447=C|452=36|448=071X01|447=C|452=37|55=T24Q19F|762=FUIR|48=26622|22=M|54=1|1=DP003|38=100|297=10|10=150|
8=FIX.4.4|9=0287|35=S|34=3|49=EXC|56=035|57=035X01|52=20190712-16:23:40.016|131=201907091122351_R|117=20190712-000000000003.00|55=T24Q19F|762=FUIR|48=26622|22=M|453=4|448=035X01|447=C|452=12|448=035|447=C|452=1|448=035FCM001|447=C|452=36|448=071X01|447=C|452=37|133=1000.000|135=100|62=20190830-22:00:00|10=149|
8=FIX.4.4|9=59|35=0|34=3|49=035|50=035X01|52=20190709-16:23:16.298|56=EXC|10=090|
8=FIX.4.4|9=110|35=A|34=1|49=035|50=035X01|52=20190709-16:27:52.016|56=EXC|43=N|98=0|108=30|141=Y|553=035FCM001|554=035FCM001|10=115|
8=FIX.4.4|9=0067|35=A|34=1|49=EXC|56=035|52=20190712-16:28:26.559|98=0|108=30|141=Y|10=026|
8=FIX.4.4|9=162|35=R|34=2|49=035|50=035X01|52=20190709-16:27:58.955|56=EXC|131=201907091127481_R|146=1|55=T24Q19F|22=M|762=FUIR|54=1|38=100|1=DP003|453=1|448=071X01|447=C|452=37|10=236|
8=FIX.4.4|9=0244|35=AI|34=2|49=EXC|56=035|57=035X01|52=20190712-16:28:33.463|131=201907091127481_R|453=4|448=035X01|447=C|452=12|448=035|447=C|452=1|448=035FCM001|447=C|452=36|448=071X01|447=C|452=37|55=T24Q19F|762=FUIR|48=26622|22=M|54=1|1=DP003|38=100|297=10|10=154|
8=FIX.4.4|9=0287|35=S|34=3|49=EXC|56=035|57=035X01|52=20190712-16:28:53.544|131=201907091127481_R|117=20190712-000000000004.00|55=T24Q19F|762=FUIR|48=26622|22=M|453=4|448=035X01|447=C|452=12|448=035|447=C|452=1|448=035FCM001|447=C|452=36|448=071X01|447=C|452=37|133=1000.000|135=100|62=20190830-22:00:00|10=174|
8=FIX.4.4|9=59|35=0|34=3|49=035|50=035X01|52=20190709-16:28:29.813|56=EXC|10=092|
8=FIX.4.4|9=0049|35=0|34=4|49=EXC|56=035|52=20190712-16:29:23.000|10=177|
8=FIX.4.4|9=110|35=A|34=1|49=035|50=035X01|52=20190709-19:44:22.553|56=EXC|43=N|98=0|108=30|141=Y|553=035FCM001|554=035FCM001|10=120|
8=FIX.4.4|9=0067|35=A|34=1|49=EXC|56=035|52=20190712-19:44:57.286|98=0|108=30|141=Y|10=028|
8=FIX.4.4|9=162|35=R|34=2|49=035|50=035X01|52=20190709-19:44:29.469|56=EXC|131=201907091444191_R|146=1|55=T24Q19F|22=M|762=FUIR|54=1|38=100|1=DP003|453=1|448=071X01|447=C|452=37|10=236|
8=FIX.4.4|9=0244|35=AI|34=2|49=EXC|56=035|57=035X01|52=20190712-19:45:04.142|131=201907091444191_R|453=4|448=035X01|447=C|452=12|448=035|447=C|452=1|448=035FCM001|447=C|452=36|448=071X01|447=C|452=37|55=T24Q19F|762=FUIR|48=26622|22=M|54=1|1=DP003|38=100|297=10|10=148|
8=FIX.4.4|9=0287|35=S|34=3|49=EXC|56=035|57=035X01|52=20190712-19:45:24.359|131=201907091444191_R|117=20190712-000000000005.00|55=T24Q19F|762=FUIR|48=26622|22=M|453=4|448=035X01|447=C|452=12|448=035|447=C|452=1|448=035FCM001|447=C|452=36|448=071X01|447=C|452=37|133=1000.000|135=100|62=20190830-22:00:00|10=179|
8=FIX.4.4|9=59|35=0|34=3|49=035|50=035X01|52=20190709-19:45:00.347|56=EXC|10=085|
8=FIX.4.4|9=0049|35=0|34=4|49=EXC|56=035|52=20190712-19:45:54.000|10=182|
8=FIX.4.4|9=59|35=0|34=4|49=035|50=035X01|52=20190709-19:45:30.355|56=EXC|10=088|
8=FIX.4.4|9=110|35=A|34=1|49=035|50=035X01|52=20190709-19:56:17.334|56=EXC|43=N|98=0|108=30|141=Y|553=035FCM001|554=035FCM001|10=124|
8=FIX.4.4|9=0067|35=A|34=1|49=EXC|56=035|52=20190712-19:56:52.036|98=0|108=30|141=Y|10=019|
8=FIX.4.4|9=162|35=R|34=2|49=035|50=035X01|52=20190709-19:56:24.293|56=EXC|131=201907091456141_R|146=1|55=T24Q19F|22=M|762=FUIR|54=1|38=100|1=DP003|453=1|448=071X01|447=C|452=37|10=227|
8=FIX.4.4|9=0244|35=AI|34=2|49=EXC|56=035|57=035X01|52=20190712-19:56:58.964|131=201907091456141_R|453=4|448=035X01|447=C|452=12|448=035|447=C|452=1|448=035FCM001|447=C|452=36|448=071X01|447=C|452=37|55=T24Q19F|762=FUIR|48=26622|22=M|54=1|1=DP003|38=100|297=10|10=169|
8=FIX.4.4|9=0287|35=S|34=3|49=EXC|56=035|57=035X01|52=20190712-19:57:19.057|131=201907091456141_R|117=20190712-000000000006.00|55=T24Q19F|762=FUIR|48=26622|22=M|453=4|448=035X01|447=C|452=12|448=035|447=C|452=1|448=035FCM001|447=C|452=36|448=071X01|447=C|452=37|133=1000.000|135=100|62=20190830-22:00:00|10=180|
8=FIX.4.4|9=59|35=0|34=3|49=035|50=035X01|52=20190709-19:56:55.149|56=EXC|10=097|
8=FIX.4.4|9=143|35=AJ|34=4|49=035|50=035X01|52=20190709-19:57:04.501|56=EXC|54=1|55=T24Q19F|117=20190712-000000000006.00|693=201907091456141_AJ|694=1|762=FUIR|10=116|
8=FIX.4.4|9=0094|35=Z|34=4|49=EXC|56=035|57=035X01|52=20190712-19:57:39.171|117=20190712-000000000006.00|298=5|10=110|
8=FIX.4.4|9=0210|35=AI|34=5|49=EXC|56=035|57=035X01|52=20190712-19:57:39.171|117=20190712-000000000006.00|693=201907091456141_AJ|55=T24Q19F|762=FUIR|54=1|297=9|300=99|58=(1717): Total value limit breached, deal/quote cancelled|10=227|
8=FIX.4.4|9=116|35=3|34=5|49=035|50=035X01|52=20190709-19:57:29.543|56=EXC|45=5|58=Required tag missing, field=1|371=1|372=AI|373=1|10=006|
8=FIX.4.4|9=0049|35=0|34=6|49=EXC|56=035|52=20190712-19:58:09.000|10=188|
8=FIX.4.4|9=110|35=A|34=1|49=035|50=035X01|52=20190709-21:16:56.742|56=EXC|43=N|98=0|108=30|141=Y|553=035FCM001|554=035FCM001|10=119|
8=FIX.4.4|9=0067|35=A|34=1|49=EXC|56=035|52=20190712-21:17:31.566|98=0|108=30|141=Y|10=014|
8=FIX.4.4|9=162|35=R|34=2|49=035|50=035X01|52=20190709-21:17:03.707|56=EXC|131=201907091616531_R|146=1|55=T24Q19F|22=M|762=FUIR|54=1|38=100|1=DP003|453=1|448=071X01|447=C|452=37|10=215|
8=FIX.4.4|9=0244|35=AI|34=2|49=EXC|56=035|57=035X01|52=20190712-21:17:38.455|131=201907091616531_R|453=4|448=035X01|447=C|452=12|448=035|447=C|452=1|448=035FCM001|447=C|452=36|448=071X01|447=C|452=37|55=T24Q19F|762=FUIR|48=26622|22=M|54=1|1=DP003|38=100|297=10|10=153|
8=FIX.4.4|9=0049|35=0|34=3|49=EXC|56=035|52=20190712-21:18:08.000|10=173|
8=FIX.4.4|9=59|35=0|34=3|49=035|50=035X01|52=20190709-21:17:34.548|56=EXC|10=087|
8=FIX.4.4|9=110|35=A|34=1|49=035|50=035X01|52=20190709-21:25:02.242|56=EXC|43=N|98=0|108=30|141=Y|553=035FCM001|554=035FCM001|10=105|
8=FIX.4.4|9=0067|35=A|34=1|49=EXC|56=035|52=20190712-21:25:37.024|98=0|108=30|141=Y|10=008|
8=FIX.4.4|9=162|35=R|34=2|49=035|50=035X01|52=20190709-21:25:09.205|56=EXC|131=201907091624591_R|146=1|55=T24Q19F|22=M|762=FUIR|54=1|38=100|1=DP003|453=1|448=071X01|447=C|452=37|10=218|
8=FIX.4.4|9=0244|35=AI|34=2|49=EXC|56=035|57=035X01|52=20190712-21:25:43.957|131=201907091624591_R|453=4|448=035X01|447=C|452=12|448=035|447=C|452=1|448=035FCM001|447=C|452=36|448=071X01|447=C|452=37|55=T24Q19F|762=FUIR|48=26622|22=M|54=1|1=DP003|38=100|297=10|10=160|
8=FIX.4.4|9=0049|35=0|34=3|49=EXC|56=035|52=20190712-21:26:13.000|10=168|
8=FIX.4.4|9=59|35=0|34=3|49=035|50=035X01|52=20190709-21:25:40.048|56=EXC|10=078|
8=FIX.4.4|9=110|35=A|34=1|49=035|50=035X01|52=20190709-21:32:45.439|56=EXC|43=N|98=0|108=30|141=Y|553=035FCM001|554=035FCM001|10=118|
8=FIX.4.4|9=0067|35=A|34=1|49=EXC|56=035|52=20190712-21:33:20.220|98=0|108=30|141=Y|10=253|
8=FIX.4.4|9=162|35=R|34=2|49=035|50=035X01|52=20190709-21:32:52.382|56=EXC|131=201907091632421_R|146=1|55=T24Q19F|22=M|762=FUIR|54=1|38=100|1=DP003|453=1|448=071X01|447=C|452=37|10=211|
8=FIX.4.4|9=0244|35=AI|34=2|49=EXC|56=035|57=035X01|52=20190712-21:33:27.144|131=201907091632421_R|453=4|448=035X01|447=C|452=12|448=035|447=C|452=1|448=035FCM001|447=C|452=36|448=071X01|447=C|452=37|55=T24Q19F|762=FUIR|48=26622|22=M|54=1|1=DP003|38=100|297=10|10=140|
8=FIX.4.4|9=0287|35=S|34=3|49=EXC|56=035|57=035X01|52=20190712-21:33:47.250|131=201907091632421_R|117=20190712-000000000009.00|55=T24Q19F|762=FUIR|48=26622|22=M|453=4|448=035X01|447=C|452=12|448=035|447=C|452=1|448=035FCM001|447=C|452=36|448=071X01|447=C|452=37|133=1000.000|135=100|62=20190830-22:00:00|10=163|
8=FIX.4.4|9=59|35=0|34=3|49=035|50=035X01|52=20190709-21:33:23.232|56=EXC|10=073|
8=FIX.4.4|9=143|35=AJ|34=4|49=035|50=035X01|52=20190709-21:33:32.620|56=EXC|54=1|55=T24Q19F|117=20190712-000000000009.00|693=201907091632421_AJ|694=1|762=FUIR|10=106|
8=FIX.4.4|9=0094|35=Z|34=4|49=EXC|56=035|57=035X01|52=20190712-21:34:07.379|117=20190712-000000000009.00|298=5|10=106|
8=FIX.4.4|9=0210|35=AI|34=5|49=EXC|56=035|57=035X01|52=20190712-21:34:07.379|117=20190712-000000000009.00|693=201907091632421_AJ|55=T24Q19F|762=FUIR|54=1|297=9|300=99|58=(1717): Total value limit breached, deal/quote cancelled|10=220|
8=FIX.4.4|9=110|35=A|34=1|49=035|50=035X01|52=20190709-23:23:40.511|56=EXC|43=N|98=0|108=30|141=Y|553=035FCM001|554=035FCM001|10=106|
8=FIX.4.4|9=0067|35=A|34=1|49=EXC|56=035|52=20190712-16:16:46.402|98=0|108=30|141=Y|10=012|
8=FIX.4.4|9=162|35=R|34=2|49=035|50=035X01|52=20190709-23:23:47.477|56=EXC|131=201907091823371_R|146=1|55=T24Q19F|22=M|762=FUIR|54=1|38=100|1=DP003|453=1|448=071X01|447=C|452=37|10=228|
8=FIX.4.4|9=0244|35=AI|34=2|49=EXC|56=035|57=035X01|52=20190712-16:16:53.326|131=201907091823371_R|453=4|448=035X01|447=C|452=12|448=035|447=C|452=1|448=035FCM001|447=C|452=36|448=071X01|447=C|452=37|55=T24Q19F|762=FUIR|48=26622|22=M|54=1|1=DP003|38=100|297=10|10=152|
8=FIX.4.4|9=0287|35=S|34=3|49=EXC|56=035|57=035X01|52=20190712-16:17:13.419|131=201907091823371_R|117=20190712-000000000001.00|55=T24Q19F|762=FUIR|48=26622|22=M|453=4|448=035X01|447=C|452=12|448=035|447=C|452=1|448=035FCM001|447=C|452=36|448=071X01|447=C|452=37|133=1000.000|135=100|62=20190830-22:00:00|10=167|
8=FIX.4.4|9=59|35=0|34=3|49=035|50=035X01|52=20190709-23:24:18.314|56=EXC|10=080|
8=FIX.4.4|9=143|35=AJ|34=4|49=035|50=035X01|52=20190709-23:24:27.717|56=EXC|54=1|55=T24Q19F|117=20190712-000000000001.00|693=201907091823371_AJ|694=1|762=FUIR|10=117|
8=FIX.4.4|9=0094|35=Z|34=4|49=EXC|56=035|57=035X01|52=20190712-16:17:33.557|117=20190712-000000000001.00|298=5|10=100|
8=FIX.4.4|9=0210|35=AI|34=5|49=EXC|56=035|57=035X01|52=20190712-16:17:33.557|117=20190712-000000000001.00|693=201907091823371_AJ|55=T24Q19F|762=FUIR|54=1|297=9|300=99|58=(1717): Total value limit breached, deal/quote cancelled|10=220|
8=FIX.4.4|9=110|35=A|34=1|49=035|50=035X01|52=20190710-14:34:13.372|56=EXC|43=N|98=0|108=30|141=Y|553=035FCM001|554=035FCM001|10=105|
8=FIX.4.4|9=0067|35=A|34=1|49=EXC|56=035|52=20190715-15:31:47.959|98=0|108=30|141=Y|10=029|
8=FIX.4.4|9=161|35=R|34=2|49=035|50=035X01|52=20190710-14:34:20.499|56=EXC|131=20190710934091_R|146=1|55=T24Q19F|22=M|762=FUIR|54=1|38=100|1=DP003|453=1|448=071X01|447=C|452=37|10=161|
8=FIX.4.4|9=0243|35=AI|34=2|49=EXC|56=035|57=035X01|52=20190715-15:31:55.046|131=20190710934091_R|453=4|448=035X01|447=C|452=12|448=035|447=C|452=1|448=035FCM001|447=C|452=36|448=071X01|447=C|452=37|55=T24Q19F|762=FUIR|48=26622|22=M|54=1|1=DP003|38=100|297=10|10=096|
8=FIX.4.4|9=0286|35=S|34=3|49=EXC|56=035|57=035X01|52=20190715-15:32:15.255|131=20190710934091_R|117=20190715-000000000010.00|55=T24Q19F|762=FUIR|48=26622|22=M|453=4|448=035X01|447=C|452=12|448=035|447=C|452=1|448=035FCM001|447=C|452=36|448=071X01|447=C|452=37|133=1000.000|135=100|62=20190830-22:00:00|10=113|
8=FIX.4.4|9=59|35=0|34=3|49=035|50=035X01|52=20190710-14:34:51.180|56=EXC|10=071|
8=FIX.4.4|9=142|35=AJ|34=4|49=035|50=035X01|52=20190710-14:35:00.828|56=EXC|54=1|55=T24Q19F|117=20190715-000000000010.00|693=20190710934091_AJ|694=1|762=FUIR|10=052|
8=FIX.4.4|9=0462|35=8|34=4|49=EXC|56=035|57=035X01|52=20190715-15:32:35.370|11=20190710934091_AJ|17=2|37=0|150=F|1080=20190715-000000000010.00|1081=5|453=5|448=035X01|447=C|452=12|448=035|447=C|452=1|448=071X01|447=C|452=37|448=071|447=C|452=17|448=035FCM001|447=C|452=36|55=T24Q19F|762=FUIR|48=26622|22=M|6=1000.000|14=100|31=1000.000|32=100|38=100|39=2|54=1|60=20190715-15:32:35.370|75=20190715|63=1|64=20190715|151=0|1=DP003|381=250000000000.000|880=201907150000000011|828=99|10=110|
8=FIX.4.4|9=0049|35=0|34=5|49=EXC|56=035|52=20190715-15:33:05.000|10=175|
8=FIX.4.4|9=59|35=0|34=5|49=035|50=035X01|52=20190710-14:35:31.182|56=EXC|10=074|
8=FIX.4.4|9=110|35=A|34=1|49=035|50=035X01|52=20190710-16:44:23.630|56=EXC|43=N|98=0|108=30|141=Y|553=035FCM001|554=035FCM001|10=106|
8=FIX.4.4|9=0067|35=A|34=1|49=EXC|56=035|52=20190715-17:41:58.303|98=0|108=30|141=Y|10=017|
8=FIX.4.4|9=162|35=R|34=2|49=035|50=035X01|52=20190710-16:44:30.679|56=EXC|131=201907101144191_R|146=1|55=T24Q19F|22=M|762=FUIR|54=1|38=100|1=DP003|453=1|448=071X01|447=C|452=37|10=209|
8=FIX.4.4|9=0244|35=AI|34=2|49=EXC|56=035|57=035X01|52=20190715-17:42:05.309|131=201907101144191_R|453=4|448=035X01|447=C|452=12|448=035|447=C|452=1|448=035FCM001|447=C|452=36|448=071X01|447=C|452=37|55=T24Q19F|762=FUIR|48=26622|22=M|54=1|1=DP003|38=100|297=10|10=141|
8=FIX.4.4|9=0287|35=S|34=3|49=EXC|56=035|57=035X01|52=20190715-17:42:25.566|131=201907101144191_R|117=20190715-000000000011.00|55=T24Q19F|762=FUIR|48=26622|22=M|453=4|448=035X01|447=C|452=12|448=035|447=C|452=1|448=035FCM001|447=C|452=36|448=071X01|447=C|452=37|133=1000.000|135=100|62=20190830-22:00:00|10=167|
8=FIX.4.4|9=59|35=0|34=3|49=035|50=035X01|52=20190710-16:45:01.422|56=EXC|10=069|
8=FIX.4.4|9=143|35=AJ|34=4|49=035|50=035X01|52=20190710-16:45:11.052|56=EXC|54=1|55=T24Q19F|117=20190715-000000000011.00|693=201907101144191_AJ|694=1|762=FUIR|10=091|
8=FIX.4.4|9=0463|35=8|34=4|49=EXC|56=035|57=035X01|52=20190715-17:42:45.685|11=201907101144191_AJ|17=3|37=0|150=F|1080=20190715-000000000011.00|1081=5|453=5|448=035X01|447=C|452=12|448=035|447=C|452=1|448=071X01|447=C|452=37|448=071|447=C|452=17|448=035FCM001|447=C|452=36|55=T24Q19F|762=FUIR|48=26622|22=M|6=1000.000|14=100|31=1000.000|32=100|38=100|39=2|54=1|60=20190715-17:42:45.685|75=20190715|63=1|64=20190715|151=0|1=DP003|381=250000000000.000|880=201907150000000016|828=99|10=187|
8=FIX.4.4|9=0049|35=0|34=5|49=EXC|56=035|52=20190715-17:43:15.000|10=179|
8=FIX.4.4|9=59|35=5|34=5|49=035|50=035X01|52=20190710-16:45:41.423|56=EXC|10=081|
8=FIX.4.4|9=0049|35=5|34=6|49=EXC|56=035|52=20190715-17:43:16.054|10=195|
8=FIX.4.4|9=59|35=5|34=6|49=035|50=035X01|52=20190710-16:45:41.423|56=EXC|10=082|
8=FIX.4.4|9=110|35=A|34=1|49=035|50=035X01|52=20190710-20:47:46.055|56=EXC|43=N|98=0|108=30|141=Y|553=035FCM001|554=035FCM001|10=110|
8=FIX.4.4|9=0067|35=A|34=1|49=EXC|56=035|52=20190715-14:41:25.934|98=0|108=30|141=Y|10=018|
8=FIX.4.4|9=0049|35=0|34=2|49=EXC|56=035|52=20190715-14:41:55.000|10=175|
8=FIX.4.4|9=59|35=0|34=2|49=035|50=035X01|52=20190710-20:48:16.876|56=EXC|10=085|
8=FIX.4.4|9=110|35=A|34=1|49=035|50=035X01|52=20190710-20:48:44.049|56=EXC|43=N|98=0|108=30|141=Y|553=035FCM001|554=035FCM001|10=112|
8=FIX.4.4|9=0067|35=A|34=1|49=EXC|56=035|52=20190715-14:42:23.896|98=0|108=30|141=Y|10=024|
8=FIX.4.4|9=138|35=R|34=2|49=035|50=035X01|52=20190710-20:48:50.981|56=EXC|131=201907101548402_R|146=1|55=T24Q19F|22=M|762=FUIR|54=1|38=100|1=DP003|453=0|10=065|
8=FIX.4.4|9=0220|35=AI|34=2|49=EXC|56=035|57=035X01|52=20190715-14:42:30.791|131=201907101548402_R|453=3|448=035X01|447=C|452=12|448=035|447=C|452=1|448=035FCM001|447=C|452=36|55=T24Q19F|762=FUIR|48=26622|22=M|54=1|1=DP003|38=100|297=10|10=247|
8=FIX.4.4|9=0180|35=R|34=3|49=EXC|56=035|52=20190715-14:42:30.791|131=20190715-000000000001.00|146=1|55=T24Q19F|762=FUIR|48=26622|22=M|54=1|38=100|453=2|448=035X01|447=C|452=12|448=035|447=C|452=1|10=165|
8=FIX.4.4|9=110|35=A|34=1|49=035|50=035X01|52=20190710-20:51:09.625|56=EXC|43=N|98=0|108=30|141=Y|553=035FCM001|554=035FCM001|10=107|
8=FIX.4.4|9=0067|35=A|34=1|49=EXC|56=035|52=20190715-14:44:49.475|98=0|108=30|141=Y|10=027|
8=FIX.4.4|9=0049|35=0|34=2|49=EXC|56=035|52=20190715-14:45:19.000|10=179|
8=FIX.4.4|9=59|35=0|34=2|49=035|50=035X01|52=20190710-20:51:40.592|56=EXC|10=071|
8=FIX.4.4|9=0049|35=0|34=3|49=EXC|56=035|52=20190715-14:45:49.000|10=183|
8=FIX.4.4|9=59|35=0|34=3|49=035|50=035X01|52=20190710-20:52:10.591|56=EXC|10=069|
8=FIX.4.4|9=110|35=A|34=1|49=035|50=035X01|52=20190710-20:55:09.342|56=EXC|43=N|98=0|108=30|141=Y|553=035FCM001|554=035FCM001|10=107|
8=FIX.4.4|9=0067|35=A|34=1|49=EXC|56=035|52=20190715-14:48:49.302|98=0|108=30|141=Y|10=020|
8=FIX.4.4|9=138|35=R|34=2|49=035|50=035X01|52=20190710-20:55:16.134|56=EXC|131=201907101555052_R|146=1|55=T24Q19F|22=M|762=FUIR|54=1|38=100|1=DP003|453=0|10=054|
8=FIX.4.4|9=0220|35=AI|34=2|49=EXC|56=035|57=035X01|52=20190715-14:48:55.953|131=201907101555052_R|453=3|448=035X01|447=C|452=12|448=035|447=C|452=1|448=035FCM001|447=C|452=36|55=T24Q19F|762=FUIR|48=26622|22=M|54=1|1=DP003|38=100|297=10|10=003|
8=FIX.4.4|9=0180|35=R|34=3|49=EXC|56=035|52=20190715-14:48:55.953|131=20190715-000000000002.00|146=1|55=T24Q19F|762=FUIR|48=26622|22=M|54=1|38=100|453=2|448=035X01|447=C|452=12|448=035|447=C|452=1|10=179|
8=FIX.4.4|9=0178|35=R|34=4|49=EXC|56=035|52=20190715-14:49:11.078|131=20190715-000000000002.00|146=1|55=T24Q19F|762=FUIR|48=26622|22=M|54=1|38=0|453=2|448=035X01|447=C|452=12|448=035|447=C|452=1|10=081|
8=FIX.4.4|9=0287|35=S|34=5|49=EXC|56=035|57=035X01|52=20190715-14:49:11.078|131=201907101555052_R|117=20190715-000000000002.00|55=T24Q19F|762=FUIR|48=26622|22=M|453=4|448=035X01|447=C|452=12|448=035|447=C|452=1|448=035FCM001|447=C|452=36|448=071X01|447=C|452=37|133=1000.000|135=100|62=20190830-22:00:00|10=168|
8=FIX.4.4|9=59|35=0|34=3|49=035|50=035X01|52=20190710-20:55:46.723|56=EXC|10=078|
8=FIX.4.4|9=0049|35=0|34=6|49=EXC|56=035|52=20190715-14:49:41.000|10=182|
8=FIX.4.4|9=59|35=0|34=4|49=035|50=035X01|52=20190710-20:56:16.725|56=EXC|10=079|
8=FIX.4.4|9=143|35=AJ|34=5|49=035|50=035X01|52=20190710-20:56:26.527|56=EXC|54=1|55=T24Q19F|117=20190715-000000000002.00|693=201907101555052_AJ|694=1|762=FUIR|10=104|
8=FIX.4.4|9=0094|35=Z|34=7|49=EXC|56=035|57=035X01|52=20190715-14:50:06.362|117=20190715-000000000002.00|298=5|10=099|
8=FIX.4.4|9=0210|35=AI|34=8|49=EXC|56=035|57=035X01|52=20190715-14:50:06.362|117=20190715-000000000002.00|693=201907101555052_AJ|55=T24Q19F|762=FUIR|54=1|297=9|300=99|58=(1717): Total value limit breached, deal/quote cancelled|10=209|
8=FIX.4.4|9=116|35=3|34=6|49=035|50=035X01|52=20190710-20:56:51.641|56=EXC|45=8|58=Required tag missing, field=1|371=1|372=AI|373=1|10=243|
8=FIX.4.4|9=0049|35=0|34=9|49=EXC|56=035|52=20190715-14:50:36.000|10=181|
8=FIX.4.4|9=59|35=0|34=7|49=035|50=035X01|52=20190710-20:57:21.724|56=EXC|10=078|
8=FIX.4.4|9=0050|35=0|34=10|49=EXC|56=035|52=20190715-14:51:06.000|10=211|
8=FIX.4.4|9=110|35=A|34=1|49=035|50=035X01|52=20190710-21:15:19.831|56=EXC|43=N|98=0|108=30|141=Y|553=035FCM001|554=035FCM001|10=108|
8=FIX.4.4|9=0067|35=A|34=1|49=EXC|56=035|52=20190715-15:08:59.719|98=0|108=30|141=Y|10=030|
8=FIX.4.4|9=0049|35=0|34=2|49=EXC|56=035|52=20190715-15:09:29.000|10=181|
8=FIX.4.4|9=59|35=0|34=2|49=035|50=035X01|52=20190710-21:15:50.757|56=EXC|10=076|
8=FIX.4.4|9=110|35=A|34=1|49=035|50=035X01|52=20190710-21:18:09.724|56=EXC|43=N|98=0|108=30|141=Y|553=035FCM001|554=035FCM001|10=111|
8=FIX.4.4|9=0067|35=A|34=1|49=EXC|56=035|52=20190715-15:11:49.612|98=0|108=30|141=Y|10=015|
8=FIX.4.4|9=138|35=R|34=2|49=035|50=035X01|52=20190710-21:18:16.799|56=EXC|131=201907101618062_R|146=1|55=T24Q19F|22=M|762=FUIR|54=1|38=100|1=DP003|453=0|10=072|
8=FIX.4.4|9=0220|35=AI|34=2|49=EXC|56=035|57=035X01|52=20190715-15:11:56.641|131=201907101618062_R|453=3|448=035X01|447=C|452=12|448=035|447=C|452=1|448=035FCM001|447=C|452=36|55=T24Q19F|762=FUIR|48=26622|22=M|54=1|1=DP003|38=100|297=10|10=246|
8=FIX.4.4|9=0180|35=R|34=3|49=EXC|56=035|52=20190715-15:11:56.641|131=20190715-000000000003.00|146=1|55=T24Q19F|762=FUIR|48=26622|22=M|54=1|38=100|453=2|448=035X01|447=C|452=12|448=035|447=C|452=1|10=166|
8=FIX.4.4|9=0178|35=R|34=4|49=EXC|56=035|52=20190715-15:12:11.769|131=20190715-000000000003.00|146=1|55=T24Q19F|762=FUIR|48=26622|22=M|54=1|38=0|453=2|448=035X01|447=C|452=12|448=035|447=C|452=1|10=080|
8=FIX.4.4|9=0287|35=S|34=5|49=EXC|56=035|57=035X01|52=20190715-15:12:11.769|131=201907101618062_R|117=20190715-000000000003.00|55=T24Q19F|762=FUIR|48=26622|22=M|453=4|448=035X01|447=C|452=12|448=035|447=C|452=1|448=035FCM001|447=C|452=36|448=071X01|447=C|452=37|133=1000.000|135=100|62=20190830-22:00:00|10=168|
8=FIX.4.4|9=59|35=0|34=3|49=035|50=035X01|52=20190710-21:18:47.673|56=EXC|10=083|
8=FIX.4.4|9=0049|35=0|34=6|49=EXC|56=035|52=20190715-15:12:41.000|10=173|
8=FIX.4.4|9=59|35=0|34=4|49=035|50=035X01|52=20190710-21:19:17.677|56=EXC|10=086|
8=FIX.4.4|9=143|35=AJ|34=5|49=035|50=035X01|52=20190710-21:19:27.260|56=EXC|54=1|55=T24Q19F|117=20190715-000000000003.00|693=201907101618062_AJ|694=1|762=FUIR|10=101|
8=FIX.4.4|9=0463|35=8|34=7|49=EXC|56=035|57=035X01|52=20190715-15:13:07.103|11=201907101618062_AJ|17=1|37=0|150=F|1080=20190715-000000000003.00|1081=5|453=5|448=035X01|447=C|452=12|448=035|447=C|452=1|448=071X01|447=C|452=37|448=071|447=C|452=17|448=035FCM001|447=C|452=36|55=T24Q19F|762=FUIR|48=26622|22=M|6=1000.000|14=100|31=1000.000|32=100|38=100|39=2|54=1|60=20190715-15:13:07.103|75=20190715|63=1|64=20190715|151=0|1=DP003|381=250000000000.000|880=201907150000000003|828=99|10=146|
8=FIX.4.4|9=110|35=A|34=1|49=035|50=035X01|52=20190710-21:23:37.928|56=EXC|43=N|98=0|108=30|141=Y|553=035FCM001|554=035FCM001|10=114|
8=FIX.4.4|9=0067|35=A|34=1|49=EXC|56=035|52=20190715-15:17:17.818|98=0|108=30|141=Y|10=024|
8=FIX.4.4|9=138|35=R|34=2|49=035|50=035X01|52=20190710-21:23:44.876|56=EXC|131=201907101623342_R|146=1|55=T24Q19F|22=M|762=FUIR|54=1|38=100|1=DP003|453=0|10=062|
8=FIX.4.4|9=0220|35=AI|34=2|49=EXC|56=035|57=035X01|52=20190715-15:17:24.718|131=201907101623342_R|453=3|448=035X01|447=C|452=12|448=035|447=C|452=1|448=035FCM001|447=C|452=36|55=T24Q19F|762=FUIR|48=26622|22=M|54=1|1=DP003|38=100|297=10|10=249|
8=FIX.4.4|9=0180|35=R|34=3|49=EXC|56=035|52=20190715-15:17:24.718|131=20190715-000000000004.00|146=1|55=T24Q19F|762=FUIR|48=26622|22=M|54=1|38=100|453=2|448=035X01|447=C|452=12|448=035|447=C|452=1|10=173|
8=FIX.4.4|9=0178|35=R|34=4|49=EXC|56=035|52=20190715-15:17:39.870|131=20190715-000000000004.00|146=1|55=T24Q19F|762=FUIR|48=26622|22=M|54=1|38=0|453=2|448=035X01|447=C|452=12|448=035|447=C|452=1|10=089|
8=FIX.4.4|9=0287|35=S|34=5|49=EXC|56=035|57=035X01|52=20190715-15:17:39.870|131=201907101623342_R|117=20190715-000000000004.00|55=T24Q19F|762=FUIR|48=26622|22=M|453=4|448=035X01|447=C|452=12|448=035|447=C|452=1|448=035FCM001|447=C|452=36|448=071X01|447=C|452=37|133=1000.000|135=100|62=20190830-22:00:00|10=174|
8=FIX.4.4|9=59|35=0|34=3|49=035|50=035X01|52=20190710-21:24:15.720|56=EXC|10=068|
8=FIX.4.4|9=0049|35=0|34=6|49=EXC|56=035|52=20190715-15:18:09.000|10=183|
8=FIX.4.4|9=110|35=A|34=1|49=035|50=035X01|52=20190710-21:37:38.892|56=EXC|43=N|98=0|108=30|141=Y|553=035FCM001|554=035FCM001|10=120|
8=FIX.4.4|9=0067|35=A|34=1|49=EXC|56=035|52=20190715-15:31:18.775|98=0|108=30|141=Y|10=023|
8=FIX.4.4|9=0049|35=0|34=2|49=EXC|56=035|52=20190715-15:31:48.000|10=177|
8=FIX.4.4|9=59|35=0|34=2|49=035|50=035X01|52=20190710-21:38:09.697|56=EXC|10=088|
8=FIX.4.4|9=0049|35=0|34=3|49=EXC|56=035|52=20190715-15:32:18.000|10=176|
8=FIX.4.4|9=59|35=0|34=3|49=035|50=035X01|52=20190710-21:38:39.708|56=EXC|10=085|
8=FIX.4.4|9=0049|35=0|34=4|49=EXC|56=035|52=20190715-15:32:48.000|10=180|
8=FIX.4.4|9=59|35=0|34=4|49=035|50=035X01|52=20190710-21:39:09.699|56=EXC|10=093|
8=FIX.4.4|9=0049|35=0|34=5|49=EXC|56=035|52=20190715-15:33:18.000|10=179|
8=FIX.4.4|9=59|35=0|34=5|49=035|50=035X01|52=20190710-21:39:39.706|56=EXC|10=086|
8=FIX.4.4|9=0049|35=0|34=6|49=EXC|56=035|52=20190715-15:33:48.000|10=183|
8=FIX.4.4|9=59|35=0|34=6|49=035|50=035X01|52=20190710-21:40:09.697|56=EXC|10=085|
8=FIX.4.4|9=0049|35=0|34=7|49=EXC|56=035|52=20190715-15:34:18.000|10=182|
8=FIX.4.4|9=59|35=0|34=7|49=035|50=035X01|52=20190710-21:40:39.696|56=EXC|10=088|
8=FIX.4.4|9=0049|35=0|34=8|49=EXC|56=035|52=20190715-15:34:48.000|10=186|
8=FIX.4.4|9=59|35=0|34=8|49=035|50=035X01|52=20190710-21:41:09.696|56=EXC|10=087|
8=FIX.4.4|9=0049|35=0|34=9|49=EXC|56=035|52=20190715-15:35:18.000|10=185|
8=FIX.4.4|9=59|35=0|34=9|49=035|50=035X01|52=20190710-21:41:39.698|56=EXC|10=093|
8=FIX.4.4|9=0050|35=0|34=10|49=EXC|56=035|52=20190715-15:35:48.000|10=220|
8=FIX.4.4|9=60|35=0|34=10|49=035|50=035X01|52=20190710-21:42:09.695|56=EXC|10=120|
8=FIX.4.4|9=0050|35=0|34=11|49=EXC|56=035|52=20190715-15:36:18.000|10=219|
8=FIX.4.4|9=60|35=0|34=11|49=035|50=035X01|52=20190710-21:42:39.704|56=EXC|10=115|
8=FIX.4.4|9=0050|35=0|34=12|49=EXC|56=035|52=20190715-15:36:48.000|10=223|
8=FIX.4.4|9=60|35=0|34=12|49=035|50=035X01|52=20190710-21:43:09.700|56=EXC|10=110|
8=FIX.4.4|9=0050|35=0|34=13|49=EXC|56=035|52=20190715-15:37:18.000|10=222|
8=FIX.4.4|9=60|35=0|34=13|49=035|50=035X01|52=20190710-21:43:39.698|56=EXC|10=130|
8=FIX.4.4|9=0050|35=0|34=14|49=EXC|56=035|52=20190715-15:37:48.000|10=226|
8=FIX.4.4|9=60|35=0|34=14|49=035|50=035X01|52=20190710-21:44:09.700|56=EXC|10=113|
8=FIX.4.4|9=0050|35=0|34=15|49=EXC|56=035|52=20190715-15:38:18.000|10=225|
8=FIX.4.4|9=60|35=0|34=15|49=035|50=035X01|52=20190710-21:44:39.708|56=EXC|10=125|
8=FIX.4.4|9=0050|35=0|34=16|49=EXC|56=035|52=20190715-15:38:48.000|10=229|
8=FIX.4.4|9=60|35=0|34=16|49=035|50=035X01|52=20190710-21:45:09.699|56=EXC|10=133|
8=FIX.4.4|9=110|35=A|34=1|49=035|50=035X01|52=20190711-12:57:44.321|56=EXC|43=N|98=0|108=30|141=Y|553=035FCM001|554=035FCM001|10=107|
8=FIX.4.4|9=0067|35=A|34=1|49=EXC|56=035|52=20190716-12:58:20.935|98=0|108=30|141=Y|10=021|
8=FIX.4.4|9=161|35=R|34=2|49=035|50=035X01|52=20190711-12:57:51.310|56=EXC|131=20190711757402_R|146=1|55=T24Q19F|22=M|762=FUIR|54=1|38=100|1=DP003|453=1|448=071X01|447=C|452=37|10=151|
8=FIX.4.4|9=0174|35=AG|34=2|49=EXC|56=035|57=035X01|52=20190716-12:58:27.857|131=20190711757402_R|658=99|146=1|55=T24Q19F|762=FUIR|22=M|58=(47): Secboard is not accepting quotes at this time|10=171|
8=FIX.4.4|9=110|35=A|34=1|49=035|50=035X01|52=20190711-12:59:03.963|56=EXC|43=N|98=0|108=30|141=Y|553=035FCM001|554=035FCM001|10=116|
8=FIX.4.4|9=0067|35=A|34=1|49=EXC|56=035|52=20190716-12:59:40.550|98=0|108=30|141=Y|10=017|
8=FIX.4.4|9=161|35=R|34=2|49=035|50=035X01|52=20190711-12:59:10.940|56=EXC|131=20190711759002_R|146=1|55=T24Q19F|22=M|762=FUIR|54=1|38=100|1=DP003|453=1|448=071X01|447=C|452=37|10=155|
8=FIX.4.4|9=0174|35=AG|34=2|49=EXC|56=035|57=035X01|52=20190716-12:59:47.486|131=20190711759002_R|658=99|146=1|55=T24Q19F|762=FUIR|22=M|58=(47): Secboard is not accepting quotes at this time|10=170|
8=FIX.4.4|9=0049|35=0|34=3|49=EXC|56=035|52=20190716-13:00:17.000|10=169|
8=FIX.4.4|9=59|35=0|34=3|49=035|50=035X01|52=20190711-12:59:41.769|56=EXC|10=089|
8=FIX.4.4|9=110|35=A|34=1|49=035|50=035X01|52=20190711-13:00:48.665|56=EXC|43=N|98=0|108=30|141=Y|553=035FCM001|554=035FCM001|10=111|
8=FIX.4.4|9=0067|35=A|34=1|49=EXC|56=035|52=20190716-13:01:25.255|98=0|108=30|141=Y|10=010|
8=FIX.4.4|9=161|35=R|34=2|49=035|50=035X01|52=20190711-13:00:55.626|56=EXC|131=20190711800452_R|146=1|55=T24Q19F|22=M|762=FUIR|54=1|38=100|1=DP003|453=1|448=071X01|447=C|452=37|10=148|
8=FIX.4.4|9=0243|35=AI|34=2|49=EXC|56=035|57=035X01|52=20190716-13:01:32.169|131=20190711800452_R|453=4|448=035X01|447=C|452=12|448=035|447=C|452=1|448=035FCM001|447=C|452=36|448=071X01|447=C|452=37|55=T24Q19F|762=FUIR|48=26622|22=M|54=1|1=DP003|38=100|297=10|10=087|
8=FIX.4.4|9=0286|35=S|34=3|49=EXC|56=035|57=035X01|52=20190716-13:01:52.265|131=20190711800452_R|117=20190716-000000000001.00|55=T24Q19F|762=FUIR|48=26622|22=M|453=4|448=035X01|447=C|452=12|448=035|447=C|452=1|448=035FCM001|447=C|452=36|448=071X01|447=C|452=37|133=1000.000|135=100|62=20190830-22:00:00|10=105|
8=FIX.4.4|9=59|35=0|34=3|49=035|50=035X01|52=20190711-13:01:26.488|56=EXC|10=078|
8=FIX.4.4|9=142|35=AJ|34=4|49=035|50=035X01|52=20190711-13:01:35.908|56=EXC|54=1|55=T24Q19F|117=20190716-000000000001.00|693=20190711800452_AJ|694=1|762=FUIR|10=047|
8=FIX.4.4|9=0462|35=8|34=4|49=EXC|56=035|57=035X01|52=20190716-13:02:12.455|11=20190711800452_AJ|17=1|37=0|150=F|1080=20190716-000000000001.00|1081=5|453=5|448=035X01|447=C|452=12|448=035|447=C|452=1|448=071X01|447=C|452=37|448=071|447=C|452=17|448=035FCM001|447=C|452=36|55=T24Q19F|762=FUIR|48=26622|22=M|6=1000.000|14=100|31=1000.000|32=100|38=100|39=2|54=1|60=20190716-13:02:12.455|75=20190716|63=1|64=20190716|151=0|1=DP003|381=250000000000.000|880=201907160000000001|828=99|10=096|
8=FIX.4.4|9=0049|35=0|34=5|49=EXC|56=035|52=20190716-13:02:42.000|10=171|
8=FIX.4.4|9=59|35=0|34=5|49=035|50=035X01|52=20190711-13:02:06.487|56=EXC|10=078|
8=FIX.4.4|9=110|35=A|34=1|49=035|50=035X01|52=20190711-13:13:22.953|56=EXC|43=N|98=0|108=30|141=Y|553=035FCM001|554=035FCM001|10=107|
8=FIX.4.4|9=0067|35=A|34=1|49=EXC|56=035|52=20190716-13:13:59.534|98=0|108=30|141=Y|10=020|
8=FIX.4.4|9=161|35=R|34=2|49=035|50=035X01|52=20190711-13:13:29.880|56=EXC|131=20190711813192_R|146=1|55=T24Q19F|22=M|762=FUIR|54=1|38=100|1=DP003|453=1|448=071X01|447=C|452=37|10=160|
8=FIX.4.4|9=0243|35=AI|34=2|49=EXC|56=035|57=035X01|52=20190716-13:14:06.434|131=20190711813192_R|453=4|448=035X01|447=C|452=12|448=035|447=C|452=1|448=035FCM001|447=C|452=36|448=071X01|447=C|452=37|55=T24Q19F|762=FUIR|48=26622|22=M|54=1|1=DP003|38=100|297=10|10=092|
8=FIX.4.4|9=0286|35=S|34=3|49=EXC|56=035|57=035X01|52=20190716-13:14:26.561|131=20190711813192_R|117=20190716-000000000002.00|55=T24Q19F|762=FUIR|48=26622|22=M|453=4|448=035X01|447=C|452=12|448=035|447=C|452=1|448=035FCM001|447=C|452=36|448=071X01|447=C|452=37|133=1000.000|135=100|62=20190830-22:00:00|10=115|
8=FIX.4.4|9=59|35=0|34=3|49=035|50=035X01|52=20190711-13:14:00.752|56=EXC|10=068|
8=FIX.4.4|9=142|35=AJ|34=4|49=035|50=035X01|52=20190711-13:14:10.116|56=EXC|54=1|55=T24Q19F|117=20190716-000000000002.00|693=20190711813192_AJ|694=1|762=FUIR|10=041|
8=FIX.4.4|9=0462|35=8|34=4|49=EXC|56=035|57=035X01|52=20190716-13:14:46.670|11=20190711813192_AJ|17=2|37=0|150=F|1080=20190716-000000000002.00|1081=5|453=5|448=035X01|447=C|452=12|448=035|447=C|452=1|448=071X01|447=C|452=37|448=071|447=C|452=17|448=035FCM001|447=C|452=36|55=T24Q19F|762=FUIR|48=26622|22=M|6=1000.000|14=100|31=1000.000|32=100|38=100|39=2|54=1|60=20190716-13:14:46.670|75=20190716|63=1|64=20190716|151=0|1=DP003|381=250000000000.000|880=201907160000000002|828=99|10=122|
8=FIX.4.4|9=0049|35=0|34=5|49=EXC|56=035|52=20190716-13:15:16.000|10=176|
8=FIX.4.4|9=59|35=5|34=5|49=035|50=035X01|52=20190711-13:14:40.351|56=EXC|10=074|
8=FIX.4.4|9=0049|35=5|34=6|49=EXC|56=035|52=20190716-13:15:16.907|10=198|
8=FIX.4.4|9=110|35=A|34=1|49=035|50=035X01|52=20190711-13:54:41.618|56=EXC|43=N|98=0|108=30|141=Y|553=035FCM001|554=035FCM001|10=111|
8=FIX.4.4|9=0067|35=A|34=1|49=EXC|56=035|52=20190711-13:55:18.226|98=0|108=30|141=Y|10=014|
8=FIX.4.4|9=161|35=R|34=2|49=035|50=035X01|52=20190711-13:54:48.558|56=EXC|131=20190711854382_R|146=1|55=T24Q19F|22=M|762=FUIR|54=1|38=100|1=DP003|453=1|448=071X01|447=C|452=37|10=174|
8=FIX.4.4|9=0243|35=AI|34=2|49=EXC|56=035|57=035X01|52=20190711-13:55:25.144|131=20190711854382_R|453=4|448=035X01|447=C|452=12|448=035|447=C|452=1|448=035FCM001|447=C|452=36|448=071X01|447=C|452=37|55=T24Q19F|762=FUIR|48=26623|22=M|54=1|1=DP003|38=100|297=10|10=098|
8=FIX.4.4|9=0286|35=S|34=3|49=EXC|56=035|57=035X01|52=20190711-13:55:45.383|131=20190711854382_R|117=20190711-000000000001.00|55=T24Q19F|762=FUIR|48=26623|22=M|453=4|448=035X01|447=C|452=12|448=035|447=C|452=1|448=035FCM001|447=C|452=36|448=071X01|447=C|452=37|133=1000.000|135=100|62=20190830-22:00:00|10=119|
8=FIX.4.4|9=59|35=0|34=3|49=035|50=035X01|52=20190711-13:55:19.453|56=EXC|10=081|
8=FIX.4.4|9=142|35=AJ|34=4|49=035|50=035X01|52=20190711-13:55:28.932|56=EXC|54=1|55=T24Q19F|117=20190711-000000000001.00|693=20190711854382_AJ|694=1|762=FUIR|10=061|
8=FIX.4.4|9=0455|35=8|34=4|49=EXC|56=035|57=035X01|52=20190711-13:56:05.517|11=20190711854382_AJ|17=1|37=0|150=F|1080=20190711-000000000001.00|1081=5|453=5|448=035X01|447=C|452=12|448=035|447=C|452=1|448=071X01|447=C|452=37|448=071|447=C|452=17|448=035FCM001|447=C|452=36|55=T24Q19F|762=FUIR|48=26623|22=M|6=1000.000|14=100|31=1000.000|32=100|38=100|39=2|54=1|60=20190711-13:56:05.517|75=20190711|63=1|64=20190711|151=0|1=DP003|381=250000000000.000|880=201907110000000001|10=018|
8=FIX.4.4|9=0049|35=0|34=5|49=EXC|56=035|52=20190711-13:56:35.000|10=177|
8=FIX.4.4|9=59|35=5|34=5|49=035|50=035X01|52=20190711-13:55:59.444|56=EXC|10=092|
8=FIX.4.4|9=0049|35=5|34=6|49=EXC|56=035|52=20190711-13:56:36.019|10=194|
8=FIX.4.4|9=110|35=A|34=1|49=035|50=035X01|52=20190711-15:17:59.965|56=EXC|43=N|98=0|108=30|141=Y|553=035FCM001|554=035FCM001|10=126|
8=FIX.4.4|9=0067|35=A|34=1|49=EXC|56=035|52=20190711-15:18:36.644|98=0|108=30|141=Y|10=019|
8=FIX.4.4|9=162|35=R|34=2|49=035|50=035X01|52=20190711-15:18:07.271|56=EXC|131=201907111017561_R|146=1|55=T24Q19F|22=M|762=FUIR|54=1|38=100|1=DP003|453=1|448=071X01|447=C|452=37|10=203|
8=FIX.4.4|9=0244|35=AI|34=2|49=EXC|56=035|57=035X01|52=20190711-15:18:43.915|131=201907111017561_R|453=4|448=035X01|447=C|452=12|448=035|447=C|452=1|448=035FCM001|447=C|452=36|448=071X01|447=C|452=37|55=T24Q19F|762=FUIR|48=26623|22=M|54=1|1=DP003|38=100|297=10|10=145|
8=FIX.4.4|9=110|35=A|34=1|49=035|50=035X01|52=20190711-15:18:52.018|56=EXC|43=N|98=0|108=30|141=Y|553=035FCM001|554=035FCM001|10=109|
8=FIX.4.4|9=0067|35=A|34=1|49=EXC|56=035|52=20190711-15:19:28.689|98=0|108=30|141=Y|10=030|
8=FIX.4.4|9=162|35=R|34=2|49=035|50=035X01|52=20190711-15:18:59.018|56=EXC|131=201907111018481_R|146=1|55=T24Q19F|22=M|762=FUIR|54=1|38=100|1=DP003|453=1|448=071X01|447=C|452=37|10=211|
8=FIX.4.4|9=0244|35=AI|34=2|49=EXC|56=035|57=035X01|52=20190711-15:19:35.660|131=201907111018481_R|453=4|448=035X01|447=C|452=12|448=035|447=C|452=1|448=035FCM001|447=C|452=36|448=071X01|447=C|452=37|55=T24Q19F|762=FUIR|48=26623|22=M|54=1|1=DP003|38=100|297=10|10=146|
8=FIX.4.4|9=0287|35=S|34=3|49=EXC|56=035|57=035X01|52=20190711-15:19:55.985|131=201907111018481_R|117=20190711-000000000003.00|55=T24Q19F|762=FUIR|48=26623|22=M|453=4|448=035X01|447=C|452=12|448=035|447=C|452=1|448=035FCM001|447=C|452=36|448=071X01|447=C|452=37|133=1000.000|135=100|62=20190830-22:00:00|10=174|
8=FIX.4.4|9=59|35=0|34=3|49=035|50=035X01|52=20190711-15:19:29.884|56=EXC|10=092|
8=FIX.4.4|9=143|35=AJ|34=4|49=035|50=035X01|52=20190711-15:19:39.473|56=EXC|54=1|55=T24Q19F|117=20190711-000000000003.00|693=201907111018481_AJ|694=1|762=FUIR|10=109|
8=FIX.4.4|9=0456|35=8|34=4|49=EXC|56=035|57=035X01|52=20190711-15:20:16.121|11=201907111018481_AJ|17=2|37=0|150=F|1080=20190711-000000000003.00|1081=5|453=5|448=035X01|447=C|452=12|448=035|447=C|452=1|448=071X01|447=C|452=37|448=071|447=C|452=17|448=035FCM001|447=C|452=36|55=T24Q19F|762=FUIR|48=26623|22=M|6=1000.000|14=100|31=1000.000|32=100|38=100|39=2|54=1|60=20190711-15:20:16.121|75=20190711|63=1|64=20190711|151=0|1=DP003|381=250000000000.000|880=201907110000000002|10=036|
8=FIX.4.4|9=162|35=R|34=5|49=035|50=035X01|52=20190711-15:20:04.631|56=EXC|131=201907111018482_R|146=1|55=T24Q19F|22=M|762=FUIR|54=2|38=100|1=DP003|453=1|448=071X01|447=C|452=37|10=200|
8=FIX.4.4|9=0244|35=AI|34=5|49=EXC|56=035|57=035X01|52=20190711-15:20:41.282|131=201907111018482_R|453=4|448=035X01|447=C|452=12|448=035|447=C|452=1|448=035FCM001|447=C|452=36|448=071X01|447=C|452=37|55=T24Q19F|762=FUIR|48=26623|22=M|54=2|1=DP003|38=100|297=10|10=140|
8=FIX.4.4|9=0049|35=0|34=6|49=EXC|56=035|52=20190711-15:21:11.000|10=166|
8=FIX.4.4|9=59|35=0|34=6|49=035|50=035X01|52=20190711-15:20:34.882|56=EXC|10=081|
8=FIX.4.4|9=59|35=5|34=7|49=035|50=035X01|52=20190711-15:20:49.890|56=EXC|10=092|
8=FIX.4.4|9=0049|35=5|34=7|49=EXC|56=035|52=20190711-15:21:26.533|10=189|
8=FIX.4.4|9=110|35=A|34=1|49=035|50=035X01|52=20190711-15:32:08.023|56=EXC|43=N|98=0|108=30|141=Y|553=035FCM001|554=035FCM001|10=102|
8=FIX.4.4|9=0067|35=A|34=1|49=EXC|56=035|52=20190711-15:32:44.705|98=0|108=30|141=Y|10=012|
8=FIX.4.4|9=162|35=R|34=2|49=035|50=035X01|52=20190711-15:32:15.089|56=EXC|131=201907111032042_R|146=1|55=T24Q19F|22=M|762=FUIR|54=2|38=100|1=DP003|453=1|448=071X01|447=C|452=37|10=197|
8=FIX.4.4|9=0244|35=AI|34=2|49=EXC|56=035|57=035X01|52=20190711-15:32:51.752|131=201907111032042_R|453=4|448=035X01|447=C|452=12|448=035|447=C|452=1|448=035FCM001|447=C|452=36|448=071X01|447=C|452=37|55=T24Q19F|762=FUIR|48=26623|22=M|54=2|1=DP003|38=100|297=10|10=131|
8=FIX.4.4|9=0049|35=0|34=3|49=EXC|56=035|52=20190711-15:33:21.000|10=167|
8=FIX.4.4|9=59|35=0|34=3|49=035|50=035X01|52=20190711-15:32:45.969|56=EXC|10=089|
8=FIX.4.4|9=59|35=5|34=4|49=035|50=035X01|52=20190711-15:33:00.995|56=EXC|10=086|
8=FIX.4.4|9=0049|35=5|34=4|49=EXC|56=035|52=20190711-15:33:37.660|10=192|
8=FIX.4.4|9=110|35=A|34=1|49=035|50=035X01|52=20190711-15:34:10.445|56=EXC|43=N|98=0|108=30|141=Y|553=035FCM001|554=035FCM001|10=105|
8=FIX.4.4|9=0067|35=A|34=1|49=EXC|56=035|52=20190711-15:34:47.135|98=0|108=30|141=Y|10=014|
8=FIX.4.4|9=162|35=R|34=2|49=035|50=035X01|52=20190711-15:34:17.366|56=EXC|131=201907111034071_R|146=1|55=T24Q19F|22=M|762=FUIR|54=1|38=100|1=DP003|453=1|448=071X01|447=C|452=37|10=202|
8=FIX.4.4|9=0244|35=AI|34=2|49=EXC|56=035|57=035X01|52=20190711-15:34:54.029|131=201907111034071_R|453=4|448=035X01|447=C|452=12|448=035|447=C|452=1|448=035FCM001|447=C|452=36|448=071X01|447=C|452=37|55=T24Q19F|762=FUIR|48=26623|22=M|54=1|1=DP003|38=100|297=10|10=136|
8=FIX.4.4|9=0287|35=S|34=3|49=EXC|56=035|57=035X01|52=20190711-15:35:14.117|131=201907111034071_R|117=20190711-000000000006.00|55=T24Q19F|762=FUIR|48=26623|22=M|453=4|448=035X01|447=C|452=12|448=035|447=C|452=1|448=035FCM001|447=C|452=36|448=071X01|447=C|452=37|133=1000.000|135=100|62=20190830-22:00:00|10=150|
8=FIX.4.4|9=59|35=0|34=3|49=035|50=035X01|52=20190711-15:34:48.260|56=EXC|10=078|
8=FIX.4.4|9=143|35=AJ|34=4|49=035|50=035X01|52=20190711-15:34:57.586|56=EXC|54=1|55=T24Q19F|117=20190711-000000000006.00|693=201907111034071_AJ|694=1|762=FUIR|10=107|
8=FIX.4.4|9=0456|35=8|34=4|49=EXC|56=035|57=035X01|52=20190711-15:35:34.249|11=201907111034071_AJ|17=3|37=0|150=F|1080=20190711-000000000006.00|1081=5|453=5|448=035X01|447=C|452=12|448=035|447=C|452=1|448=071X01|447=C|452=37|448=071|447=C|452=17|448=035FCM001|447=C|452=36|55=T24Q19F|762=FUIR|48=26623|22=M|6=1000.000|14=100|31=1000.000|32=100|38=100|39=2|54=1|60=20190711-15:35:34.249|75=20190711|63=1|64=20190711|151=0|1=DP003|381=250000000000.000|880=201907110000000003|10=068|
8=FIX.4.4|9=0049|35=0|34=5|49=EXC|56=035|52=20190711-15:36:04.000|10=173|
8=FIX.4.4|9=59|35=5|34=5|49=035|50=035X01|52=20190711-15:35:27.780|56=EXC|10=090|
8=FIX.4.4|9=0049|35=5|34=6|49=EXC|56=035|52=20190711-15:36:04.434|10=190|
8=FIX.4.4|9=110|35=A|34=1|49=035|50=035X01|52=20190711-15:58:02.995|56=EXC|43=N|98=0|108=30|141=Y|553=035FCM001|554=035FCM001|10=122|
8=FIX.4.4|9=0067|35=A|34=1|49=EXC|56=035|52=20190711-15:58:39.701|98=0|108=30|141=Y|10=020|
8=FIX.4.4|9=162|35=R|34=2|49=035|50=035X01|52=20190711-15:58:09.921|56=EXC|131=201907111057592_R|146=1|55=T24Q19F|22=M|762=FUIR|54=2|38=100|1=DP003|453=1|448=071X01|447=C|452=37|10=220|
8=FIX.4.4|9=0244|35=AI|34=2|49=EXC|56=035|57=035X01|52=20190711-15:58:46.593|131=201907111057592_R|453=4|448=035X01|447=C|452=12|448=035|447=C|452=1|448=035FCM001|447=C|452=36|448=071X01|447=C|452=37|55=T24Q19F|762=FUIR|48=26623|22=M|54=2|1=DP003|38=100|297=10|10=163|
8=FIX.4.4|9=0287|35=S|34=3|49=EXC|56=035|57=035X01|52=20190711-15:59:06.668|131=201907111057592_R|117=20190711-000000000007.00|55=T24Q19F|762=FUIR|48=26623|22=M|453=4|448=035X01|447=C|452=12|448=035|447=C|452=1|448=035FCM001|447=C|452=36|448=071X01|447=C|452=37|132=1500.000|134=100|62=20190830-22:00:00|10=185|
8=FIX.4.4|9=59|35=0|34=3|49=035|50=035X01|52=20190711-15:58:40.802|56=EXC|10=078|
8=FIX.4.4|9=143|35=AJ|34=4|49=035|50=035X01|52=20190711-15:58:50.127|56=EXC|54=2|55=T24Q19F|117=20190711-000000000007.00|693=201907111057592_AJ|694=1|762=FUIR|10=112|
8=FIX.4.4|9=0456|35=8|34=4|49=EXC|56=035|57=035X01|52=20190711-15:59:26.808|11=201907111057592_AJ|17=4|37=0|150=F|1080=20190711-000000000007.00|1081=5|453=5|448=035X01|447=C|452=12|448=035|447=C|452=1|448=071X01|447=C|452=37|448=071|447=C|452=17|448=035FCM001|447=C|452=36|55=T24Q19F|762=FUIR|48=26623|22=M|6=1500.000|14=100|31=1500.000|32=100|38=100|39=2|54=2|60=20190711-15:59:26.808|75=20190711|63=1|64=20190711|151=0|1=DP003|381=375000000000.000|880=201907110000000004|10=119|
8=FIX.4.4|9=0049|35=0|34=5|49=EXC|56=035|52=20190711-15:59:56.000|10=185|
8=FIX.4.4|9=59|35=5|34=5|49=035|50=035X01|52=20190711-15:59:20.280|56=EXC|10=084|
8=FIX.4.4|9=0049|35=5|34=6|49=EXC|56=035|52=20190711-15:59:56.962|10=208|
8=FIX.4.4|9=110|35=A|34=1|49=035|50=035X01|52=20190711-16:28:49.907|56=EXC|43=N|98=0|108=30|141=Y|553=035FCM001|554=035FCM001|10=124|
8=FIX.4.4|9=0067|35=A|34=1|49=EXC|56=035|52=20190711-16:29:26.645|98=0|108=30|141=Y|10=022|
8=FIX.4.4|9=162|35=R|34=2|49=035|50=035X01|52=20190711-16:28:56.990|56=EXC|131=201907111128463_R|146=1|55=T24Q19F|22=M|762=FUIR|54=1|38=150|1=DP003|453=1|448=071X01|447=C|452=37|10=226|
8=FIX.4.4|9=0244|35=AI|34=2|49=EXC|56=035|57=035X01|52=20190711-16:29:33.681|131=201907111128463_R|453=4|448=035X01|447=C|452=12|448=035|447=C|452=1|448=035FCM001|447=C|452=36|448=071X01|447=C|452=37|55=T24Q19F|762=FUIR|48=26623|22=M|54=1|1=DP003|38=150|297=10|10=156|
8=FIX.4.4|9=0287|35=S|34=3|49=EXC|56=035|57=035X01|52=20190711-16:29:53.797|131=201907111128463_R|117=20190711-000000000008.00|55=T24Q19F|762=FUIR|48=26623|22=M|453=4|448=035X01|447=C|452=12|448=035|447=C|452=1|448=035FCM001|447=C|452=36|448=071X01|447=C|452=37|133=1230.000|135=150|62=20190830-22:00:00|10=192|
8=FIX.4.4|9=59|35=0|34=3|49=035|50=035X01|52=20190711-16:29:27.867|56=EXC|10=093|
8=FIX.4.4|9=143|35=AJ|34=4|49=035|50=035X01|52=20190711-16:29:37.218|56=EXC|54=1|55=T24Q19F|117=20190711-000000000008.00|693=201907111128463_AJ|694=1|762=FUIR|10=113|
8=FIX.4.4|9=0456|35=8|34=4|49=EXC|56=035|57=035X01|52=20190711-16:30:13.914|11=201907111128463_AJ|17=5|37=0|150=F|1080=20190711-000000000008.00|1081=5|453=5|448=035X01|447=C|452=12|448=035|447=C|452=1|448=071X01|447=C|452=37|448=071|447=C|452=17|448=035FCM001|447=C|452=36|55=T24Q19F|762=FUIR|48=26623|22=M|6=1230.000|14=150|31=1230.000|32=150|38=150|39=2|54=1|60=20190711-16:30:13.914|75=20190711|63=1|64=20190711|151=0|1=DP003|381=461250000000.000|880=201907110000000005|10=103|
8=FIX.4.4|9=0049|35=0|34=5|49=EXC|56=035|52=20190711-16:30:43.000|10=171|
8=FIX.4.4|9=59|35=5|34=5|49=035|50=035X01|52=20190711-16:30:07.404|56=EXC|10=077|
8=FIX.4.4|9=0049|35=5|34=6|49=EXC|56=035|52=20190711-16:30:44.100|10=179|
8=FIX.4.4|9=110|35=A|34=1|49=035|50=035X01|52=20190711-19:05:54.177|56=EXC|43=N|98=0|108=30|141=Y|553=035FCM001|554=035FCM001|10=117|
8=FIX.4.4|9=0067|35=A|34=1|49=EXC|56=035|52=20190711-19:06:31.040|98=0|108=30|141=Y|10=005|
8=FIX.4.4|9=0049|35=0|34=2|49=EXC|56=035|52=20190711-19:07:01.000|10=169|
8=FIX.4.4|9=59|35=0|34=2|49=035|50=035X01|52=20190711-19:06:24.201|56=EXC|10=069|
8=FIX.4.4|9=110|35=A|34=1|49=035|50=035X01|52=20190711-19:06:52.257|56=EXC|43=N|98=0|108=30|141=Y|553=035FCM001|554=035FCM001|10=115|
8=FIX.4.4|9=0067|35=A|34=1|49=EXC|56=035|52=20190711-19:07:29.115|98=0|108=30|141=Y|10=016|
8=FIX.4.4|9=0049|35=0|34=2|49=EXC|56=035|52=20190711-19:07:59.000|10=182|
8=FIX.4.4|9=59|35=0|34=2|49=035|50=035X01|52=20190711-19:07:23.204|56=EXC|10=072|
8=FIX.4.4|9=0049|35=0|34=3|49=EXC|56=035|52=20190711-19:08:29.000|10=181|
8=FIX.4.4|9=59|35=0|34=3|49=035|50=035X01|52=20190711-19:07:53.201|56=EXC|10=073|
8=FIX.4.4|9=0049|35=0|34=4|49=EXC|56=035|52=20190711-19:08:59.000|10=185|
8=FIX.4.4|9=59|35=0|34=4|49=035|50=035X01|52=20190711-19:08:23.213|56=EXC|10=075|
8=FIX.4.4|9=0049|35=0|34=5|49=EXC|56=035|52=20190711-19:09:29.000|10=184|
8=FIX.4.4|9=59|35=0|34=5|49=035|50=035X01|52=20190711-19:08:54.210|56=EXC|10=077|
8=FIX.4.4|9=110|35=A|34=1|49=035|50=035X01|52=20190711-19:09:36.044|56=EXC|43=N|98=0|108=30|141=Y|553=035FCM001|554=035FCM001|10=114|
8=FIX.4.4|9=0067|35=A|34=1|49=EXC|56=035|52=20190711-19:10:12.901|98=0|108=30|141=Y|10=005|
8=FIX.4.4|9=110|35=A|34=1|49=035|50=035X01|52=20190711-19:26:43.909|56=EXC|43=N|98=0|108=30|141=Y|553=035FCM001|554=035FCM001|10=121|
8=FIX.4.4|9=0067|35=A|34=1|49=EXC|56=035|52=20190711-19:27:20.779|98=0|108=30|141=Y|10=025|
8=FIX.4.4|9=0049|35=0|34=2|49=EXC|56=035|52=20190711-19:27:50.000|10=175|
8=FIX.4.4|9=59|35=0|34=2|49=035|50=035X01|52=20190711-19:27:14.852|56=EXC|10=083|
8=FIX.4.4|9=0049|35=0|34=3|49=EXC|56=035|52=20190711-19:28:20.000|10=174|
8=FIX.4.4|9=59|35=0|34=3|49=035|50=035X01|52=20190711-19:27:44.851|56=EXC|10=086|
8=FIX.4.4|9=0049|35=0|34=4|49=EXC|56=035|52=20190711-19:28:50.000|10=178|
8=FIX.4.4|9=59|35=0|34=4|49=035|50=035X01|52=20190711-19:28:14.859|56=EXC|10=093|
8=FIX.4.4|9=110|35=A|34=1|49=035|50=035X01|52=20190711-19:39:14.787|56=EXC|43=N|98=0|108=30|141=Y|553=035FCM001|554=035FCM001|10=127|
8=FIX.4.4|9=0067|35=A|34=1|49=EXC|56=035|52=20190711-19:39:51.659|98=0|108=30|141=Y|10=029|
8=FIX.4.4|9=0049|35=0|34=2|49=EXC|56=035|52=20190711-19:40:21.000|10=168|
8=FIX.4.4|9=59|35=0|34=2|49=035|50=035X01|52=20190711-19:39:45.737|56=EXC|10=092|
8=FIX.4.4|9=59|35=5|34=3|49=035|50=035X01|52=20190711-19:40:07.743|56=EXC|10=085|
8=FIX.4.4|9=0049|35=5|34=3|49=EXC|56=035|52=20190711-19:40:44.582|10=194|
8=FIX.4.4|9=110|35=A|34=1|49=035|50=035X01|52=20190711-19:49:34.205|56=EXC|43=N|98=0|108=30|141=Y|553=035FCM001|554=035FCM001|10=115|
8=FIX.4.4|9=0067|35=A|34=1|49=EXC|56=035|52=20190711-19:50:11.090|98=0|108=30|141=Y|10=007|
8=FIX.4.4|9=110|35=A|34=1|49=035|50=035X01|52=20190711-19:51:02.692|56=EXC|43=N|98=0|108=30|141=Y|553=035FCM001|554=035FCM001|10=113|
8=FIX.4.4|9=0067|35=A|34=1|49=EXC|56=035|52=20190711-19:51:39.582|98=0|108=30|141=Y|10=024|
8=FIX.4.4|9=0049|35=0|34=2|49=EXC|56=035|52=20190711-19:52:09.000|10=177|
8=FIX.4.4|9=59|35=0|34=2|49=035|50=035X01|52=20190711-19:51:33.647|56=EXC|10=083|
8=FIX.4.4|9=0049|35=0|34=3|49=EXC|56=035|52=20190711-19:52:39.000|10=181|
8=FIX.4.4|9=59|35=0|34=3|49=035|50=035X01|52=20190711-19:52:03.648|56=EXC|10=083|
8=FIX.4.4|9=110|35=A|34=1|49=035|50=035X01|52=20190711-19:56:25.711|56=EXC|43=N|98=0|108=30|141=Y|553=035FCM001|554=035FCM001|10=115|
8=FIX.4.4|9=0067|35=A|34=1|49=EXC|56=035|52=20190711-19:57:02.600|98=0|108=30|141=Y|10=011|
8=FIX.4.4|9=0049|35=0|34=2|49=EXC|56=035|52=20190711-19:57:32.000|10=178|
8=FIX.4.4|9=59|35=0|34=2|49=035|50=035X01|52=20190711-19:56:56.668|56=EXC|10=096|
8=FIX.4.4|9=110|35=A|34=1|49=035|50=035X01|52=20190711-20:05:40.375|56=EXC|43=N|98=0|108=30|141=Y|553=035FCM001|554=035FCM001|10=104|
8=FIX.4.4|9=0067|35=A|34=1|49=EXC|56=035|52=20190711-20:06:17.269|98=0|108=30|141=Y|10=014|
8=FIX.4.4|9=59|35=5|34=2|49=035|50=035X01|52=20190711-20:06:08.325|56=EXC|10=075|
8=FIX.4.4|9=0049|35=5|34=2|49=EXC|56=035|52=20190711-20:06:45.180|10=182|
8=FIX.4.4|9=110|35=A|34=1|49=035|50=035X01|52=20190711-20:07:49.138|56=EXC|43=N|98=0|108=30|141=Y|553=035FCM001|554=035FCM001|10=112|
8=FIX.4.4|9=0067|35=A|34=1|49=EXC|56=035|52=20190711-20:08:26.038|98=0|108=30|141=Y|10=010|
8=FIX.4.4|9=0049|35=0|34=2|49=EXC|56=035|52=20190711-20:08:56.000|10=172|
8=FIX.4.4|9=59|35=0|34=2|49=035|50=035X01|52=20190711-20:08:19.152|56=EXC|10=072|
8=FIX.4.4|9=110|35=A|34=1|49=035|50=035X01|52=20190711-20:10:14.097|56=EXC|43=N|98=0|108=30|141=Y|553=035FCM001|554=035FCM001|10=102|
8=FIX.4.4|9=0067|35=A|34=1|49=EXC|56=035|52=20190711-20:10:50.992|98=0|108=30|141=Y|10=009|
8=FIX.4.4|9=59|35=5|34=2|49=035|50=035X01|52=20190711-20:10:42.047|56=EXC|10=069|
8=FIX.4.4|9=0049|35=5|34=2|49=EXC|56=035|52=20190711-20:11:18.914|10=183|
8=FIX.4.4|9=110|35=A|34=1|49=035|50=035X01|52=20190711-22:37:54.547|56=EXC|43=N|98=0|108=30|141=Y|553=035FCM001|554=035FCM001|10=117|
8=FIX.4.4|9=0067|35=A|34=1|49=EXC|56=035|52=20190711-22:43:55.820|98=0|108=30|141=Y|10=012|
8=FIX.4.4|9=110|35=A|34=1|49=035|50=035X01|52=20190711-22:40:54.323|56=EXC|43=N|98=0|108=30|141=Y|553=035FCM001|554=035FCM001|10=103|
8=FIX.4.4|9=0067|35=A|34=1|49=EXC|56=035|52=20190711-22:46:55.598|98=0|108=30|141=Y|10=027|
8=FIX.4.4|9=200|35=AE|34=2|49=035|50=035X01|52=20190711-22:41:01.558|56=EXC|31=100|32=500000000|55=TFIT16240724|60=20190620-16:27:05.000|487=0|571=201907111740511_AE|762=ASPT|856=96|880=201907160000000062|552=1|54=1|10=003|
8=FIX.4.4|9=0170|35=AR|34=2|49=EXC|56=035|57=035X01|52=20190711-22:47:02.807|571=201907111740511_AE|487=0|856=96|939=1|17=6|60=20190711-22:47:02.807|751=99|58=(138): Invalid Trade Number|10=144|
8=FIX.4.4|9=110|35=A|34=1|49=035|50=035X01|52=20190711-23:06:02.029|56=EXC|43=N|98=0|108=30|141=Y|553=035FCM001|554=035FCM001|10=102|
8=FIX.4.4|9=0067|35=A|34=1|49=EXC|56=035|52=20190711-23:12:03.323|98=0|108=30|141=Y|10=000|
8=FIX.4.4|9=195|35=AE|34=2|49=035|50=035X01|52=20190711-23:06:09.170|56=EXC|31=100|32=500000000|55=T24Q19F|60=20190620-16:27:05.000|487=0|571=201907111805581_AE|762=FUIR|856=96|880=201907160000000062|552=1|54=1|10=001|
8=FIX.4.4|9=0170|35=AR|34=2|49=EXC|56=035|57=035X01|52=20190711-23:12:10.441|571=201907111805581_AE|487=0|856=96|939=1|17=7|60=20190711-23:12:10.441|751=99|58=(138): Invalid Trade Number|10=126|
8=FIX.4.4|9=110|35=A|34=1|49=035|50=035X01|52=20190711-23:09:29.621|56=EXC|43=N|98=0|108=30|141=Y|553=035FCM001|554=035FCM001|10=112|
8=FIX.4.4|9=0067|35=A|34=1|49=EXC|56=035|52=20190711-23:15:30.915|98=0|108=30|141=Y|10=010|
8=FIX.4.4|9=190|35=AE|34=2|49=035|50=035X01|52=20190711-23:09:36.746|56=EXC|31=1000|32=100|55=T24Q19F|60=20190620-16:27:05.000|487=0|571=201907111809261_AE|762=FUIR|856=96|880=201907160000000001|552=1|54=1|10=012|
8=FIX.4.4|9=0170|35=AR|34=2|49=EXC|56=035|57=035X01|52=20190711-23:15:38.020|571=201907111809261_AE|487=0|856=96|939=1|17=8|60=20190711-23:15:38.020|751=99|58=(138): Invalid Trade Number|10=138|
8=FIX.4.4|9=110|35=A|34=1|49=035|50=035X01|52=20190711-23:16:56.884|56=EXC|43=N|98=0|108=30|141=Y|553=035FCM001|554=035FCM001|10=121|
8=FIX.4.4|9=0067|35=A|34=1|49=EXC|56=035|52=20190711-23:22:58.175|98=0|108=30|141=Y|10=016|
8=FIX.4.4|9=190|35=AE|34=2|49=035|50=035X01|52=20190711-23:17:03.898|56=EXC|31=1000|32=100|55=T24Q19F|60=20190620-16:27:05.000|487=0|571=201907111816531_AE|762=FUIR|856=96|880=201907160000000001|552=1|54=1|10=011|
8=FIX.4.4|9=0170|35=AR|34=2|49=EXC|56=035|57=035X01|52=20190711-23:23:05.172|571=201907111816531_AE|487=0|856=96|939=1|17=9|60=20190711-23:23:05.172|751=99|58=(138): Invalid Trade Number|10=139|
8=FIX.4.4|9=110|35=A|34=1|49=035|50=035X01|52=20190711-23:20:57.680|56=EXC|43=N|98=0|108=30|141=Y|553=035FCM001|554=035FCM001|10=111|
8=FIX.4.4|9=0067|35=A|34=1|49=EXC|56=035|52=20190711-23:26:58.979|98=0|108=30|141=Y|10=032|
8=FIX.4.4|9=189|35=AE|34=2|49=035|50=035X01|52=20190711-23:21:04.960|56=EXC|31=1000|32=100|55=T24Q19F|60=20190620-16:27:05.000|487=0|571=201907111820541_AE|762=FUIR|856=0|880=201907160000000001|552=1|54=1|10=194|
8=FIX.4.4|9=0171|35=AR|34=2|49=EXC|56=035|57=035X01|52=20190711-23:27:06.235|571=201907111820541_AE|487=0|856=0|939=1|17=10|60=20190711-23:27:06.235|751=99|58=(1053): Invalid counterparty|10=095|
8=FIX.4.4|9=110|35=A|34=1|49=035|50=035X01|52=20190711-23:38:30.390|56=EXC|43=N|98=0|108=30|141=Y|553=035FCM001|554=035FCM001|10=109|
8=FIX.4.4|9=0067|35=A|34=1|49=EXC|56=035|52=20190711-23:44:31.700|98=0|108=30|141=Y|10=005|
8=FIX.4.4|9=190|35=AE|34=2|49=035|50=035X01|52=20190711-23:38:37.732|56=EXC|31=1000|32=100|55=T24Q19F|60=20190620-16:27:05.000|487=0|571=201907111838271_AE|762=FUIR|856=96|880=201907160000000001|552=1|54=1|10=013|
8=FIX.4.4|9=0171|35=AR|34=2|49=EXC|56=035|57=035X01|52=20190711-23:44:39.016|571=201907111838271_AE|487=0|856=96|939=1|17=11|60=20190711-23:44:39.016|751=99|58=(138): Invalid Trade Number|10=200|
8=FIX.4.4|9=110|35=A|34=1|49=035|50=035X01|52=20190711-23:45:03.497|56=EXC|43=N|98=0|108=30|141=Y|553=035FCM001|554=035FCM001|10=115|
8=FIX.4.4|9=0067|35=A|34=1|49=EXC|56=035|52=20190711-23:51:04.816|98=0|108=30|141=Y|10=011|
8=FIX.4.4|9=189|35=AE|34=2|49=035|50=035X01|52=20190711-23:45:10.762|56=EXC|31=1000|32=100|55=T24Q19F|60=20190620-16:27:05.000|487=0|571=201907111845001_AE|762=FUIR|856=0|880=201907160000000001|552=1|54=1|10=195|
8=FIX.4.4|9=0171|35=AR|34=2|49=EXC|56=035|57=035X01|52=20190711-23:51:12.044|571=201907111845001_AE|487=0|856=0|939=1|17=12|60=20190711-23:51:12.044|751=99|58=(1053): Invalid counterparty|10=079|
8=FIX.4.4|9=110|35=A|34=1|49=035|50=035X01|52=20190711-23:50:30.107|56=EXC|43=N|98=0|108=30|141=Y|553=035FCM001|554=035FCM001|10=099|
8=FIX.4.4|9=0067|35=A|34=1|49=EXC|56=035|52=20190711-23:56:31.439|98=0|108=30|141=Y|10=017|
8=FIX.4.4|9=190|35=AE|34=2|49=035|50=035X01|52=20190711-23:50:37.093|56=EXC|31=1000|32=100|55=T24Q19F|60=20190620-16:27:05.000|487=0|571=201907111850261_AE|762=FUIR|856=96|880=201907160000000001|552=1|54=1|10=000|
8=FIX.4.4|9=0171|35=AR|34=2|49=EXC|56=035|57=035X01|52=20190711-23:56:38.387|571=201907111850261_AE|487=0|856=96|939=1|17=13|60=20190711-23:56:38.387|751=99|58=(138): Invalid Trade Number|10=221|
8=FIX.4.4|9=110|35=A|34=1|49=035|50=035X01|52=20190712-00:00:19.667|56=EXC|43=N|98=0|108=30|141=Y|553=035FCM001|554=035FCM001|10=108|
8=FIX.4.4|9=0067|35=A|34=1|49=EXC|56=035|52=20190712-00:06:21.003|98=0|108=30|141=Y|10=250|
8=FIX.4.4|9=190|35=AE|34=2|49=035|50=035X01|52=20190712-00:00:26.723|56=EXC|31=1000|32=100|55=T24Q19F|60=20190620-16:27:05.000|487=0|571=201907111900161_AE|762=FUIR|856=96|880=201907160000000001|552=1|54=1|10=240|
8=FIX.4.4|9=0171|35=AR|34=2|49=EXC|56=035|57=035X01|52=20190712-00:06:28.016|571=201907111900161_AE|487=0|856=96|939=1|17=14|60=20190712-00:06:28.016|751=99|58=(138): Invalid Trade Number|10=175|
