8=FIX.4.4|9=110|35=A|34=1|49=072|50=072X01|52=20190712-20:56:32.043|56=EXC|43=N|98=0|108=30|141=Y|553=072FCM001|554=072FCM001|10=108|
8=FIX.4.4|9=0067|35=A|34=1|49=EXC|56=072|52=20190712-21:31:45.125|98=0|108=30|141=Y|10=007|
8=FIX.4.4|9=0049|35=0|34=2|49=EXC|56=072|52=20190712-21:32:15.000|10=167|
8=FIX.4.4|9=59|35=0|34=2|49=072|50=072X01|52=20190712-20:57:02.977|56=EXC|10=086|
8=FIX.4.4|9=0049|35=0|34=3|49=EXC|56=072|52=20190712-21:32:45.000|10=171|
8=FIX.4.4|9=59|35=0|34=3|49=072|50=072X01|52=20190712-20:57:32.975|56=EXC|10=088|
8=FIX.4.4|9=110|35=A|34=1|49=072|50=072X01|52=20190714-00:01:28.483|56=EXC|43=N|98=0|108=30|141=Y|553=072FCM001|554=072FCM001|10=111|
8=FIX.4.4|9=0067|35=A|34=1|49=EXC|56=072|52=20190716-17:40:38.591|98=0|108=30|141=Y|10=025|
8=FIX.4.4|9=0049|35=0|34=2|49=EXC|56=072|52=20190716-17:41:08.000|10=178|
8=FIX.4.4|9=59|35=0|34=2|49=072|50=072X01|52=20190714-00:01:59.438|56=EXC|10=079|
8=FIX.4.4|9=110|35=A|34=1|49=072|50=072X01|52=20190714-00:12:53.112|56=EXC|43=N|98=0|108=30|141=Y|553=072FCM001|554=072FCM001|10=100|
8=FIX.4.4|9=0067|35=A|34=1|49=EXC|56=072|52=20190716-17:52:03.231|98=0|108=30|141=Y|10=011|
8=FIX.4.4|9=110|35=A|34=1|49=072|50=072X01|52=20190714-01:40:48.909|56=EXC|43=N|98=0|108=30|141=Y|553=072FCM001|554=072FCM001|10=120|
8=FIX.4.4|9=0067|35=A|34=1|49=EXC|56=072|52=20190716-16:00:58.991|98=0|108=30|141=Y|10=026|
8=FIX.4.4|9=0049|35=0|34=2|49=EXC|56=072|52=20190716-16:01:28.000|10=175|
8=FIX.4.4|9=59|35=0|34=2|49=072|50=072X01|52=20190714-01:41:19.894|56=EXC|10=086|
8=FIX.4.4|9=110|35=A|34=1|49=072|50=072X01|52=20190714-01:44:26.401|56=EXC|43=N|98=0|108=30|141=Y|553=072FCM001|554=072FCM001|10=107|
8=FIX.4.4|9=0067|35=A|34=1|49=EXC|56=072|52=20190716-16:04:36.497|98=0|108=30|141=Y|10=027|
8=FIX.4.4|9=0049|35=0|34=2|49=EXC|56=072|52=20190716-16:05:06.000|10=175|
8=FIX.4.4|9=59|35=0|34=2|49=072|50=072X01|52=20190714-01:44:57.377|56=EXC|10=087|
8=FIX.4.4|9=0049|35=0|34=3|49=EXC|56=072|52=20190716-16:05:36.000|10=179|
8=FIX.4.4|9=59|35=0|34=3|49=072|50=072X01|52=20190714-01:45:27.381|56=EXC|10=081|
8=FIX.4.4|9=110|35=A|34=1|49=072|50=072X01|52=20190714-01:58:41.097|56=EXC|43=N|98=0|108=30|141=Y|553=072FCM001|554=072FCM001|10=120|
8=FIX.4.4|9=0067|35=A|34=1|49=EXC|56=072|52=20190716-16:18:51.184|98=0|108=30|141=Y|10=022|
8=FIX.4.4|9=0049|35=0|34=2|49=EXC|56=072|52=20190716-16:19:21.000|10=177|
8=FIX.4.4|9=59|35=0|34=2|49=072|50=072X01|52=20190714-01:59:12.082|56=EXC|10=077|
8=FIX.4.4|9=110|35=A|34=1|49=072|50=072X01|52=20190714-03:12:45.718|56=EXC|43=N|98=0|108=30|141=Y|553=072FCM001|554=072FCM001|10=116|
8=FIX.4.4|9=0067|35=A|34=1|49=EXC|56=072|52=20190716-17:32:55.811|98=0|108=30|141=Y|10=020|
8=FIX.4.4|9=0049|35=0|34=2|49=EXC|56=072|52=20190716-17:33:25.000|10=178|
8=FIX.4.4|9=59|35=0|34=2|49=072|50=072X01|52=20190714-03:13:16.675|56=EXC|10=081|
8=FIX.4.4|9=0049|35=0|34=3|49=EXC|56=072|52=20190716-17:33:55.000|10=182|
8=FIX.4.4|9=59|35=0|34=3|49=072|50=072X01|52=20190714-03:13:46.675|56=EXC|10=085|
8=FIX.4.4|9=110|35=A|34=1|49=072|50=072X01|52=20190714-03:19:37.114|56=EXC|43=N|98=0|108=30|141=Y|553=072FCM001|554=072FCM001|10=114|
8=FIX.4.4|9=0067|35=A|34=1|49=EXC|56=072|52=20190716-17:39:47.210|98=0|108=30|141=Y|10=021|
8=FIX.4.4|9=0049|35=0|34=2|49=EXC|56=072|52=20190716-17:40:17.000|10=177|
8=FIX.4.4|9=110|35=A|34=1|49=072|50=072X01|52=20190714-03:22:44.990|56=EXC|43=N|98=0|108=30|141=Y|553=072FCM001|554=072FCM001|10=118|
8=FIX.4.4|9=0067|35=A|34=1|49=EXC|56=072|52=20190716-17:42:55.082|98=0|108=30|141=Y|10=021|
8=FIX.4.4|9=0049|35=0|34=2|49=EXC|56=072|52=20190716-17:43:25.000|10=179|
8=FIX.4.4|9=59|35=0|34=2|49=072|50=072X01|52=20190714-03:23:15.973|56=EXC|10=082|
8=FIX.4.4|9=59|35=5|34=3|49=072|50=072X01|52=20190714-03:23:27.974|56=EXC|10=092|
8=FIX.4.4|9=0049|35=5|34=3|49=EXC|56=072|52=20190716-17:43:38.052|10=196|
8=FIX.4.4|9=110|35=A|34=1|49=072|50=072X01|52=20190715-13:08:35.756|56=EXC|43=N|98=0|108=30|141=Y|553=072FCM001|554=072FCM001|10=124|
8=FIX.4.4|9=0067|35=A|34=1|49=EXC|56=072|52=20190716-15:06:03.824|98=0|108=30|141=Y|10=016|
8=FIX.4.4|9=0049|35=0|34=2|49=EXC|56=072|52=20190716-15:06:33.000|10=175|
8=FIX.4.4|9=59|35=0|34=2|49=072|50=072X01|52=20190715-13:09:06.680|56=EXC|10=083|
8=FIX.4.4|9=0049|35=0|34=3|49=EXC|56=072|52=20190716-15:07:03.000|10=174|
8=FIX.4.4|9=59|35=0|34=3|49=072|50=072X01|52=20190715-13:09:36.682|56=EXC|10=089|
8=FIX.4.4|9=110|35=A|34=1|49=072|50=072X01|52=20190715-13:10:01.695|56=EXC|43=N|98=0|108=30|141=Y|553=072FCM001|554=072FCM001|10=112|
8=FIX.4.4|9=110|35=A|34=1|49=072|50=072X01|52=20190715-13:27:08.481|56=EXC|43=N|98=0|108=30|141=Y|553=072FCM001|554=072FCM001|10=120|
8=FIX.4.4|9=0067|35=A|34=1|49=EXC|56=072|52=20190716-15:24:36.548|98=0|108=30|141=Y|10=025|
8=FIX.4.4|9=0049|35=0|34=2|49=EXC|56=072|52=20190716-15:25:06.000|10=176|
8=FIX.4.4|9=59|35=0|34=2|49=072|50=072X01|52=20190715-13:27:38.474|56=EXC|10=089|
8=FIX.4.4|9=0049|35=0|34=3|49=EXC|56=072|52=20190716-15:25:36.000|10=180|
8=FIX.4.4|9=59|35=0|34=3|49=072|50=072X01|52=20190715-13:28:08.472|56=EXC|10=086|
8=FIX.4.4|9=0049|35=0|34=4|49=EXC|56=072|52=20190716-15:26:06.000|10=179|
8=FIX.4.4|9=59|35=0|34=4|49=072|50=072X01|52=20190715-13:28:38.464|56=EXC|10=091|
