8=FIX.4.4|9=105|35=A|34=1|49=013|50=013B17|52=20190620-21:31:23.158|56=EXC|98=0|108=30|141=Y|553=013FCM001|554=013FCM001|10=089|
8=FIX.4.4|9=0067|35=A|34=1|49=EXC|56=013|52=20190620-21:31:23.690|98=0|108=30|141=Y|10=003|
8=FIX.4.4|9=105|35=A|34=1|49=013|50=013B17|52=20190620-21:41:55.650|56=EXC|98=0|108=30|141=Y|553=013FCM001|554=013FCM001|10=092|
8=FIX.4.4|9=0067|35=A|34=1|49=EXC|56=013|52=20190620-21:41:55.857|98=0|108=30|141=Y|10=014|
8=FIX.4.4|9=105|35=A|34=1|49=013|50=013B17|52=20190620-21:42:44.122|56=EXC|98=0|108=30|141=Y|553=013FCM001|554=013FCM001|10=085|
8=FIX.4.4|9=0067|35=A|34=1|49=EXC|56=013|52=20190620-21:42:44.234|98=0|108=30|141=Y|10=002|
8=FIX.4.4|9=105|35=A|34=1|49=013|50=013B17|52=20190620-21:54:13.253|56=EXC|98=0|108=30|141=Y|553=013FCM001|554=013FCM001|10=089|
8=FIX.4.4|9=0067|35=A|34=1|49=EXC|56=013|52=20190620-21:54:13.683|98=0|108=30|141=Y|10=009|
8=FIX.4.4|9=105|35=A|34=1|49=013|50=013B17|52=20190620-21:59:27.641|56=EXC|98=0|108=30|141=Y|553=013FCM001|554=013FCM001|10=100|
8=FIX.4.4|9=0067|35=A|34=1|49=EXC|56=013|52=20190620-21:59:28.112|98=0|108=30|141=Y|10=007|
8=FIX.4.4|9=105|35=A|34=1|49=013|50=013B17|52=20190621-13:46:46.522|56=EXC|98=0|108=30|141=Y|553=013FCM001|554=013FCM001|10=097|
8=FIX.4.4|9=0067|35=A|34=1|49=EXC|56=013|52=20190621-13:46:46.542|98=0|108=30|141=Y|10=012|
8=FIX.4.4|9=105|35=A|34=1|49=013|50=013B17|52=20190621-13:51:58.610|56=EXC|98=0|108=30|141=Y|553=013FCM001|554=013FCM001|10=094|
8=FIX.4.4|9=0067|35=A|34=1|49=EXC|56=013|52=20190621-13:51:58.632|98=0|108=30|141=Y|10=011|
8=FIX.4.4|9=105|35=A|34=1|49=013|50=013B17|52=20190621-14:01:12.838|56=EXC|98=0|108=30|141=Y|553=013FCM001|554=013FCM001|10=092|
8=FIX.4.4|9=0067|35=A|34=1|49=EXC|56=013|52=20190621-14:01:12.883|98=0|108=30|141=Y|10=005|
8=FIX.4.4|9=105|35=A|34=1|49=013|50=013B17|52=20190621-14:02:04.394|56=EXC|98=0|108=30|141=Y|553=013FCM001|554=013FCM001|10=091|
8=FIX.4.4|9=0067|35=A|34=1|49=EXC|56=013|52=20190621-14:02:04.432|98=0|108=30|141=Y|10=253|
8=FIX.4.4|9=105|35=A|34=1|49=013|50=013B17|52=20190621-15:58:27.620|56=EXC|98=0|108=30|141=Y|553=013FCM001|554=013FCM001|10=100|
8=FIX.4.4|9=0067|35=A|34=1|49=EXC|56=013|52=20190621-15:58:27.663|98=0|108=30|141=Y|10=020|
8=FIX.4.4|9=105|35=A|34=1|49=013|50=013B17|52=20190621-16:01:48.528|56=EXC|98=0|108=30|141=Y|553=013FCM001|554=013FCM001|10=099|
8=FIX.4.4|9=0067|35=A|34=1|49=EXC|56=013|52=20190621-16:01:48.583|98=0|108=30|141=Y|10=013|
8=FIX.4.4|9=105|35=A|34=1|49=013|50=013B17|52=20190621-16:17:31.401|56=EXC|98=0|108=30|141=Y|553=013FCM001|554=013FCM001|10=088|
8=FIX.4.4|9=0067|35=A|34=1|49=EXC|56=013|52=20190621-16:17:31.447|98=0|108=30|141=Y|10=011|
8=FIX.4.4|9=105|35=A|34=1|49=013|50=013B17|52=20190621-16:24:24.472|56=EXC|98=0|108=30|141=Y|553=013FCM001|554=013FCM001|10=096|
8=FIX.4.4|9=0067|35=A|34=1|49=EXC|56=013|52=20190621-16:24:24.531|98=0|108=30|141=Y|10=005|
8=FIX.4.4|9=105|35=A|34=1|49=013|50=013B17|52=20190621-16:29:19.383|56=EXC|98=0|108=30|141=Y|553=013FCM001|554=013FCM001|10=106|
8=FIX.4.4|9=0067|35=A|34=1|49=EXC|56=013|52=20190621-16:29:19.412|98=0|108=30|141=Y|10=012|
8=FIX.4.4|9=105|35=A|34=1|49=013|50=013B17|52=20190625-14:28:26.126|56=EXC|98=0|108=30|141=Y|553=013FCM001|554=013FCM001|10=100|
8=FIX.4.4|9=0067|35=A|34=1|49=EXC|56=013|52=20190627-14:28:15.849|98=0|108=30|141=Y|10=025|
8=FIX.4.4|9=105|35=A|34=1|49=013|50=013B17|52=20190625-14:51:26.050|56=EXC|98=0|108=30|141=Y|553=013FCM001|554=013FCM001|10=092|
8=FIX.4.4|9=0067|35=A|34=1|49=EXC|56=013|52=20190627-14:51:15.743|98=0|108=30|141=Y|10=014|
8=FIX.4.4|9=105|35=A|34=1|49=013|50=013B17|52=20190625-19:44:15.107|56=EXC|98=0|108=30|141=Y|553=013FCM001|554=013FCM001|10=100|
8=FIX.4.4|9=0067|35=A|34=1|49=EXC|56=013|52=20190627-19:44:15.153|98=0|108=30|141=Y|10=016|
8=FIX.4.4|9=105|35=A|34=1|49=013|50=013B17|52=20190625-19:45:35.142|56=EXC|98=0|108=30|141=Y|553=013FCM001|554=013FCM001|10=102|
8=FIX.4.4|9=0067|35=A|34=1|49=EXC|56=013|52=20190627-19:45:35.177|98=0|108=30|141=Y|10=025|
8=FIX.4.4|9=105|35=A|34=1|49=013|50=013B17|52=20190625-19:54:23.992|56=EXC|98=0|108=30|141=Y|553=013FCM001|554=013FCM001|10=112|
8=FIX.4.4|9=0067|35=A|34=1|49=EXC|56=013|52=20190627-19:54:24.047|98=0|108=30|141=Y|10=019|
8=FIX.4.4|9=105|35=A|34=1|49=013|50=013B17|52=20190625-19:55:23.734|56=EXC|98=0|108=30|141=Y|553=013FCM001|554=013FCM001|10=107|
8=FIX.4.4|9=0067|35=A|34=1|49=EXC|56=013|52=20190627-19:55:23.787|98=0|108=30|141=Y|10=030|
8=FIX.4.4|9=105|35=A|34=1|49=013|50=013B17|52=20190625-20:02:36.670|56=EXC|98=0|108=30|141=Y|553=013FCM001|554=013FCM001|10=094|
8=FIX.4.4|9=0067|35=A|34=1|49=EXC|56=013|52=20190627-20:02:36.703|98=0|108=30|141=Y|10=006|
8=FIX.4.4|9=105|35=A|34=1|49=013|50=013B17|52=20190626-19:09:44.354|56=EXC|98=0|108=30|141=Y|553=013FCM001|554=013FCM001|10=108|
8=FIX.4.4|9=0067|35=A|34=1|49=EXC|56=013|52=20190628-19:09:44.425|98=0|108=30|141=Y|10=022|
8=FIX.4.4|9=105|35=A|34=1|49=013|50=013B17|52=20190626-20:09:29.680|56=EXC|98=0|108=30|141=Y|553=013FCM001|554=013FCM001|10=105|
8=FIX.4.4|9=0067|35=A|34=1|49=EXC|56=013|52=20190628-20:09:29.737|98=0|108=30|141=Y|10=023|
8=FIX.4.4|9=0049|35=0|34=2|49=EXC|56=013|52=20190628-20:09:59.000|10=179|
8=FIX.4.4|9=59|35=0|34=2|49=013|50=013B17|52=20190626-20:10:00.521|56=EXC|10=037|
8=FIX.4.4|9=105|35=A|34=1|49=013|50=013B17|52=20190626-20:11:00.045|56=EXC|98=0|108=30|141=Y|553=013FCM001|554=013FCM001|10=082|
8=FIX.4.4|9=0067|35=A|34=1|49=EXC|56=013|52=20190628-20:11:00.108|98=0|108=30|141=Y|10=253|
8=FIX.4.4|9=0049|35=0|34=2|49=EXC|56=013|52=20190628-20:11:30.000|10=161|
8=FIX.4.4|9=59|35=0|34=2|49=013|50=013B17|52=20190626-20:11:30.807|56=EXC|10=048|
8=FIX.4.4|9=105|35=A|34=1|49=013|50=013B17|52=20190626-20:16:08.012|56=EXC|98=0|108=30|141=Y|553=013FCM001|554=013FCM001|10=089|
8=FIX.4.4|9=0067|35=A|34=1|49=EXC|56=013|52=20190628-20:16:08.083|98=0|108=30|141=Y|10=012|
8=FIX.4.4|9=105|35=A|34=1|49=013|50=013B17|52=20190626-20:20:26.446|56=EXC|98=0|108=30|141=Y|553=013FCM001|554=013FCM001|10=095|
8=FIX.4.4|9=0067|35=A|34=1|49=EXC|56=013|52=20190628-20:20:26.495|98=0|108=30|141=Y|10=014|
8=FIX.4.4|9=105|35=A|34=1|49=013|50=013B17|52=20190626-20:34:32.550|56=EXC|98=0|108=30|141=Y|553=013FCM001|554=013FCM001|10=093|
8=FIX.4.4|9=0067|35=A|34=1|49=EXC|56=013|52=20190628-20:34:32.627|98=0|108=30|141=Y|10=013|
8=FIX.4.4|9=105|35=A|34=1|49=013|50=013B17|52=20190626-20:45:46.434|56=EXC|98=0|108=30|141=Y|553=013FCM001|554=013FCM001|10=101|
8=FIX.4.4|9=0067|35=A|34=1|49=EXC|56=013|52=20190628-20:45:46.493|98=0|108=30|141=Y|10=021|
8=FIX.4.4|9=0049|35=0|34=2|49=EXC|56=013|52=20190628-20:46:16.000|10=173|
8=FIX.4.4|9=59|35=0|34=2|49=013|50=013B17|52=20190626-20:46:17.154|56=EXC|10=056|
8=FIX.4.4|9=0049|35=0|34=3|49=EXC|56=013|52=20190628-20:46:46.000|10=177|
8=FIX.4.4|9=59|35=0|34=3|49=013|50=013B17|52=20190626-20:46:47.153|56=EXC|10=059|
8=FIX.4.4|9=0049|35=0|34=4|49=EXC|56=013|52=20190628-20:47:16.000|10=176|
8=FIX.4.4|9=59|35=0|34=4|49=013|50=013B17|52=20190626-20:47:17.153|56=EXC|10=058|
8=FIX.4.4|9=105|35=A|34=1|49=013|50=013B17|52=20190626-20:47:57.712|56=EXC|98=0|108=30|141=Y|553=013FCM001|554=013FCM001|10=104|
8=FIX.4.4|9=0067|35=A|34=1|49=EXC|56=013|52=20190628-20:47:57.788|98=0|108=30|141=Y|10=032|
8=FIX.4.4|9=105|35=A|34=1|49=013|50=013B17|52=20190626-21:05:42.627|56=EXC|98=0|108=30|141=Y|553=013FCM001|554=013FCM001|10=098|
8=FIX.4.4|9=0067|35=A|34=1|49=EXC|56=013|52=20190628-21:05:42.176|98=0|108=30|141=Y|10=012|
8=FIX.4.4|9=105|35=A|34=1|49=013|50=013B17|52=20190626-21:06:19.803|56=EXC|98=0|108=30|141=Y|553=013FCM001|554=013FCM001|10=099|
8=FIX.4.4|9=0067|35=A|34=1|49=EXC|56=013|52=20190628-21:06:19.323|98=0|108=30|141=Y|10=011|
8=FIX.4.4|9=105|35=A|34=1|49=013|50=013B17|52=20190626-21:07:10.734|56=EXC|98=0|108=30|141=Y|553=013FCM001|554=013FCM001|10=094|
8=FIX.4.4|9=0067|35=A|34=1|49=EXC|56=013|52=20190628-21:07:10.248|98=0|108=30|141=Y|10=009|
8=FIX.4.4|9=105|35=A|34=1|49=013|50=013B17|52=20190626-21:09:36.805|56=EXC|98=0|108=30|141=Y|553=013FCM001|554=013FCM001|10=103|
8=FIX.4.4|9=0067|35=A|34=1|49=EXC|56=013|52=20190628-21:09:36.323|98=0|108=30|141=Y|10=013|
8=FIX.4.4|9=105|35=A|34=1|49=013|50=013B17|52=20190626-21:10:30.827|56=EXC|98=0|108=30|141=Y|553=013FCM001|554=013FCM001|10=093|
8=FIX.4.4|9=0067|35=A|34=1|49=EXC|56=013|52=20190628-21:10:30.361|98=0|108=30|141=Y|10=001|
8=FIX.4.4|9=105|35=A|34=1|49=013|50=013B17|52=20190626-21:11:06.833|56=EXC|98=0|108=30|141=Y|553=013FCM001|554=013FCM001|10=094|
8=FIX.4.4|9=0067|35=A|34=1|49=EXC|56=013|52=20190628-21:11:06.361|98=0|108=30|141=Y|10=005|
8=FIX.4.4|9=105|35=A|34=1|49=013|50=013B17|52=20190626-21:25:27.044|56=EXC|98=0|108=30|141=Y|553=013FCM001|554=013FCM001|10=096|
8=FIX.4.4|9=0067|35=A|34=1|49=EXC|56=013|52=20190628-21:25:26.939|98=0|108=30|141=Y|10=023|
8=FIX.4.4|9=0049|35=0|34=2|49=EXC|56=013|52=20190628-21:25:56.000|10=175|
8=FIX.4.4|9=105|35=A|34=1|49=013|50=013B17|52=20190626-21:35:17.986|56=EXC|98=0|108=30|141=Y|553=013FCM001|554=013FCM001|10=111|
8=FIX.4.4|9=0067|35=A|34=1|49=EXC|56=013|52=20190628-21:35:18.055|98=0|108=30|141=Y|10=014|
8=FIX.4.4|9=0049|35=0|34=2|49=EXC|56=013|52=20190628-21:35:48.000|10=177|
8=FIX.4.4|9=59|35=0|34=2|49=013|50=013B17|52=20190626-21:35:48.024|56=EXC|10=055|
8=FIX.4.4|9=105|35=A|34=1|49=013|50=013B17|52=20190626-21:55:42.126|56=EXC|98=0|108=30|141=Y|553=013FCM001|554=013FCM001|10=097|
8=FIX.4.4|9=0067|35=A|34=1|49=EXC|56=013|52=20190628-21:55:42.182|98=0|108=30|141=Y|10=014|
8=FIX.4.4|9=0049|35=0|34=2|49=EXC|56=013|52=20190628-21:56:12.000|10=171|
8=FIX.4.4|9=59|35=0|34=2|49=013|50=013B17|52=20190626-21:56:12.873|56=EXC|10=061|
8=FIX.4.4|9=99|35=A|34=3|49=013|50=013B17|52=20190626-21:56:28.255|56=EXC|98=0|108=30|553=013FCM001|554=013FCM001|10=026|
8=FIX.4.4|9=0061|35=A|34=3|49=EXC|56=013|52=20190628-21:56:28.304|98=0|108=30|10=222|
8=FIX.4.4|9=0049|35=0|34=4|49=EXC|56=013|52=20190628-21:56:58.000|10=183|
8=FIX.4.4|9=59|35=0|34=4|49=013|50=013B17|52=20190626-21:56:59.137|56=EXC|10=067|
8=FIX.4.4|9=105|35=A|34=1|49=013|50=013B17|52=20190626-22:01:39.822|56=EXC|98=0|108=30|141=Y|553=013FCM001|554=013FCM001|10=098|
8=FIX.4.4|9=0067|35=A|34=1|49=EXC|56=013|52=20190628-22:01:40.037|98=0|108=30|141=Y|10=003|
8=FIX.4.4|9=105|35=A|34=1|49=013|50=013B17|52=20190626-22:02:08.622|56=EXC|98=0|108=30|141=Y|553=013FCM001|554=013FCM001|10=093|
8=FIX.4.4|9=0067|35=A|34=1|49=EXC|56=013|52=20190628-22:02:08.817|98=0|108=30|141=Y|10=014|
8=FIX.4.4|9=105|35=A|34=1|49=013|50=013B17|52=20190627-19:53:15.852|56=EXC|98=0|108=30|141=Y|553=013FCM001|554=013FCM001|10=109|
8=FIX.4.4|9=0067|35=A|34=1|49=EXC|56=013|52=20190627-19:53:15.922|98=0|108=30|141=Y|10=020|
8=FIX.4.4|9=0049|35=0|34=2|49=EXC|56=013|52=20190627-19:53:45.000|10=180|
8=FIX.4.4|9=59|35=0|34=2|49=013|50=013B17|52=20190627-19:53:46.557|56=EXC|10=072|
8=FIX.4.4|9=105|35=A|34=1|49=013|50=013B17|52=20190627-19:54:06.107|56=EXC|98=0|108=30|141=Y|553=013FCM001|554=013FCM001|10=103|
8=FIX.4.4|9=0067|35=A|34=1|49=EXC|56=013|52=20190627-19:54:06.177|98=0|108=30|141=Y|10=023|
8=FIX.4.4|9=105|35=A|34=1|49=013|50=013B17|52=20190628-14:45:15.481|56=EXC|98=0|108=30|141=Y|553=013FCM001|554=013FCM001|10=104|
8=FIX.4.4|9=0067|35=A|34=1|49=EXC|56=013|52=20190628-14:45:15.557|98=0|108=30|141=Y|10=021|
8=FIX.4.4|9=0049|35=0|34=2|49=EXC|56=013|52=20190628-14:45:45.000|10=177|
8=FIX.4.4|9=59|35=0|34=2|49=013|50=013B17|52=20190628-14:45:46.225|56=EXC|10=061|
8=FIX.4.4|9=105|35=A|34=1|49=013|50=013B17|52=20190702-17:24:05.949|56=EXC|98=0|108=30|141=Y|553=013FCM001|554=013FCM001|10=105|
8=FIX.4.4|9=0067|35=A|34=1|49=EXC|56=013|52=20190702-17:24:06.014|98=0|108=30|141=Y|10=002|
8=FIX.4.4|9=0049|35=0|34=2|49=EXC|56=013|52=20190702-17:24:36.000|10=170|
8=FIX.4.4|9=59|35=0|34=2|49=013|50=013B17|52=20190702-17:24:36.020|56=EXC|10=046|
8=FIX.4.4|9=105|35=A|34=1|49=013|50=013B17|52=20190702-17:44:37.362|56=EXC|98=0|108=30|141=Y|553=013FCM001|554=013FCM001|10=101|
8=FIX.4.4|9=0067|35=A|34=1|49=EXC|56=013|52=20190702-17:44:37.409|98=0|108=30|141=Y|10=016|
8=FIX.4.4|9=0049|35=0|34=2|49=EXC|56=013|52=20190702-17:45:07.000|10=171|
8=FIX.4.4|9=59|35=0|34=2|49=013|50=013B17|52=20190702-17:45:08.246|56=EXC|10=058|
8=FIX.4.4|9=105|35=A|34=1|49=013|50=013B17|52=20190702-19:37:35.273|56=EXC|98=0|108=30|141=Y|553=013FCM001|554=013FCM001|10=104|
8=FIX.4.4|9=0067|35=A|34=1|49=EXC|56=013|52=20190702-19:37:35.455|98=0|108=30|141=Y|10=019|
8=FIX.4.4|9=110|35=A|34=1|49=013|50=013B17|52=20190702-20:10:01.213|56=EXC|43=Y|98=0|108=30|141=Y|553=013FCM001|554=013FCM001|10=068|
8=FIX.4.4|9=0067|35=A|34=1|49=EXC|56=013|52=20190702-20:10:01.264|98=0|108=30|141=Y|10=249|
8=FIX.4.4|9=110|35=A|34=1|49=013|50=013B17|52=20190702-21:28:51.920|56=EXC|43=Y|98=0|108=30|141=Y|553=013FCM001|554=013FCM001|10=088|
8=FIX.4.4|9=0067|35=A|34=1|49=EXC|56=013|52=20190702-21:28:52.008|98=0|108=30|141=Y|10=005|
8=FIX.4.4|9=0049|35=0|34=2|49=EXC|56=013|52=20190702-21:29:22.000|10=165|
8=FIX.4.4|9=59|35=0|34=2|49=013|50=013B17|52=20190702-21:29:22.023|56=EXC|10=044|
8=FIX.4.4|9=110|35=A|34=1|49=013|50=013B17|52=20190702-21:33:16.994|56=EXC|43=Y|98=0|108=30|141=Y|553=013FCM001|554=013FCM001|10=096|
8=FIX.4.4|9=0067|35=A|34=1|49=EXC|56=013|52=20190702-21:33:17.060|98=0|108=30|141=Y|10=000|
8=FIX.4.4|9=110|35=A|34=1|49=013|50=013B17|52=20190702-21:36:38.113|56=EXC|43=Y|98=0|108=30|141=Y|553=013FCM001|554=013FCM001|10=086|
8=FIX.4.4|9=0067|35=A|34=1|49=EXC|56=013|52=20190702-21:36:38.183|98=0|108=30|141=Y|10=012|
8=FIX.4.4|9=0049|35=0|34=2|49=EXC|56=013|52=20190702-21:37:08.000|10=168|
8=FIX.4.4|9=59|35=0|34=2|49=013|50=013B17|52=20190702-21:37:09.009|56=EXC|10=052|
8=FIX.4.4|9=110|35=A|34=1|49=013|50=013B17|52=20190702-21:39:52.520|56=EXC|43=Y|98=0|108=30|141=Y|553=013FCM001|554=013FCM001|10=087|
8=FIX.4.4|9=0067|35=A|34=1|49=EXC|56=013|52=20190702-21:39:52.588|98=0|108=30|141=Y|10=020|
8=FIX.4.4|9=110|35=A|34=1|49=013|50=013B17|52=20190703-15:49:22.233|56=EXC|43=Y|98=0|108=30|141=Y|553=013FCM001|554=013FCM001|10=090|
8=FIX.4.4|9=0067|35=A|34=1|49=EXC|56=013|52=20190703-15:55:15.351|98=0|108=30|141=Y|10=009|
8=FIX.4.4|9=110|35=A|34=1|49=013|50=013B17|52=20190703-17:04:33.420|56=EXC|43=Y|98=0|108=30|141=Y|553=013FCM001|554=013FCM001|10=083|
8=FIX.4.4|9=0067|35=A|34=1|49=EXC|56=013|52=20190703-17:10:26.603|98=0|108=30|141=Y|10=004|
8=FIX.4.4|9=110|35=A|34=1|49=013|50=013B17|52=20190703-21:16:40.018|56=EXC|43=Y|98=0|108=30|141=Y|553=013FCM001|554=013FCM001|10=082|
8=FIX.4.4|9=0067|35=A|34=1|49=EXC|56=013|52=20190703-21:22:33.401|98=0|108=30|141=Y|10=252|
8=FIX.4.4|9=0049|35=0|34=2|49=EXC|56=013|52=20190703-21:23:03.000|10=159|
8=FIX.4.4|9=59|35=0|34=2|49=013|50=013B17|52=20190703-21:17:10.966|56=EXC|10=055|
8=FIX.4.4|9=0049|35=0|34=3|49=EXC|56=013|52=20190703-21:23:33.000|10=163|
8=FIX.4.4|9=59|35=0|34=3|49=013|50=013B17|52=20190703-21:17:40.964|56=EXC|10=057|
8=FIX.4.4|9=59|35=5|34=4|49=013|50=013B17|52=20190703-21:17:59.962|56=EXC|10=071|
8=FIX.4.4|9=0049|35=5|34=4|49=EXC|56=013|52=20190703-21:23:53.318|10=183|
