8=FIX.4.4|9=105|35=A|34=1|49=001|50=001B27|52=20190620-21:31:22.983|56=EXC|98=0|108=30|141=Y|553=001FCM001|554=001FCM001|10=083|
8=FIX.4.4|9=0067|35=A|34=1|49=EXC|56=001|52=20190620-21:31:23.543|98=0|108=30|141=Y|10=253|
8=FIX.4.4|9=105|35=A|34=1|49=001|50=001B27|52=20190620-21:41:55.199|56=EXC|98=0|108=30|141=Y|553=001FCM001|554=001FCM001|10=089|
8=FIX.4.4|9=0067|35=A|34=1|49=EXC|56=001|52=20190620-21:41:55.272|98=0|108=30|141=Y|10=002|
8=FIX.4.4|9=105|35=A|34=1|49=001|50=001B27|52=20190620-21:42:43.949|56=EXC|98=0|108=30|141=Y|553=001FCM001|554=001FCM001|10=090|
8=FIX.4.4|9=0067|35=A|34=1|49=EXC|56=001|52=20190620-21:42:44.039|98=0|108=30|141=Y|10=002|
8=FIX.4.4|9=105|35=A|34=1|49=001|50=001B27|52=20190620-21:54:12.974|56=EXC|98=0|108=30|141=Y|553=001FCM001|554=001FCM001|10=087|
8=FIX.4.4|9=0067|35=A|34=1|49=EXC|56=001|52=20190620-21:54:13.334|98=0|108=30|141=Y|10=255|
8=FIX.4.4|9=105|35=A|34=1|49=001|50=001B27|52=20190620-21:59:27.503|56=EXC|98=0|108=30|141=Y|553=001FCM001|554=001FCM001|10=086|
8=FIX.4.4|9=0067|35=A|34=1|49=EXC|56=001|52=20190620-21:59:27.979|98=0|108=30|141=Y|10=024|
8=FIX.4.4|9=105|35=A|34=1|49=001|50=001B27|52=20190621-13:46:46.353|56=EXC|98=0|108=30|141=Y|553=001FCM001|554=001FCM001|10=088|
8=FIX.4.4|9=0067|35=A|34=1|49=EXC|56=001|52=20190621-13:46:46.381|98=0|108=30|141=Y|10=010|
8=FIX.4.4|9=105|35=A|34=1|49=001|50=001B27|52=20190621-13:51:58.396|56=EXC|98=0|108=30|141=Y|553=001FCM001|554=001FCM001|10=094|
8=FIX.4.4|9=0067|35=A|34=1|49=EXC|56=001|52=20190621-13:51:58.420|98=0|108=30|141=Y|10=003|
8=FIX.4.4|9=105|35=A|34=1|49=001|50=001B27|52=20190621-14:01:12.611|56=EXC|98=0|108=30|141=Y|553=001FCM001|554=001FCM001|10=070|
8=FIX.4.4|9=0067|35=A|34=1|49=EXC|56=001|52=20190621-14:01:12.656|98=0|108=30|141=Y|10=000|
8=FIX.4.4|9=105|35=A|34=1|49=001|50=001B27|52=20190621-14:02:04.254|56=EXC|98=0|108=30|141=Y|553=001FCM001|554=001FCM001|10=075|
8=FIX.4.4|9=0067|35=A|34=1|49=EXC|56=001|52=20190621-14:02:04.298|98=0|108=30|141=Y|10=004|
8=FIX.4.4|9=105|35=A|34=1|49=001|50=001B27|52=20190621-15:58:27.223|56=EXC|98=0|108=30|141=Y|553=001FCM001|554=001FCM001|10=088|
8=FIX.4.4|9=0067|35=A|34=1|49=EXC|56=001|52=20190621-15:58:27.335|98=0|108=30|141=Y|10=013|
8=FIX.4.4|9=105|35=A|34=1|49=001|50=001B27|52=20190621-16:01:48.240|56=EXC|98=0|108=30|141=Y|553=001FCM001|554=001FCM001|10=079|
8=FIX.4.4|9=0067|35=A|34=1|49=EXC|56=001|52=20190621-16:01:48.293|98=0|108=30|141=Y|10=008|
8=FIX.4.4|9=105|35=A|34=1|49=001|50=001B27|52=20190621-16:17:31.033|56=EXC|98=0|108=30|141=Y|553=001FCM001|554=001FCM001|10=078|
8=FIX.4.4|9=0067|35=A|34=1|49=EXC|56=001|52=20190621-16:17:31.128|98=0|108=30|141=Y|10=004|
8=FIX.4.4|9=105|35=A|34=1|49=001|50=001B27|52=20190621-16:24:24.104|56=EXC|98=0|108=30|141=Y|553=001FCM001|554=001FCM001|10=077|
8=FIX.4.4|9=0067|35=A|34=1|49=EXC|56=001|52=20190621-16:24:24.170|98=0|108=30|141=Y|10=001|
8=FIX.4.4|9=105|35=A|34=1|49=001|50=001B27|52=20190621-16:29:19.045|56=EXC|98=0|108=30|141=Y|553=001FCM001|554=001FCM001|10=090|
8=FIX.4.4|9=0067|35=A|34=1|49=EXC|56=001|52=20190621-16:29:19.100|98=0|108=30|141=Y|10=003|
8=FIX.4.4|9=105|35=A|34=1|49=001|50=001B27|52=20190625-14:28:25.917|56=EXC|98=0|108=30|141=Y|553=001FCM001|554=001FCM001|10=096|
8=FIX.4.4|9=0067|35=A|34=1|49=EXC|56=001|52=20190627-14:28:15.611|98=0|108=30|141=Y|10=009|
8=FIX.4.4|9=105|35=A|34=1|49=001|50=001B27|52=20190625-14:51:25.795|56=EXC|98=0|108=30|141=Y|553=001FCM001|554=001FCM001|10=096|
8=FIX.4.4|9=0067|35=A|34=1|49=EXC|56=001|52=20190627-14:51:15.524|98=0|108=30|141=Y|10=008|
8=FIX.4.4|9=105|35=A|34=1|49=001|50=001B27|52=20190625-19:44:14.824|56=EXC|98=0|108=30|141=Y|553=001FCM001|554=001FCM001|10=094|
8=FIX.4.4|9=0067|35=A|34=1|49=EXC|56=001|52=20190627-19:44:14.903|98=0|108=30|141=Y|10=015|
8=FIX.4.4|9=105|35=A|34=1|49=001|50=001B27|52=20190625-19:45:34.941|56=EXC|98=0|108=30|141=Y|553=001FCM001|554=001FCM001|10=097|
8=FIX.4.4|9=0067|35=A|34=1|49=EXC|56=001|52=20190627-19:45:34.989|98=0|108=30|141=Y|10=032|
8=FIX.4.4|9=105|35=A|34=1|49=001|50=001B27|52=20190625-19:54:23.623|56=EXC|98=0|108=30|141=Y|553=001FCM001|554=001FCM001|10=092|
8=FIX.4.4|9=0067|35=A|34=1|49=EXC|56=001|52=20190627-19:54:23.721|98=0|108=30|141=Y|10=014|
8=FIX.4.4|9=105|35=A|34=1|49=001|50=001B27|52=20190625-19:55:23.456|56=EXC|98=0|108=30|141=Y|553=001FCM001|554=001FCM001|10=097|
8=FIX.4.4|9=0067|35=A|34=1|49=EXC|56=001|52=20190627-19:55:23.500|98=0|108=30|141=Y|10=010|
8=FIX.4.4|9=105|35=A|34=1|49=001|50=001B27|52=20190625-20:02:36.326|56=EXC|98=0|108=30|141=Y|553=001FCM001|554=001FCM001|10=081|
8=FIX.4.4|9=0067|35=A|34=1|49=EXC|56=001|52=20190627-20:02:36.402|98=0|108=30|141=Y|10=255|
