8=FIX.4.4|9=110|35=A|34=1|49=029|50=029B17|52=20190723-14:41:05.977|56=EXC|43=N|98=0|108=30|141=Y|553=029FCM001|554=029FCM001|10=116|
8=FIX.4.4|9=0067|35=A|34=1|49=EXC|56=029|52=20190723-14:41:06.083|98=0|108=30|141=Y|10=014|
8=FIX.4.4|9=187|35=AE|34=2|49=029|50=029B17|52=20190723-14:41:18.283|56=EXC|31=120|32=100|55=T24U19F|60=20190723-14:30:36.883|487=0|571=2019072394104_AE|762=AFIR|856=96|880=201907230000000002|552=1|54=1|10=114|
8=FIX.4.4|9=0130|35=AR|34=2|49=EXC|56=029|57=029B17|52=20190723-14:41:18.335|571=2019072394104_AE|487=0|856=96|939=0|17=5|60=20190723-14:41:18.335|10=134|
8=FIX.4.4|9=0359|35=AE|34=3|49=EXC|56=029|57=029B17|52=20190723-14:41:45.098|571=2019072394104_AE|487=2|856=99|17=6|829=98|573=0|15=COP|880=201907230000000002|75=20190723|55=T24U19F|762=AFIR|48=27227|22=M|31=120.000|32=100|381=30000000000.000|60=20190723-14:41:45.098|64=20190723|552=1|54=1|453=3|448=029B17|447=C|452=12|448=029|447=C|452=1|448=029FCM001|447=C|452=36|1=RT001|10=020|
8=FIX.4.4|9=59|35=0|34=3|49=029|50=029B17|52=20190723-14:41:48.921|56=EXC|10=073|
8=FIX.4.4|9=0049|35=0|34=4|49=EXC|56=029|52=20190723-14:42:15.000|10=176|
8=FIX.4.4|9=59|35=0|34=4|49=029|50=029B17|52=20190723-14:42:18.919|56=EXC|10=079|
8=FIX.4.4|9=0049|35=0|34=5|49=EXC|56=029|52=20190723-14:42:45.000|10=180|
8=FIX.4.4|9=59|35=0|34=5|49=029|50=029B17|52=20190723-14:42:48.919|56=EXC|10=083|
8=FIX.4.4|9=110|35=A|34=1|49=029|50=029B17|52=20190723-15:21:29.808|56=EXC|43=N|98=0|108=30|141=Y|553=029FCM001|554=029FCM001|10=114|
8=FIX.4.4|9=0067|35=A|34=1|49=EXC|56=029|52=20190723-15:21:29.916|98=0|108=30|141=Y|10=023|
8=FIX.4.4|9=188|35=AE|34=2|49=029|50=029B17|52=20190723-15:21:42.175|56=EXC|31=120|32=100|55=T24U19F|60=20190723-15:19:48.504|487=0|571=20190723102128_AE|762=AFIR|856=96|880=201907230000000003|552=1|54=1|10=157|
8=FIX.4.4|9=0131|35=AR|34=2|49=EXC|56=029|57=029B17|52=20190723-15:21:42.222|571=20190723102128_AE|487=0|856=96|939=0|17=8|60=20190723-15:21:42.222|10=164|
8=FIX.4.4|9=0360|35=AE|34=3|49=EXC|56=029|57=029B17|52=20190723-15:22:09.022|571=20190723102128_AE|487=2|856=99|17=9|829=98|573=0|15=COP|880=201907230000000003|75=20190723|55=T24U19F|762=AFIR|48=27227|22=M|31=120.000|32=100|381=30000000000.000|60=20190723-15:22:09.022|64=20190723|552=1|54=1|453=3|448=029B17|447=C|452=12|448=029|447=C|452=1|448=029FCM001|447=C|452=36|1=RT001|10=034|
8=FIX.4.4|9=59|35=0|34=3|49=029|50=029B17|52=20190723-15:22:12.782|56=EXC|10=069|
8=FIX.4.4|9=0049|35=0|34=4|49=EXC|56=029|52=20190723-15:22:39.000|10=181|
8=FIX.4.4|9=59|35=0|34=4|49=029|50=029B17|52=20190723-15:22:42.784|56=EXC|10=075|
8=FIX.4.4|9=110|35=A|34=1|49=029|50=029B17|52=20190723-15:30:28.576|56=EXC|43=N|98=0|108=30|141=Y|553=029FCM001|554=029FCM001|10=115|
8=FIX.4.4|9=0067|35=A|34=1|49=EXC|56=029|52=20190723-15:30:28.649|98=0|108=30|141=Y|10=025|
8=FIX.4.4|9=188|35=AE|34=2|49=029|50=029B17|52=20190723-15:30:40.832|56=EXC|31=120|32=100|55=T24U19F|60=20190723-15:28:57.825|487=0|571=20190723103027_AE|762=AFIR|856=96|880=201907230000000004|552=1|54=1|10=161|
8=FIX.4.4|9=0132|35=AR|34=2|49=EXC|56=029|57=029B17|52=20190723-15:30:40.878|571=20190723103027_AE|487=0|856=96|939=0|17=11|60=20190723-15:30:40.878|10=236|
8=FIX.4.4|9=0361|35=AE|34=3|49=EXC|56=029|57=029B17|52=20190723-15:31:07.757|571=20190723103027_AE|487=2|856=99|17=12|829=98|573=0|15=COP|880=201907230000000004|75=20190723|55=T24U19F|762=AFIR|48=27227|22=M|31=120.000|32=100|381=30000000000.000|60=20190723-15:31:07.757|64=20190723|552=1|54=1|453=3|448=029B17|447=C|452=12|448=029|447=C|452=1|448=029FCM001|447=C|452=36|1=RT001|10=103|
8=FIX.4.4|9=59|35=0|34=3|49=029|50=029B17|52=20190723-15:31:11.560|56=EXC|10=062|
8=FIX.4.4|9=0458|35=8|34=4|49=EXC|56=029|57=029B17|52=20190723-15:31:31.198|11=156389573840221|17=13|37=0|150=H|1080=20190723-000000000004.00|1081=5|453=5|448=029B17|447=C|452=12|448=029|447=C|452=1|448=037B18|447=C|452=37|448=037|447=C|452=17|448=029FCM001|447=C|452=36|55=T24U19F|762=AFIR|48=27227|22=M|6=120.000|14=100|31=120.000|32=100|38=100|39=2|54=1|60=20190723-15:31:31.198|75=20190723|63=1|64=20190723|151=0|1=RT001|381=30000000000.000|880=201907230000000004|828=99|10=093|
8=FIX.4.4|9=59|35=0|34=4|49=029|50=029B17|52=20190723-15:31:41.563|56=EXC|10=069|
8=FIX.4.4|9=0049|35=0|34=5|49=EXC|56=029|52=20190723-15:32:01.000|10=172|
8=FIX.4.4|9=59|35=0|34=5|49=029|50=029B17|52=20190723-15:32:11.567|56=EXC|10=072|
8=FIX.4.4|9=0049|35=0|34=6|49=EXC|56=029|52=20190723-15:32:31.000|10=176|
8=FIX.4.4|9=59|35=0|34=6|49=029|50=029B17|52=20190723-15:32:41.572|56=EXC|10=072|
8=FIX.4.4|9=0049|35=0|34=7|49=EXC|56=029|52=20190723-15:33:01.000|10=175|
8=FIX.4.4|9=110|35=A|34=1|49=029|50=029B17|52=20190723-15:51:18.539|56=EXC|43=N|98=0|108=30|141=Y|553=029FCM001|554=029FCM001|10=116|
8=FIX.4.4|9=0067|35=A|34=1|49=EXC|56=029|52=20190723-15:51:18.645|98=0|108=30|141=Y|10=023|
8=FIX.4.4|9=188|35=AE|34=2|49=029|50=029B17|52=20190723-15:51:30.965|56=EXC|31=120|32=100|55=T24U19F|60=20190723-15:49:44.091|487=0|571=20190723105117_AE|762=AFIR|856=96|880=201907230000000005|552=1|54=1|10=167|
8=FIX.4.4|9=0132|35=AR|34=2|49=EXC|56=029|57=029B17|52=20190723-15:51:31.013|571=20190723105117_AE|487=0|856=96|939=0|17=15|60=20190723-15:51:31.013|10=210|
8=FIX.4.4|9=0361|35=AE|34=3|49=EXC|56=029|57=029B17|52=20190723-15:51:57.885|571=20190723105117_AE|487=2|856=99|17=16|829=98|573=0|15=COP|880=201907230000000005|75=20190723|55=T24U19F|762=AFIR|48=27227|22=M|31=120.000|32=100|381=30000000000.000|60=20190723-15:51:57.885|64=20190723|552=1|54=1|453=3|448=029B17|447=C|452=12|448=029|447=C|452=1|448=029FCM001|447=C|452=36|1=RT001|10=128|
8=FIX.4.4|9=59|35=0|34=3|49=029|50=029B17|52=20190723-15:52:01.531|56=EXC|10=062|
8=FIX.4.4|9=0458|35=8|34=4|49=EXC|56=029|57=029B17|52=20190723-15:52:21.057|11=156389698471823|17=17|37=0|150=H|1080=20190723-000000000005.00|1081=5|453=5|448=029B17|447=C|452=12|448=029|447=C|452=1|448=037B18|447=C|452=37|448=037|447=C|452=17|448=029FCM001|447=C|452=36|55=T24U19F|762=AFIR|48=27227|22=M|6=120.000|14=100|31=120.000|32=100|38=100|39=2|54=1|60=20190723-15:52:21.057|75=20190723|63=1|64=20190723|151=0|1=RT001|381=30000000000.000|880=201907230000000005|828=99|10=107|
8=FIX.4.4|9=59|35=0|34=4|49=029|50=029B17|52=20190723-15:52:31.525|56=EXC|10=069|
8=FIX.4.4|9=0049|35=0|34=5|49=EXC|56=029|52=20190723-15:52:51.000|10=179|
8=FIX.4.4|9=110|35=A|34=1|49=029|50=029B17|52=20190723-16:20:47.784|56=EXC|43=N|98=0|108=30|141=Y|553=029FCM001|554=029FCM001|10=117|
8=FIX.4.4|9=0067|35=A|34=1|49=EXC|56=029|52=20190723-16:20:47.957|98=0|108=30|141=Y|10=028|
8=FIX.4.4|9=189|35=AE|34=2|49=029|50=029B17|52=20190723-16:21:00.123|56=EXC|31=120|32=100|55=T24U19F|60=20190723-16:19:37.134|487=0|571=201907231120451_AE|762=AFIR|856=96|880=201907230000000006|552=1|54=1|10=195|
8=FIX.4.4|9=0133|35=AR|34=2|49=EXC|56=029|57=029B17|52=20190723-16:21:00.186|571=201907231120451_AE|487=0|856=96|939=0|17=19|60=20190723-16:21:00.186|10=016|
8=FIX.4.4|9=0362|35=AE|34=3|49=EXC|56=029|57=029B17|52=20190723-16:21:26.920|571=201907231120451_AE|487=2|856=99|17=20|829=98|573=0|15=COP|880=201907230000000006|75=20190723|55=T24U19F|762=AFIR|48=27227|22=M|31=120.000|32=100|381=30000000000.000|60=20190723-16:21:26.920|64=20190723|552=1|54=1|453=3|448=029B17|447=C|452=12|448=029|447=C|452=1|448=029FCM001|447=C|452=36|1=RT001|10=140|
8=FIX.4.4|9=59|35=0|34=3|49=029|50=029B17|52=20190723-16:21:30.760|56=EXC|10=065|
8=FIX.4.4|9=0458|35=8|34=4|49=EXC|56=029|57=029B17|52=20190723-16:21:50.180|11=156389877783425|17=21|37=0|150=H|1080=20190723-000000000006.00|1081=5|453=5|448=029B17|447=C|452=12|448=029|447=C|452=1|448=037B18|447=C|452=37|448=037|447=C|452=17|448=029FCM001|447=C|452=36|55=T24U19F|762=AFIR|48=27227|22=M|6=120.000|14=100|31=120.000|32=100|38=100|39=2|54=1|60=20190723-16:21:50.180|75=20190723|63=1|64=20190723|151=0|1=RT001|381=30000000000.000|880=201907230000000006|828=99|10=099|
8=FIX.4.4|9=59|35=0|34=4|49=029|50=029B17|52=20190723-16:22:00.759|56=EXC|10=072|
8=FIX.4.4|9=0049|35=0|34=5|49=EXC|56=029|52=20190723-16:22:20.000|10=173|
8=FIX.4.4|9=59|35=0|34=5|49=029|50=029B17|52=20190723-16:22:30.768|56=EXC|10=076|
8=FIX.4.4|9=0049|35=0|34=6|49=EXC|56=029|52=20190723-16:22:50.000|10=177|
8=FIX.4.4|9=59|35=0|34=6|49=029|50=029B17|52=20190723-16:23:00.763|56=EXC|10=070|
8=FIX.4.4|9=110|35=A|34=1|49=029|50=029B17|52=20190723-16:47:43.010|56=EXC|43=N|98=0|108=30|141=Y|553=029FCM001|554=029FCM001|10=104|
8=FIX.4.4|9=0067|35=A|34=1|49=EXC|56=029|52=20190723-16:47:43.115|98=0|108=30|141=Y|10=019|
8=FIX.4.4|9=189|35=AE|34=2|49=029|50=029B17|52=20190723-16:47:55.278|56=EXC|31=120|32=100|55=T24U19F|60=20190723-16:42:10.442|487=0|571=201907231147401_AE|762=AFIR|856=96|880=201907230000000007|552=1|54=1|10=218|
8=FIX.4.4|9=0133|35=AR|34=2|49=EXC|56=029|57=029B17|52=20190723-16:47:55.344|571=201907231147401_AE|487=0|856=96|939=0|17=23|60=20190723-16:47:55.344|10=043|
8=FIX.4.4|9=0049|35=0|34=3|49=EXC|56=029|52=20190723-16:48:25.000|10=184|
8=FIX.4.4|9=59|35=0|34=3|49=029|50=029B17|52=20190723-16:48:25.975|56=EXC|10=086|
8=FIX.4.4|9=0049|35=0|34=4|49=EXC|56=029|52=20190723-16:48:55.000|10=188|
8=FIX.4.4|9=59|35=0|34=4|49=029|50=029B17|52=20190723-16:48:55.979|56=EXC|10=094|
8=FIX.4.4|9=0049|35=0|34=5|49=EXC|56=029|52=20190723-16:49:25.000|10=187|
8=FIX.4.4|9=59|35=0|34=5|49=029|50=029B17|52=20190723-16:49:25.975|56=EXC|10=089|
8=FIX.4.4|9=0049|35=0|34=6|49=EXC|56=029|52=20190723-16:49:55.000|10=191|
8=FIX.4.4|9=59|35=0|34=6|49=029|50=029B17|52=20190723-16:49:55.975|56=EXC|10=093|
8=FIX.4.4|9=0049|35=0|34=7|49=EXC|56=029|52=20190723-16:50:25.000|10=181|
8=FIX.4.4|9=59|35=0|34=7|49=029|50=029B17|52=20190723-16:50:25.989|56=EXC|10=088|
8=FIX.4.4|9=0049|35=0|34=8|49=EXC|56=029|52=20190723-16:50:55.000|10=185|
8=FIX.4.4|9=59|35=0|34=8|49=029|50=029B17|52=20190723-16:50:55.990|56=EXC|10=084|
8=FIX.4.4|9=0049|35=0|34=9|49=EXC|56=029|52=20190723-16:51:25.000|10=184|
8=FIX.4.4|9=59|35=0|34=9|49=029|50=029B17|52=20190723-16:51:26.975|56=EXC|10=087|
8=FIX.4.4|9=0050|35=0|34=10|49=EXC|56=029|52=20190723-16:51:55.000|10=219|
8=FIX.4.4|9=60|35=0|34=10|49=029|50=029B17|52=20190723-16:51:56.975|56=EXC|10=122|
8=FIX.4.4|9=0050|35=0|34=11|49=EXC|56=029|52=20190723-16:52:25.000|10=218|
8=FIX.4.4|9=60|35=0|34=11|49=029|50=029B17|52=20190723-16:52:26.975|56=EXC|10=121|
8=FIX.4.4|9=0050|35=0|34=12|49=EXC|56=029|52=20190723-16:52:55.000|10=222|
8=FIX.4.4|9=60|35=0|34=12|49=029|50=029B17|52=20190723-16:52:56.985|56=EXC|10=126|
8=FIX.4.4|9=0050|35=0|34=13|49=EXC|56=029|52=20190723-16:53:25.000|10=221|
8=FIX.4.4|9=60|35=0|34=13|49=029|50=029B17|52=20190723-16:53:26.976|56=EXC|10=125|
8=FIX.4.4|9=0050|35=0|34=14|49=EXC|56=029|52=20190723-16:53:55.000|10=225|
8=FIX.4.4|9=60|35=0|34=14|49=029|50=029B17|52=20190723-16:53:56.989|56=EXC|10=133|
8=FIX.4.4|9=0050|35=0|34=15|49=EXC|56=029|52=20190723-16:54:25.000|10=224|
8=FIX.4.4|9=60|35=0|34=15|49=029|50=029B17|52=20190723-16:54:27.976|56=EXC|10=129|
8=FIX.4.4|9=110|35=A|34=1|49=029|50=029B17|52=20190723-19:42:33.042|56=EXC|43=N|98=0|108=30|141=Y|553=029FCM001|554=029FCM001|10=106|
8=FIX.4.4|9=0067|35=A|34=1|49=EXC|56=029|52=20190723-19:42:33.181|98=0|108=30|141=Y|10=019|
8=FIX.4.4|9=189|35=AE|34=2|49=029|50=029B17|52=20190723-19:42:45.336|56=EXC|31=120|32=100|55=T24U19F|60=20190723-19:41:00.058|487=0|571=201907231442301_AE|762=AFIR|856=96|880=201907230000000008|552=1|54=1|10=212|
8=FIX.4.4|9=0133|35=AR|34=2|49=EXC|56=029|57=029B17|52=20190723-19:42:45.417|571=201907231442301_AE|487=0|856=96|939=0|17=25|60=20190723-19:42:45.417|10=038|
8=FIX.4.4|9=0362|35=AE|34=3|49=EXC|56=029|57=029B17|52=20190723-19:43:12.267|571=201907231442301_AE|487=2|856=99|17=26|829=98|573=0|15=COP|880=201907230000000008|75=20190723|55=T24U19F|762=AFIR|48=27227|22=M|31=120.000|32=100|381=30000000000.000|60=20190723-19:43:12.267|64=20190723|552=1|54=1|453=3|448=029B17|447=C|452=12|448=029|447=C|452=1|448=029FCM001|447=C|452=36|1=RT001|10=161|
8=FIX.4.4|9=59|35=0|34=3|49=029|50=029B17|52=20190723-19:43:15.986|56=EXC|10=085|
8=FIX.4.4|9=0458|35=8|34=4|49=EXC|56=029|57=029B17|52=20190723-19:43:35.345|11=156391086124429|17=27|37=0|150=H|1080=20190723-000000000008.00|1081=5|453=5|448=029B17|447=C|452=12|448=029|447=C|452=1|448=037B18|447=C|452=37|448=037|447=C|452=17|448=029FCM001|447=C|452=36|55=T24U19F|762=AFIR|48=27227|22=M|6=120.000|14=100|31=120.000|32=100|38=100|39=2|54=1|60=20190723-19:43:35.345|75=20190723|63=1|64=20190723|151=0|1=RT001|381=30000000000.000|880=201907230000000008|828=99|10=113|
8=FIX.4.4|9=59|35=0|34=4|49=029|50=029B17|52=20190723-19:43:45.997|56=EXC|10=091|
8=FIX.4.4|9=0049|35=0|34=5|49=EXC|56=029|52=20190723-19:44:05.000|10=183|
8=FIX.4.4|9=59|35=5|34=5|49=029|50=029B17|52=20190723-19:44:09.592|56=EXC|10=089|
8=FIX.4.4|9=0055|35=5|34=6|49=EXC|56=029|52=20190723-19:44:09.664|369=5|10=227|
8=FIX.4.4|9=110|35=A|34=1|49=029|50=029B17|52=20190723-21:39:14.662|56=EXC|43=N|98=0|108=30|141=Y|553=029FCM001|554=029FCM001|10=112|
8=FIX.4.4|9=0067|35=A|34=1|49=EXC|56=029|52=20190723-14:34:02.786|98=0|108=30|141=Y|10=022|
8=FIX.4.4|9=189|35=AE|34=2|49=029|50=029B17|52=20190723-21:39:21.864|56=EXC|31=120|32=100|55=T24U19F|60=20190723-14:33:22.744|487=0|571=201907231639121_AE|762=AFIR|856=96|880=201907230000000001|552=1|54=1|10=214|
8=FIX.4.4|9=0132|35=AR|34=2|49=EXC|56=029|57=029B17|52=20190723-14:34:09.935|571=201907231639121_AE|487=0|856=96|939=0|17=2|60=20190723-14:34:09.935|10=250|
8=FIX.4.4|9=0361|35=AE|34=3|49=EXC|56=029|57=029B17|52=20190723-14:34:28.186|571=201907231639121_AE|487=2|856=99|17=3|829=98|573=0|15=COP|880=201907230000000001|75=20190723|55=T24U19F|762=AFIR|48=27227|22=M|31=120.000|32=100|381=30000000000.000|60=20190723-14:34:28.186|64=20190723|552=1|54=1|453=3|448=029B17|447=C|452=12|448=029|447=C|452=1|448=029FCM001|447=C|452=36|1=RT001|10=112|
8=FIX.4.4|9=59|35=0|34=3|49=029|50=029B17|52=20190723-21:39:52.603|56=EXC|10=070|
8=FIX.4.4|9=0457|35=8|34=4|49=EXC|56=029|57=029B17|52=20190723-14:34:41.217|11=156391791479432|17=4|37=0|150=H|1080=20190723-000000000001.00|1081=5|453=5|448=029B17|447=C|452=12|448=029|447=C|452=1|448=037B18|447=C|452=37|448=037|447=C|452=17|448=029FCM001|447=C|452=36|55=T24U19F|762=AFIR|48=27227|22=M|6=120.000|14=100|31=120.000|32=100|38=100|39=2|54=1|60=20190723-14:34:41.217|75=20190723|63=1|64=20190723|151=0|1=RT001|381=30000000000.000|880=201907230000000001|828=99|10=035|
8=FIX.4.4|9=59|35=0|34=4|49=029|50=029B17|52=20190723-21:40:22.609|56=EXC|10=066|
8=FIX.4.4|9=0049|35=0|34=5|49=EXC|56=029|52=20190723-14:35:11.000|10=175|
8=FIX.4.4|9=59|35=5|34=5|49=029|50=029B17|52=20190723-21:40:32.617|56=EXC|10=072|
8=FIX.4.4|9=0055|35=5|34=6|49=EXC|56=029|52=20190723-14:35:20.689|369=5|10=222|
8=FIX.4.4|9=110|35=A|34=1|49=029|50=029B17|52=20190724-13:09:23.826|56=EXC|43=N|98=0|108=30|141=Y|553=029FCM001|554=029FCM001|10=113|
8=FIX.4.4|9=0067|35=A|34=1|49=EXC|56=029|52=20190724-14:38:13.019|98=0|108=30|141=Y|10=018|
8=FIX.4.4|9=188|35=AE|34=2|49=029|50=029B17|52=20190724-13:09:31.283|56=EXC|31=120|32=100|55=T24U19F|60=20190724-14:34:46.532|487=0|571=20190724809201_AE|762=AFIR|856=96|880=201907240000000001|552=1|54=1|10=162|
8=FIX.4.4|9=0131|35=AR|34=2|49=EXC|56=029|57=029B17|52=20190724-14:38:20.350|571=20190724809201_AE|487=0|856=96|939=0|17=3|60=20190724-14:38:20.350|10=178|
8=FIX.4.4|9=0360|35=AE|34=3|49=EXC|56=029|57=029B17|52=20190724-14:38:38.900|571=20190724809201_AE|487=2|856=99|17=4|829=98|573=0|15=COP|880=201907240000000001|75=20190724|55=T24U19F|762=AFIR|48=27227|22=M|31=120.000|32=100|381=30000000000.000|60=20190724-14:38:38.900|64=20190724|552=1|54=1|453=3|448=029B17|447=C|452=12|448=029|447=C|452=1|448=029FCM001|447=C|452=36|1=RT001|10=065|
8=FIX.4.4|9=59|35=0|34=3|49=029|50=029B17|52=20190724-13:10:01.753|56=EXC|10=061|
8=FIX.4.4|9=0457|35=8|34=4|49=EXC|56=029|57=029B17|52=20190724-14:38:51.505|11=156397355737235|17=5|37=0|150=H|1080=20190724-000000000001.00|1081=5|453=5|448=029B17|447=C|452=12|448=029|447=C|452=1|448=037B18|447=C|452=37|448=037|447=C|452=17|448=029FCM001|447=C|452=36|55=T24U19F|762=AFIR|48=27227|22=M|6=120.000|14=100|31=120.000|32=100|38=100|39=2|54=1|60=20190724-14:38:51.505|75=20190724|63=1|64=20190724|151=0|1=RT001|381=30000000000.000|880=201907240000000001|828=99|10=052|
8=FIX.4.4|9=59|35=0|34=4|49=029|50=029B17|52=20190724-13:10:31.752|56=EXC|10=064|
8=FIX.4.4|9=0049|35=0|34=5|49=EXC|56=029|52=20190724-14:39:21.000|10=181|
8=FIX.4.4|9=188|35=AE|34=5|49=029|50=029B17|52=20190724-13:10:35.041|56=EXC|31=120|32=100|55=T24U19F|60=20190724-14:35:08.325|487=0|571=20190724809203_AE|762=AFIR|856=96|880=201907240000000002|552=1|54=1|10=155|
8=FIX.4.4|9=0131|35=AR|34=6|49=EXC|56=029|57=029B17|52=20190724-14:39:24.105|571=20190724809203_AE|487=0|856=96|939=0|17=6|60=20190724-14:39:24.105|10=193|
8=FIX.4.4|9=0360|35=AE|34=7|49=EXC|56=029|57=029B17|52=20190724-14:39:50.012|571=20190724809203_AE|487=2|856=98|17=7|829=98|573=0|15=COP|880=201907240000000002|75=20190724|55=T24U19F|762=AFIR|48=27227|22=M|31=120.000|32=100|381=30000000000.000|60=20190724-14:39:50.012|64=20190724|552=1|54=1|453=3|448=029B17|447=C|452=12|448=029|447=C|452=1|448=029FCM001|447=C|452=36|1=RT001|10=052|
8=FIX.4.4|9=59|35=0|34=6|49=029|50=029B17|52=20190724-13:11:05.762|56=EXC|10=069|
8=FIX.4.4|9=186|35=AE|34=7|49=029|50=029B17|52=20190724-13:11:26.699|56=EXC|31=7|32=150|55=IBRH20F|60=20190716-16:42:11.915|487=0|571=20190724809205_AE|762=AFIR|856=96|880=201907160000000009|552=1|54=1|10=112|
8=FIX.4.4|9=0177|35=AR|34=8|49=EXC|56=029|57=029B17|52=20190724-14:40:15.775|571=20190724809205_AE|487=0|856=96|939=1|17=8|60=20190724-14:40:15.775|751=99|58=(138): Número de operación inválido|10=089|
8=FIX.4.4|9=59|35=5|34=8|49=029|50=029B17|52=20190724-13:11:49.372|56=EXC|10=081|
8=FIX.4.4|9=0055|35=5|34=9|49=EXC|56=029|52=20190724-14:40:38.450|369=8|10=220|
8=FIX.4.4|9=110|35=A|34=1|49=029|50=029B17|52=20190724-13:20:03.881|56=EXC|43=N|98=0|108=30|141=Y|553=029FCM001|554=029FCM001|10=105|
8=FIX.4.4|9=0067|35=A|34=1|49=EXC|56=029|52=20190724-14:48:53.021|98=0|108=30|141=Y|10=016|
8=FIX.4.4|9=188|35=AE|34=2|49=029|50=029B17|52=20190724-13:20:11.180|56=EXC|31=120|32=100|55=T24U19F|60=20190724-14:35:08.325|487=0|571=20190724820013_AE|762=AFIR|856=96|880=201907240000000002|552=1|54=1|10=143|
8=FIX.4.4|9=0131|35=AR|34=2|49=EXC|56=029|57=029B17|52=20190724-14:49:00.247|571=20190724820013_AE|487=0|856=96|939=0|17=9|60=20190724-14:49:00.247|10=188|
8=FIX.4.4|9=0361|35=AE|34=3|49=EXC|56=029|57=029B17|52=20190724-14:49:18.699|571=20190724820013_AE|487=2|856=98|17=10|829=98|573=0|15=COP|880=201907240000000002|75=20190724|55=T24U19F|762=AFIR|48=27227|22=M|31=120.000|32=100|381=30000000000.000|60=20190724-14:49:18.699|64=20190724|552=1|54=1|453=3|448=029B17|447=C|452=12|448=029|447=C|452=1|448=029FCM001|447=C|452=36|1=RT001|10=135|
8=FIX.4.4|9=59|35=0|34=3|49=029|50=029B17|52=20190724-13:20:41.850|56=EXC|10=064|
8=FIX.4.4|9=0049|35=0|34=4|49=EXC|56=029|52=20190724-14:49:48.000|10=190|
8=FIX.4.4|9=59|35=5|34=4|49=029|50=029B17|52=20190724-13:21:02.850|56=EXC|10=068|
8=FIX.4.4|9=0055|35=5|34=5|49=EXC|56=029|52=20190724-14:49:51.915|369=4|10=222|
8=FIX.4.4|9=110|35=A|34=1|49=029|50=029B17|52=20190724-14:03:52.864|56=EXC|43=N|98=0|108=30|141=Y|553=029FCM001|554=029FCM001|10=112|
8=FIX.4.4|9=0067|35=A|34=1|49=EXC|56=029|52=20190724-15:32:41.976|98=0|108=30|141=Y|10=026|
8=FIX.4.4|9=189|35=AE|34=2|49=029|50=029B17|52=20190724-14:04:00.151|56=EXC|31=120|32=100|55=T24U19F|60=20190724-14:35:08.325|487=0|571=201907240903503_AE|762=AFIR|856=96|880=201907240000000002|552=1|54=1|10=197|
8=FIX.4.4|9=0133|35=AR|34=2|49=EXC|56=029|57=029B17|52=20190724-15:32:49.221|571=201907240903503_AE|487=0|856=96|939=0|17=11|60=20190724-15:32:49.221|10=025|
8=FIX.4.4|9=0362|35=AE|34=3|49=EXC|56=029|57=029B17|52=20190724-15:33:07.746|571=201907240903503_AE|487=2|856=98|17=12|829=98|573=0|15=COP|880=201907240000000002|75=20190724|55=T24U19F|762=AFIR|48=27227|22=M|31=120.000|32=100|381=30000000000.000|60=20190724-15:33:07.746|64=20190724|552=1|54=1|453=3|448=029B17|447=C|452=12|448=029|447=C|452=1|448=029FCM001|447=C|452=36|1=RT001|10=162|
8=FIX.4.4|9=59|35=0|34=3|49=029|50=029B17|52=20190724-14:04:30.811|56=EXC|10=062|
8=FIX.4.4|9=0049|35=0|34=4|49=EXC|56=029|52=20190724-15:33:37.000|10=182|
8=FIX.4.4|9=59|35=5|34=4|49=029|50=029B17|52=20190724-14:04:51.820|56=EXC|10=071|
8=FIX.4.4|9=0055|35=5|34=5|49=EXC|56=029|52=20190724-15:33:40.893|369=4|10=219|
8=FIX.4.4|9=110|35=A|34=1|49=029|50=029B17|52=20190724-14:38:41.124|56=EXC|43=N|98=0|108=30|141=Y|553=029FCM001|554=029FCM001|10=107|
8=FIX.4.4|9=0067|35=A|34=1|49=EXC|56=029|52=20190724-16:07:30.261|98=0|108=30|141=Y|10=014|
8=FIX.4.4|9=189|35=AE|34=2|49=029|50=029B17|52=20190724-14:38:48.386|56=EXC|31=120|32=100|55=T24U19F|60=20190724-16:05:34.278|487=0|571=201907240938381_AE|762=AFIR|856=96|880=201907240000000003|552=1|54=1|10=244|
8=FIX.4.4|9=0133|35=AR|34=2|49=EXC|56=029|57=029B17|52=20190724-16:07:37.458|571=201907240938381_AE|487=0|856=96|939=0|17=15|60=20190724-16:07:37.458|10=065|
8=FIX.4.4|9=0362|35=AE|34=3|49=EXC|56=029|57=029B17|52=20190724-16:07:55.906|571=201907240938381_AE|487=2|856=99|17=16|829=98|573=0|15=COP|880=201907240000000003|75=20190724|55=T24U19F|762=AFIR|48=27227|22=M|31=120.000|32=100|381=30000000000.000|60=20190724-16:07:55.906|64=20190724|552=1|54=1|453=3|448=029B17|447=C|452=12|448=029|447=C|452=1|448=029FCM001|447=C|452=36|1=RT001|10=186|
8=FIX.4.4|9=0458|35=8|34=4|49=EXC|56=029|57=029B17|52=20190724-16:08:08.120|11=156397900521615|17=17|37=0|150=H|1080=20190724-000000000003.00|1081=5|453=5|448=029B17|447=C|452=12|448=029|447=C|452=1|448=037B18|447=C|452=37|448=037|447=C|452=17|448=029FCM001|447=C|452=36|55=T24U19F|762=AFIR|48=27227|22=M|6=120.000|14=100|31=120.000|32=100|38=100|39=2|54=1|60=20190724-16:08:08.120|75=20190724|63=1|64=20190724|151=0|1=RT001|381=30000000000.000|880=201907240000000003|828=99|10=085|
8=FIX.4.4|9=59|35=0|34=3|49=029|50=029B17|52=20190724-14:39:19.069|56=EXC|10=082|
8=FIX.4.4|9=0049|35=0|34=5|49=EXC|56=029|52=20190724-16:08:38.000|10=187|
8=FIX.4.4|9=59|35=0|34=4|49=029|50=029B17|52=20190724-14:39:49.066|56=EXC|10=083|
8=FIX.4.4|9=0049|35=0|34=6|49=EXC|56=029|52=20190724-16:09:08.000|10=186|
8=FIX.4.4|9=59|35=0|34=5|49=029|50=029B17|52=20190724-14:40:19.065|56=EXC|10=072|
8=FIX.4.4|9=0049|35=0|34=7|49=EXC|56=029|52=20190724-16:09:38.000|10=190|
8=FIX.4.4|9=59|35=0|34=6|49=029|50=029B17|52=20190724-14:40:49.065|56=EXC|10=076|
8=FIX.4.4|9=0049|35=0|34=8|49=EXC|56=029|52=20190724-16:10:08.000|10=180|
8=FIX.4.4|9=59|35=0|34=7|49=029|50=029B17|52=20190724-14:41:19.078|56=EXC|10=079|
8=FIX.4.4|9=0049|35=0|34=9|49=EXC|56=029|52=20190724-16:10:38.000|10=184|
8=FIX.4.4|9=59|35=0|34=8|49=029|50=029B17|52=20190724-14:41:49.079|56=EXC|10=084|
8=FIX.4.4|9=0050|35=0|34=10|49=EXC|56=029|52=20190724-16:11:08.000|10=214|
8=FIX.4.4|9=59|35=0|34=9|49=029|50=029B17|52=20190724-14:42:20.077|56=EXC|10=073|
8=FIX.4.4|9=0050|35=0|34=11|49=EXC|56=029|52=20190724-16:11:38.000|10=218|
8=FIX.4.4|9=60|35=0|34=10|49=029|50=029B17|52=20190724-14:42:51.077|56=EXC|10=109|
8=FIX.4.4|9=0050|35=0|34=12|49=EXC|56=029|52=20190724-16:12:08.000|10=217|
8=FIX.4.4|9=60|35=0|34=11|49=029|50=029B17|52=20190724-14:43:22.065|56=EXC|10=106|
8=FIX.4.4|9=0050|35=0|34=13|49=EXC|56=029|52=20190724-16:12:38.000|10=221|
8=FIX.4.4|9=60|35=0|34=12|49=029|50=029B17|52=20190724-14:43:52.065|56=EXC|10=110|
8=FIX.4.4|9=0050|35=0|34=14|49=EXC|56=029|52=20190724-16:13:08.000|10=220|
8=FIX.4.4|9=60|35=0|34=13|49=029|50=029B17|52=20190724-14:44:22.065|56=EXC|10=109|
8=FIX.4.4|9=0050|35=0|34=15|49=EXC|56=029|52=20190724-16:13:38.000|10=224|
8=FIX.4.4|9=60|35=0|34=14|49=029|50=029B17|52=20190724-14:44:52.065|56=EXC|10=113|
8=FIX.4.4|9=0050|35=0|34=16|49=EXC|56=029|52=20190724-16:14:08.000|10=223|
8=FIX.4.4|9=60|35=0|34=15|49=029|50=029B17|52=20190724-14:45:22.066|56=EXC|10=113|
8=FIX.4.4|9=0050|35=0|34=17|49=EXC|56=029|52=20190724-16:14:38.000|10=227|
8=FIX.4.4|9=60|35=0|34=16|49=029|50=029B17|52=20190724-14:45:52.064|56=EXC|10=115|
8=FIX.4.4|9=0050|35=0|34=18|49=EXC|56=029|52=20190724-16:15:08.000|10=226|
8=FIX.4.4|9=60|35=0|34=17|49=029|50=029B17|52=20190724-14:46:22.065|56=EXC|10=115|
8=FIX.4.4|9=0050|35=0|34=19|49=EXC|56=029|52=20190724-16:15:38.000|10=230|
8=FIX.4.4|9=60|35=0|34=18|49=029|50=029B17|52=20190724-14:46:52.066|56=EXC|10=120|
8=FIX.4.4|9=0050|35=0|34=20|49=EXC|56=029|52=20190724-16:16:08.000|10=220|
8=FIX.4.4|9=60|35=0|34=19|49=029|50=029B17|52=20190724-14:47:22.065|56=EXC|10=118|
8=FIX.4.4|9=0050|35=0|34=21|49=EXC|56=029|52=20190724-16:16:38.000|10=224|
8=FIX.4.4|9=60|35=0|34=20|49=029|50=029B17|52=20190724-14:47:52.068|56=EXC|10=116|
8=FIX.4.4|9=0050|35=0|34=22|49=EXC|56=029|52=20190724-16:17:08.000|10=223|
8=FIX.4.4|9=60|35=0|34=21|49=029|50=029B17|52=20190724-14:48:22.065|56=EXC|10=112|
8=FIX.4.4|9=0050|35=0|34=23|49=EXC|56=029|52=20190724-16:17:38.000|10=227|
8=FIX.4.4|9=60|35=0|34=22|49=029|50=029B17|52=20190724-14:48:52.065|56=EXC|10=116|
8=FIX.4.4|9=0050|35=0|34=24|49=EXC|56=029|52=20190724-16:18:08.000|10=226|
8=FIX.4.4|9=60|35=0|34=23|49=029|50=029B17|52=20190724-14:49:22.067|56=EXC|10=117|
8=FIX.4.4|9=0050|35=0|34=25|49=EXC|56=029|52=20190724-16:18:38.000|10=230|
8=FIX.4.4|9=60|35=0|34=24|49=029|50=029B17|52=20190724-14:49:52.065|56=EXC|10=119|
8=FIX.4.4|9=0050|35=0|34=26|49=EXC|56=029|52=20190724-16:19:08.000|10=229|
8=FIX.4.4|9=60|35=0|34=25|49=029|50=029B17|52=20190724-14:50:22.079|56=EXC|10=114|
8=FIX.4.4|9=0050|35=0|34=27|49=EXC|56=029|52=20190724-16:19:38.000|10=233|
8=FIX.4.4|9=60|35=0|34=26|49=029|50=029B17|52=20190724-14:50:52.074|56=EXC|10=113|
8=FIX.4.4|9=0050|35=0|34=28|49=EXC|56=029|52=20190724-16:20:08.000|10=223|
8=FIX.4.4|9=60|35=0|34=27|49=029|50=029B17|52=20190724-14:51:22.065|56=EXC|10=112|
8=FIX.4.4|9=0050|35=0|34=29|49=EXC|56=029|52=20190724-16:20:38.000|10=227|
8=FIX.4.4|9=60|35=0|34=28|49=029|50=029B17|52=20190724-14:51:52.076|56=EXC|10=118|
8=FIX.4.4|9=110|35=A|34=1|49=029|50=029B17|52=20190724-14:52:10.092|56=EXC|43=N|98=0|108=30|141=Y|553=029FCM001|554=029FCM001|10=103|
8=FIX.4.4|9=110|35=A|34=1|49=029|50=029B17|52=20190724-14:53:10.097|56=EXC|43=N|98=0|108=30|141=Y|553=029FCM001|554=029FCM001|10=109|
8=FIX.4.4|9=0067|35=A|34=1|49=EXC|56=029|52=20190724-16:21:59.219|98=0|108=30|141=Y|10=024|
8=FIX.4.4|9=110|35=A|34=1|49=029|50=029B17|52=20190724-14:54:13.208|56=EXC|43=N|98=0|108=30|141=Y|553=029FCM001|554=029FCM001|10=107|
8=FIX.4.4|9=0067|35=A|34=1|49=EXC|56=029|52=20190724-16:23:02.348|98=0|108=30|141=Y|10=017|
8=FIX.4.4|9=189|35=AE|34=2|49=029|50=029B17|52=20190724-14:54:20.497|56=EXC|31=120|32=100|55=T24U19F|60=20190724-16:21:16.375|487=0|571=201907240954101_AE|762=AFIR|856=96|880=201907240000000005|552=1|54=1|10=221|
8=FIX.4.4|9=0133|35=AR|34=2|49=EXC|56=029|57=029B17|52=20190724-16:23:09.579|571=201907240954101_AE|487=0|856=96|939=0|17=19|60=20190724-16:23:09.579|10=059|
8=FIX.4.4|9=0362|35=AE|34=3|49=EXC|56=029|57=029B17|52=20190724-16:23:28.020|571=201907240954101_AE|487=2|856=99|17=20|829=98|573=0|15=COP|880=201907240000000005|75=20190724|55=T24U19F|762=AFIR|48=27227|22=M|31=120.000|32=100|381=30000000000.000|60=20190724-16:23:28.020|64=20190724|552=1|54=1|453=3|448=029B17|447=C|452=12|448=029|447=C|452=1|448=029FCM001|447=C|452=36|1=RT001|10=141|
8=FIX.4.4|9=59|35=0|34=3|49=029|50=029B17|52=20190724-14:54:51.155|56=EXC|10=071|
8=FIX.4.4|9=0458|35=8|34=4|49=EXC|56=029|57=029B17|52=20190724-16:23:40.315|11=156397994725819|17=21|37=0|150=H|1080=20190724-000000000005.00|1081=5|453=5|448=029B17|447=C|452=12|448=029|447=C|452=1|448=037B18|447=C|452=37|448=037|447=C|452=17|448=029FCM001|447=C|452=36|55=T24U19F|762=AFIR|48=27227|22=M|6=120.000|14=100|31=120.000|32=100|38=100|39=2|54=1|60=20190724-16:23:40.315|75=20190724|63=1|64=20190724|151=0|1=RT001|381=30000000000.000|880=201907240000000005|828=99|10=107|
8=FIX.4.4|9=0049|35=0|34=5|49=EXC|56=029|52=20190724-16:24:10.000|10=175|
8=FIX.4.4|9=59|35=0|34=4|49=029|50=029B17|52=20190724-14:55:21.154|56=EXC|10=069|
8=FIX.4.4|9=189|35=AE|34=5|49=029|50=029B17|52=20190724-14:55:23.755|56=EXC|31=120|32=100|55=T24U19F|60=20190724-16:05:57.574|487=0|571=201907240954103_AE|762=AFIR|856=96|880=201907240000000004|552=1|54=1|10=234|
8=FIX.4.4|9=0133|35=AR|34=6|49=EXC|56=029|57=029B17|52=20190724-16:24:12.886|571=201907240954103_AE|487=0|856=96|939=0|17=22|60=20190724-16:24:12.886|10=051|
8=FIX.4.4|9=0362|35=AE|34=7|49=EXC|56=029|57=029B17|52=20190724-16:24:39.403|571=201907240954103_AE|487=2|856=98|17=23|829=98|573=0|15=COP|880=201907240000000004|75=20190724|55=T24U19F|762=AFIR|48=27227|22=M|31=120.000|32=100|381=30000000000.000|60=20190724-16:24:39.403|64=20190724|552=1|54=1|453=3|448=029B17|447=C|452=12|448=029|447=C|452=1|448=029FCM001|447=C|452=36|1=RT001|10=164|
8=FIX.4.4|9=59|35=0|34=6|49=029|50=029B17|52=20190724-14:55:54.156|56=EXC|10=079|
8=FIX.4.4|9=187|35=AE|34=7|49=029|50=029B17|52=20190724-14:56:16.024|56=EXC|31=7|32=150|55=IBRH20F|60=20190716-16:42:11.915|487=0|571=201907240954105_AE|762=AFIR|856=96|880=201907160000000009|552=1|54=1|10=152|
8=FIX.4.4|9=0179|35=AR|34=8|49=EXC|56=029|57=029B17|52=20190724-16:25:05.111|571=201907240954105_AE|487=0|856=96|939=1|17=24|60=20190724-16:25:05.111|751=99|58=(138): Número de operación inválido|10=161|
8=FIX.4.4|9=0049|35=0|34=9|49=EXC|56=029|52=20190724-16:25:35.000|10=187|
8=FIX.4.4|9=59|35=0|34=8|49=029|50=029B17|52=20190724-14:56:46.156|56=EXC|10=083|
8=FIX.4.4|9=0050|35=0|34=10|49=EXC|56=029|52=20190724-16:26:05.000|10=217|
8=FIX.4.4|9=59|35=0|34=9|49=029|50=029B17|52=20190724-14:57:16.154|56=EXC|10=080|
8=FIX.4.4|9=110|35=A|34=1|49=029|50=029B17|52=20190724-15:07:09.718|56=EXC|43=N|98=0|108=30|141=Y|553=029FCM001|554=029FCM001|10=117|
8=FIX.4.4|9=0067|35=A|34=1|49=EXC|56=029|52=20190724-16:35:58.848|98=0|108=30|141=Y|10=036|
8=FIX.4.4|9=189|35=AE|34=2|49=029|50=029B17|52=20190724-15:07:16.947|56=EXC|31=120|32=100|55=T24U19F|60=20190724-16:05:57.574|487=0|571=201907241007073_AE|762=AFIR|856=96|880=201907240000000004|552=1|54=1|10=230|
8=FIX.4.4|9=0133|35=AR|34=2|49=EXC|56=029|57=029B17|52=20190724-16:36:06.022|571=201907241007073_AE|487=0|856=96|939=0|17=25|60=20190724-16:36:06.022|10=022|
8=FIX.4.4|9=0362|35=AE|34=3|49=EXC|56=029|57=029B17|52=20190724-16:36:24.302|571=201907241007073_AE|487=2|856=98|17=26|829=98|573=0|15=COP|880=201907240000000004|75=20190724|55=T24U19F|762=AFIR|48=27227|22=M|31=120.000|32=100|381=30000000000.000|60=20190724-16:36:24.302|64=20190724|552=1|54=1|453=3|448=029B17|447=C|452=12|448=029|447=C|452=1|448=029FCM001|447=C|452=36|1=RT001|10=149|
8=FIX.4.4|9=59|35=0|34=3|49=029|50=029B17|52=20190724-15:07:47.688|56=EXC|10=086|
8=FIX.4.4|9=187|35=AE|34=4|49=029|50=029B17|52=20190724-15:08:00.937|56=EXC|31=7|32=150|55=IBRH20F|60=20190716-16:42:11.915|487=0|571=201907241007075_AE|762=AFIR|856=96|880=201907160000000009|552=1|54=1|10=149|
8=FIX.4.4|9=0179|35=AR|34=4|49=EXC|56=029|57=029B17|52=20190724-16:36:50.011|571=201907241007075_AE|487=0|856=96|939=1|17=27|60=20190724-16:36:50.011|751=99|58=(138): Número de operación inválido|10=158|
8=FIX.4.4|9=59|35=5|34=5|49=029|50=029B17|52=20190724-15:08:22.660|56=EXC|10=077|
8=FIX.4.4|9=0055|35=5|34=5|49=EXC|56=029|52=20190724-16:37:11.736|369=5|10=219|
8=FIX.4.4|9=110|35=A|34=1|49=029|50=029B17|52=20190724-16:10:06.736|56=EXC|43=N|98=0|108=30|141=Y|553=029FCM001|554=029FCM001|10=109|
8=FIX.4.4|9=0067|35=A|34=1|49=EXC|56=029|52=20190724-17:38:55.854|98=0|108=30|141=Y|10=034|
8=FIX.4.4|9=189|35=AE|34=2|49=029|50=029B17|52=20190724-16:10:13.986|56=EXC|31=120|32=100|55=T24U19F|60=20190724-17:36:51.603|487=0|571=201907241110041_AE|762=AFIR|856=96|880=201907240000000006|552=1|54=1|10=209|
8=FIX.4.4|9=0133|35=AR|34=2|49=EXC|56=029|57=029B17|52=20190724-17:39:03.049|571=201907241110041_AE|487=0|856=96|939=0|17=30|60=20190724-17:39:03.049|10=028|
8=FIX.4.4|9=0362|35=AE|34=3|49=EXC|56=029|57=029B17|52=20190724-17:39:21.567|571=201907241110041_AE|487=2|856=99|17=31|829=98|573=0|15=COP|880=201907240000000006|75=20190724|55=T24U19F|762=AFIR|48=27227|22=M|31=120.000|32=100|381=30000000000.000|60=20190724-17:39:21.567|64=20190724|552=1|54=1|453=3|448=029B17|447=C|452=12|448=029|447=C|452=1|448=029FCM001|447=C|452=36|1=RT001|10=166|
8=FIX.4.4|9=59|35=0|34=3|49=029|50=029B17|52=20190724-16:10:44.707|56=EXC|10=070|
8=FIX.4.4|9=0458|35=8|34=4|49=EXC|56=029|57=029B17|52=20190724-17:39:33.912|11=156398448269821|17=32|37=0|150=H|1080=20190724-000000000006.00|1081=5|453=5|448=029B17|447=C|452=12|448=029|447=C|452=1|448=037B18|447=C|452=37|448=037|447=C|452=17|448=029FCM001|447=C|452=36|55=T24U19F|762=AFIR|48=27227|22=M|6=120.000|14=100|31=120.000|32=100|38=100|39=2|54=1|60=20190724-17:39:33.912|75=20190724|63=1|64=20190724|151=0|1=RT001|381=30000000000.000|880=201907240000000006|828=99|10=128|
8=FIX.4.4|9=0049|35=0|34=5|49=EXC|56=029|52=20190724-17:40:03.000|10=176|
8=FIX.4.4|9=59|35=0|34=4|49=029|50=029B17|52=20190724-16:11:14.701|56=EXC|10=063|
8=FIX.4.4|9=189|35=AE|34=5|49=029|50=029B17|52=20190724-16:11:17.244|56=EXC|31=120|32=100|55=T24U19F|60=20190724-17:37:00.691|487=0|571=201907241110043_AE|762=AFIR|856=96|880=201907240000000007|552=1|54=1|10=209|
8=FIX.4.4|9=0133|35=AR|34=6|49=EXC|56=029|57=029B17|52=20190724-17:40:06.304|571=201907241110043_AE|487=0|856=96|939=0|17=33|60=20190724-17:40:06.304|10=015|
8=FIX.4.4|9=0362|35=AE|34=7|49=EXC|56=029|57=029B17|52=20190724-17:40:32.289|571=201907241110043_AE|487=2|856=98|17=34|829=98|573=0|15=COP|880=201907240000000007|75=20190724|55=T24U19F|762=AFIR|48=27227|22=M|31=120.000|32=100|381=30000000000.000|60=20190724-17:40:32.289|64=20190724|552=1|54=1|453=3|448=029B17|447=C|452=12|448=029|447=C|452=1|448=029FCM001|447=C|452=36|1=RT001|10=165|
8=FIX.4.4|9=59|35=0|34=6|49=029|50=029B17|52=20190724-16:11:47.699|56=EXC|10=087|
8=FIX.4.4|9=187|35=AE|34=7|49=029|50=029B17|52=20190724-16:12:08.974|56=EXC|31=7|32=150|55=IBRH20F|60=20190716-16:42:11.915|487=0|571=201907241110045_AE|762=AFIR|856=96|880=201907160000000009|552=1|54=1|10=149|
8=FIX.4.4|9=0179|35=AR|34=8|49=EXC|56=029|57=029B17|52=20190724-17:40:58.035|571=201907241110045_AE|487=0|856=96|939=1|17=35|60=20190724-17:40:58.035|751=99|58=(138): Número de operación inválido|10=173|
8=FIX.4.4|9=59|35=5|34=8|49=029|50=029B17|52=20190724-16:12:30.664|56=EXC|10=079|
8=FIX.4.4|9=0055|35=5|34=9|49=EXC|56=029|52=20190724-17:41:19.724|369=8|10=227|
8=FIX.4.4|9=110|35=A|34=1|49=029|50=029B17|52=20190724-20:44:54.966|56=EXC|43=N|98=0|108=30|141=Y|553=029FCM001|554=029FCM001|10=119|
8=FIX.4.4|9=0067|35=A|34=1|49=EXC|56=029|52=20190724-14:39:48.116|98=0|108=30|141=Y|10=025|
8=FIX.4.4|9=189|35=AE|34=2|49=029|50=029B17|52=20190724-20:45:02.372|56=EXC|31=120|32=100|55=T24U19F|60=20190724-14:34:22.074|487=0|571=201907241544481_AE|762=AFIR|856=96|880=201907240000000001|552=1|54=1|10=208|
8=FIX.4.4|9=0132|35=AR|34=2|49=EXC|56=029|57=029B17|52=20190724-14:39:55.426|571=201907241544481_AE|487=0|856=96|939=0|17=3|60=20190724-14:39:55.426|10=004|
8=FIX.4.4|9=0361|35=AE|34=3|49=EXC|56=029|57=029B17|52=20190724-14:40:13.780|571=201907241544481_AE|487=2|856=99|17=4|829=98|573=0|15=COP|880=201907240000000001|75=20190724|55=T24U19F|762=AFIR|48=27227|22=M|31=120.000|32=100|381=30000000000.000|60=20190724-14:40:13.780|64=20190724|552=1|54=1|453=3|448=029B17|447=C|452=12|448=029|447=C|452=1|448=029FCM001|447=C|452=36|1=RT001|10=105|
8=FIX.4.4|9=59|35=0|34=3|49=029|50=029B17|52=20190724-20:45:32.809|56=EXC|10=073|
8=FIX.4.4|9=0457|35=8|34=4|49=EXC|56=029|57=029B17|52=20190724-14:40:26.544|11=156400076816526|17=5|37=0|150=H|1080=20190724-000000000001.00|1081=5|453=5|448=029B17|447=C|452=12|448=029|447=C|452=1|448=037B18|447=C|452=37|448=037|447=C|452=17|448=029FCM001|447=C|452=36|55=T24U19F|762=AFIR|48=27227|22=M|6=120.000|14=100|31=120.000|32=100|38=100|39=2|54=1|60=20190724-14:40:26.544|75=20190724|63=1|64=20190724|151=0|1=RT001|381=30000000000.000|880=201907240000000001|828=99|10=034|
8=FIX.4.4|9=59|35=0|34=4|49=029|50=029B17|52=20190724-20:46:02.807|56=EXC|10=070|
8=FIX.4.4|9=0049|35=0|34=5|49=EXC|56=029|52=20190724-14:40:56.000|10=181|
8=FIX.4.4|9=189|35=AE|34=5|49=029|50=029B17|52=20190724-20:46:05.904|56=EXC|31=120|32=100|55=T24U19F|60=20190724-14:34:36.563|487=0|571=201907241544483_AE|762=AFIR|856=96|880=201907240000000002|552=1|54=1|10=227|
8=FIX.4.4|9=0132|35=AR|34=6|49=EXC|56=029|57=029B17|52=20190724-14:40:58.956|571=201907241544483_AE|487=0|856=96|939=0|17=6|60=20190724-14:40:58.956|10=019|
8=FIX.4.4|9=0361|35=AE|34=7|49=EXC|56=029|57=029B17|52=20190724-14:41:25.127|571=201907241544483_AE|487=2|856=98|17=7|829=98|573=0|15=COP|880=201907240000000002|75=20190724|55=T24U19F|762=AFIR|48=27227|22=M|31=120.000|32=100|381=30000000000.000|60=20190724-14:41:25.127|64=20190724|552=1|54=1|453=3|448=029B17|447=C|452=12|448=029|447=C|452=1|448=029FCM001|447=C|452=36|1=RT001|10=112|
8=FIX.4.4|9=59|35=0|34=6|49=029|50=029B17|52=20190724-20:46:36.807|56=EXC|10=079|
8=FIX.4.4|9=187|35=AE|34=7|49=029|50=029B17|52=20190724-20:46:57.858|56=EXC|31=7|32=150|55=IBRH20F|60=20190716-16:42:11.915|487=0|571=201907241544485_AE|762=AFIR|856=96|880=201907160000000009|552=1|54=1|10=175|
8=FIX.4.4|9=0178|35=AR|34=8|49=EXC|56=029|57=029B17|52=20190724-14:41:50.920|571=201907241544485_AE|487=0|856=96|939=1|17=8|60=20190724-14:41:50.920|751=99|58=(138): Número de operación inválido|10=129|
8=FIX.4.4|9=59|35=5|34=8|49=029|50=029B17|52=20190724-20:47:19.510|56=EXC|10=079|
8=FIX.4.4|9=0055|35=5|34=9|49=EXC|56=029|52=20190724-14:42:12.571|369=8|10=218|
8=FIX.4.4|9=110|35=A|34=1|49=029|50=029B17|52=20190724-23:15:48.979|56=EXC|43=N|98=0|108=30|141=Y|553=029FCM001|554=029FCM001|10=127|
8=FIX.4.4|9=0067|35=A|34=1|49=EXC|56=029|52=20190724-17:10:42.099|98=0|108=30|141=Y|10=021|
8=FIX.4.4|9=189|35=AE|34=2|49=029|50=029B17|52=20190724-23:15:56.250|56=EXC|31=120|32=100|55=T24U19F|60=20190724-17:09:24.960|487=0|571=201907241815461_AE|762=AFIR|856=96|880=201907240000000003|552=1|54=1|10=224|
8=FIX.4.4|9=0133|35=AR|34=2|49=EXC|56=029|57=029B17|52=20190724-17:10:49.312|571=201907241815461_AE|487=0|856=96|939=0|17=11|60=20190724-17:10:49.312|10=029|
8=FIX.4.4|9=0049|35=0|34=3|49=EXC|56=029|52=20190724-17:11:19.000|10=179|
8=FIX.4.4|9=59|35=0|34=3|49=029|50=029B17|52=20190724-23:16:26.924|56=EXC|10=075|
8=FIX.4.4|9=0049|35=0|34=4|49=EXC|56=029|52=20190724-17:11:49.000|10=183|
8=FIX.4.4|9=59|35=0|34=4|49=029|50=029B17|52=20190724-23:16:56.924|56=EXC|10=079|
8=FIX.4.4|9=0049|35=0|34=5|49=EXC|56=029|52=20190724-17:12:19.000|10=182|
8=FIX.4.4|9=59|35=0|34=5|49=029|50=029B17|52=20190724-23:17:26.932|56=EXC|10=077|
8=FIX.4.4|9=0049|35=0|34=6|49=EXC|56=029|52=20190724-17:12:49.000|10=186|
8=FIX.4.4|9=59|35=0|34=6|49=029|50=029B17|52=20190724-23:17:56.924|56=EXC|10=082|
8=FIX.4.4|9=0049|35=0|34=7|49=EXC|56=029|52=20190724-17:13:19.000|10=185|
8=FIX.4.4|9=59|35=0|34=7|49=029|50=029B17|52=20190724-23:18:26.922|56=EXC|10=079|
8=FIX.4.4|9=0049|35=0|34=8|49=EXC|56=029|52=20190724-17:13:49.000|10=189|
8=FIX.4.4|9=59|35=0|34=8|49=029|50=029B17|52=20190724-23:18:56.925|56=EXC|10=086|
