8=FIX.4.4|9=105|35=A|34=1|49=002|50=002B35|52=20190620-21:31:23.050|56=EXC|98=0|108=30|141=Y|553=002FCM001|554=002FCM001|10=072|
8=FIX.4.4|9=0067|35=A|34=1|49=EXC|56=002|52=20190620-21:31:23.583|98=0|108=30|141=Y|10=002|
8=FIX.4.4|9=105|35=A|34=1|49=002|50=002B35|52=20190620-21:41:55.243|56=EXC|98=0|108=30|141=Y|553=002FCM001|554=002FCM001|10=082|
8=FIX.4.4|9=0067|35=A|34=1|49=EXC|56=002|52=20190620-21:41:55.365|98=0|108=30|141=Y|10=006|
8=FIX.4.4|9=105|35=A|34=1|49=002|50=002B35|52=20190620-21:42:43.992|56=EXC|98=0|108=30|141=Y|553=002FCM001|554=002FCM001|10=091|
8=FIX.4.4|9=0067|35=A|34=1|49=EXC|56=002|52=20190620-21:42:44.075|98=0|108=30|141=Y|10=003|
8=FIX.4.4|9=105|35=A|34=1|49=002|50=002B35|52=20190620-21:54:13.017|56=EXC|98=0|108=30|141=Y|553=002FCM001|554=002FCM001|10=079|
8=FIX.4.4|9=0067|35=A|34=1|49=EXC|56=002|52=20190620-21:54:13.415|98=0|108=30|141=Y|10=000|
8=FIX.4.4|9=105|35=A|34=1|49=002|50=002B35|52=20190620-21:59:27.541|56=EXC|98=0|108=30|141=Y|553=002FCM001|554=002FCM001|10=091|
8=FIX.4.4|9=0067|35=A|34=1|49=EXC|56=002|52=20190620-21:59:28.013|98=0|108=30|141=Y|10=005|
8=FIX.4.4|9=105|35=A|34=1|49=002|50=002B35|52=20190621-13:46:46.394|56=EXC|98=0|108=30|141=Y|553=002FCM001|554=002FCM001|10=096|
8=FIX.4.4|9=0067|35=A|34=1|49=EXC|56=002|52=20190621-13:46:46.427|98=0|108=30|141=Y|10=012|
8=FIX.4.4|9=105|35=A|34=1|49=002|50=002B35|52=20190621-13:51:58.435|56=EXC|98=0|108=30|141=Y|553=002FCM001|554=002FCM001|10=091|
8=FIX.4.4|9=0067|35=A|34=1|49=EXC|56=002|52=20190621-13:51:58.467|98=0|108=30|141=Y|10=015|
8=FIX.4.4|9=105|35=A|34=1|49=002|50=002B35|52=20190621-14:01:12.650|56=EXC|98=0|108=30|141=Y|553=002FCM001|554=002FCM001|10=076|
8=FIX.4.4|9=0067|35=A|34=1|49=EXC|56=002|52=20190621-14:01:12.688|98=0|108=30|141=Y|10=006|
8=FIX.4.4|9=105|35=A|34=1|49=002|50=002B35|52=20190621-14:02:04.293|56=EXC|98=0|108=30|141=Y|553=002FCM001|554=002FCM001|10=081|
8=FIX.4.4|9=0067|35=A|34=1|49=EXC|56=002|52=20190621-14:02:04.329|98=0|108=30|141=Y|10=000|
8=FIX.4.4|9=105|35=A|34=1|49=002|50=002B35|52=20190621-15:58:27.413|56=EXC|98=0|108=30|141=Y|553=002FCM001|554=002FCM001|10=092|
8=FIX.4.4|9=0067|35=A|34=1|49=EXC|56=002|52=20190621-15:58:27.456|98=0|108=30|141=Y|10=018|
8=FIX.4.4|9=105|35=A|34=1|49=002|50=002B35|52=20190621-16:01:48.308|56=EXC|98=0|108=30|141=Y|553=002FCM001|554=002FCM001|10=087|
8=FIX.4.4|9=0067|35=A|34=1|49=EXC|56=002|52=20190621-16:01:48.355|98=0|108=30|141=Y|10=008|
8=FIX.4.4|9=105|35=A|34=1|49=002|50=002B35|52=20190621-16:17:31.152|56=EXC|98=0|108=30|141=Y|553=002FCM001|554=002FCM001|10=083|
8=FIX.4.4|9=0067|35=A|34=1|49=EXC|56=002|52=20190621-16:17:31.193|98=0|108=30|141=Y|10=007|
8=FIX.4.4|9=105|35=A|34=1|49=002|50=002B35|52=20190621-16:24:24.215|56=EXC|98=0|108=30|141=Y|553=002FCM001|554=002FCM001|10=083|
8=FIX.4.4|9=0067|35=A|34=1|49=EXC|56=002|52=20190621-16:24:24.268|98=0|108=30|141=Y|10=010|
8=FIX.4.4|9=105|35=A|34=1|49=002|50=002B35|52=20190621-16:29:19.146|56=EXC|98=0|108=30|141=Y|553=002FCM001|554=002FCM001|10=095|
8=FIX.4.4|9=0067|35=A|34=1|49=EXC|56=002|52=20190621-16:29:19.194|98=0|108=30|141=Y|10=017|
8=FIX.4.4|9=105|35=A|34=1|49=002|50=002B35|52=20190625-14:28:25.971|56=EXC|98=0|108=30|141=Y|553=002FCM001|554=002FCM001|10=099|
8=FIX.4.4|9=0067|35=A|34=1|49=EXC|56=002|52=20190627-14:28:15.663|98=0|108=30|141=Y|10=017|
8=FIX.4.4|9=105|35=A|34=1|49=002|50=002B35|52=20190625-14:51:25.893|56=EXC|98=0|108=30|141=Y|553=002FCM001|554=002FCM001|10=098|
8=FIX.4.4|9=0067|35=A|34=1|49=EXC|56=002|52=20190627-14:51:15.588|98=0|108=30|141=Y|10=019|
8=FIX.4.4|9=105|35=A|34=1|49=002|50=002B35|52=20190625-19:44:14.934|56=EXC|98=0|108=30|141=Y|553=002FCM001|554=002FCM001|10=099|
8=FIX.4.4|9=0067|35=A|34=1|49=EXC|56=002|52=20190627-19:44:14.990|98=0|108=30|141=Y|10=022|
8=FIX.4.4|9=105|35=A|34=1|49=002|50=002B35|52=20190625-19:45:34.998|56=EXC|98=0|108=30|141=Y|553=002FCM001|554=002FCM001|10=112|
8=FIX.4.4|9=0067|35=A|34=1|49=EXC|56=002|52=20190627-19:45:35.030|98=0|108=30|141=Y|10=011|
8=FIX.4.4|9=105|35=A|34=1|49=002|50=002B35|52=20190625-19:54:23.760|56=EXC|98=0|108=30|141=Y|553=002FCM001|554=002FCM001|10=097|
8=FIX.4.4|9=0067|35=A|34=1|49=EXC|56=002|52=20190627-19:54:23.825|98=0|108=30|141=Y|10=020|
8=FIX.4.4|9=105|35=A|34=1|49=002|50=002B35|52=20190625-19:55:23.511|56=EXC|98=0|108=30|141=Y|553=002FCM001|554=002FCM001|10=092|
8=FIX.4.4|9=0067|35=A|34=1|49=EXC|56=002|52=20190627-19:55:23.547|98=0|108=30|141=Y|10=022|
8=FIX.4.4|9=105|35=A|34=1|49=002|50=002B35|52=20190625-20:02:36.427|56=EXC|98=0|108=30|141=Y|553=002FCM001|554=002FCM001|10=086|
8=FIX.4.4|9=0067|35=A|34=1|49=EXC|56=002|52=20190627-20:02:36.504|98=0|108=30|141=Y|10=003|
