8=FIX.4.4|9=110|35=A|34=1|49=002|50=002B35|52=20190705-20:43:25.755|56=EXC|43=N|98=0|108=30|141=Y|553=002FCM001|554=002FCM001|10=075|
8=FIX.4.4|9=0067|35=A|34=1|49=EXC|56=002|52=20190705-20:43:56.107|98=0|108=30|141=Y|10=006|
8=FIX.4.4|9=0214|35=R|34=2|49=EXC|56=002|57=002B35|52=20190705-20:44:03.412|131=20190705-000000000009.00|146=1|55=T24Q19F|762=FUIR|48=26623|22=M|54=1|38=100|453=3|448=001B27|447=C|452=12|448=001|447=C|452=1|448=002B35|447=C|452=37|10=224|
8=FIX.4.4|9=192|35=S|34=2|49=002|50=002B35|52=20190705-20:43:51.367|56=EXC|1=RT001|55=T24Q19F|62=20190830-22:00:00.000|117=201907051543221_S|131=20190705-000000000009.00|132=0|133=1000|134=0|135=100|762=FUIR|10=090|
8=FIX.4.4|9=0281|35=AI|34=3|49=EXC|56=002|57=002B35|52=20190705-20:44:21.665|131=20190705-000000000009.00|117=201907051543221_S|453=3|448=001B27|447=C|452=12|448=001|447=C|452=1|448=002B35|447=C|452=37|55=T24Q19F|762=FUIR|48=26623|22=M|54=1|1=RT001|133=1000.000|135=100|62=20190830-22:00:00|297=16|10=017|
8=FIX.4.4|9=0049|35=0|34=4|49=EXC|56=002|52=20190705-20:44:51.000|10=166|
8=FIX.4.4|9=68|35=2|34=3|49=002|50=002B35|52=20190705-20:44:20.719|56=EXC|7=3|16=0|10=177|
8=FIX.4.4|9=0312|35=AI|34=3|43=Y|52=20190705-20:44:51.016|49=EXC|56=002|57=002B35|122=20190705-20:44:21.665|131=20190705-000000000009.00|117=201907051543221_S|453=3|448=001B27|447=C|452=12|448=001|447=C|452=1|448=002B35|447=C|452=37|55=T24Q19F|762=FUIR|48=26623|22=M|54=1|1=RT001|133=1000.000|135=100|62=20190830-22:00:00|297=16|10=011|
8=FIX.4.4|9=0065|35=4|34=4|43=Y|49=EXC|56=002|52=20190705-20:44:51.016|123=Y|36=5|10=182|
8=FIX.4.4|9=0054|35=4|34=5|49=EXC|56=002|52=20190705-20:44:51.016|36=6|10=139|
8=FIX.4.4|9=68|35=2|34=4|49=002|50=002B35|52=20190705-20:44:30.734|56=EXC|7=3|16=0|10=176|
8=FIX.4.4|9=0312|35=AI|34=3|43=Y|52=20190705-20:45:01.032|49=EXC|56=002|57=002B35|122=20190705-20:44:21.665|131=20190705-000000000009.00|117=201907051543221_S|453=3|448=001B27|447=C|452=12|448=001|447=C|452=1|448=002B35|447=C|452=37|55=T24Q19F|762=FUIR|48=26623|22=M|54=1|1=RT001|133=1000.000|135=100|62=20190830-22:00:00|297=16|10=005|
8=FIX.4.4|9=0065|35=4|34=4|43=Y|49=EXC|56=002|52=20190705-20:45:01.032|123=Y|36=6|10=177|
8=FIX.4.4|9=0054|35=4|34=6|49=EXC|56=002|52=20190705-20:45:01.032|36=7|10=135|
8=FIX.4.4|9=0049|35=0|34=7|49=EXC|56=002|52=20190705-20:45:31.000|10=168|
8=FIX.4.4|9=59|35=0|34=5|49=002|50=002B35|52=20190705-20:45:01.652|56=EXC|10=048|
8=FIX.4.4|9=0049|35=0|34=8|49=EXC|56=002|52=20190705-20:46:01.000|10=167|
8=FIX.4.4|9=59|35=0|34=6|49=002|50=002B35|52=20190705-20:45:31.651|56=EXC|10=051|
8=FIX.4.4|9=0049|35=0|34=9|49=EXC|56=002|52=20190705-20:46:31.000|10=171|
8=FIX.4.4|9=59|35=0|34=7|49=002|50=002B35|52=20190705-20:46:01.661|56=EXC|10=051|
8=FIX.4.4|9=0050|35=0|34=10|49=EXC|56=002|52=20190705-20:47:01.000|10=201|
8=FIX.4.4|9=59|35=0|34=8|49=002|50=002B35|52=20190705-20:46:31.654|56=EXC|10=057|
8=FIX.4.4|9=82|35=A|34=1|49=002|50=002B35|52=20190709-15:38:37.200|56=EXC|43=N|98=0|108=30|141=Y|10=122|
8=FIX.4.4|9=82|35=A|34=1|49=002|50=002B35|52=20190709-15:44:17.174|56=EXC|43=N|98=0|108=30|141=Y|10=127|
8=FIX.4.4|9=82|35=A|34=1|49=002|50=002B35|52=20190710-20:51:10.081|56=EXC|43=N|98=0|108=30|141=Y|10=103|
8=FIX.4.4|9=82|35=A|34=1|49=002|50=002B35|52=20190710-20:52:10.075|56=EXC|43=N|98=0|108=30|141=Y|10=107|
8=FIX.4.4|9=82|35=A|34=1|49=002|50=002B35|52=20190710-20:55:09.608|56=EXC|43=N|98=0|108=30|141=Y|10=120|
8=FIX.4.4|9=82|35=A|34=1|49=002|50=002B35|52=20190710-20:56:09.039|56=EXC|43=N|98=0|108=30|141=Y|10=119|
8=FIX.4.4|9=82|35=A|34=1|49=002|50=002B35|52=20190710-20:57:09.045|56=EXC|43=N|98=0|108=30|141=Y|10=117|
8=FIX.4.4|9=82|35=A|34=1|49=002|50=002B35|52=20190710-21:15:20.035|56=EXC|43=N|98=0|108=30|141=Y|10=104|
8=FIX.4.4|9=82|35=A|34=1|49=002|50=002B35|52=20190710-21:18:09.884|56=EXC|43=N|98=0|108=30|141=Y|10=126|
8=FIX.4.4|9=82|35=A|34=1|49=002|50=002B35|52=20190710-21:19:09.924|56=EXC|43=N|98=0|108=30|141=Y|10=122|
8=FIX.4.4|9=82|35=A|34=1|49=002|50=002B35|52=20190711-15:18:00.247|56=EXC|43=N|98=0|108=30|141=Y|10=114|
