8=FIX.4.4|9=110|35=A|34=1|49=072|50=072X01|52=20190712-20:56:32.043|56=EXC|43=N|98=0|108=30|141=Y|553=072FCM001|554=072FCM001|10=108|
8=FIX.4.4|9=0067|35=A|34=1|49=EXC|56=072|52=20190712-21:31:45.125|98=0|108=30|141=Y|10=007|
8=FIX.4.4|9=0049|35=0|34=2|49=EXC|56=072|52=20190712-21:32:15.000|10=167|
8=FIX.4.4|9=59|35=0|34=2|49=072|50=072X01|52=20190712-20:57:02.977|56=EXC|10=086|
8=FIX.4.4|9=0049|35=0|34=3|49=EXC|56=072|52=20190712-21:32:45.000|10=171|
8=FIX.4.4|9=59|35=0|34=3|49=072|50=072X01|52=20190712-20:57:32.975|56=EXC|10=088|
8=FIX.4.4|9=110|35=A|34=1|49=072|50=072X01|52=20190714-00:01:28.483|56=EXC|43=N|98=0|108=30|141=Y|553=072FCM001|554=072FCM001|10=111|
8=FIX.4.4|9=0067|35=A|34=1|49=EXC|56=072|52=20190716-17:40:38.591|98=0|108=30|141=Y|10=025|
8=FIX.4.4|9=0049|35=0|34=2|49=EXC|56=072|52=20190716-17:41:08.000|10=178|
8=FIX.4.4|9=59|35=0|34=2|49=072|50=072X01|52=20190714-00:01:59.438|56=EXC|10=079|
8=FIX.4.4|9=110|35=A|34=1|49=072|50=072X01|52=20190714-00:12:53.112|56=EXC|43=N|98=0|108=30|141=Y|553=072FCM001|554=072FCM001|10=100|
8=FIX.4.4|9=0067|35=A|34=1|49=EXC|56=072|52=20190716-17:52:03.231|98=0|108=30|141=Y|10=011|
8=FIX.4.4|9=110|35=A|34=1|49=072|50=072X01|52=20190714-01:40:48.909|56=EXC|43=N|98=0|108=30|141=Y|553=072FCM001|554=072FCM001|10=120|
8=FIX.4.4|9=0067|35=A|34=1|49=EXC|56=072|52=20190716-16:00:58.991|98=0|108=30|141=Y|10=026|
8=FIX.4.4|9=0049|35=0|34=2|49=EXC|56=072|52=20190716-16:01:28.000|10=175|
8=FIX.4.4|9=59|35=0|34=2|49=072|50=072X01|52=20190714-01:41:19.894|56=EXC|10=086|
8=FIX.4.4|9=110|35=A|34=1|49=072|50=072X01|52=20190714-01:44:26.401|56=EXC|43=N|98=0|108=30|141=Y|553=072FCM001|554=072FCM001|10=107|
8=FIX.4.4|9=0067|35=A|34=1|49=EXC|56=072|52=20190716-16:04:36.497|98=0|108=30|141=Y|10=027|
8=FIX.4.4|9=0049|35=0|34=2|49=EXC|56=072|52=20190716-16:05:06.000|10=175|
8=FIX.4.4|9=59|35=0|34=2|49=072|50=072X01|52=20190714-01:44:57.377|56=EXC|10=087|
8=FIX.4.4|9=0049|35=0|34=3|49=EXC|56=072|52=20190716-16:05:36.000|10=179|
8=FIX.4.4|9=59|35=0|34=3|49=072|50=072X01|52=20190714-01:45:27.381|56=EXC|10=081|
8=FIX.4.4|9=110|35=A|34=1|49=072|50=072X01|52=20190714-01:58:41.097|56=EXC|43=N|98=0|108=30|141=Y|553=072FCM001|554=072FCM001|10=120|
8=FIX.4.4|9=0067|35=A|34=1|49=EXC|56=072|52=20190716-16:18:51.184|98=0|108=30|141=Y|10=022|
8=FIX.4.4|9=0049|35=0|34=2|49=EXC|56=072|52=20190716-16:19:21.000|10=177|
8=FIX.4.4|9=59|35=0|34=2|49=072|50=072X01|52=20190714-01:59:12.082|56=EXC|10=077|
8=FIX.4.4|9=110|35=A|34=1|49=072|50=072X01|52=20190714-03:12:45.718|56=EXC|43=N|98=0|108=30|141=Y|553=072FCM001|554=072FCM001|10=116|
8=FIX.4.4|9=0067|35=A|34=1|49=EXC|56=072|52=20190716-17:32:55.811|98=0|108=30|141=Y|10=020|
8=FIX.4.4|9=0049|35=0|34=2|49=EXC|56=072|52=20190716-17:33:25.000|10=178|
8=FIX.4.4|9=59|35=0|34=2|49=072|50=072X01|52=20190714-03:13:16.675|56=EXC|10=081|
8=FIX.4.4|9=0049|35=0|34=3|49=EXC|56=072|52=20190716-17:33:55.000|10=182|
8=FIX.4.4|9=59|35=0|34=3|49=072|50=072X01|52=20190714-03:13:46.675|56=EXC|10=085|
8=FIX.4.4|9=110|35=A|34=1|49=072|50=072X01|52=20190714-03:19:37.114|56=EXC|43=N|98=0|108=30|141=Y|553=072FCM001|554=072FCM001|10=114|
8=FIX.4.4|9=0067|35=A|34=1|49=EXC|56=072|52=20190716-17:39:47.210|98=0|108=30|141=Y|10=021|
8=FIX.4.4|9=0049|35=0|34=2|49=EXC|56=072|52=20190716-17:40:17.000|10=177|
8=FIX.4.4|9=110|35=A|34=1|49=072|50=072X01|52=20190714-03:22:44.990|56=EXC|43=N|98=0|108=30|141=Y|553=072FCM001|554=072FCM001|10=118|
8=FIX.4.4|9=0067|35=A|34=1|49=EXC|56=072|52=20190716-17:42:55.082|98=0|108=30|141=Y|10=021|
8=FIX.4.4|9=0049|35=0|34=2|49=EXC|56=072|52=20190716-17:43:25.000|10=179|
8=FIX.4.4|9=59|35=0|34=2|49=072|50=072X01|52=20190714-03:23:15.973|56=EXC|10=082|
8=FIX.4.4|9=59|35=5|34=3|49=072|50=072X01|52=20190714-03:23:27.974|56=EXC|10=092|
8=FIX.4.4|9=0049|35=5|34=3|49=EXC|56=072|52=20190716-17:43:38.052|10=196|
8=FIX.4.4|9=110|35=A|34=1|49=072|50=072X01|52=20190715-13:08:35.756|56=EXC|43=N|98=0|108=30|141=Y|553=072FCM001|554=072FCM001|10=124|
8=FIX.4.4|9=0067|35=A|34=1|49=EXC|56=072|52=20190716-15:06:03.824|98=0|108=30|141=Y|10=016|
8=FIX.4.4|9=0049|35=0|34=2|49=EXC|56=072|52=20190716-15:06:33.000|10=175|
8=FIX.4.4|9=59|35=0|34=2|49=072|50=072X01|52=20190715-13:09:06.680|56=EXC|10=083|
8=FIX.4.4|9=0049|35=0|34=3|49=EXC|56=072|52=20190716-15:07:03.000|10=174|
8=FIX.4.4|9=59|35=0|34=3|49=072|50=072X01|52=20190715-13:09:36.682|56=EXC|10=089|
8=FIX.4.4|9=110|35=A|34=1|49=072|50=072X01|52=20190715-13:10:01.695|56=EXC|43=N|98=0|108=30|141=Y|553=072FCM001|554=072FCM001|10=112|
8=FIX.4.4|9=110|35=A|34=1|49=072|50=072X01|52=20190715-13:27:08.481|56=EXC|43=N|98=0|108=30|141=Y|553=072FCM001|554=072FCM001|10=120|
8=FIX.4.4|9=0067|35=A|34=1|49=EXC|56=072|52=20190716-15:24:36.548|98=0|108=30|141=Y|10=025|
8=FIX.4.4|9=0049|35=0|34=2|49=EXC|56=072|52=20190716-15:25:06.000|10=176|
8=FIX.4.4|9=59|35=0|34=2|49=072|50=072X01|52=20190715-13:27:38.474|56=EXC|10=089|
8=FIX.4.4|9=0049|35=0|34=3|49=EXC|56=072|52=20190716-15:25:36.000|10=180|
8=FIX.4.4|9=59|35=0|34=3|49=072|50=072X01|52=20190715-13:28:08.472|56=EXC|10=086|
8=FIX.4.4|9=0049|35=0|34=4|49=EXC|56=072|52=20190716-15:26:06.000|10=179|
8=FIX.4.4|9=59|35=0|34=4|49=072|50=072X01|52=20190715-13:28:38.464|56=EXC|10=091|
8=FIX.4.4|9=110|35=A|34=1|49=072|50=072X01|52=20190715-16:11:12.833|56=EXC|43=N|98=0|108=30|141=Y|553=072FCM001|554=072FCM001|10=112|
8=FIX.4.4|9=0067|35=A|34=1|49=EXC|56=072|52=20190716-17:01:40.911|98=0|108=30|141=Y|10=011|
8=FIX.4.4|9=0049|35=0|34=2|49=EXC|56=072|52=20190716-17:02:10.000|10=168|
8=FIX.4.4|9=59|35=0|34=2|49=072|50=072X01|52=20190715-16:11:43.797|56=EXC|10=089|
8=FIX.4.4|9=0049|35=0|34=3|49=EXC|56=072|52=20190716-17:02:40.000|10=172|
8=FIX.4.4|9=59|35=0|34=3|49=072|50=072X01|52=20190715-16:12:13.795|56=EXC|10=086|
8=FIX.4.4|9=0049|35=0|34=4|49=EXC|56=072|52=20190716-17:03:10.000|10=171|
8=FIX.4.4|9=59|35=0|34=4|49=072|50=072X01|52=20190715-16:12:43.796|56=EXC|10=091|
8=FIX.4.4|9=0049|35=0|34=5|49=EXC|56=072|52=20190716-17:03:40.000|10=175|
8=FIX.4.4|9=59|35=0|34=5|49=072|50=072X01|52=20190715-16:13:13.796|56=EXC|10=090|
8=FIX.4.4|9=0049|35=0|34=6|49=EXC|56=072|52=20190716-17:04:10.000|10=174|
8=FIX.4.4|9=59|35=0|34=6|49=072|50=072X01|52=20190715-16:13:43.796|56=EXC|10=094|
8=FIX.4.4|9=0049|35=0|34=7|49=EXC|56=072|52=20190716-17:04:40.000|10=178|
8=FIX.4.4|9=59|35=0|34=7|49=072|50=072X01|52=20190715-16:14:13.795|56=EXC|10=092|
8=FIX.4.4|9=0049|35=0|34=8|49=EXC|56=072|52=20190716-17:05:10.000|10=177|
8=FIX.4.4|9=59|35=0|34=8|49=072|50=072X01|52=20190715-16:14:43.797|56=EXC|10=098|
8=FIX.4.4|9=0049|35=0|34=9|49=EXC|56=072|52=20190716-17:05:40.000|10=181|
8=FIX.4.4|9=59|35=0|34=9|49=072|50=072X01|52=20190715-16:15:13.795|56=EXC|10=095|
8=FIX.4.4|9=0050|35=0|34=10|49=EXC|56=072|52=20190716-17:06:10.000|10=211|
8=FIX.4.4|9=60|35=0|34=10|49=072|50=072X01|52=20190715-16:15:43.796|56=EXC|10=131|
8=FIX.4.4|9=0050|35=0|34=11|49=EXC|56=072|52=20190716-17:06:40.000|10=215|
8=FIX.4.4|9=60|35=0|34=11|49=072|50=072X01|52=20190715-16:16:13.795|56=EXC|10=129|
8=FIX.4.4|9=0050|35=0|34=12|49=EXC|56=072|52=20190716-17:07:10.000|10=214|
8=FIX.4.4|9=60|35=0|34=12|49=072|50=072X01|52=20190715-16:16:43.795|56=EXC|10=133|
8=FIX.4.4|9=110|35=A|34=1|49=072|50=072X01|52=20190715-19:28:47.414|56=EXC|43=N|98=0|108=30|141=Y|553=072FCM001|554=072FCM001|10=126|
8=FIX.4.4|9=0067|35=A|34=1|49=EXC|56=072|52=20190716-15:22:32.491|98=0|108=30|141=Y|10=016|
8=FIX.4.4|9=0049|35=0|34=2|49=EXC|56=072|52=20190716-15:23:02.000|10=170|
8=FIX.4.4|9=59|35=0|34=2|49=072|50=072X01|52=20190715-19:29:18.309|56=EXC|10=092|
8=FIX.4.4|9=0049|35=0|34=3|49=EXC|56=072|52=20190716-15:23:32.000|10=174|
8=FIX.4.4|9=59|35=0|34=3|49=072|50=072X01|52=20190715-19:29:48.309|56=EXC|10=096|
8=FIX.4.4|9=0049|35=0|34=4|49=EXC|56=072|52=20190716-15:24:02.000|10=173|
8=FIX.4.4|9=59|35=0|34=4|49=072|50=072X01|52=20190715-19:30:18.310|56=EXC|10=078|
8=FIX.4.4|9=110|35=A|34=1|49=072|50=072X01|52=20190715-20:35:15.508|56=EXC|43=N|98=0|108=30|141=Y|553=072FCM001|554=072FCM001|10=115|
8=FIX.4.4|9=0067|35=A|34=1|49=EXC|56=072|52=20190716-16:29:00.586|98=0|108=30|141=Y|10=024|
8=FIX.4.4|9=0049|35=0|34=2|49=EXC|56=072|52=20190716-16:29:30.000|10=178|
8=FIX.4.4|9=59|35=0|34=2|49=072|50=072X01|52=20190715-20:35:46.496|56=EXC|10=089|
8=FIX.4.4|9=0049|35=0|34=3|49=EXC|56=072|52=20190716-16:30:00.000|10=168|
8=FIX.4.4|9=59|35=0|34=3|49=072|50=072X01|52=20190715-20:36:16.497|56=EXC|10=089|
8=FIX.4.4|9=0049|35=0|34=4|49=EXC|56=072|52=20190716-16:30:30.000|10=172|
8=FIX.4.4|9=59|35=0|34=4|49=072|50=072X01|52=20190715-20:36:46.497|56=EXC|10=093|
8=FIX.4.4|9=0049|35=0|34=5|49=EXC|56=072|52=20190716-16:31:00.000|10=171|
8=FIX.4.4|9=59|35=0|34=5|49=072|50=072X01|52=20190715-20:37:16.498|56=EXC|10=093|
8=FIX.4.4|9=0049|35=0|34=6|49=EXC|56=072|52=20190716-16:31:30.000|10=175|
8=FIX.4.4|9=59|35=0|34=6|49=072|50=072X01|52=20190715-20:37:46.496|56=EXC|10=095|
8=FIX.4.4|9=0049|35=0|34=7|49=EXC|56=072|52=20190716-16:32:00.000|10=174|
8=FIX.4.4|9=59|35=0|34=7|49=072|50=072X01|52=20190715-20:38:16.496|56=EXC|10=094|
8=FIX.4.4|9=0049|35=0|34=8|49=EXC|56=072|52=20190716-16:32:30.000|10=178|
8=FIX.4.4|9=59|35=0|34=8|49=072|50=072X01|52=20190715-20:38:46.496|56=EXC|10=098|
8=FIX.4.4|9=0049|35=0|34=9|49=EXC|56=072|52=20190716-16:33:00.000|10=177|
8=FIX.4.4|9=59|35=0|34=9|49=072|50=072X01|52=20190715-20:39:16.497|56=EXC|10=098|
8=FIX.4.4|9=0050|35=0|34=10|49=EXC|56=072|52=20190716-16:33:30.000|10=212|
8=FIX.4.4|9=60|35=0|34=10|49=072|50=072X01|52=20190715-20:39:46.497|56=EXC|10=133|
8=FIX.4.4|9=0050|35=0|34=11|49=EXC|56=072|52=20190716-16:34:00.000|10=211|
8=FIX.4.4|9=60|35=0|34=11|49=072|50=072X01|52=20190715-20:40:16.497|56=EXC|10=123|
8=FIX.4.4|9=0050|35=0|34=12|49=EXC|56=072|52=20190716-16:34:30.000|10=215|
8=FIX.4.4|9=60|35=0|34=12|49=072|50=072X01|52=20190715-20:40:46.498|56=EXC|10=128|
8=FIX.4.4|9=0050|35=0|34=13|49=EXC|56=072|52=20190716-16:35:00.000|10=214|
8=FIX.4.4|9=60|35=0|34=13|49=072|50=072X01|52=20190715-20:41:16.498|56=EXC|10=127|
8=FIX.4.4|9=0050|35=0|34=14|49=EXC|56=072|52=20190716-16:35:30.000|10=218|
8=FIX.4.4|9=60|35=0|34=14|49=072|50=072X01|52=20190715-20:41:46.498|56=EXC|10=131|
8=FIX.4.4|9=0050|35=0|34=15|49=EXC|56=072|52=20190716-16:36:00.000|10=217|
8=FIX.4.4|9=60|35=0|34=15|49=072|50=072X01|52=20190715-20:42:16.498|56=EXC|10=130|
8=FIX.4.4|9=0050|35=0|34=16|49=EXC|56=072|52=20190716-16:36:30.000|10=221|
8=FIX.4.4|9=60|35=0|34=16|49=072|50=072X01|52=20190715-20:42:46.498|56=EXC|10=134|
8=FIX.4.4|9=0050|35=0|34=17|49=EXC|56=072|52=20190716-16:37:00.000|10=220|
8=FIX.4.4|9=60|35=0|34=17|49=072|50=072X01|52=20190715-20:43:16.497|56=EXC|10=132|
8=FIX.4.4|9=0050|35=0|34=18|49=EXC|56=072|52=20190716-16:37:30.000|10=224|
8=FIX.4.4|9=60|35=0|34=18|49=072|50=072X01|52=20190715-20:43:46.497|56=EXC|10=136|
8=FIX.4.4|9=0050|35=0|34=19|49=EXC|56=072|52=20190716-16:38:00.000|10=223|
8=FIX.4.4|9=60|35=0|34=19|49=072|50=072X01|52=20190715-20:44:16.497|56=EXC|10=135|
8=FIX.4.4|9=0050|35=0|34=20|49=EXC|56=072|52=20190716-16:38:30.000|10=218|
8=FIX.4.4|9=60|35=0|34=20|49=072|50=072X01|52=20190715-20:44:46.497|56=EXC|10=130|
8=FIX.4.4|9=0050|35=0|34=21|49=EXC|56=072|52=20190716-16:39:00.000|10=217|
8=FIX.4.4|9=60|35=0|34=21|49=072|50=072X01|52=20190715-20:45:16.497|56=EXC|10=129|
8=FIX.4.4|9=0050|35=0|34=22|49=EXC|56=072|52=20190716-16:39:30.000|10=221|
8=FIX.4.4|9=60|35=0|34=22|49=072|50=072X01|52=20190715-20:45:46.497|56=EXC|10=133|
8=FIX.4.4|9=110|35=A|34=1|49=072|50=072X01|52=20190715-20:47:26.146|56=EXC|43=N|98=0|108=30|141=Y|553=072FCM001|554=072FCM001|10=118|
8=FIX.4.4|9=0067|35=A|34=1|49=EXC|56=072|52=20190716-16:41:11.225|98=0|108=30|141=Y|10=010|
8=FIX.4.4|9=0049|35=0|34=2|49=EXC|56=072|52=20190716-16:41:41.000|10=174|
8=FIX.4.4|9=59|35=0|34=2|49=072|50=072X01|52=20190715-20:47:57.133|56=EXC|10=082|
8=FIX.4.4|9=0049|35=0|34=3|49=EXC|56=072|52=20190716-16:42:11.000|10=173|
8=FIX.4.4|9=59|35=0|34=3|49=072|50=072X01|52=20190715-20:48:27.133|56=EXC|10=081|
8=FIX.4.4|9=0049|35=0|34=4|49=EXC|56=072|52=20190716-16:42:41.000|10=177|
8=FIX.4.4|9=59|35=0|34=4|49=072|50=072X01|52=20190715-20:48:57.133|56=EXC|10=085|
8=FIX.4.4|9=0049|35=0|34=5|49=EXC|56=072|52=20190716-16:43:11.000|10=176|
8=FIX.4.4|9=59|35=0|34=5|49=072|50=072X01|52=20190715-20:49:27.134|56=EXC|10=085|
8=FIX.4.4|9=0049|35=0|34=6|49=EXC|56=072|52=20190716-16:43:41.000|10=180|
8=FIX.4.4|9=59|35=0|34=6|49=072|50=072X01|52=20190715-20:49:57.133|56=EXC|10=088|
8=FIX.4.4|9=0049|35=0|34=7|49=EXC|56=072|52=20190716-16:44:11.000|10=179|
8=FIX.4.4|9=59|35=0|34=7|49=072|50=072X01|52=20190715-20:50:27.135|56=EXC|10=080|
8=FIX.4.4|9=0049|35=0|34=8|49=EXC|56=072|52=20190716-16:44:41.000|10=183|
8=FIX.4.4|9=59|35=0|34=8|49=072|50=072X01|52=20190715-20:50:57.134|56=EXC|10=083|
8=FIX.4.4|9=0049|35=0|34=9|49=EXC|56=072|52=20190716-16:45:11.000|10=182|
8=FIX.4.4|9=59|35=0|34=9|49=072|50=072X01|52=20190715-20:51:27.134|56=EXC|10=082|
8=FIX.4.4|9=0050|35=0|34=10|49=EXC|56=072|52=20190716-16:45:41.000|10=217|
8=FIX.4.4|9=60|35=0|34=10|49=072|50=072X01|52=20190715-20:51:57.133|56=EXC|10=116|
8=FIX.4.4|9=0050|35=0|34=11|49=EXC|56=072|52=20190716-16:46:11.000|10=216|
8=FIX.4.4|9=60|35=0|34=11|49=072|50=072X01|52=20190715-20:52:27.134|56=EXC|10=116|
8=FIX.4.4|9=0050|35=0|34=12|49=EXC|56=072|52=20190716-16:46:41.000|10=220|
8=FIX.4.4|9=60|35=0|34=12|49=072|50=072X01|52=20190715-20:52:57.134|56=EXC|10=120|
8=FIX.4.4|9=0050|35=0|34=13|49=EXC|56=072|52=20190716-16:47:11.000|10=219|
8=FIX.4.4|9=60|35=0|34=13|49=072|50=072X01|52=20190715-20:53:27.135|56=EXC|10=120|
8=FIX.4.4|9=0050|35=0|34=14|49=EXC|56=072|52=20190716-16:47:41.000|10=223|
8=FIX.4.4|9=60|35=0|34=14|49=072|50=072X01|52=20190715-20:53:57.135|56=EXC|10=124|
8=FIX.4.4|9=0050|35=0|34=15|49=EXC|56=072|52=20190716-16:48:11.000|10=222|
8=FIX.4.4|9=60|35=0|34=15|49=072|50=072X01|52=20190715-20:54:27.135|56=EXC|10=123|
8=FIX.4.4|9=0050|35=0|34=16|49=EXC|56=072|52=20190716-16:48:41.000|10=226|
8=FIX.4.4|9=60|35=0|34=16|49=072|50=072X01|52=20190715-20:54:57.134|56=EXC|10=126|
8=FIX.4.4|9=0050|35=0|34=17|49=EXC|56=072|52=20190716-16:49:11.000|10=225|
8=FIX.4.4|9=60|35=0|34=17|49=072|50=072X01|52=20190715-20:55:27.135|56=EXC|10=126|
8=FIX.4.4|9=0050|35=0|34=18|49=EXC|56=072|52=20190716-16:49:41.000|10=229|
8=FIX.4.4|9=60|35=0|34=18|49=072|50=072X01|52=20190715-20:55:57.135|56=EXC|10=130|
8=FIX.4.4|9=0050|35=0|34=19|49=EXC|56=072|52=20190716-16:50:11.000|10=219|
8=FIX.4.4|9=60|35=0|34=19|49=072|50=072X01|52=20190715-20:56:27.134|56=EXC|10=128|
8=FIX.4.4|9=0050|35=0|34=20|49=EXC|56=072|52=20190716-16:50:41.000|10=214|
8=FIX.4.4|9=60|35=0|34=20|49=072|50=072X01|52=20190715-20:56:57.135|56=EXC|10=124|
8=FIX.4.4|9=0050|35=0|34=21|49=EXC|56=072|52=20190716-16:51:11.000|10=213|
8=FIX.4.4|9=60|35=0|34=21|49=072|50=072X01|52=20190715-20:57:27.135|56=EXC|10=123|
8=FIX.4.4|9=0050|35=0|34=22|49=EXC|56=072|52=20190716-16:51:41.000|10=217|
8=FIX.4.4|9=60|35=0|34=22|49=072|50=072X01|52=20190715-20:57:57.135|56=EXC|10=127|
8=FIX.4.4|9=0050|35=0|34=23|49=EXC|56=072|52=20190716-16:52:11.000|10=216|
8=FIX.4.4|9=60|35=0|34=23|49=072|50=072X01|52=20190715-20:58:27.134|56=EXC|10=125|
8=FIX.4.4|9=0050|35=0|34=24|49=EXC|56=072|52=20190716-16:52:41.000|10=220|
8=FIX.4.4|9=60|35=0|34=24|49=072|50=072X01|52=20190715-20:58:57.135|56=EXC|10=130|
8=FIX.4.4|9=0050|35=0|34=25|49=EXC|56=072|52=20190716-16:53:11.000|10=219|
8=FIX.4.4|9=60|35=0|34=25|49=072|50=072X01|52=20190715-20:59:27.134|56=EXC|10=128|
8=FIX.4.4|9=0050|35=0|34=26|49=EXC|56=072|52=20190716-16:53:41.000|10=223|
8=FIX.4.4|9=60|35=0|34=26|49=072|50=072X01|52=20190715-20:59:57.136|56=EXC|10=134|
8=FIX.4.4|9=0050|35=0|34=27|49=EXC|56=072|52=20190716-16:54:11.000|10=222|
8=FIX.4.4|9=60|35=0|34=27|49=072|50=072X01|52=20190715-21:00:27.136|56=EXC|10=119|
8=FIX.4.4|9=0050|35=0|34=28|49=EXC|56=072|52=20190716-16:54:41.000|10=226|
8=FIX.4.4|9=60|35=0|34=28|49=072|50=072X01|52=20190715-21:00:57.135|56=EXC|10=122|
8=FIX.4.4|9=0050|35=0|34=29|49=EXC|56=072|52=20190716-16:55:11.000|10=225|
8=FIX.4.4|9=60|35=0|34=29|49=072|50=072X01|52=20190715-21:01:27.136|56=EXC|10=122|
8=FIX.4.4|9=0050|35=0|34=30|49=EXC|56=072|52=20190716-16:55:41.000|10=220|
8=FIX.4.4|9=60|35=0|34=30|49=072|50=072X01|52=20190715-21:01:57.134|56=EXC|10=115|
8=FIX.4.4|9=0050|35=0|34=31|49=EXC|56=072|52=20190716-16:56:11.000|10=219|
