8=FIX.4.4|9=0342|35=AE|34=2|49=EXC|56=071|57=071X01|52=20190712-17:30:29.102|571=8S1|487=0|856=14|17=25|573=0|15=COP|880=201907120000000008|75=20190712|55=T24Q19F|762=FUIR|48=26623|22=M|31=1000.000|32=100|381=250000000000.000|60=20190712-17:30:29.102|64=20190712|552=1|54=2|453=3|448=071X01|447=C|452=12|448=071|447=C|452=1|448=071FCM001|447=C|452=36|1=DP002|10=110|
8=FIX.4.4|9=192|35=AE|34=2|49=071|50=071X01|52=20190712-16:49:29.112|56=EXC|31=1000|32=100|55=T24Q19F|60=20190712-17:27:56.438|487=2|571=201907121149031_AE_R|762=FUIR|856=97|880=201907120000000008|552=1|54=2|10=211|
8=FIX.4.4|9=0342|35=AE|34=3|49=EXC|56=071|57=071X01|52=20190712-17:30:44.171|571=8S1|487=2|856=99|17=26|573=0|15=COP|880=201907120000000008|75=20190712|55=T24Q19F|762=FUIR|48=26623|22=M|31=1000.000|32=100|381=250000000000.000|60=20190712-17:30:44.171|64=20190712|552=1|54=2|453=3|448=071X01|447=C|452=12|448=071|447=C|452=1|448=071FCM001|447=C|452=36|1=DP002|10=133|
8=FIX.4.4|9=192|35=AE|34=3|49=071|50=071X01|52=20190712-16:49:29.174|56=EXC|31=1000|32=100|55=T24Q19F|60=20190712-17:27:56.438|487=2|571=201907121149031_AE_R|762=FUIR|856=97|880=201907120000000008|552=1|54=2|10=220|
8=FIX.4.4|9=0195|35=AR|34=4|49=EXC|56=071|57=071X01|52=20190712-17:30:44.238|571=201907121149031_AE_R|487=2|856=97|939=1|17=27|60=20190712-17:30:44.238|751=99|58=(377): Trades with (U) status cannot be confirmed|10=082|
8=FIX.4.4|9=59|35=5|34=4|49=071|50=071X01|52=20190712-16:49:49.304|56=EXC|10=092|
8=FIX.4.4|9=0049|35=5|34=5|49=EXC|56=071|52=20190712-17:31:04.366|10=191|
8=FIX.4.4|9=110|35=A|34=1|49=071|50=071X01|52=20190712-19:50:07.552|56=EXC|43=N|98=0|108=30|141=Y|553=071FCM001|554=071FCM001|10=113|
8=FIX.4.4|9=0067|35=A|34=1|49=EXC|56=071|52=20190712-20:31:22.780|98=0|108=30|141=Y|10=007|
8=FIX.4.4|9=0342|35=AE|34=2|49=EXC|56=071|57=071X01|52=20190712-20:31:30.130|571=9S1|487=0|856=14|17=33|573=0|15=COP|880=201907120000000009|75=20190712|55=T24Q19F|762=FUIR|48=26623|22=M|31=1000.000|32=100|381=250000000000.000|60=20190712-20:31:30.130|64=20190712|552=1|54=2|453=3|448=071X01|447=C|452=12|448=071|447=C|452=1|448=071FCM001|447=C|452=36|1=DP002|10=087|
8=FIX.4.4|9=110|35=A|34=1|49=071|50=071X01|52=20190712-20:56:31.988|56=EXC|43=N|98=0|108=30|141=Y|553=071FCM001|554=071FCM001|10=121|
8=FIX.4.4|9=0067|35=A|34=1|49=EXC|56=071|52=20190712-21:31:45.096|98=0|108=30|141=Y|10=013|
8=FIX.4.4|9=0343|35=AE|34=2|49=EXC|56=071|57=071X01|52=20190712-21:31:52.136|571=10S1|487=0|856=14|17=35|573=0|15=COP|880=201907120000000010|75=20190712|55=T24Q19F|762=FUIR|48=26623|22=M|31=1000.000|32=100|381=250000000000.000|60=20190712-21:31:52.136|64=20190712|552=1|54=2|453=3|448=071X01|447=C|452=12|448=071|447=C|452=1|448=071FCM001|447=C|452=36|1=DP002|10=144|
8=FIX.4.4|9=59|35=0|34=2|49=071|50=071X01|52=20190712-20:57:02.959|56=EXC|10=084|
8=FIX.4.4|9=0049|35=0|34=3|49=EXC|56=071|52=20190712-21:32:22.000|10=165|
8=FIX.4.4|9=59|35=0|34=3|49=071|50=071X01|52=20190712-20:57:32.957|56=EXC|10=086|
8=FIX.4.4|9=0049|35=0|34=4|49=EXC|56=071|52=20190712-21:32:52.000|10=169|
8=FIX.4.4|9=110|35=A|34=1|49=071|50=071X01|52=20190714-00:01:28.426|56=EXC|43=N|98=0|108=30|141=Y|553=071FCM001|554=071FCM001|10=104|
8=FIX.4.4|9=0067|35=A|34=1|49=EXC|56=071|52=20190716-17:40:38.549|98=0|108=30|141=Y|10=027|
8=FIX.4.4|9=0049|35=0|34=2|49=EXC|56=071|52=20190716-17:41:08.000|10=177|
8=FIX.4.4|9=59|35=0|34=2|49=071|50=071X01|52=20190714-00:01:59.388|56=EXC|10=081|
8=FIX.4.4|9=110|35=A|34=1|49=071|50=071X01|52=20190714-00:12:53.049|56=EXC|43=N|98=0|108=30|141=Y|553=071FCM001|554=071FCM001|10=105|
8=FIX.4.4|9=0067|35=A|34=1|49=EXC|56=071|52=20190716-17:52:03.179|98=0|108=30|141=Y|10=021|
8=FIX.4.4|9=110|35=A|34=1|49=071|50=071X01|52=20190714-01:40:48.878|56=EXC|43=N|98=0|108=30|141=Y|553=071FCM001|554=071FCM001|10=121|
8=FIX.4.4|9=0067|35=A|34=1|49=EXC|56=071|52=20190716-16:00:58.968|98=0|108=30|141=Y|10=029|
8=FIX.4.4|9=0340|35=AE|34=2|49=EXC|56=071|57=071X01|52=20190716-16:01:06.054|571=1S1|487=0|856=14|17=2|573=0|15=COP|880=201907160000000001|75=20190716|55=T24Q19F|762=FUIR|48=26623|22=M|31=1000.000|32=50|381=125000000000.000|60=20190716-16:01:06.054|64=20190716|552=1|54=2|453=3|448=071X01|447=C|452=12|448=071|447=C|452=1|448=071FCM001|447=C|452=36|1=DP002|10=014|
8=FIX.4.4|9=59|35=0|34=2|49=071|50=071X01|52=20190714-01:41:18.878|56=EXC|10=085|
8=FIX.4.4|9=0049|35=0|34=3|49=EXC|56=071|52=20190716-16:01:36.000|10=174|
8=FIX.4.4|9=110|35=A|34=1|49=071|50=071X01|52=20190714-01:44:26.370|56=EXC|43=N|98=0|108=30|141=Y|553=071FCM001|554=071FCM001|10=108|
8=FIX.4.4|9=0067|35=A|34=1|49=EXC|56=071|52=20190716-16:04:36.469|98=0|108=30|141=Y|10=025|
8=FIX.4.4|9=0049|35=0|34=2|49=EXC|56=071|52=20190716-16:05:06.000|10=174|
8=FIX.4.4|9=59|35=0|34=2|49=071|50=071X01|52=20190714-01:44:56.362|56=EXC|10=078|
8=FIX.4.4|9=0049|35=0|34=3|49=EXC|56=071|52=20190716-16:05:36.000|10=178|
8=FIX.4.4|9=59|35=0|34=3|49=071|50=071X01|52=20190714-01:45:26.365|56=EXC|10=080|
8=FIX.4.4|9=110|35=A|34=1|49=071|50=071X01|52=20190714-01:58:41.065|56=EXC|43=N|98=0|108=30|141=Y|553=071FCM001|554=071FCM001|10=111|
8=FIX.4.4|9=0067|35=A|34=1|49=EXC|56=071|52=20190716-16:18:51.159|98=0|108=30|141=Y|10=023|
8=FIX.4.4|9=0340|35=AE|34=2|49=EXC|56=071|57=071X01|52=20190716-16:18:58.285|571=2S1|487=0|856=14|17=4|573=0|15=COP|880=201907160000000002|75=20190716|55=T24Q19F|762=FUIR|48=26623|22=M|31=1000.000|32=50|381=125000000000.000|60=20190716-16:18:58.285|64=20190716|552=1|54=2|453=3|448=071X01|447=C|452=12|448=071|447=C|452=1|448=071FCM001|447=C|452=36|1=DP002|10=060|
8=FIX.4.4|9=59|35=0|34=2|49=071|50=071X01|52=20190714-01:59:11.066|56=EXC|10=076|
8=FIX.4.4|9=0049|35=0|34=3|49=EXC|56=071|52=20190716-16:19:28.000|10=184|
8=FIX.4.4|9=110|35=A|34=1|49=071|50=071X01|52=20190714-03:12:45.690|56=EXC|43=N|98=0|108=30|141=Y|553=071FCM001|554=071FCM001|10=111|
8=FIX.4.4|9=0067|35=A|34=1|49=EXC|56=071|52=20190716-17:32:55.782|98=0|108=30|141=Y|10=026|
8=FIX.4.4|9=0340|35=AE|34=2|49=EXC|56=071|57=071X01|52=20190716-17:33:02.916|571=3S1|487=0|856=14|17=6|573=0|15=COP|880=201907160000000003|75=20190716|55=T24Q19F|762=FUIR|48=26623|22=M|31=1000.000|32=50|381=125000000000.000|60=20190716-17:33:02.916|64=20190716|552=1|54=2|453=3|448=071X01|447=C|452=12|448=071|447=C|452=1|448=071FCM001|447=C|452=36|1=DP002|10=040|
8=FIX.4.4|9=192|35=AE|34=2|49=071|50=071X01|52=20190714-03:13:07.937|56=EXC|31=1000|32=100|55=T24Q19F|60=20190716-17:28:22.826|487=2|571=201907132212431_AE_R|762=FUIR|856=97|880=201907160000000003|552=1|54=2|10=206|
8=FIX.4.4|9=0132|35=AR|34=3|49=EXC|56=071|57=071X01|52=20190716-17:33:18.015|571=201907132212431_AE|487=2|856=97|939=0|17=7|60=20190716-17:33:18.015|10=245|
8=FIX.4.4|9=0355|35=AE|34=4|49=EXC|56=071|57=071X01|52=20190716-17:33:18.015|571=201907132212431_AE|487=2|856=99|17=8|573=0|15=COP|880=201907160000000003|75=20190716|55=T24Q19F|762=FUIR|48=26623|22=M|31=1000.000|32=50|381=125000000000.000|60=20190716-17:33:18.015|64=20190716|552=1|54=2|453=3|448=071X01|447=C|452=12|448=071|447=C|452=1|448=071FCM001|447=C|452=36|1=DP002|10=095|
8=FIX.4.4|9=0049|35=0|34=5|49=EXC|56=071|52=20190716-17:33:48.000|10=185|
8=FIX.4.4|9=59|35=0|34=3|49=071|50=071X01|52=20190714-03:13:37.936|56=EXC|10=083|
8=FIX.4.4|9=110|35=A|34=1|49=071|50=071X01|52=20190714-03:19:37.086|56=EXC|43=N|98=0|108=30|141=Y|553=071FCM001|554=071FCM001|10=118|
8=FIX.4.4|9=0067|35=A|34=1|49=EXC|56=071|52=20190716-17:39:47.181|98=0|108=30|141=Y|10=027|
8=FIX.4.4|9=0049|35=0|34=2|49=EXC|56=071|52=20190716-17:40:17.000|10=176|
8=FIX.4.4|9=110|35=A|34=1|49=071|50=071X01|52=20190714-03:22:44.959|56=EXC|43=N|98=0|108=30|141=Y|553=071FCM001|554=071FCM001|10=119|
8=FIX.4.4|9=0067|35=A|34=1|49=EXC|56=071|52=20190716-17:42:55.053|98=0|108=30|141=Y|10=018|
8=FIX.4.4|9=0341|35=AE|34=2|49=EXC|56=071|57=071X01|52=20190716-17:43:02.133|571=4S1|487=0|856=14|17=10|573=0|15=COP|880=201907160000000004|75=20190716|55=T24Q19F|762=FUIR|48=26623|22=M|31=1000.000|32=50|381=125000000000.000|60=20190716-17:43:02.133|64=20190716|552=1|54=2|453=3|448=071X01|447=C|452=12|448=071|447=C|452=1|448=071FCM001|447=C|452=36|1=DP002|10=070|
8=FIX.4.4|9=192|35=AE|34=2|49=071|50=071X01|52=20190714-03:23:07.154|56=EXC|31=1000|32=100|55=T24Q19F|60=20190716-17:41:16.872|487=2|571=201907132222421_AE_R|762=FUIR|856=97|880=201907160000000004|552=1|54=2|10=198|
8=FIX.4.4|9=0341|35=AE|34=3|49=EXC|56=071|57=071X01|52=20190716-17:43:17.234|571=4S1|487=2|856=99|17=11|573=0|15=COP|880=201907160000000004|75=20190716|55=T24Q19F|762=FUIR|48=26623|22=M|31=1000.000|32=50|381=125000000000.000|60=20190716-17:43:17.234|64=20190716|552=1|54=2|453=3|448=071X01|447=C|452=12|448=071|447=C|452=1|448=071FCM001|447=C|452=36|1=DP002|10=103|
8=FIX.4.4|9=59|35=5|34=3|49=071|50=071X01|52=20190714-03:23:27.949|56=EXC|10=092|
8=FIX.4.4|9=0049|35=5|34=4|49=EXC|56=071|52=20190716-17:43:38.027|10=198|
8=FIX.4.4|9=110|35=A|34=1|49=071|50=071X01|52=20190715-13:08:35.709|56=EXC|43=N|98=0|108=30|141=Y|553=071FCM001|554=071FCM001|10=118|
8=FIX.4.4|9=0067|35=A|34=1|49=EXC|56=071|52=20190716-15:06:03.797|98=0|108=30|141=Y|10=024|
8=FIX.4.4|9=0340|35=AE|34=2|49=EXC|56=071|57=071X01|52=20190716-15:06:10.893|571=1S1|487=0|856=14|17=2|573=0|15=COP|880=201907160000000001|75=20190716|55=T24Q19F|762=FUIR|48=26623|22=M|31=1000.000|32=50|381=125000000000.000|60=20190716-15:06:10.893|64=20190716|552=1|54=2|453=3|448=071X01|447=C|452=12|448=071|447=C|452=1|448=071FCM001|447=C|452=36|1=DP002|10=034|
8=FIX.4.4|9=191|35=AE|34=2|49=071|50=071X01|52=20190715-13:08:57.884|56=EXC|31=1000|32=100|55=T24Q19F|60=20190716-15:03:52.100|487=2|571=20190715808321_AE_R|762=FUIR|856=97|880=201907160000000001|552=1|54=2|10=155|
8=FIX.4.4|9=0131|35=AR|34=3|49=EXC|56=071|57=071X01|52=20190716-15:06:25.943|571=20190715808321_AE|487=2|856=97|939=0|17=3|60=20190716-15:06:25.943|10=213|
8=FIX.4.4|9=0354|35=AE|34=4|49=EXC|56=071|57=071X01|52=20190716-15:06:25.943|571=20190715808321_AE|487=2|856=99|17=4|573=0|15=COP|880=201907160000000001|75=20190716|55=T24Q19F|762=FUIR|48=26623|22=M|31=1000.000|32=50|381=125000000000.000|60=20190716-15:06:25.943|64=20190716|552=1|54=2|453=3|448=071X01|447=C|452=12|448=071|447=C|452=1|448=071FCM001|447=C|452=36|1=DP002|10=061|
8=FIX.4.4|9=0049|35=0|34=5|49=EXC|56=071|52=20190716-15:06:55.000|10=181|
8=FIX.4.4|9=59|35=0|34=3|49=071|50=071X01|52=20190715-13:09:28.643|56=EXC|10=085|
8=FIX.4.4|9=0049|35=0|34=6|49=EXC|56=071|52=20190716-15:07:25.000|10=180|
8=FIX.4.4|9=59|35=0|34=4|49=071|50=071X01|52=20190715-13:09:58.648|56=EXC|10=094|
8=FIX.4.4|9=110|35=A|34=1|49=071|50=071X01|52=20190715-13:10:01.672|56=EXC|43=N|98=0|108=30|141=Y|553=071FCM001|554=071FCM001|10=103|
8=FIX.4.4|9=110|35=A|34=1|49=071|50=071X01|52=20190715-13:27:08.450|56=EXC|43=N|98=0|108=30|141=Y|553=071FCM001|554=071FCM001|10=112|
8=FIX.4.4|9=0067|35=A|34=1|49=EXC|56=071|52=20190716-15:24:36.524|98=0|108=30|141=Y|10=018|
8=FIX.4.4|9=0340|35=AE|34=2|49=EXC|56=071|57=071X01|52=20190716-15:24:43.648|571=3S1|487=0|856=14|17=7|573=0|15=COP|880=201907160000000003|75=20190716|55=T24Q19F|762=FUIR|48=26623|22=M|31=1000.000|32=50|381=125000000000.000|60=20190716-15:24:43.648|64=20190716|552=1|54=2|453=3|448=071X01|447=C|452=12|448=071|447=C|452=1|448=071FCM001|447=C|452=36|1=DP002|10=051|
8=FIX.4.4|9=191|35=AE|34=2|49=071|50=071X01|52=20190715-13:27:30.672|56=EXC|31=1000|32=100|55=T24Q19F|60=20190716-15:23:08.699|487=2|571=20190715827051_AE_R|762=FUIR|856=97|880=201907160000000003|552=1|54=2|10=171|
8=FIX.4.4|9=0340|35=AE|34=3|49=EXC|56=071|57=071X01|52=20190716-15:24:58.730|571=3S1|487=2|856=99|17=8|573=0|15=COP|880=201907160000000003|75=20190716|55=T24Q19F|762=FUIR|48=26623|22=M|31=1000.000|32=50|381=125000000000.000|60=20190716-15:24:58.730|64=20190716|552=1|54=2|453=3|448=071X01|447=C|452=12|448=071|447=C|452=1|448=071FCM001|447=C|452=36|1=DP002|10=064|
8=FIX.4.4|9=0049|35=0|34=4|49=EXC|56=071|52=20190716-15:25:28.000|10=181|
8=FIX.4.4|9=59|35=0|34=3|49=071|50=071X01|52=20190715-13:28:01.462|56=EXC|10=076|
8=FIX.4.4|9=0049|35=0|34=5|49=EXC|56=071|52=20190716-15:25:58.000|10=185|
8=FIX.4.4|9=59|35=0|34=4|49=071|50=071X01|52=20190715-13:28:31.466|56=EXC|10=084|
8=FIX.4.4|9=59|35=0|34=5|49=071|50=071X01|52=20190715-13:29:01.565|56=EXC|10=083|
