8=FIX.4.4|9=105|35=A|34=1|49=001|50=001B27|52=20190620-21:31:22.983|56=EXC|98=0|108=30|141=Y|553=001FCM001|554=001FCM001|10=083|
8=FIX.4.4|9=0067|35=A|34=1|49=EXC|56=001|52=20190620-21:31:23.543|98=0|108=30|141=Y|10=253|
8=FIX.4.4|9=105|35=A|34=1|49=001|50=001B27|52=20190620-21:41:55.199|56=EXC|98=0|108=30|141=Y|553=001FCM001|554=001FCM001|10=089|
8=FIX.4.4|9=0067|35=A|34=1|49=EXC|56=001|52=20190620-21:41:55.272|98=0|108=30|141=Y|10=002|
8=FIX.4.4|9=105|35=A|34=1|49=001|50=001B27|52=20190620-21:42:43.949|56=EXC|98=0|108=30|141=Y|553=001FCM001|554=001FCM001|10=090|
8=FIX.4.4|9=0067|35=A|34=1|49=EXC|56=001|52=20190620-21:42:44.039|98=0|108=30|141=Y|10=002|
8=FIX.4.4|9=105|35=A|34=1|49=001|50=001B27|52=20190620-21:54:12.974|56=EXC|98=0|108=30|141=Y|553=001FCM001|554=001FCM001|10=087|
8=FIX.4.4|9=0067|35=A|34=1|49=EXC|56=001|52=20190620-21:54:13.334|98=0|108=30|141=Y|10=255|
8=FIX.4.4|9=105|35=A|34=1|49=001|50=001B27|52=20190620-21:59:27.503|56=EXC|98=0|108=30|141=Y|553=001FCM001|554=001FCM001|10=086|
8=FIX.4.4|9=0067|35=A|34=1|49=EXC|56=001|52=20190620-21:59:27.979|98=0|108=30|141=Y|10=024|
8=FIX.4.4|9=105|35=A|34=1|49=001|50=001B27|52=20190621-13:46:46.353|56=EXC|98=0|108=30|141=Y|553=001FCM001|554=001FCM001|10=088|
8=FIX.4.4|9=0067|35=A|34=1|49=EXC|56=001|52=20190621-13:46:46.381|98=0|108=30|141=Y|10=010|
8=FIX.4.4|9=105|35=A|34=1|49=001|50=001B27|52=20190621-13:51:58.396|56=EXC|98=0|108=30|141=Y|553=001FCM001|554=001FCM001|10=094|
8=FIX.4.4|9=0067|35=A|34=1|49=EXC|56=001|52=20190621-13:51:58.420|98=0|108=30|141=Y|10=003|
8=FIX.4.4|9=105|35=A|34=1|49=001|50=001B27|52=20190621-14:01:12.611|56=EXC|98=0|108=30|141=Y|553=001FCM001|554=001FCM001|10=070|
8=FIX.4.4|9=0067|35=A|34=1|49=EXC|56=001|52=20190621-14:01:12.656|98=0|108=30|141=Y|10=000|
8=FIX.4.4|9=105|35=A|34=1|49=001|50=001B27|52=20190621-14:02:04.254|56=EXC|98=0|108=30|141=Y|553=001FCM001|554=001FCM001|10=075|
8=FIX.4.4|9=0067|35=A|34=1|49=EXC|56=001|52=20190621-14:02:04.298|98=0|108=30|141=Y|10=004|
8=FIX.4.4|9=105|35=A|34=1|49=001|50=001B27|52=20190621-15:58:27.223|56=EXC|98=0|108=30|141=Y|553=001FCM001|554=001FCM001|10=088|
8=FIX.4.4|9=0067|35=A|34=1|49=EXC|56=001|52=20190621-15:58:27.335|98=0|108=30|141=Y|10=013|
8=FIX.4.4|9=105|35=A|34=1|49=001|50=001B27|52=20190621-16:01:48.240|56=EXC|98=0|108=30|141=Y|553=001FCM001|554=001FCM001|10=079|
8=FIX.4.4|9=0067|35=A|34=1|49=EXC|56=001|52=20190621-16:01:48.293|98=0|108=30|141=Y|10=008|
8=FIX.4.4|9=105|35=A|34=1|49=001|50=001B27|52=20190621-16:17:31.033|56=EXC|98=0|108=30|141=Y|553=001FCM001|554=001FCM001|10=078|
8=FIX.4.4|9=0067|35=A|34=1|49=EXC|56=001|52=20190621-16:17:31.128|98=0|108=30|141=Y|10=004|
8=FIX.4.4|9=105|35=A|34=1|49=001|50=001B27|52=20190621-16:24:24.104|56=EXC|98=0|108=30|141=Y|553=001FCM001|554=001FCM001|10=077|
8=FIX.4.4|9=0067|35=A|34=1|49=EXC|56=001|52=20190621-16:24:24.170|98=0|108=30|141=Y|10=001|
8=FIX.4.4|9=105|35=A|34=1|49=001|50=001B27|52=20190621-16:29:19.045|56=EXC|98=0|108=30|141=Y|553=001FCM001|554=001FCM001|10=090|
8=FIX.4.4|9=0067|35=A|34=1|49=EXC|56=001|52=20190621-16:29:19.100|98=0|108=30|141=Y|10=003|
8=FIX.4.4|9=105|35=A|34=1|49=001|50=001B27|52=20190625-14:28:25.917|56=EXC|98=0|108=30|141=Y|553=001FCM001|554=001FCM001|10=096|
8=FIX.4.4|9=0067|35=A|34=1|49=EXC|56=001|52=20190627-14:28:15.611|98=0|108=30|141=Y|10=009|
8=FIX.4.4|9=105|35=A|34=1|49=001|50=001B27|52=20190625-14:51:25.795|56=EXC|98=0|108=30|141=Y|553=001FCM001|554=001FCM001|10=096|
8=FIX.4.4|9=0067|35=A|34=1|49=EXC|56=001|52=20190627-14:51:15.524|98=0|108=30|141=Y|10=008|
8=FIX.4.4|9=105|35=A|34=1|49=001|50=001B27|52=20190625-19:44:14.824|56=EXC|98=0|108=30|141=Y|553=001FCM001|554=001FCM001|10=094|
8=FIX.4.4|9=0067|35=A|34=1|49=EXC|56=001|52=20190627-19:44:14.903|98=0|108=30|141=Y|10=015|
8=FIX.4.4|9=105|35=A|34=1|49=001|50=001B27|52=20190625-19:45:34.941|56=EXC|98=0|108=30|141=Y|553=001FCM001|554=001FCM001|10=097|
8=FIX.4.4|9=0067|35=A|34=1|49=EXC|56=001|52=20190627-19:45:34.989|98=0|108=30|141=Y|10=032|
8=FIX.4.4|9=105|35=A|34=1|49=001|50=001B27|52=20190625-19:54:23.623|56=EXC|98=0|108=30|141=Y|553=001FCM001|554=001FCM001|10=092|
8=FIX.4.4|9=0067|35=A|34=1|49=EXC|56=001|52=20190627-19:54:23.721|98=0|108=30|141=Y|10=014|
8=FIX.4.4|9=105|35=A|34=1|49=001|50=001B27|52=20190625-19:55:23.456|56=EXC|98=0|108=30|141=Y|553=001FCM001|554=001FCM001|10=097|
8=FIX.4.4|9=0067|35=A|34=1|49=EXC|56=001|52=20190627-19:55:23.500|98=0|108=30|141=Y|10=010|
8=FIX.4.4|9=105|35=A|34=1|49=001|50=001B27|52=20190625-20:02:36.326|56=EXC|98=0|108=30|141=Y|553=001FCM001|554=001FCM001|10=081|
8=FIX.4.4|9=0067|35=A|34=1|49=EXC|56=001|52=20190627-20:02:36.402|98=0|108=30|141=Y|10=255|
8=FIX.4.4|9=105|35=A|34=1|49=001|50=001B27|52=20190626-19:09:44.044|56=EXC|98=0|108=30|141=Y|553=001FCM001|554=001FCM001|10=093|
8=FIX.4.4|9=0067|35=A|34=1|49=EXC|56=001|52=20190628-19:09:44.142|98=0|108=30|141=Y|10=015|
8=FIX.4.4|9=105|35=A|34=1|49=001|50=001B27|52=20190626-20:09:29.460|56=EXC|98=0|108=30|141=Y|553=001FCM001|554=001FCM001|10=090|
8=FIX.4.4|9=0067|35=A|34=1|49=EXC|56=001|52=20190628-20:09:29.522|98=0|108=30|141=Y|10=012|
8=FIX.4.4|9=0049|35=0|34=2|49=EXC|56=001|52=20190628-20:09:59.000|10=176|
8=FIX.4.4|9=59|35=0|34=2|49=001|50=001B27|52=20190626-20:10:00.427|56=EXC|10=037|
8=FIX.4.4|9=105|35=A|34=1|49=001|50=001B27|52=20190626-20:10:59.773|56=EXC|98=0|108=30|141=Y|553=001FCM001|554=001FCM001|10=092|
8=FIX.4.4|9=0067|35=A|34=1|49=EXC|56=001|52=20190628-20:10:59.832|98=0|108=30|141=Y|10=011|
8=FIX.4.4|9=0049|35=0|34=2|49=EXC|56=001|52=20190628-20:11:29.000|10=166|
8=FIX.4.4|9=59|35=0|34=2|49=001|50=001B27|52=20190626-20:11:30.718|56=EXC|10=044|
8=FIX.4.4|9=105|35=A|34=1|49=001|50=001B27|52=20190626-20:16:07.707|56=EXC|98=0|108=30|141=Y|553=001FCM001|554=001FCM001|10=088|
8=FIX.4.4|9=0067|35=A|34=1|49=EXC|56=001|52=20190628-20:16:07.781|98=0|108=30|141=Y|10=013|
8=FIX.4.4|9=105|35=A|34=1|49=001|50=001B27|52=20190626-20:20:26.202|56=EXC|98=0|108=30|141=Y|553=001FCM001|554=001FCM001|10=074|
8=FIX.4.4|9=0067|35=A|34=1|49=EXC|56=001|52=20190628-20:20:26.260|98=0|108=30|141=Y|10=001|
8=FIX.4.4|9=105|35=A|34=1|49=001|50=001B27|52=20190626-20:34:32.276|56=EXC|98=0|108=30|141=Y|553=001FCM001|554=001FCM001|10=087|
8=FIX.4.4|9=0067|35=A|34=1|49=EXC|56=001|52=20190628-20:34:32.386|98=0|108=30|141=Y|10=012|
8=FIX.4.4|9=105|35=A|34=1|49=001|50=001B27|52=20190626-20:45:46.126|56=EXC|98=0|108=30|141=Y|553=001FCM001|554=001FCM001|10=088|
8=FIX.4.4|9=0067|35=A|34=1|49=EXC|56=001|52=20190628-20:45:46.242|98=0|108=30|141=Y|10=010|
8=FIX.4.4|9=0049|35=0|34=2|49=EXC|56=001|52=20190628-20:46:16.000|10=170|
8=FIX.4.4|9=59|35=0|34=2|49=001|50=001B27|52=20190626-20:46:17.075|56=EXC|10=053|
8=FIX.4.4|9=0049|35=0|34=3|49=EXC|56=001|52=20190628-20:46:46.000|10=174|
8=FIX.4.4|9=59|35=0|34=3|49=001|50=001B27|52=20190626-20:46:47.075|56=EXC|10=057|
8=FIX.4.4|9=0049|35=0|34=4|49=EXC|56=001|52=20190628-20:47:16.000|10=173|
8=FIX.4.4|9=59|35=0|34=4|49=001|50=001B27|52=20190626-20:47:17.074|56=EXC|10=055|
8=FIX.4.4|9=105|35=A|34=1|49=001|50=001B27|52=20190626-20:47:57.457|56=EXC|98=0|108=30|141=Y|553=001FCM001|554=001FCM001|10=099|
8=FIX.4.4|9=0067|35=A|34=1|49=EXC|56=001|52=20190628-20:47:57.530|98=0|108=30|141=Y|10=014|
8=FIX.4.4|9=105|35=A|34=1|49=001|50=001B27|52=20190626-21:05:42.328|56=EXC|98=0|108=30|141=Y|553=001FCM001|554=001FCM001|10=085|
8=FIX.4.4|9=0067|35=A|34=1|49=EXC|56=001|52=20190628-21:05:41.893|98=0|108=30|141=Y|10=014|
8=FIX.4.4|9=105|35=A|34=1|49=001|50=001B27|52=20190626-21:06:19.604|56=EXC|98=0|108=30|141=Y|553=001FCM001|554=001FCM001|10=087|
8=FIX.4.4|9=0067|35=A|34=1|49=EXC|56=001|52=20190628-21:06:19.129|98=0|108=30|141=Y|10=012|
8=FIX.4.4|9=105|35=A|34=1|49=001|50=001B27|52=20190626-21:07:10.376|56=EXC|98=0|108=30|141=Y|553=001FCM001|554=001FCM001|10=085|
8=FIX.4.4|9=0067|35=A|34=1|49=EXC|56=001|52=20190628-21:07:09.934|98=0|108=30|141=Y|10=016|
8=FIX.4.4|9=0049|35=0|34=2|49=EXC|56=001|52=20190628-21:07:39.000|10=173|
8=FIX.4.4|9=105|35=A|34=1|49=001|50=001B27|52=20190626-21:09:36.569|56=EXC|98=0|108=30|141=Y|553=001FCM001|554=001FCM001|10=099|
8=FIX.4.4|9=0067|35=A|34=1|49=EXC|56=001|52=20190628-21:09:36.127|98=0|108=30|141=Y|10=012|
8=FIX.4.4|9=105|35=A|34=1|49=001|50=001B27|52=20190626-21:10:30.579|56=EXC|98=0|108=30|141=Y|553=001FCM001|554=001FCM001|10=086|
8=FIX.4.4|9=0067|35=A|34=1|49=EXC|56=001|52=20190628-21:10:30.104|98=0|108=30|141=Y|10=249|
8=FIX.4.4|9=105|35=A|34=1|49=001|50=001B27|52=20190626-21:11:06.576|56=EXC|98=0|108=30|141=Y|553=001FCM001|554=001FCM001|10=087|
8=FIX.4.4|9=0067|35=A|34=1|49=EXC|56=001|52=20190628-21:11:06.100|98=0|108=30|141=Y|10=249|
8=FIX.4.4|9=105|35=A|34=1|49=001|50=001B27|52=20190626-21:25:26.788|56=EXC|98=0|108=30|141=Y|553=001FCM001|554=001FCM001|10=099|
8=FIX.4.4|9=0067|35=A|34=1|49=EXC|56=001|52=20190628-21:25:26.686|98=0|108=30|141=Y|10=019|
8=FIX.4.4|9=0049|35=0|34=2|49=EXC|56=001|52=20190628-21:25:56.000|10=172|
8=FIX.4.4|9=105|35=A|34=1|49=001|50=001B27|52=20190626-21:35:17.608|56=EXC|98=0|108=30|141=Y|553=001FCM001|554=001FCM001|10=091|
8=FIX.4.4|9=0067|35=A|34=1|49=EXC|56=001|52=20190628-21:35:17.715|98=0|108=30|141=Y|10=013|
8=FIX.4.4|9=0049|35=0|34=2|49=EXC|56=001|52=20190628-21:35:47.000|10=173|
8=FIX.4.4|9=59|35=0|34=2|49=001|50=001B27|52=20190626-21:35:48.557|56=EXC|10=061|
8=FIX.4.4|9=105|35=A|34=1|49=001|50=001B27|52=20190626-21:55:41.837|56=EXC|98=0|108=30|141=Y|553=001FCM001|554=001FCM001|10=094|
8=FIX.4.4|9=0067|35=A|34=1|49=EXC|56=001|52=20190628-21:55:41.908|98=0|108=30|141=Y|10=016|
8=FIX.4.4|9=0049|35=0|34=2|49=EXC|56=001|52=20190628-21:56:11.000|10=167|
8=FIX.4.4|9=59|35=0|34=2|49=001|50=001B27|52=20190626-21:56:12.789|56=EXC|10=062|
8=FIX.4.4|9=99|35=A|34=3|49=001|50=001B27|52=20190626-21:56:28.073|56=EXC|98=0|108=30|553=001FCM001|554=001FCM001|10=013|
8=FIX.4.4|9=0061|35=A|34=3|49=EXC|56=001|52=20190628-21:56:28.144|98=0|108=30|10=221|
8=FIX.4.4|9=0049|35=0|34=4|49=EXC|56=001|52=20190628-21:56:58.000|10=180|
8=FIX.4.4|9=59|35=0|34=4|49=001|50=001B27|52=20190626-21:56:59.050|56=EXC|10=056|
8=FIX.4.4|9=105|35=A|34=1|49=001|50=001B27|52=20190626-22:01:39.606|56=EXC|98=0|108=30|141=Y|553=001FCM001|554=001FCM001|10=087|
8=FIX.4.4|9=0067|35=A|34=1|49=EXC|56=001|52=20190628-22:01:39.828|98=0|108=30|141=Y|10=016|
8=FIX.4.4|9=105|35=A|34=1|49=001|50=001B27|52=20190626-22:02:08.400|56=EXC|98=0|108=30|141=Y|553=001FCM001|554=001FCM001|10=076|
8=FIX.4.4|9=0067|35=A|34=1|49=EXC|56=001|52=20190628-22:02:08.639|98=0|108=30|141=Y|10=013|
8=FIX.4.4|9=77|35=A|34=1|49=001|50=001B27|52=20190627-19:53:17.454|56=EXC|98=0|108=30|141=Y|10=147|
8=FIX.4.4|9=105|35=A|34=1|49=001|50=001B27|52=20190627-19:54:05.859|56=EXC|98=0|108=30|141=Y|553=001FCM001|554=001FCM001|10=105|
8=FIX.4.4|9=0067|35=A|34=1|49=EXC|56=001|52=20190627-19:54:05.951|98=0|108=30|141=Y|10=019|
8=FIX.4.4|9=105|35=A|34=1|49=001|50=001B27|52=20190628-14:45:15.079|56=EXC|98=0|108=30|141=Y|553=001FCM001|554=001FCM001|10=096|
8=FIX.4.4|9=0067|35=A|34=1|49=EXC|56=001|52=20190628-14:45:15.158|98=0|108=30|141=Y|10=015|
8=FIX.4.4|9=0049|35=0|34=2|49=EXC|56=001|52=20190628-14:45:45.000|10=174|
8=FIX.4.4|9=59|35=0|34=2|49=001|50=001B27|52=20190628-14:45:45.980|56=EXC|10=063|
8=FIX.4.4|9=105|35=A|34=1|49=001|50=001B27|52=20190702-17:24:05.757|56=EXC|98=0|108=30|141=Y|553=001FCM001|554=001FCM001|10=091|
8=FIX.4.4|9=0067|35=A|34=1|49=EXC|56=001|52=20190702-17:24:05.816|98=0|108=30|141=Y|10=008|
8=FIX.4.4|9=0049|35=0|34=2|49=EXC|56=001|52=20190702-17:24:35.000|10=166|
8=FIX.4.4|9=59|35=0|34=2|49=001|50=001B27|52=20190702-17:24:36.691|56=EXC|10=055|
8=FIX.4.4|9=105|35=A|34=1|49=001|50=001B27|52=20190702-17:44:37.158|56=EXC|98=0|108=30|141=Y|553=001FCM001|554=001FCM001|10=093|
8=FIX.4.4|9=0067|35=A|34=1|49=EXC|56=001|52=20190702-17:44:37.210|98=0|108=30|141=Y|10=003|
8=FIX.4.4|9=0049|35=0|34=2|49=EXC|56=001|52=20190702-17:45:07.000|10=168|
8=FIX.4.4|9=59|35=0|34=2|49=001|50=001B27|52=20190702-17:45:08.121|56=EXC|10=045|
8=FIX.4.4|9=105|35=A|34=1|49=001|50=001B27|52=20190702-19:37:34.948|56=EXC|98=0|108=30|141=Y|553=001FCM001|554=001FCM001|10=101|
8=FIX.4.4|9=0067|35=A|34=1|49=EXC|56=001|52=20190702-19:37:35.138|98=0|108=30|141=Y|10=014|
8=FIX.4.4|9=110|35=A|34=1|49=001|50=001B27|52=20190702-20:10:00.992|56=EXC|43=Y|98=0|108=30|141=Y|553=001FCM001|554=001FCM001|10=070|
8=FIX.4.4|9=0067|35=A|34=1|49=EXC|56=001|52=20190702-20:10:01.050|98=0|108=30|141=Y|10=239|
8=FIX.4.4|9=110|35=A|34=1|49=001|50=001B27|52=20190702-21:28:51.515|56=EXC|43=Y|98=0|108=30|141=Y|553=001FCM001|554=001FCM001|10=077|
8=FIX.4.4|9=0067|35=A|34=1|49=EXC|56=001|52=20190702-21:28:51.612|98=0|108=30|141=Y|10=002|
8=FIX.4.4|9=0049|35=0|34=2|49=EXC|56=001|52=20190702-21:29:21.000|10=161|
8=FIX.4.4|9=59|35=0|34=2|49=001|50=001B27|52=20190702-21:29:22.443|56=EXC|10=045|
8=FIX.4.4|9=110|35=A|34=1|49=001|50=001B27|52=20190702-21:33:16.640|56=EXC|43=Y|98=0|108=30|141=Y|553=001FCM001|554=001FCM001|10=073|
8=FIX.4.4|9=0067|35=A|34=1|49=EXC|56=001|52=20190702-21:33:16.724|98=0|108=30|141=Y|10=003|
8=FIX.4.4|9=110|35=A|34=1|49=001|50=001B27|52=20190702-21:36:37.822|56=EXC|43=Y|98=0|108=30|141=Y|553=001FCM001|554=001FCM001|10=081|
8=FIX.4.4|9=0067|35=A|34=1|49=EXC|56=001|52=20190702-21:36:37.912|98=0|108=30|141=Y|10=008|
8=FIX.4.4|9=0049|35=0|34=2|49=EXC|56=001|52=20190702-21:37:07.000|10=164|
8=FIX.4.4|9=59|35=0|34=2|49=001|50=001B27|52=20190702-21:37:08.762|56=EXC|10=052|
8=FIX.4.4|9=110|35=A|34=1|49=001|50=001B27|52=20190702-21:39:52.163|56=EXC|43=Y|98=0|108=30|141=Y|553=001FCM001|554=001FCM001|10=079|
8=FIX.4.4|9=0067|35=A|34=1|49=EXC|56=001|52=20190702-21:39:52.260|98=0|108=30|141=Y|10=004|
8=FIX.4.4|9=110|35=A|34=1|49=001|50=001B27|52=20190703-15:49:21.875|56=EXC|43=Y|98=0|108=30|141=Y|553=001FCM001|554=001FCM001|10=090|
8=FIX.4.4|9=0067|35=A|34=1|49=EXC|56=001|52=20190703-15:55:15.009|98=0|108=30|141=Y|10=006|
8=FIX.4.4|9=110|35=A|34=1|49=001|50=001B27|52=20190703-17:04:33.123|56=EXC|43=Y|98=0|108=30|141=Y|553=001FCM001|554=001FCM001|10=072|
8=FIX.4.4|9=0067|35=A|34=1|49=EXC|56=001|52=20190703-17:10:26.336|98=0|108=30|141=Y|10=004|
8=FIX.4.4|9=110|35=A|34=1|49=001|50=001B27|52=20190703-21:16:39.672|56=EXC|43=Y|98=0|108=30|141=Y|553=001FCM001|554=001FCM001|10=085|
8=FIX.4.4|9=0067|35=A|34=1|49=EXC|56=001|52=20190703-21:22:33.094|98=0|108=30|141=Y|10=001|
8=FIX.4.4|9=186|35=R|34=2|49=001|50=001B27|52=20190703-21:16:47.305|56=EXC|131=201907031616361_R|146=1|55=TFIC13280425|22=M|762=RFQF|54=1|38=500000000|453=2|448=002B35|447=C|452=37|448=DCV|447=C|452=10|10=067|
8=FIX.4.4|9=0268|35=AI|34=2|49=EXC|56=001|57=001B27|52=20190703-21:22:40.660|131=201907031616361_R|453=5|448=DCV|447=C|452=10|448=001B27|447=C|452=12|448=001|447=C|452=1|448=001FCM001|447=C|452=36|448=002B35|447=C|452=37|55=TFIC13280425|762=RFQF|48=20626|22=M|54=1|38=500000000|297=10|10=216|
8=FIX.4.4|9=0316|35=S|34=3|49=EXC|56=001|57=001B27|52=20190703-21:23:00.972|131=201907031616361_R|117=20190703-000000000016.00|55=TFIC13280425|762=RFQF|48=20626|22=M|453=5|448=DCV|447=C|452=10|448=001B27|447=C|452=12|448=001|447=C|452=1|448=001FCM001|447=C|452=36|448=002B35|447=C|452=37|634=3.000|135=500000000|62=20190830-22:00:00|10=241|
8=FIX.4.4|9=59|35=0|34=3|49=001|50=001B27|52=20190703-21:17:17.610|56=EXC|10=044|
8=FIX.4.4|9=148|35=AJ|34=4|49=001|50=001B27|52=20190703-21:17:28.372|56=EXC|54=1|55=TFIC13280425|117=20190703-000000000016.00|693=201907031616361_AJ|694=1|762=RFQF|10=082|
8=FIX.4.4|9=0517|35=8|34=4|49=EXC|56=001|57=001B27|52=20190703-21:23:21.729|11=201907031616361_AJ|17=13|37=0|150=F|1080=20190703-000000000016.00|1081=5|453=6|448=001B27|447=C|452=12|448=001|447=C|452=1|448=002B35|447=C|452=37|448=002|447=C|452=17|448=001FCM001|447=C|452=36|448=DCV|447=C|452=10|55=TFIC13280425|762=RFQF|48=20626|22=M|6=84.197|14=500000000|31=84.197|32=500000000|38=500000000|39=2|20102=84.197|54=1|60=20190703-21:23:21.729|75=20190703|63=1|64=20190703|151=0|1623=3.000|381=420986000.000|880=201907030000000011|828=99|10=185|
8=FIX.4.4|9=0049|35=0|34=5|49=EXC|56=001|52=20190703-21:23:51.000|10=162|
8=FIX.4.4|9=59|35=0|34=5|49=001|50=001B27|52=20190703-21:17:58.616|56=EXC|10=057|
8=FIX.4.4|9=59|35=5|34=6|49=001|50=001B27|52=20190703-21:18:00.619|56=EXC|10=054|
8=FIX.4.4|9=0049|35=5|34=6|49=EXC|56=001|52=20190703-21:23:53.968|10=193|
