8=FIX.4.4|9=105|35=A|34=1|49=013|50=013B17|52=20190620-21:31:23.158|56=EXC|98=0|108=30|141=Y|553=013FCM001|554=013FCM001|10=089|
8=FIX.4.4|9=0067|35=A|34=1|49=EXC|56=013|52=20190620-21:31:23.690|98=0|108=30|141=Y|10=003|
8=FIX.4.4|9=105|35=A|34=1|49=013|50=013B17|52=20190620-21:41:55.650|56=EXC|98=0|108=30|141=Y|553=013FCM001|554=013FCM001|10=092|
8=FIX.4.4|9=0067|35=A|34=1|49=EXC|56=013|52=20190620-21:41:55.857|98=0|108=30|141=Y|10=014|
8=FIX.4.4|9=105|35=A|34=1|49=013|50=013B17|52=20190620-21:42:44.122|56=EXC|98=0|108=30|141=Y|553=013FCM001|554=013FCM001|10=085|
8=FIX.4.4|9=0067|35=A|34=1|49=EXC|56=013|52=20190620-21:42:44.234|98=0|108=30|141=Y|10=002|
8=FIX.4.4|9=105|35=A|34=1|49=013|50=013B17|52=20190620-21:54:13.253|56=EXC|98=0|108=30|141=Y|553=013FCM001|554=013FCM001|10=089|
8=FIX.4.4|9=0067|35=A|34=1|49=EXC|56=013|52=20190620-21:54:13.683|98=0|108=30|141=Y|10=009|
8=FIX.4.4|9=105|35=A|34=1|49=013|50=013B17|52=20190620-21:59:27.641|56=EXC|98=0|108=30|141=Y|553=013FCM001|554=013FCM001|10=100|
8=FIX.4.4|9=0067|35=A|34=1|49=EXC|56=013|52=20190620-21:59:28.112|98=0|108=30|141=Y|10=007|
8=FIX.4.4|9=105|35=A|34=1|49=013|50=013B17|52=20190621-13:46:46.522|56=EXC|98=0|108=30|141=Y|553=013FCM001|554=013FCM001|10=097|
8=FIX.4.4|9=0067|35=A|34=1|49=EXC|56=013|52=20190621-13:46:46.542|98=0|108=30|141=Y|10=012|
8=FIX.4.4|9=105|35=A|34=1|49=013|50=013B17|52=20190621-13:51:58.610|56=EXC|98=0|108=30|141=Y|553=013FCM001|554=013FCM001|10=094|
8=FIX.4.4|9=0067|35=A|34=1|49=EXC|56=013|52=20190621-13:51:58.632|98=0|108=30|141=Y|10=011|
8=FIX.4.4|9=105|35=A|34=1|49=013|50=013B17|52=20190621-14:01:12.838|56=EXC|98=0|108=30|141=Y|553=013FCM001|554=013FCM001|10=092|
8=FIX.4.4|9=0067|35=A|34=1|49=EXC|56=013|52=20190621-14:01:12.883|98=0|108=30|141=Y|10=005|
8=FIX.4.4|9=105|35=A|34=1|49=013|50=013B17|52=20190621-14:02:04.394|56=EXC|98=0|108=30|141=Y|553=013FCM001|554=013FCM001|10=091|
8=FIX.4.4|9=0067|35=A|34=1|49=EXC|56=013|52=20190621-14:02:04.432|98=0|108=30|141=Y|10=253|
8=FIX.4.4|9=105|35=A|34=1|49=013|50=013B17|52=20190621-15:58:27.620|56=EXC|98=0|108=30|141=Y|553=013FCM001|554=013FCM001|10=100|
8=FIX.4.4|9=0067|35=A|34=1|49=EXC|56=013|52=20190621-15:58:27.663|98=0|108=30|141=Y|10=020|
8=FIX.4.4|9=105|35=A|34=1|49=013|50=013B17|52=20190621-16:01:48.528|56=EXC|98=0|108=30|141=Y|553=013FCM001|554=013FCM001|10=099|
8=FIX.4.4|9=0067|35=A|34=1|49=EXC|56=013|52=20190621-16:01:48.583|98=0|108=30|141=Y|10=013|
8=FIX.4.4|9=105|35=A|34=1|49=013|50=013B17|52=20190621-16:17:31.401|56=EXC|98=0|108=30|141=Y|553=013FCM001|554=013FCM001|10=088|
8=FIX.4.4|9=0067|35=A|34=1|49=EXC|56=013|52=20190621-16:17:31.447|98=0|108=30|141=Y|10=011|
8=FIX.4.4|9=105|35=A|34=1|49=013|50=013B17|52=20190621-16:24:24.472|56=EXC|98=0|108=30|141=Y|553=013FCM001|554=013FCM001|10=096|
8=FIX.4.4|9=0067|35=A|34=1|49=EXC|56=013|52=20190621-16:24:24.531|98=0|108=30|141=Y|10=005|
8=FIX.4.4|9=105|35=A|34=1|49=013|50=013B17|52=20190621-16:29:19.383|56=EXC|98=0|108=30|141=Y|553=013FCM001|554=013FCM001|10=106|
8=FIX.4.4|9=0067|35=A|34=1|49=EXC|56=013|52=20190621-16:29:19.412|98=0|108=30|141=Y|10=012|
8=FIX.4.4|9=105|35=A|34=1|49=013|50=013B17|52=20190625-14:28:26.126|56=EXC|98=0|108=30|141=Y|553=013FCM001|554=013FCM001|10=100|
8=FIX.4.4|9=0067|35=A|34=1|49=EXC|56=013|52=20190627-14:28:15.849|98=0|108=30|141=Y|10=025|
8=FIX.4.4|9=105|35=A|34=1|49=013|50=013B17|52=20190625-14:51:26.050|56=EXC|98=0|108=30|141=Y|553=013FCM001|554=013FCM001|10=092|
8=FIX.4.4|9=0067|35=A|34=1|49=EXC|56=013|52=20190627-14:51:15.743|98=0|108=30|141=Y|10=014|
8=FIX.4.4|9=105|35=A|34=1|49=013|50=013B17|52=20190625-19:44:15.107|56=EXC|98=0|108=30|141=Y|553=013FCM001|554=013FCM001|10=100|
8=FIX.4.4|9=0067|35=A|34=1|49=EXC|56=013|52=20190627-19:44:15.153|98=0|108=30|141=Y|10=016|
8=FIX.4.4|9=105|35=A|34=1|49=013|50=013B17|52=20190625-19:45:35.142|56=EXC|98=0|108=30|141=Y|553=013FCM001|554=013FCM001|10=102|
8=FIX.4.4|9=0067|35=A|34=1|49=EXC|56=013|52=20190627-19:45:35.177|98=0|108=30|141=Y|10=025|
8=FIX.4.4|9=105|35=A|34=1|49=013|50=013B17|52=20190625-19:54:23.992|56=EXC|98=0|108=30|141=Y|553=013FCM001|554=013FCM001|10=112|
8=FIX.4.4|9=0067|35=A|34=1|49=EXC|56=013|52=20190627-19:54:24.047|98=0|108=30|141=Y|10=019|
8=FIX.4.4|9=105|35=A|34=1|49=013|50=013B17|52=20190625-19:55:23.734|56=EXC|98=0|108=30|141=Y|553=013FCM001|554=013FCM001|10=107|
8=FIX.4.4|9=0067|35=A|34=1|49=EXC|56=013|52=20190627-19:55:23.787|98=0|108=30|141=Y|10=030|
8=FIX.4.4|9=105|35=A|34=1|49=013|50=013B17|52=20190625-20:02:36.670|56=EXC|98=0|108=30|141=Y|553=013FCM001|554=013FCM001|10=094|
8=FIX.4.4|9=0067|35=A|34=1|49=EXC|56=013|52=20190627-20:02:36.703|98=0|108=30|141=Y|10=006|
8=FIX.4.4|9=105|35=A|34=1|49=013|50=013B17|52=20190626-19:09:44.354|56=EXC|98=0|108=30|141=Y|553=013FCM001|554=013FCM001|10=108|
8=FIX.4.4|9=0067|35=A|34=1|49=EXC|56=013|52=20190628-19:09:44.425|98=0|108=30|141=Y|10=022|
8=FIX.4.4|9=105|35=A|34=1|49=013|50=013B17|52=20190626-20:09:29.680|56=EXC|98=0|108=30|141=Y|553=013FCM001|554=013FCM001|10=105|
8=FIX.4.4|9=0067|35=A|34=1|49=EXC|56=013|52=20190628-20:09:29.737|98=0|108=30|141=Y|10=023|
8=FIX.4.4|9=0049|35=0|34=2|49=EXC|56=013|52=20190628-20:09:59.000|10=179|
8=FIX.4.4|9=59|35=0|34=2|49=013|50=013B17|52=20190626-20:10:00.521|56=EXC|10=037|
8=FIX.4.4|9=105|35=A|34=1|49=013|50=013B17|52=20190626-20:11:00.045|56=EXC|98=0|108=30|141=Y|553=013FCM001|554=013FCM001|10=082|
8=FIX.4.4|9=0067|35=A|34=1|49=EXC|56=013|52=20190628-20:11:00.108|98=0|108=30|141=Y|10=253|
8=FIX.4.4|9=0049|35=0|34=2|49=EXC|56=013|52=20190628-20:11:30.000|10=161|
8=FIX.4.4|9=59|35=0|34=2|49=013|50=013B17|52=20190626-20:11:30.807|56=EXC|10=048|
8=FIX.4.4|9=105|35=A|34=1|49=013|50=013B17|52=20190626-20:16:08.012|56=EXC|98=0|108=30|141=Y|553=013FCM001|554=013FCM001|10=089|
8=FIX.4.4|9=0067|35=A|34=1|49=EXC|56=013|52=20190628-20:16:08.083|98=0|108=30|141=Y|10=012|
8=FIX.4.4|9=105|35=A|34=1|49=013|50=013B17|52=20190626-20:20:26.446|56=EXC|98=0|108=30|141=Y|553=013FCM001|554=013FCM001|10=095|
8=FIX.4.4|9=0067|35=A|34=1|49=EXC|56=013|52=20190628-20:20:26.495|98=0|108=30|141=Y|10=014|
8=FIX.4.4|9=105|35=A|34=1|49=013|50=013B17|52=20190626-20:34:32.550|56=EXC|98=0|108=30|141=Y|553=013FCM001|554=013FCM001|10=093|
8=FIX.4.4|9=0067|35=A|34=1|49=EXC|56=013|52=20190628-20:34:32.627|98=0|108=30|141=Y|10=013|
8=FIX.4.4|9=105|35=A|34=1|49=013|50=013B17|52=20190626-20:45:46.434|56=EXC|98=0|108=30|141=Y|553=013FCM001|554=013FCM001|10=101|
8=FIX.4.4|9=0067|35=A|34=1|49=EXC|56=013|52=20190628-20:45:46.493|98=0|108=30|141=Y|10=021|
8=FIX.4.4|9=0049|35=0|34=2|49=EXC|56=013|52=20190628-20:46:16.000|10=173|
8=FIX.4.4|9=59|35=0|34=2|49=013|50=013B17|52=20190626-20:46:17.154|56=EXC|10=056|
8=FIX.4.4|9=0049|35=0|34=3|49=EXC|56=013|52=20190628-20:46:46.000|10=177|
8=FIX.4.4|9=59|35=0|34=3|49=013|50=013B17|52=20190626-20:46:47.153|56=EXC|10=059|
8=FIX.4.4|9=0049|35=0|34=4|49=EXC|56=013|52=20190628-20:47:16.000|10=176|
8=FIX.4.4|9=59|35=0|34=4|49=013|50=013B17|52=20190626-20:47:17.153|56=EXC|10=058|
8=FIX.4.4|9=105|35=A|34=1|49=013|50=013B17|52=20190626-20:47:57.712|56=EXC|98=0|108=30|141=Y|553=013FCM001|554=013FCM001|10=104|
8=FIX.4.4|9=0067|35=A|34=1|49=EXC|56=013|52=20190628-20:47:57.788|98=0|108=30|141=Y|10=032|
8=FIX.4.4|9=105|35=A|34=1|49=013|50=013B17|52=20190626-21:05:42.627|56=EXC|98=0|108=30|141=Y|553=013FCM001|554=013FCM001|10=098|
8=FIX.4.4|9=0067|35=A|34=1|49=EXC|56=013|52=20190628-21:05:42.176|98=0|108=30|141=Y|10=012|
8=FIX.4.4|9=105|35=A|34=1|49=013|50=013B17|52=20190626-21:06:19.803|56=EXC|98=0|108=30|141=Y|553=013FCM001|554=013FCM001|10=099|
8=FIX.4.4|9=0067|35=A|34=1|49=EXC|56=013|52=20190628-21:06:19.323|98=0|108=30|141=Y|10=011|
8=FIX.4.4|9=105|35=A|34=1|49=013|50=013B17|52=20190626-21:07:10.734|56=EXC|98=0|108=30|141=Y|553=013FCM001|554=013FCM001|10=094|
8=FIX.4.4|9=0067|35=A|34=1|49=EXC|56=013|52=20190628-21:07:10.248|98=0|108=30|141=Y|10=009|
8=FIX.4.4|9=105|35=A|34=1|49=013|50=013B17|52=20190626-21:09:36.805|56=EXC|98=0|108=30|141=Y|553=013FCM001|554=013FCM001|10=103|
8=FIX.4.4|9=0067|35=A|34=1|49=EXC|56=013|52=20190628-21:09:36.323|98=0|108=30|141=Y|10=013|
8=FIX.4.4|9=105|35=A|34=1|49=013|50=013B17|52=20190626-21:10:30.827|56=EXC|98=0|108=30|141=Y|553=013FCM001|554=013FCM001|10=093|
8=FIX.4.4|9=0067|35=A|34=1|49=EXC|56=013|52=20190628-21:10:30.361|98=0|108=30|141=Y|10=001|
8=FIX.4.4|9=105|35=A|34=1|49=013|50=013B17|52=20190626-21:11:06.833|56=EXC|98=0|108=30|141=Y|553=013FCM001|554=013FCM001|10=094|
8=FIX.4.4|9=0067|35=A|34=1|49=EXC|56=013|52=20190628-21:11:06.361|98=0|108=30|141=Y|10=005|
8=FIX.4.4|9=105|35=A|34=1|49=013|50=013B17|52=20190626-21:25:27.044|56=EXC|98=0|108=30|141=Y|553=013FCM001|554=013FCM001|10=096|
8=FIX.4.4|9=0067|35=A|34=1|49=EXC|56=013|52=20190628-21:25:26.939|98=0|108=30|141=Y|10=023|
8=FIX.4.4|9=0049|35=0|34=2|49=EXC|56=013|52=20190628-21:25:56.000|10=175|
8=FIX.4.4|9=105|35=A|34=1|49=013|50=013B17|52=20190626-21:35:17.986|56=EXC|98=0|108=30|141=Y|553=013FCM001|554=013FCM001|10=111|
8=FIX.4.4|9=0067|35=A|34=1|49=EXC|56=013|52=20190628-21:35:18.055|98=0|108=30|141=Y|10=014|
8=FIX.4.4|9=0049|35=0|34=2|49=EXC|56=013|52=20190628-21:35:48.000|10=177|
8=FIX.4.4|9=59|35=0|34=2|49=013|50=013B17|52=20190626-21:35:48.024|56=EXC|10=055|
8=FIX.4.4|9=105|35=A|34=1|49=013|50=013B17|52=20190626-21:55:42.126|56=EXC|98=0|108=30|141=Y|553=013FCM001|554=013FCM001|10=097|
8=FIX.4.4|9=0067|35=A|34=1|49=EXC|56=013|52=20190628-21:55:42.182|98=0|108=30|141=Y|10=014|
8=FIX.4.4|9=0049|35=0|34=2|49=EXC|56=013|52=20190628-21:56:12.000|10=171|
8=FIX.4.4|9=59|35=0|34=2|49=013|50=013B17|52=20190626-21:56:12.873|56=EXC|10=061|
8=FIX.4.4|9=99|35=A|34=3|49=013|50=013B17|52=20190626-21:56:28.255|56=EXC|98=0|108=30|553=013FCM001|554=013FCM001|10=026|
8=FIX.4.4|9=0061|35=A|34=3|49=EXC|56=013|52=20190628-21:56:28.304|98=0|108=30|10=222|
8=FIX.4.4|9=0049|35=0|34=4|49=EXC|56=013|52=20190628-21:56:58.000|10=183|
8=FIX.4.4|9=59|35=0|34=4|49=013|50=013B17|52=20190626-21:56:59.137|56=EXC|10=067|
8=FIX.4.4|9=105|35=A|34=1|49=013|50=013B17|52=20190626-22:01:39.822|56=EXC|98=0|108=30|141=Y|553=013FCM001|554=013FCM001|10=098|
8=FIX.4.4|9=0067|35=A|34=1|49=EXC|56=013|52=20190628-22:01:40.037|98=0|108=30|141=Y|10=003|
8=FIX.4.4|9=105|35=A|34=1|49=013|50=013B17|52=20190626-22:02:08.622|56=EXC|98=0|108=30|141=Y|553=013FCM001|554=013FCM001|10=093|
8=FIX.4.4|9=0067|35=A|34=1|49=EXC|56=013|52=20190628-22:02:08.817|98=0|108=30|141=Y|10=014|
8=FIX.4.4|9=105|35=A|34=1|49=013|50=013B17|52=20190627-19:53:15.852|56=EXC|98=0|108=30|141=Y|553=013FCM001|554=013FCM001|10=109|
8=FIX.4.4|9=0067|35=A|34=1|49=EXC|56=013|52=20190627-19:53:15.922|98=0|108=30|141=Y|10=020|
8=FIX.4.4|9=0049|35=0|34=2|49=EXC|56=013|52=20190627-19:53:45.000|10=180|
8=FIX.4.4|9=59|35=0|34=2|49=013|50=013B17|52=20190627-19:53:46.557|56=EXC|10=072|
8=FIX.4.4|9=105|35=A|34=1|49=013|50=013B17|52=20190627-19:54:06.107|56=EXC|98=0|108=30|141=Y|553=013FCM001|554=013FCM001|10=103|
8=FIX.4.4|9=0067|35=A|34=1|49=EXC|56=013|52=20190627-19:54:06.177|98=0|108=30|141=Y|10=023|
8=FIX.4.4|9=105|35=A|34=1|49=013|50=013B17|52=20190628-14:45:15.481|56=EXC|98=0|108=30|141=Y|553=013FCM001|554=013FCM001|10=104|
8=FIX.4.4|9=0067|35=A|34=1|49=EXC|56=013|52=20190628-14:45:15.557|98=0|108=30|141=Y|10=021|
8=FIX.4.4|9=0049|35=0|34=2|49=EXC|56=013|52=20190628-14:45:45.000|10=177|
8=FIX.4.4|9=59|35=0|34=2|49=013|50=013B17|52=20190628-14:45:46.225|56=EXC|10=061|
8=FIX.4.4|9=105|35=A|34=1|49=013|50=013B17|52=20190702-17:24:05.949|56=EXC|98=0|108=30|141=Y|553=013FCM001|554=013FCM001|10=105|
8=FIX.4.4|9=0067|35=A|34=1|49=EXC|56=013|52=20190702-17:24:06.014|98=0|108=30|141=Y|10=002|
8=FIX.4.4|9=0049|35=0|34=2|49=EXC|56=013|52=20190702-17:24:36.000|10=170|
8=FIX.4.4|9=59|35=0|34=2|49=013|50=013B17|52=20190702-17:24:36.020|56=EXC|10=046|
8=FIX.4.4|9=105|35=A|34=1|49=013|50=013B17|52=20190702-17:44:37.362|56=EXC|98=0|108=30|141=Y|553=013FCM001|554=013FCM001|10=101|
8=FIX.4.4|9=0067|35=A|34=1|49=EXC|56=013|52=20190702-17:44:37.409|98=0|108=30|141=Y|10=016|
8=FIX.4.4|9=0049|35=0|34=2|49=EXC|56=013|52=20190702-17:45:07.000|10=171|
8=FIX.4.4|9=59|35=0|34=2|49=013|50=013B17|52=20190702-17:45:08.246|56=EXC|10=058|
8=FIX.4.4|9=105|35=A|34=1|49=013|50=013B17|52=20190702-19:37:35.273|56=EXC|98=0|108=30|141=Y|553=013FCM001|554=013FCM001|10=104|
8=FIX.4.4|9=0067|35=A|34=1|49=EXC|56=013|52=20190702-19:37:35.455|98=0|108=30|141=Y|10=019|
8=FIX.4.4|9=110|35=A|34=1|49=013|50=013B17|52=20190702-20:10:01.213|56=EXC|43=Y|98=0|108=30|141=Y|553=013FCM001|554=013FCM001|10=068|
8=FIX.4.4|9=0067|35=A|34=1|49=EXC|56=013|52=20190702-20:10:01.264|98=0|108=30|141=Y|10=249|
8=FIX.4.4|9=110|35=A|34=1|49=013|50=013B17|52=20190702-21:28:51.920|56=EXC|43=Y|98=0|108=30|141=Y|553=013FCM001|554=013FCM001|10=088|
8=FIX.4.4|9=0067|35=A|34=1|49=EXC|56=013|52=20190702-21:28:52.008|98=0|108=30|141=Y|10=005|
8=FIX.4.4|9=0049|35=0|34=2|49=EXC|56=013|52=20190702-21:29:22.000|10=165|
8=FIX.4.4|9=59|35=0|34=2|49=013|50=013B17|52=20190702-21:29:22.023|56=EXC|10=044|
8=FIX.4.4|9=110|35=A|34=1|49=013|50=013B17|52=20190702-21:33:16.994|56=EXC|43=Y|98=0|108=30|141=Y|553=013FCM001|554=013FCM001|10=096|
8=FIX.4.4|9=0067|35=A|34=1|49=EXC|56=013|52=20190702-21:33:17.060|98=0|108=30|141=Y|10=000|
8=FIX.4.4|9=110|35=A|34=1|49=013|50=013B17|52=20190702-21:36:38.113|56=EXC|43=Y|98=0|108=30|141=Y|553=013FCM001|554=013FCM001|10=086|
8=FIX.4.4|9=0067|35=A|34=1|49=EXC|56=013|52=20190702-21:36:38.183|98=0|108=30|141=Y|10=012|
8=FIX.4.4|9=0049|35=0|34=2|49=EXC|56=013|52=20190702-21:37:08.000|10=168|
8=FIX.4.4|9=59|35=0|34=2|49=013|50=013B17|52=20190702-21:37:09.009|56=EXC|10=052|
8=FIX.4.4|9=110|35=A|34=1|49=013|50=013B17|52=20190702-21:39:52.520|56=EXC|43=Y|98=0|108=30|141=Y|553=013FCM001|554=013FCM001|10=087|
8=FIX.4.4|9=0067|35=A|34=1|49=EXC|56=013|52=20190702-21:39:52.588|98=0|108=30|141=Y|10=020|
8=FIX.4.4|9=110|35=A|34=1|49=013|50=013B17|52=20190703-15:49:22.233|56=EXC|43=Y|98=0|108=30|141=Y|553=013FCM001|554=013FCM001|10=090|
8=FIX.4.4|9=0067|35=A|34=1|49=EXC|56=013|52=20190703-15:55:15.351|98=0|108=30|141=Y|10=009|
8=FIX.4.4|9=110|35=A|34=1|49=013|50=013B17|52=20190703-17:04:33.420|56=EXC|43=Y|98=0|108=30|141=Y|553=013FCM001|554=013FCM001|10=083|
8=FIX.4.4|9=0067|35=A|34=1|49=EXC|56=013|52=20190703-17:10:26.603|98=0|108=30|141=Y|10=004|
8=FIX.4.4|9=110|35=A|34=1|49=013|50=013B17|52=20190703-21:16:40.018|56=EXC|43=Y|98=0|108=30|141=Y|553=013FCM001|554=013FCM001|10=082|
8=FIX.4.4|9=0067|35=A|34=1|49=EXC|56=013|52=20190703-21:22:33.401|98=0|108=30|141=Y|10=252|
8=FIX.4.4|9=0049|35=0|34=2|49=EXC|56=013|52=20190703-21:23:03.000|10=159|
8=FIX.4.4|9=59|35=0|34=2|49=013|50=013B17|52=20190703-21:17:10.966|56=EXC|10=055|
8=FIX.4.4|9=0049|35=0|34=3|49=EXC|56=013|52=20190703-21:23:33.000|10=163|
8=FIX.4.4|9=59|35=0|34=3|49=013|50=013B17|52=20190703-21:17:40.964|56=EXC|10=057|
8=FIX.4.4|9=59|35=5|34=4|49=013|50=013B17|52=20190703-21:17:59.962|56=EXC|10=071|
8=FIX.4.4|9=0049|35=5|34=4|49=EXC|56=013|52=20190703-21:23:53.318|10=183|
8=FIX.4.4|9=110|35=A|34=1|49=013|50=013B17|52=20190703-21:24:25.686|56=EXC|43=Y|98=0|108=30|141=Y|553=013FCM001|554=013FCM001|10=095|
8=FIX.4.4|9=0067|35=A|34=1|49=EXC|56=013|52=20190703-21:30:19.053|98=0|108=30|141=Y|10=002|
8=FIX.4.4|9=0049|35=0|34=2|49=EXC|56=013|52=20190703-21:30:49.000|10=167|
8=FIX.4.4|9=59|35=0|34=2|49=013|50=013B17|52=20190703-21:24:56.616|56=EXC|10=055|
8=FIX.4.4|9=110|35=A|34=1|49=013|50=013B17|52=20190704-12:55:58.929|56=EXC|43=Y|98=0|108=30|141=Y|553=013FCM001|554=013FCM001|10=106|
8=FIX.4.4|9=0067|35=A|34=1|49=EXC|56=013|52=20190704-13:01:52.926|98=0|108=30|141=Y|10=008|
8=FIX.4.4|9=0049|35=0|34=2|49=EXC|56=013|52=20190704-13:02:22.000|10=159|
8=FIX.4.4|9=59|35=0|34=2|49=013|50=013B17|52=20190704-12:56:29.802|56=EXC|10=058|
8=FIX.4.4|9=0049|35=0|34=3|49=EXC|56=013|52=20190704-13:02:52.000|10=163|
8=FIX.4.4|9=59|35=0|34=3|49=013|50=013B17|52=20190704-12:56:59.802|56=EXC|10=062|
8=FIX.4.4|9=110|35=A|34=1|49=013|50=013B17|52=20190704-12:57:35.205|56=EXC|43=Y|98=0|108=30|141=Y|553=013FCM001|554=013FCM001|10=090|
8=FIX.4.4|9=0067|35=A|34=1|49=EXC|56=013|52=20190704-13:03:29.186|98=0|108=30|141=Y|10=012|
8=FIX.4.4|9=0049|35=0|34=2|49=EXC|56=013|52=20190704-13:03:59.000|10=170|
8=FIX.4.4|9=59|35=0|34=2|49=013|50=013B17|52=20190704-12:58:05.829|56=EXC|10=063|
8=FIX.4.4|9=0049|35=0|34=3|49=EXC|56=013|52=20190704-13:04:29.000|10=169|
8=FIX.4.4|9=59|35=0|34=3|49=013|50=013B17|52=20190704-12:58:35.827|56=EXC|10=065|
8=FIX.4.4|9=0049|35=0|34=4|49=EXC|56=013|52=20190704-13:04:59.000|10=173|
8=FIX.4.4|9=59|35=0|34=4|49=013|50=013B17|52=20190704-12:59:05.827|56=EXC|10=064|
8=FIX.4.4|9=0049|35=0|34=5|49=EXC|56=013|52=20190704-13:05:29.000|10=172|
8=FIX.4.4|9=59|35=0|34=5|49=013|50=013B17|52=20190704-12:59:36.318|56=EXC|10=064|
8=FIX.4.4|9=110|35=A|34=1|49=013|50=013B17|52=20190704-13:26:23.631|56=EXC|43=Y|98=0|108=30|141=Y|553=013FCM001|554=013FCM001|10=087|
8=FIX.4.4|9=0067|35=A|34=1|49=EXC|56=013|52=20190704-13:32:17.640|98=0|108=30|141=Y|10=006|
8=FIX.4.4|9=0049|35=0|34=2|49=EXC|56=013|52=20190704-13:32:47.000|10=169|
8=FIX.4.4|9=59|35=0|34=2|49=013|50=013B17|52=20190704-13:26:54.316|56=EXC|10=054|
8=FIX.4.4|9=110|35=A|34=1|49=013|50=013B17|52=20190704-13:34:07.584|56=EXC|43=Y|98=0|108=30|141=Y|553=013FCM001|554=013FCM001|10=095|
8=FIX.4.4|9=0067|35=A|34=1|49=EXC|56=013|52=20190704-13:40:01.607|98=0|108=30|141=Y|10=001|
8=FIX.4.4|9=0049|35=0|34=2|49=EXC|56=013|52=20190704-13:40:31.000|10=161|
8=FIX.4.4|9=59|35=0|34=2|49=013|50=013B17|52=20190704-13:34:38.187|56=EXC|10=061|
8=FIX.4.4|9=110|35=A|34=1|49=013|50=013B17|52=20190704-14:08:22.180|56=EXC|43=Y|98=0|108=30|141=Y|553=013FCM001|554=013FCM001|10=086|
8=FIX.4.4|9=0067|35=A|34=1|49=EXC|56=013|52=20190704-14:14:16.401|98=0|108=30|141=Y|10=001|
8=FIX.4.4|9=110|35=A|34=1|49=013|50=013B17|52=20190704-14:15:40.074|56=EXC|43=Y|98=0|108=30|141=Y|553=013FCM001|554=013FCM001|10=086|
8=FIX.4.4|9=0067|35=A|34=1|49=EXC|56=013|52=20190704-14:21:34.125|98=0|108=30|141=Y|10=002|
8=FIX.4.4|9=0049|35=0|34=2|49=EXC|56=013|52=20190704-14:22:04.000|10=162|
8=FIX.4.4|9=59|35=0|34=2|49=013|50=013B17|52=20190704-14:16:10.469|56=EXC|10=055|
8=FIX.4.4|9=0049|35=0|34=3|49=EXC|56=013|52=20190704-14:22:34.000|10=166|
8=FIX.4.4|9=59|35=0|34=3|49=013|50=013B17|52=20190704-14:16:40.476|56=EXC|10=057|
8=FIX.4.4|9=0049|35=0|34=4|49=EXC|56=013|52=20190704-14:23:04.000|10=165|
8=FIX.4.4|9=59|35=0|34=4|49=013|50=013B17|52=20190704-14:17:11.463|56=EXC|10=053|
8=FIX.4.4|9=110|35=A|34=1|49=013|50=013B17|52=20190704-14:20:57.720|56=EXC|43=Y|98=0|108=30|141=Y|553=013FCM001|554=013FCM001|10=088|
8=FIX.4.4|9=0067|35=A|34=1|49=EXC|56=013|52=20190704-14:26:51.756|98=0|108=30|141=Y|10=016|
8=FIX.4.4|9=0049|35=0|34=2|49=EXC|56=013|52=20190704-14:27:21.000|10=166|
8=FIX.4.4|9=59|35=0|34=2|49=013|50=013B17|52=20190704-14:21:28.620|56=EXC|10=049|
8=FIX.4.4|9=0049|35=0|34=3|49=EXC|56=013|52=20190704-14:27:51.000|10=170|
8=FIX.4.4|9=59|35=0|34=3|49=013|50=013B17|52=20190704-14:21:59.607|56=EXC|10=059|
8=FIX.4.4|9=110|35=A|34=1|49=013|50=013B17|52=20190704-15:09:50.701|56=EXC|43=Y|98=0|108=30|141=Y|553=013FCM001|554=013FCM001|10=088|
8=FIX.4.4|9=0067|35=A|34=1|49=EXC|56=013|52=20190704-15:15:44.793|98=0|108=30|141=Y|10=018|
8=FIX.4.4|9=0049|35=0|34=2|49=EXC|56=013|52=20190704-15:16:14.000|10=167|
8=FIX.4.4|9=59|35=0|34=2|49=013|50=013B17|52=20190704-15:10:21.624|56=EXC|10=045|
8=FIX.4.4|9=0049|35=0|34=3|49=EXC|56=013|52=20190704-15:16:44.000|10=171|
8=FIX.4.4|9=59|35=0|34=3|49=013|50=013B17|52=20190704-15:10:51.632|56=EXC|10=048|
8=FIX.4.4|9=110|35=A|34=1|49=013|50=013B17|52=20190704-15:23:48.233|56=EXC|43=Y|98=0|108=30|141=Y|553=013FCM001|554=013FCM001|10=091|
8=FIX.4.4|9=0067|35=A|34=1|49=EXC|56=013|52=20190704-15:29:42.333|98=0|108=30|141=Y|10=011|
8=FIX.4.4|9=0049|35=0|34=2|49=EXC|56=013|52=20190704-15:30:12.000|10=161|
8=FIX.4.4|9=59|35=0|34=2|49=013|50=013B17|52=20190704-15:24:19.192|56=EXC|10=057|
8=FIX.4.4|9=0049|35=0|34=3|49=EXC|56=013|52=20190704-15:30:42.000|10=165|
8=FIX.4.4|9=59|35=0|34=3|49=013|50=013B17|52=20190704-15:24:49.188|56=EXC|10=066|
8=FIX.4.4|9=0049|35=0|34=4|49=EXC|56=013|52=20190704-15:31:12.000|10=164|
8=FIX.4.4|9=59|35=0|34=4|49=013|50=013B17|52=20190704-15:25:19.191|56=EXC|10=059|
8=FIX.4.4|9=110|35=A|34=1|49=013|50=013B17|52=20190704-15:25:48.499|56=EXC|43=Y|98=0|108=30|141=Y|553=013FCM001|554=013FCM001|10=107|
8=FIX.4.4|9=0067|35=A|34=1|49=EXC|56=013|52=20190704-15:31:42.612|98=0|108=30|141=Y|10=004|
8=FIX.4.4|9=0049|35=0|34=2|49=EXC|56=013|52=20190704-15:32:12.000|10=163|
8=FIX.4.4|9=59|35=0|34=2|49=013|50=013B17|52=20190704-15:26:19.410|56=EXC|10=052|
8=FIX.4.4|9=110|35=A|34=1|49=013|50=013B17|52=20190704-15:26:55.936|56=EXC|43=Y|98=0|108=30|141=Y|553=013FCM001|554=013FCM001|10=102|
8=FIX.4.4|9=0067|35=A|34=1|49=EXC|56=013|52=20190704-15:32:50.037|98=0|108=30|141=Y|10=005|
8=FIX.4.4|9=0049|35=0|34=2|49=EXC|56=013|52=20190704-15:33:20.000|10=163|
8=FIX.4.4|9=59|35=0|34=2|49=013|50=013B17|52=20190704-15:27:26.846|56=EXC|10=064|
8=FIX.4.4|9=0049|35=0|34=3|49=EXC|56=013|52=20190704-15:33:50.000|10=167|
8=FIX.4.4|9=59|35=0|34=3|49=013|50=013B17|52=20190704-15:27:56.840|56=EXC|10=062|
8=FIX.4.4|9=110|35=A|34=1|49=013|50=013B17|52=20190704-16:32:38.813|56=EXC|43=Y|98=0|108=30|141=Y|553=013FCM001|554=013FCM001|10=095|
8=FIX.4.4|9=0067|35=A|34=1|49=EXC|56=013|52=20190704-16:38:32.959|98=0|108=30|141=Y|10=025|
8=FIX.4.4|9=0049|35=0|34=2|49=EXC|56=013|52=20190704-16:39:02.000|10=170|
8=FIX.4.4|9=59|35=0|34=2|49=013|50=013B17|52=20190704-16:33:09.469|56=EXC|10=064|
8=FIX.4.4|9=0049|35=0|34=3|49=EXC|56=013|52=20190704-16:39:32.000|10=174|
8=FIX.4.4|9=59|35=0|34=3|49=013|50=013B17|52=20190704-16:33:39.461|56=EXC|10=060|
8=FIX.4.4|9=110|35=A|34=1|49=013|50=013B17|52=20190704-19:13:15.289|56=EXC|43=Y|98=0|108=30|141=Y|553=013FCM001|554=013FCM001|10=099|
8=FIX.4.4|9=0067|35=A|34=1|49=EXC|56=013|52=20190704-19:19:09.561|98=0|108=30|141=Y|10=020|
8=FIX.4.4|9=0049|35=0|34=2|49=EXC|56=013|52=20190704-19:19:39.000|10=181|
8=FIX.4.4|9=59|35=0|34=2|49=013|50=013B17|52=20190704-19:13:46.195|56=EXC|10=062|
8=FIX.4.4|9=0049|35=0|34=3|49=EXC|56=013|52=20190704-19:20:09.000|10=171|
8=FIX.4.4|9=59|35=0|34=3|49=013|50=013B17|52=20190704-19:14:16.198|56=EXC|10=064|
8=FIX.4.4|9=110|35=A|34=1|49=013|50=013B17|52=20190704-21:29:09.982|56=EXC|43=Y|98=0|108=30|141=Y|553=013FCM001|554=013FCM001|10=102|
8=FIX.4.4|9=0067|35=A|34=1|49=EXC|56=013|52=20190704-21:35:04.346|98=0|108=30|141=Y|10=007|
8=FIX.4.4|9=0049|35=0|34=2|49=EXC|56=013|52=20190704-21:35:34.000|10=167|
8=FIX.4.4|9=59|35=0|34=2|49=013|50=013B17|52=20190704-21:29:40.878|56=EXC|10=064|
8=FIX.4.4|9=0049|35=0|34=3|49=EXC|56=013|52=20190704-21:36:04.000|10=166|
8=FIX.4.4|9=59|35=0|34=3|49=013|50=013B17|52=20190704-21:30:10.883|56=EXC|10=050|
8=FIX.4.4|9=0049|35=0|34=4|49=EXC|56=013|52=20190704-21:36:34.000|10=170|
8=FIX.4.4|9=59|35=0|34=4|49=013|50=013B17|52=20190704-21:30:40.890|56=EXC|10=052|
8=FIX.4.4|9=110|35=A|34=1|49=013|50=013B17|52=20190704-21:55:00.616|56=EXC|43=Y|98=0|108=30|141=Y|553=013FCM001|554=013FCM001|10=086|
8=FIX.4.4|9=0067|35=A|34=1|49=EXC|56=013|52=20190704-22:00:55.003|98=0|108=30|141=Y|10=252|
8=FIX.4.4|9=0049|35=0|34=2|49=EXC|56=013|52=20190704-22:01:25.000|10=161|
8=FIX.4.4|9=59|35=0|34=2|49=013|50=013B17|52=20190704-21:55:30.637|56=EXC|10=055|
8=FIX.4.4|9=0049|35=0|34=3|49=EXC|56=013|52=20190704-22:01:55.000|10=165|
8=FIX.4.4|9=59|35=0|34=3|49=013|50=013B17|52=20190704-21:56:00.649|56=EXC|10=057|
8=FIX.4.4|9=110|35=A|34=1|49=013|50=013B17|52=20190705-15:23:21.419|56=EXC|43=Y|98=0|108=30|141=Y|553=013FCM001|554=013FCM001|10=089|
8=FIX.4.4|9=0067|35=A|34=1|49=EXC|56=013|52=20190705-15:29:16.478|98=0|108=30|141=Y|10=023|
8=FIX.4.4|9=0049|35=0|34=2|49=EXC|56=013|52=20190705-15:29:46.000|10=177|
8=FIX.4.4|9=59|35=0|34=2|49=013|50=013B17|52=20190705-15:23:52.344|56=EXC|10=053|
8=FIX.4.4|9=110|35=A|34=1|49=013|50=013B17|52=20190705-15:24:40.975|56=EXC|43=Y|98=0|108=30|141=Y|553=013FCM001|554=013FCM001|10=098|
8=FIX.4.4|9=0067|35=A|34=1|49=EXC|56=013|52=20190705-15:30:36.039|98=0|108=30|141=Y|10=010|
8=FIX.4.4|9=0049|35=0|34=2|49=EXC|56=013|52=20190705-15:31:06.000|10=166|
8=FIX.4.4|9=59|35=0|34=2|49=013|50=013B17|52=20190705-15:25:11.797|56=EXC|10=062|
8=FIX.4.4|9=0049|35=0|34=3|49=EXC|56=013|52=20190705-15:31:36.000|10=170|
8=FIX.4.4|9=59|35=0|34=3|49=013|50=013B17|52=20190705-15:25:41.790|56=EXC|10=059|
8=FIX.4.4|9=110|35=A|34=1|49=013|50=013B17|52=20190705-15:28:38.451|56=EXC|43=Y|98=0|108=30|141=Y|553=013FCM001|554=013FCM001|10=098|
8=FIX.4.4|9=0067|35=A|34=1|49=EXC|56=013|52=20190705-15:34:33.516|98=0|108=30|141=Y|10=011|
8=FIX.4.4|9=0049|35=0|34=2|49=EXC|56=013|52=20190705-15:35:03.000|10=167|
8=FIX.4.4|9=59|35=0|34=2|49=013|50=013B17|52=20190705-15:29:09.374|56=EXC|10=064|
8=FIX.4.4|9=0049|35=0|34=3|49=EXC|56=013|52=20190705-15:35:33.000|10=171|
8=FIX.4.4|9=59|35=0|34=3|49=013|50=013B17|52=20190705-15:29:39.378|56=EXC|10=072|
8=FIX.4.4|9=110|35=A|34=1|49=013|50=013B17|52=20190705-16:02:51.524|56=EXC|43=Y|98=0|108=30|141=Y|553=013FCM001|554=013FCM001|10=087|
8=FIX.4.4|9=0067|35=A|34=1|49=EXC|56=013|52=20190705-16:08:46.613|98=0|108=30|141=Y|10=015|
8=FIX.4.4|9=0049|35=0|34=2|49=EXC|56=013|52=20190705-16:09:16.000|10=173|
8=FIX.4.4|9=59|35=0|34=2|49=013|50=013B17|52=20190705-16:03:22.492|56=EXC|10=053|
8=FIX.4.4|9=0049|35=0|34=3|49=EXC|56=013|52=20190705-16:09:46.000|10=177|
8=FIX.4.4|9=59|35=0|34=3|49=013|50=013B17|52=20190705-16:03:52.483|56=EXC|10=057|
8=FIX.4.4|9=110|35=A|34=1|49=013|50=013B17|52=20190705-16:04:44.458|56=EXC|43=Y|98=0|108=30|141=Y|553=013FCM001|554=013FCM001|10=097|
8=FIX.4.4|9=0067|35=A|34=1|49=EXC|56=013|52=20190705-16:10:39.553|98=0|108=30|141=Y|10=013|
8=FIX.4.4|9=0049|35=0|34=2|49=EXC|56=013|52=20190705-16:11:09.000|10=168|
8=FIX.4.4|9=59|35=0|34=2|49=013|50=013B17|52=20190705-16:05:15.443|56=EXC|10=053|
8=FIX.4.4|9=0049|35=0|34=3|49=EXC|56=013|52=20190705-16:11:39.000|10=172|
8=FIX.4.4|9=59|35=0|34=3|49=013|50=013B17|52=20190705-16:05:45.444|56=EXC|10=058|
8=FIX.4.4|9=110|35=A|34=1|49=013|50=013B17|52=20190705-16:38:08.512|56=EXC|43=Y|98=0|108=30|141=Y|553=013FCM001|554=013FCM001|10=095|
8=FIX.4.4|9=0067|35=A|34=1|49=EXC|56=013|52=20190705-16:44:03.624|98=0|108=30|141=Y|10=010|
8=FIX.4.4|9=0049|35=0|34=2|49=EXC|56=013|52=20190705-16:44:33.000|10=171|
8=FIX.4.4|9=59|35=0|34=2|49=013|50=013B17|52=20190705-16:38:39.402|56=EXC|10=060|
8=FIX.4.4|9=0049|35=0|34=3|49=EXC|56=013|52=20190705-16:45:03.000|10=170|
8=FIX.4.4|9=59|35=0|34=3|49=013|50=013B17|52=20190705-16:39:09.396|56=EXC|10=071|
8=FIX.4.4|9=0049|35=0|34=4|49=EXC|56=013|52=20190705-16:45:33.000|10=174|
8=FIX.4.4|9=59|35=0|34=4|49=013|50=013B17|52=20190705-16:39:39.419|56=EXC|10=071|
8=FIX.4.4|9=0049|35=0|34=5|49=EXC|56=013|52=20190705-16:46:03.000|10=173|
8=FIX.4.4|9=59|35=0|34=5|49=013|50=013B17|52=20190705-16:40:10.397|56=EXC|10=058|
8=FIX.4.4|9=110|35=A|34=1|49=013|50=013B17|52=20190705-16:44:28.527|56=EXC|43=Y|98=0|108=30|141=Y|553=013FCM001|554=013FCM001|10=100|
8=FIX.4.4|9=0067|35=A|34=1|49=EXC|56=013|52=20190705-16:50:23.670|98=0|108=30|141=Y|10=010|
8=FIX.4.4|9=0049|35=0|34=2|49=EXC|56=013|52=20190705-16:50:53.000|10=170|
8=FIX.4.4|9=59|35=0|34=2|49=013|50=013B17|52=20190705-16:44:59.334|56=EXC|10=063|
8=FIX.4.4|9=0049|35=0|34=3|49=EXC|56=013|52=20190705-16:51:23.000|10=169|
8=FIX.4.4|9=59|35=0|34=3|49=013|50=013B17|52=20190705-16:45:29.334|56=EXC|10=062|
8=FIX.4.4|9=0049|35=0|34=4|49=EXC|56=013|52=20190705-16:51:53.000|10=173|
8=FIX.4.4|9=59|35=0|34=4|49=013|50=013B17|52=20190705-16:45:59.364|56=EXC|10=069|
8=FIX.4.4|9=0049|35=0|34=5|49=EXC|56=013|52=20190705-16:52:23.000|10=172|
8=FIX.4.4|9=59|35=0|34=5|49=013|50=013B17|52=20190705-16:46:30.335|56=EXC|10=058|
8=FIX.4.4|9=0049|35=0|34=6|49=EXC|56=013|52=20190705-16:52:53.000|10=176|
8=FIX.4.4|9=59|35=0|34=6|49=013|50=013B17|52=20190705-16:47:00.346|56=EXC|10=059|
8=FIX.4.4|9=0049|35=0|34=7|49=EXC|56=013|52=20190705-16:53:23.000|10=175|
8=FIX.4.4|9=59|35=0|34=7|49=013|50=013B17|52=20190705-16:47:30.347|56=EXC|10=064|
8=FIX.4.4|9=110|35=A|34=1|49=013|50=013B17|52=20190705-16:51:15.197|56=EXC|43=Y|98=0|108=30|141=Y|553=013FCM001|554=013FCM001|10=097|
8=FIX.4.4|9=0067|35=A|34=1|49=EXC|56=013|52=20190705-16:57:10.313|98=0|108=30|141=Y|10=007|
8=FIX.4.4|9=0049|35=0|34=2|49=EXC|56=013|52=20190705-16:57:40.000|10=173|
8=FIX.4.4|9=59|35=0|34=2|49=013|50=013B17|52=20190705-16:51:46.035|56=EXC|10=055|
8=FIX.4.4|9=0049|35=0|34=3|49=EXC|56=013|52=20190705-16:58:10.000|10=172|
8=FIX.4.4|9=59|35=0|34=3|49=013|50=013B17|52=20190705-16:52:16.041|56=EXC|10=051|
8=FIX.4.4|9=0049|35=0|34=4|49=EXC|56=013|52=20190705-16:58:40.000|10=176|
8=FIX.4.4|9=59|35=0|34=4|49=013|50=013B17|52=20190705-16:52:46.047|56=EXC|10=061|
8=FIX.4.4|9=110|35=A|34=1|49=013|50=013B17|52=20190705-16:54:04.236|56=EXC|43=Y|98=0|108=30|141=Y|553=013FCM001|554=013FCM001|10=092|
8=FIX.4.4|9=0067|35=A|34=1|49=EXC|56=013|52=20190705-16:59:59.360|98=0|108=30|141=Y|10=024|
8=FIX.4.4|9=0049|35=0|34=2|49=EXC|56=013|52=20190705-17:00:29.000|10=169|
8=FIX.4.4|9=59|35=0|34=2|49=013|50=013B17|52=20190705-16:54:35.157|56=EXC|10=061|
8=FIX.4.4|9=0049|35=0|34=3|49=EXC|56=013|52=20190705-17:00:59.000|10=173|
8=FIX.4.4|9=59|35=0|34=3|49=013|50=013B17|52=20190705-16:55:05.169|56=EXC|10=063|
8=FIX.4.4|9=0049|35=0|34=4|49=EXC|56=013|52=20190705-17:01:29.000|10=172|
8=FIX.4.4|9=59|35=0|34=4|49=013|50=013B17|52=20190705-16:55:35.170|56=EXC|10=059|
8=FIX.4.4|9=110|35=A|34=1|49=013|50=013B17|52=20190705-19:47:05.152|56=EXC|43=Y|98=0|108=30|141=Y|553=013FCM001|554=013FCM001|10=095|
8=FIX.4.4|9=0067|35=A|34=1|49=EXC|56=013|52=20190705-19:53:00.395|98=0|108=30|141=Y|10=015|
8=FIX.4.4|9=0049|35=0|34=2|49=EXC|56=013|52=20190705-19:53:30.000|10=171|
8=FIX.4.4|9=59|35=0|34=2|49=013|50=013B17|52=20190705-19:47:36.059|56=EXC|10=068|
8=FIX.4.4|9=0049|35=0|34=3|49=EXC|56=013|52=20190705-19:54:00.000|10=170|
8=FIX.4.4|9=59|35=0|34=3|49=013|50=013B17|52=20190705-19:48:06.056|56=EXC|10=064|
8=FIX.4.4|9=0049|35=0|34=4|49=EXC|56=013|52=20190705-19:54:30.000|10=174|
8=FIX.4.4|9=59|35=0|34=4|49=013|50=013B17|52=20190705-19:48:36.055|56=EXC|10=067|
8=FIX.4.4|9=110|35=A|34=1|49=013|50=013B17|52=20190705-20:28:23.125|56=EXC|43=Y|98=0|108=30|141=Y|553=013FCM001|554=013FCM001|10=086|
8=FIX.4.4|9=0067|35=A|34=1|49=EXC|56=013|52=20190705-20:34:18.417|98=0|108=30|141=Y|10=010|
8=FIX.4.4|9=0049|35=0|34=2|49=EXC|56=013|52=20190705-20:34:48.000|10=171|
8=FIX.4.4|9=59|35=0|34=2|49=013|50=013B17|52=20190705-20:28:54.033|56=EXC|10=051|
8=FIX.4.4|9=0049|35=0|34=3|49=EXC|56=013|52=20190705-20:35:18.000|10=170|
8=FIX.4.4|9=59|35=0|34=3|49=013|50=013B17|52=20190705-20:29:24.033|56=EXC|10=050|
8=FIX.4.4|9=110|35=A|34=1|49=013|50=013B17|52=20190705-20:35:48.299|56=EXC|43=Y|98=0|108=30|141=Y|553=013FCM001|554=013FCM001|10=103|
8=FIX.4.4|9=0067|35=A|34=1|49=EXC|56=013|52=20190705-20:41:43.576|98=0|108=30|141=Y|10=012|
8=FIX.4.4|9=0049|35=0|34=2|49=EXC|56=013|52=20190705-20:42:13.000|10=162|
8=FIX.4.4|9=59|35=0|34=2|49=013|50=013B17|52=20190705-20:36:19.169|56=EXC|10=061|
8=FIX.4.4|9=0049|35=0|34=3|49=EXC|56=013|52=20190705-20:42:43.000|10=166|
8=FIX.4.4|9=59|35=0|34=3|49=013|50=013B17|52=20190705-20:36:49.171|56=EXC|10=058|
8=FIX.4.4|9=0049|35=0|34=4|49=EXC|56=013|52=20190705-20:43:13.000|10=165|
8=FIX.4.4|9=59|35=0|34=4|49=013|50=013B17|52=20190705-20:37:19.164|56=EXC|10=059|
8=FIX.4.4|9=110|35=A|34=1|49=013|50=013B17|52=20190705-20:40:31.151|56=EXC|43=Y|98=0|108=30|141=Y|553=013FCM001|554=013FCM001|10=078|
8=FIX.4.4|9=0067|35=A|34=1|49=EXC|56=013|52=20190705-20:46:26.433|98=0|108=30|141=Y|10=010|
8=FIX.4.4|9=0049|35=0|34=2|49=EXC|56=013|52=20190705-20:46:56.000|10=173|
8=FIX.4.4|9=59|35=0|34=2|49=013|50=013B17|52=20190705-20:41:01.948|56=EXC|10=053|
8=FIX.4.4|9=110|35=A|34=1|49=013|50=013B17|52=20190705-20:41:56.828|56=EXC|43=Y|98=0|108=30|141=Y|553=013FCM001|554=013FCM001|10=097|
8=FIX.4.4|9=0067|35=A|34=1|49=EXC|56=013|52=20190705-20:47:52.104|98=0|108=30|141=Y|10=005|
8=FIX.4.4|9=0049|35=0|34=2|49=EXC|56=013|52=20190705-20:48:22.000|10=168|
8=FIX.4.4|9=59|35=0|34=2|49=013|50=013B17|52=20190705-20:42:27.772|56=EXC|10=057|
8=FIX.4.4|9=0049|35=0|34=3|49=EXC|56=013|52=20190705-20:48:52.000|10=172|
8=FIX.4.4|9=59|35=0|34=3|49=013|50=013B17|52=20190705-20:42:57.772|56=EXC|10=061|
8=FIX.4.4|9=110|35=A|34=1|49=013|50=013B17|52=20190705-20:44:31.716|56=EXC|43=Y|98=0|108=30|141=Y|553=013FCM001|554=013FCM001|10=089|
8=FIX.4.4|9=0067|35=A|34=1|49=EXC|56=013|52=20190705-20:50:27.010|98=0|108=30|141=Y|10=253|
8=FIX.4.4|9=0049|35=0|34=2|49=EXC|56=013|52=20190705-20:50:57.000|10=169|
8=FIX.4.4|9=59|35=0|34=2|49=013|50=013B17|52=20190705-20:45:01.755|56=EXC|10=053|
8=FIX.4.4|9=0049|35=0|34=3|49=EXC|56=013|52=20190705-20:51:27.000|10=168|
8=FIX.4.4|9=59|35=0|34=3|49=013|50=013B17|52=20190705-20:45:32.673|56=EXC|10=057|
8=FIX.4.4|9=0049|35=0|34=4|49=EXC|56=013|52=20190705-20:51:57.000|10=172|
8=FIX.4.4|9=59|35=0|34=4|49=013|50=013B17|52=20190705-20:46:02.667|56=EXC|10=059|
