8=FIX.4.4|9=105|35=A|34=1|49=007|50=007B26|52=20190620-21:31:23.089|56=EXC|98=0|108=30|141=Y|553=007FCE001|554=007FCE001|10=088|
8=FIX.4.4|9=0067|35=A|34=1|49=EXC|56=007|52=20190620-21:31:23.619|98=0|108=30|141=Y|10=007|
8=FIX.4.4|9=105|35=A|34=1|49=007|50=007B26|52=20190620-21:41:55.335|56=EXC|98=0|108=30|141=Y|553=007FCE001|554=007FCE001|10=088|
8=FIX.4.4|9=0067|35=A|34=1|49=EXC|56=007|52=20190620-21:41:55.472|98=0|108=30|141=Y|10=010|
8=FIX.4.4|9=105|35=A|34=1|49=007|50=007B26|52=20190620-21:42:44.027|56=EXC|98=0|108=30|141=Y|553=007FCE001|554=007FCE001|10=085|
8=FIX.4.4|9=0067|35=A|34=1|49=EXC|56=007|52=20190620-21:42:44.108|98=0|108=30|141=Y|10=005|
8=FIX.4.4|9=105|35=A|34=1|49=007|50=007B26|52=20190620-21:54:13.103|56=EXC|98=0|108=30|141=Y|553=007FCE001|554=007FCE001|10=079|
8=FIX.4.4|9=0067|35=A|34=1|49=EXC|56=007|52=20190620-21:54:13.474|98=0|108=30|141=Y|10=010|
8=FIX.4.4|9=105|35=A|34=1|49=007|50=007B26|52=20190620-21:59:27.577|56=EXC|98=0|108=30|141=Y|553=007FCE001|554=007FCE001|10=104|
8=FIX.4.4|9=0067|35=A|34=1|49=EXC|56=007|52=20190620-21:59:28.045|98=0|108=30|141=Y|10=015|
8=FIX.4.4|9=105|35=A|34=1|49=007|50=007B26|52=20190621-13:46:46.451|56=EXC|98=0|108=30|141=Y|553=007FCE001|554=007FCE001|10=094|
8=FIX.4.4|9=0067|35=A|34=1|49=EXC|56=007|52=20190621-13:46:46.475|98=0|108=30|141=Y|10=020|
8=FIX.4.4|9=105|35=A|34=1|49=007|50=007B26|52=20190621-13:51:58.492|56=EXC|98=0|108=30|141=Y|553=007FCE001|554=007FCE001|10=098|
8=FIX.4.4|9=0067|35=A|34=1|49=EXC|56=007|52=20190621-13:51:58.529|98=0|108=30|141=Y|10=019|
8=FIX.4.4|9=105|35=A|34=1|49=007|50=007B26|52=20190621-14:01:12.683|56=EXC|98=0|108=30|141=Y|553=007FCE001|554=007FCE001|10=086|
8=FIX.4.4|9=0067|35=A|34=1|49=EXC|56=007|52=20190621-14:01:12.733|98=0|108=30|141=Y|10=002|
8=FIX.4.4|9=105|35=A|34=1|49=007|50=007B26|52=20190621-14:02:04.327|56=EXC|98=0|108=30|141=Y|553=007FCE001|554=007FCE001|10=083|
8=FIX.4.4|9=0067|35=A|34=1|49=EXC|56=007|52=20190621-14:02:04.365|98=0|108=30|141=Y|10=005|
8=FIX.4.4|9=105|35=A|34=1|49=007|50=007B26|52=20190621-15:58:27.490|56=EXC|98=0|108=30|141=Y|553=007FCE001|554=007FCE001|10=101|
8=FIX.4.4|9=0067|35=A|34=1|49=EXC|56=007|52=20190621-15:58:27.525|98=0|108=30|141=Y|10=020|
8=FIX.4.4|9=105|35=A|34=1|49=007|50=007B26|52=20190621-16:01:48.381|56=EXC|98=0|108=30|141=Y|553=007FCE001|554=007FCE001|10=092|
8=FIX.4.4|9=0067|35=A|34=1|49=EXC|56=007|52=20190621-16:01:48.437|98=0|108=30|141=Y|10=014|
8=FIX.4.4|9=105|35=A|34=1|49=007|50=007B26|52=20190621-16:17:31.209|56=EXC|98=0|108=30|141=Y|553=007FCE001|554=007FCE001|10=090|
8=FIX.4.4|9=0067|35=A|34=1|49=EXC|56=007|52=20190621-16:17:31.286|98=0|108=30|141=Y|10=015|
8=FIX.4.4|9=105|35=A|34=1|49=007|50=007B26|52=20190621-16:24:24.313|56=EXC|98=0|108=30|141=Y|553=007FCE001|554=007FCE001|10=086|
8=FIX.4.4|9=0067|35=A|34=1|49=EXC|56=007|52=20190621-16:24:24.356|98=0|108=30|141=Y|10=013|
8=FIX.4.4|9=105|35=A|34=1|49=007|50=007B26|52=20190621-16:29:19.236|56=EXC|98=0|108=30|141=Y|553=007FCE001|554=007FCE001|10=099|
8=FIX.4.4|9=0067|35=A|34=1|49=EXC|56=007|52=20190621-16:29:19.265|98=0|108=30|141=Y|10=021|
8=FIX.4.4|9=105|35=A|34=1|49=007|50=007B26|52=20190625-14:28:26.029|56=EXC|98=0|108=30|141=Y|553=007FCE001|554=007FCE001|10=098|
8=FIX.4.4|9=0067|35=A|34=1|49=EXC|56=007|52=20190627-14:28:15.710|98=0|108=30|141=Y|10=015|
8=FIX.4.4|9=105|35=A|34=1|49=007|50=007B26|52=20190625-14:51:25.965|56=EXC|98=0|108=30|141=Y|553=007FCE001|554=007FCE001|10=102|
8=FIX.4.4|9=0067|35=A|34=1|49=EXC|56=007|52=20190627-14:51:15.642|98=0|108=30|141=Y|10=015|
8=FIX.4.4|9=105|35=A|34=1|49=007|50=007B26|52=20190625-19:44:15.008|56=EXC|98=0|108=30|141=Y|553=007FCE001|554=007FCE001|10=096|
8=FIX.4.4|9=0067|35=A|34=1|49=EXC|56=007|52=20190627-19:44:15.052|98=0|108=30|141=Y|10=017|
8=FIX.4.4|9=105|35=A|34=1|49=007|50=007B26|52=20190625-19:45:35.039|56=EXC|98=0|108=30|141=Y|553=007FCE001|554=007FCE001|10=103|
8=FIX.4.4|9=0067|35=A|34=1|49=EXC|56=007|52=20190627-19:45:35.075|98=0|108=30|141=Y|10=025|
8=FIX.4.4|9=105|35=A|34=1|49=007|50=007B26|52=20190625-19:54:23.853|56=EXC|98=0|108=30|141=Y|553=007FCE001|554=007FCE001|10=104|
8=FIX.4.4|9=0067|35=A|34=1|49=EXC|56=007|52=20190627-19:54:23.903|98=0|108=30|141=Y|10=022|
8=FIX.4.4|9=105|35=A|34=1|49=007|50=007B26|52=20190625-19:55:23.569|56=EXC|98=0|108=30|141=Y|553=007FCE001|554=007FCE001|10=109|
8=FIX.4.4|9=0067|35=A|34=1|49=EXC|56=007|52=20190627-19:55:23.623|98=0|108=30|141=Y|10=022|
8=FIX.4.4|9=105|35=A|34=1|49=007|50=007B26|52=20190625-20:02:36.543|56=EXC|98=0|108=30|141=Y|553=007FCE001|554=007FCE001|10=089|
8=FIX.4.4|9=0067|35=A|34=1|49=EXC|56=007|52=20190627-20:02:36.592|98=0|108=30|141=Y|10=015|
8=FIX.4.4|9=105|35=A|34=1|49=007|50=007B26|52=20190626-19:09:44.197|56=EXC|98=0|108=30|141=Y|553=007FCE001|554=007FCE001|10=109|
8=FIX.4.4|9=0067|35=A|34=1|49=EXC|56=007|52=20190628-19:09:44.282|98=0|108=30|141=Y|10=026|
8=FIX.4.4|9=105|35=A|34=1|49=007|50=007B26|52=20190626-20:09:29.567|56=EXC|98=0|108=30|141=Y|553=007FCE001|554=007FCE001|10=105|
8=FIX.4.4|9=0067|35=A|34=1|49=EXC|56=007|52=20190628-20:09:29.631|98=0|108=30|141=Y|10=019|
8=FIX.4.4|9=0049|35=0|34=2|49=EXC|56=007|52=20190628-20:09:59.000|10=182|
8=FIX.4.4|9=59|35=0|34=2|49=007|50=007B26|52=20190626-20:10:00.471|56=EXC|10=047|
8=FIX.4.4|9=105|35=A|34=1|49=007|50=007B26|52=20190626-20:10:59.899|56=EXC|98=0|108=30|141=Y|553=007FCE001|554=007FCE001|10=108|
8=FIX.4.4|9=0067|35=A|34=1|49=EXC|56=007|52=20190628-20:10:59.991|98=0|108=30|141=Y|10=023|
8=FIX.4.4|9=0049|35=0|34=2|49=EXC|56=007|52=20190628-20:11:29.000|10=172|
8=FIX.4.4|9=59|35=0|34=2|49=007|50=007B26|52=20190626-20:11:30.758|56=EXC|10=059|
8=FIX.4.4|9=105|35=A|34=1|49=007|50=007B26|52=20190626-20:16:07.877|56=EXC|98=0|108=30|141=Y|553=007FCE001|554=007FCE001|10=103|
8=FIX.4.4|9=0067|35=A|34=1|49=EXC|56=007|52=20190628-20:16:07.946|98=0|108=30|141=Y|10=022|
8=FIX.4.4|9=105|35=A|34=1|49=007|50=007B26|52=20190626-20:20:26.324|56=EXC|98=0|108=30|141=Y|553=007FCE001|554=007FCE001|10=086|
8=FIX.4.4|9=0067|35=A|34=1|49=EXC|56=007|52=20190628-20:20:26.393|98=0|108=30|141=Y|10=014|
8=FIX.4.4|9=105|35=A|34=1|49=007|50=007B26|52=20190626-20:34:32.435|56=EXC|98=0|108=30|141=Y|553=007FCE001|554=007FCE001|10=091|
8=FIX.4.4|9=0067|35=A|34=1|49=EXC|56=007|52=20190628-20:34:32.506|98=0|108=30|141=Y|10=012|
8=FIX.4.4|9=105|35=A|34=1|49=007|50=007B26|52=20190626-20:45:46.287|56=EXC|98=0|108=30|141=Y|553=007FCE001|554=007FCE001|10=103|
8=FIX.4.4|9=0067|35=A|34=1|49=EXC|56=007|52=20190628-20:45:46.361|98=0|108=30|141=Y|10=018|
8=FIX.4.4|9=0049|35=0|34=2|49=EXC|56=007|52=20190628-20:46:16.000|10=176|
8=FIX.4.4|9=59|35=0|34=2|49=007|50=007B26|52=20190626-20:46:17.114|56=EXC|10=058|
8=FIX.4.4|9=0049|35=0|34=3|49=EXC|56=007|52=20190628-20:46:46.000|10=180|
8=FIX.4.4|9=59|35=0|34=3|49=007|50=007B26|52=20190626-20:46:47.114|56=EXC|10=062|
8=FIX.4.4|9=0049|35=0|34=4|49=EXC|56=007|52=20190628-20:47:16.000|10=179|
8=FIX.4.4|9=59|35=0|34=4|49=007|50=007B26|52=20190626-20:47:17.113|56=EXC|10=060|
8=FIX.4.4|9=105|35=A|34=1|49=007|50=007B26|52=20190626-20:47:57.602|56=EXC|98=0|108=30|141=Y|553=007FCE001|554=007FCE001|10=098|
8=FIX.4.4|9=0067|35=A|34=1|49=EXC|56=007|52=20190628-20:47:57.657|98=0|108=30|141=Y|10=030|
8=FIX.4.4|9=105|35=A|34=1|49=007|50=007B26|52=20190626-21:05:42.516|56=EXC|98=0|108=30|141=Y|553=007FCE001|554=007FCE001|10=091|
8=FIX.4.4|9=0067|35=A|34=1|49=EXC|56=007|52=20190628-21:05:42.025|98=0|108=30|141=Y|10=008|
8=FIX.4.4|9=105|35=A|34=1|49=007|50=007B26|52=20190626-21:06:19.712|56=EXC|98=0|108=30|141=Y|553=007FCE001|554=007FCE001|10=094|
8=FIX.4.4|9=0067|35=A|34=1|49=EXC|56=007|52=20190628-21:06:19.224|98=0|108=30|141=Y|10=014|
8=FIX.4.4|9=105|35=A|34=1|49=007|50=007B26|52=20190626-21:07:10.563|56=EXC|98=0|108=30|141=Y|553=007FCE001|554=007FCE001|10=090|
8=FIX.4.4|9=0067|35=A|34=1|49=EXC|56=007|52=20190628-21:07:10.100|98=0|108=30|141=Y|10=255|
8=FIX.4.4|9=105|35=A|34=1|49=007|50=007B26|52=20190626-21:09:36.715|56=EXC|98=0|108=30|141=Y|553=007FCE001|554=007FCE001|10=099|
8=FIX.4.4|9=0067|35=A|34=1|49=EXC|56=007|52=20190628-21:09:36.225|98=0|108=30|141=Y|10=017|
8=FIX.4.4|9=105|35=A|34=1|49=007|50=007B26|52=20190626-21:10:30.716|56=EXC|98=0|108=30|141=Y|553=007FCE001|554=007FCE001|10=086|
8=FIX.4.4|9=0067|35=A|34=1|49=EXC|56=007|52=20190628-21:10:30.227|98=0|108=30|141=Y|10=005|
8=FIX.4.4|9=105|35=A|34=1|49=007|50=007B26|52=20190626-21:11:06.715|56=EXC|98=0|108=30|141=Y|553=007FCE001|554=007FCE001|10=089|
8=FIX.4.4|9=0067|35=A|34=1|49=EXC|56=007|52=20190628-21:11:06.225|98=0|108=30|141=Y|10=007|
8=FIX.4.4|9=105|35=A|34=1|49=007|50=007B26|52=20190626-21:25:26.929|56=EXC|98=0|108=30|141=Y|553=007FCE001|554=007FCE001|10=103|
8=FIX.4.4|9=0067|35=A|34=1|49=EXC|56=007|52=20190628-21:25:26.831|98=0|108=30|141=Y|10=017|
8=FIX.4.4|9=0049|35=0|34=2|49=EXC|56=007|52=20190628-21:25:56.000|10=178|
8=FIX.4.4|9=105|35=A|34=1|49=007|50=007B26|52=20190626-21:35:17.806|56=EXC|98=0|108=30|141=Y|553=007FCE001|554=007FCE001|10=098|
8=FIX.4.4|9=0067|35=A|34=1|49=EXC|56=007|52=20190628-21:35:17.892|98=0|108=30|141=Y|10=025|
8=FIX.4.4|9=0049|35=0|34=2|49=EXC|56=007|52=20190628-21:35:47.000|10=179|
8=FIX.4.4|9=59|35=0|34=2|49=007|50=007B26|52=20190626-21:35:48.598|56=EXC|10=077|
8=FIX.4.4|9=105|35=A|34=1|49=007|50=007B26|52=20190626-21:55:42.001|56=EXC|98=0|108=30|141=Y|553=007FCE001|554=007FCE001|10=085|
8=FIX.4.4|9=0067|35=A|34=1|49=EXC|56=007|52=20190628-21:55:42.057|98=0|108=30|141=Y|10=018|
8=FIX.4.4|9=0049|35=0|34=2|49=EXC|56=007|52=20190628-21:56:12.000|10=174|
8=FIX.4.4|9=59|35=0|34=2|49=007|50=007B26|52=20190626-21:56:12.020|56=EXC|10=051|
8=FIX.4.4|9=99|35=A|34=3|49=007|50=007B26|52=20190626-21:56:28.179|56=EXC|98=0|108=30|553=007FCE001|554=007FCE001|10=027|
8=FIX.4.4|9=0061|35=A|34=3|49=EXC|56=007|52=20190628-21:56:28.225|98=0|108=30|10=227|
8=FIX.4.4|9=0049|35=0|34=4|49=EXC|56=007|52=20190628-21:56:58.000|10=186|
8=FIX.4.4|9=59|35=0|34=4|49=007|50=007B26|52=20190626-21:56:59.098|56=EXC|10=079|
8=FIX.4.4|9=105|35=A|34=1|49=007|50=007B26|52=20190626-22:01:39.727|56=EXC|98=0|108=30|141=Y|553=007FCE001|554=007FCE001|10=098|
8=FIX.4.4|9=0067|35=A|34=1|49=EXC|56=007|52=20190628-22:01:39.924|98=0|108=30|141=Y|10=019|
8=FIX.4.4|9=105|35=A|34=1|49=007|50=007B26|52=20190626-22:02:08.531|56=EXC|98=0|108=30|141=Y|553=007FCE001|554=007FCE001|10=088|
8=FIX.4.4|9=0067|35=A|34=1|49=EXC|56=007|52=20190628-22:02:08.726|98=0|108=30|141=Y|10=016|
8=FIX.4.4|9=105|35=A|34=1|49=007|50=007B26|52=20190627-19:53:15.757|56=EXC|98=0|108=30|141=Y|553=007FCE001|554=007FCE001|10=109|
8=FIX.4.4|9=0067|35=A|34=1|49=EXC|56=007|52=20190627-19:53:15.827|98=0|108=30|141=Y|10=027|
8=FIX.4.4|9=0049|35=0|34=2|49=EXC|56=007|52=20190627-19:53:45.000|10=183|
8=FIX.4.4|9=59|35=0|34=2|49=007|50=007B26|52=20190627-19:53:46.486|56=EXC|10=079|
8=FIX.4.4|9=105|35=A|34=1|49=007|50=007B26|52=20190627-19:54:06.003|56=EXC|98=0|108=30|141=Y|553=007FCE001|554=007FCE001|10=094|
8=FIX.4.4|9=0067|35=A|34=1|49=EXC|56=007|52=20190627-19:54:06.083|98=0|108=30|141=Y|10=022|
8=FIX.4.4|9=105|35=A|34=1|49=007|50=007B26|52=20190628-14:45:15.298|56=EXC|98=0|108=30|141=Y|553=007FCE001|554=007FCE001|10=106|
8=FIX.4.4|9=0067|35=A|34=1|49=EXC|56=007|52=20190628-14:45:15.373|98=0|108=30|141=Y|10=020|
8=FIX.4.4|9=0049|35=0|34=2|49=EXC|56=007|52=20190628-14:45:45.000|10=180|
8=FIX.4.4|9=59|35=0|34=2|49=007|50=007B26|52=20190628-14:45:46.079|56=EXC|10=074|
8=FIX.4.4|9=105|35=A|34=1|49=007|50=007B26|52=20190702-17:24:05.857|56=EXC|98=0|108=30|141=Y|553=007FCE001|554=007FCE001|10=099|
8=FIX.4.4|9=0067|35=A|34=1|49=EXC|56=007|52=20190702-17:24:05.911|98=0|108=30|141=Y|10=010|
8=FIX.4.4|9=0049|35=0|34=2|49=EXC|56=007|52=20190702-17:24:35.000|10=172|
8=FIX.4.4|9=59|35=0|34=2|49=007|50=007B26|52=20190702-17:24:36.757|56=EXC|10=069|
8=FIX.4.4|9=105|35=A|34=1|49=007|50=007B26|52=20190702-17:44:37.252|56=EXC|98=0|108=30|141=Y|553=007FCE001|554=007FCE001|10=095|
8=FIX.4.4|9=0067|35=A|34=1|49=EXC|56=007|52=20190702-17:44:37.299|98=0|108=30|141=Y|10=026|
8=FIX.4.4|9=0049|35=0|34=2|49=EXC|56=007|52=20190702-17:45:07.000|10=174|
8=FIX.4.4|9=59|35=0|34=2|49=007|50=007B26|52=20190702-17:45:08.185|56=EXC|10=066|
8=FIX.4.4|9=105|35=A|34=1|49=007|50=007B26|52=20190702-19:37:35.104|56=EXC|98=0|108=30|141=Y|553=007FCE001|554=007FCE001|10=093|
8=FIX.4.4|9=0067|35=A|34=1|49=EXC|56=007|52=20190702-19:37:35.294|98=0|108=30|141=Y|10=023|
8=FIX.4.4|9=110|35=A|34=1|49=007|50=007B26|52=20190702-20:10:01.119|56=EXC|43=Y|98=0|108=30|141=Y|553=007FCE001|554=007FCE001|10=069|
8=FIX.4.4|9=0067|35=A|34=1|49=EXC|56=007|52=20190702-20:10:01.171|98=0|108=30|141=Y|10=249|
8=FIX.4.4|9=110|35=A|34=1|49=007|50=007B26|52=20190702-21:28:51.724|56=EXC|43=Y|98=0|108=30|141=Y|553=007FCE001|554=007FCE001|10=086|
8=FIX.4.4|9=0067|35=A|34=1|49=EXC|56=007|52=20190702-21:28:51.804|98=0|108=30|141=Y|10=011|
8=FIX.4.4|9=0049|35=0|34=2|49=EXC|56=007|52=20190702-21:29:21.000|10=167|
8=FIX.4.4|9=59|35=0|34=2|49=007|50=007B26|52=20190702-21:29:22.480|56=EXC|10=057|
8=FIX.4.4|9=110|35=A|34=1|49=007|50=007B26|52=20190702-21:33:16.830|56=EXC|43=Y|98=0|108=30|141=Y|553=007FCE001|554=007FCE001|10=081|
8=FIX.4.4|9=0067|35=A|34=1|49=EXC|56=007|52=20190702-21:33:16.914|98=0|108=30|141=Y|10=010|
8=FIX.4.4|9=110|35=A|34=1|49=007|50=007B26|52=20190702-21:36:37.977|56=EXC|43=Y|98=0|108=30|141=Y|553=007FCE001|554=007FCE001|10=099|
8=FIX.4.4|9=0067|35=A|34=1|49=EXC|56=007|52=20190702-21:36:38.057|98=0|108=30|141=Y|10=015|
8=FIX.4.4|9=0049|35=0|34=2|49=EXC|56=007|52=20190702-21:37:08.000|10=171|
8=FIX.4.4|9=59|35=0|34=2|49=007|50=007B26|52=20190702-21:37:08.027|56=EXC|10=057|
8=FIX.4.4|9=110|35=A|34=1|49=007|50=007B26|52=20190702-21:39:52.364|56=EXC|43=Y|98=0|108=30|141=Y|553=007FCE001|554=007FCE001|10=089|
8=FIX.4.4|9=0067|35=A|34=1|49=EXC|56=007|52=20190702-21:39:52.431|98=0|108=30|141=Y|10=010|
8=FIX.4.4|9=110|35=A|34=1|49=007|50=007B26|52=20190703-15:49:22.139|56=EXC|43=Y|98=0|108=30|141=Y|553=007FCE001|554=007FCE001|10=091|
8=FIX.4.4|9=0067|35=A|34=1|49=EXC|56=007|52=20190703-15:55:15.260|98=0|108=30|141=Y|10=011|
8=FIX.4.4|9=110|35=A|34=1|49=007|50=007B26|52=20190703-17:04:33.295|56=EXC|43=Y|98=0|108=30|141=Y|553=007FCE001|554=007FCE001|10=089|
8=FIX.4.4|9=0067|35=A|34=1|49=EXC|56=007|52=20190703-17:10:26.498|98=0|108=30|141=Y|10=019|
8=FIX.4.4|9=110|35=A|34=1|49=007|50=007B26|52=20190703-21:16:39.877|56=EXC|43=Y|98=0|108=30|141=Y|553=007FCE001|554=007FCE001|10=099|
8=FIX.4.4|9=0067|35=A|34=1|49=EXC|56=007|52=20190703-21:22:33.286|98=0|108=30|141=Y|10=010|
8=FIX.4.4|9=0049|35=0|34=2|49=EXC|56=007|52=20190703-21:23:03.000|10=162|
8=FIX.4.4|9=59|35=0|34=2|49=007|50=007B26|52=20190703-21:17:09.869|56=EXC|10=071|
8=FIX.4.4|9=0049|35=0|34=3|49=EXC|56=007|52=20190703-21:23:33.000|10=166|
8=FIX.4.4|9=59|35=0|34=3|49=007|50=007B26|52=20190703-21:17:39.863|56=EXC|10=069|
8=FIX.4.4|9=59|35=5|34=4|49=007|50=007B26|52=20190703-21:17:59.869|56=EXC|10=083|
8=FIX.4.4|9=0049|35=5|34=4|49=EXC|56=007|52=20190703-21:23:53.216|10=183|
8=FIX.4.4|9=110|35=A|34=1|49=007|50=007B26|52=20190703-21:24:25.577|56=EXC|43=Y|98=0|108=30|141=Y|553=007FCE001|554=007FCE001|10=090|
8=FIX.4.4|9=0067|35=A|34=1|49=EXC|56=007|52=20190703-21:30:18.964|98=0|108=30|141=Y|10=015|
8=FIX.4.4|9=0049|35=0|34=2|49=EXC|56=007|52=20190703-21:30:48.000|10=169|
8=FIX.4.4|9=59|35=0|34=2|49=007|50=007B26|52=20190703-21:24:56.487|56=EXC|10=067|
8=FIX.4.4|9=0049|35=0|34=3|49=EXC|56=007|52=20190703-21:31:18.000|10=168|
8=FIX.4.4|9=110|35=A|34=1|49=007|50=007B26|52=20190704-12:55:58.819|56=EXC|43=Y|98=0|108=30|141=Y|553=007FCE001|554=007FCE001|10=100|
8=FIX.4.4|9=0067|35=A|34=1|49=EXC|56=007|52=20190704-13:01:52.826|98=0|108=30|141=Y|10=010|
8=FIX.4.4|9=0049|35=0|34=2|49=EXC|56=007|52=20190704-13:02:22.000|10=162|
8=FIX.4.4|9=59|35=0|34=2|49=007|50=007B26|52=20190704-12:56:29.646|56=EXC|10=070|
8=FIX.4.4|9=0049|35=0|34=3|49=EXC|56=007|52=20190704-13:02:52.000|10=166|
8=FIX.4.4|9=59|35=0|34=3|49=007|50=007B26|52=20190704-12:56:59.646|56=EXC|10=074|
8=FIX.4.4|9=110|35=A|34=1|49=007|50=007B26|52=20190704-12:57:35.080|56=EXC|43=Y|98=0|108=30|141=Y|553=007FCE001|554=007FCE001|10=087|
8=FIX.4.4|9=0067|35=A|34=1|49=EXC|56=007|52=20190704-13:03:29.087|98=0|108=30|141=Y|10=015|
8=FIX.4.4|9=0049|35=0|34=2|49=EXC|56=007|52=20190704-13:03:59.000|10=173|
8=FIX.4.4|9=59|35=0|34=2|49=007|50=007B26|52=20190704-12:58:05.782|56=EXC|10=067|
8=FIX.4.4|9=0049|35=0|34=3|49=EXC|56=007|52=20190704-13:04:29.000|10=172|
8=FIX.4.4|9=59|35=0|34=3|49=007|50=007B26|52=20190704-12:58:35.781|56=EXC|10=070|
8=FIX.4.4|9=0049|35=0|34=4|49=EXC|56=007|52=20190704-13:04:59.000|10=176|
8=FIX.4.4|9=59|35=0|34=4|49=007|50=007B26|52=20190704-12:59:05.781|56=EXC|10=069|
8=FIX.4.4|9=0049|35=0|34=5|49=EXC|56=007|52=20190704-13:05:29.000|10=175|
8=FIX.4.4|9=59|35=0|34=5|49=007|50=007B26|52=20190704-12:59:36.316|56=EXC|10=068|
8=FIX.4.4|9=110|35=A|34=1|49=007|50=007B26|52=20190704-13:26:23.537|56=EXC|43=Y|98=0|108=30|141=Y|553=007FCE001|554=007FCE001|10=088|
8=FIX.4.4|9=0067|35=A|34=1|49=EXC|56=007|52=20190704-13:32:17.551|98=0|108=30|141=Y|10=010|
8=FIX.4.4|9=0049|35=0|34=2|49=EXC|56=007|52=20190704-13:32:47.000|10=172|
8=FIX.4.4|9=59|35=0|34=2|49=007|50=007B26|52=20190704-13:26:54.285|56=EXC|10=065|
8=FIX.4.4|9=110|35=A|34=1|49=007|50=007B26|52=20190704-13:34:07.475|56=EXC|43=Y|98=0|108=30|141=Y|553=007FCE001|554=007FCE001|10=090|
8=FIX.4.4|9=0067|35=A|34=1|49=EXC|56=007|52=20190704-13:40:01.493|98=0|108=30|141=Y|10=007|
8=FIX.4.4|9=0049|35=0|34=2|49=EXC|56=007|52=20190704-13:40:31.000|10=164|
8=FIX.4.4|9=59|35=0|34=2|49=007|50=007B26|52=20190704-13:34:38.141|56=EXC|10=057|
8=FIX.4.4|9=110|35=A|34=1|49=007|50=007B26|52=20190704-14:08:22.102|56=EXC|43=Y|98=0|108=30|141=Y|553=007FCE001|554=007FCE001|10=076|
8=FIX.4.4|9=0067|35=A|34=1|49=EXC|56=007|52=20190704-14:14:16.137|98=0|108=30|141=Y|10=010|
8=FIX.4.4|9=110|35=A|34=1|49=007|50=007B26|52=20190704-14:15:39.902|56=EXC|43=Y|98=0|108=30|141=Y|553=007FCE001|554=007FCE001|10=090|
8=FIX.4.4|9=0067|35=A|34=1|49=EXC|56=007|52=20190704-14:21:33.973|98=0|108=30|141=Y|10=015|
8=FIX.4.4|9=0049|35=0|34=2|49=EXC|56=007|52=20190704-14:22:03.000|10=164|
8=FIX.4.4|9=59|35=0|34=2|49=007|50=007B26|52=20190704-14:16:10.406|56=EXC|10=052|
8=FIX.4.4|9=0049|35=0|34=3|49=EXC|56=007|52=20190704-14:22:33.000|10=168|
8=FIX.4.4|9=59|35=0|34=3|49=007|50=007B26|52=20190704-14:16:40.413|56=EXC|10=054|
8=FIX.4.4|9=0049|35=0|34=4|49=EXC|56=007|52=20190704-14:23:03.000|10=167|
8=FIX.4.4|9=59|35=0|34=4|49=007|50=007B26|52=20190704-14:17:10.416|56=EXC|10=056|
8=FIX.4.4|9=110|35=A|34=1|49=007|50=007B26|52=20190704-14:20:57.627|56=EXC|43=Y|98=0|108=30|141=Y|553=007FCE001|554=007FCE001|10=090|
8=FIX.4.4|9=0067|35=A|34=1|49=EXC|56=007|52=20190704-14:26:51.685|98=0|108=30|141=Y|10=020|
8=FIX.4.4|9=0049|35=0|34=2|49=EXC|56=007|52=20190704-14:27:21.000|10=169|
8=FIX.4.4|9=59|35=0|34=2|49=007|50=007B26|52=20190704-14:21:28.585|56=EXC|10=065|
8=FIX.4.4|9=0049|35=0|34=3|49=EXC|56=007|52=20190704-14:27:51.000|10=173|
8=FIX.4.4|9=59|35=0|34=3|49=007|50=007B26|52=20190704-14:21:58.587|56=EXC|10=071|
8=FIX.4.4|9=110|35=A|34=1|49=007|50=007B26|52=20190704-15:09:50.623|56=EXC|43=Y|98=0|108=30|141=Y|553=007FCE001|554=007FCE001|10=087|
8=FIX.4.4|9=0067|35=A|34=1|49=EXC|56=007|52=20190704-15:15:44.716|98=0|108=30|141=Y|10=016|
8=FIX.4.4|9=0049|35=0|34=2|49=EXC|56=007|52=20190704-15:16:14.000|10=170|
8=FIX.4.4|9=59|35=0|34=2|49=007|50=007B26|52=20190704-15:10:21.604|56=EXC|10=049|
8=FIX.4.4|9=0049|35=0|34=3|49=EXC|56=007|52=20190704-15:16:44.000|10=174|
8=FIX.4.4|9=59|35=0|34=3|49=007|50=007B26|52=20190704-15:10:51.597|56=EXC|10=064|
8=FIX.4.4|9=110|35=A|34=1|49=007|50=007B26|52=20190704-15:23:48.092|56=EXC|43=Y|98=0|108=30|141=Y|553=007FCE001|554=007FCE001|10=090|
8=FIX.4.4|9=0067|35=A|34=1|49=EXC|56=007|52=20190704-15:29:42.197|98=0|108=30|141=Y|10=022|
8=FIX.4.4|9=0049|35=0|34=2|49=EXC|56=007|52=20190704-15:30:12.000|10=164|
8=FIX.4.4|9=59|35=0|34=2|49=007|50=007B26|52=20190704-15:24:18.954|56=EXC|10=068|
8=FIX.4.4|9=0049|35=0|34=3|49=EXC|56=007|52=20190704-15:30:42.000|10=168|
8=FIX.4.4|9=59|35=0|34=3|49=007|50=007B26|52=20190704-15:24:48.950|56=EXC|10=068|
8=FIX.4.4|9=0049|35=0|34=4|49=EXC|56=007|52=20190704-15:31:12.000|10=167|
8=FIX.4.4|9=59|35=0|34=4|49=007|50=007B26|52=20190704-15:25:18.951|56=EXC|10=068|
8=FIX.4.4|9=110|35=A|34=1|49=007|50=007B26|52=20190704-15:25:48.406|56=EXC|43=Y|98=0|108=30|141=Y|553=007FCE001|554=007FCE001|10=091|
8=FIX.4.4|9=0067|35=A|34=1|49=EXC|56=007|52=20190704-15:31:42.517|98=0|108=30|141=Y|10=011|
8=FIX.4.4|9=0049|35=0|34=2|49=EXC|56=007|52=20190704-15:32:12.000|10=166|
8=FIX.4.4|9=59|35=0|34=2|49=007|50=007B26|52=20190704-15:26:19.265|56=EXC|10=066|
8=FIX.4.4|9=110|35=A|34=1|49=007|50=007B26|52=20190704-15:26:55.826|56=EXC|43=Y|98=0|108=30|141=Y|553=007FCE001|554=007FCE001|10=096|
8=FIX.4.4|9=0067|35=A|34=1|49=EXC|56=007|52=20190704-15:32:49.936|98=0|108=30|141=Y|10=024|
8=FIX.4.4|9=0049|35=0|34=2|49=EXC|56=007|52=20190704-15:33:19.000|10=174|
8=FIX.4.4|9=59|35=0|34=2|49=007|50=007B26|52=20190704-15:27:26.795|56=EXC|10=073|
8=FIX.4.4|9=0049|35=0|34=3|49=EXC|56=007|52=20190704-15:33:49.000|10=178|
8=FIX.4.4|9=59|35=0|34=3|49=007|50=007B26|52=20190704-15:27:56.809|56=EXC|10=073|
8=FIX.4.4|9=110|35=A|34=1|49=007|50=007B26|52=20190704-16:32:38.688|56=EXC|43=Y|98=0|108=30|141=Y|553=007FCE001|554=007FCE001|10=101|
8=FIX.4.4|9=0067|35=A|34=1|49=EXC|56=007|52=20190704-16:38:32.872|98=0|108=30|141=Y|10=022|
8=FIX.4.4|9=0049|35=0|34=2|49=EXC|56=007|52=20190704-16:39:02.000|10=173|
8=FIX.4.4|9=59|35=0|34=2|49=007|50=007B26|52=20190704-16:33:09.294|56=EXC|10=066|
8=FIX.4.4|9=0049|35=0|34=3|49=EXC|56=007|52=20190704-16:39:32.000|10=177|
8=FIX.4.4|9=59|35=0|34=3|49=007|50=007B26|52=20190704-16:33:39.285|56=EXC|10=070|
8=FIX.4.4|9=110|35=A|34=1|49=007|50=007B26|52=20190704-19:13:15.180|56=EXC|43=Y|98=0|108=30|141=Y|553=007FCE001|554=007FCE001|10=085|
8=FIX.4.4|9=0067|35=A|34=1|49=EXC|56=007|52=20190704-19:19:09.457|98=0|108=30|141=Y|10=027|
8=FIX.4.4|9=0049|35=0|34=2|49=EXC|56=007|52=20190704-19:19:39.000|10=184|
8=FIX.4.4|9=59|35=0|34=2|49=007|50=007B26|52=20190704-19:13:46.019|56=EXC|10=063|
8=FIX.4.4|9=0049|35=0|34=3|49=EXC|56=007|52=20190704-19:20:09.000|10=174|
8=FIX.4.4|9=59|35=0|34=3|49=007|50=007B26|52=20190704-19:14:17.010|56=EXC|10=054|
8=FIX.4.4|9=110|35=A|34=1|49=007|50=007B26|52=20190704-21:29:09.857|56=EXC|43=Y|98=0|108=30|141=Y|553=007FCE001|554=007FCE001|10=099|
8=FIX.4.4|9=0067|35=A|34=1|49=EXC|56=007|52=20190704-21:35:04.241|98=0|108=30|141=Y|10=004|
8=FIX.4.4|9=0049|35=0|34=2|49=EXC|56=007|52=20190704-21:35:34.000|10=170|
8=FIX.4.4|9=59|35=0|34=2|49=007|50=007B26|52=20190704-21:29:40.716|56=EXC|10=061|
8=FIX.4.4|9=0049|35=0|34=3|49=EXC|56=007|52=20190704-21:36:04.000|10=169|
8=FIX.4.4|9=59|35=0|34=3|49=007|50=007B26|52=20190704-21:30:10.722|56=EXC|10=048|
8=FIX.4.4|9=0049|35=0|34=4|49=EXC|56=007|52=20190704-21:36:34.000|10=173|
8=FIX.4.4|9=59|35=0|34=4|49=007|50=007B26|52=20190704-21:30:40.730|56=EXC|10=051|
8=FIX.4.4|9=110|35=A|34=1|49=007|50=007B26|52=20190704-21:55:00.413|56=EXC|43=Y|98=0|108=30|141=Y|553=007FCE001|554=007FCE001|10=077|
8=FIX.4.4|9=0067|35=A|34=1|49=EXC|56=007|52=20190704-22:00:54.812|98=0|108=30|141=Y|10=006|
8=FIX.4.4|9=0049|35=0|34=2|49=EXC|56=007|52=20190704-22:01:24.000|10=163|
8=FIX.4.4|9=59|35=0|34=2|49=007|50=007B26|52=20190704-21:55:31.278|56=EXC|10=063|
8=FIX.4.4|9=0049|35=0|34=3|49=EXC|56=007|52=20190704-22:01:54.000|10=167|
8=FIX.4.4|9=59|35=0|34=3|49=007|50=007B26|52=20190704-21:56:01.276|56=EXC|10=060|
8=FIX.4.4|9=110|35=A|34=1|49=007|50=007B26|52=20190705-15:23:21.326|56=EXC|43=Y|98=0|108=30|141=Y|553=007FCE001|554=007FCE001|10=082|
8=FIX.4.4|9=0067|35=A|34=1|49=EXC|56=007|52=20190705-15:29:16.390|98=0|108=30|141=Y|10=019|
8=FIX.4.4|9=0049|35=0|34=2|49=EXC|56=007|52=20190705-15:29:46.000|10=180|
8=FIX.4.4|9=59|35=0|34=2|49=007|50=007B26|52=20190705-15:23:52.309|56=EXC|10=060|
8=FIX.4.4|9=110|35=A|34=1|49=007|50=007B26|52=20190705-15:24:40.740|56=EXC|43=Y|98=0|108=30|141=Y|553=007FCE001|554=007FCE001|10=084|
8=FIX.4.4|9=0067|35=A|34=1|49=EXC|56=007|52=20190705-15:30:35.803|98=0|108=30|141=Y|10=011|
8=FIX.4.4|9=0049|35=0|34=2|49=EXC|56=007|52=20190705-15:31:05.000|10=168|
8=FIX.4.4|9=59|35=0|34=2|49=007|50=007B26|52=20190705-15:25:11.636|56=EXC|10=060|
8=FIX.4.4|9=0049|35=0|34=3|49=EXC|56=007|52=20190705-15:31:35.000|10=172|
8=FIX.4.4|9=59|35=0|34=3|49=007|50=007B26|52=20190705-15:25:41.634|56=EXC|10=062|
8=FIX.4.4|9=110|35=A|34=1|49=007|50=007B26|52=20190705-15:28:38.357|56=EXC|43=Y|98=0|108=30|141=Y|553=007FCE001|554=007FCE001|10=099|
8=FIX.4.4|9=0067|35=A|34=1|49=EXC|56=007|52=20190705-15:34:33.426|98=0|108=30|141=Y|10=014|
8=FIX.4.4|9=0049|35=0|34=2|49=EXC|56=007|52=20190705-15:35:03.000|10=170|
8=FIX.4.4|9=59|35=0|34=2|49=007|50=007B26|52=20190705-15:29:09.229|56=EXC|10=069|
8=FIX.4.4|9=0049|35=0|34=3|49=EXC|56=007|52=20190705-15:35:33.000|10=174|
8=FIX.4.4|9=59|35=0|34=3|49=007|50=007B26|52=20190705-15:29:40.222|56=EXC|10=058|
8=FIX.4.4|9=110|35=A|34=1|49=007|50=007B26|52=20190705-16:02:51.431|56=EXC|43=Y|98=0|108=30|141=Y|553=007FCE001|554=007FCE001|10=080|
8=FIX.4.4|9=0067|35=A|34=1|49=EXC|56=007|52=20190705-16:08:46.521|98=0|108=30|141=Y|10=016|
8=FIX.4.4|9=0049|35=0|34=2|49=EXC|56=007|52=20190705-16:09:16.000|10=176|
8=FIX.4.4|9=59|35=0|34=2|49=007|50=007B26|52=20190705-16:03:22.300|56=EXC|10=047|
8=FIX.4.4|9=0049|35=0|34=3|49=EXC|56=007|52=20190705-16:09:46.000|10=180|
8=FIX.4.4|9=59|35=0|34=3|49=007|50=007B26|52=20190705-16:03:52.291|56=EXC|10=060|
8=FIX.4.4|9=110|35=A|34=1|49=007|50=007B26|52=20190705-16:04:44.380|56=EXC|43=Y|98=0|108=30|141=Y|553=007FCE001|554=007FCE001|10=087|
8=FIX.4.4|9=0067|35=A|34=1|49=EXC|56=007|52=20190705-16:10:39.465|98=0|108=30|141=Y|10=018|
8=FIX.4.4|9=0049|35=0|34=2|49=EXC|56=007|52=20190705-16:11:09.000|10=171|
8=FIX.4.4|9=59|35=0|34=2|49=007|50=007B26|52=20190705-16:05:15.267|56=EXC|10=063|
8=FIX.4.4|9=0049|35=0|34=3|49=EXC|56=007|52=20190705-16:11:39.000|10=175|
8=FIX.4.4|9=59|35=0|34=3|49=007|50=007B26|52=20190705-16:05:45.272|56=EXC|10=063|
8=FIX.4.4|9=110|35=A|34=1|49=007|50=007B26|52=20190705-16:38:08.418|56=EXC|43=Y|98=0|108=30|141=Y|553=007FCE001|554=007FCE001|10=096|
8=FIX.4.4|9=0067|35=A|34=1|49=EXC|56=007|52=20190705-16:44:03.535|98=0|108=30|141=Y|10=014|
8=FIX.4.4|9=0049|35=0|34=2|49=EXC|56=007|52=20190705-16:44:33.000|10=174|
8=FIX.4.4|9=59|35=0|34=2|49=007|50=007B26|52=20190705-16:38:39.350|56=EXC|10=068|
8=FIX.4.4|9=0049|35=0|34=3|49=EXC|56=007|52=20190705-16:45:03.000|10=173|
8=FIX.4.4|9=59|35=0|34=3|49=007|50=007B26|52=20190705-16:39:09.345|56=EXC|10=071|
8=FIX.4.4|9=0049|35=0|34=4|49=EXC|56=007|52=20190705-16:45:33.000|10=177|
8=FIX.4.4|9=59|35=0|34=4|49=007|50=007B26|52=20190705-16:39:39.349|56=EXC|10=079|
8=FIX.4.4|9=0049|35=0|34=5|49=EXC|56=007|52=20190705-16:46:03.000|10=176|
8=FIX.4.4|9=59|35=0|34=5|49=007|50=007B26|52=20190705-16:40:09.347|56=EXC|10=067|
8=FIX.4.4|9=110|35=A|34=1|49=007|50=007B26|52=20190705-16:44:28.418|56=EXC|43=Y|98=0|108=30|141=Y|553=007FCE001|554=007FCE001|10=095|
8=FIX.4.4|9=0067|35=A|34=1|49=EXC|56=007|52=20190705-16:50:23.542|98=0|108=30|141=Y|10=011|
8=FIX.4.4|9=0049|35=0|34=2|49=EXC|56=007|52=20190705-16:50:53.000|10=173|
8=FIX.4.4|9=59|35=0|34=2|49=007|50=007B26|52=20190705-16:44:59.283|56=EXC|10=072|
8=FIX.4.4|9=0049|35=0|34=3|49=EXC|56=007|52=20190705-16:51:23.000|10=172|
8=FIX.4.4|9=59|35=0|34=3|49=007|50=007B26|52=20190705-16:45:29.284|56=EXC|10=072|
8=FIX.4.4|9=0049|35=0|34=4|49=EXC|56=007|52=20190705-16:51:53.000|10=176|
8=FIX.4.4|9=59|35=0|34=4|49=007|50=007B26|52=20190705-16:45:59.282|56=EXC|10=074|
8=FIX.4.4|9=0049|35=0|34=5|49=EXC|56=007|52=20190705-16:52:23.000|10=175|
8=FIX.4.4|9=59|35=0|34=5|49=007|50=007B26|52=20190705-16:46:29.282|56=EXC|10=073|
8=FIX.4.4|9=0049|35=0|34=6|49=EXC|56=007|52=20190705-16:52:53.000|10=179|
8=FIX.4.4|9=59|35=0|34=6|49=007|50=007B26|52=20190705-16:46:59.281|56=EXC|10=076|
8=FIX.4.4|9=0049|35=0|34=7|49=EXC|56=007|52=20190705-16:53:23.000|10=178|
8=FIX.4.4|9=59|35=0|34=7|49=007|50=007B26|52=20190705-16:47:29.281|56=EXC|10=075|
8=FIX.4.4|9=110|35=A|34=1|49=007|50=007B26|52=20190705-16:51:15.103|56=EXC|43=Y|98=0|108=30|141=Y|553=007FCE001|554=007FCE001|10=080|
8=FIX.4.4|9=0067|35=A|34=1|49=EXC|56=007|52=20190705-16:57:10.221|98=0|108=30|141=Y|10=008|
8=FIX.4.4|9=0049|35=0|34=2|49=EXC|56=007|52=20190705-16:57:40.000|10=176|
8=FIX.4.4|9=59|35=0|34=2|49=007|50=007B26|52=20190705-16:51:45.936|56=EXC|10=070|
8=FIX.4.4|9=0049|35=0|34=3|49=EXC|56=007|52=20190705-16:58:10.000|10=175|
8=FIX.4.4|9=59|35=0|34=3|49=007|50=007B26|52=20190705-16:52:15.927|56=EXC|10=069|
8=FIX.4.4|9=0049|35=0|34=4|49=EXC|56=007|52=20190705-16:58:40.000|10=179|
8=FIX.4.4|9=59|35=0|34=4|49=007|50=007B26|52=20190705-16:52:45.934|56=EXC|10=071|
8=FIX.4.4|9=110|35=A|34=1|49=007|50=007B26|52=20190705-16:54:04.127|56=EXC|43=Y|98=0|108=30|141=Y|553=007FCE001|554=007FCE001|10=087|
8=FIX.4.4|9=0067|35=A|34=1|49=EXC|56=007|52=20190705-16:59:59.260|98=0|108=30|141=Y|10=026|
8=FIX.4.4|9=0049|35=0|34=2|49=EXC|56=007|52=20190705-17:00:29.000|10=172|
8=FIX.4.4|9=59|35=0|34=2|49=007|50=007B26|52=20190705-16:54:35.091|56=EXC|10=064|
8=FIX.4.4|9=0049|35=0|34=3|49=EXC|56=007|52=20190705-17:00:59.000|10=176|
8=FIX.4.4|9=59|35=0|34=3|49=007|50=007B26|52=20190705-16:55:05.087|56=EXC|10=068|
8=FIX.4.4|9=0049|35=0|34=4|49=EXC|56=007|52=20190705-17:01:29.000|10=175|
8=FIX.4.4|9=59|35=0|34=4|49=007|50=007B26|52=20190705-16:55:35.088|56=EXC|10=073|
8=FIX.4.4|9=110|35=A|34=1|49=007|50=007B26|52=20190705-19:47:05.059|56=EXC|43=Y|98=0|108=30|141=Y|553=007FCE001|554=007FCE001|10=097|
8=FIX.4.4|9=0067|35=A|34=1|49=EXC|56=007|52=20190705-19:53:00.304|98=0|108=30|141=Y|10=008|
8=FIX.4.4|9=0049|35=0|34=2|49=EXC|56=007|52=20190705-19:53:30.000|10=174|
8=FIX.4.4|9=59|35=0|34=2|49=007|50=007B26|52=20190705-19:47:35.915|56=EXC|10=074|
8=FIX.4.4|9=0049|35=0|34=3|49=EXC|56=007|52=20190705-19:54:00.000|10=173|
8=FIX.4.4|9=59|35=0|34=3|49=007|50=007B26|52=20190705-19:48:05.911|56=EXC|10=069|
8=FIX.4.4|9=0049|35=0|34=4|49=EXC|56=007|52=20190705-19:54:30.000|10=177|
8=FIX.4.4|9=59|35=0|34=4|49=007|50=007B26|52=20190705-19:48:35.909|56=EXC|10=080|
8=FIX.4.4|9=110|35=A|34=1|49=007|50=007B26|52=20190705-20:28:23.032|56=EXC|43=Y|98=0|108=30|141=Y|553=007FCE001|554=007FCE001|10=079|
8=FIX.4.4|9=0067|35=A|34=1|49=EXC|56=007|52=20190705-20:34:18.303|98=0|108=30|141=Y|10=007|
8=FIX.4.4|9=0049|35=0|34=2|49=EXC|56=007|52=20190705-20:34:48.000|10=174|
8=FIX.4.4|9=59|35=0|34=2|49=007|50=007B26|52=20190705-20:28:53.858|56=EXC|10=071|
8=FIX.4.4|9=0049|35=0|34=3|49=EXC|56=007|52=20190705-20:35:18.000|10=173|
8=FIX.4.4|9=59|35=0|34=3|49=007|50=007B26|52=20190705-20:29:23.857|56=EXC|10=069|
8=FIX.4.4|9=110|35=A|34=1|49=007|50=007B26|52=20190705-20:35:48.189|56=EXC|43=Y|98=0|108=30|141=Y|553=007FCE001|554=007FCE001|10=097|
8=FIX.4.4|9=0067|35=A|34=1|49=EXC|56=007|52=20190705-20:41:43.475|98=0|108=30|141=Y|10=013|
8=FIX.4.4|9=0049|35=0|34=2|49=EXC|56=007|52=20190705-20:42:13.000|10=165|
8=FIX.4.4|9=59|35=0|34=2|49=007|50=007B26|52=20190705-20:36:19.056|56=EXC|10=062|
8=FIX.4.4|9=0049|35=0|34=3|49=EXC|56=007|52=20190705-20:42:43.000|10=169|
8=FIX.4.4|9=59|35=0|34=3|49=007|50=007B26|52=20190705-20:36:49.057|56=EXC|10=067|
8=FIX.4.4|9=0049|35=0|34=4|49=EXC|56=007|52=20190705-20:43:13.000|10=168|
8=FIX.4.4|9=59|35=0|34=4|49=007|50=007B26|52=20190705-20:37:19.066|56=EXC|10=066|
8=FIX.4.4|9=110|35=A|34=1|49=007|50=007B26|52=20190705-20:40:31.073|56=EXC|43=Y|98=0|108=30|141=Y|553=007FCE001|554=007FCE001|10=077|
8=FIX.4.4|9=0067|35=A|34=1|49=EXC|56=007|52=20190705-20:46:26.354|98=0|108=30|141=Y|10=015|
8=FIX.4.4|9=0049|35=0|34=2|49=EXC|56=007|52=20190705-20:46:56.000|10=176|
8=FIX.4.4|9=59|35=0|34=2|49=007|50=007B26|52=20190705-20:41:01.819|56=EXC|10=056|
8=FIX.4.4|9=110|35=A|34=1|49=007|50=007B26|52=20190705-20:41:56.734|56=EXC|43=Y|98=0|108=30|141=Y|553=007FCE001|554=007FCE001|10=089|
8=FIX.4.4|9=0067|35=A|34=1|49=EXC|56=007|52=20190705-20:47:52.015|98=0|108=30|141=Y|10=009|
8=FIX.4.4|9=0049|35=0|34=2|49=EXC|56=007|52=20190705-20:48:22.000|10=171|
8=FIX.4.4|9=59|35=0|34=2|49=007|50=007B26|52=20190705-20:42:26.755|56=EXC|10=063|
8=FIX.4.4|9=0049|35=0|34=3|49=EXC|56=007|52=20190705-20:48:52.000|10=175|
8=FIX.4.4|9=59|35=0|34=3|49=007|50=007B26|52=20190705-20:42:56.753|56=EXC|10=065|
8=FIX.4.4|9=110|35=A|34=1|49=007|50=007B26|52=20190705-20:44:31.622|56=EXC|43=Y|98=0|108=30|141=Y|553=007FCE001|554=007FCE001|10=081|
8=FIX.4.4|9=0067|35=A|34=1|49=EXC|56=007|52=20190705-20:50:26.906|98=0|108=30|141=Y|10=013|
8=FIX.4.4|9=0049|35=0|34=2|49=EXC|56=007|52=20190705-20:50:56.000|10=171|
8=FIX.4.4|9=59|35=0|34=2|49=007|50=007B26|52=20190705-20:45:02.491|56=EXC|10=057|
8=FIX.4.4|9=0049|35=0|34=3|49=EXC|56=007|52=20190705-20:51:26.000|10=170|
8=FIX.4.4|9=59|35=0|34=3|49=007|50=007B26|52=20190705-20:45:32.501|56=EXC|10=053|
8=FIX.4.4|9=0049|35=0|34=4|49=EXC|56=007|52=20190705-20:51:56.000|10=174|
8=FIX.4.4|9=59|35=0|34=4|49=007|50=007B26|52=20190705-20:46:02.495|56=EXC|10=064|
8=FIX.4.4|9=110|35=A|34=1|49=007|50=007B26|52=20190709-15:57:59.808|56=EXC|43=Y|98=0|108=30|141=Y|553=007FCE001|554=007FCE001|10=109|
8=FIX.4.4|9=0067|35=A|34=1|49=EXC|56=007|52=20190710-16:03:58.556|98=0|108=30|141=Y|10=018|
8=FIX.4.4|9=0049|35=0|34=2|49=EXC|56=007|52=20190710-16:04:28.000|10=170|
8=FIX.4.4|9=59|35=0|34=2|49=007|50=007B26|52=20190709-15:58:30.781|56=EXC|10=072|
8=FIX.4.4|9=0049|35=0|34=3|49=EXC|56=007|52=20190710-16:04:58.000|10=174|
8=FIX.4.4|9=59|35=0|34=3|49=007|50=007B26|52=20190709-15:59:00.790|56=EXC|10=071|
8=FIX.4.4|9=110|35=A|34=1|49=007|50=007B26|52=20190709-16:47:22.242|56=EXC|43=Y|98=0|108=30|141=Y|553=007FCE001|554=007FCE001|10=091|
8=FIX.4.4|9=0067|35=A|34=1|49=EXC|56=007|52=20190710-16:53:21.023|98=0|108=30|141=Y|10=002|
8=FIX.4.4|9=59|35=0|34=2|49=007|50=007B26|52=20190709-16:47:52.247|56=EXC|10=072|
8=FIX.4.4|9=0049|35=0|34=2|49=EXC|56=007|52=20190710-16:53:51.000|10=170|
8=FIX.4.4|9=59|35=0|34=3|49=007|50=007B26|52=20190709-16:48:22.242|56=EXC|10=066|
8=FIX.4.4|9=0049|35=0|34=3|49=EXC|56=007|52=20190710-16:54:21.000|10=169|
8=FIX.4.4|9=110|35=A|34=1|49=007|50=007B26|52=20190709-19:18:46.909|56=EXC|43=Y|98=0|108=30|141=Y|553=007FCE001|554=007FCE001|10=108|
8=FIX.4.4|9=0067|35=A|34=1|49=EXC|56=007|52=20190710-19:24:45.798|98=0|108=30|141=Y|10=028|
8=FIX.4.4|9=0049|35=0|34=2|49=EXC|56=007|52=20190710-19:25:15.000|10=172|
8=FIX.4.4|9=59|35=0|34=2|49=007|50=007B26|52=20190709-19:19:17.779|56=EXC|10=085|
8=FIX.4.4|9=0049|35=0|34=3|49=EXC|56=007|52=20190710-19:25:45.000|10=176|
8=FIX.4.4|9=59|35=0|34=3|49=007|50=007B26|52=20190709-19:19:47.774|56=EXC|10=084|
8=FIX.4.4|9=110|35=A|34=1|49=007|50=007B26|52=20190709-19:48:39.306|56=EXC|43=Y|98=0|108=30|141=Y|553=007FCE001|554=007FCE001|10=104|
8=FIX.4.4|9=0067|35=A|34=1|49=EXC|56=007|52=20190710-19:54:38.218|98=0|108=30|141=Y|10=020|
8=FIX.4.4|9=0049|35=0|34=2|49=EXC|56=007|52=20190710-19:55:08.000|10=177|
8=FIX.4.4|9=59|35=0|34=2|49=007|50=007B26|52=20190709-19:49:10.137|56=EXC|10=069|
8=FIX.4.4|9=0049|35=0|34=3|49=EXC|56=007|52=20190710-19:55:38.000|10=181|
8=FIX.4.4|9=59|35=0|34=3|49=007|50=007B26|52=20190709-19:49:40.145|56=EXC|10=072|
8=FIX.4.4|9=0049|35=0|34=4|49=EXC|56=007|52=20190710-19:56:08.000|10=180|
8=FIX.4.4|9=59|35=0|34=4|49=007|50=007B26|52=20190709-19:50:10.147|56=EXC|10=064|
8=FIX.4.4|9=110|35=A|34=1|49=007|50=007B26|52=20190709-19:51:37.135|56=EXC|43=Y|98=0|108=30|141=Y|553=007FCE001|554=007FCE001|10=096|
8=FIX.4.4|9=0067|35=A|34=1|49=EXC|56=007|52=20190710-19:57:36.036|98=0|108=30|141=Y|10=019|
8=FIX.4.4|9=0049|35=0|34=2|49=EXC|56=007|52=20190710-19:58:06.000|10=178|
8=FIX.4.4|9=59|35=0|34=2|49=007|50=007B26|52=20190709-19:52:07.133|56=EXC|10=065|
8=FIX.4.4|9=0049|35=0|34=3|49=EXC|56=007|52=20190710-19:58:36.000|10=182|
8=FIX.4.4|9=59|35=0|34=3|49=007|50=007B26|52=20190709-19:52:37.131|56=EXC|10=067|
8=FIX.4.4|9=110|35=A|34=1|49=007|50=007B26|52=20190709-19:53:31.564|56=EXC|43=Y|98=0|108=30|141=Y|553=007FCE001|554=007FCE001|10=098|
8=FIX.4.4|9=0067|35=A|34=1|49=EXC|56=007|52=20190710-19:59:30.478|98=0|108=30|141=Y|10=025|
8=FIX.4.4|9=0049|35=0|34=2|49=EXC|56=007|52=20190710-20:00:00.000|10=151|
8=FIX.4.4|9=59|35=0|34=2|49=007|50=007B26|52=20190709-19:54:02.509|56=EXC|10=069|
8=FIX.4.4|9=0049|35=0|34=3|49=EXC|56=007|52=20190710-20:00:30.000|10=155|
8=FIX.4.4|9=59|35=0|34=3|49=007|50=007B26|52=20190709-19:54:32.506|56=EXC|10=070|
8=FIX.4.4|9=110|35=A|34=1|49=007|50=007B26|52=20190709-20:02:07.054|56=EXC|43=Y|98=0|108=30|141=Y|553=007FCE001|554=007FCE001|10=081|
8=FIX.4.4|9=0067|35=A|34=1|49=EXC|56=007|52=20190710-20:08:05.971|98=0|108=30|141=Y|10=011|
8=FIX.4.4|9=0049|35=0|34=2|49=EXC|56=007|52=20190710-20:08:35.000|10=167|
8=FIX.4.4|9=59|35=0|34=2|49=007|50=007B26|52=20190709-20:02:37.895|56=EXC|10=070|
8=FIX.4.4|9=0049|35=0|34=3|49=EXC|56=007|52=20190710-20:09:05.000|10=166|
8=FIX.4.4|9=59|35=0|34=3|49=007|50=007B26|52=20190709-20:03:07.891|56=EXC|10=065|
8=FIX.4.4|9=110|35=A|34=1|49=007|50=007B26|52=20190709-20:30:10.965|56=EXC|43=Y|98=0|108=30|141=Y|553=007FCE001|554=007FCE001|10=087|
8=FIX.4.4|9=0067|35=A|34=1|49=EXC|56=007|52=20190710-20:36:09.913|98=0|108=30|141=Y|10=012|
8=FIX.4.4|9=0049|35=0|34=2|49=EXC|56=007|52=20190710-20:36:39.000|10=172|
8=FIX.4.4|9=59|35=0|34=2|49=007|50=007B26|52=20190709-20:30:41.909|56=EXC|10=062|
8=FIX.4.4|9=0049|35=0|34=3|49=EXC|56=007|52=20190710-20:37:09.000|10=171|
8=FIX.4.4|9=59|35=0|34=3|49=007|50=007B26|52=20190709-20:31:11.904|56=EXC|10=056|
8=FIX.4.4|9=110|35=A|34=1|49=007|50=007B26|52=20190709-20:41:32.499|56=EXC|43=Y|98=0|108=30|141=Y|553=007FCE001|554=007FCE001|10=095|
8=FIX.4.4|9=0067|35=A|34=1|49=EXC|56=007|52=20190710-20:47:31.445|98=0|108=30|141=Y|10=009|
8=FIX.4.4|9=0049|35=0|34=2|49=EXC|56=007|52=20190710-20:48:01.000|10=164|
8=FIX.4.4|9=59|35=0|34=2|49=007|50=007B26|52=20190709-20:42:03.383|56=EXC|10=059|
8=FIX.4.4|9=0049|35=0|34=3|49=EXC|56=007|52=20190710-20:48:31.000|10=168|
8=FIX.4.4|9=59|35=0|34=3|49=007|50=007B26|52=20190709-20:42:33.387|56=EXC|10=067|
8=FIX.4.4|9=0049|35=0|34=4|49=EXC|56=007|52=20190710-20:49:01.000|10=167|
8=FIX.4.4|9=59|35=0|34=4|49=007|50=007B26|52=20190709-20:43:03.381|56=EXC|10=060|
8=FIX.4.4|9=110|35=A|34=1|49=007|50=007B26|52=20190709-20:50:25.302|56=EXC|43=Y|98=0|108=30|141=Y|553=007FCE001|554=007FCE001|10=080|
8=FIX.4.4|9=0067|35=A|34=1|49=EXC|56=007|52=20190710-20:56:24.245|98=0|108=30|141=Y|10=009|
8=FIX.4.4|9=0049|35=0|34=2|49=EXC|56=007|52=20190710-20:56:54.000|10=171|
8=FIX.4.4|9=59|35=0|34=2|49=007|50=007B26|52=20190709-20:50:56.191|56=EXC|10=063|
8=FIX.4.4|9=0049|35=0|34=3|49=EXC|56=007|52=20190710-20:57:24.000|10=170|
8=FIX.4.4|9=59|35=0|34=3|49=007|50=007B26|52=20190709-20:51:26.190|56=EXC|10=061|
8=FIX.4.4|9=0049|35=0|34=4|49=EXC|56=007|52=20190710-20:57:54.000|10=174|
8=FIX.4.4|9=59|35=0|34=4|49=007|50=007B26|52=20190709-20:51:56.187|56=EXC|10=071|
8=FIX.4.4|9=110|35=A|34=1|49=007|50=007B26|52=20190709-20:52:59.314|56=EXC|43=Y|98=0|108=30|141=Y|553=007FCE001|554=007FCE001|10=092|
8=FIX.4.4|9=0067|35=A|34=1|49=EXC|56=007|52=20190710-20:58:58.276|98=0|108=30|141=Y|10=022|
8=FIX.4.4|9=0049|35=0|34=2|49=EXC|56=007|52=20190710-20:59:28.000|10=175|
8=FIX.4.4|9=59|35=0|34=2|49=007|50=007B26|52=20190709-20:53:30.157|56=EXC|10=060|
8=FIX.4.4|9=0049|35=0|34=3|49=EXC|56=007|52=20190710-20:59:58.000|10=179|
8=FIX.4.4|9=59|35=0|34=3|49=007|50=007B26|52=20190709-20:54:00.171|56=EXC|10=055|
8=FIX.4.4|9=110|35=A|34=1|49=007|50=007B26|52=20190709-20:56:22.733|56=EXC|43=Y|98=0|108=30|141=Y|553=007FCE001|554=007FCE001|10=091|
8=FIX.4.4|9=0067|35=A|34=1|49=EXC|56=007|52=20190710-21:02:21.675|98=0|108=30|141=Y|10=005|
8=FIX.4.4|9=0049|35=0|34=2|49=EXC|56=007|52=20190710-21:02:51.000|10=160|
8=FIX.4.4|9=59|35=0|34=2|49=007|50=007B26|52=20190709-20:56:53.546|56=EXC|10=070|
8=FIX.4.4|9=0049|35=0|34=3|49=EXC|56=007|52=20190710-21:03:21.000|10=159|
8=FIX.4.4|9=59|35=0|34=3|49=007|50=007B26|52=20190709-20:57:23.548|56=EXC|10=071|
8=FIX.4.4|9=110|35=A|34=1|49=007|50=007B26|52=20190709-20:59:39.760|56=EXC|43=Y|98=0|108=30|141=Y|553=007FCE001|554=007FCE001|10=102|
8=FIX.4.4|9=0067|35=A|34=1|49=EXC|56=007|52=20190710-21:05:38.725|98=0|108=30|141=Y|10=012|
8=FIX.4.4|9=0049|35=0|34=2|49=EXC|56=007|52=20190710-21:06:08.000|10=166|
8=FIX.4.4|9=59|35=0|34=2|49=007|50=007B26|52=20190709-21:00:10.579|56=EXC|10=059|
8=FIX.4.4|9=0049|35=0|34=3|49=EXC|56=007|52=20190710-21:06:38.000|10=170|
8=FIX.4.4|9=59|35=0|34=3|49=007|50=007B26|52=20190709-21:00:40.591|56=EXC|10=057|
8=FIX.4.4|9=110|35=A|34=1|49=007|50=007B26|52=20190709-21:02:35.618|56=EXC|43=Y|98=0|108=30|141=Y|553=007FCE001|554=007FCE001|10=089|
8=FIX.4.4|9=0067|35=A|34=1|49=EXC|56=007|52=20190710-21:08:34.566|98=0|108=30|141=Y|10=014|
8=FIX.4.4|9=0049|35=0|34=2|49=EXC|56=007|52=20190710-21:09:04.000|10=165|
8=FIX.4.4|9=59|35=0|34=2|49=007|50=007B26|52=20190709-21:03:06.525|56=EXC|10=058|
8=FIX.4.4|9=0049|35=0|34=3|49=EXC|56=007|52=20190710-21:09:34.000|10=169|
8=FIX.4.4|9=59|35=0|34=3|49=007|50=007B26|52=20190709-21:03:36.528|56=EXC|10=065|
8=FIX.4.4|9=110|35=A|34=1|49=007|50=007B26|52=20190709-21:06:22.329|56=EXC|43=Y|98=0|108=30|141=Y|553=007FCE001|554=007FCE001|10=088|
8=FIX.4.4|9=0067|35=A|34=1|49=EXC|56=007|52=20190710-21:12:21.342|98=0|108=30|141=Y|10=253|
8=FIX.4.4|9=0049|35=0|34=2|49=EXC|56=007|52=20190710-21:12:51.000|10=161|
8=FIX.4.4|9=59|35=0|34=2|49=007|50=007B26|52=20190709-21:06:53.179|56=EXC|10=068|
8=FIX.4.4|9=0049|35=0|34=3|49=EXC|56=007|52=20190710-21:13:21.000|10=160|
8=FIX.4.4|9=59|35=0|34=3|49=007|50=007B26|52=20190709-21:07:23.183|56=EXC|10=062|
8=FIX.4.4|9=0049|35=0|34=4|49=EXC|56=007|52=20190710-21:13:51.000|10=164|
8=FIX.4.4|9=110|35=A|34=1|49=007|50=007B26|52=20190709-21:10:36.328|56=EXC|43=Y|98=0|108=30|141=Y|553=007FCE001|554=007FCE001|10=087|
8=FIX.4.4|9=0067|35=A|34=1|49=EXC|56=007|52=20190710-21:16:35.314|98=0|108=30|141=Y|10=005|
8=FIX.4.4|9=0049|35=0|34=2|49=EXC|56=007|52=20190710-21:17:05.000|10=165|
8=FIX.4.4|9=59|35=0|34=2|49=007|50=007B26|52=20190709-21:11:07.162|56=EXC|10=055|
8=FIX.4.4|9=0049|35=0|34=3|49=EXC|56=007|52=20190710-21:17:35.000|10=169|
8=FIX.4.4|9=59|35=0|34=3|49=007|50=007B26|52=20190709-21:11:37.160|56=EXC|10=057|
8=FIX.4.4|9=110|35=A|34=1|49=007|50=007B26|52=20190709-21:12:42.955|56=EXC|43=Y|98=0|108=30|141=Y|553=007FCE001|554=007FCE001|10=092|
8=FIX.4.4|9=0067|35=A|34=1|49=EXC|56=007|52=20190710-21:18:41.931|98=0|108=30|141=Y|10=009|
8=FIX.4.4|9=0049|35=0|34=2|49=EXC|56=007|52=20190710-21:19:11.000|10=164|
8=FIX.4.4|9=59|35=0|34=2|49=007|50=007B26|52=20190709-21:13:13.752|56=EXC|10=059|
8=FIX.4.4|9=0049|35=0|34=3|49=EXC|56=007|52=20190710-21:19:41.000|10=168|
8=FIX.4.4|9=59|35=0|34=3|49=007|50=007B26|52=20190709-21:13:43.750|56=EXC|10=061|
8=FIX.4.4|9=0049|35=0|34=4|49=EXC|56=007|52=20190710-21:20:11.000|10=158|
8=FIX.4.4|9=110|35=A|34=1|49=007|50=007B26|52=20190709-21:27:34.086|56=EXC|43=Y|98=0|108=30|141=Y|553=007FCE001|554=007FCE001|10=094|
8=FIX.4.4|9=0067|35=A|34=1|49=EXC|56=007|52=20190710-21:33:33.061|98=0|108=30|141=Y|10=001|
8=FIX.4.4|9=0049|35=0|34=2|49=EXC|56=007|52=20190710-21:34:03.000|10=162|
8=FIX.4.4|9=59|35=0|34=2|49=007|50=007B26|52=20190709-21:28:04.942|56=EXC|10=066|
8=FIX.4.4|9=110|35=A|34=1|49=007|50=007B26|52=20190709-21:29:02.635|56=EXC|43=Y|98=0|108=30|141=Y|553=007FCE001|554=007FCE001|10=091|
8=FIX.4.4|9=0067|35=A|34=1|49=EXC|56=007|52=20190710-21:35:01.608|98=0|108=30|141=Y|10=005|
8=FIX.4.4|9=0049|35=0|34=2|49=EXC|56=007|52=20190710-21:35:31.000|10=164|
8=FIX.4.4|9=59|35=0|34=2|49=007|50=007B26|52=20190709-21:29:33.473|56=EXC|10=068|
8=FIX.4.4|9=0049|35=0|34=3|49=EXC|56=007|52=20190710-21:36:01.000|10=163|
8=FIX.4.4|9=59|35=0|34=3|49=007|50=007B26|52=20190709-21:30:03.472|56=EXC|10=057|
8=FIX.4.4|9=110|35=A|34=1|49=007|50=007B26|52=20190709-21:54:33.722|56=EXC|43=Y|98=0|108=30|141=Y|553=007FCE001|554=007FCE001|10=090|
8=FIX.4.4|9=0067|35=A|34=1|49=EXC|56=007|52=20190710-22:00:32.716|98=0|108=30|141=Y|10=002|
8=FIX.4.4|9=0049|35=0|34=2|49=EXC|56=007|52=20190710-22:01:02.000|10=156|
8=FIX.4.4|9=59|35=0|34=2|49=007|50=007B26|52=20190709-21:55:04.584|56=EXC|10=068|
8=FIX.4.4|9=0049|35=0|34=3|49=EXC|56=007|52=20190710-22:01:32.000|10=160|
8=FIX.4.4|9=59|35=0|34=3|49=007|50=007B26|52=20190709-21:55:34.584|56=EXC|10=072|
8=FIX.4.4|9=0049|35=0|34=4|49=EXC|56=007|52=20190710-22:02:02.000|10=159|
8=FIX.4.4|9=59|35=0|34=4|49=007|50=007B26|52=20190709-21:56:04.585|56=EXC|10=072|
8=FIX.4.4|9=110|35=A|34=1|49=007|50=007B26|52=20190709-22:10:34.944|56=EXC|43=Y|98=0|108=30|141=Y|553=007FCE001|554=007FCE001|10=090|
8=FIX.4.4|9=0067|35=A|34=1|49=EXC|56=007|52=20190710-22:16:33.943|98=0|108=30|141=Y|10=012|
8=FIX.4.4|9=0049|35=0|34=2|49=EXC|56=007|52=20190710-22:17:03.000|10=164|
8=FIX.4.4|9=59|35=0|34=2|49=007|50=007B26|52=20190709-22:11:05.807|56=EXC|10=060|
8=FIX.4.4|9=0049|35=0|34=3|49=EXC|56=007|52=20190710-22:17:33.000|10=168|
8=FIX.4.4|9=59|35=0|34=3|49=007|50=007B26|52=20190709-22:11:35.806|56=EXC|10=063|
8=FIX.4.4|9=110|35=A|34=1|49=007|50=007B26|52=20190709-22:16:13.131|56=EXC|43=Y|98=0|108=30|141=Y|553=007FCE001|554=007FCE001|10=081|
8=FIX.4.4|9=0067|35=A|34=1|49=EXC|56=007|52=20190710-22:22:12.125|98=0|108=30|141=Y|10=254|
8=FIX.4.4|9=0049|35=0|34=2|49=EXC|56=007|52=20190710-22:22:42.000|10=163|
8=FIX.4.4|9=59|35=0|34=2|49=007|50=007B26|52=20190709-22:16:43.930|56=EXC|10=064|
8=FIX.4.4|9=0049|35=0|34=3|49=EXC|56=007|52=20190710-22:23:12.000|10=162|
8=FIX.4.4|9=59|35=0|34=3|49=007|50=007B26|52=20190709-22:17:13.928|56=EXC|10=070|
8=FIX.4.4|9=0049|35=0|34=4|49=EXC|56=007|52=20190710-22:23:42.000|10=166|
8=FIX.4.4|9=59|35=0|34=4|49=007|50=007B26|52=20190709-22:17:43.928|56=EXC|10=074|
8=FIX.4.4|9=110|35=A|34=1|49=007|50=007B26|52=20190709-22:20:05.163|56=EXC|43=Y|98=0|108=30|141=Y|553=007FCE001|554=007FCE001|10=082|
8=FIX.4.4|9=0067|35=A|34=1|49=EXC|56=007|52=20190710-22:26:04.162|98=0|108=30|141=Y|10=004|
8=FIX.4.4|9=0049|35=0|34=2|49=EXC|56=007|52=20190710-22:26:34.000|10=168|
8=FIX.4.4|9=59|35=0|34=2|49=007|50=007B26|52=20190709-22:20:36.081|56=EXC|10=058|
8=FIX.4.4|9=0049|35=0|34=3|49=EXC|56=007|52=20190710-22:27:04.000|10=167|
8=FIX.4.4|9=59|35=0|34=3|49=007|50=007B26|52=20190709-22:21:06.078|56=EXC|10=063|
8=FIX.4.4|9=0049|35=0|34=4|49=EXC|56=007|52=20190710-22:27:34.000|10=171|
8=FIX.4.4|9=59|35=0|34=4|49=007|50=007B26|52=20190709-22:21:36.078|56=EXC|10=067|
