8=FIX.4.4|9=110|35=A|34=1|49=037|50=037B18|52=20190718-20:57:47.369|56=EXC|43=N|98=0|108=30|141=Y|553=037FCM001|554=037FCM001|10=122|
8=FIX.4.4|9=0067|35=A|34=1|49=EXC|56=037|52=20190718-20:57:47.419|98=0|108=30|141=Y|10=029|
8=FIX.4.4|9=0348|35=AE|34=2|49=EXC|56=037|57=037B18|52=20190718-20:57:54.519|571=2S1|487=0|856=14|17=4|829=99|573=0|15=COP|880=201907180000000002|75=20190718|55=T24U19F|762=AFIR|48=27227|22=M|31=1000.000|32=100|381=250000000000.000|60=20190718-20:57:54.519|64=20190718|552=1|54=2|453=3|448=037B18|447=C|452=12|448=037|447=C|452=1|448=037FCM001|447=C|452=36|1=RT001|10=176|
8=FIX.4.4|9=59|35=0|34=2|49=037|50=037B18|52=20190718-20:58:18.343|56=EXC|10=075|
8=FIX.4.4|9=0049|35=0|34=3|49=EXC|56=037|52=20190718-20:58:24.000|10=182|
8=FIX.4.4|9=59|35=0|34=3|49=037|50=037B18|52=20190718-20:58:48.343|56=EXC|10=079|
8=FIX.4.4|9=0049|35=0|34=4|49=EXC|56=037|52=20190718-20:58:54.000|10=186|
8=FIX.4.4|9=110|35=A|34=1|49=037|50=037B18|52=20190718-21:12:11.259|56=EXC|43=N|98=0|108=30|141=Y|553=037FCM001|554=037FCM001|10=103|
8=FIX.4.4|9=0067|35=A|34=1|49=EXC|56=037|52=20190718-21:12:11.326|98=0|108=30|141=Y|10=009|
8=FIX.4.4|9=0049|35=0|34=2|49=EXC|56=037|52=20190718-21:12:41.000|10=171|
8=FIX.4.4|9=59|35=0|34=2|49=037|50=037B18|52=20190718-21:12:42.234|56=EXC|10=062|
8=FIX.4.4|9=0049|35=0|34=3|49=EXC|56=037|52=20190718-21:13:11.000|10=170|
8=FIX.4.4|9=59|35=0|34=3|49=037|50=037B18|52=20190718-21:13:12.235|56=EXC|10=062|
8=FIX.4.4|9=0049|35=0|34=4|49=EXC|56=037|52=20190718-21:13:41.000|10=174|
8=FIX.4.4|9=59|35=0|34=4|49=037|50=037B18|52=20190718-21:13:42.234|56=EXC|10=065|
8=FIX.4.4|9=110|35=A|34=1|49=037|50=037B18|52=20190718-22:18:19.562|56=EXC|43=N|98=0|108=30|141=Y|553=037FCM001|554=037FCM001|10=115|
8=FIX.4.4|9=0067|35=A|34=1|49=EXC|56=037|52=20190718-14:42:18.626|98=0|108=30|141=Y|10=024|
8=FIX.4.4|9=0346|35=AE|34=2|49=EXC|56=037|57=037B18|52=20190718-14:42:25.731|571=1S1|487=0|856=14|17=2|829=99|573=0|15=COP|880=201907180000000001|75=20190718|55=T24U19F|762=AFIR|48=27227|22=M|31=120.000|32=100|381=30000000000.000|60=20190718-14:42:25.731|64=20190718|552=1|54=2|453=3|448=037B18|447=C|452=12|448=037|447=C|452=1|448=037FCM001|447=C|452=36|1=RT001|10=054|
8=FIX.4.4|9=59|35=0|34=2|49=037|50=037B18|52=20190718-22:18:49.555|56=EXC|10=082|
8=FIX.4.4|9=0049|35=0|34=3|49=EXC|56=037|52=20190718-14:42:55.000|10=182|
8=FIX.4.4|9=110|35=A|34=1|49=037|50=037B18|52=20190718-22:35:57.058|56=EXC|43=N|98=0|108=30|141=Y|553=037FCM001|554=037FCM001|10=116|
8=FIX.4.4|9=0067|35=A|34=1|49=EXC|56=037|52=20190718-14:59:56.128|98=0|108=30|141=Y|10=031|
8=FIX.4.4|9=0346|35=AE|34=2|49=EXC|56=037|57=037B18|52=20190718-15:00:03.231|571=2S1|487=0|856=14|17=4|829=99|573=0|15=COP|880=201907180000000002|75=20190718|55=T24U19F|762=AFIR|48=27227|22=M|31=120.000|32=100|381=30000000000.000|60=20190718-15:00:03.231|64=20190718|552=1|54=2|453=3|448=037B18|447=C|452=12|448=037|447=C|452=1|448=037FCM001|447=C|452=36|1=RT001|10=030|
8=FIX.4.4|9=59|35=0|34=2|49=037|50=037B18|52=20190718-22:36:27.051|56=EXC|10=069|
8=FIX.4.4|9=0049|35=0|34=3|49=EXC|56=037|52=20190718-15:00:33.000|10=173|
8=FIX.4.4|9=59|35=0|34=3|49=037|50=037B18|52=20190718-22:36:57.043|56=EXC|10=074|
8=FIX.4.4|9=110|35=A|34=1|49=037|50=037B18|52=20190718-22:44:50.409|56=EXC|43=N|98=0|108=30|141=Y|553=037FCM001|554=037FCM001|10=109|
8=FIX.4.4|9=0067|35=A|34=1|49=EXC|56=037|52=20190718-15:08:49.478|98=0|108=30|141=Y|10=036|
8=FIX.4.4|9=0346|35=AE|34=2|49=EXC|56=037|57=037B18|52=20190718-15:08:56.581|571=3S1|487=0|856=14|17=6|829=99|573=0|15=COP|880=201907180000000003|75=20190718|55=T24U19F|762=AFIR|48=27227|22=M|31=120.000|32=100|381=30000000000.000|60=20190718-15:08:56.581|64=20190718|552=1|54=2|453=3|448=037B18|447=C|452=12|448=037|447=C|452=1|448=037FCM001|447=C|452=36|1=RT001|10=082|
8=FIX.4.4|9=59|35=0|34=2|49=037|50=037B18|52=20190718-22:45:20.409|56=EXC|10=069|
8=FIX.4.4|9=0049|35=0|34=3|49=EXC|56=037|52=20190718-15:09:26.000|10=184|
8=FIX.4.4|9=110|35=A|34=1|49=037|50=037B18|52=20190718-22:46:55.023|56=EXC|43=N|98=0|108=30|141=Y|553=037FCM001|554=037FCM001|10=108|
8=FIX.4.4|9=0067|35=A|34=1|49=EXC|56=037|52=20190718-15:10:54.103|98=0|108=30|141=Y|10=010|
8=FIX.4.4|9=59|35=5|34=2|49=037|50=037B18|52=20190718-22:47:18.013|56=EXC|10=074|
8=FIX.4.4|9=0055|35=5|34=2|49=EXC|56=037|52=20190718-15:11:17.068|369=2|10=210|
8=FIX.4.4|9=110|35=A|34=1|49=037|50=037B18|52=20190718-22:49:25.568|56=EXC|43=N|98=0|108=30|141=Y|553=037FCM001|554=037FCM001|10=122|
8=FIX.4.4|9=0067|35=A|34=1|49=EXC|56=037|52=20190718-15:13:24.637|98=0|108=30|141=Y|10=022|
8=FIX.4.4|9=0346|35=AE|34=2|49=EXC|56=037|57=037B18|52=20190718-15:13:31.744|571=4S1|487=0|856=14|17=8|829=99|573=0|15=COP|880=201907180000000004|75=20190718|55=T24U19F|762=AFIR|48=27227|22=M|31=120.000|32=100|381=30000000000.000|60=20190718-15:13:31.744|64=20190718|552=1|54=2|453=3|448=037B18|447=C|452=12|448=037|447=C|452=1|448=037FCM001|447=C|452=36|1=RT001|10=066|
8=FIX.4.4|9=110|35=A|34=1|49=037|50=037B18|52=20190718-22:59:06.262|56=EXC|43=N|98=0|108=30|141=Y|553=037FCM001|554=037FCM001|10=113|
8=FIX.4.4|9=0067|35=A|34=1|49=EXC|56=037|52=20190718-15:23:05.340|98=0|108=30|141=Y|10=013|
8=FIX.4.4|9=0347|35=AE|34=2|49=EXC|56=037|57=037B18|52=20190718-15:23:12.429|571=5S1|487=0|856=14|17=10|829=99|573=0|15=COP|880=201907180000000005|75=20190718|55=T24U19F|762=AFIR|48=27227|22=M|31=120.000|32=100|381=30000000000.000|60=20190718-15:23:12.429|64=20190718|552=1|54=2|453=3|448=037B18|447=C|452=12|448=037|447=C|452=1|448=037FCM001|447=C|452=36|1=RT001|10=110|
8=FIX.4.4|9=188|35=AE|34=2|49=037|50=037B18|52=20190718-22:59:29.204|56=EXC|31=120|32=100|55=T24U19F|60=20190718-15:14:31.916|487=2|571=20190718175905_AE|762=AFIR|856=97|880=201907180000000005|552=1|54=2|10=192|
8=FIX.4.4|9=0347|35=AE|34=3|49=EXC|56=037|57=037B18|52=20190718-15:23:28.263|571=5S1|487=2|856=99|17=11|829=99|573=0|15=COP|880=201907180000000005|75=20190718|55=T24U19F|762=AFIR|48=27227|22=M|31=120.000|32=100|381=30000000000.000|60=20190718-15:23:28.263|64=20190718|552=1|54=2|453=3|448=037B18|447=C|452=12|448=037|447=C|452=1|448=037FCM001|447=C|452=36|1=RT001|10=133|
8=FIX.4.4|9=59|35=5|34=3|49=037|50=037B18|52=20190718-22:59:49.800|56=EXC|10=086|
8=FIX.4.4|9=0055|35=5|34=4|49=EXC|56=037|52=20190718-15:23:48.860|369=3|10=220|
8=FIX.4.4|9=110|35=A|34=1|49=037|50=037B18|52=20190718-23:14:21.237|56=EXC|43=N|98=0|108=30|141=Y|553=037FCM001|554=037FCM001|10=104|
8=FIX.4.4|9=0067|35=A|34=1|49=EXC|56=037|52=20190718-15:38:20.327|98=0|108=30|141=Y|10=021|
8=FIX.4.4|9=0347|35=AE|34=2|49=EXC|56=037|57=037B18|52=20190718-15:38:27.772|571=6S1|487=0|856=14|17=13|829=99|573=0|15=COP|880=201907180000000006|75=20190718|55=T24U19F|762=AFIR|48=27227|22=M|31=120.000|32=100|381=30000000000.000|60=20190718-15:38:27.772|64=20190718|552=1|54=2|453=3|448=037B18|447=C|452=12|448=037|447=C|452=1|448=037FCM001|447=C|452=36|1=RT001|10=141|
8=FIX.4.4|9=188|35=AE|34=2|49=037|50=037B18|52=20190718-23:14:44.659|56=EXC|31=120|32=100|55=T24U19F|60=20190718-15:30:00.186|487=2|571=20190718181418_AE|762=AFIR|856=97|880=201907180000000006|552=1|54=2|10=185|
8=FIX.4.4|9=0347|35=AE|34=3|49=EXC|56=037|57=037B18|52=20190718-15:38:43.706|571=6S1|487=2|856=99|17=14|829=99|573=0|15=COP|880=201907180000000006|75=20190718|55=T24U19F|762=AFIR|48=27227|22=M|31=120.000|32=100|381=30000000000.000|60=20190718-15:38:43.706|64=20190718|552=1|54=2|453=3|448=037B18|447=C|452=12|448=037|447=C|452=1|448=037FCM001|447=C|452=36|1=RT001|10=148|
8=FIX.4.4|9=0458|35=8|34=4|49=EXC|56=037|57=037B18|52=20190718-15:38:56.098|11=156349115856922|17=15|37=0|150=H|1080=20190718-000000000012.00|1081=6|453=5|448=037B18|447=C|452=12|448=037|447=C|452=1|448=029B17|447=C|452=37|448=029|447=C|452=17|448=037FCM001|447=C|452=36|55=T24U19F|762=AFIR|48=27227|22=M|6=120.000|14=100|31=120.000|32=100|38=100|39=2|54=2|60=20190718-15:38:56.098|75=20190718|63=1|64=20190718|151=0|1=RT001|381=30000000000.000|880=201907180000000006|828=99|10=149|
8=FIX.4.4|9=59|35=5|34=3|49=037|50=037B18|52=20190718-23:15:05.360|56=EXC|10=072|
8=FIX.4.4|9=0055|35=5|34=5|49=EXC|56=037|52=20190718-15:39:04.406|369=3|10=216|
8=FIX.4.4|9=110|35=A|34=1|49=037|50=037B18|52=20190718-23:25:09.353|56=EXC|43=N|98=0|108=30|141=Y|553=037FCM001|554=037FCM001|10=111|
8=FIX.4.4|9=0067|35=A|34=1|49=EXC|56=037|52=20190718-15:49:08.420|98=0|108=30|141=Y|10=023|
8=FIX.4.4|9=0347|35=AE|34=2|49=EXC|56=037|57=037B18|52=20190718-15:49:15.508|571=7S1|487=0|856=14|17=17|829=99|573=0|15=COP|880=201907180000000007|75=20190718|55=T24U19F|762=AFIR|48=27227|22=M|31=120.000|32=100|381=30000000000.000|60=20190718-15:49:15.508|64=20190718|552=1|54=2|453=3|448=037B18|447=C|452=12|448=037|447=C|452=1|448=037FCM001|447=C|452=36|1=RT001|10=139|
8=FIX.4.4|9=188|35=AE|34=2|49=037|50=037B18|52=20190718-23:25:32.302|56=EXC|31=120|32=100|55=T24U19F|60=20190718-15:44:19.446|487=2|571=20190718182508_AE|762=AFIR|856=97|880=201907180000000007|552=1|54=2|10=185|
8=FIX.4.4|9=0347|35=AE|34=3|49=EXC|56=037|57=037B18|52=20190718-15:49:31.343|571=7S1|487=2|856=99|17=18|829=99|573=0|15=COP|880=201907180000000007|75=20190718|55=T24U19F|762=AFIR|48=27227|22=M|31=120.000|32=100|381=30000000000.000|60=20190718-15:49:31.343|64=20190718|552=1|54=2|453=3|448=037B18|447=C|452=12|448=037|447=C|452=1|448=037FCM001|447=C|452=36|1=RT001|10=146|
8=FIX.4.4|9=0458|35=8|34=4|49=EXC|56=037|57=037B18|52=20190718-15:49:43.433|11=156349201833123|17=19|37=0|150=H|1080=20190718-000000000013.00|1081=6|453=5|448=037B18|447=C|452=12|448=037|447=C|452=1|448=029B17|447=C|452=37|448=029|447=C|452=17|448=037FCM001|447=C|452=36|55=T24U19F|762=AFIR|48=27227|22=M|6=120.000|14=100|31=120.000|32=100|38=100|39=2|54=2|60=20190718-15:49:43.433|75=20190718|63=1|64=20190718|151=0|1=RT001|381=30000000000.000|880=201907180000000007|828=99|10=121|
8=FIX.4.4|9=59|35=5|34=3|49=037|50=037B18|52=20190718-23:25:52.923|56=EXC|10=080|
8=FIX.4.4|9=0055|35=5|34=5|49=EXC|56=037|52=20190718-15:49:51.965|369=3|10=229|
8=FIX.4.4|9=110|35=A|34=1|49=037|50=037B18|52=20190719-15:27:44.296|56=EXC|43=N|98=0|108=30|141=Y|553=037FCM001|554=037FCM001|10=120|
8=FIX.4.4|9=0067|35=A|34=1|49=EXC|56=037|52=20190719-15:27:44.337|98=0|108=30|141=Y|10=027|
8=FIX.4.4|9=0346|35=AE|34=2|49=EXC|56=037|57=037B18|52=20190719-15:27:51.565|571=1S1|487=0|856=14|17=2|829=99|573=0|15=COP|880=201907190000000001|75=20190719|55=T24U19F|762=AFIR|48=27227|22=M|31=120.000|32=100|381=30000000000.000|60=20190719-15:27:51.565|64=20190719|552=1|54=2|453=3|448=037B18|447=C|452=12|448=037|447=C|452=1|448=037FCM001|447=C|452=36|1=RT001|10=075|
8=FIX.4.4|9=188|35=AE|34=2|49=037|50=037B18|52=20190719-15:28:10.008|56=EXC|31=120|32=100|55=T24U19F|60=20190719-15:18:37.156|487=2|571=20190719102743_AE|762=AFIR|856=97|880=201907190000000001|552=1|54=2|10=178|
8=FIX.4.4|9=0346|35=AE|34=3|49=EXC|56=037|57=037B18|52=20190719-15:28:10.031|571=1S1|487=2|856=99|17=3|829=99|573=0|15=COP|880=201907190000000001|75=20190719|55=T24U19F|762=AFIR|48=27227|22=M|31=120.000|32=100|381=30000000000.000|60=20190719-15:28:10.031|64=20190719|552=1|54=2|453=3|448=037B18|447=C|452=12|448=037|447=C|452=1|448=037FCM001|447=C|452=36|1=RT001|10=060|
8=FIX.4.4|9=59|35=5|34=3|49=037|50=037B18|52=20190719-15:28:10.528|56=EXC|10=080|
8=FIX.4.4|9=0055|35=5|34=4|49=EXC|56=037|52=20190719-15:28:10.560|369=3|10=212|
8=FIX.4.4|9=110|35=A|34=1|49=037|50=037B18|52=20190719-15:59:22.351|56=EXC|43=N|98=0|108=30|141=Y|553=037FCM001|554=037FCM001|10=113|
8=FIX.4.4|9=0067|35=A|34=1|49=EXC|56=037|52=20190719-15:59:22.398|98=0|108=30|141=Y|10=035|
8=FIX.4.4|9=0346|35=AE|34=2|49=EXC|56=037|57=037B18|52=20190719-15:59:29.603|571=2S1|487=0|856=14|17=5|829=99|573=0|15=COP|880=201907190000000002|75=20190719|55=T24U19F|762=AFIR|48=27227|22=M|31=120.000|32=100|381=30000000000.000|60=20190719-15:59:29.603|64=20190719|552=1|54=2|453=3|448=037B18|447=C|452=12|448=037|447=C|452=1|448=037FCM001|447=C|452=36|1=RT001|10=086|
8=FIX.4.4|9=59|35=0|34=2|49=037|50=037B18|52=20190719-15:59:53.353|56=EXC|10=081|
8=FIX.4.4|9=188|35=AE|34=3|49=037|50=037B18|52=20190719-15:59:55.093|56=EXC|31=120|32=100|55=T24U19F|60=20190719-15:56:26.984|487=2|571=20190719105922_AE|762=AFIR|856=97|880=201907190000000002|552=1|54=2|10=208|
8=FIX.4.4|9=0346|35=AE|34=3|49=EXC|56=037|57=037B18|52=20190719-15:59:55.115|571=2S1|487=2|856=99|17=6|829=99|573=0|15=COP|880=201907190000000002|75=20190719|55=T24U19F|762=AFIR|48=27227|22=M|31=120.000|32=100|381=30000000000.000|60=20190719-15:59:55.115|64=20190719|552=1|54=2|453=3|448=037B18|447=C|452=12|448=037|447=C|452=1|448=037FCM001|447=C|452=36|1=RT001|10=097|
8=FIX.4.4|9=59|35=5|34=4|49=037|50=037B18|52=20190719-15:59:55.530|56=EXC|10=087|
8=FIX.4.4|9=0055|35=5|34=4|49=EXC|56=037|52=20190719-15:59:55.560|369=4|10=226|
8=FIX.4.4|9=110|35=A|34=1|49=037|50=037B18|52=20190719-19:27:59.320|56=EXC|43=N|98=0|108=30|141=Y|553=037FCM001|554=037FCM001|10=118|
8=FIX.4.4|9=0067|35=A|34=1|49=EXC|56=037|52=20190719-19:27:59.371|98=0|108=30|141=Y|10=035|
8=FIX.4.4|9=0346|35=AE|34=2|49=EXC|56=037|57=037B18|52=20190719-19:28:06.500|571=1S1|487=0|856=14|17=2|829=99|573=0|15=COP|880=201907190000000001|75=20190719|55=T24U19F|762=AFIR|48=27227|22=M|31=120.000|32=100|381=30000000000.000|60=20190719-19:28:06.500|64=20190719|552=1|54=2|453=3|448=037B18|447=C|452=12|448=037|447=C|452=1|448=037FCM001|447=C|452=36|1=RT001|10=063|
8=FIX.4.4|9=59|35=0|34=2|49=037|50=037B18|52=20190719-19:28:30.228|56=EXC|10=077|
8=FIX.4.4|9=188|35=AE|34=3|49=037|50=037B18|52=20190719-19:28:32.015|56=EXC|31=120|32=100|55=T24U19F|60=20190719-18:53:31.712|487=2|571=20190719142758_AE|762=AFIR|856=97|880=201907190000000001|552=1|54=2|10=189|
8=FIX.4.4|9=0346|35=AE|34=3|49=EXC|56=037|57=037B18|52=20190719-19:28:32.041|571=1S1|487=2|856=99|17=3|829=99|573=0|15=COP|880=201907190000000001|75=20190719|55=T24U19F|762=AFIR|48=27227|22=M|31=120.000|32=100|381=30000000000.000|60=20190719-19:28:32.041|64=20190719|552=1|54=2|453=3|448=037B18|447=C|452=12|448=037|447=C|452=1|448=037FCM001|447=C|452=36|1=RT001|10=078|
8=FIX.4.4|9=59|35=5|34=4|49=037|50=037B18|52=20190719-19:28:32.491|56=EXC|10=088|
8=FIX.4.4|9=0055|35=5|34=4|49=EXC|56=037|52=20190719-19:28:32.545|369=4|10=224|
8=FIX.4.4|9=110|35=A|34=1|49=037|50=037B18|52=20190719-19:30:25.121|56=EXC|43=N|98=0|108=30|141=Y|553=037FCM001|554=037FCM001|10=104|
8=FIX.4.4|9=0067|35=A|34=1|49=EXC|56=037|52=20190719-19:30:25.159|98=0|108=30|141=Y|10=026|
8=FIX.4.4|9=59|35=5|34=2|49=037|50=037B18|52=20190719-19:30:53.110|56=EXC|10=070|
8=FIX.4.4|9=0055|35=5|34=2|49=EXC|56=037|52=20190719-19:30:53.136|369=2|10=212|
8=FIX.4.4|9=110|35=A|34=1|49=037|50=037B18|52=20190719-20:12:25.041|56=EXC|43=N|98=0|108=30|141=Y|553=037FCM001|554=037FCM001|10=097|
8=FIX.4.4|9=0067|35=A|34=1|49=EXC|56=037|52=20190719-20:12:25.084|98=0|108=30|141=Y|10=015|
8=FIX.4.4|9=0346|35=AE|34=2|49=EXC|56=037|57=037B18|52=20190719-20:12:32.204|571=2S1|487=0|856=14|17=6|829=99|573=0|15=COP|880=201907190000000002|75=20190719|55=T24U19F|762=AFIR|48=27227|22=M|31=120.000|32=100|381=30000000000.000|60=20190719-20:12:32.204|64=20190719|552=1|54=2|453=3|448=037B18|447=C|452=12|448=037|447=C|452=1|448=037FCM001|447=C|452=36|1=RT001|10=039|
8=FIX.4.4|9=59|35=0|34=2|49=037|50=037B18|52=20190719-20:12:56.018|56=EXC|10=067|
8=FIX.4.4|9=188|35=AE|34=3|49=037|50=037B18|52=20190719-20:12:57.707|56=EXC|31=120|32=100|55=T24U19F|60=20190719-20:08:32.537|487=2|571=20190719151225_AE|762=AFIR|856=97|880=201907190000000002|552=1|54=2|10=178|
8=FIX.4.4|9=0346|35=AE|34=3|49=EXC|56=037|57=037B18|52=20190719-20:12:57.737|571=2S1|487=2|856=99|17=7|829=99|573=0|15=COP|880=201907190000000002|75=20190719|55=T24U19F|762=AFIR|48=27227|22=M|31=120.000|32=100|381=30000000000.000|60=20190719-20:12:57.737|64=20190719|552=1|54=2|453=3|448=037B18|447=C|452=12|448=037|447=C|452=1|448=037FCM001|447=C|452=36|1=RT001|10=092|
8=FIX.4.4|9=59|35=5|34=4|49=037|50=037B18|52=20190719-20:12:58.164|56=EXC|10=078|
8=FIX.4.4|9=0055|35=5|34=4|49=EXC|56=037|52=20190719-20:12:58.195|369=4|10=218|
8=FIX.4.4|9=110|35=A|34=1|49=037|50=037B18|52=20190719-20:34:37.725|56=EXC|43=N|98=0|108=30|141=Y|553=037FCM001|554=037FCM001|10=113|
8=FIX.4.4|9=0067|35=A|34=1|49=EXC|56=037|52=20190719-20:34:37.771|98=0|108=30|141=Y|10=025|
8=FIX.4.4|9=0346|35=AE|34=2|49=EXC|56=037|57=037B18|52=20190719-20:34:44.872|571=3S1|487=0|856=14|17=8|829=99|573=0|15=COP|880=201907190000000003|75=20190719|55=T24U19F|762=AFIR|48=27227|22=M|31=120.000|32=100|381=30000000000.000|60=20190719-20:34:44.872|64=20190719|552=1|54=2|453=3|448=037B18|447=C|452=12|448=037|447=C|452=1|448=037FCM001|447=C|452=36|1=RT001|10=079|
8=FIX.4.4|9=188|35=AE|34=2|49=037|50=037B18|52=20190719-20:35:06.463|56=EXC|31=120|32=100|55=T24U19F|60=20190719-20:11:53.899|487=2|571=20190719153438_AE|762=AFIR|856=97|880=201907190000000003|552=1|54=2|10=192|
8=FIX.4.4|9=0346|35=AE|34=3|49=EXC|56=037|57=037B18|52=20190719-20:35:06.497|571=3S1|487=2|856=99|17=9|829=99|573=0|15=COP|880=201907190000000003|75=20190719|55=T24U19F|762=AFIR|48=27227|22=M|31=120.000|32=100|381=30000000000.000|60=20190719-20:35:06.497|64=20190719|552=1|54=2|453=3|448=037B18|447=C|452=12|448=037|447=C|452=1|448=037FCM001|447=C|452=36|1=RT001|10=100|
8=FIX.4.4|9=59|35=5|34=3|49=037|50=037B18|52=20190719-20:35:06.897|56=EXC|10=088|
8=FIX.4.4|9=0055|35=5|34=4|49=EXC|56=037|52=20190719-20:35:06.930|369=3|10=212|
8=FIX.4.4|9=110|35=A|34=1|49=037|50=037B18|52=20190719-21:55:57.688|56=EXC|43=N|98=0|108=30|141=Y|553=037FCM001|554=037FCM001|10=127|
8=FIX.4.4|9=0067|35=A|34=1|49=EXC|56=037|52=20190719-21:56:32.977|98=0|108=30|141=Y|10=033|
8=FIX.4.4|9=0049|35=0|34=2|49=EXC|56=037|52=20190719-21:57:02.000|10=178|
8=FIX.4.4|9=59|35=0|34=2|49=037|50=037B18|52=20190719-21:56:28.663|56=EXC|10=081|
8=FIX.4.4|9=59|35=5|34=3|49=037|50=037B18|52=20190719-21:56:42.664|56=EXC|10=084|
8=FIX.4.4|9=0055|35=5|34=3|49=EXC|56=037|52=20190719-21:57:17.920|369=3|10=217|
8=FIX.4.4|9=110|35=A|34=1|49=037|50=037B18|52=20190719-21:58:29.678|56=EXC|43=N|98=0|108=30|141=Y|553=037FCM001|554=037FCM001|10=128|
8=FIX.4.4|9=0067|35=A|34=1|49=EXC|56=037|52=20190719-21:59:04.960|98=0|108=30|141=Y|10=027|
8=FIX.4.4|9=0049|35=0|34=2|49=EXC|56=037|52=20190719-21:59:34.000|10=185|
8=FIX.4.4|9=59|35=0|34=2|49=037|50=037B18|52=20190719-21:59:00.604|56=EXC|10=069|
8=FIX.4.4|9=0049|35=0|34=3|49=EXC|56=037|52=20190719-22:00:04.000|10=170|
8=FIX.4.4|9=59|35=0|34=3|49=037|50=037B18|52=20190719-21:59:30.599|56=EXC|10=086|
8=FIX.4.4|9=59|35=5|34=4|49=037|50=037B18|52=20190719-21:59:32.605|56=EXC|10=082|
8=FIX.4.4|9=0055|35=5|34=4|49=EXC|56=037|52=20190719-22:00:07.861|369=4|10=211|
8=FIX.4.4|9=110|35=A|34=1|49=037|50=037B18|52=20190719-22:16:41.342|56=EXC|43=N|98=0|108=30|141=Y|553=037FCM001|554=037FCM001|10=105|
8=FIX.4.4|9=0067|35=A|34=1|49=EXC|56=037|52=20190719-14:10:24.638|98=0|108=30|141=Y|10=020|
8=FIX.4.4|9=0346|35=AE|34=2|49=EXC|56=037|57=037B18|52=20190719-14:10:31.813|571=2S1|487=0|856=14|17=3|829=99|573=0|15=COP|880=201907190000000002|75=20190719|55=T24U19F|762=AFIR|48=27227|22=M|31=120.000|32=100|381=30000000000.000|60=20190719-14:10:31.813|64=20190719|552=1|54=2|453=3|448=037B18|447=C|452=12|448=037|447=C|452=1|448=037FCM001|447=C|452=36|1=RT001|10=048|
8=FIX.4.4|9=188|35=AE|34=2|49=037|50=037B18|52=20190719-22:17:10.267|56=EXC|31=120|32=100|55=T24U19F|60=20190719-14:08:11.798|487=2|571=20190719171641_AE|762=AFIR|856=97|880=201907190000000002|552=1|54=2|10=187|
8=FIX.4.4|9=0346|35=AE|34=3|49=EXC|56=037|57=037B18|52=20190719-14:10:53.541|571=2S1|487=2|856=99|17=4|829=99|573=0|15=COP|880=201907190000000002|75=20190719|55=T24U19F|762=AFIR|48=27227|22=M|31=120.000|32=100|381=30000000000.000|60=20190719-14:10:53.541|64=20190719|552=1|54=2|453=3|448=037B18|447=C|452=12|448=037|447=C|452=1|448=037FCM001|447=C|452=36|1=RT001|10=069|
8=FIX.4.4|9=59|35=5|34=3|49=037|50=037B18|52=20190719-22:17:10.689|56=EXC|10=084|
8=FIX.4.4|9=0055|35=5|34=4|49=EXC|56=037|52=20190719-14:10:53.953|369=3|10=215|
8=FIX.4.4|9=110|35=A|34=1|49=037|50=037B18|52=20190722-14:09:22.493|56=EXC|43=N|98=0|108=30|141=Y|553=037FCM001|554=037FCM001|10=108|
8=FIX.4.4|9=0067|35=A|34=1|49=EXC|56=037|52=20190722-15:15:56.675|98=0|108=30|141=Y|10=026|
8=FIX.4.4|9=59|35=5|34=2|49=037|50=037B18|52=20190722-14:09:48.355|56=EXC|10=080|
8=FIX.4.4|9=0055|35=5|34=2|49=EXC|56=037|52=20190722-15:16:22.507|369=2|10=204|
8=FIX.4.4|9=110|35=A|34=1|49=037|50=037B18|52=20190722-14:25:51.227|56=EXC|43=N|98=0|108=30|141=Y|553=037FCM001|554=037FCM001|10=103|
8=FIX.4.4|9=0067|35=A|34=1|49=EXC|56=037|52=20190722-15:32:25.423|98=0|108=30|141=Y|10=012|
8=FIX.4.4|9=59|35=5|34=2|49=037|50=037B18|52=20190722-14:26:16.866|56=EXC|10=081|
8=FIX.4.4|9=0055|35=5|34=2|49=EXC|56=037|52=20190722-15:32:51.040|369=2|10=196|
8=FIX.4.4|9=110|35=A|34=1|49=037|50=037B18|52=20190722-14:42:54.696|56=EXC|43=N|98=0|108=30|141=Y|553=037FCM001|554=037FCM001|10=115|
8=FIX.4.4|9=0067|35=A|34=1|49=EXC|56=037|52=20190722-15:49:28.897|98=0|108=30|141=Y|10=038|
8=FIX.4.4|9=0346|35=AE|34=2|49=EXC|56=037|57=037B18|52=20190722-15:49:36.015|571=5S1|487=0|856=14|17=9|829=99|573=0|15=COP|880=201907220000000005|75=20190722|55=T24U19F|762=AFIR|48=27227|22=M|31=120.000|32=100|381=30000000000.000|60=20190722-15:49:36.015|64=20190722|552=1|54=2|453=3|448=037B18|447=C|452=12|448=037|447=C|452=1|448=037FCM001|447=C|452=36|1=RT001|10=054|
8=FIX.4.4|9=187|35=AE|34=2|49=037|50=037B18|52=20190722-14:43:23.652|56=EXC|31=120|32=100|55=T24U19F|60=20190722-15:46:24.377|487=2|571=2019072294254_AE|762=AFIR|856=97|880=201907220000000005|552=1|54=2|10=123|
8=FIX.4.4|9=0347|35=AE|34=3|49=EXC|56=037|57=037B18|52=20190722-15:49:57.829|571=5S1|487=2|856=99|17=10|829=99|573=0|15=COP|880=201907220000000005|75=20190722|55=T24U19F|762=AFIR|48=27227|22=M|31=120.000|32=100|381=30000000000.000|60=20190722-15:49:57.829|64=20190722|552=1|54=2|453=3|448=037B18|447=C|452=12|448=037|447=C|452=1|448=037FCM001|447=C|452=36|1=RT001|10=143|
8=FIX.4.4|9=59|35=5|34=3|49=037|50=037B18|52=20190722-14:43:24.074|56=EXC|10=071|
8=FIX.4.4|9=0055|35=5|34=4|49=EXC|56=037|52=20190722-15:49:58.246|369=3|10=222|
8=FIX.4.4|9=110|35=A|34=1|49=037|50=037B18|52=20190722-15:03:34.003|56=EXC|43=N|98=0|108=30|141=Y|553=037FCM001|554=037FCM001|10=093|
8=FIX.4.4|9=0067|35=A|34=1|49=EXC|56=037|52=20190722-16:10:08.327|98=0|108=30|141=Y|10=013|
8=FIX.4.4|9=59|35=5|34=2|49=037|50=037B18|52=20190722-15:03:41.930|56=EXC|10=067|
8=FIX.4.4|9=0055|35=5|34=2|49=EXC|56=037|52=20190722-16:10:16.114|369=2|10=196|
8=FIX.4.4|9=110|35=A|34=1|49=037|50=037B18|52=20190722-15:04:27.359|56=EXC|43=N|98=0|108=30|141=Y|553=037FCM001|554=037FCM001|10=110|
8=FIX.4.4|9=0067|35=A|34=1|49=EXC|56=037|52=20190722-16:11:01.564|98=0|108=30|141=Y|10=010|
8=FIX.4.4|9=59|35=5|34=2|49=037|50=037B18|52=20190722-15:04:35.128|56=EXC|10=070|
8=FIX.4.4|9=0055|35=5|34=2|49=EXC|56=037|52=20190722-16:11:09.312|369=2|10=199|
8=FIX.4.4|9=110|35=A|34=1|49=037|50=037B18|52=20190722-15:06:51.856|56=EXC|43=N|98=0|108=30|141=Y|553=037FCM001|554=037FCM001|10=111|
8=FIX.4.4|9=0067|35=A|34=1|49=EXC|56=037|52=20190722-16:13:26.085|98=0|108=30|141=Y|10=017|
8=FIX.4.4|9=0347|35=AE|34=2|49=EXC|56=037|57=037B18|52=20190722-16:13:33.242|571=6S1|487=0|856=14|17=12|829=99|573=0|15=COP|880=201907220000000006|75=20190722|55=T24U19F|762=AFIR|48=27227|22=M|31=120.000|32=100|381=30000000000.000|60=20190722-16:13:33.242|64=20190722|552=1|54=2|453=3|448=037B18|447=C|452=12|448=037|447=C|452=1|448=037FCM001|447=C|452=36|1=RT001|10=081|
8=FIX.4.4|9=188|35=AE|34=2|49=037|50=037B18|52=20190722-15:07:20.898|56=EXC|31=120|32=100|55=T24U19F|60=20190722-16:07:58.749|487=2|571=20190722100651_AE|762=AFIR|856=97|880=201907220000000006|552=1|54=2|10=180|
8=FIX.4.4|9=0347|35=AE|34=3|49=EXC|56=037|57=037B18|52=20190722-16:13:55.095|571=6S1|487=2|856=99|17=13|829=99|573=0|15=COP|880=201907220000000006|75=20190722|55=T24U19F|762=AFIR|48=27227|22=M|31=120.000|32=100|381=30000000000.000|60=20190722-16:13:55.095|64=20190722|552=1|54=2|453=3|448=037B18|447=C|452=12|448=037|447=C|452=1|448=037FCM001|447=C|452=36|1=RT001|10=118|
8=FIX.4.4|9=59|35=5|34=3|49=037|50=037B18|52=20190722-15:07:21.338|56=EXC|10=072|
8=FIX.4.4|9=0055|35=5|34=4|49=EXC|56=037|52=20190722-16:13:55.536|369=3|10=213|
8=FIX.4.4|9=110|35=A|34=1|49=037|50=037B18|52=20190722-15:26:05.052|56=EXC|43=N|98=0|108=30|141=Y|553=037FCM001|554=037FCM001|10=100|
8=FIX.4.4|9=0067|35=A|34=1|49=EXC|56=037|52=20190722-16:32:39.281|98=0|108=30|141=Y|10=020|
8=FIX.4.4|9=0347|35=AE|34=2|49=EXC|56=037|57=037B18|52=20190722-16:32:46.253|571=7S1|487=0|856=14|17=15|829=99|573=0|15=COP|880=201907220000000007|75=20190722|55=T24U19F|762=AFIR|48=27227|22=M|31=120.000|32=100|381=30000000000.000|60=20190722-16:32:46.253|64=20190722|552=1|54=2|453=3|448=037B18|447=C|452=12|448=037|447=C|452=1|448=037FCM001|447=C|452=36|1=RT001|10=100|
8=FIX.4.4|9=188|35=AE|34=2|49=037|50=037B18|52=20190722-15:26:33.650|56=EXC|31=120|32=100|55=T24U19F|60=20190722-16:29:02.920|487=2|571=20190722102604_AE|762=AFIR|856=97|880=201907220000000007|552=1|54=2|10=156|
8=FIX.4.4|9=0347|35=AE|34=3|49=EXC|56=037|57=037B18|52=20190722-16:33:07.850|571=7S1|487=2|856=99|17=16|829=99|573=0|15=COP|880=201907220000000007|75=20190722|55=T24U19F|762=AFIR|48=27227|22=M|31=120.000|32=100|381=30000000000.000|60=20190722-16:33:07.850|64=20190722|552=1|54=2|453=3|448=037B18|447=C|452=12|448=037|447=C|452=1|448=037FCM001|447=C|452=36|1=RT001|10=119|
8=FIX.4.4|9=59|35=5|34=3|49=037|50=037B18|52=20190722-15:26:34.215|56=EXC|10=071|
8=FIX.4.4|9=0055|35=5|34=4|49=EXC|56=037|52=20190722-16:33:08.428|369=3|10=213|
8=FIX.4.4|9=110|35=A|34=1|49=037|50=037B18|52=20190722-21:29:46.627|56=EXC|43=N|98=0|108=30|141=Y|553=037FCM001|554=037FCM001|10=113|
8=FIX.4.4|9=0067|35=A|34=1|49=EXC|56=037|52=20190722-21:30:25.156|98=0|108=30|141=Y|10=010|
8=FIX.4.4|9=0049|35=0|34=2|49=EXC|56=037|52=20190722-21:30:55.000|10=171|
8=FIX.4.4|9=59|35=0|34=2|49=037|50=037B18|52=20190722-21:30:17.417|56=EXC|10=062|
8=FIX.4.4|9=110|35=A|34=1|49=037|50=037B18|52=20190722-21:45:09.047|56=EXC|43=N|98=0|108=30|141=Y|553=037FCM001|554=037FCM001|10=106|
8=FIX.4.4|9=0067|35=A|34=1|49=EXC|56=037|52=20190722-21:45:47.556|98=0|108=30|141=Y|10=024|
8=FIX.4.4|9=59|35=5|34=2|49=037|50=037B18|52=20190722-21:45:37.901|56=EXC|10=073|
8=FIX.4.4|9=0055|35=5|34=2|49=EXC|56=037|52=20190722-21:46:16.402|369=2|10=201|
8=FIX.4.4|9=110|35=A|34=1|49=037|50=037B18|52=20190722-22:05:04.928|56=EXC|43=N|98=0|108=30|141=Y|553=037FCM001|554=037FCM001|10=106|
8=FIX.4.4|9=0067|35=A|34=1|49=EXC|56=037|52=20190722-14:39:00.490|98=0|108=30|141=Y|10=015|
8=FIX.4.4|9=0346|35=AE|34=2|49=EXC|56=037|57=037B18|52=20190722-14:39:12.770|571=2S1|487=0|856=14|17=6|829=99|573=0|15=COP|880=201907220000000002|75=20190722|55=T24U19F|762=AFIR|48=27227|22=M|31=120.000|32=100|381=30000000000.000|60=20190722-14:39:12.770|64=20190722|552=1|54=2|453=3|448=037B18|447=C|452=12|448=037|447=C|452=1|448=037FCM001|447=C|452=36|1=RT001|10=045|
8=FIX.4.4|9=59|35=0|34=2|49=037|50=037B18|52=20190722-22:05:35.835|56=EXC|10=069|
8=FIX.4.4|9=188|35=AE|34=3|49=037|50=037B18|52=20190722-22:05:44.394|56=EXC|31=120|32=100|55=T24U19F|60=20190722-14:37:29.434|487=2|571=20190722170503_AE|762=AFIR|856=97|880=201907220000000002|552=1|54=2|10=163|
8=FIX.4.4|9=0346|35=AE|34=3|49=EXC|56=037|57=037B18|52=20190722-14:39:39.912|571=2S1|487=2|856=99|17=7|829=99|573=0|15=COP|880=201907220000000002|75=20190722|55=T24U19F|762=AFIR|48=27227|22=M|31=120.000|32=100|381=30000000000.000|60=20190722-14:39:39.912|64=20190722|552=1|54=2|453=3|448=037B18|447=C|452=12|448=037|447=C|452=1|448=037FCM001|447=C|452=36|1=RT001|10=076|
8=FIX.4.4|9=0049|35=0|34=4|49=EXC|56=037|52=20190722-14:40:09.000|10=175|
8=FIX.4.4|9=59|35=0|34=4|49=037|50=037B18|52=20190722-22:06:14.839|56=EXC|10=073|
