8=FIX.4.4|9=110|35=A|34=1|49=051|50=051B17|52=20190723-14:41:06.114|56=EXC|43=N|98=0|108=30|141=Y|553=051FCM001|554=051FCM001|10=080|
8=FIX.4.4|9=0067|35=A|34=1|49=EXC|56=051|52=20190723-14:41:06.172|98=0|108=30|141=Y|10=008|
8=FIX.4.4|9=0049|35=0|34=2|49=EXC|56=051|52=20190723-14:41:36.000|10=171|
8=FIX.4.4|9=59|35=0|34=2|49=051|50=051B17|52=20190723-14:41:37.105|56=EXC|10=054|
8=FIX.4.4|9=0049|35=0|34=3|49=EXC|56=051|52=20190723-14:42:06.000|10=170|
8=FIX.4.4|9=59|35=0|34=3|49=051|50=051B17|52=20190723-14:42:07.105|56=EXC|10=053|
8=FIX.4.4|9=0049|35=0|34=4|49=EXC|56=051|52=20190723-14:42:36.000|10=174|
8=FIX.4.4|9=59|35=0|34=4|49=051|50=051B17|52=20190723-14:42:37.104|56=EXC|10=056|
8=FIX.4.4|9=110|35=A|34=1|49=051|50=051B17|52=20190723-15:21:29.935|56=EXC|43=N|98=0|108=30|141=Y|553=051FCM001|554=051FCM001|10=095|
8=FIX.4.4|9=0067|35=A|34=1|49=EXC|56=051|52=20190723-15:21:29.995|98=0|108=30|141=Y|10=025|
8=FIX.4.4|9=0049|35=0|34=2|49=EXC|56=051|52=20190723-15:21:59.000|10=175|
8=FIX.4.4|9=59|35=0|34=2|49=051|50=051B17|52=20190723-15:22:00.894|56=EXC|10=059|
8=FIX.4.4|9=0049|35=0|34=3|49=EXC|56=051|52=20190723-15:22:29.000|10=174|
8=FIX.4.4|9=59|35=0|34=3|49=051|50=051B17|52=20190723-15:22:30.896|56=EXC|10=065|
8=FIX.4.4|9=110|35=A|34=1|49=051|50=051B17|52=20190723-15:30:28.697|56=EXC|43=N|98=0|108=30|141=Y|553=051FCM001|554=051FCM001|10=099|
8=FIX.4.4|9=0067|35=A|34=1|49=EXC|56=051|52=20190723-15:30:28.756|98=0|108=30|141=Y|10=019|
8=FIX.4.4|9=0049|35=0|34=2|49=EXC|56=051|52=20190723-15:30:58.000|10=174|
8=FIX.4.4|9=59|35=0|34=2|49=051|50=051B17|52=20190723-15:30:59.660|56=EXC|10=063|
8=FIX.4.4|9=0049|35=0|34=3|49=EXC|56=051|52=20190723-15:31:28.000|10=173|
8=FIX.4.4|9=59|35=0|34=3|49=051|50=051B17|52=20190723-15:31:29.666|56=EXC|10=068|
8=FIX.4.4|9=0049|35=0|34=4|49=EXC|56=051|52=20190723-15:31:58.000|10=177|
8=FIX.4.4|9=59|35=0|34=4|49=051|50=051B17|52=20190723-15:31:59.658|56=EXC|10=073|
8=FIX.4.4|9=0049|35=0|34=5|49=EXC|56=051|52=20190723-15:32:28.000|10=176|
8=FIX.4.4|9=59|35=0|34=5|49=051|50=051B17|52=20190723-15:32:29.659|56=EXC|10=073|
8=FIX.4.4|9=0049|35=0|34=6|49=EXC|56=051|52=20190723-15:32:58.000|10=180|
8=FIX.4.4|9=59|35=0|34=6|49=051|50=051B17|52=20190723-15:32:59.659|56=EXC|10=077|
8=FIX.4.4|9=110|35=A|34=1|49=051|50=051B17|52=20190723-15:51:18.659|56=EXC|43=N|98=0|108=30|141=Y|553=051FCM001|554=051FCM001|10=099|
8=FIX.4.4|9=0067|35=A|34=1|49=EXC|56=051|52=20190723-15:51:18.719|98=0|108=30|141=Y|10=020|
8=FIX.4.4|9=0049|35=0|34=2|49=EXC|56=051|52=20190723-15:51:48.000|10=176|
8=FIX.4.4|9=59|35=0|34=2|49=051|50=051B17|52=20190723-15:51:49.614|56=EXC|10=064|
8=FIX.4.4|9=0049|35=0|34=3|49=EXC|56=051|52=20190723-15:52:18.000|10=175|
8=FIX.4.4|9=59|35=0|34=3|49=051|50=051B17|52=20190723-15:52:19.629|56=EXC|10=069|
8=FIX.4.4|9=0049|35=0|34=4|49=EXC|56=051|52=20190723-15:52:48.000|10=179|
8=FIX.4.4|9=59|35=0|34=4|49=051|50=051B17|52=20190723-15:52:49.627|56=EXC|10=071|
8=FIX.4.4|9=110|35=A|34=1|49=051|50=051B17|52=20190723-16:20:47.964|56=EXC|43=N|98=0|108=30|141=Y|553=051FCM001|554=051FCM001|10=097|
8=FIX.4.4|9=0067|35=A|34=1|49=EXC|56=051|52=20190723-16:20:48.035|98=0|108=30|141=Y|10=011|
8=FIX.4.4|9=0049|35=0|34=2|49=EXC|56=051|52=20190723-16:21:18.000|10=171|
8=FIX.4.4|9=59|35=0|34=2|49=051|50=051B17|52=20190723-16:21:17.962|56=EXC|10=063|
8=FIX.4.4|9=0049|35=0|34=3|49=EXC|56=051|52=20190723-16:21:48.000|10=175|
8=FIX.4.4|9=59|35=0|34=3|49=051|50=051B17|52=20190723-16:21:47.959|56=EXC|10=073|
8=FIX.4.4|9=0049|35=0|34=4|49=EXC|56=051|52=20190723-16:22:18.000|10=174|
8=FIX.4.4|9=59|35=0|34=4|49=051|50=051B17|52=20190723-16:22:17.960|56=EXC|10=064|
8=FIX.4.4|9=0049|35=0|34=5|49=EXC|56=051|52=20190723-16:22:48.000|10=178|
8=FIX.4.4|9=59|35=0|34=5|49=051|50=051B17|52=20190723-16:22:47.958|56=EXC|10=075|
8=FIX.4.4|9=110|35=A|34=1|49=051|50=051B17|52=20190723-16:47:43.127|56=EXC|43=N|98=0|108=30|141=Y|553=051FCM001|554=051FCM001|10=093|
8=FIX.4.4|9=0067|35=A|34=1|49=EXC|56=051|52=20190723-16:47:43.194|98=0|108=30|141=Y|10=021|
8=FIX.4.4|9=0049|35=0|34=2|49=EXC|56=051|52=20190723-16:48:13.000|10=175|
8=FIX.4.4|9=59|35=0|34=2|49=051|50=051B17|52=20190723-16:48:14.070|56=EXC|10=059|
8=FIX.4.4|9=0049|35=0|34=3|49=EXC|56=051|52=20190723-16:48:43.000|10=179|
8=FIX.4.4|9=59|35=0|34=3|49=051|50=051B17|52=20190723-16:48:44.083|56=EXC|10=067|
8=FIX.4.4|9=0049|35=0|34=4|49=EXC|56=051|52=20190723-16:49:13.000|10=178|
8=FIX.4.4|9=59|35=0|34=4|49=051|50=051B17|52=20190723-16:49:14.086|56=EXC|10=069|
8=FIX.4.4|9=0049|35=0|34=5|49=EXC|56=051|52=20190723-16:49:43.000|10=182|
8=FIX.4.4|9=59|35=0|34=5|49=051|50=051B17|52=20190723-16:49:45.073|56=EXC|10=070|
8=FIX.4.4|9=0049|35=0|34=6|49=EXC|56=051|52=20190723-16:50:13.000|10=172|
8=FIX.4.4|9=59|35=0|34=6|49=051|50=051B17|52=20190723-16:50:15.084|56=EXC|10=062|
8=FIX.4.4|9=0049|35=0|34=7|49=EXC|56=051|52=20190723-16:50:43.000|10=176|
8=FIX.4.4|9=59|35=0|34=7|49=051|50=051B17|52=20190723-16:50:45.116|56=EXC|10=062|
8=FIX.4.4|9=0049|35=0|34=8|49=EXC|56=051|52=20190723-16:51:13.000|10=175|
8=FIX.4.4|9=59|35=0|34=8|49=051|50=051B17|52=20190723-16:51:16.086|56=EXC|10=068|
8=FIX.4.4|9=0049|35=0|34=9|49=EXC|56=051|52=20190723-16:51:43.000|10=179|
8=FIX.4.4|9=59|35=0|34=9|49=051|50=051B17|52=20190723-16:51:46.086|56=EXC|10=072|
8=FIX.4.4|9=0050|35=0|34=10|49=EXC|56=051|52=20190723-16:52:13.000|10=209|
8=FIX.4.4|9=60|35=0|34=10|49=051|50=051B17|52=20190723-16:52:16.085|56=EXC|10=101|
8=FIX.4.4|9=0050|35=0|34=11|49=EXC|56=051|52=20190723-16:52:43.000|10=213|
8=FIX.4.4|9=60|35=0|34=11|49=051|50=051B17|52=20190723-16:52:46.082|56=EXC|10=102|
8=FIX.4.4|9=0050|35=0|34=12|49=EXC|56=051|52=20190723-16:53:13.000|10=212|
8=FIX.4.4|9=60|35=0|34=12|49=051|50=051B17|52=20190723-16:53:16.073|56=EXC|10=101|
8=FIX.4.4|9=0050|35=0|34=13|49=EXC|56=051|52=20190723-16:53:43.000|10=216|
8=FIX.4.4|9=60|35=0|34=13|49=051|50=051B17|52=20190723-16:53:46.080|56=EXC|10=103|
8=FIX.4.4|9=0050|35=0|34=14|49=EXC|56=051|52=20190723-16:54:13.000|10=215|
8=FIX.4.4|9=60|35=0|34=14|49=051|50=051B17|52=20190723-16:54:16.086|56=EXC|10=108|
8=FIX.4.4|9=110|35=A|34=1|49=051|50=051B17|52=20190723-19:42:33.177|56=EXC|43=N|98=0|108=30|141=Y|553=051FCM001|554=051FCM001|10=095|
8=FIX.4.4|9=0067|35=A|34=1|49=EXC|56=051|52=20190723-19:42:33.269|98=0|108=30|141=Y|10=021|
8=FIX.4.4|9=0049|35=0|34=2|49=EXC|56=051|52=20190723-19:43:03.000|10=172|
8=FIX.4.4|9=59|35=0|34=2|49=051|50=051B17|52=20190723-19:43:04.083|56=EXC|10=060|
8=FIX.4.4|9=0049|35=0|34=3|49=EXC|56=051|52=20190723-19:43:33.000|10=176|
8=FIX.4.4|9=59|35=0|34=3|49=051|50=051B17|52=20190723-19:43:34.084|56=EXC|10=065|
8=FIX.4.4|9=0049|35=0|34=4|49=EXC|56=051|52=20190723-19:44:03.000|10=175|
8=FIX.4.4|9=59|35=0|34=4|49=051|50=051B17|52=20190723-19:44:04.089|56=EXC|10=069|
8=FIX.4.4|9=59|35=5|34=5|49=051|50=051B17|52=20190723-19:44:10.083|56=EXC|10=066|
8=FIX.4.4|9=0055|35=5|34=5|49=EXC|56=051|52=20190723-19:44:10.149|369=5|10=211|
8=FIX.4.4|9=110|35=A|34=1|49=051|50=051B17|52=20190723-21:39:14.763|56=EXC|43=N|98=0|108=30|141=Y|553=051FCM001|554=051FCM001|10=094|
8=FIX.4.4|9=0067|35=A|34=1|49=EXC|56=051|52=20190723-14:34:02.857|98=0|108=30|141=Y|10=016|
8=FIX.4.4|9=0049|35=0|34=2|49=EXC|56=051|52=20190723-14:34:32.000|10=169|
8=FIX.4.4|9=59|35=0|34=2|49=051|50=051B17|52=20190723-21:39:45.711|56=EXC|10=061|
8=FIX.4.4|9=0049|35=0|34=3|49=EXC|56=051|52=20190723-14:35:02.000|10=168|
8=FIX.4.4|9=59|35=0|34=3|49=051|50=051B17|52=20190723-21:40:15.706|56=EXC|10=055|
8=FIX.4.4|9=59|35=5|34=4|49=051|50=051B17|52=20190723-21:40:32.710|56=EXC|10=055|
8=FIX.4.4|9=0055|35=5|34=4|49=EXC|56=051|52=20190723-14:35:20.785|369=4|10=211|
8=FIX.4.4|9=110|35=A|34=1|49=051|50=051B17|52=20190724-13:09:24.009|56=EXC|43=N|98=0|108=30|141=Y|553=051FCM001|554=051FCM001|10=087|
8=FIX.4.4|9=0067|35=A|34=1|49=EXC|56=051|52=20190724-14:38:13.148|98=0|108=30|141=Y|10=016|
8=FIX.4.4|9=0049|35=0|34=2|49=EXC|56=051|52=20190724-14:38:43.000|10=176|
8=FIX.4.4|9=59|35=0|34=2|49=051|50=051B17|52=20190724-13:09:54.957|56=EXC|10=072|
8=FIX.4.4|9=0049|35=0|34=3|49=EXC|56=051|52=20190724-14:39:13.000|10=175|
8=FIX.4.4|9=59|35=0|34=3|49=051|50=051B17|52=20190724-13:10:24.967|56=EXC|10=063|
8=FIX.4.4|9=0049|35=0|34=4|49=EXC|56=051|52=20190724-14:39:43.000|10=179|
8=FIX.4.4|9=59|35=0|34=4|49=051|50=051B17|52=20190724-13:10:54.958|56=EXC|10=067|
8=FIX.4.4|9=0049|35=0|34=5|49=EXC|56=051|52=20190724-14:40:13.000|10=169|
8=FIX.4.4|9=59|35=0|34=5|49=051|50=051B17|52=20190724-13:11:24.961|56=EXC|10=060|
8=FIX.4.4|9=59|35=5|34=6|49=051|50=051B17|52=20190724-13:11:49.970|56=EXC|10=073|
8=FIX.4.4|9=0055|35=5|34=6|49=EXC|56=051|52=20190724-14:40:39.033|369=6|10=208|
8=FIX.4.4|9=110|35=A|34=1|49=051|50=051B17|52=20190724-13:20:04.013|56=EXC|43=N|98=0|108=30|141=Y|553=051FCM001|554=051FCM001|10=073|
8=FIX.4.4|9=0067|35=A|34=1|49=EXC|56=051|52=20190724-14:48:53.108|98=0|108=30|141=Y|10=017|
8=FIX.4.4|9=0049|35=0|34=2|49=EXC|56=051|52=20190724-14:49:23.000|10=176|
8=FIX.4.4|9=59|35=0|34=2|49=051|50=051B17|52=20190724-13:20:34.965|56=EXC|10=062|
8=FIX.4.4|9=59|35=5|34=3|49=051|50=051B17|52=20190724-13:21:02.965|56=EXC|10=064|
8=FIX.4.4|9=0055|35=5|34=3|49=EXC|56=051|52=20190724-14:49:52.034|369=3|10=207|
8=FIX.4.4|9=110|35=A|34=1|49=051|50=051B17|52=20190724-14:03:52.971|56=EXC|43=N|98=0|108=30|141=Y|553=051FCM001|554=051FCM001|10=091|
8=FIX.4.4|9=0067|35=A|34=1|49=EXC|56=051|52=20190724-15:32:42.064|98=0|108=30|141=Y|10=010|
8=FIX.4.4|9=0049|35=0|34=2|49=EXC|56=051|52=20190724-15:33:12.000|10=168|
8=FIX.4.4|9=59|35=0|34=2|49=051|50=051B17|52=20190724-14:04:23.956|56=EXC|10=063|
8=FIX.4.4|9=59|35=5|34=3|49=051|50=051B17|52=20190724-14:04:51.955|56=EXC|10=069|
8=FIX.4.4|9=0055|35=5|34=3|49=EXC|56=051|52=20190724-15:33:41.024|369=3|10=198|
8=FIX.4.4|9=110|35=A|34=1|49=051|50=051B17|52=20190724-14:38:41.220|56=EXC|43=N|98=0|108=30|141=Y|553=051FCM001|554=051FCM001|10=084|
8=FIX.4.4|9=0067|35=A|34=1|49=EXC|56=051|52=20190724-16:07:30.320|98=0|108=30|141=Y|10=005|
8=FIX.4.4|9=0049|35=0|34=2|49=EXC|56=051|52=20190724-16:08:00.000|10=168|
8=FIX.4.4|9=59|35=0|34=2|49=051|50=051B17|52=20190724-14:39:12.169|56=EXC|10=065|
8=FIX.4.4|9=0049|35=0|34=3|49=EXC|56=051|52=20190724-16:08:30.000|10=172|
8=FIX.4.4|9=59|35=0|34=3|49=051|50=051B17|52=20190724-14:39:42.170|56=EXC|10=061|
8=FIX.4.4|9=0049|35=0|34=4|49=EXC|56=051|52=20190724-16:09:00.000|10=171|
8=FIX.4.4|9=59|35=0|34=4|49=051|50=051B17|52=20190724-14:40:12.169|56=EXC|10=059|
8=FIX.4.4|9=0049|35=0|34=5|49=EXC|56=051|52=20190724-16:09:30.000|10=175|
8=FIX.4.4|9=59|35=0|34=5|49=051|50=051B17|52=20190724-14:40:42.170|56=EXC|10=055|
8=FIX.4.4|9=0049|35=0|34=6|49=EXC|56=051|52=20190724-16:10:00.000|10=165|
8=FIX.4.4|9=59|35=0|34=6|49=051|50=051B17|52=20190724-14:41:12.169|56=EXC|10=062|
8=FIX.4.4|9=0049|35=0|34=7|49=EXC|56=051|52=20190724-16:10:30.000|10=169|
8=FIX.4.4|9=59|35=0|34=7|49=051|50=051B17|52=20190724-14:41:42.171|56=EXC|10=059|
8=FIX.4.4|9=0049|35=0|34=8|49=EXC|56=051|52=20190724-16:11:00.000|10=168|
8=FIX.4.4|9=59|35=0|34=8|49=051|50=051B17|52=20190724-14:42:12.176|56=EXC|10=063|
8=FIX.4.4|9=0049|35=0|34=9|49=EXC|56=051|52=20190724-16:11:30.000|10=172|
8=FIX.4.4|9=59|35=0|34=9|49=051|50=051B17|52=20190724-14:42:42.169|56=EXC|10=069|
8=FIX.4.4|9=0050|35=0|34=10|49=EXC|56=051|52=20190724-16:12:00.000|10=202|
8=FIX.4.4|9=60|35=0|34=10|49=051|50=051B17|52=20190724-14:43:12.174|56=EXC|10=095|
8=FIX.4.4|9=0050|35=0|34=11|49=EXC|56=051|52=20190724-16:12:30.000|10=206|
8=FIX.4.4|9=60|35=0|34=11|49=051|50=051B17|52=20190724-14:43:42.170|56=EXC|10=095|
8=FIX.4.4|9=0050|35=0|34=12|49=EXC|56=051|52=20190724-16:13:00.000|10=205|
8=FIX.4.4|9=60|35=0|34=12|49=051|50=051B17|52=20190724-14:44:12.170|56=EXC|10=094|
8=FIX.4.4|9=0050|35=0|34=13|49=EXC|56=051|52=20190724-16:13:30.000|10=209|
8=FIX.4.4|9=60|35=0|34=13|49=051|50=051B17|52=20190724-14:44:42.170|56=EXC|10=098|
8=FIX.4.4|9=0050|35=0|34=14|49=EXC|56=051|52=20190724-16:14:00.000|10=208|
8=FIX.4.4|9=60|35=0|34=14|49=051|50=051B17|52=20190724-14:45:12.170|56=EXC|10=097|
8=FIX.4.4|9=0050|35=0|34=15|49=EXC|56=051|52=20190724-16:14:30.000|10=212|
8=FIX.4.4|9=60|35=0|34=15|49=051|50=051B17|52=20190724-14:45:42.169|56=EXC|10=109|
8=FIX.4.4|9=0050|35=0|34=16|49=EXC|56=051|52=20190724-16:15:00.000|10=211|
8=FIX.4.4|9=60|35=0|34=16|49=051|50=051B17|52=20190724-14:46:12.169|56=EXC|10=108|
8=FIX.4.4|9=0050|35=0|34=17|49=EXC|56=051|52=20190724-16:15:30.000|10=215|
8=FIX.4.4|9=60|35=0|34=17|49=051|50=051B17|52=20190724-14:46:42.169|56=EXC|10=112|
8=FIX.4.4|9=0050|35=0|34=18|49=EXC|56=051|52=20190724-16:16:00.000|10=214|
8=FIX.4.4|9=60|35=0|34=18|49=051|50=051B17|52=20190724-14:47:12.169|56=EXC|10=111|
8=FIX.4.4|9=0050|35=0|34=19|49=EXC|56=051|52=20190724-16:16:30.000|10=218|
8=FIX.4.4|9=60|35=0|34=19|49=051|50=051B17|52=20190724-14:47:42.170|56=EXC|10=107|
8=FIX.4.4|9=0050|35=0|34=20|49=EXC|56=051|52=20190724-16:17:00.000|10=208|
8=FIX.4.4|9=60|35=0|34=20|49=051|50=051B17|52=20190724-14:48:12.170|56=EXC|10=097|
8=FIX.4.4|9=0050|35=0|34=21|49=EXC|56=051|52=20190724-16:17:30.000|10=212|
8=FIX.4.4|9=60|35=0|34=21|49=051|50=051B17|52=20190724-14:48:42.169|56=EXC|10=109|
8=FIX.4.4|9=0050|35=0|34=22|49=EXC|56=051|52=20190724-16:18:00.000|10=211|
8=FIX.4.4|9=60|35=0|34=22|49=051|50=051B17|52=20190724-14:49:12.171|56=EXC|10=101|
8=FIX.4.4|9=0050|35=0|34=23|49=EXC|56=051|52=20190724-16:18:30.000|10=215|
8=FIX.4.4|9=60|35=0|34=23|49=051|50=051B17|52=20190724-14:49:42.169|56=EXC|10=112|
8=FIX.4.4|9=0050|35=0|34=24|49=EXC|56=051|52=20190724-16:19:00.000|10=214|
8=FIX.4.4|9=60|35=0|34=24|49=051|50=051B17|52=20190724-14:50:12.170|56=EXC|10=094|
8=FIX.4.4|9=0050|35=0|34=25|49=EXC|56=051|52=20190724-16:19:30.000|10=218|
8=FIX.4.4|9=60|35=0|34=25|49=051|50=051B17|52=20190724-14:50:42.169|56=EXC|10=106|
8=FIX.4.4|9=0050|35=0|34=26|49=EXC|56=051|52=20190724-16:20:00.000|10=208|
8=FIX.4.4|9=60|35=0|34=26|49=051|50=051B17|52=20190724-14:51:12.175|56=EXC|10=102|
8=FIX.4.4|9=0050|35=0|34=27|49=EXC|56=051|52=20190724-16:20:30.000|10=212|
8=FIX.4.4|9=60|35=0|34=27|49=051|50=051B17|52=20190724-14:51:42.169|56=EXC|10=109|
8=FIX.4.4|9=0050|35=0|34=28|49=EXC|56=051|52=20190724-16:21:00.000|10=211|
8=FIX.4.4|9=60|35=0|34=28|49=051|50=051B17|52=20190724-14:52:12.169|56=EXC|10=108|
8=FIX.4.4|9=0050|35=0|34=29|49=EXC|56=051|52=20190724-16:21:30.000|10=215|
8=FIX.4.4|9=60|35=0|34=29|49=051|50=051B17|52=20190724-14:52:42.170|56=EXC|10=104|
8=FIX.4.4|9=0050|35=0|34=30|49=EXC|56=051|52=20190724-16:22:00.000|10=205|
8=FIX.4.4|9=60|35=0|34=30|49=051|50=051B17|52=20190724-14:53:12.170|56=EXC|10=094|
8=FIX.4.4|9=110|35=A|34=1|49=051|50=051B17|52=20190724-14:54:13.341|56=EXC|43=N|98=0|108=30|141=Y|553=051FCM001|554=051FCM001|10=085|
8=FIX.4.4|9=0067|35=A|34=1|49=EXC|56=051|52=20190724-16:23:02.426|98=0|108=30|141=Y|10=009|
8=FIX.4.4|9=0049|35=0|34=2|49=EXC|56=051|52=20190724-16:23:32.000|10=170|
8=FIX.4.4|9=59|35=0|34=2|49=051|50=051B17|52=20190724-14:54:44.269|56=EXC|10=068|
8=FIX.4.4|9=0049|35=0|34=3|49=EXC|56=051|52=20190724-16:24:02.000|10=169|
8=FIX.4.4|9=59|35=0|34=3|49=051|50=051B17|52=20190724-14:55:14.260|56=EXC|10=058|
8=FIX.4.4|9=0049|35=0|34=4|49=EXC|56=051|52=20190724-16:24:32.000|10=173|
8=FIX.4.4|9=59|35=0|34=4|49=051|50=051B17|52=20190724-14:55:44.260|56=EXC|10=062|
8=FIX.4.4|9=0049|35=0|34=5|49=EXC|56=051|52=20190724-16:25:02.000|10=172|
8=FIX.4.4|9=59|35=0|34=5|49=051|50=051B17|52=20190724-14:56:14.260|56=EXC|10=061|
8=FIX.4.4|9=0049|35=0|34=6|49=EXC|56=051|52=20190724-16:25:32.000|10=176|
8=FIX.4.4|9=59|35=0|34=6|49=051|50=051B17|52=20190724-14:56:44.260|56=EXC|10=065|
8=FIX.4.4|9=0049|35=0|34=7|49=EXC|56=051|52=20190724-16:26:02.000|10=175|
8=FIX.4.4|9=59|35=0|34=7|49=051|50=051B17|52=20190724-14:57:14.260|56=EXC|10=064|
8=FIX.4.4|9=110|35=A|34=1|49=051|50=051B17|52=20190724-15:07:09.841|56=EXC|43=N|98=0|108=30|141=Y|553=051FCM001|554=051FCM001|10=094|
8=FIX.4.4|9=0067|35=A|34=1|49=EXC|56=051|52=20190724-16:35:58.928|98=0|108=30|141=Y|10=030|
8=FIX.4.4|9=0049|35=0|34=2|49=EXC|56=051|52=20190724-16:36:28.000|10=179|
8=FIX.4.4|9=59|35=0|34=2|49=051|50=051B17|52=20190724-15:07:40.784|56=EXC|10=065|
8=FIX.4.4|9=0049|35=0|34=3|49=EXC|56=051|52=20190724-16:36:58.000|10=183|
8=FIX.4.4|9=59|35=0|34=3|49=051|50=051B17|52=20190724-15:08:10.786|56=EXC|10=066|
8=FIX.4.4|9=59|35=5|34=4|49=051|50=051B17|52=20190724-15:08:22.785|56=EXC|10=074|
8=FIX.4.4|9=0055|35=5|34=4|49=EXC|56=051|52=20190724-16:37:11.859|369=4|10=218|
8=FIX.4.4|9=110|35=A|34=1|49=051|50=051B17|52=20190724-16:10:06.865|56=EXC|43=N|98=0|108=30|141=Y|553=051FCM001|554=051FCM001|10=092|
8=FIX.4.4|9=0067|35=A|34=1|49=EXC|56=051|52=20190724-17:38:55.950|98=0|108=30|141=Y|10=026|
8=FIX.4.4|9=0049|35=0|34=2|49=EXC|56=051|52=20190724-17:39:25.000|10=180|
8=FIX.4.4|9=59|35=0|34=2|49=051|50=051B17|52=20190724-16:10:37.802|56=EXC|10=057|
8=FIX.4.4|9=0049|35=0|34=3|49=EXC|56=051|52=20190724-17:39:55.000|10=184|
8=FIX.4.4|9=59|35=0|34=3|49=051|50=051B17|52=20190724-16:11:07.801|56=EXC|10=055|
8=FIX.4.4|9=0049|35=0|34=4|49=EXC|56=051|52=20190724-17:40:25.000|10=174|
8=FIX.4.4|9=59|35=0|34=4|49=051|50=051B17|52=20190724-16:11:37.802|56=EXC|10=060|
8=FIX.4.4|9=0049|35=0|34=5|49=EXC|56=051|52=20190724-17:40:55.000|10=178|
8=FIX.4.4|9=59|35=0|34=5|49=051|50=051B17|52=20190724-16:12:07.802|56=EXC|10=059|
8=FIX.4.4|9=59|35=5|34=6|49=051|50=051B17|52=20190724-16:12:30.802|56=EXC|10=061|
8=FIX.4.4|9=0055|35=5|34=6|49=EXC|56=051|52=20190724-17:41:19.861|369=6|10=219|
8=FIX.4.4|9=110|35=A|34=1|49=051|50=051B17|52=20190724-20:44:55.144|56=EXC|43=N|98=0|108=30|141=Y|553=051FCM001|554=051FCM001|10=088|
8=FIX.4.4|9=0067|35=A|34=1|49=EXC|56=051|52=20190724-14:39:48.223|98=0|108=30|141=Y|10=019|
8=FIX.4.4|9=0049|35=0|34=2|49=EXC|56=051|52=20190724-14:40:18.000|10=171|
8=FIX.4.4|9=59|35=0|34=2|49=051|50=051B17|52=20190724-20:45:26.119|56=EXC|10=059|
8=FIX.4.4|9=0049|35=0|34=3|49=EXC|56=051|52=20190724-14:40:48.000|10=175|
8=FIX.4.4|9=59|35=0|34=3|49=051|50=051B17|52=20190724-20:45:56.119|56=EXC|10=063|
8=FIX.4.4|9=0049|35=0|34=4|49=EXC|56=051|52=20190724-14:41:18.000|10=174|
8=FIX.4.4|9=59|35=0|34=4|49=051|50=051B17|52=20190724-20:46:26.119|56=EXC|10=062|
8=FIX.4.4|9=0049|35=0|34=5|49=EXC|56=051|52=20190724-14:41:48.000|10=178|
8=FIX.4.4|9=59|35=0|34=5|49=051|50=051B17|52=20190724-20:46:56.120|56=EXC|10=058|
8=FIX.4.4|9=59|35=5|34=6|49=051|50=051B17|52=20190724-20:47:20.129|56=EXC|10=065|
8=FIX.4.4|9=0055|35=5|34=6|49=EXC|56=051|52=20190724-14:42:13.180|369=6|10=205|
8=FIX.4.4|9=110|35=A|34=1|49=051|50=051B17|52=20190724-23:15:49.106|56=EXC|43=N|98=0|108=30|141=Y|553=051FCM001|554=051FCM001|10=090|
8=FIX.4.4|9=0067|35=A|34=1|49=EXC|56=051|52=20190724-17:10:42.179|98=0|108=30|141=Y|10=015|
8=FIX.4.4|9=0049|35=0|34=2|49=EXC|56=051|52=20190724-17:11:12.000|10=166|
8=FIX.4.4|9=59|35=0|34=2|49=051|50=051B17|52=20190724-23:16:20.051|56=EXC|10=049|
8=FIX.4.4|9=0049|35=0|34=3|49=EXC|56=051|52=20190724-17:11:42.000|10=170|
8=FIX.4.4|9=59|35=0|34=3|49=051|50=051B17|52=20190724-23:16:50.052|56=EXC|10=054|
8=FIX.4.4|9=0049|35=0|34=4|49=EXC|56=051|52=20190724-17:12:12.000|10=169|
8=FIX.4.4|9=59|35=0|34=4|49=051|50=051B17|52=20190724-23:17:20.051|56=EXC|10=052|
8=FIX.4.4|9=0049|35=0|34=5|49=EXC|56=051|52=20190724-17:12:42.000|10=173|
8=FIX.4.4|9=59|35=0|34=5|49=051|50=051B17|52=20190724-23:17:50.051|56=EXC|10=056|
8=FIX.4.4|9=0049|35=0|34=6|49=EXC|56=051|52=20190724-17:13:12.000|10=172|
8=FIX.4.4|9=59|35=0|34=6|49=051|50=051B17|52=20190724-23:18:20.052|56=EXC|10=056|
8=FIX.4.4|9=0049|35=0|34=7|49=EXC|56=051|52=20190724-17:13:42.000|10=176|
8=FIX.4.4|9=59|35=0|34=7|49=051|50=051B17|52=20190724-23:18:50.053|56=EXC|10=061|
8=FIX.4.4|9=110|35=A|34=1|49=051|50=051B17|52=20190725-14:52:27.454|56=EXC|43=N|98=0|108=30|141=Y|553=051FCM001|554=051FCM001|10=094|
8=FIX.4.4|9=0067|35=A|34=1|49=EXC|56=051|52=20190725-14:52:27.545|98=0|108=30|141=Y|10=019|
8=FIX.4.4|9=0049|35=0|34=2|49=EXC|56=051|52=20190725-14:52:57.000|10=178|
8=FIX.4.4|9=59|35=5|34=2|49=051|50=051B17|52=20190725-14:52:56.979|56=EXC|10=083|
8=FIX.4.4|9=0055|35=5|34=3|49=EXC|56=051|52=20190725-14:52:57.018|369=2|10=208|
8=FIX.4.4|9=110|35=A|34=1|49=051|50=051B17|52=20190725-15:03:22.912|56=EXC|43=N|98=0|108=30|141=Y|553=051FCM001|554=051FCM001|10=085|
8=FIX.4.4|9=0067|35=A|34=1|49=EXC|56=051|52=20190725-15:03:22.964|98=0|108=30|141=Y|10=016|
8=FIX.4.4|9=110|35=A|34=1|49=051|50=051B17|52=20190725-15:17:52.920|56=EXC|43=N|98=0|108=30|141=Y|553=051FCM001|554=051FCM001|10=092|
8=FIX.4.4|9=0067|35=A|34=1|49=EXC|56=051|52=20190725-15:17:52.962|98=0|108=30|141=Y|10=022|
8=FIX.4.4|9=0049|35=0|34=2|49=EXC|56=051|52=20190725-15:18:22.000|10=173|
8=FIX.4.4|9=59|35=0|34=2|49=051|50=051B17|52=20190725-15:18:23.843|56=EXC|10=065|
8=FIX.4.4|9=0049|35=0|34=3|49=EXC|56=051|52=20190725-15:18:52.000|10=177|
8=FIX.4.4|9=59|35=0|34=3|49=051|50=051B17|52=20190725-15:18:53.844|56=EXC|10=070|
8=FIX.4.4|9=59|35=5|34=4|49=051|50=051B17|52=20190725-15:19:13.841|56=EXC|10=070|
8=FIX.4.4|9=0055|35=5|34=4|49=EXC|56=051|52=20190725-15:19:13.867|369=4|10=219|
8=FIX.4.4|9=110|35=A|34=1|49=051|50=051B17|52=20190725-15:47:42.169|56=EXC|43=N|98=0|108=30|141=Y|553=051FCM001|554=051FCM001|10=099|
8=FIX.4.4|9=0067|35=A|34=1|49=EXC|56=051|52=20190725-15:47:42.213|98=0|108=30|141=Y|10=013|
8=FIX.4.4|9=0049|35=0|34=2|49=EXC|56=051|52=20190725-15:48:12.000|10=175|
8=FIX.4.4|9=59|35=0|34=2|49=051|50=051B17|52=20190725-15:48:13.110|56=EXC|10=054|
8=FIX.4.4|9=0049|35=0|34=3|49=EXC|56=051|52=20190725-15:48:42.000|10=179|
8=FIX.4.4|9=59|35=0|34=3|49=051|50=051B17|52=20190725-15:48:43.110|56=EXC|10=058|
8=FIX.4.4|9=0049|35=0|34=4|49=EXC|56=051|52=20190725-15:49:12.000|10=178|
8=FIX.4.4|9=59|35=0|34=4|49=051|50=051B17|52=20190725-15:49:13.109|56=EXC|10=065|
8=FIX.4.4|9=0049|35=0|34=5|49=EXC|56=051|52=20190725-15:49:42.000|10=182|
8=FIX.4.4|9=59|35=0|34=5|49=051|50=051B17|52=20190725-15:49:43.110|56=EXC|10=061|
8=FIX.4.4|9=59|35=5|34=6|49=051|50=051B17|52=20190725-15:50:06.112|56=EXC|10=060|
8=FIX.4.4|9=0055|35=5|34=6|49=EXC|56=051|52=20190725-15:50:06.140|369=6|10=204|
8=FIX.4.4|9=110|35=A|34=1|49=051|50=051B17|52=20190725-19:26:03.379|56=EXC|43=N|98=0|108=30|141=Y|553=051FCM001|554=051FCM001|10=100|
8=FIX.4.4|9=0067|35=A|34=1|49=EXC|56=051|52=20190725-19:26:03.437|98=0|108=30|141=Y|10=019|
8=FIX.4.4|9=0049|35=0|34=2|49=EXC|56=051|52=20190725-19:26:33.000|10=178|
8=FIX.4.4|9=59|35=0|34=2|49=051|50=051B17|52=20190725-19:26:34.306|56=EXC|10=064|
8=FIX.4.4|9=0049|35=0|34=3|49=EXC|56=051|52=20190725-19:27:03.000|10=177|
8=FIX.4.4|9=59|35=0|34=3|49=051|50=051B17|52=20190725-19:27:04.311|56=EXC|10=059|
8=FIX.4.4|9=0049|35=0|34=4|49=EXC|56=051|52=20190725-19:27:33.000|10=181|
8=FIX.4.4|9=59|35=0|34=4|49=051|50=051B17|52=20190725-19:27:35.297|56=EXC|10=077|
8=FIX.4.4|9=110|35=A|34=1|49=051|50=051B17|52=20190725-19:28:32.681|56=EXC|43=N|98=0|108=30|141=Y|553=051FCM001|554=051FCM001|10=100|
8=FIX.4.4|9=0067|35=A|34=1|49=EXC|56=051|52=20190725-19:28:32.744|98=0|108=30|141=Y|10=024|
8=FIX.4.4|9=0049|35=0|34=2|49=EXC|56=051|52=20190725-19:29:02.000|10=177|
8=FIX.4.4|9=59|35=0|34=2|49=051|50=051B17|52=20190725-19:29:03.661|56=EXC|10=067|
8=FIX.4.4|9=0049|35=0|34=3|49=EXC|56=051|52=20190725-19:29:32.000|10=181|
8=FIX.4.4|9=59|35=0|34=3|49=051|50=051B17|52=20190725-19:29:33.675|56=EXC|10=076|
8=FIX.4.4|9=0049|35=0|34=4|49=EXC|56=051|52=20190725-19:30:02.000|10=171|
8=FIX.4.4|9=59|35=0|34=4|49=051|50=051B17|52=20190725-19:30:03.673|56=EXC|10=064|
8=FIX.4.4|9=0049|35=0|34=5|49=EXC|56=051|52=20190725-19:30:32.000|10=175|
8=FIX.4.4|9=59|35=0|34=5|49=051|50=051B17|52=20190725-19:30:33.668|56=EXC|10=072|
8=FIX.4.4|9=59|35=5|34=6|49=051|50=051B17|52=20190725-19:30:57.661|56=EXC|10=077|
8=FIX.4.4|9=0055|35=5|34=6|49=EXC|56=051|52=20190725-19:30:57.702|369=6|10=216|
8=FIX.4.4|9=110|35=A|34=1|49=051|50=051B17|52=20190725-22:06:07.679|56=EXC|43=N|98=0|108=30|141=Y|553=051FCM001|554=051FCM001|10=099|
8=FIX.4.4|9=0067|35=A|34=1|49=EXC|56=051|52=20190725-14:37:54.752|98=0|108=30|141=Y|10=022|
8=FIX.4.4|9=110|35=A|34=1|49=051|50=051B17|52=20190725-22:12:14.888|56=EXC|43=N|98=0|108=30|141=Y|553=051FCM001|554=051FCM001|10=096|
8=FIX.4.4|9=0067|35=A|34=1|49=EXC|56=051|52=20190725-14:44:01.963|98=0|108=30|141=Y|10=016|
8=FIX.4.4|9=0049|35=0|34=2|49=EXC|56=051|52=20190725-14:44:31.000|10=171|
8=FIX.4.4|9=59|35=0|34=2|49=051|50=051B17|52=20190725-22:12:45.857|56=EXC|10=066|
8=FIX.4.4|9=0049|35=0|34=3|49=EXC|56=051|52=20190725-14:45:01.000|10=170|
8=FIX.4.4|9=59|35=0|34=3|49=051|50=051B17|52=20190725-22:13:15.856|56=EXC|10=064|
8=FIX.4.4|9=0049|35=0|34=4|49=EXC|56=051|52=20190725-14:45:31.000|10=174|
8=FIX.4.4|9=59|35=0|34=4|49=051|50=051B17|52=20190725-22:13:45.856|56=EXC|10=068|
8=FIX.4.4|9=0049|35=0|34=5|49=EXC|56=051|52=20190725-14:46:01.000|10=173|
8=FIX.4.4|9=59|35=0|34=5|49=051|50=051B17|52=20190725-22:14:15.857|56=EXC|10=068|
8=FIX.4.4|9=59|35=5|34=6|49=051|50=051B17|52=20190725-22:14:38.856|56=EXC|10=078|
8=FIX.4.4|9=0055|35=5|34=6|49=EXC|56=051|52=20190725-14:46:25.914|369=6|10=218|
8=FIX.4.4|9=110|35=A|34=1|49=051|50=051B17|52=20190725-23:25:53.829|56=EXC|43=N|98=0|108=30|141=Y|553=051FCM001|554=051FCM001|10=099|
8=FIX.4.4|9=0067|35=A|34=1|49=EXC|56=051|52=20190725-15:57:40.897|98=0|108=30|141=Y|10=030|
8=FIX.4.4|9=0049|35=0|34=2|49=EXC|56=051|52=20190725-15:58:10.000|10=174|
8=FIX.4.4|9=59|35=0|34=2|49=051|50=051B17|52=20190725-23:26:24.773|56=EXC|10=066|
8=FIX.4.4|9=0049|35=0|34=3|49=EXC|56=051|52=20190725-15:58:40.000|10=178|
8=FIX.4.4|9=59|35=0|34=3|49=051|50=051B17|52=20190725-23:26:54.771|56=EXC|10=068|
8=FIX.4.4|9=0049|35=0|34=4|49=EXC|56=051|52=20190725-15:59:10.000|10=177|
8=FIX.4.4|9=59|35=0|34=4|49=051|50=051B17|52=20190725-23:27:24.773|56=EXC|10=069|
8=FIX.4.4|9=0049|35=0|34=5|49=EXC|56=051|52=20190725-15:59:40.000|10=181|
8=FIX.4.4|9=59|35=0|34=5|49=051|50=051B17|52=20190725-23:27:54.773|56=EXC|10=073|
8=FIX.4.4|9=59|35=5|34=6|49=051|50=051B17|52=20190725-23:28:17.772|56=EXC|10=078|
8=FIX.4.4|9=0055|35=5|34=6|49=EXC|56=051|52=20190725-16:00:04.827|369=6|10=210|
8=FIX.4.4|9=110|35=A|34=1|49=051|50=051B17|52=20190725-23:49:40.980|56=EXC|43=N|98=0|108=30|141=Y|553=051FCM001|554=051FCM001|10=099|
8=FIX.4.4|9=0067|35=A|34=1|49=EXC|56=051|52=20190725-16:21:28.047|98=0|108=30|141=Y|10=015|
8=FIX.4.4|9=0049|35=0|34=2|49=EXC|56=051|52=20190725-16:21:58.000|10=177|
8=FIX.4.4|9=59|35=0|34=2|49=051|50=051B17|52=20190725-23:50:11.913|56=EXC|10=055|
8=FIX.4.4|9=0049|35=0|34=3|49=EXC|56=051|52=20190725-16:22:28.000|10=176|
8=FIX.4.4|9=59|35=0|34=3|49=051|50=051B17|52=20190725-23:50:41.912|56=EXC|10=058|
8=FIX.4.4|9=0049|35=0|34=4|49=EXC|56=051|52=20190725-16:22:58.000|10=180|
8=FIX.4.4|9=59|35=0|34=4|49=051|50=051B17|52=20190725-23:51:11.912|56=EXC|10=057|
8=FIX.4.4|9=0049|35=0|34=5|49=EXC|56=051|52=20190725-16:23:28.000|10=179|
8=FIX.4.4|9=59|35=0|34=5|49=051|50=051B17|52=20190725-23:51:41.912|56=EXC|10=061|
8=FIX.4.4|9=59|35=5|34=6|49=051|50=051B17|52=20190725-23:51:49.913|56=EXC|10=076|
8=FIX.4.4|9=0055|35=5|34=6|49=EXC|56=051|52=20190725-16:23:36.964|369=6|10=222|
8=FIX.4.4|9=110|35=A|34=1|49=051|50=051B17|52=20190726-21:04:16.052|56=EXC|43=N|98=0|108=30|141=Y|553=051FCM001|554=051FCM001|10=082|
8=FIX.4.4|9=0067|35=A|34=1|49=EXC|56=051|52=20190726-21:04:16.134|98=0|108=30|141=Y|10=007|
8=FIX.4.4|9=0049|35=0|34=2|49=EXC|56=051|52=20190726-21:04:46.000|10=172|
8=FIX.4.4|9=59|35=0|34=2|49=051|50=051B17|52=20190726-21:04:47.022|56=EXC|10=053|
8=FIX.4.4|9=0049|35=0|34=3|49=EXC|56=051|52=20190726-21:05:16.000|10=171|
8=FIX.4.4|9=59|35=0|34=3|49=051|50=051B17|52=20190726-21:05:17.022|56=EXC|10=052|
8=FIX.4.4|9=0049|35=0|34=4|49=EXC|56=051|52=20190726-21:05:46.000|10=175|
8=FIX.4.4|9=59|35=0|34=4|49=051|50=051B17|52=20190726-21:05:47.021|56=EXC|10=055|
8=FIX.4.4|9=0049|35=0|34=5|49=EXC|56=051|52=20190726-21:06:16.000|10=174|
8=FIX.4.4|9=59|35=0|34=5|49=051|50=051B17|52=20190726-21:06:17.021|56=EXC|10=054|
8=FIX.4.4|9=59|35=5|34=6|49=051|50=051B17|52=20190726-21:06:42.022|56=EXC|10=059|
8=FIX.4.4|9=0055|35=5|34=6|49=EXC|56=051|52=20190726-21:06:42.083|369=6|10=209|
8=FIX.4.4|9=110|35=A|34=1|49=051|50=051B17|52=20190726-21:18:27.698|56=EXC|43=N|98=0|108=30|141=Y|553=051FCM001|554=051FCM001|10=105|
8=FIX.4.4|9=0067|35=A|34=1|49=EXC|56=051|52=20190726-21:18:27.774|98=0|108=30|141=Y|10=024|
8=FIX.4.4|9=110|35=A|34=1|49=051|50=051B17|52=20190726-21:20:06.069|56=EXC|43=N|98=0|108=30|141=Y|553=051FCM001|554=051FCM001|10=087|
8=FIX.4.4|9=0067|35=A|34=1|49=EXC|56=051|52=20190726-21:20:06.150|98=0|108=30|141=Y|10=002|
8=FIX.4.4|9=0049|35=0|34=2|49=EXC|56=051|52=20190726-21:20:36.000|10=169|
8=FIX.4.4|9=59|35=0|34=2|49=051|50=051B17|52=20190726-21:20:37.022|56=EXC|10=050|
8=FIX.4.4|9=0049|35=0|34=3|49=EXC|56=051|52=20190726-21:21:06.000|10=168|
8=FIX.4.4|9=59|35=0|34=3|49=051|50=051B17|52=20190726-21:21:07.055|56=EXC|10=055|
8=FIX.4.4|9=0049|35=0|34=4|49=EXC|56=051|52=20190726-21:21:36.000|10=172|
8=FIX.4.4|9=59|35=0|34=4|49=051|50=051B17|52=20190726-21:21:38.023|56=EXC|10=055|
8=FIX.4.4|9=0049|35=0|34=5|49=EXC|56=051|52=20190726-21:22:06.000|10=171|
8=FIX.4.4|9=110|35=A|34=1|49=051|50=051B17|52=20190726-21:27:18.097|56=EXC|43=N|98=0|108=30|141=Y|553=051FCM001|554=051FCM001|10=098|
8=FIX.4.4|9=0067|35=A|34=1|49=EXC|56=051|52=20190726-21:27:18.172|98=0|108=30|141=Y|10=016|
8=FIX.4.4|9=0049|35=0|34=2|49=EXC|56=051|52=20190726-21:27:48.000|10=179|
8=FIX.4.4|9=59|35=0|34=2|49=051|50=051B17|52=20190726-21:27:49.078|56=EXC|10=071|
8=FIX.4.4|9=0049|35=0|34=3|49=EXC|56=051|52=20190726-21:28:18.000|10=178|
8=FIX.4.4|9=59|35=0|34=3|49=051|50=051B17|52=20190726-21:28:19.078|56=EXC|10=070|
8=FIX.4.4|9=0049|35=0|34=4|49=EXC|56=051|52=20190726-21:28:48.000|10=182|
8=FIX.4.4|9=59|35=0|34=4|49=051|50=051B17|52=20190726-21:28:49.079|56=EXC|10=075|
8=FIX.4.4|9=0049|35=0|34=5|49=EXC|56=051|52=20190726-21:29:18.000|10=181|
8=FIX.4.4|9=59|35=0|34=5|49=051|50=051B17|52=20190726-21:29:19.079|56=EXC|10=074|
8=FIX.4.4|9=59|35=5|34=6|49=051|50=051B17|52=20190726-21:29:42.078|56=EXC|10=075|
8=FIX.4.4|9=0055|35=5|34=6|49=EXC|56=051|52=20190726-21:29:42.140|369=6|10=208|
8=FIX.4.4|9=110|35=A|34=1|49=051|50=051B17|52=20190726-21:54:47.978|56=EXC|43=N|98=0|108=30|141=Y|553=051FCM001|554=051FCM001|10=108|
8=FIX.4.4|9=0067|35=A|34=1|49=EXC|56=051|52=20190726-14:39:48.057|98=0|108=30|141=Y|10=026|
8=FIX.4.4|9=0049|35=0|34=2|49=EXC|56=051|52=20190726-14:40:18.000|10=173|
8=FIX.4.4|9=59|35=0|34=2|49=051|50=051B17|52=20190726-21:55:18.950|56=EXC|10=067|
8=FIX.4.4|9=0049|35=0|34=3|49=EXC|56=051|52=20190726-14:40:48.000|10=177|
8=FIX.4.4|9=59|35=0|34=3|49=051|50=051B17|52=20190726-21:55:48.948|56=EXC|10=078|
8=FIX.4.4|9=0049|35=0|34=4|49=EXC|56=051|52=20190726-14:41:18.000|10=176|
8=FIX.4.4|9=59|35=0|34=4|49=051|50=051B17|52=20190726-21:56:18.948|56=EXC|10=077|
8=FIX.4.4|9=0049|35=0|34=5|49=EXC|56=051|52=20190726-14:41:48.000|10=180|
8=FIX.4.4|9=59|35=0|34=5|49=051|50=051B17|52=20190726-21:56:48.949|56=EXC|10=082|
8=FIX.4.4|9=59|35=5|34=6|49=051|50=051B17|52=20190726-21:57:13.948|56=EXC|10=080|
8=FIX.4.4|9=0055|35=5|34=6|49=EXC|56=051|52=20190726-14:42:14.011|369=6|10=201|
8=FIX.4.4|9=110|35=A|34=1|49=051|50=051B17|52=20190729-15:42:26.705|56=EXC|43=N|98=0|108=30|141=Y|553=051FCM001|554=051FCM001|10=096|
8=FIX.4.4|9=0067|35=A|34=1|49=EXC|56=051|52=20190729-15:42:26.743|98=0|108=30|141=Y|10=022|
8=FIX.4.4|9=0049|35=0|34=2|49=EXC|56=051|52=20190729-15:42:56.000|10=181|
8=FIX.4.4|9=59|35=0|34=2|49=051|50=051B17|52=20190729-15:42:57.695|56=EXC|10=078|
8=FIX.4.4|9=0049|35=0|34=3|49=EXC|56=051|52=20190729-15:43:26.000|10=180|
8=FIX.4.4|9=59|35=0|34=3|49=051|50=051B17|52=20190729-15:43:27.695|56=EXC|10=077|
8=FIX.4.4|9=0049|35=0|34=4|49=EXC|56=051|52=20190729-15:43:56.000|10=184|
8=FIX.4.4|9=59|35=0|34=4|49=051|50=051B17|52=20190729-15:43:57.696|56=EXC|10=082|
8=FIX.4.4|9=0049|35=0|34=5|49=EXC|56=051|52=20190729-15:44:26.000|10=183|
8=FIX.4.4|9=59|35=0|34=5|49=051|50=051B17|52=20190729-15:44:27.696|56=EXC|10=081|
8=FIX.4.4|9=0049|35=0|34=6|49=EXC|56=051|52=20190729-15:44:56.000|10=187|
8=FIX.4.4|9=59|35=0|34=6|49=051|50=051B17|52=20190729-15:44:57.703|56=EXC|10=074|
8=FIX.4.4|9=0049|35=0|34=7|49=EXC|56=051|52=20190729-15:45:26.000|10=186|
8=FIX.4.4|9=59|35=0|34=7|49=051|50=051B17|52=20190729-15:45:27.700|56=EXC|10=070|
8=FIX.4.4|9=0049|35=0|34=8|49=EXC|56=051|52=20190729-15:45:56.000|10=190|
8=FIX.4.4|9=59|35=0|34=8|49=051|50=051B17|52=20190729-15:45:57.697|56=EXC|10=089|
8=FIX.4.4|9=0049|35=0|34=9|49=EXC|56=051|52=20190729-15:46:26.000|10=189|
8=FIX.4.4|9=59|35=0|34=9|49=051|50=051B17|52=20190729-15:46:27.698|56=EXC|10=089|
8=FIX.4.4|9=110|35=A|34=1|49=051|50=051B17|52=20190729-16:09:21.048|56=EXC|43=N|98=0|108=30|141=Y|553=051FCM001|554=051FCM001|10=095|
8=FIX.4.4|9=0067|35=A|34=1|49=EXC|56=051|52=20190729-16:09:21.092|98=0|108=30|141=Y|10=018|
8=FIX.4.4|9=0049|35=0|34=2|49=EXC|56=051|52=20190729-16:09:51.000|10=180|
8=FIX.4.4|9=59|35=0|34=2|49=051|50=051B17|52=20190729-16:09:52.002|56=EXC|10=059|
8=FIX.4.4|9=0049|35=0|34=3|49=EXC|56=051|52=20190729-16:10:21.000|10=170|
8=FIX.4.4|9=59|35=0|34=3|49=051|50=051B17|52=20190729-16:10:22.002|56=EXC|10=049|
8=FIX.4.4|9=0049|35=0|34=4|49=EXC|56=051|52=20190729-16:10:51.000|10=174|
8=FIX.4.4|9=59|35=0|34=4|49=051|50=051B17|52=20190729-16:10:52.003|56=EXC|10=054|
8=FIX.4.4|9=0049|35=0|34=5|49=EXC|56=051|52=20190729-16:11:21.000|10=173|
8=FIX.4.4|9=59|35=0|34=5|49=051|50=051B17|52=20190729-16:11:22.001|56=EXC|10=051|
8=FIX.4.4|9=110|35=A|34=1|49=051|50=051B17|52=20190729-16:21:04.217|56=EXC|43=N|98=0|108=30|141=Y|553=051FCM001|554=051FCM001|10=088|
8=FIX.4.4|9=0067|35=A|34=1|49=EXC|56=051|52=20190729-16:21:04.253|98=0|108=30|141=Y|10=012|
8=FIX.4.4|9=0049|35=0|34=2|49=EXC|56=051|52=20190729-16:21:34.000|10=175|
8=FIX.4.4|9=59|35=0|34=2|49=051|50=051B17|52=20190729-16:21:35.161|56=EXC|10=060|
8=FIX.4.4|9=0049|35=0|34=3|49=EXC|56=051|52=20190729-16:22:04.000|10=174|
8=FIX.4.4|9=59|35=0|34=3|49=051|50=051B17|52=20190729-16:22:05.162|56=EXC|10=060|
8=FIX.4.4|9=0049|35=0|34=4|49=EXC|56=051|52=20190729-16:22:34.000|10=178|
8=FIX.4.4|9=59|35=0|34=4|49=051|50=051B17|52=20190729-16:22:35.162|56=EXC|10=064|
8=FIX.4.4|9=0049|35=0|34=5|49=EXC|56=051|52=20190729-16:23:04.000|10=177|
8=FIX.4.4|9=59|35=0|34=5|49=051|50=051B17|52=20190729-16:23:05.161|56=EXC|10=062|
8=FIX.4.4|9=0049|35=0|34=6|49=EXC|56=051|52=20190729-16:23:34.000|10=181|
8=FIX.4.4|9=59|35=0|34=6|49=051|50=051B17|52=20190729-16:23:35.162|56=EXC|10=067|
8=FIX.4.4|9=0049|35=0|34=7|49=EXC|56=051|52=20190729-16:24:04.000|10=180|
8=FIX.4.4|9=59|35=0|34=7|49=051|50=051B17|52=20190729-16:24:05.161|56=EXC|10=065|
8=FIX.4.4|9=0049|35=0|34=8|49=EXC|56=051|52=20190729-16:24:34.000|10=184|
8=FIX.4.4|9=59|35=0|34=8|49=051|50=051B17|52=20190729-16:24:35.161|56=EXC|10=069|
8=FIX.4.4|9=0049|35=0|34=9|49=EXC|56=051|52=20190729-16:25:04.000|10=183|
8=FIX.4.4|9=59|35=0|34=9|49=051|50=051B17|52=20190729-16:25:05.161|56=EXC|10=068|
8=FIX.4.4|9=0050|35=0|34=10|49=EXC|56=051|52=20190729-16:25:34.000|10=218|
8=FIX.4.4|9=60|35=0|34=10|49=051|50=051B17|52=20190729-16:25:35.162|56=EXC|10=104|
8=FIX.4.4|9=0050|35=0|34=11|49=EXC|56=051|52=20190729-16:26:04.000|10=217|
8=FIX.4.4|9=60|35=0|34=11|49=051|50=051B17|52=20190729-16:26:05.160|56=EXC|10=101|
8=FIX.4.4|9=0050|35=0|34=12|49=EXC|56=051|52=20190729-16:26:34.000|10=221|
8=FIX.4.4|9=60|35=0|34=12|49=051|50=051B17|52=20190729-16:26:35.162|56=EXC|10=107|
8=FIX.4.4|9=0050|35=0|34=13|49=EXC|56=051|52=20190729-16:27:04.000|10=220|
8=FIX.4.4|9=60|35=0|34=13|49=051|50=051B17|52=20190729-16:27:05.161|56=EXC|10=105|
8=FIX.4.4|9=0050|35=0|34=14|49=EXC|56=051|52=20190729-16:27:34.000|10=224|
8=FIX.4.4|9=60|35=0|34=14|49=051|50=051B17|52=20190729-16:27:35.160|56=EXC|10=108|
8=FIX.4.4|9=0050|35=0|34=15|49=EXC|56=051|52=20190729-16:28:04.000|10=223|
8=FIX.4.4|9=60|35=0|34=15|49=051|50=051B17|52=20190729-16:28:05.161|56=EXC|10=108|
8=FIX.4.4|9=0050|35=0|34=16|49=EXC|56=051|52=20190729-16:28:34.000|10=227|
8=FIX.4.4|9=60|35=0|34=16|49=051|50=051B17|52=20190729-16:28:35.162|56=EXC|10=113|
8=FIX.4.4|9=0050|35=0|34=17|49=EXC|56=051|52=20190729-16:29:04.000|10=226|
8=FIX.4.4|9=60|35=0|34=17|49=051|50=051B17|52=20190729-16:29:05.162|56=EXC|10=112|
8=FIX.4.4|9=0050|35=0|34=18|49=EXC|56=051|52=20190729-16:29:34.000|10=230|
8=FIX.4.4|9=60|35=0|34=18|49=051|50=051B17|52=20190729-16:29:35.163|56=EXC|10=117|
8=FIX.4.4|9=0050|35=0|34=19|49=EXC|56=051|52=20190729-16:30:04.000|10=220|
8=FIX.4.4|9=60|35=0|34=19|49=051|50=051B17|52=20190729-16:30:05.163|56=EXC|10=107|
8=FIX.4.4|9=110|35=A|34=1|49=051|50=051B17|52=20190729-19:37:21.789|56=EXC|43=N|98=0|108=30|141=Y|553=051FCM001|554=051FCM001|10=111|
8=FIX.4.4|9=0067|35=A|34=1|49=EXC|56=051|52=20190729-19:37:21.832|98=0|108=30|141=Y|10=024|
8=FIX.4.4|9=0049|35=0|34=2|49=EXC|56=051|52=20190729-19:37:51.000|10=184|
8=FIX.4.4|9=59|35=0|34=2|49=051|50=051B17|52=20190729-19:37:52.746|56=EXC|10=078|
8=FIX.4.4|9=59|35=5|34=3|49=051|50=051B17|52=20190729-19:38:15.747|56=EXC|10=085|
8=FIX.4.4|9=0055|35=5|34=3|49=EXC|56=051|52=20190729-19:38:15.773|369=3|10=224|
8=FIX.4.4|9=110|35=A|34=1|49=051|50=051B17|52=20190729-20:08:54.383|56=EXC|43=N|98=0|108=30|141=Y|553=051FCM001|554=051FCM001|10=097|
8=FIX.4.4|9=0067|35=A|34=1|49=EXC|56=051|52=20190729-20:08:54.452|98=0|108=30|141=Y|10=018|
8=FIX.4.4|9=0049|35=0|34=2|49=EXC|56=051|52=20190729-20:09:24.000|10=175|
8=FIX.4.4|9=59|35=0|34=2|49=051|50=051B17|52=20190729-20:09:25.319|56=EXC|10=065|
8=FIX.4.4|9=0049|35=0|34=3|49=EXC|56=051|52=20190729-20:09:54.000|10=179|
8=FIX.4.4|9=59|35=0|34=3|49=051|50=051B17|52=20190729-20:09:55.326|56=EXC|10=067|
8=FIX.4.4|9=59|35=5|34=4|49=051|50=051B17|52=20190729-20:10:11.332|56=EXC|10=054|
8=FIX.4.4|9=0055|35=5|34=4|49=EXC|56=051|52=20190729-20:10:11.373|369=4|10=200|
8=FIX.4.4|9=110|35=A|34=1|49=051|50=051B17|52=20190729-20:31:38.455|56=EXC|43=N|98=0|108=30|141=Y|553=051FCM001|554=051FCM001|10=095|
8=FIX.4.4|9=0067|35=A|34=1|49=EXC|56=051|52=20190729-20:31:38.518|98=0|108=30|141=Y|10=019|
8=FIX.4.4|9=0049|35=0|34=2|49=EXC|56=051|52=20190729-20:32:08.000|10=173|
8=FIX.4.4|9=59|35=0|34=2|49=051|50=051B17|52=20190729-20:32:09.403|56=EXC|10=057|
8=FIX.4.4|9=0049|35=0|34=3|49=EXC|56=051|52=20190729-20:32:38.000|10=177|
8=FIX.4.4|9=59|35=0|34=3|49=051|50=051B17|52=20190729-20:32:39.400|56=EXC|10=058|
8=FIX.4.4|9=0049|35=0|34=4|49=EXC|56=051|52=20190729-20:33:08.000|10=176|
8=FIX.4.4|9=59|35=0|34=4|49=051|50=051B17|52=20190729-20:33:09.396|56=EXC|10=071|
8=FIX.4.4|9=59|35=5|34=5|49=051|50=051B17|52=20190729-20:33:11.411|56=EXC|10=058|
8=FIX.4.4|9=0055|35=5|34=5|49=EXC|56=051|52=20190729-20:33:11.460|369=5|10=204|
