8=FIX.4.4|9=110|35=A|34=1|49=001|50=001B27|52=20190705-20:43:25.690|56=EXC|43=N|98=0|108=30|141=Y|553=001FCM001|554=001FCM001|10=070|
8=FIX.4.4|9=0067|35=A|34=1|49=EXC|56=001|52=20190705-20:43:56.018|98=0|108=30|141=Y|10=006|
8=FIX.4.4|9=162|35=R|34=2|49=001|50=001B27|52=20190705-20:43:33.114|56=EXC|131=201907051543221_R|146=1|55=T24Q19F|22=M|762=FUIR|54=1|38=100|1=RF001|453=1|448=002B35|447=C|452=37|10=148|
8=FIX.4.4|9=0244|35=AI|34=2|49=EXC|56=001|57=001B27|52=20190705-20:44:03.412|131=201907051543221_R|453=4|448=001B27|447=C|452=12|448=001|447=C|452=1|448=001FCM001|447=C|452=36|448=002B35|447=C|452=37|55=T24Q19F|762=FUIR|48=26623|22=M|54=1|1=RF001|38=100|297=10|10=049|
8=FIX.4.4|9=0287|35=S|34=3|49=EXC|56=001|57=001B27|52=20190705-20:44:21.665|131=201907051543221_R|117=20190705-000000000009.00|55=T24Q19F|762=FUIR|48=26623|22=M|453=4|448=001B27|447=C|452=12|448=001|447=C|452=1|448=001FCM001|447=C|452=36|448=002B35|447=C|452=37|133=1000.000|135=100|62=20190830-22:00:00|10=082|
8=FIX.4.4|9=59|35=0|34=3|49=001|50=001B27|52=20190705-20:44:03.629|56=EXC|10=050|
8=FIX.4.4|9=0049|35=0|34=4|49=EXC|56=001|52=20190705-20:44:51.000|10=165|
8=FIX.4.4|9=68|35=2|34=4|49=001|50=001B27|52=20190705-20:44:20.713|56=EXC|7=3|16=0|10=171|
8=FIX.4.4|9=0318|35=S|34=3|43=Y|52=20190705-20:44:51.010|49=EXC|56=001|57=001B27|122=20190705-20:44:21.665|131=201907051543221_R|117=20190705-000000000009.00|55=T24Q19F|762=FUIR|48=26623|22=M|453=4|448=001B27|447=C|452=12|448=001|447=C|452=1|448=001FCM001|447=C|452=36|448=002B35|447=C|452=37|133=1000.000|135=100|62=20190830-22:00:00|10=070|
8=FIX.4.4|9=0065|35=4|34=4|43=Y|49=EXC|56=001|52=20190705-20:44:51.010|123=Y|36=5|10=175|
8=FIX.4.4|9=0054|35=4|34=5|49=EXC|56=001|52=20190705-20:44:51.010|36=6|10=132|
8=FIX.4.4|9=68|35=2|34=5|49=001|50=001B27|52=20190705-20:44:33.739|56=EXC|7=3|16=0|10=184|
8=FIX.4.4|9=0318|35=S|34=3|43=Y|52=20190705-20:45:04.035|49=EXC|56=001|57=001B27|122=20190705-20:44:21.665|131=201907051543221_R|117=20190705-000000000009.00|55=T24Q19F|762=FUIR|48=26623|22=M|453=4|448=001B27|447=C|452=12|448=001|447=C|452=1|448=001FCM001|447=C|452=36|448=002B35|447=C|452=37|133=1000.000|135=100|62=20190830-22:00:00|10=076|
8=FIX.4.4|9=0065|35=4|34=4|43=Y|49=EXC|56=001|52=20190705-20:45:04.035|123=Y|36=6|10=182|
8=FIX.4.4|9=0054|35=4|34=6|49=EXC|56=001|52=20190705-20:45:04.036|36=7|10=141|
8=FIX.4.4|9=0049|35=0|34=7|49=EXC|56=001|52=20190705-20:45:34.000|10=170|
8=FIX.4.4|9=59|35=0|34=6|49=001|50=001B27|52=20190705-20:45:04.629|56=EXC|10=055|
8=FIX.4.4|9=0049|35=0|34=8|49=EXC|56=001|52=20190705-20:46:04.000|10=169|
8=FIX.4.4|9=59|35=0|34=7|49=001|50=001B27|52=20190705-20:45:34.630|56=EXC|10=051|
8=FIX.4.4|9=0049|35=0|34=9|49=EXC|56=001|52=20190705-20:46:34.000|10=173|
8=FIX.4.4|9=59|35=0|34=8|49=001|50=001B27|52=20190705-20:46:04.629|56=EXC|10=058|
8=FIX.4.4|9=0050|35=0|34=10|49=EXC|56=001|52=20190705-20:47:04.000|10=203|
8=FIX.4.4|9=59|35=0|34=9|49=001|50=001B27|52=20190705-20:46:34.629|56=EXC|10=062|
8=FIX.4.4|9=82|35=A|34=1|49=001|50=001B27|52=20190709-15:38:37.117|56=EXC|43=N|98=0|108=30|141=Y|10=128|
8=FIX.4.4|9=82|35=A|34=1|49=001|50=001B27|52=20190709-15:44:17.045|56=EXC|43=N|98=0|108=30|141=Y|10=123|
8=FIX.4.4|9=82|35=A|34=1|49=001|50=001B27|52=20190710-20:51:09.784|56=EXC|43=N|98=0|108=30|141=Y|10=120|
8=FIX.4.4|9=82|35=A|34=1|49=001|50=001B27|52=20190710-20:52:09.966|56=EXC|43=N|98=0|108=30|141=Y|10=123|
8=FIX.4.4|9=82|35=A|34=1|49=001|50=001B27|52=20190710-20:55:09.577|56=EXC|43=N|98=0|108=30|141=Y|10=124|
8=FIX.4.4|9=82|35=A|34=1|49=001|50=001B27|52=20190710-20:56:08.883|56=EXC|43=N|98=0|108=30|141=Y|10=124|
8=FIX.4.4|9=82|35=A|34=1|49=001|50=001B27|52=20190710-20:57:08.899|56=EXC|43=N|98=0|108=30|141=Y|10=132|
8=FIX.4.4|9=82|35=A|34=1|49=001|50=001B27|52=20190710-21:15:20.004|56=EXC|43=N|98=0|108=30|141=Y|10=099|
8=FIX.4.4|9=82|35=A|34=1|49=001|50=001B27|52=20190710-21:18:09.837|56=EXC|43=N|98=0|108=30|141=Y|10=123|
8=FIX.4.4|9=82|35=A|34=1|49=001|50=001B27|52=20190710-21:19:09.733|56=EXC|43=N|98=0|108=30|141=Y|10=119|
8=FIX.4.4|9=82|35=A|34=1|49=001|50=001B27|52=20190711-15:18:00.169|56=EXC|43=N|98=0|108=30|141=Y|10=116|
