8=FIX.4.4|9=105|35=A|34=1|49=001|50=001B27|52=20190620-21:31:22.983|56=EXC|98=0|108=30|141=Y|553=001FCM001|554=001FCM001|10=083|
8=FIX.4.4|9=0067|35=A|34=1|49=EXC|56=001|52=20190620-21:31:23.543|98=0|108=30|141=Y|10=253|
8=FIX.4.4|9=105|35=A|34=1|49=001|50=001B27|52=20190620-21:41:55.199|56=EXC|98=0|108=30|141=Y|553=001FCM001|554=001FCM001|10=089|
8=FIX.4.4|9=0067|35=A|34=1|49=EXC|56=001|52=20190620-21:41:55.272|98=0|108=30|141=Y|10=002|
8=FIX.4.4|9=105|35=A|34=1|49=001|50=001B27|52=20190620-21:42:43.949|56=EXC|98=0|108=30|141=Y|553=001FCM001|554=001FCM001|10=090|
8=FIX.4.4|9=0067|35=A|34=1|49=EXC|56=001|52=20190620-21:42:44.039|98=0|108=30|141=Y|10=002|
8=FIX.4.4|9=105|35=A|34=1|49=001|50=001B27|52=20190620-21:54:12.974|56=EXC|98=0|108=30|141=Y|553=001FCM001|554=001FCM001|10=087|
8=FIX.4.4|9=0067|35=A|34=1|49=EXC|56=001|52=20190620-21:54:13.334|98=0|108=30|141=Y|10=255|
8=FIX.4.4|9=105|35=A|34=1|49=001|50=001B27|52=20190620-21:59:27.503|56=EXC|98=0|108=30|141=Y|553=001FCM001|554=001FCM001|10=086|
8=FIX.4.4|9=0067|35=A|34=1|49=EXC|56=001|52=20190620-21:59:27.979|98=0|108=30|141=Y|10=024|
8=FIX.4.4|9=105|35=A|34=1|49=001|50=001B27|52=20190621-13:46:46.353|56=EXC|98=0|108=30|141=Y|553=001FCM001|554=001FCM001|10=088|
8=FIX.4.4|9=0067|35=A|34=1|49=EXC|56=001|52=20190621-13:46:46.381|98=0|108=30|141=Y|10=010|
8=FIX.4.4|9=105|35=A|34=1|49=001|50=001B27|52=20190621-13:51:58.396|56=EXC|98=0|108=30|141=Y|553=001FCM001|554=001FCM001|10=094|
8=FIX.4.4|9=0067|35=A|34=1|49=EXC|56=001|52=20190621-13:51:58.420|98=0|108=30|141=Y|10=003|
8=FIX.4.4|9=105|35=A|34=1|49=001|50=001B27|52=20190621-14:01:12.611|56=EXC|98=0|108=30|141=Y|553=001FCM001|554=001FCM001|10=070|
8=FIX.4.4|9=0067|35=A|34=1|49=EXC|56=001|52=20190621-14:01:12.656|98=0|108=30|141=Y|10=000|
8=FIX.4.4|9=105|35=A|34=1|49=001|50=001B27|52=20190621-14:02:04.254|56=EXC|98=0|108=30|141=Y|553=001FCM001|554=001FCM001|10=075|
8=FIX.4.4|9=0067|35=A|34=1|49=EXC|56=001|52=20190621-14:02:04.298|98=0|108=30|141=Y|10=004|
8=FIX.4.4|9=105|35=A|34=1|49=001|50=001B27|52=20190621-15:58:27.223|56=EXC|98=0|108=30|141=Y|553=001FCM001|554=001FCM001|10=088|
8=FIX.4.4|9=0067|35=A|34=1|49=EXC|56=001|52=20190621-15:58:27.335|98=0|108=30|141=Y|10=013|
8=FIX.4.4|9=105|35=A|34=1|49=001|50=001B27|52=20190621-16:01:48.240|56=EXC|98=0|108=30|141=Y|553=001FCM001|554=001FCM001|10=079|
8=FIX.4.4|9=0067|35=A|34=1|49=EXC|56=001|52=20190621-16:01:48.293|98=0|108=30|141=Y|10=008|
8=FIX.4.4|9=105|35=A|34=1|49=001|50=001B27|52=20190621-16:17:31.033|56=EXC|98=0|108=30|141=Y|553=001FCM001|554=001FCM001|10=078|
8=FIX.4.4|9=0067|35=A|34=1|49=EXC|56=001|52=20190621-16:17:31.128|98=0|108=30|141=Y|10=004|
8=FIX.4.4|9=105|35=A|34=1|49=001|50=001B27|52=20190621-16:24:24.104|56=EXC|98=0|108=30|141=Y|553=001FCM001|554=001FCM001|10=077|
8=FIX.4.4|9=0067|35=A|34=1|49=EXC|56=001|52=20190621-16:24:24.170|98=0|108=30|141=Y|10=001|
8=FIX.4.4|9=105|35=A|34=1|49=001|50=001B27|52=20190621-16:29:19.045|56=EXC|98=0|108=30|141=Y|553=001FCM001|554=001FCM001|10=090|
8=FIX.4.4|9=0067|35=A|34=1|49=EXC|56=001|52=20190621-16:29:19.100|98=0|108=30|141=Y|10=003|
8=FIX.4.4|9=105|35=A|34=1|49=001|50=001B27|52=20190625-14:28:25.917|56=EXC|98=0|108=30|141=Y|553=001FCM001|554=001FCM001|10=096|
8=FIX.4.4|9=0067|35=A|34=1|49=EXC|56=001|52=20190627-14:28:15.611|98=0|108=30|141=Y|10=009|
8=FIX.4.4|9=105|35=A|34=1|49=001|50=001B27|52=20190625-14:51:25.795|56=EXC|98=0|108=30|141=Y|553=001FCM001|554=001FCM001|10=096|
8=FIX.4.4|9=0067|35=A|34=1|49=EXC|56=001|52=20190627-14:51:15.524|98=0|108=30|141=Y|10=008|
8=FIX.4.4|9=105|35=A|34=1|49=001|50=001B27|52=20190625-19:44:14.824|56=EXC|98=0|108=30|141=Y|553=001FCM001|554=001FCM001|10=094|
8=FIX.4.4|9=0067|35=A|34=1|49=EXC|56=001|52=20190627-19:44:14.903|98=0|108=30|141=Y|10=015|
8=FIX.4.4|9=105|35=A|34=1|49=001|50=001B27|52=20190625-19:45:34.941|56=EXC|98=0|108=30|141=Y|553=001FCM001|554=001FCM001|10=097|
8=FIX.4.4|9=0067|35=A|34=1|49=EXC|56=001|52=20190627-19:45:34.989|98=0|108=30|141=Y|10=032|
8=FIX.4.4|9=105|35=A|34=1|49=001|50=001B27|52=20190625-19:54:23.623|56=EXC|98=0|108=30|141=Y|553=001FCM001|554=001FCM001|10=092|
8=FIX.4.4|9=0067|35=A|34=1|49=EXC|56=001|52=20190627-19:54:23.721|98=0|108=30|141=Y|10=014|
8=FIX.4.4|9=105|35=A|34=1|49=001|50=001B27|52=20190625-19:55:23.456|56=EXC|98=0|108=30|141=Y|553=001FCM001|554=001FCM001|10=097|
8=FIX.4.4|9=0067|35=A|34=1|49=EXC|56=001|52=20190627-19:55:23.500|98=0|108=30|141=Y|10=010|
8=FIX.4.4|9=105|35=A|34=1|49=001|50=001B27|52=20190625-20:02:36.326|56=EXC|98=0|108=30|141=Y|553=001FCM001|554=001FCM001|10=081|
8=FIX.4.4|9=0067|35=A|34=1|49=EXC|56=001|52=20190627-20:02:36.402|98=0|108=30|141=Y|10=255|
8=FIX.4.4|9=105|35=A|34=1|49=001|50=001B27|52=20190626-19:09:44.044|56=EXC|98=0|108=30|141=Y|553=001FCM001|554=001FCM001|10=093|
8=FIX.4.4|9=0067|35=A|34=1|49=EXC|56=001|52=20190628-19:09:44.142|98=0|108=30|141=Y|10=015|
8=FIX.4.4|9=105|35=A|34=1|49=001|50=001B27|52=20190626-20:09:29.460|56=EXC|98=0|108=30|141=Y|553=001FCM001|554=001FCM001|10=090|
8=FIX.4.4|9=0067|35=A|34=1|49=EXC|56=001|52=20190628-20:09:29.522|98=0|108=30|141=Y|10=012|
8=FIX.4.4|9=0049|35=0|34=2|49=EXC|56=001|52=20190628-20:09:59.000|10=176|
8=FIX.4.4|9=59|35=0|34=2|49=001|50=001B27|52=20190626-20:10:00.427|56=EXC|10=037|
8=FIX.4.4|9=105|35=A|34=1|49=001|50=001B27|52=20190626-20:10:59.773|56=EXC|98=0|108=30|141=Y|553=001FCM001|554=001FCM001|10=092|
8=FIX.4.4|9=0067|35=A|34=1|49=EXC|56=001|52=20190628-20:10:59.832|98=0|108=30|141=Y|10=011|
8=FIX.4.4|9=0049|35=0|34=2|49=EXC|56=001|52=20190628-20:11:29.000|10=166|
8=FIX.4.4|9=59|35=0|34=2|49=001|50=001B27|52=20190626-20:11:30.718|56=EXC|10=044|
8=FIX.4.4|9=105|35=A|34=1|49=001|50=001B27|52=20190626-20:16:07.707|56=EXC|98=0|108=30|141=Y|553=001FCM001|554=001FCM001|10=088|
8=FIX.4.4|9=0067|35=A|34=1|49=EXC|56=001|52=20190628-20:16:07.781|98=0|108=30|141=Y|10=013|
8=FIX.4.4|9=105|35=A|34=1|49=001|50=001B27|52=20190626-20:20:26.202|56=EXC|98=0|108=30|141=Y|553=001FCM001|554=001FCM001|10=074|
8=FIX.4.4|9=0067|35=A|34=1|49=EXC|56=001|52=20190628-20:20:26.260|98=0|108=30|141=Y|10=001|
8=FIX.4.4|9=105|35=A|34=1|49=001|50=001B27|52=20190626-20:34:32.276|56=EXC|98=0|108=30|141=Y|553=001FCM001|554=001FCM001|10=087|
8=FIX.4.4|9=0067|35=A|34=1|49=EXC|56=001|52=20190628-20:34:32.386|98=0|108=30|141=Y|10=012|
8=FIX.4.4|9=105|35=A|34=1|49=001|50=001B27|52=20190626-20:45:46.126|56=EXC|98=0|108=30|141=Y|553=001FCM001|554=001FCM001|10=088|
8=FIX.4.4|9=0067|35=A|34=1|49=EXC|56=001|52=20190628-20:45:46.242|98=0|108=30|141=Y|10=010|
8=FIX.4.4|9=0049|35=0|34=2|49=EXC|56=001|52=20190628-20:46:16.000|10=170|
8=FIX.4.4|9=59|35=0|34=2|49=001|50=001B27|52=20190626-20:46:17.075|56=EXC|10=053|
8=FIX.4.4|9=0049|35=0|34=3|49=EXC|56=001|52=20190628-20:46:46.000|10=174|
8=FIX.4.4|9=59|35=0|34=3|49=001|50=001B27|52=20190626-20:46:47.075|56=EXC|10=057|
8=FIX.4.4|9=0049|35=0|34=4|49=EXC|56=001|52=20190628-20:47:16.000|10=173|
8=FIX.4.4|9=59|35=0|34=4|49=001|50=001B27|52=20190626-20:47:17.074|56=EXC|10=055|
8=FIX.4.4|9=105|35=A|34=1|49=001|50=001B27|52=20190626-20:47:57.457|56=EXC|98=0|108=30|141=Y|553=001FCM001|554=001FCM001|10=099|
8=FIX.4.4|9=0067|35=A|34=1|49=EXC|56=001|52=20190628-20:47:57.530|98=0|108=30|141=Y|10=014|
8=FIX.4.4|9=105|35=A|34=1|49=001|50=001B27|52=20190626-21:05:42.328|56=EXC|98=0|108=30|141=Y|553=001FCM001|554=001FCM001|10=085|
8=FIX.4.4|9=0067|35=A|34=1|49=EXC|56=001|52=20190628-21:05:41.893|98=0|108=30|141=Y|10=014|
8=FIX.4.4|9=105|35=A|34=1|49=001|50=001B27|52=20190626-21:06:19.604|56=EXC|98=0|108=30|141=Y|553=001FCM001|554=001FCM001|10=087|
8=FIX.4.4|9=0067|35=A|34=1|49=EXC|56=001|52=20190628-21:06:19.129|98=0|108=30|141=Y|10=012|
8=FIX.4.4|9=105|35=A|34=1|49=001|50=001B27|52=20190626-21:07:10.376|56=EXC|98=0|108=30|141=Y|553=001FCM001|554=001FCM001|10=085|
8=FIX.4.4|9=0067|35=A|34=1|49=EXC|56=001|52=20190628-21:07:09.934|98=0|108=30|141=Y|10=016|
8=FIX.4.4|9=0049|35=0|34=2|49=EXC|56=001|52=20190628-21:07:39.000|10=173|
8=FIX.4.4|9=105|35=A|34=1|49=001|50=001B27|52=20190626-21:09:36.569|56=EXC|98=0|108=30|141=Y|553=001FCM001|554=001FCM001|10=099|
8=FIX.4.4|9=0067|35=A|34=1|49=EXC|56=001|52=20190628-21:09:36.127|98=0|108=30|141=Y|10=012|
8=FIX.4.4|9=105|35=A|34=1|49=001|50=001B27|52=20190626-21:10:30.579|56=EXC|98=0|108=30|141=Y|553=001FCM001|554=001FCM001|10=086|
8=FIX.4.4|9=0067|35=A|34=1|49=EXC|56=001|52=20190628-21:10:30.104|98=0|108=30|141=Y|10=249|
8=FIX.4.4|9=105|35=A|34=1|49=001|50=001B27|52=20190626-21:11:06.576|56=EXC|98=0|108=30|141=Y|553=001FCM001|554=001FCM001|10=087|
8=FIX.4.4|9=0067|35=A|34=1|49=EXC|56=001|52=20190628-21:11:06.100|98=0|108=30|141=Y|10=249|
8=FIX.4.4|9=105|35=A|34=1|49=001|50=001B27|52=20190626-21:25:26.788|56=EXC|98=0|108=30|141=Y|553=001FCM001|554=001FCM001|10=099|
8=FIX.4.4|9=0067|35=A|34=1|49=EXC|56=001|52=20190628-21:25:26.686|98=0|108=30|141=Y|10=019|
8=FIX.4.4|9=0049|35=0|34=2|49=EXC|56=001|52=20190628-21:25:56.000|10=172|
8=FIX.4.4|9=105|35=A|34=1|49=001|50=001B27|52=20190626-21:35:17.608|56=EXC|98=0|108=30|141=Y|553=001FCM001|554=001FCM001|10=091|
8=FIX.4.4|9=0067|35=A|34=1|49=EXC|56=001|52=20190628-21:35:17.715|98=0|108=30|141=Y|10=013|
8=FIX.4.4|9=0049|35=0|34=2|49=EXC|56=001|52=20190628-21:35:47.000|10=173|
8=FIX.4.4|9=59|35=0|34=2|49=001|50=001B27|52=20190626-21:35:48.557|56=EXC|10=061|
8=FIX.4.4|9=105|35=A|34=1|49=001|50=001B27|52=20190626-21:55:41.837|56=EXC|98=0|108=30|141=Y|553=001FCM001|554=001FCM001|10=094|
8=FIX.4.4|9=0067|35=A|34=1|49=EXC|56=001|52=20190628-21:55:41.908|98=0|108=30|141=Y|10=016|
8=FIX.4.4|9=0049|35=0|34=2|49=EXC|56=001|52=20190628-21:56:11.000|10=167|
8=FIX.4.4|9=59|35=0|34=2|49=001|50=001B27|52=20190626-21:56:12.789|56=EXC|10=062|
8=FIX.4.4|9=99|35=A|34=3|49=001|50=001B27|52=20190626-21:56:28.073|56=EXC|98=0|108=30|553=001FCM001|554=001FCM001|10=013|
8=FIX.4.4|9=0061|35=A|34=3|49=EXC|56=001|52=20190628-21:56:28.144|98=0|108=30|10=221|
8=FIX.4.4|9=0049|35=0|34=4|49=EXC|56=001|52=20190628-21:56:58.000|10=180|
8=FIX.4.4|9=59|35=0|34=4|49=001|50=001B27|52=20190626-21:56:59.050|56=EXC|10=056|
8=FIX.4.4|9=105|35=A|34=1|49=001|50=001B27|52=20190626-22:01:39.606|56=EXC|98=0|108=30|141=Y|553=001FCM001|554=001FCM001|10=087|
8=FIX.4.4|9=0067|35=A|34=1|49=EXC|56=001|52=20190628-22:01:39.828|98=0|108=30|141=Y|10=016|
8=FIX.4.4|9=105|35=A|34=1|49=001|50=001B27|52=20190626-22:02:08.400|56=EXC|98=0|108=30|141=Y|553=001FCM001|554=001FCM001|10=076|
8=FIX.4.4|9=0067|35=A|34=1|49=EXC|56=001|52=20190628-22:02:08.639|98=0|108=30|141=Y|10=013|
8=FIX.4.4|9=77|35=A|34=1|49=001|50=001B27|52=20190627-19:53:17.454|56=EXC|98=0|108=30|141=Y|10=147|
8=FIX.4.4|9=105|35=A|34=1|49=001|50=001B27|52=20190627-19:54:05.859|56=EXC|98=0|108=30|141=Y|553=001FCM001|554=001FCM001|10=105|
8=FIX.4.4|9=0067|35=A|34=1|49=EXC|56=001|52=20190627-19:54:05.951|98=0|108=30|141=Y|10=019|
8=FIX.4.4|9=105|35=A|34=1|49=001|50=001B27|52=20190628-14:45:15.079|56=EXC|98=0|108=30|141=Y|553=001FCM001|554=001FCM001|10=096|
8=FIX.4.4|9=0067|35=A|34=1|49=EXC|56=001|52=20190628-14:45:15.158|98=0|108=30|141=Y|10=015|
8=FIX.4.4|9=0049|35=0|34=2|49=EXC|56=001|52=20190628-14:45:45.000|10=174|
8=FIX.4.4|9=59|35=0|34=2|49=001|50=001B27|52=20190628-14:45:45.980|56=EXC|10=063|
8=FIX.4.4|9=105|35=A|34=1|49=001|50=001B27|52=20190702-17:24:05.757|56=EXC|98=0|108=30|141=Y|553=001FCM001|554=001FCM001|10=091|
8=FIX.4.4|9=0067|35=A|34=1|49=EXC|56=001|52=20190702-17:24:05.816|98=0|108=30|141=Y|10=008|
8=FIX.4.4|9=0049|35=0|34=2|49=EXC|56=001|52=20190702-17:24:35.000|10=166|
8=FIX.4.4|9=59|35=0|34=2|49=001|50=001B27|52=20190702-17:24:36.691|56=EXC|10=055|
8=FIX.4.4|9=105|35=A|34=1|49=001|50=001B27|52=20190702-17:44:37.158|56=EXC|98=0|108=30|141=Y|553=001FCM001|554=001FCM001|10=093|
8=FIX.4.4|9=0067|35=A|34=1|49=EXC|56=001|52=20190702-17:44:37.210|98=0|108=30|141=Y|10=003|
8=FIX.4.4|9=0049|35=0|34=2|49=EXC|56=001|52=20190702-17:45:07.000|10=168|
8=FIX.4.4|9=59|35=0|34=2|49=001|50=001B27|52=20190702-17:45:08.121|56=EXC|10=045|
8=FIX.4.4|9=105|35=A|34=1|49=001|50=001B27|52=20190702-19:37:34.948|56=EXC|98=0|108=30|141=Y|553=001FCM001|554=001FCM001|10=101|
8=FIX.4.4|9=0067|35=A|34=1|49=EXC|56=001|52=20190702-19:37:35.138|98=0|108=30|141=Y|10=014|
8=FIX.4.4|9=110|35=A|34=1|49=001|50=001B27|52=20190702-20:10:00.992|56=EXC|43=Y|98=0|108=30|141=Y|553=001FCM001|554=001FCM001|10=070|
8=FIX.4.4|9=0067|35=A|34=1|49=EXC|56=001|52=20190702-20:10:01.050|98=0|108=30|141=Y|10=239|
8=FIX.4.4|9=110|35=A|34=1|49=001|50=001B27|52=20190702-21:28:51.515|56=EXC|43=Y|98=0|108=30|141=Y|553=001FCM001|554=001FCM001|10=077|
8=FIX.4.4|9=0067|35=A|34=1|49=EXC|56=001|52=20190702-21:28:51.612|98=0|108=30|141=Y|10=002|
8=FIX.4.4|9=0049|35=0|34=2|49=EXC|56=001|52=20190702-21:29:21.000|10=161|
8=FIX.4.4|9=59|35=0|34=2|49=001|50=001B27|52=20190702-21:29:22.443|56=EXC|10=045|
8=FIX.4.4|9=110|35=A|34=1|49=001|50=001B27|52=20190702-21:33:16.640|56=EXC|43=Y|98=0|108=30|141=Y|553=001FCM001|554=001FCM001|10=073|
8=FIX.4.4|9=0067|35=A|34=1|49=EXC|56=001|52=20190702-21:33:16.724|98=0|108=30|141=Y|10=003|
8=FIX.4.4|9=110|35=A|34=1|49=001|50=001B27|52=20190702-21:36:37.822|56=EXC|43=Y|98=0|108=30|141=Y|553=001FCM001|554=001FCM001|10=081|
8=FIX.4.4|9=0067|35=A|34=1|49=EXC|56=001|52=20190702-21:36:37.912|98=0|108=30|141=Y|10=008|
8=FIX.4.4|9=0049|35=0|34=2|49=EXC|56=001|52=20190702-21:37:07.000|10=164|
8=FIX.4.4|9=59|35=0|34=2|49=001|50=001B27|52=20190702-21:37:08.762|56=EXC|10=052|
8=FIX.4.4|9=110|35=A|34=1|49=001|50=001B27|52=20190702-21:39:52.163|56=EXC|43=Y|98=0|108=30|141=Y|553=001FCM001|554=001FCM001|10=079|
8=FIX.4.4|9=0067|35=A|34=1|49=EXC|56=001|52=20190702-21:39:52.260|98=0|108=30|141=Y|10=004|
8=FIX.4.4|9=110|35=A|34=1|49=001|50=001B27|52=20190703-15:49:21.875|56=EXC|43=Y|98=0|108=30|141=Y|553=001FCM001|554=001FCM001|10=090|
8=FIX.4.4|9=0067|35=A|34=1|49=EXC|56=001|52=20190703-15:55:15.009|98=0|108=30|141=Y|10=006|
8=FIX.4.4|9=110|35=A|34=1|49=001|50=001B27|52=20190703-17:04:33.123|56=EXC|43=Y|98=0|108=30|141=Y|553=001FCM001|554=001FCM001|10=072|
8=FIX.4.4|9=0067|35=A|34=1|49=EXC|56=001|52=20190703-17:10:26.336|98=0|108=30|141=Y|10=004|
8=FIX.4.4|9=110|35=A|34=1|49=001|50=001B27|52=20190703-21:16:39.672|56=EXC|43=Y|98=0|108=30|141=Y|553=001FCM001|554=001FCM001|10=085|
8=FIX.4.4|9=0067|35=A|34=1|49=EXC|56=001|52=20190703-21:22:33.094|98=0|108=30|141=Y|10=001|
8=FIX.4.4|9=186|35=R|34=2|49=001|50=001B27|52=20190703-21:16:47.305|56=EXC|131=201907031616361_R|146=1|55=TFIC13280425|22=M|762=RFQF|54=1|38=500000000|453=2|448=002B35|447=C|452=37|448=DCV|447=C|452=10|10=067|
8=FIX.4.4|9=0268|35=AI|34=2|49=EXC|56=001|57=001B27|52=20190703-21:22:40.660|131=201907031616361_R|453=5|448=DCV|447=C|452=10|448=001B27|447=C|452=12|448=001|447=C|452=1|448=001FCM001|447=C|452=36|448=002B35|447=C|452=37|55=TFIC13280425|762=RFQF|48=20626|22=M|54=1|38=500000000|297=10|10=216|
8=FIX.4.4|9=0316|35=S|34=3|49=EXC|56=001|57=001B27|52=20190703-21:23:00.972|131=201907031616361_R|117=20190703-000000000016.00|55=TFIC13280425|762=RFQF|48=20626|22=M|453=5|448=DCV|447=C|452=10|448=001B27|447=C|452=12|448=001|447=C|452=1|448=001FCM001|447=C|452=36|448=002B35|447=C|452=37|634=3.000|135=500000000|62=20190830-22:00:00|10=241|
8=FIX.4.4|9=59|35=0|34=3|49=001|50=001B27|52=20190703-21:17:17.610|56=EXC|10=044|
8=FIX.4.4|9=148|35=AJ|34=4|49=001|50=001B27|52=20190703-21:17:28.372|56=EXC|54=1|55=TFIC13280425|117=20190703-000000000016.00|693=201907031616361_AJ|694=1|762=RFQF|10=082|
8=FIX.4.4|9=0517|35=8|34=4|49=EXC|56=001|57=001B27|52=20190703-21:23:21.729|11=201907031616361_AJ|17=13|37=0|150=F|1080=20190703-000000000016.00|1081=5|453=6|448=001B27|447=C|452=12|448=001|447=C|452=1|448=002B35|447=C|452=37|448=002|447=C|452=17|448=001FCM001|447=C|452=36|448=DCV|447=C|452=10|55=TFIC13280425|762=RFQF|48=20626|22=M|6=84.197|14=500000000|31=84.197|32=500000000|38=500000000|39=2|20102=84.197|54=1|60=20190703-21:23:21.729|75=20190703|63=1|64=20190703|151=0|1623=3.000|381=420986000.000|880=201907030000000011|828=99|10=185|
8=FIX.4.4|9=0049|35=0|34=5|49=EXC|56=001|52=20190703-21:23:51.000|10=162|
8=FIX.4.4|9=59|35=0|34=5|49=001|50=001B27|52=20190703-21:17:58.616|56=EXC|10=057|
8=FIX.4.4|9=59|35=5|34=6|49=001|50=001B27|52=20190703-21:18:00.619|56=EXC|10=054|
8=FIX.4.4|9=0049|35=5|34=6|49=EXC|56=001|52=20190703-21:23:53.968|10=193|
8=FIX.4.4|9=110|35=A|34=1|49=001|50=001B27|52=20190703-21:24:25.467|56=EXC|43=Y|98=0|108=30|141=Y|553=001FCM001|554=001FCM001|10=081|
8=FIX.4.4|9=0067|35=A|34=1|49=EXC|56=001|52=20190703-21:30:18.857|98=0|108=30|141=Y|10=010|
8=FIX.4.4|9=186|35=R|34=2|49=001|50=001B27|52=20190703-21:24:32.784|56=EXC|131=201907031624221_R|146=1|55=TFIC13280425|22=M|762=RFQF|54=1|38=500000000|453=2|448=002B35|447=C|452=37|448=DCV|447=C|452=10|10=065|
8=FIX.4.4|9=0268|35=AI|34=2|49=EXC|56=001|57=001B27|52=20190703-21:30:26.144|131=201907031624221_R|453=5|448=DCV|447=C|452=10|448=001B27|447=C|452=12|448=001|447=C|452=1|448=001FCM001|447=C|452=36|448=002B35|447=C|452=37|55=TFIC13280425|762=RFQF|48=20626|22=M|54=1|38=500000000|297=10|10=210|
8=FIX.4.4|9=0316|35=S|34=3|49=EXC|56=001|57=001B27|52=20190703-21:30:46.636|131=201907031624221_R|117=20190703-000000000017.00|55=TFIC13280425|762=RFQF|48=20626|22=M|453=5|448=DCV|447=C|452=10|448=001B27|447=C|452=12|448=001|447=C|452=1|448=001FCM001|447=C|452=36|448=002B35|447=C|452=37|634=3.000|135=500000000|62=20190830-22:00:00|10=241|
8=FIX.4.4|9=59|35=0|34=3|49=001|50=001B27|52=20190703-21:25:03.433|56=EXC|10=041|
8=FIX.4.4|9=148|35=AJ|34=4|49=001|50=001B27|52=20190703-21:25:13.929|56=EXC|54=1|55=TFIC13280425|117=20190703-000000000017.00|693=201907031624221_AJ|694=1|762=RFQF|10=078|
8=FIX.4.4|9=0517|35=8|34=4|49=EXC|56=001|57=001B27|52=20190703-21:31:07.285|11=201907031624221_AJ|17=14|37=0|150=F|1080=20190703-000000000017.00|1081=5|453=6|448=001B27|447=C|452=12|448=001|447=C|452=1|448=002B35|447=C|452=37|448=002|447=C|452=17|448=001FCM001|447=C|452=36|448=DCV|447=C|452=10|55=TFIC13280425|762=RFQF|48=20626|22=M|6=84.197|14=500000000|31=84.197|32=500000000|38=500000000|39=2|20102=84.197|54=1|60=20190703-21:31:07.285|75=20190703|63=1|64=20190703|151=0|1623=3.000|381=420986000.000|880=201907030000000012|828=99|10=182|
8=FIX.4.4|9=110|35=A|34=1|49=001|50=001B27|52=20190704-14:15:39.296|56=EXC|43=Y|98=0|108=30|141=Y|553=001FCM001|554=001FCM001|10=089|
8=FIX.4.4|9=0067|35=A|34=1|49=EXC|56=001|52=20190704-14:21:33.349|98=0|108=30|141=Y|10=006|
8=FIX.4.4|9=185|35=R|34=2|49=001|50=001B27|52=20190704-14:15:46.718|56=EXC|131=20190704915361_R|146=1|55=TFIC13280425|22=M|762=RFQF|54=1|38=500000000|453=2|448=002B35|447=C|452=37|448=DCV|447=C|452=10|10=029|
8=FIX.4.4|9=0267|35=AI|34=2|49=EXC|56=001|57=001B27|52=20190704-14:21:40.741|131=20190704915361_R|453=5|448=DCV|447=C|452=10|448=001B27|447=C|452=12|448=001|447=C|452=1|448=001FCM001|447=C|452=36|448=002B35|447=C|452=37|55=TFIC13280425|762=RFQF|48=20626|22=M|54=1|38=500000000|297=10|10=171|
8=FIX.4.4|9=0315|35=S|34=3|49=EXC|56=001|57=001B27|52=20190704-14:22:01.079|131=20190704915361_R|117=20190704-000000000002.00|55=TFIC13280425|762=RFQF|48=20626|22=M|453=5|448=DCV|447=C|452=10|448=001B27|447=C|452=12|448=001|447=C|452=1|448=001FCM001|447=C|452=36|448=002B35|447=C|452=37|634=3.000|135=500000000|62=20190830-22:00:00|10=191|
8=FIX.4.4|9=59|35=0|34=3|49=001|50=001B27|52=20190704-14:16:17.256|56=EXC|10=052|
8=FIX.4.4|9=147|35=AJ|34=4|49=001|50=001B27|52=20190704-14:16:27.686|56=EXC|54=1|55=TFIC13280425|117=20190704-000000000002.00|693=20190704915361_AJ|694=1|762=RFQF|10=040|
8=FIX.4.4|9=0515|35=8|34=4|49=EXC|56=001|57=001B27|52=20190704-14:22:21.715|11=20190704915361_AJ|17=1|37=0|150=F|1080=20190704-000000000002.00|1081=5|453=6|448=001B27|447=C|452=12|448=001|447=C|452=1|448=002B35|447=C|452=37|448=002|447=C|452=17|448=001FCM001|447=C|452=36|448=DCV|447=C|452=10|55=TFIC13280425|762=RFQF|48=20626|22=M|6=84.204|14=500000000|31=84.204|32=500000000|38=500000000|39=2|20102=84.204|54=1|60=20190704-14:22:21.715|75=20190704|63=1|64=20190704|151=0|1623=3.000|381=421020500.000|880=201907040000000001|828=99|10=030|
8=FIX.4.4|9=127|35=j|34=5|49=001|50=001B27|52=20190704-14:16:53.996|56=EXC|45=4|58=Conditionally Required Field Missing, field=453|372=8|380=5|10=046|
8=FIX.4.4|9=0109|35=j|34=5|49=EXC|56=001|57=001B27|52=20190704-14:22:48.016|45=5|372=j|380=3|58=(1468): MsgType(#35) invalido|10=062|
8=FIX.4.4|9=0049|35=0|34=6|49=EXC|56=001|52=20190704-14:23:18.000|10=169|
8=FIX.4.4|9=59|35=0|34=6|49=001|50=001B27|52=20190704-14:17:24.257|56=EXC|10=055|
8=FIX.4.4|9=110|35=A|34=1|49=001|50=001B27|52=20190704-14:20:57.457|56=EXC|43=Y|98=0|108=30|141=Y|553=001FCM001|554=001FCM001|10=084|
8=FIX.4.4|9=0067|35=A|34=1|49=EXC|56=001|52=20190704-14:26:51.528|98=0|108=30|141=Y|10=010|
8=FIX.4.4|9=185|35=R|34=2|49=001|50=001B27|52=20190704-14:21:04.835|56=EXC|131=20190704920541_R|146=1|55=TFIC13280425|22=M|762=RFQF|54=1|38=500000000|453=2|448=002B35|447=C|452=37|448=DCV|447=C|452=10|10=016|
8=FIX.4.4|9=0267|35=AI|34=2|49=EXC|56=001|57=001B27|52=20190704-14:26:58.857|131=20190704920541_R|453=5|448=DCV|447=C|452=10|448=001B27|447=C|452=12|448=001|447=C|452=1|448=001FCM001|447=C|452=36|448=002B35|447=C|452=37|55=TFIC13280425|762=RFQF|48=20626|22=M|54=1|38=500000000|297=10|10=189|
8=FIX.4.4|9=0315|35=S|34=3|49=EXC|56=001|57=001B27|52=20190704-14:27:19.372|131=20190704920541_R|117=20190704-000000000003.00|55=TFIC13280425|762=RFQF|48=20626|22=M|453=5|448=DCV|447=C|452=10|448=001B27|447=C|452=12|448=001|447=C|452=1|448=001FCM001|447=C|452=36|448=002B35|447=C|452=37|634=3.000|135=500000000|62=20190830-22:00:00|10=198|
8=FIX.4.4|9=59|35=0|34=3|49=001|50=001B27|52=20190704-14:21:35.406|56=EXC|10=045|
8=FIX.4.4|9=147|35=AJ|34=4|49=001|50=001B27|52=20190704-14:21:46.058|56=EXC|54=1|55=TFIC13280425|117=20190704-000000000003.00|693=20190704920541_AJ|694=1|762=RFQF|10=027|
8=FIX.4.4|9=0515|35=8|34=4|49=EXC|56=001|57=001B27|52=20190704-14:27:40.081|11=20190704920541_AJ|17=2|37=0|150=F|1080=20190704-000000000003.00|1081=5|453=6|448=001B27|447=C|452=12|448=001|447=C|452=1|448=002B35|447=C|452=37|448=002|447=C|452=17|448=001FCM001|447=C|452=36|448=DCV|447=C|452=10|55=TFIC13280425|762=RFQF|48=20626|22=M|6=84.204|14=500000000|31=84.204|32=500000000|38=500000000|39=2|20102=84.204|54=1|60=20190704-14:27:40.081|75=20190704|63=1|64=20190704|151=0|1623=3.000|381=421020500.000|880=201907040000000002|828=99|10=033|
8=FIX.4.4|9=127|35=j|34=5|49=001|50=001B27|52=20190704-14:22:12.159|56=EXC|45=4|58=Conditionally Required Field Missing, field=453|372=8|380=5|10=029|
8=FIX.4.4|9=0109|35=j|34=5|49=EXC|56=001|57=001B27|52=20190704-14:28:06.189|45=5|372=j|380=3|58=(1468): MsgType(#35) invalido|10=073|
8=FIX.4.4|9=110|35=A|34=1|49=001|50=001B27|52=20190704-15:09:50.500|56=EXC|43=Y|98=0|108=30|141=Y|553=001FCM001|554=001FCM001|10=074|
8=FIX.4.4|9=0067|35=A|34=1|49=EXC|56=001|52=20190704-15:15:44.600|98=0|108=30|141=Y|10=002|
8=FIX.4.4|9=186|35=R|34=2|49=001|50=001B27|52=20190704-15:09:57.831|56=EXC|131=201907041009471_R|146=1|55=TFIC13280425|22=M|762=RFQF|54=1|38=500000000|453=2|448=002B35|447=C|452=37|448=DCV|447=C|452=10|10=077|
8=FIX.4.4|9=0268|35=AI|34=2|49=EXC|56=001|57=001B27|52=20190704-15:15:51.908|131=201907041009471_R|453=5|448=DCV|447=C|452=10|448=001B27|447=C|452=12|448=001|447=C|452=1|448=001FCM001|447=C|452=36|448=002B35|447=C|452=37|55=TFIC13280425|762=RFQF|48=20626|22=M|54=1|38=500000000|297=10|10=228|
8=FIX.4.4|9=0316|35=S|34=3|49=EXC|56=001|57=001B27|52=20190704-15:16:12.233|131=201907041009471_R|117=20190704-000000000006.00|55=TFIC13280425|762=RFQF|48=20626|22=M|453=5|448=DCV|447=C|452=10|448=001B27|447=C|452=12|448=001|447=C|452=1|448=001FCM001|447=C|452=36|448=002B35|447=C|452=37|634=3.000|135=500000000|62=20190830-22:00:00|10=239|
8=FIX.4.4|9=59|35=0|34=3|49=001|50=001B27|52=20190704-15:10:28.441|56=EXC|10=045|
8=FIX.4.4|9=148|35=AJ|34=4|49=001|50=001B27|52=20190704-15:10:38.765|56=EXC|54=1|55=TFIC13280425|117=20190704-000000000006.00|693=201907041009471_AJ|694=1|762=RFQF|10=085|
8=FIX.4.4|9=0516|35=8|34=4|49=EXC|56=001|57=001B27|52=20190704-15:16:32.829|11=201907041009471_AJ|17=3|37=0|150=F|1080=20190704-000000000006.00|1081=5|453=6|448=001B27|447=C|452=12|448=001|447=C|452=1|448=002B35|447=C|452=37|448=002|447=C|452=17|448=001FCM001|447=C|452=36|448=DCV|447=C|452=10|55=TFIC13280425|762=RFQF|48=20626|22=M|6=84.204|14=500000000|31=84.204|32=500000000|38=500000000|39=2|20102=84.204|54=1|60=20190704-15:16:32.829|75=20190704|63=1|64=20190704|151=0|1623=3.000|381=421020500.000|880=201907040000000003|828=99|10=108|
8=FIX.4.4|9=0049|35=0|34=5|49=EXC|56=001|52=20190704-15:17:02.000|10=165|
8=FIX.4.4|9=110|35=A|34=1|49=001|50=001B27|52=20190704-15:23:47.946|56=EXC|43=Y|98=0|108=30|141=Y|553=001FCM001|554=001FCM001|10=090|
8=FIX.4.4|9=0067|35=A|34=1|49=EXC|56=001|52=20190704-15:29:42.077|98=0|108=30|141=Y|10=013|
8=FIX.4.4|9=186|35=R|34=2|49=001|50=001B27|52=20190704-15:23:55.380|56=EXC|131=201907041023441_R|146=1|55=TFIC13280425|22=M|762=RFQF|54=1|38=500000000|453=2|448=002B35|447=C|452=37|448=DCV|447=C|452=10|10=063|
8=FIX.4.4|9=0268|35=AI|34=2|49=EXC|56=001|57=001B27|52=20190704-15:29:49.469|131=201907041023441_R|453=5|448=DCV|447=C|452=10|448=001B27|447=C|452=12|448=001|447=C|452=1|448=001FCM001|447=C|452=36|448=002B35|447=C|452=37|55=TFIC13280425|762=RFQF|48=20626|22=M|54=1|38=500000000|297=10|10=235|
8=FIX.4.4|9=0316|35=S|34=3|49=EXC|56=001|57=001B27|52=20190704-15:30:09.932|131=201907041023441_R|117=20190704-000000000007.00|55=TFIC13280425|762=RFQF|48=20626|22=M|453=5|448=DCV|447=C|452=10|448=001B27|447=C|452=12|448=001|447=C|452=1|448=001FCM001|447=C|452=36|448=002B35|447=C|452=37|634=3.000|135=500000000|62=20190830-22:00:00|10=241|
8=FIX.4.4|9=59|35=0|34=3|49=001|50=001B27|52=20190704-15:24:25.885|56=EXC|10=059|
8=FIX.4.4|9=148|35=AJ|34=4|49=001|50=001B27|52=20190704-15:24:36.600|56=EXC|54=1|55=TFIC13280425|117=20190704-000000000007.00|693=201907041023441_AJ|694=1|762=RFQF|10=070|
8=FIX.4.4|9=0516|35=8|34=4|49=EXC|56=001|57=001B27|52=20190704-15:30:30.672|11=201907041023441_AJ|17=4|37=0|150=F|1080=20190704-000000000007.00|1081=5|453=6|448=001B27|447=C|452=12|448=001|447=C|452=1|448=002B35|447=C|452=37|448=002|447=C|452=17|448=001FCM001|447=C|452=36|448=DCV|447=C|452=10|55=TFIC13280425|762=RFQF|48=20626|22=M|6=84.204|14=500000000|31=84.204|32=500000000|38=500000000|39=2|20102=84.204|54=1|60=20190704-15:30:30.672|75=20190704|63=1|64=20190704|151=0|1623=3.000|381=421020500.000|880=201907040000000004|828=99|10=084|
8=FIX.4.4|9=127|35=j|34=5|49=001|50=001B27|52=20190704-15:25:02.564|56=EXC|45=4|58=Conditionally Required Field Missing, field=552|372=8|380=5|10=032|
8=FIX.4.4|9=0109|35=j|34=5|49=EXC|56=001|57=001B27|52=20190704-15:30:56.646|45=5|372=j|380=3|58=(1468): MsgType(#35) invalido|10=070|
8=FIX.4.4|9=110|35=A|34=1|49=001|50=001B27|52=20190704-15:25:48.281|56=EXC|43=Y|98=0|108=30|141=Y|553=001FCM001|554=001FCM001|10=085|
8=FIX.4.4|9=0067|35=A|34=1|49=EXC|56=001|52=20190704-15:31:42.395|98=0|108=30|141=Y|10=009|
8=FIX.4.4|9=186|35=R|34=2|49=001|50=001B27|52=20190704-15:25:55.648|56=EXC|131=201907041025451_R|146=1|55=TFIC13280425|22=M|762=RFQF|54=1|38=500000000|453=2|448=002B35|447=C|452=37|448=DCV|447=C|452=10|10=075|
8=FIX.4.4|9=0268|35=AI|34=2|49=EXC|56=001|57=001B27|52=20190704-15:31:49.721|131=201907041025451_R|453=5|448=DCV|447=C|452=10|448=001B27|447=C|452=12|448=001|447=C|452=1|448=001FCM001|447=C|452=36|448=002B35|447=C|452=37|55=TFIC13280425|762=RFQF|48=20626|22=M|54=1|38=500000000|297=10|10=222|
8=FIX.4.4|9=0316|35=S|34=3|49=EXC|56=001|57=001B27|52=20190704-15:32:10.117|131=201907041025451_R|117=20190704-000000000008.00|55=TFIC13280425|762=RFQF|48=20626|22=M|453=5|448=DCV|447=C|452=10|448=001B27|447=C|452=12|448=001|447=C|452=1|448=001FCM001|447=C|452=36|448=002B35|447=C|452=37|634=3.000|135=500000000|62=20190830-22:00:00|10=234|
8=FIX.4.4|9=59|35=0|34=3|49=001|50=001B27|52=20190704-15:26:26.227|56=EXC|10=052|
8=FIX.4.4|9=148|35=AJ|34=4|49=001|50=001B27|52=20190704-15:26:36.663|56=EXC|54=1|55=TFIC13280425|117=20190704-000000000008.00|693=201907041025451_AJ|694=1|762=RFQF|10=085|
8=FIX.4.4|9=0516|35=8|34=4|49=EXC|56=001|57=001B27|52=20190704-15:32:30.742|11=201907041025451_AJ|17=5|37=0|150=F|1080=20190704-000000000008.00|1081=5|453=6|448=001B27|447=C|452=12|448=001|447=C|452=1|448=002B35|447=C|452=37|448=002|447=C|452=17|448=001FCM001|447=C|452=36|448=DCV|447=C|452=10|55=TFIC13280425|762=RFQF|48=20626|22=M|6=84.204|14=500000000|31=84.204|32=500000000|38=500000000|39=2|20102=84.204|54=1|60=20190704-15:32:30.742|75=20190704|63=1|64=20190704|151=0|1623=3.000|381=421020500.000|880=201907040000000005|828=99|10=090|
8=FIX.4.4|9=110|35=A|34=1|49=001|50=001B27|52=20190704-15:26:55.684|56=EXC|43=Y|98=0|108=30|141=Y|553=001FCM001|554=001FCM001|10=091|
8=FIX.4.4|9=0067|35=A|34=1|49=EXC|56=001|52=20190704-15:32:49.804|98=0|108=30|141=Y|10=012|
8=FIX.4.4|9=186|35=R|34=2|49=001|50=001B27|52=20190704-15:27:03.009|56=EXC|131=201907041026521_R|146=1|55=TFIC13280425|22=M|762=RFQF|54=1|38=500000000|453=2|448=002B35|447=C|452=37|448=DCV|447=C|452=10|10=060|
8=FIX.4.4|9=0268|35=AI|34=2|49=EXC|56=001|57=001B27|52=20190704-15:32:57.089|131=201907041026521_R|453=5|448=DCV|447=C|452=10|448=001B27|447=C|452=12|448=001|447=C|452=1|448=001FCM001|447=C|452=36|448=002B35|447=C|452=37|55=TFIC13280425|762=RFQF|48=20626|22=M|54=1|38=500000000|297=10|10=228|
8=FIX.4.4|9=0316|35=S|34=3|49=EXC|56=001|57=001B27|52=20190704-15:33:17.432|131=201907041026521_R|117=20190704-000000000009.00|55=TFIC13280425|762=RFQF|48=20626|22=M|453=5|448=DCV|447=C|452=10|448=001B27|447=C|452=12|448=001|447=C|452=1|448=001FCM001|447=C|452=36|448=002B35|447=C|452=37|634=3.000|135=500000000|62=20190830-22:00:00|10=242|
8=FIX.4.4|9=59|35=0|34=3|49=001|50=001B27|52=20190704-15:27:33.632|56=EXC|10=051|
8=FIX.4.4|9=148|35=AJ|34=4|49=001|50=001B27|52=20190704-15:27:43.995|56=EXC|54=1|55=TFIC13280425|117=20190704-000000000009.00|693=201907041026521_AJ|694=1|762=RFQF|10=092|
8=FIX.4.4|9=0516|35=8|34=4|49=EXC|56=001|57=001B27|52=20190704-15:33:38.081|11=201907041026521_AJ|17=6|37=0|150=F|1080=20190704-000000000009.00|1081=5|453=6|448=001B27|447=C|452=12|448=001|447=C|452=1|448=002B35|447=C|452=37|448=002|447=C|452=17|448=001FCM001|447=C|452=36|448=DCV|447=C|452=10|55=TFIC13280425|762=RFQF|48=20626|22=M|6=84.204|14=500000000|31=84.204|32=500000000|38=500000000|39=2|20102=84.204|54=1|60=20190704-15:33:38.081|75=20190704|63=1|64=20190704|151=0|1623=3.000|381=421020500.000|880=201907040000000006|828=99|10=102|
8=FIX.4.4|9=0049|35=0|34=5|49=EXC|56=001|52=20190704-15:34:08.000|10=170|
8=FIX.4.4|9=59|35=0|34=5|49=001|50=001B27|52=20190704-15:28:14.637|56=EXC|10=058|
8=FIX.4.4|9=110|35=A|34=1|49=001|50=001B27|52=20190704-16:32:38.298|56=EXC|43=Y|98=0|108=30|141=Y|553=001FCM001|554=001FCM001|10=091|
8=FIX.4.4|9=0067|35=A|34=1|49=EXC|56=001|52=20190704-16:38:32.480|98=0|108=30|141=Y|10=011|
8=FIX.4.4|9=186|35=R|34=2|49=001|50=001B27|52=20190704-16:32:45.741|56=EXC|131=201907041132351_R|146=1|55=TFIC13280425|22=M|762=RFQF|54=1|38=500000000|453=2|448=002B35|447=C|452=37|448=DCV|447=C|452=10|10=065|
8=FIX.4.4|9=0268|35=AI|34=2|49=EXC|56=001|57=001B27|52=20190704-16:38:39.872|131=201907041132351_R|453=5|448=DCV|447=C|452=10|448=001B27|447=C|452=12|448=001|447=C|452=1|448=001FCM001|447=C|452=36|448=002B35|447=C|452=37|55=TFIC13280425|762=RFQF|48=20626|22=M|54=1|38=500000000|297=10|10=234|
8=FIX.4.4|9=0316|35=S|34=3|49=EXC|56=001|57=001B27|52=20190704-16:39:00.378|131=201907041132351_R|117=20190704-000000000010.00|55=TFIC13280425|762=RFQF|48=20626|22=M|453=5|448=DCV|447=C|452=10|448=001B27|447=C|452=12|448=001|447=C|452=1|448=001FCM001|447=C|452=36|448=002B35|447=C|452=37|634=3.000|135=500000000|62=20190830-22:00:00|10=241|
8=FIX.4.4|9=59|35=0|34=3|49=001|50=001B27|52=20190704-16:33:16.254|56=EXC|10=050|
8=FIX.4.4|9=148|35=AJ|34=4|49=001|50=001B27|52=20190704-16:33:26.946|56=EXC|54=1|55=TFIC13280425|117=20190704-000000000010.00|693=201907041132351_AJ|694=1|762=RFQF|10=078|
8=FIX.4.4|9=0516|35=8|34=4|49=EXC|56=001|57=001B27|52=20190704-16:39:21.068|11=201907041132351_AJ|17=7|37=0|150=F|1080=20190704-000000000010.00|1081=5|453=6|448=001B27|447=C|452=12|448=001|447=C|452=1|448=002B35|447=C|452=37|448=002|447=C|452=17|448=001FCM001|447=C|452=36|448=DCV|447=C|452=10|55=TFIC13280425|762=RFQF|48=20626|22=M|6=84.204|14=500000000|31=84.204|32=500000000|38=500000000|39=2|20102=84.204|54=1|60=20190704-16:39:21.068|75=20190704|63=1|64=20190704|151=0|1623=3.000|381=421020500.000|880=201907040000000007|828=99|10=103|
8=FIX.4.4|9=127|35=j|34=5|49=001|50=001B27|52=20190704-16:33:53.005|56=EXC|45=4|58=Conditionally Required Field Missing, field=453|372=8|380=5|10=028|
8=FIX.4.4|9=0109|35=j|34=5|49=EXC|56=001|57=001B27|52=20190704-16:39:47.136|45=5|372=j|380=3|58=(1468): MsgType(#35) invalido|10=074|
8=FIX.4.4|9=110|35=A|34=1|49=001|50=001B27|52=20190704-19:13:15.027|56=EXC|43=Y|98=0|108=30|141=Y|553=001FCM001|554=001FCM001|10=078|
8=FIX.4.4|9=0067|35=A|34=1|49=EXC|56=001|52=20190704-19:19:09.320|98=0|108=30|141=Y|10=010|
8=FIX.4.4|9=186|35=R|34=2|49=001|50=001B27|52=20190704-19:13:22.392|56=EXC|131=201907041413111_R|146=1|55=TFIC13280425|22=M|762=RFQF|54=1|38=500000000|453=2|448=002B35|447=C|452=37|448=DCV|447=C|452=10|10=060|
8=FIX.4.4|9=0268|35=AI|34=2|49=EXC|56=001|57=001B27|52=20190704-19:19:16.640|131=201907041413111_R|453=5|448=DCV|447=C|452=10|448=001B27|447=C|452=12|448=001|447=C|452=1|448=001FCM001|447=C|452=36|448=002B35|447=C|452=37|55=TFIC13280425|762=RFQF|48=20626|22=M|54=1|38=500000000|297=10|10=220|
8=FIX.4.4|9=0316|35=S|34=3|49=EXC|56=001|57=001B27|52=20190704-19:19:36.990|131=201907041413111_R|117=20190704-000000000011.00|55=TFIC13280425|762=RFQF|48=20626|22=M|453=5|448=DCV|447=C|452=10|448=001B27|447=C|452=12|448=001|447=C|452=1|448=001FCM001|447=C|452=36|448=002B35|447=C|452=37|634=3.000|135=500000000|62=20190830-22:00:00|10=248|
8=FIX.4.4|9=59|35=0|34=3|49=001|50=001B27|52=20190704-19:13:52.981|56=EXC|10=058|
8=FIX.4.4|9=148|35=AJ|34=4|49=001|50=001B27|52=20190704-19:14:03.331|56=EXC|54=1|55=TFIC13280425|117=20190704-000000000011.00|693=201907041413111_AJ|694=1|762=RFQF|10=060|
8=FIX.4.4|9=0516|35=8|34=4|49=EXC|56=001|57=001B27|52=20190704-19:19:57.584|11=201907041413111_AJ|17=8|37=0|150=F|1080=20190704-000000000011.00|1081=5|453=6|448=001B27|447=C|452=12|448=001|447=C|452=1|448=002B35|447=C|452=37|448=002|447=C|452=17|448=001FCM001|447=C|452=36|448=DCV|447=C|452=10|55=TFIC13280425|762=RFQF|48=20626|22=M|6=84.204|14=500000000|31=84.204|32=500000000|38=500000000|39=2|20102=84.204|54=1|60=20190704-19:19:57.584|75=20190704|63=1|64=20190704|151=0|1623=3.000|381=421020500.000|880=201907040000000008|828=99|10=128|
8=FIX.4.4|9=0049|35=0|34=5|49=EXC|56=001|52=20190704-19:20:27.000|10=170|
8=FIX.4.4|9=59|35=0|34=5|49=001|50=001B27|52=20190704-19:14:33.985|56=EXC|10=064|
8=FIX.4.4|9=110|35=A|34=1|49=001|50=001B27|52=20190704-21:29:09.717|56=EXC|43=Y|98=0|108=30|141=Y|553=001FCM001|554=001FCM001|10=087|
8=FIX.4.4|9=0067|35=A|34=1|49=EXC|56=001|52=20190704-21:35:04.109|98=0|108=30|141=Y|10=001|
8=FIX.4.4|9=186|35=R|34=2|49=001|50=001B27|52=20190704-21:29:17.143|56=EXC|131=201907041629061_R|146=1|55=TFIC13280425|22=M|762=RFQF|54=1|38=500000000|453=2|448=002B35|447=C|452=37|448=DCV|447=C|452=10|10=071|
8=FIX.4.4|9=0268|35=AI|34=2|49=EXC|56=001|57=001B27|52=20190704-21:35:11.497|131=201907041629061_R|453=5|448=DCV|447=C|452=10|448=001B27|447=C|452=12|448=001|447=C|452=1|448=001FCM001|447=C|452=36|448=002B35|447=C|452=37|55=TFIC13280425|762=RFQF|48=20626|22=M|54=1|38=500000000|297=10|10=229|
8=FIX.4.4|9=0316|35=S|34=3|49=EXC|56=001|57=001B27|52=20190704-21:35:31.887|131=201907041629061_R|117=20190704-000000000012.00|55=TFIC13280425|762=RFQF|48=20626|22=M|453=5|448=DCV|447=C|452=10|448=001B27|447=C|452=12|448=001|447=C|452=1|448=001FCM001|447=C|452=36|448=002B35|447=C|452=37|634=3.000|135=500000000|62=20190830-22:00:00|10=253|
8=FIX.4.4|9=59|35=0|34=3|49=001|50=001B27|52=20190704-21:29:47.678|56=EXC|10=065|
8=FIX.4.4|9=148|35=AJ|34=4|49=001|50=001B27|52=20190704-21:29:58.149|56=EXC|54=1|55=TFIC13280425|117=20190704-000000000012.00|693=201907041629061_AJ|694=1|762=RFQF|10=090|
8=FIX.4.4|9=0516|35=8|34=4|49=EXC|56=001|57=001B27|52=20190704-21:35:52.501|11=201907041629061_AJ|17=9|37=0|150=F|1080=20190704-000000000012.00|1081=5|453=6|448=001B27|447=C|452=12|448=001|447=C|452=1|448=002B35|447=C|452=37|448=002|447=C|452=17|448=001FCM001|447=C|452=36|448=DCV|447=C|452=10|55=TFIC13280425|762=RFQF|48=20626|22=M|6=84.204|14=500000000|31=84.204|32=500000000|38=500000000|39=2|20102=84.204|54=1|60=20190704-21:35:52.501|75=20190704|63=1|64=20190704|151=0|1623=3.000|381=421020500.000|880=201907040000000009|828=99|10=094|
8=FIX.4.4|9=0049|35=0|34=5|49=EXC|56=001|52=20190704-21:36:22.000|10=165|
8=FIX.4.4|9=59|35=0|34=5|49=001|50=001B27|52=20190704-21:30:28.682|56=EXC|10=053|
8=FIX.4.4|9=110|35=A|34=1|49=001|50=001B27|52=20190704-21:55:00.284|56=EXC|43=Y|98=0|108=30|141=Y|553=001FCM001|554=001FCM001|10=076|
8=FIX.4.4|9=0067|35=A|34=1|49=EXC|56=001|52=20190704-22:00:54.687|98=0|108=30|141=Y|10=010|
8=FIX.4.4|9=186|35=R|34=2|49=001|50=001B27|52=20190704-21:55:07.559|56=EXC|131=201907041654561_R|146=1|55=TFIC13280425|22=M|762=RFQF|54=1|38=500000000|453=2|448=002B35|447=C|452=37|448=DCV|447=C|452=10|10=083|
8=FIX.4.4|9=0268|35=AI|34=2|49=EXC|56=001|57=001B27|52=20190704-22:01:01.927|131=201907041654561_R|453=5|448=DCV|447=C|452=10|448=001B27|447=C|452=12|448=001|447=C|452=1|448=001FCM001|447=C|452=36|448=002B35|447=C|452=37|55=TFIC13280425|762=RFQF|48=20626|22=M|54=1|38=500000000|297=10|10=223|
8=FIX.4.4|9=0316|35=S|34=3|49=EXC|56=001|57=001B27|52=20190704-22:01:22.294|131=201907041654561_R|117=20190704-000000000013.00|55=TFIC13280425|762=RFQF|48=20626|22=M|453=5|448=DCV|447=C|452=10|448=001B27|447=C|452=12|448=001|447=C|452=1|448=001FCM001|447=C|452=36|448=002B35|447=C|452=37|634=3.000|135=500000000|62=20190830-22:00:00|10=243|
8=FIX.4.4|9=59|35=0|34=3|49=001|50=001B27|52=20190704-21:55:38.224|56=EXC|10=051|
8=FIX.4.4|9=148|35=AJ|34=4|49=001|50=001B27|52=20190704-21:55:48.562|56=EXC|54=1|55=TFIC13280425|117=20190704-000000000013.00|693=201907041654561_AJ|694=1|762=RFQF|10=091|
8=FIX.4.4|9=0517|35=8|34=4|49=EXC|56=001|57=001B27|52=20190704-22:01:42.928|11=201907041654561_AJ|17=10|37=0|150=F|1080=20190704-000000000013.00|1081=5|453=6|448=001B27|447=C|452=12|448=001|447=C|452=1|448=002B35|447=C|452=37|448=002|447=C|452=17|448=001FCM001|447=C|452=36|448=DCV|447=C|452=10|55=TFIC13280425|762=RFQF|48=20626|22=M|6=84.204|14=500000000|31=84.204|32=500000000|38=500000000|39=2|20102=84.204|54=1|60=20190704-22:01:42.928|75=20190704|63=1|64=20190704|151=0|1623=3.000|381=421020500.000|880=201907040000000010|828=99|10=143|
8=FIX.4.4|9=0049|35=0|34=5|49=EXC|56=001|52=20190704-22:02:12.000|10=158|
8=FIX.4.4|9=59|35=0|34=5|49=001|50=001B27|52=20190704-21:56:19.229|56=EXC|10=058|
8=FIX.4.4|9=110|35=A|34=1|49=001|50=001B27|52=20190705-15:23:21.186|56=EXC|43=Y|98=0|108=30|141=Y|553=001FCM001|554=001FCM001|10=079|
8=FIX.4.4|9=0067|35=A|34=1|49=EXC|56=001|52=20190705-15:29:16.268|98=0|108=30|141=Y|10=017|
8=FIX.4.4|9=186|35=R|34=2|49=001|50=001B27|52=20190705-15:23:28.551|56=EXC|131=201907051023171_R|146=1|55=TFIC13280425|22=M|762=RFQF|54=1|38=500000000|453=2|448=002B35|447=C|452=37|448=DCV|447=C|452=10|10=065|
8=FIX.4.4|9=0268|35=AI|34=2|49=EXC|56=001|57=001B27|52=20190705-15:29:23.585|131=201907051023171_R|453=5|448=DCV|447=C|452=10|448=001B27|447=C|452=12|448=001|447=C|452=1|448=001FCM001|447=C|452=36|448=002B35|447=C|452=37|55=TFIC13280425|762=RFQF|48=20626|22=M|54=1|38=500000000|297=10|10=228|
8=FIX.4.4|9=0316|35=S|34=3|49=EXC|56=001|57=001B27|52=20190705-15:29:43.912|131=201907051023171_R|117=20190705-000000000005.00|55=TFIC13280425|762=RFQF|48=20626|22=M|453=5|448=DCV|447=C|452=10|448=001B27|447=C|452=12|448=001|447=C|452=1|448=001FCM001|447=C|452=36|448=002B35|447=C|452=37|634=3.000|135=500000000|62=20190830-22:00:00|10=246|
8=FIX.4.4|9=59|35=0|34=3|49=001|50=001B27|52=20190705-15:23:59.147|56=EXC|10=057|
8=FIX.4.4|9=148|35=AJ|34=4|49=001|50=001B27|52=20190705-15:24:09.453|56=EXC|54=1|55=TFIC13280425|117=20190705-000000000005.00|693=201907051023171_AJ|694=1|762=RFQF|10=077|
8=FIX.4.4|9=0516|35=8|34=4|49=EXC|56=001|57=001B27|52=20190705-15:30:04.489|11=201907051023171_AJ|17=1|37=0|150=F|1080=20190705-000000000005.00|1081=5|453=6|448=001B27|447=C|452=12|448=001|447=C|452=1|448=002B35|447=C|452=37|448=002|447=C|452=17|448=001FCM001|447=C|452=36|448=DCV|447=C|452=10|55=TFIC13280425|762=RFQF|48=20626|22=M|6=84.210|14=500000000|31=84.210|32=500000000|38=500000000|39=2|20102=84.210|54=1|60=20190705-15:30:04.489|75=20190705|63=1|64=20190705|151=0|1623=3.000|381=421054500.000|880=201907050000000001|828=99|10=095|
8=FIX.4.4|9=110|35=A|34=1|49=001|50=001B27|52=20190705-15:24:40.633|56=EXC|43=Y|98=0|108=30|141=Y|553=001FCM001|554=001FCM001|10=078|
8=FIX.4.4|9=0067|35=A|34=1|49=EXC|56=001|52=20190705-15:30:35.702|98=0|108=30|141=Y|10=003|
8=FIX.4.4|9=186|35=R|34=2|49=001|50=001B27|52=20190705-15:24:47.995|56=EXC|131=201907051024371_R|146=1|55=TFIC13280425|22=M|762=RFQF|54=1|38=500000000|453=2|448=002B35|447=C|452=37|448=DCV|447=C|452=10|10=082|
8=FIX.4.4|9=0268|35=AI|34=2|49=EXC|56=001|57=001B27|52=20190705-15:30:43.035|131=201907051024371_R|453=5|448=DCV|447=C|452=10|448=001B27|447=C|452=12|448=001|447=C|452=1|448=001FCM001|447=C|452=36|448=002B35|447=C|452=37|55=TFIC13280425|762=RFQF|48=20626|22=M|54=1|38=500000000|297=10|10=215|
8=FIX.4.4|9=0316|35=S|34=3|49=EXC|56=001|57=001B27|52=20190705-15:31:03.409|131=201907051024371_R|117=20190705-000000000006.00|55=TFIC13280425|762=RFQF|48=20626|22=M|453=5|448=DCV|447=C|452=10|448=001B27|447=C|452=12|448=001|447=C|452=1|448=001FCM001|447=C|452=36|448=002B35|447=C|452=37|634=3.000|135=500000000|62=20190830-22:00:00|10=240|
8=FIX.4.4|9=59|35=0|34=3|49=001|50=001B27|52=20190705-15:25:18.583|56=EXC|10=058|
8=FIX.4.4|9=148|35=AJ|34=4|49=001|50=001B27|52=20190705-15:25:28.966|56=EXC|54=1|55=TFIC13280425|117=20190705-000000000006.00|693=201907051024371_AJ|694=1|762=RFQF|10=092|
8=FIX.4.4|9=0516|35=8|34=4|49=EXC|56=001|57=001B27|52=20190705-15:31:24.009|11=201907051024371_AJ|17=2|37=0|150=F|1080=20190705-000000000006.00|1081=5|453=6|448=001B27|447=C|452=12|448=001|447=C|452=1|448=002B35|447=C|452=37|448=002|447=C|452=17|448=001FCM001|447=C|452=36|448=DCV|447=C|452=10|55=TFIC13280425|762=RFQF|48=20626|22=M|6=84.210|14=500000000|31=84.210|32=500000000|38=500000000|39=2|20102=84.210|54=1|60=20190705-15:31:24.009|75=20190705|63=1|64=20190705|151=0|1623=3.000|381=421054500.000|880=201907050000000002|828=99|10=083|
8=FIX.4.4|9=0049|35=0|34=5|49=EXC|56=001|52=20190705-15:31:54.000|10=169|
8=FIX.4.4|9=59|35=0|34=5|49=001|50=001B27|52=20190705-15:25:58.977|56=EXC|10=071|
8=FIX.4.4|9=110|35=A|34=1|49=001|50=001B27|52=20190705-15:28:38.217|56=EXC|43=Y|98=0|108=30|141=Y|553=001FCM001|554=001FCM001|10=087|
8=FIX.4.4|9=0067|35=A|34=1|49=EXC|56=001|52=20190705-15:34:33.301|98=0|108=30|141=Y|10=000|
8=FIX.4.4|9=186|35=R|34=2|49=001|50=001B27|52=20190705-15:28:45.527|56=EXC|131=201907051028341_R|146=1|55=TFIC13280425|22=M|762=RFQF|54=1|38=500000000|453=2|448=002B35|447=C|452=37|448=DCV|447=C|452=10|10=076|
8=FIX.4.4|9=0268|35=AI|34=2|49=EXC|56=001|57=001B27|52=20190705-15:34:40.574|131=201907051028341_R|453=5|448=DCV|447=C|452=10|448=001B27|447=C|452=12|448=001|447=C|452=1|448=001FCM001|447=C|452=36|448=002B35|447=C|452=37|55=TFIC13280425|762=RFQF|48=20626|22=M|54=1|38=500000000|297=10|10=225|
8=FIX.4.4|9=0316|35=S|34=3|49=EXC|56=001|57=001B27|52=20190705-15:35:00.952|131=201907051028341_R|117=20190705-000000000007.00|55=TFIC13280425|762=RFQF|48=20626|22=M|453=5|448=DCV|447=C|452=10|448=001B27|447=C|452=12|448=001|447=C|452=1|448=001FCM001|447=C|452=36|448=002B35|447=C|452=37|634=3.000|135=500000000|62=20190830-22:00:00|10=246|
8=FIX.4.4|9=59|35=0|34=3|49=001|50=001B27|52=20190705-15:29:16.174|56=EXC|10=056|
8=FIX.4.4|9=148|35=AJ|34=4|49=001|50=001B27|52=20190705-15:29:26.639|56=EXC|54=1|55=TFIC13280425|117=20190705-000000000007.00|693=201907051028341_AJ|694=1|762=RFQF|10=093|
8=FIX.4.4|9=0516|35=8|34=4|49=EXC|56=001|57=001B27|52=20190705-15:35:21.673|11=201907051028341_AJ|17=3|37=0|150=F|1080=20190705-000000000007.00|1081=5|453=6|448=001B27|447=C|452=12|448=001|447=C|452=1|448=002B35|447=C|452=37|448=002|447=C|452=17|448=001FCM001|447=C|452=36|448=DCV|447=C|452=10|55=TFIC13280425|762=RFQF|48=20626|22=M|6=84.210|14=500000000|31=84.210|32=500000000|38=500000000|39=2|20102=84.210|54=1|60=20190705-15:35:21.673|75=20190705|63=1|64=20190705|151=0|1623=3.000|381=421054500.000|880=201907050000000003|828=99|10=103|
8=FIX.4.4|9=127|35=j|34=5|49=001|50=001B27|52=20190705-15:29:52.634|56=EXC|45=4|58=Conditionally Required Field Missing, field=453|372=8|380=5|10=040|
8=FIX.4.4|9=0109|35=j|34=5|49=EXC|56=001|57=001B27|52=20190705-15:35:47.673|45=5|372=j|380=3|58=(1468): MsgType(#35) invalido|10=076|
8=FIX.4.4|9=110|35=A|34=1|49=001|50=001B27|52=20190705-16:02:51.291|56=EXC|43=Y|98=0|108=30|141=Y|553=001FCM001|554=001FCM001|10=077|
8=FIX.4.4|9=0067|35=A|34=1|49=EXC|56=001|52=20190705-16:08:46.401|98=0|108=30|141=Y|10=007|
8=FIX.4.4|9=186|35=R|34=2|49=001|50=001B27|52=20190705-16:02:58.732|56=EXC|131=201907051102471_R|146=1|55=TFIC13280425|22=M|762=RFQF|54=1|38=500000000|453=2|448=002B35|447=C|452=37|448=DCV|447=C|452=10|10=068|
8=FIX.4.4|9=0268|35=AI|34=2|49=EXC|56=001|57=001B27|52=20190705-16:08:53.794|131=201907051102471_R|453=5|448=DCV|447=C|452=10|448=001B27|447=C|452=12|448=001|447=C|452=1|448=001FCM001|447=C|452=36|448=002B35|447=C|452=37|55=TFIC13280425|762=RFQF|48=20626|22=M|54=1|38=500000000|297=10|10=232|
8=FIX.4.4|9=0316|35=S|34=3|49=EXC|56=001|57=001B27|52=20190705-16:09:14.162|131=201907051102471_R|117=20190705-000000000008.00|55=TFIC13280425|762=RFQF|48=20626|22=M|453=5|448=DCV|447=C|452=10|448=001B27|447=C|452=12|448=001|447=C|452=1|448=001FCM001|447=C|452=36|448=002B35|447=C|452=37|634=3.000|135=500000000|62=20190830-22:00:00|10=244|
8=FIX.4.4|9=59|35=0|34=3|49=001|50=001B27|52=20190705-16:03:29.262|56=EXC|10=051|
8=FIX.4.4|9=148|35=AJ|34=4|49=001|50=001B27|52=20190705-16:03:39.723|56=EXC|54=1|55=TFIC13280425|117=20190705-000000000008.00|693=201907051102471_AJ|694=1|762=RFQF|10=082|
8=FIX.4.4|9=0516|35=8|34=4|49=EXC|56=001|57=001B27|52=20190705-16:09:34.786|11=201907051102471_AJ|17=4|37=0|150=F|1080=20190705-000000000008.00|1081=5|453=6|448=001B27|447=C|452=12|448=001|447=C|452=1|448=002B35|447=C|452=37|448=002|447=C|452=17|448=001FCM001|447=C|452=36|448=DCV|447=C|452=10|55=TFIC13280425|762=RFQF|48=20626|22=M|6=84.210|14=500000000|31=84.210|32=500000000|38=500000000|39=2|20102=84.210|54=1|60=20190705-16:09:34.786|75=20190705|63=1|64=20190705|151=0|1623=3.000|381=421054500.000|880=201907050000000004|828=99|10=125|
8=FIX.4.4|9=127|35=j|34=5|49=001|50=001B27|52=20190705-16:04:05.769|56=EXC|45=4|58=Conditionally Required Field Missing, field=453|372=8|380=5|10=041|
8=FIX.4.4|9=0109|35=j|34=5|49=EXC|56=001|57=001B27|52=20190705-16:10:00.880|45=5|372=j|380=3|58=(1468): MsgType(#35) invalido|10=059|
8=FIX.4.4|9=110|35=A|34=1|49=001|50=001B27|52=20190705-16:04:44.259|56=EXC|43=Y|98=0|108=30|141=Y|553=001FCM001|554=001FCM001|10=085|
8=FIX.4.4|9=0067|35=A|34=1|49=EXC|56=001|52=20190705-16:10:39.351|98=0|108=30|141=Y|10=006|
8=FIX.4.4|9=186|35=R|34=2|49=001|50=001B27|52=20190705-16:04:51.605|56=EXC|131=201907051104401_R|146=1|55=TFIC13280425|22=M|762=RFQF|54=1|38=500000000|453=2|448=002B35|447=C|452=37|448=DCV|447=C|452=10|10=057|
8=FIX.4.4|9=0268|35=AI|34=2|49=EXC|56=001|57=001B27|52=20190705-16:10:46.669|131=201907051104401_R|453=5|448=DCV|447=C|452=10|448=001B27|447=C|452=12|448=001|447=C|452=1|448=001FCM001|447=C|452=36|448=002B35|447=C|452=37|55=TFIC13280425|762=RFQF|48=20626|22=M|54=1|38=500000000|297=10|10=223|
8=FIX.4.4|9=0316|35=S|34=3|49=EXC|56=001|57=001B27|52=20190705-16:11:07.066|131=201907051104401_R|117=20190705-000000000009.00|55=TFIC13280425|762=RFQF|48=20626|22=M|453=5|448=DCV|447=C|452=10|448=001B27|447=C|452=12|448=001|447=C|452=1|448=001FCM001|447=C|452=36|448=002B35|447=C|452=37|634=3.000|135=500000000|62=20190830-22:00:00|10=238|
8=FIX.4.4|9=59|35=0|34=3|49=001|50=001B27|52=20190705-16:05:22.213|56=EXC|10=042|
8=FIX.4.4|9=148|35=AJ|34=4|49=001|50=001B27|52=20190705-16:05:32.798|56=EXC|54=1|55=TFIC13280425|117=20190705-000000000009.00|693=201907051104401_AJ|694=1|762=RFQF|10=085|
8=FIX.4.4|9=0516|35=8|34=4|49=EXC|56=001|57=001B27|52=20190705-16:11:27.866|11=201907051104401_AJ|17=5|37=0|150=F|1080=20190705-000000000009.00|1081=5|453=6|448=001B27|447=C|452=12|448=001|447=C|452=1|448=002B35|447=C|452=37|448=002|447=C|452=17|448=001FCM001|447=C|452=36|448=DCV|447=C|452=10|55=TFIC13280425|762=RFQF|48=20626|22=M|6=84.210|14=500000000|31=84.210|32=500000000|38=500000000|39=2|20102=84.210|54=1|60=20190705-16:11:27.866|75=20190705|63=1|64=20190705|151=0|1623=3.000|381=421054500.000|880=201907050000000005|828=99|10=111|
8=FIX.4.4|9=0049|35=0|34=5|49=EXC|56=001|52=20190705-16:11:57.000|10=171|
8=FIX.4.4|9=59|35=0|34=5|49=001|50=001B27|52=20190705-16:06:03.217|56=EXC|10=048|
8=FIX.4.4|9=110|35=A|34=1|49=001|50=001B27|52=20190705-16:38:08.277|56=EXC|43=Y|98=0|108=30|141=Y|553=001FCM001|554=001FCM001|10=092|
8=FIX.4.4|9=0067|35=A|34=1|49=EXC|56=001|52=20190705-16:44:03.416|98=0|108=30|141=Y|10=006|
8=FIX.4.4|9=186|35=R|34=2|49=001|50=001B27|52=20190705-16:38:15.533|56=EXC|131=201907051138041_R|146=1|55=TFIC13280425|22=M|762=RFQF|54=1|38=500000000|453=2|448=002B35|447=C|452=37|448=DCV|447=C|452=10|10=071|
8=FIX.4.4|9=0268|35=AI|34=2|49=EXC|56=001|57=001B27|52=20190705-16:44:10.632|131=201907051138041_R|453=5|448=DCV|447=C|452=10|448=001B27|447=C|452=12|448=001|447=C|452=1|448=001FCM001|447=C|452=36|448=002B35|447=C|452=37|55=TFIC13280425|762=RFQF|48=20626|22=M|54=1|38=500000000|297=10|10=218|
8=FIX.4.4|9=0316|35=S|34=3|49=EXC|56=001|57=001B27|52=20190705-16:44:31.013|131=201907051138041_R|117=20190705-000000000010.00|55=TFIC13280425|762=RFQF|48=20626|22=M|453=5|448=DCV|447=C|452=10|448=001B27|447=C|452=12|448=001|447=C|452=1|448=001FCM001|447=C|452=36|448=002B35|447=C|452=37|634=3.000|135=500000000|62=20190830-22:00:00|10=232|
8=FIX.4.4|9=59|35=0|34=3|49=001|50=001B27|52=20190705-16:38:46.203|56=EXC|10=053|
8=FIX.4.4|9=148|35=AJ|34=4|49=001|50=001B27|52=20190705-16:38:56.483|56=EXC|54=1|55=TFIC13280425|117=20190705-000000000010.00|693=201907051138041_AJ|694=1|762=RFQF|10=087|
8=FIX.4.4|9=0516|35=8|34=4|49=EXC|56=001|57=001B27|52=20190705-16:44:51.567|11=201907051138041_AJ|17=6|37=0|150=F|1080=20190705-000000000010.00|1081=5|453=6|448=001B27|447=C|452=12|448=001|447=C|452=1|448=002B35|447=C|452=37|448=002|447=C|452=17|448=001FCM001|447=C|452=36|448=DCV|447=C|452=10|55=TFIC13280425|762=RFQF|48=20626|22=M|6=84.210|14=500000000|31=84.210|32=500000000|38=500000000|39=2|20102=84.210|54=1|60=20190705-16:44:51.567|75=20190705|63=1|64=20190705|151=0|1623=3.000|381=421054500.000|880=201907050000000006|828=99|10=114|
8=FIX.4.4|9=127|35=j|34=5|49=001|50=001B27|52=20190705-16:39:22.420|56=EXC|45=4|58=Conditionally Required Field Missing, field=453|372=8|380=5|10=032|
8=FIX.4.4|9=0109|35=j|34=5|49=EXC|56=001|57=001B27|52=20190705-16:45:17.513|45=5|372=j|380=3|58=(1468): MsgType(#35) invalido|10=068|
8=FIX.4.4|9=0049|35=0|34=6|49=EXC|56=001|52=20190705-16:45:47.000|10=178|
8=FIX.4.4|9=59|35=0|34=6|49=001|50=001B27|52=20190705-16:39:53.191|56=EXC|10=061|
8=FIX.4.4|9=110|35=A|34=1|49=001|50=001B27|52=20190705-16:44:28.091|56=EXC|43=Y|98=0|108=30|141=Y|553=001FCM001|554=001FCM001|10=085|
8=FIX.4.4|9=0067|35=A|34=1|49=EXC|56=001|52=20190705-16:50:23.215|98=0|108=30|141=Y|10=002|
8=FIX.4.4|9=186|35=R|34=2|49=001|50=001B27|52=20190705-16:44:35.550|56=EXC|131=201907051144241_R|146=1|55=TFIC13280425|22=M|762=RFQF|54=1|38=500000000|453=2|448=002B35|447=C|452=37|448=DCV|447=C|452=10|10=068|
8=FIX.4.4|9=0268|35=AI|34=2|49=EXC|56=001|57=001B27|52=20190705-16:50:30.649|131=201907051144241_R|453=5|448=DCV|447=C|452=10|448=001B27|447=C|452=12|448=001|447=C|452=1|448=001FCM001|447=C|452=36|448=002B35|447=C|452=37|55=TFIC13280425|762=RFQF|48=20626|22=M|54=1|38=500000000|297=10|10=224|
8=FIX.4.4|9=0316|35=S|34=3|49=EXC|56=001|57=001B27|52=20190705-16:50:51.054|131=201907051144241_R|117=20190705-000000000011.00|55=TFIC13280425|762=RFQF|48=20626|22=M|453=5|448=DCV|447=C|452=10|448=001B27|447=C|452=12|448=001|447=C|452=1|448=001FCM001|447=C|452=36|448=002B35|447=C|452=37|634=3.000|135=500000000|62=20190830-22:00:00|10=236|
8=FIX.4.4|9=59|35=0|34=3|49=001|50=001B27|52=20190705-16:45:06.043|56=EXC|10=049|
8=FIX.4.4|9=148|35=AJ|34=4|49=001|50=001B27|52=20190705-16:45:16.581|56=EXC|54=1|55=TFIC13280425|117=20190705-000000000011.00|693=201907051144241_AJ|694=1|762=RFQF|10=080|
8=FIX.4.4|9=0516|35=8|34=4|49=EXC|56=001|57=001B27|52=20190705-16:51:11.667|11=201907051144241_AJ|17=7|37=0|150=F|1080=20190705-000000000011.00|1081=5|453=6|448=001B27|447=C|452=12|448=001|447=C|452=1|448=002B35|447=C|452=37|448=002|447=C|452=17|448=001FCM001|447=C|452=36|448=DCV|447=C|452=10|55=TFIC13280425|762=RFQF|48=20626|22=M|6=84.210|14=500000000|31=84.210|32=500000000|38=500000000|39=2|20102=84.210|54=1|60=20190705-16:51:11.667|75=20190705|63=1|64=20190705|151=0|1623=3.000|381=421054500.000|880=201907050000000007|828=99|10=106|
8=FIX.4.4|9=127|35=j|34=5|49=001|50=001B27|52=20190705-16:45:42.799|56=EXC|45=4|58=Conditionally Required Field Missing, field=453|372=8|380=5|10=050|
8=FIX.4.4|9=0109|35=j|34=5|49=EXC|56=001|57=001B27|52=20190705-16:51:37.890|45=5|372=j|380=3|58=(1468): MsgType(#35) invalido|10=075|
8=FIX.4.4|9=0049|35=0|34=6|49=EXC|56=001|52=20190705-16:52:07.000|10=172|
8=FIX.4.4|9=59|35=0|34=6|49=001|50=001B27|52=20190705-16:46:13.031|56=EXC|10=048|
8=FIX.4.4|9=0049|35=0|34=7|49=EXC|56=001|52=20190705-16:52:37.000|10=176|
8=FIX.4.4|9=59|35=0|34=7|49=001|50=001B27|52=20190705-16:46:43.046|56=EXC|10=058|
8=FIX.4.4|9=0049|35=0|34=8|49=EXC|56=001|52=20190705-16:53:07.000|10=175|
8=FIX.4.4|9=59|35=0|34=8|49=001|50=001B27|52=20190705-16:47:13.046|56=EXC|10=057|
8=FIX.4.4|9=110|35=A|34=1|49=001|50=001B27|52=20190705-16:51:14.945|56=EXC|43=Y|98=0|108=30|141=Y|553=001FCM001|554=001FCM001|10=086|
8=FIX.4.4|9=0067|35=A|34=1|49=EXC|56=001|52=20190705-16:57:10.094|98=0|108=30|141=Y|10=010|
8=FIX.4.4|9=186|35=R|34=2|49=001|50=001B27|52=20190705-16:51:22.267|56=EXC|131=201907051151111_R|146=1|55=TFIC13280425|22=M|762=RFQF|54=1|38=500000000|453=2|448=002B35|447=C|452=37|448=DCV|447=C|452=10|10=061|
8=FIX.4.4|9=0268|35=AI|34=2|49=EXC|56=001|57=001B27|52=20190705-16:57:17.358|131=201907051151111_R|453=5|448=DCV|447=C|452=10|448=001B27|447=C|452=12|448=001|447=C|452=1|448=001FCM001|447=C|452=36|448=002B35|447=C|452=37|55=TFIC13280425|762=RFQF|48=20626|22=M|54=1|38=500000000|297=10|10=227|
8=FIX.4.4|9=0316|35=S|34=3|49=EXC|56=001|57=001B27|52=20190705-16:57:37.750|131=201907051151111_R|117=20190705-000000000012.00|55=TFIC13280425|762=RFQF|48=20626|22=M|453=5|448=DCV|447=C|452=10|448=001B27|447=C|452=12|448=001|447=C|452=1|448=001FCM001|447=C|452=36|448=002B35|447=C|452=37|634=3.000|135=500000000|62=20190830-22:00:00|10=245|
8=FIX.4.4|9=59|35=0|34=3|49=001|50=001B27|52=20190705-16:51:52.900|56=EXC|10=049|
8=FIX.4.4|9=148|35=AJ|34=4|49=001|50=001B27|52=20190705-16:52:03.177|56=EXC|54=1|55=TFIC13280425|117=20190705-000000000012.00|693=201907051151111_AJ|694=1|762=RFQF|10=070|
8=FIX.4.4|9=0516|35=8|34=4|49=EXC|56=001|57=001B27|52=20190705-16:57:58.273|11=201907051151111_AJ|17=8|37=0|150=F|1080=20190705-000000000012.00|1081=5|453=6|448=001B27|447=C|452=12|448=001|447=C|452=1|448=002B35|447=C|452=37|448=002|447=C|452=17|448=001FCM001|447=C|452=36|448=DCV|447=C|452=10|55=TFIC13280425|762=RFQF|48=20626|22=M|6=84.210|14=500000000|31=84.210|32=500000000|38=500000000|39=2|20102=84.210|54=1|60=20190705-16:57:58.273|75=20190705|63=1|64=20190705|151=0|1623=3.000|381=421054500.000|880=201907050000000008|828=99|10=123|
8=FIX.4.4|9=0049|35=0|34=5|49=EXC|56=001|52=20190705-16:58:28.000|10=180|
8=FIX.4.4|9=59|35=0|34=5|49=001|50=001B27|52=20190705-16:52:33.903|56=EXC|10=054|
8=FIX.4.4|9=110|35=A|34=1|49=001|50=001B27|52=20190705-16:54:03.956|56=EXC|43=Y|98=0|108=30|141=Y|553=001FCM001|554=001FCM001|10=089|
8=FIX.4.4|9=0067|35=A|34=1|49=EXC|56=001|52=20190705-16:59:59.086|98=0|108=30|141=Y|10=026|
8=FIX.4.4|9=186|35=R|34=2|49=001|50=001B27|52=20190705-16:54:11.289|56=EXC|131=201907051154001_R|146=1|55=TFIC13280425|22=M|762=RFQF|54=1|38=500000000|453=2|448=002B35|447=C|452=37|448=DCV|447=C|452=10|10=067|
8=FIX.4.4|9=0268|35=AI|34=2|49=EXC|56=001|57=001B27|52=20190705-17:00:06.395|131=201907051154001_R|453=5|448=DCV|447=C|452=10|448=001B27|447=C|452=12|448=001|447=C|452=1|448=001FCM001|447=C|452=36|448=002B35|447=C|452=37|55=TFIC13280425|762=RFQF|48=20626|22=M|54=1|38=500000000|297=10|10=216|
8=FIX.4.4|9=0316|35=S|34=3|49=EXC|56=001|57=001B27|52=20190705-17:00:26.735|131=201907051154001_R|117=20190705-000000000013.00|55=TFIC13280425|762=RFQF|48=20626|22=M|453=5|448=DCV|447=C|452=10|448=001B27|447=C|452=12|448=001|447=C|452=1|448=001FCM001|447=C|452=36|448=002B35|447=C|452=37|634=3.000|135=500000000|62=20190830-22:00:00|10=237|
8=FIX.4.4|9=59|35=0|34=3|49=001|50=001B27|52=20190705-16:54:41.913|56=EXC|10=054|
8=FIX.4.4|9=148|35=AJ|34=4|49=001|50=001B27|52=20190705-16:54:52.180|56=EXC|54=1|55=TFIC13280425|117=20190705-000000000013.00|693=201907051154001_AJ|694=1|762=RFQF|10=072|
8=FIX.4.4|9=0516|35=8|34=4|49=EXC|56=001|57=001B27|52=20190705-17:00:47.277|11=201907051154001_AJ|17=9|37=0|150=F|1080=20190705-000000000013.00|1081=5|453=6|448=001B27|447=C|452=12|448=001|447=C|452=1|448=002B35|447=C|452=37|448=002|447=C|452=17|448=001FCM001|447=C|452=36|448=DCV|447=C|452=10|55=TFIC13280425|762=RFQF|48=20626|22=M|6=84.210|14=500000000|31=84.210|32=500000000|38=500000000|39=2|20102=84.210|54=1|60=20190705-17:00:47.277|75=20190705|63=1|64=20190705|151=0|1623=3.000|381=421054500.000|880=201907050000000009|828=99|10=109|
8=FIX.4.4|9=0049|35=0|34=5|49=EXC|56=001|52=20190705-17:01:17.000|10=167|
8=FIX.4.4|9=59|35=0|34=5|49=001|50=001B27|52=20190705-16:55:22.901|56=EXC|10=053|
8=FIX.4.4|9=110|35=A|34=1|49=001|50=001B27|52=20190705-19:47:04.918|56=EXC|43=Y|98=0|108=30|141=Y|553=001FCM001|554=001FCM001|10=093|
8=FIX.4.4|9=0067|35=A|34=1|49=EXC|56=001|52=20190705-19:53:00.192|98=0|108=30|141=Y|10=007|
8=FIX.4.4|9=186|35=R|34=2|49=001|50=001B27|52=20190705-19:47:12.220|56=EXC|131=201907051447011_R|146=1|55=TFIC13280425|22=M|762=RFQF|54=1|38=500000000|453=2|448=002B35|447=C|452=37|448=DCV|447=C|452=10|10=064|
8=FIX.4.4|9=0268|35=AI|34=2|49=EXC|56=001|57=001B27|52=20190705-19:53:07.441|131=201907051447011_R|453=5|448=DCV|447=C|452=10|448=001B27|447=C|452=12|448=001|447=C|452=1|448=001FCM001|447=C|452=36|448=002B35|447=C|452=37|55=TFIC13280425|762=RFQF|48=20626|22=M|54=1|38=500000000|297=10|10=225|
8=FIX.4.4|9=0316|35=S|34=3|49=EXC|56=001|57=001B27|52=20190705-19:53:27.912|131=201907051447011_R|117=20190705-000000000014.00|55=TFIC13280425|762=RFQF|48=20626|22=M|453=5|448=DCV|447=C|452=10|448=001B27|447=C|452=12|448=001|447=C|452=1|448=001FCM001|447=C|452=36|448=002B35|447=C|452=37|634=3.000|135=500000000|62=20190830-22:00:00|10=252|
8=FIX.4.4|9=59|35=0|34=3|49=001|50=001B27|52=20190705-19:47:42.861|56=EXC|10=062|
8=FIX.4.4|9=148|35=AJ|34=4|49=001|50=001B27|52=20190705-19:47:53.294|56=EXC|54=1|55=TFIC13280425|117=20190705-000000000014.00|693=201907051447011_AJ|694=1|762=RFQF|10=091|
8=FIX.4.4|9=0517|35=8|34=4|49=EXC|56=001|57=001B27|52=20190705-19:53:48.531|11=201907051447011_AJ|17=10|37=0|150=F|1080=20190705-000000000014.00|1081=5|453=6|448=001B27|447=C|452=12|448=001|447=C|452=1|448=002B35|447=C|452=37|448=002|447=C|452=17|448=001FCM001|447=C|452=36|448=DCV|447=C|452=10|55=TFIC13280425|762=RFQF|48=20626|22=M|6=84.210|14=500000000|31=84.210|32=500000000|38=500000000|39=2|20102=84.210|54=1|60=20190705-19:53:48.531|75=20190705|63=1|64=20190705|151=0|1623=3.000|381=421054500.000|880=201907050000000010|828=99|10=157|
8=FIX.4.4|9=244|35=AE|34=5|49=001|50=001B27|52=20190705-19:48:19.168|56=EXC|22=M|31=84.21|32=500000000|48=20626|54=1|55=TFIC13280425|60=20190705-19:53:48.531|487=0|571=201907051447011_AE|762=20626|856=96|880=201907050000000010|552=1|453=1|448=DCV|447=C|452=10|10=242|
8=FIX.4.4|9=0127|35=3|34=5|49=EXC|56=001|52=20190705-19:54:14.394|45=5|371=552|372=AE|373=1|58=(1463): Hace falta campo requerido NoSides(#552)|10=061|
