8=FIX.4.4|9=105|35=A|34=1|49=013|50=013B17|52=20190620-21:31:23.158|56=EXC|98=0|108=30|141=Y|553=013FCM001|554=013FCM001|10=089|
8=FIX.4.4|9=0067|35=A|34=1|49=EXC|56=013|52=20190620-21:31:23.690|98=0|108=30|141=Y|10=003|
8=FIX.4.4|9=105|35=A|34=1|49=013|50=013B17|52=20190620-21:41:55.650|56=EXC|98=0|108=30|141=Y|553=013FCM001|554=013FCM001|10=092|
8=FIX.4.4|9=0067|35=A|34=1|49=EXC|56=013|52=20190620-21:41:55.857|98=0|108=30|141=Y|10=014|
8=FIX.4.4|9=105|35=A|34=1|49=013|50=013B17|52=20190620-21:42:44.122|56=EXC|98=0|108=30|141=Y|553=013FCM001|554=013FCM001|10=085|
8=FIX.4.4|9=0067|35=A|34=1|49=EXC|56=013|52=20190620-21:42:44.234|98=0|108=30|141=Y|10=002|
8=FIX.4.4|9=105|35=A|34=1|49=013|50=013B17|52=20190620-21:54:13.253|56=EXC|98=0|108=30|141=Y|553=013FCM001|554=013FCM001|10=089|
8=FIX.4.4|9=0067|35=A|34=1|49=EXC|56=013|52=20190620-21:54:13.683|98=0|108=30|141=Y|10=009|
8=FIX.4.4|9=105|35=A|34=1|49=013|50=013B17|52=20190620-21:59:27.641|56=EXC|98=0|108=30|141=Y|553=013FCM001|554=013FCM001|10=100|
8=FIX.4.4|9=0067|35=A|34=1|49=EXC|56=013|52=20190620-21:59:28.112|98=0|108=30|141=Y|10=007|
8=FIX.4.4|9=105|35=A|34=1|49=013|50=013B17|52=20190621-13:46:46.522|56=EXC|98=0|108=30|141=Y|553=013FCM001|554=013FCM001|10=097|
8=FIX.4.4|9=0067|35=A|34=1|49=EXC|56=013|52=20190621-13:46:46.542|98=0|108=30|141=Y|10=012|
8=FIX.4.4|9=105|35=A|34=1|49=013|50=013B17|52=20190621-13:51:58.610|56=EXC|98=0|108=30|141=Y|553=013FCM001|554=013FCM001|10=094|
8=FIX.4.4|9=0067|35=A|34=1|49=EXC|56=013|52=20190621-13:51:58.632|98=0|108=30|141=Y|10=011|
8=FIX.4.4|9=105|35=A|34=1|49=013|50=013B17|52=20190621-14:01:12.838|56=EXC|98=0|108=30|141=Y|553=013FCM001|554=013FCM001|10=092|
8=FIX.4.4|9=0067|35=A|34=1|49=EXC|56=013|52=20190621-14:01:12.883|98=0|108=30|141=Y|10=005|
8=FIX.4.4|9=105|35=A|34=1|49=013|50=013B17|52=20190621-14:02:04.394|56=EXC|98=0|108=30|141=Y|553=013FCM001|554=013FCM001|10=091|
8=FIX.4.4|9=0067|35=A|34=1|49=EXC|56=013|52=20190621-14:02:04.432|98=0|108=30|141=Y|10=253|
8=FIX.4.4|9=105|35=A|34=1|49=013|50=013B17|52=20190621-15:58:27.620|56=EXC|98=0|108=30|141=Y|553=013FCM001|554=013FCM001|10=100|
8=FIX.4.4|9=0067|35=A|34=1|49=EXC|56=013|52=20190621-15:58:27.663|98=0|108=30|141=Y|10=020|
8=FIX.4.4|9=105|35=A|34=1|49=013|50=013B17|52=20190621-16:01:48.528|56=EXC|98=0|108=30|141=Y|553=013FCM001|554=013FCM001|10=099|
8=FIX.4.4|9=0067|35=A|34=1|49=EXC|56=013|52=20190621-16:01:48.583|98=0|108=30|141=Y|10=013|
8=FIX.4.4|9=105|35=A|34=1|49=013|50=013B17|52=20190621-16:17:31.401|56=EXC|98=0|108=30|141=Y|553=013FCM001|554=013FCM001|10=088|
8=FIX.4.4|9=0067|35=A|34=1|49=EXC|56=013|52=20190621-16:17:31.447|98=0|108=30|141=Y|10=011|
8=FIX.4.4|9=105|35=A|34=1|49=013|50=013B17|52=20190621-16:24:24.472|56=EXC|98=0|108=30|141=Y|553=013FCM001|554=013FCM001|10=096|
8=FIX.4.4|9=0067|35=A|34=1|49=EXC|56=013|52=20190621-16:24:24.531|98=0|108=30|141=Y|10=005|
8=FIX.4.4|9=105|35=A|34=1|49=013|50=013B17|52=20190621-16:29:19.383|56=EXC|98=0|108=30|141=Y|553=013FCM001|554=013FCM001|10=106|
8=FIX.4.4|9=0067|35=A|34=1|49=EXC|56=013|52=20190621-16:29:19.412|98=0|108=30|141=Y|10=012|
8=FIX.4.4|9=105|35=A|34=1|49=013|50=013B17|52=20190625-14:28:26.126|56=EXC|98=0|108=30|141=Y|553=013FCM001|554=013FCM001|10=100|
8=FIX.4.4|9=0067|35=A|34=1|49=EXC|56=013|52=20190627-14:28:15.849|98=0|108=30|141=Y|10=025|
8=FIX.4.4|9=105|35=A|34=1|49=013|50=013B17|52=20190625-14:51:26.050|56=EXC|98=0|108=30|141=Y|553=013FCM001|554=013FCM001|10=092|
8=FIX.4.4|9=0067|35=A|34=1|49=EXC|56=013|52=20190627-14:51:15.743|98=0|108=30|141=Y|10=014|
8=FIX.4.4|9=105|35=A|34=1|49=013|50=013B17|52=20190625-19:44:15.107|56=EXC|98=0|108=30|141=Y|553=013FCM001|554=013FCM001|10=100|
8=FIX.4.4|9=0067|35=A|34=1|49=EXC|56=013|52=20190627-19:44:15.153|98=0|108=30|141=Y|10=016|
8=FIX.4.4|9=105|35=A|34=1|49=013|50=013B17|52=20190625-19:45:35.142|56=EXC|98=0|108=30|141=Y|553=013FCM001|554=013FCM001|10=102|
8=FIX.4.4|9=0067|35=A|34=1|49=EXC|56=013|52=20190627-19:45:35.177|98=0|108=30|141=Y|10=025|
8=FIX.4.4|9=105|35=A|34=1|49=013|50=013B17|52=20190625-19:54:23.992|56=EXC|98=0|108=30|141=Y|553=013FCM001|554=013FCM001|10=112|
8=FIX.4.4|9=0067|35=A|34=1|49=EXC|56=013|52=20190627-19:54:24.047|98=0|108=30|141=Y|10=019|
8=FIX.4.4|9=105|35=A|34=1|49=013|50=013B17|52=20190625-19:55:23.734|56=EXC|98=0|108=30|141=Y|553=013FCM001|554=013FCM001|10=107|
8=FIX.4.4|9=0067|35=A|34=1|49=EXC|56=013|52=20190627-19:55:23.787|98=0|108=30|141=Y|10=030|
8=FIX.4.4|9=105|35=A|34=1|49=013|50=013B17|52=20190625-20:02:36.670|56=EXC|98=0|108=30|141=Y|553=013FCM001|554=013FCM001|10=094|
8=FIX.4.4|9=0067|35=A|34=1|49=EXC|56=013|52=20190627-20:02:36.703|98=0|108=30|141=Y|10=006|
