8=FIX.4.4|9=105|35=A|34=1|49=010|50=010BWN|52=20190620-21:31:23.123|56=EXC|98=0|108=30|141=Y|553=010FCE003|554=010FCE003|10=118|
8=FIX.4.4|9=0067|35=A|34=1|49=EXC|56=010|52=20190620-21:31:23.655|98=0|108=30|141=Y|10=001|
8=FIX.4.4|9=105|35=A|34=1|49=010|50=010BWN|52=20190620-21:41:55.429|56=EXC|98=0|108=30|141=Y|553=010FCE003|554=010FCE003|10=133|
8=FIX.4.4|9=0067|35=A|34=1|49=EXC|56=010|52=20190620-21:41:55.686|98=0|108=30|141=Y|10=011|
8=FIX.4.4|9=105|35=A|34=1|49=010|50=010BWN|52=20190620-21:42:44.060|56=EXC|98=0|108=30|141=Y|553=010FCE003|554=010FCE003|10=123|
8=FIX.4.4|9=0067|35=A|34=1|49=EXC|56=010|52=20190620-21:42:44.165|98=0|108=30|141=Y|10=002|
8=FIX.4.4|9=105|35=A|34=1|49=010|50=010BWN|52=20190620-21:54:13.147|56=EXC|98=0|108=30|141=Y|553=010FCE003|554=010FCE003|10=128|
8=FIX.4.4|9=0067|35=A|34=1|49=EXC|56=010|52=20190620-21:54:13.565|98=0|108=30|141=Y|10=005|
8=FIX.4.4|9=105|35=A|34=1|49=010|50=010BWN|52=20190620-21:59:27.608|56=EXC|98=0|108=30|141=Y|553=010FCE003|554=010FCE003|10=140|
8=FIX.4.4|9=0067|35=A|34=1|49=EXC|56=010|52=20190620-21:59:28.077|98=0|108=30|141=Y|10=014|
8=FIX.4.4|9=105|35=A|34=1|49=010|50=010BWN|52=20190621-13:46:46.488|56=EXC|98=0|108=30|141=Y|553=010FCE003|554=010FCE003|10=145|
8=FIX.4.4|9=0067|35=A|34=1|49=EXC|56=010|52=20190621-13:46:46.507|98=0|108=30|141=Y|10=010|
8=FIX.4.4|9=105|35=A|34=1|49=010|50=010BWN|52=20190621-13:51:58.540|56=EXC|98=0|108=30|141=Y|553=010FCE003|554=010FCE003|10=133|
8=FIX.4.4|9=0067|35=A|34=1|49=EXC|56=010|52=20190621-13:51:58.586|98=0|108=30|141=Y|10=016|
8=FIX.4.4|9=105|35=A|34=1|49=010|50=010BWN|52=20190621-14:01:12.738|56=EXC|98=0|108=30|141=Y|553=010FCE003|554=010FCE003|10=128|
8=FIX.4.4|9=0067|35=A|34=1|49=EXC|56=010|52=20190621-14:01:12.820|98=0|108=30|141=Y|10=249|
8=FIX.4.4|9=105|35=A|34=1|49=010|50=010BWN|52=20190621-14:02:04.361|56=EXC|98=0|108=30|141=Y|553=010FCE003|554=010FCE003|10=122|
8=FIX.4.4|9=0067|35=A|34=1|49=EXC|56=010|52=20190621-14:02:04.399|98=0|108=30|141=Y|10=006|
8=FIX.4.4|9=105|35=A|34=1|49=010|50=010BWN|52=20190621-15:58:27.555|56=EXC|98=0|108=30|141=Y|553=010FCE003|554=010FCE003|10=144|
8=FIX.4.4|9=0067|35=A|34=1|49=EXC|56=010|52=20190621-15:58:27.594|98=0|108=30|141=Y|10=020|
8=FIX.4.4|9=105|35=A|34=1|49=010|50=010BWN|52=20190621-16:01:48.463|56=EXC|98=0|108=30|141=Y|553=010FCE003|554=010FCE003|10=134|
8=FIX.4.4|9=0067|35=A|34=1|49=EXC|56=010|52=20190621-16:01:48.503|98=0|108=30|141=Y|10=002|
8=FIX.4.4|9=105|35=A|34=1|49=010|50=010BWN|52=20190621-16:17:31.295|56=EXC|98=0|108=30|141=Y|553=010FCE003|554=010FCE003|10=136|
8=FIX.4.4|9=0067|35=A|34=1|49=EXC|56=010|52=20190621-16:17:31.359|98=0|108=30|141=Y|10=010|
8=FIX.4.4|9=105|35=A|34=1|49=010|50=010BWN|52=20190621-16:24:24.387|56=EXC|98=0|108=30|141=Y|553=010FCE003|554=010FCE003|10=138|
8=FIX.4.4|9=0067|35=A|34=1|49=EXC|56=010|52=20190621-16:24:24.431|98=0|108=30|141=Y|10=001|
8=FIX.4.4|9=105|35=A|34=1|49=010|50=010BWN|52=20190621-16:29:19.305|56=EXC|98=0|108=30|141=Y|553=010FCE003|554=010FCE003|10=137|
8=FIX.4.4|9=0067|35=A|34=1|49=EXC|56=010|52=20190621-16:29:19.353|98=0|108=30|141=Y|10=013|
