8=FIX.4.4|9=105|35=A|34=1|49=007|50=007B26|52=20190620-21:31:23.089|56=EXC|98=0|108=30|141=Y|553=007FCE001|554=007FCE001|10=088|
8=FIX.4.4|9=0067|35=A|34=1|49=EXC|56=007|52=20190620-21:31:23.619|98=0|108=30|141=Y|10=007|
8=FIX.4.4|9=105|35=A|34=1|49=007|50=007B26|52=20190620-21:41:55.335|56=EXC|98=0|108=30|141=Y|553=007FCE001|554=007FCE001|10=088|
8=FIX.4.4|9=0067|35=A|34=1|49=EXC|56=007|52=20190620-21:41:55.472|98=0|108=30|141=Y|10=010|
8=FIX.4.4|9=105|35=A|34=1|49=007|50=007B26|52=20190620-21:42:44.027|56=EXC|98=0|108=30|141=Y|553=007FCE001|554=007FCE001|10=085|
8=FIX.4.4|9=0067|35=A|34=1|49=EXC|56=007|52=20190620-21:42:44.108|98=0|108=30|141=Y|10=005|
8=FIX.4.4|9=105|35=A|34=1|49=007|50=007B26|52=20190620-21:54:13.103|56=EXC|98=0|108=30|141=Y|553=007FCE001|554=007FCE001|10=079|
8=FIX.4.4|9=0067|35=A|34=1|49=EXC|56=007|52=20190620-21:54:13.474|98=0|108=30|141=Y|10=010|
8=FIX.4.4|9=105|35=A|34=1|49=007|50=007B26|52=20190620-21:59:27.577|56=EXC|98=0|108=30|141=Y|553=007FCE001|554=007FCE001|10=104|
8=FIX.4.4|9=0067|35=A|34=1|49=EXC|56=007|52=20190620-21:59:28.045|98=0|108=30|141=Y|10=015|
8=FIX.4.4|9=105|35=A|34=1|49=007|50=007B26|52=20190621-13:46:46.451|56=EXC|98=0|108=30|141=Y|553=007FCE001|554=007FCE001|10=094|
8=FIX.4.4|9=0067|35=A|34=1|49=EXC|56=007|52=20190621-13:46:46.475|98=0|108=30|141=Y|10=020|
8=FIX.4.4|9=105|35=A|34=1|49=007|50=007B26|52=20190621-13:51:58.492|56=EXC|98=0|108=30|141=Y|553=007FCE001|554=007FCE001|10=098|
8=FIX.4.4|9=0067|35=A|34=1|49=EXC|56=007|52=20190621-13:51:58.529|98=0|108=30|141=Y|10=019|
8=FIX.4.4|9=105|35=A|34=1|49=007|50=007B26|52=20190621-14:01:12.683|56=EXC|98=0|108=30|141=Y|553=007FCE001|554=007FCE001|10=086|
8=FIX.4.4|9=0067|35=A|34=1|49=EXC|56=007|52=20190621-14:01:12.733|98=0|108=30|141=Y|10=002|
8=FIX.4.4|9=105|35=A|34=1|49=007|50=007B26|52=20190621-14:02:04.327|56=EXC|98=0|108=30|141=Y|553=007FCE001|554=007FCE001|10=083|
8=FIX.4.4|9=0067|35=A|34=1|49=EXC|56=007|52=20190621-14:02:04.365|98=0|108=30|141=Y|10=005|
8=FIX.4.4|9=105|35=A|34=1|49=007|50=007B26|52=20190621-15:58:27.490|56=EXC|98=0|108=30|141=Y|553=007FCE001|554=007FCE001|10=101|
8=FIX.4.4|9=0067|35=A|34=1|49=EXC|56=007|52=20190621-15:58:27.525|98=0|108=30|141=Y|10=020|
8=FIX.4.4|9=105|35=A|34=1|49=007|50=007B26|52=20190621-16:01:48.381|56=EXC|98=0|108=30|141=Y|553=007FCE001|554=007FCE001|10=092|
8=FIX.4.4|9=0067|35=A|34=1|49=EXC|56=007|52=20190621-16:01:48.437|98=0|108=30|141=Y|10=014|
8=FIX.4.4|9=105|35=A|34=1|49=007|50=007B26|52=20190621-16:17:31.209|56=EXC|98=0|108=30|141=Y|553=007FCE001|554=007FCE001|10=090|
8=FIX.4.4|9=0067|35=A|34=1|49=EXC|56=007|52=20190621-16:17:31.286|98=0|108=30|141=Y|10=015|
8=FIX.4.4|9=105|35=A|34=1|49=007|50=007B26|52=20190621-16:24:24.313|56=EXC|98=0|108=30|141=Y|553=007FCE001|554=007FCE001|10=086|
8=FIX.4.4|9=0067|35=A|34=1|49=EXC|56=007|52=20190621-16:24:24.356|98=0|108=30|141=Y|10=013|
8=FIX.4.4|9=105|35=A|34=1|49=007|50=007B26|52=20190621-16:29:19.236|56=EXC|98=0|108=30|141=Y|553=007FCE001|554=007FCE001|10=099|
8=FIX.4.4|9=0067|35=A|34=1|49=EXC|56=007|52=20190621-16:29:19.265|98=0|108=30|141=Y|10=021|
