8=FIX.4.4|9=110|35=A|34=1|49=007|50=007B26|52=20190705-20:43:25.824|56=EXC|43=N|98=0|108=30|141=Y|553=007FCE001|554=007FCE001|10=076|
8=FIX.4.4|9=0067|35=A|34=1|49=EXC|56=007|52=20190705-20:43:56.139|98=0|108=30|141=Y|10=016|
8=FIX.4.4|9=0049|35=0|34=2|49=EXC|56=007|52=20190705-20:44:26.000|10=171|
8=FIX.4.4|9=59|35=0|34=2|49=007|50=007B26|52=20190705-20:43:56.663|56=EXC|10=065|
8=FIX.4.4|9=0049|35=0|34=3|49=EXC|56=007|52=20190705-20:44:56.000|10=175|
8=FIX.4.4|9=59|35=0|34=3|49=007|50=007B26|52=20190705-20:44:26.664|56=EXC|10=065|
8=FIX.4.4|9=0049|35=0|34=4|49=EXC|56=007|52=20190705-20:45:26.000|10=174|
8=FIX.4.4|9=59|35=0|34=4|49=007|50=007B26|52=20190705-20:44:56.663|56=EXC|10=068|
8=FIX.4.4|9=0049|35=0|34=5|49=EXC|56=007|52=20190705-20:45:56.000|10=178|
8=FIX.4.4|9=59|35=0|34=5|49=007|50=007B26|52=20190705-20:45:26.674|56=EXC|10=069|
8=FIX.4.4|9=0049|35=0|34=6|49=EXC|56=007|52=20190705-20:46:26.000|10=177|
8=FIX.4.4|9=59|35=0|34=6|49=007|50=007B26|52=20190705-20:45:57.663|56=EXC|10=072|
8=FIX.4.4|9=0049|35=0|34=7|49=EXC|56=007|52=20190705-20:46:56.000|10=181|
8=FIX.4.4|9=59|35=0|34=7|49=007|50=007B26|52=20190705-20:46:27.663|56=EXC|10=071|
8=FIX.4.4|9=82|35=A|34=1|49=007|50=007B26|52=20190709-15:38:37.294|56=EXC|43=N|98=0|108=30|141=Y|10=145|
8=FIX.4.4|9=82|35=A|34=1|49=007|50=007B26|52=20190709-15:44:17.252|56=EXC|43=N|98=0|108=30|141=Y|10=134|
