8=FIX.4.4|9=110|35=A|34=1|49=071|50=071X01|52=20190716-13:29:28.441|56=EXC|43=N|98=0|108=30|141=Y|553=071FCM001|554=071FCM001|10=117|8=FIX.4.4|9=191|35=AE|34=2|49=071|50=071X01|52=20190716-13:29:51.298|56=EXC|31=1000|32=100|55=T24Q19F|60=20190717-13:24:54.135|487=2|571=20190716829251_AE_R|762=FUIR|856=97|880=201907170000000003|552=1|54=2|10=173|8=FIX.4.4|9=59|35=0|34=3|49=071|50=071X01|52=20190716-13:30:21.430|56=EXC|10=067|8=FIX.4.4|9=59|35=5|34=4|49=071|50=071X01|52=20190716-13:30:27.132|56=EXC|10=078|