8=FIX.4.4|9=110|35=A|34=1|49=072|50=072X01|52=20190715-19:29:08.727|56=EXC|43=N|98=0|108=30|141=Y|553=072FCM001|554=072FCM001|10=131|8=FIX.4.4|9=59|35=0|34=2|49=072|50=072X01|52=20190715-19:29:39.606|56=EXC|10=095|