8=FIX.4.4|9=110|35=A|34=1|49=071|50=071X01|52=20190712-00:00:19.732|56=EXC|43=N|98=0|108=30|141=Y|553=071FCM001|554=071FCM001|10=101|8=FIX.4.4|9=192|35=AE|34=2|49=071|50=071X01|52=20190712-00:00:41.783|56=EXC|31=1000|32=100|55=T24Q19F|60=20190706-16:13:52.000|487=2|571=201907111900161_AE_R|762=FUIR|856=97|880=201907160000000001|552=1|54=1|10=171|