8=FIX.4.4|9=110|35=A|34=1|49=071|50=071X01|52=20190715-13:27:08.450|56=EXC|43=N|98=0|108=30|141=Y|553=071FCM001|554=071FCM001|10=112|8=FIX.4.4|9=191|35=AE|34=2|49=071|50=071X01|52=20190715-13:27:30.672|56=EXC|31=1000|32=100|55=T24Q19F|60=20190716-15:23:08.699|487=2|571=20190715827051_AE_R|762=FUIR|856=97|880=201907160000000003|552=1|54=2|10=171|8=FIX.4.4|9=59|35=0|34=3|49=071|50=071X01|52=20190715-13:28:01.462|56=EXC|10=076|8=FIX.4.4|9=59|35=0|34=4|49=071|50=071X01|52=20190715-13:28:31.466|56=EXC|10=084|8=FIX.4.4|9=59|35=0|34=5|49=071|50=071X01|52=20190715-13:29:01.565|56=EXC|10=083|