8=FIX.4.4|9=110|35=A|34=1|49=071|50=071X01|52=20190715-16:11:12.784|56=EXC|43=N|98=0|108=30|141=Y|553=071FCM001|554=071FCM001|10=113|8=FIX.4.4|9=191|35=AE|34=2|49=071|50=071X01|52=20190715-16:11:35.007|56=EXC|31=1000|32=50|55=T24Q19F|60=20190716-15:23:08.699|487=2|571=201907151111091_AE_R|762=FUIR|856=97|880=201907160000000003|552=1|54=2|10=159|8=FIX.4.4|9=59|35=0|34=3|49=071|50=071X01|52=20190715-16:12:05.750|56=EXC|10=076|8=FIX.4.4|9=59|35=0|34=4|49=071|50=071X01|52=20190715-16:12:35.751|56=EXC|10=081|8=FIX.4.4|9=59|35=0|34=5|49=071|50=071X01|52=20190715-16:13:05.750|56=EXC|10=079|8=FIX.4.4|9=59|35=0|34=6|49=071|50=071X01|52=20190715-16:13:35.750|56=EXC|10=083|8=FIX.4.4|9=59|35=0|34=7|49=071|50=071X01|52=20190715-16:14:05.750|56=EXC|10=082|8=FIX.4.4|9=59|35=0|34=8|49=071|50=071X01|52=20190715-16:14:35.752|56=EXC|10=088|8=FIX.4.4|9=59|35=0|34=9|49=071|50=071X01|52=20190715-16:15:05.752|56=EXC|10=087|8=FIX.4.4|9=60|35=0|34=10|49=071|50=071X01|52=20190715-16:15:35.751|56=EXC|10=121|8=FIX.4.4|9=60|35=0|34=11|49=071|50=071X01|52=20190715-16:16:05.751|56=EXC|10=120|8=FIX.4.4|9=60|35=0|34=12|49=071|50=071X01|52=20190715-16:16:35.751|56=EXC|10=124|