8=FIX.4.4|9=110|35=A|34=1|49=072|50=072X01|52=20190712-00:00:19.795|56=EXC|43=N|98=0|108=30|141=Y|553=072FCM001|554=072FCM001|10=114|