8=FIX.4.4|9=110|35=A|34=1|49=073|50=073X01|52=20190715-19:29:08.805|56=EXC|43=N|98=0|108=30|141=Y|553=073FCM001|554=073FCM001|10=132|8=FIX.4.4|9=59|35=0|34=2|49=073|50=073X01|52=20190715-19:29:39.798|56=EXC|10=109|