8=FIX.4.4|9=110|35=A|34=1|49=073|50=073X01|52=20190712-19:50:07.786|56=EXC|43=N|98=0|108=30|141=Y|553=073FCM001|554=073FCM001|10=130|