8=FIX.4.4|9=110|35=A|34=1|49=071|50=071X01|52=20190712-15:30:15.893|56=EXC|43=N|98=0|108=30|141=Y|553=071FCM001|554=071FCM001|10=114|8=FIX.4.4|9=192|35=AE|34=2|49=071|50=071X01|52=20190712-15:30:38.090|56=EXC|31=1000|32=100|55=T24Q19F|60=20190712-15:31:29.198|487=2|571=201907121030121_AE_R|762=FUIR|856=97|880=201907120000000005|552=1|54=2|10=187|