8=FIX.4.4|9=110|35=A|34=1|49=071|50=071X01|52=20190715-15:46:46.942|56=EXC|43=N|98=0|108=30|141=Y|553=071FCM001|554=071FCM001|10=123|8=FIX.4.4|9=192|35=AE|34=2|49=071|50=071X01|52=20190715-15:47:09.197|56=EXC|31=1000|32=100|55=T24Q19F|60=20190716-16:42:11.915|487=2|571=201907151046431_AE_R|762=FUIR|856=97|880=201907160000000009|552=1|54=2|10=221|8=FIX.4.4|9=192|35=AE|34=3|49=071|50=071X01|52=20190715-15:47:09.213|56=EXC|31=1000|32=100|55=T24Q19F|60=20190716-16:42:11.915|487=2|571=201907151046431_AE_R|762=FUIR|856=97|880=201907160000000009|552=1|54=2|10=211|8=FIX.4.4|9=59|35=0|34=4|49=071|50=071X01|52=20190715-15:47:39.867|56=EXC|10=100|