8=FIX.4.4|9=110|35=A|34=1|49=071|50=071X01|52=20190716-19:48:53.508|56=EXC|43=N|98=0|108=30|141=Y|553=071FCM001|554=071FCM001|10=126|8=FIX.4.4|9=59|35=0|34=2|49=071|50=071X01|52=20190716-19:49:24.485|56=EXC|10=095|8=FIX.4.4|9=192|35=AE|34=3|49=071|50=071X01|52=20190716-19:49:26.220|56=EXC|31=1000|32=100|55=T24Q19F|60=20190717-19:46:41.204|487=2|571=201907161448501_AE_R|762=FUIR|856=97|880=201907170000000025|552=1|54=2|10=221|8=FIX.4.4|9=59|35=0|34=4|49=071|50=071X01|52=20190716-19:49:56.484|56=EXC|10=101|8=FIX.4.4|9=59|35=0|34=5|49=071|50=071X01|52=20190716-19:50:26.485|56=EXC|10=092|8=FIX.4.4|9=59|35=0|34=6|49=071|50=071X01|52=20190716-19:50:56.484|56=EXC|10=095|8=FIX.4.4|9=59|35=0|34=7|49=071|50=071X01|52=20190716-19:51:26.484|56=EXC|10=094|8=FIX.4.4|9=59|35=0|34=8|49=071|50=071X01|52=20190716-19:51:56.486|56=EXC|10=100|8=FIX.4.4|9=59|35=0|34=9|49=071|50=071X01|52=20190716-19:52:26.485|56=EXC|10=098|8=FIX.4.4|9=60|35=0|34=10|49=071|50=071X01|52=20190716-19:52:56.484|56=EXC|10=132|8=FIX.4.4|9=60|35=0|34=11|49=071|50=071X01|52=20190716-19:53:26.484|56=EXC|10=131|8=FIX.4.4|9=60|35=0|34=12|49=071|50=071X01|52=20190716-19:53:56.486|56=EXC|10=137|8=FIX.4.4|9=60|35=0|34=13|49=071|50=071X01|52=20190716-19:54:26.485|56=EXC|10=135|8=FIX.4.4|9=60|35=0|34=14|49=071|50=071X01|52=20190716-19:54:56.485|56=EXC|10=139|8=FIX.4.4|9=60|35=0|34=15|49=071|50=071X01|52=20190716-19:55:26.487|56=EXC|10=140|8=FIX.4.4|9=60|35=0|34=16|49=071|50=071X01|52=20190716-19:55:56.486|56=EXC|10=143|8=FIX.4.4|9=60|35=0|34=17|49=071|50=071X01|52=20190716-19:56:26.486|56=EXC|10=142|8=FIX.4.4|9=60|35=0|34=18|49=071|50=071X01|52=20190716-19:56:56.486|56=EXC|10=146|8=FIX.4.4|9=60|35=0|34=19|49=071|50=071X01|52=20190716-19:57:26.487|56=EXC|10=146|8=FIX.4.4|9=60|35=0|34=20|49=071|50=071X01|52=20190716-19:57:56.486|56=EXC|10=140|8=FIX.4.4|9=60|35=0|34=21|49=071|50=071X01|52=20190716-19:58:26.486|56=EXC|10=139|