8=FIX.4.4|9=110|35=A|34=1|49=073|50=073X01|52=20190715-15:46:47.067|56=EXC|43=N|98=0|108=30|141=Y|553=073FCM001|554=073FCM001|10=130|8=FIX.4.4|9=59|35=0|34=2|49=073|50=073X01|52=20190715-15:47:18.012|56=EXC|10=081|8=FIX.4.4|9=59|35=0|34=3|49=073|50=073X01|52=20190715-15:47:48.038|56=EXC|10=093|