8=FIX.4.4|9=105|35=A|34=1|49=007|50=007B26|52=20190625-20:02:36.543|56=EXC|98=0|108=30|141=Y|553=007FCE001|554=007FCE001|10=089|