8=FIX.4.4|9=110|35=A|34=1|49=007|50=007B26|52=20190705-19:47:05.059|56=EXC|43=Y|98=0|108=30|141=Y|553=007FCE001|554=007FCE001|10=097|8=FIX.4.4|9=59|35=0|34=2|49=007|50=007B26|52=20190705-19:47:35.915|56=EXC|10=074|8=FIX.4.4|9=59|35=0|34=3|49=007|50=007B26|52=20190705-19:48:05.911|56=EXC|10=069|8=FIX.4.4|9=59|35=0|34=4|49=007|50=007B26|52=20190705-19:48:35.909|56=EXC|10=080|