8=FIX.4.4|9=110|35=A|34=1|49=007|50=007B26|52=20190703-21:16:39.877|56=EXC|43=Y|98=0|108=30|141=Y|553=007FCE001|554=007FCE001|10=099|8=FIX.4.4|9=59|35=0|34=2|49=007|50=007B26|52=20190703-21:17:09.869|56=EXC|10=071|8=FIX.4.4|9=59|35=0|34=3|49=007|50=007B26|52=20190703-21:17:39.863|56=EXC|10=069|8=FIX.4.4|9=59|35=5|34=4|49=007|50=007B26|52=20190703-21:17:59.869|56=EXC|10=083|