8=FIX.4.4|9=110|35=A|34=1|49=007|50=007B26|52=20190709-22:20:05.163|56=EXC|43=Y|98=0|108=30|141=Y|553=007FCE001|554=007FCE001|10=082|8=FIX.4.4|9=59|35=0|34=2|49=007|50=007B26|52=20190709-22:20:36.081|56=EXC|10=058|8=FIX.4.4|9=59|35=0|34=3|49=007|50=007B26|52=20190709-22:21:06.078|56=EXC|10=063|8=FIX.4.4|9=59|35=0|34=4|49=007|50=007B26|52=20190709-22:21:36.078|56=EXC|10=067|