8=FIX.4.4|9=110|35=A|34=1|49=007|50=007B26|52=20190711-19:42:54.810|56=EXC|43=N|98=0|108=30|141=Y|553=007FCE001|554=007FCE001|10=077|8=FIX.4.4|9=59|35=0|34=2|49=007|50=007B26|52=20190711-19:43:25.785|56=EXC|10=071|