8=FIX.4.4|9=110|35=A|34=1|49=007|50=007B26|52=20190705-20:44:31.622|56=EXC|43=Y|98=0|108=30|141=Y|553=007FCE001|554=007FCE001|10=081|8=FIX.4.4|9=59|35=0|34=2|49=007|50=007B26|52=20190705-20:45:02.491|56=EXC|10=057|8=FIX.4.4|9=59|35=0|34=3|49=007|50=007B26|52=20190705-20:45:32.501|56=EXC|10=053|8=FIX.4.4|9=59|35=0|34=4|49=007|50=007B26|52=20190705-20:46:02.495|56=EXC|10=064|