8=FIX.4.4|9=110|35=A|34=1|49=051|50=051B17|52=20190808-01:14:38.326|56=EXC|43=N|98=0|108=30|141=Y|553=051FCM001|554=051FCM001|10=090|8=FIX.4.4|9=59|35=0|34=2|49=051|50=051B17|52=20190808-01:15:09.216|56=EXC|10=057|8=FIX.4.4|9=59|35=0|34=3|49=051|50=051B17|52=20190808-01:15:39.215|56=EXC|10=060|8=FIX.4.4|9=59|35=0|34=4|49=051|50=051B17|52=20190808-01:16:09.216|56=EXC|10=060|8=FIX.4.4|9=59|35=0|34=5|49=051|50=051B17|52=20190808-01:16:39.216|56=EXC|10=064|8=FIX.4.4|9=59|35=0|34=6|49=051|50=051B17|52=20190808-01:17:09.216|56=EXC|10=063|8=FIX.4.4|9=59|35=0|34=7|49=051|50=051B17|52=20190808-01:17:39.218|56=EXC|10=069|8=FIX.4.4|9=59|35=0|34=8|49=051|50=051B17|52=20190808-01:18:09.218|56=EXC|10=068|8=FIX.4.4|9=59|35=0|34=9|49=051|50=051B17|52=20190808-01:18:39.218|56=EXC|10=072|8=FIX.4.4|9=60|35=0|34=10|49=051|50=051B17|52=20190808-01:19:09.218|56=EXC|10=102|8=FIX.4.4|9=60|35=0|34=11|49=051|50=051B17|52=20190808-01:19:39.218|56=EXC|10=106|8=FIX.4.4|9=60|35=0|34=12|49=051|50=051B17|52=20190808-01:20:09.220|56=EXC|10=089|8=FIX.4.4|9=60|35=0|34=13|49=051|50=051B17|52=20190808-01:20:39.220|56=EXC|10=093|8=FIX.4.4|9=60|35=0|34=14|49=051|50=051B17|52=20190808-01:21:09.220|56=EXC|10=092|8=FIX.4.4|9=60|35=0|34=15|49=051|50=051B17|52=20190808-01:21:39.219|56=EXC|10=104|8=FIX.4.4|9=60|35=0|34=16|49=051|50=051B17|52=20190808-01:22:09.220|56=EXC|10=095|8=FIX.4.4|9=60|35=0|34=17|49=051|50=051B17|52=20190808-01:22:39.220|56=EXC|10=099|8=FIX.4.4|9=60|35=0|34=18|49=051|50=051B17|52=20190808-01:23:09.220|56=EXC|10=098|