8=FIX.4.4|9=110|35=A|34=1|49=051|50=051B17|52=20190724-23:15:49.106|56=EXC|43=N|98=0|108=30|141=Y|553=051FCM001|554=051FCM001|10=090|8=FIX.4.4|9=59|35=0|34=2|49=051|50=051B17|52=20190724-23:16:20.051|56=EXC|10=049|8=FIX.4.4|9=59|35=0|34=3|49=051|50=051B17|52=20190724-23:16:50.052|56=EXC|10=054|8=FIX.4.4|9=59|35=0|34=4|49=051|50=051B17|52=20190724-23:17:20.051|56=EXC|10=052|8=FIX.4.4|9=59|35=0|34=5|49=051|50=051B17|52=20190724-23:17:50.051|56=EXC|10=056|8=FIX.4.4|9=59|35=0|34=6|49=051|50=051B17|52=20190724-23:18:20.052|56=EXC|10=056|8=FIX.4.4|9=59|35=0|34=7|49=051|50=051B17|52=20190724-23:18:50.053|56=EXC|10=061|