8=FIX.4.4|9=110|35=A|34=1|49=051|50=051B17|52=20190719-20:34:37.777|56=EXC|43=N|98=0|108=30|141=Y|553=051FCM001|554=051FCM001|10=103|8=FIX.4.4|9=59|35=5|34=2|49=051|50=051B17|52=20190719-20:35:06.981|56=EXC|10=072|