8=FIX.4.4|9=110|35=A|34=1|49=051|50=051B17|52=20190725-23:49:40.980|56=EXC|43=N|98=0|108=30|141=Y|553=051FCM001|554=051FCM001|10=099|8=FIX.4.4|9=59|35=0|34=2|49=051|50=051B17|52=20190725-23:50:11.913|56=EXC|10=055|8=FIX.4.4|9=59|35=0|34=3|49=051|50=051B17|52=20190725-23:50:41.912|56=EXC|10=058|8=FIX.4.4|9=59|35=0|34=4|49=051|50=051B17|52=20190725-23:51:11.912|56=EXC|10=057|8=FIX.4.4|9=59|35=0|34=5|49=051|50=051B17|52=20190725-23:51:41.912|56=EXC|10=061|8=FIX.4.4|9=59|35=5|34=6|49=051|50=051B17|52=20190725-23:51:49.913|56=EXC|10=076|