8=FIX.4.4|9=110|35=A|34=1|49=051|50=051B17|52=20190722-22:05:05.038|56=EXC|43=N|98=0|108=30|141=Y|553=051FCM001|554=051FCM001|10=082|8=FIX.4.4|9=59|35=0|34=2|49=051|50=051B17|52=20190722-22:05:36.007|56=EXC|10=052|8=FIX.4.4|9=59|35=0|34=3|49=051|50=051B17|52=20190722-22:06:06.011|56=EXC|10=046|