8=FIX.4.4|9=110|35=A|34=1|49=051|50=051B17|52=20190729-21:33:22.444|56=EXC|43=N|98=0|108=30|141=Y|553=051FCM001|554=051FCM001|10=089|8=FIX.4.4|9=59|35=0|34=2|49=051|50=051B17|52=20190729-21:33:52.443|56=EXC|10=061|8=FIX.4.4|9=59|35=5|34=3|49=051|50=051B17|52=20190729-21:33:53.440|56=EXC|10=065|