8=FIX.4.4|9=110|35=A|34=1|49=051|50=051B17|52=20190726-21:54:47.978|56=EXC|43=N|98=0|108=30|141=Y|553=051FCM001|554=051FCM001|10=108|8=FIX.4.4|9=59|35=0|34=2|49=051|50=051B17|52=20190726-21:55:18.950|56=EXC|10=067|8=FIX.4.4|9=59|35=0|34=3|49=051|50=051B17|52=20190726-21:55:48.948|56=EXC|10=078|8=FIX.4.4|9=59|35=0|34=4|49=051|50=051B17|52=20190726-21:56:18.948|56=EXC|10=077|8=FIX.4.4|9=59|35=0|34=5|49=051|50=051B17|52=20190726-21:56:48.949|56=EXC|10=082|8=FIX.4.4|9=59|35=5|34=6|49=051|50=051B17|52=20190726-21:57:13.948|56=EXC|10=080|