8=FIX.4.4|9=110|35=A|34=1|49=051|50=051B17|52=20190729-20:31:38.455|56=EXC|43=N|98=0|108=30|141=Y|553=051FCM001|554=051FCM001|10=095|8=FIX.4.4|9=59|35=0|34=2|49=051|50=051B17|52=20190729-20:32:09.403|56=EXC|10=057|8=FIX.4.4|9=59|35=0|34=3|49=051|50=051B17|52=20190729-20:32:39.400|56=EXC|10=058|8=FIX.4.4|9=59|35=0|34=4|49=051|50=051B17|52=20190729-20:33:09.396|56=EXC|10=071|8=FIX.4.4|9=59|35=5|34=5|49=051|50=051B17|52=20190729-20:33:11.411|56=EXC|10=058|