8=FIX.4.4|9=110|35=A|34=1|49=072|50=072X01|52=20190715-13:27:08.481|56=EXC|43=N|98=0|108=30|141=Y|553=072FCM001|554=072FCM001|10=120|8=FIX.4.4|9=59|35=0|34=2|49=072|50=072X01|52=20190715-13:27:38.474|56=EXC|10=089|8=FIX.4.4|9=59|35=0|34=3|49=072|50=072X01|52=20190715-13:28:08.472|56=EXC|10=086|8=FIX.4.4|9=59|35=0|34=4|49=072|50=072X01|52=20190715-13:28:38.464|56=EXC|10=091|