8=FIX.4.4|9=110|35=A|34=1|49=072|50=072X01|52=20190716-19:48:53.535|56=EXC|43=N|98=0|108=30|141=Y|553=072FCM001|554=072FCM001|10=130|8=FIX.4.4|9=59|35=0|34=2|49=072|50=072X01|52=20190716-19:49:24.505|56=EXC|10=090|8=FIX.4.4|9=59|35=0|34=3|49=072|50=072X01|52=20190716-19:49:54.507|56=EXC|10=096|8=FIX.4.4|9=59|35=0|34=4|49=072|50=072X01|52=20190716-19:50:24.507|56=EXC|10=086|8=FIX.4.4|9=59|35=0|34=5|49=072|50=072X01|52=20190716-19:50:54.506|56=EXC|10=089|8=FIX.4.4|9=59|35=0|34=6|49=072|50=072X01|52=20190716-19:51:24.506|56=EXC|10=088|8=FIX.4.4|9=59|35=0|34=7|49=072|50=072X01|52=20190716-19:51:54.506|56=EXC|10=092|8=FIX.4.4|9=59|35=0|34=8|49=072|50=072X01|52=20190716-19:52:24.506|56=EXC|10=091|8=FIX.4.4|9=59|35=0|34=9|49=072|50=072X01|52=20190716-19:52:54.506|56=EXC|10=095|8=FIX.4.4|9=60|35=0|34=10|49=072|50=072X01|52=20190716-19:53:24.507|56=EXC|10=126|8=FIX.4.4|9=60|35=0|34=11|49=072|50=072X01|52=20190716-19:53:54.507|56=EXC|10=130|8=FIX.4.4|9=60|35=0|34=12|49=072|50=072X01|52=20190716-19:54:24.506|56=EXC|10=128|8=FIX.4.4|9=60|35=0|34=13|49=072|50=072X01|52=20190716-19:54:54.508|56=EXC|10=134|8=FIX.4.4|9=60|35=0|34=14|49=072|50=072X01|52=20190716-19:55:24.507|56=EXC|10=132|8=FIX.4.4|9=60|35=0|34=15|49=072|50=072X01|52=20190716-19:55:54.507|56=EXC|10=136|8=FIX.4.4|9=60|35=0|34=16|49=072|50=072X01|52=20190716-19:56:24.507|56=EXC|10=135|8=FIX.4.4|9=60|35=0|34=17|49=072|50=072X01|52=20190716-19:56:54.509|56=EXC|10=141|8=FIX.4.4|9=60|35=0|34=18|49=072|50=072X01|52=20190716-19:57:24.508|56=EXC|10=139|8=FIX.4.4|9=60|35=0|34=19|49=072|50=072X01|52=20190716-19:57:54.508|56=EXC|10=143|8=FIX.4.4|9=60|35=0|34=20|49=072|50=072X01|52=20190716-19:58:24.508|56=EXC|10=133|