8=FIX.4.4|9=110|35=A|34=1|49=072|50=072X01|52=20190715-16:11:12.833|56=EXC|43=N|98=0|108=30|141=Y|553=072FCM001|554=072FCM001|10=112|8=FIX.4.4|9=59|35=0|34=2|49=072|50=072X01|52=20190715-16:11:43.797|56=EXC|10=089|8=FIX.4.4|9=59|35=0|34=3|49=072|50=072X01|52=20190715-16:12:13.795|56=EXC|10=086|8=FIX.4.4|9=59|35=0|34=4|49=072|50=072X01|52=20190715-16:12:43.796|56=EXC|10=091|8=FIX.4.4|9=59|35=0|34=5|49=072|50=072X01|52=20190715-16:13:13.796|56=EXC|10=090|8=FIX.4.4|9=59|35=0|34=6|49=072|50=072X01|52=20190715-16:13:43.796|56=EXC|10=094|8=FIX.4.4|9=59|35=0|34=7|49=072|50=072X01|52=20190715-16:14:13.795|56=EXC|10=092|8=FIX.4.4|9=59|35=0|34=8|49=072|50=072X01|52=20190715-16:14:43.797|56=EXC|10=098|8=FIX.4.4|9=59|35=0|34=9|49=072|50=072X01|52=20190715-16:15:13.795|56=EXC|10=095|8=FIX.4.4|9=60|35=0|34=10|49=072|50=072X01|52=20190715-16:15:43.796|56=EXC|10=131|8=FIX.4.4|9=60|35=0|34=11|49=072|50=072X01|52=20190715-16:16:13.795|56=EXC|10=129|8=FIX.4.4|9=60|35=0|34=12|49=072|50=072X01|52=20190715-16:16:43.795|56=EXC|10=133|