8=FIX.4.4|9=110|35=A|34=1|49=072|50=072X01|52=20190715-20:47:26.146|56=EXC|43=N|98=0|108=30|141=Y|553=072FCM001|554=072FCM001|10=118|8=FIX.4.4|9=59|35=0|34=2|49=072|50=072X01|52=20190715-20:47:57.133|56=EXC|10=082|8=FIX.4.4|9=59|35=0|34=3|49=072|50=072X01|52=20190715-20:48:27.133|56=EXC|10=081|8=FIX.4.4|9=59|35=0|34=4|49=072|50=072X01|52=20190715-20:48:57.133|56=EXC|10=085|8=FIX.4.4|9=59|35=0|34=5|49=072|50=072X01|52=20190715-20:49:27.134|56=EXC|10=085|8=FIX.4.4|9=59|35=0|34=6|49=072|50=072X01|52=20190715-20:49:57.133|56=EXC|10=088|8=FIX.4.4|9=59|35=0|34=7|49=072|50=072X01|52=20190715-20:50:27.135|56=EXC|10=080|8=FIX.4.4|9=59|35=0|34=8|49=072|50=072X01|52=20190715-20:50:57.134|56=EXC|10=083|8=FIX.4.4|9=59|35=0|34=9|49=072|50=072X01|52=20190715-20:51:27.134|56=EXC|10=082|8=FIX.4.4|9=60|35=0|34=10|49=072|50=072X01|52=20190715-20:51:57.133|56=EXC|10=116|8=FIX.4.4|9=60|35=0|34=11|49=072|50=072X01|52=20190715-20:52:27.134|56=EXC|10=116|8=FIX.4.4|9=60|35=0|34=12|49=072|50=072X01|52=20190715-20:52:57.134|56=EXC|10=120|8=FIX.4.4|9=60|35=0|34=13|49=072|50=072X01|52=20190715-20:53:27.135|56=EXC|10=120|8=FIX.4.4|9=60|35=0|34=14|49=072|50=072X01|52=20190715-20:53:57.135|56=EXC|10=124|8=FIX.4.4|9=60|35=0|34=15|49=072|50=072X01|52=20190715-20:54:27.135|56=EXC|10=123|8=FIX.4.4|9=60|35=0|34=16|49=072|50=072X01|52=20190715-20:54:57.134|56=EXC|10=126|8=FIX.4.4|9=60|35=0|34=17|49=072|50=072X01|52=20190715-20:55:27.135|56=EXC|10=126|8=FIX.4.4|9=60|35=0|34=18|49=072|50=072X01|52=20190715-20:55:57.135|56=EXC|10=130|8=FIX.4.4|9=60|35=0|34=19|49=072|50=072X01|52=20190715-20:56:27.134|56=EXC|10=128|8=FIX.4.4|9=60|35=0|34=20|49=072|50=072X01|52=20190715-20:56:57.135|56=EXC|10=124|8=FIX.4.4|9=60|35=0|34=21|49=072|50=072X01|52=20190715-20:57:27.135|56=EXC|10=123|8=FIX.4.4|9=60|35=0|34=22|49=072|50=072X01|52=20190715-20:57:57.135|56=EXC|10=127|8=FIX.4.4|9=60|35=0|34=23|49=072|50=072X01|52=20190715-20:58:27.134|56=EXC|10=125|8=FIX.4.4|9=60|35=0|34=24|49=072|50=072X01|52=20190715-20:58:57.135|56=EXC|10=130|8=FIX.4.4|9=60|35=0|34=25|49=072|50=072X01|52=20190715-20:59:27.134|56=EXC|10=128|8=FIX.4.4|9=60|35=0|34=26|49=072|50=072X01|52=20190715-20:59:57.136|56=EXC|10=134|8=FIX.4.4|9=60|35=0|34=27|49=072|50=072X01|52=20190715-21:00:27.136|56=EXC|10=119|8=FIX.4.4|9=60|35=0|34=28|49=072|50=072X01|52=20190715-21:00:57.135|56=EXC|10=122|8=FIX.4.4|9=60|35=0|34=29|49=072|50=072X01|52=20190715-21:01:27.136|56=EXC|10=122|8=FIX.4.4|9=60|35=0|34=30|49=072|50=072X01|52=20190715-21:01:57.134|56=EXC|10=115|