8=FIX.4.4|9=110|35=A|34=1|49=010|50=010BWN|52=20190703-21:16:39.956|56=EXC|43=Y|98=0|108=30|141=Y|553=010FCE003|554=010FCE003|10=138|8=FIX.4.4|9=59|35=0|34=2|49=010|50=010BWN|52=20190703-21:17:10.916|56=EXC|10=105|8=FIX.4.4|9=59|35=0|34=3|49=010|50=010BWN|52=20190703-21:17:40.914|56=EXC|10=107|8=FIX.4.4|9=59|35=5|34=4|49=010|50=010BWN|52=20190703-21:17:59.916|56=EXC|10=125|