8=FIX.4.4|9=110|35=A|34=1|49=010|50=010BWN|52=20190705-20:44:31.669|56=EXC|43=Y|98=0|108=30|141=Y|553=010FCE003|554=010FCE003|10=133|8=FIX.4.4|9=59|35=0|34=2|49=010|50=010BWN|52=20190705-20:45:02.648|56=EXC|10=110|8=FIX.4.4|9=59|35=0|34=3|49=010|50=010BWN|52=20190705-20:45:32.642|56=EXC|10=108|8=FIX.4.4|9=59|35=0|34=4|49=010|50=010BWN|52=20190705-20:46:02.652|56=EXC|10=108|