8=FIX.4.4|9=110|35=A|34=1|49=010|50=010BWN|52=20190709-22:20:05.210|56=EXC|43=Y|98=0|108=30|141=Y|553=010FCE003|554=010FCE003|10=116|8=FIX.4.4|9=59|35=0|34=2|49=010|50=010BWN|52=20190709-22:20:36.116|56=EXC|10=106|8=FIX.4.4|9=59|35=0|34=3|49=010|50=010BWN|52=20190709-22:21:06.114|56=EXC|10=103|8=FIX.4.4|9=59|35=0|34=4|49=010|50=010BWN|52=20190709-22:21:36.114|56=EXC|10=107|