8=FIX.4.4|9=110|35=A|34=1|49=010|50=010BWN|52=20190711-19:42:54.857|56=EXC|43=N|98=0|108=30|141=Y|553=010FCE003|554=010FCE003|10=129|8=FIX.4.4|9=59|35=0|34=2|49=010|50=010BWN|52=20190711-19:43:24.894|56=EXC|10=120|