8=FIX.4.4|9=110|35=A|34=1|49=010|50=010BWN|52=20190705-19:47:05.105|56=EXC|43=Y|98=0|108=30|141=Y|553=010FCE003|554=010FCE003|10=130|8=FIX.4.4|9=59|35=0|34=2|49=010|50=010BWN|52=20190705-19:47:36.028|56=EXC|10=119|8=FIX.4.4|9=59|35=0|34=3|49=010|50=010BWN|52=20190705-19:48:06.024|56=EXC|10=114|8=FIX.4.4|9=59|35=0|34=4|49=010|50=010BWN|52=20190705-19:48:36.024|56=EXC|10=118|