8=FIX.4.4|9=82|35=A|34=1|49=010|50=010BWN|52=20190709-15:44:17.299|56=EXC|43=N|98=0|108=30|141=Y|10=194|