8=FIX.4.4|9=110|35=A|34=1|49=045|50=045B17|52=20190729-20:31:38.420|56=EXC|43=N|98=0|108=30|141=Y|553=045FCM001|554=045FCM001|10=099|8=FIX.4.4|9=59|35=0|34=2|49=045|50=045B17|52=20190729-20:32:09.387|56=EXC|10=074|8=FIX.4.4|9=59|35=0|34=3|49=045|50=045B17|52=20190729-20:32:39.381|56=EXC|10=072|8=FIX.4.4|9=59|35=0|34=4|49=045|50=045B17|52=20190729-20:33:09.378|56=EXC|10=077|8=FIX.4.4|9=59|35=5|34=5|49=045|50=045B17|52=20190729-20:33:11.379|56=EXC|10=077|