8=FIX.4.4|9=110|35=A|34=1|49=045|50=045B17|52=20190729-21:33:22.413|56=EXC|43=N|98=0|108=30|141=Y|553=045FCM001|554=045FCM001|10=097|8=FIX.4.4|9=59|35=5|34=2|49=045|50=045B17|52=20190729-21:33:53.394|56=EXC|10=078|