8=FIX.4.4|9=110|35=A|34=1|49=045|50=045B17|52=20190722-22:05:04.991|56=EXC|43=N|98=0|108=30|141=Y|553=045FCM001|554=045FCM001|10=101|8=FIX.4.4|9=59|35=0|34=2|49=045|50=045B17|52=20190722-22:05:35.976|56=EXC|10=072|8=FIX.4.4|9=59|35=0|34=3|49=045|50=045B17|52=20190722-22:06:05.976|56=EXC|10=071|