8=FIX.4.4|9=110|35=A|34=1|49=045|50=045B17|52=20190725-23:49:40.954|56=EXC|43=N|98=0|108=30|141=Y|553=045FCM001|554=045FCM001|10=112|8=FIX.4.4|9=59|35=0|34=2|49=045|50=045B17|52=20190725-23:50:10.962|56=EXC|10=064|8=FIX.4.4|9=59|35=0|34=3|49=045|50=045B17|52=20190725-23:50:40.953|56=EXC|10=068|8=FIX.4.4|9=59|35=0|34=4|49=045|50=045B17|52=20190725-23:51:10.952|56=EXC|10=066|8=FIX.4.4|9=59|35=0|34=5|49=045|50=045B17|52=20190725-23:51:40.956|56=EXC|10=074|8=FIX.4.4|9=59|35=5|34=6|49=045|50=045B17|52=20190725-23:51:49.845|56=EXC|10=086|