8=FIX.4.4|9=110|35=A|34=1|49=045|50=045B17|52=20190724-23:15:49.081|56=EXC|43=N|98=0|108=30|141=Y|553=045FCM001|554=045FCM001|10=104|8=FIX.4.4|9=59|35=0|34=2|49=045|50=045B17|52=20190724-23:16:20.033|56=EXC|10=055|8=FIX.4.4|9=59|35=0|34=3|49=045|50=045B17|52=20190724-23:16:50.032|56=EXC|10=058|8=FIX.4.4|9=59|35=0|34=4|49=045|50=045B17|52=20190724-23:17:20.034|56=EXC|10=059|8=FIX.4.4|9=59|35=0|34=5|49=045|50=045B17|52=20190724-23:17:50.033|56=EXC|10=062|8=FIX.4.4|9=59|35=0|34=6|49=045|50=045B17|52=20190724-23:18:20.033|56=EXC|10=061|8=FIX.4.4|9=59|35=0|34=7|49=045|50=045B17|52=20190724-23:18:50.038|56=EXC|10=070|