8=FIX.4.4|9=110|35=A|34=1|49=045|50=045B17|52=20190726-21:54:47.949|56=EXC|43=N|98=0|108=30|141=Y|553=045FCM001|554=045FCM001|10=118|8=FIX.4.4|9=59|35=0|34=2|49=045|50=045B17|52=20190726-21:55:17.951|56=EXC|10=073|8=FIX.4.4|9=59|35=0|34=3|49=045|50=045B17|52=20190726-21:55:47.945|56=EXC|10=080|8=FIX.4.4|9=59|35=0|34=4|49=045|50=045B17|52=20190726-21:56:17.944|56=EXC|10=078|8=FIX.4.4|9=59|35=0|34=5|49=045|50=045B17|52=20190726-21:56:47.944|56=EXC|10=082|8=FIX.4.4|9=59|35=5|34=6|49=045|50=045B17|52=20190726-21:57:13.928|56=EXC|10=084|