8=FIX.4.4|9=110|35=A|34=1|49=045|50=045B17|52=20190808-01:14:38.299|56=EXC|43=N|98=0|108=30|141=Y|553=045FCM001|554=045FCM001|10=111|8=FIX.4.4|9=59|35=0|34=2|49=045|50=045B17|52=20190808-01:15:09.196|56=EXC|10=070|8=FIX.4.4|9=59|35=0|34=3|49=045|50=045B17|52=20190808-01:15:39.196|56=EXC|10=074|8=FIX.4.4|9=59|35=0|34=4|49=045|50=045B17|52=20190808-01:16:09.197|56=EXC|10=074|8=FIX.4.4|9=59|35=0|34=5|49=045|50=045B17|52=20190808-01:16:39.198|56=EXC|10=079|8=FIX.4.4|9=59|35=0|34=6|49=045|50=045B17|52=20190808-01:17:09.198|56=EXC|10=078|8=FIX.4.4|9=59|35=0|34=7|49=045|50=045B17|52=20190808-01:17:39.198|56=EXC|10=082|8=FIX.4.4|9=59|35=0|34=8|49=045|50=045B17|52=20190808-01:18:09.198|56=EXC|10=081|8=FIX.4.4|9=59|35=0|34=9|49=045|50=045B17|52=20190808-01:18:39.198|56=EXC|10=085|8=FIX.4.4|9=60|35=0|34=10|49=045|50=045B17|52=20190808-01:19:09.199|56=EXC|10=116|8=FIX.4.4|9=60|35=0|34=11|49=045|50=045B17|52=20190808-01:19:39.200|56=EXC|10=103|8=FIX.4.4|9=60|35=0|34=12|49=045|50=045B17|52=20190808-01:20:09.201|56=EXC|10=094|8=FIX.4.4|9=60|35=0|34=13|49=045|50=045B17|52=20190808-01:20:39.200|56=EXC|10=097|8=FIX.4.4|9=60|35=0|34=14|49=045|50=045B17|52=20190808-01:21:09.201|56=EXC|10=097|8=FIX.4.4|9=60|35=0|34=15|49=045|50=045B17|52=20190808-01:21:39.201|56=EXC|10=101|8=FIX.4.4|9=60|35=0|34=16|49=045|50=045B17|52=20190808-01:22:09.201|56=EXC|10=100|8=FIX.4.4|9=60|35=0|34=17|49=045|50=045B17|52=20190808-01:22:39.202|56=EXC|10=105|8=FIX.4.4|9=60|35=0|34=18|49=045|50=045B17|52=20190808-01:23:09.201|56=EXC|10=103|