8=FIX.4.4|9=105|35=A|34=1|49=002|50=002B35|52=20190620-16:55:23.055|56=EXC|98=0|108=30|141=Y|553=002FCM001|554=002FCM001|10=087|