8=FIX.4.4|9=110|35=A|34=1|49=002|50=002B35|52=20190705-20:44:31.559|56=EXC|43=Y|98=0|108=30|141=Y|553=002FCM001|554=002FCM001|10=086|8=FIX.4.4|9=219|35=S|34=2|49=002|50=002B35|52=20190705-20:44:59.280|56=EXC|55=TFIC13280425|62=20190830-22:00:00.000|117=201907051544281_S|131=20190705-000000000019.00|134=0|135=500000000|632=0|634=3|762=RFQF|453=1|448=DCV|447=C|452=10|10=125|8=FIX.4.4|9=59|35=0|34=3|49=002|50=002B35|52=20190705-20:45:29.478|56=EXC|10=062|8=FIX.4.4|9=59|35=0|34=4|49=002|50=002B35|52=20190705-20:45:59.474|56=EXC|10=062|