8=FIX.4.4|9=82|35=A|34=1|49=002|50=002B35|52=20190711-15:18:00.247|56=EXC|43=N|98=0|108=30|141=Y|10=114|