8=FIX.4.4|9=110|35=A|34=1|49=002|50=002B35|52=20190711-16:19:20.050|56=EXC|43=N|98=0|108=30|141=Y|553=002FCM001|554=002FCM001|10=063|8=FIX.4.4|9=59|35=0|34=2|49=002|50=002B35|52=20190711-16:19:50.061|56=EXC|10=046|8=FIX.4.4|9=59|35=0|34=3|49=002|50=002B35|52=20190711-16:20:20.059|56=EXC|10=043|