8=FIX.4.4|9=105|35=A|34=1|49=002|50=002B35|52=20190618-20:05:37.881|56=EXC|98=0|108=30|141=Y|553=002FCM001|554=002FCM001|10=096|8=FIX.4.4|9=59|35=0|34=2|49=002|50=002B35|52=20190618-20:06:08.707|56=EXC|10=053|