8=FIX.4.4|9=110|35=A|34=1|49=002|50=002B35|52=20190711-00:38:28.067|56=EXC|43=N|98=0|108=30|141=Y|553=002FCM001|554=002FCM001|10=073|