8=FIX.4.4|9=110|35=A|34=1|49=002|50=002B35|52=20190703-21:16:39.768|56=EXC|43=Y|98=0|108=30|141=Y|553=002FCM001|554=002FCM001|10=094|8=FIX.4.4|9=219|35=S|34=2|49=002|50=002B35|52=20190703-21:17:07.622|56=EXC|55=TFIC13280425|62=20190830-22:00:00.000|117=201907031616361_S|131=20190703-000000000016.00|134=0|135=500000000|632=0|634=3|762=RFQF|453=1|448=DCV|447=C|452=10|10=109|8=FIX.4.4|9=59|35=0|34=3|49=002|50=002B35|52=20190703-21:17:37.672|56=EXC|10=055|8=FIX.4.4|9=59|35=5|34=4|49=002|50=002B35|52=20190703-21:17:59.619|56=EXC|10=066|