8=FIX.4.4|9=110|35=A|34=1|49=002|50=002B35|52=20190711-19:42:54.717|56=EXC|43=N|98=0|108=30|141=Y|553=002FCM001|554=002FCM001|10=079|8=FIX.4.4|9=169|35=AE|34=2|49=002|50=002B35|52=20190711-19:43:17.138|56=EXC|31=1000|32=100|55=T24Q19F|60=20190711-10:20:42.000|487=2|571=201907111442511_AE_R|762=FUIR|856=14|552=1|54=2|10=049|