8=FIX.4.4|9=110|35=A|34=1|49=045|50=045B17|52=20190809-15:07:32.598|56=EXC|43=N|98=0|108=30|141=Y|553=045FCM001|554=045FCM001|10=115|8=FIX.4.4|9=59|35=0|34=2|49=045|50=045B17|52=20190809-15:08:03.546|56=EXC|10=071|8=FIX.4.4|9=59|35=0|34=3|49=045|50=045B17|52=20190809-15:08:33.547|56=EXC|10=076|8=FIX.4.4|9=59|35=0|34=4|49=045|50=045B17|52=20190809-15:09:03.546|56=EXC|10=074|8=FIX.4.4|9=194|35=AE|34=5|49=045|50=045B17|52=20190809-15:09:20.696|56=EXC|31=120.544|32=150|55=T24U19F|60=20190809-15:57:38.057|487=2|571=2019080910073036_AE|762=AFIR|856=97|880=201908090000000009|552=1|54=2|10=251|8=FIX.4.4|9=59|35=0|34=6|49=045|50=045B17|52=20190809-15:09:51.546|56=EXC|10=079|8=FIX.4.4|9=59|35=0|34=7|49=045|50=045B17|52=20190809-15:10:21.546|56=EXC|10=069|8=FIX.4.4|9=59|35=0|34=8|49=045|50=045B17|52=20190809-15:10:51.559|56=EXC|10=077|8=FIX.4.4|9=193|35=AE|34=9|49=045|50=045B17|52=20190809-15:10:54.382|56=EXC|31=120.544|32=65|55=T24U19F|60=20190809-15:58:06.215|487=0|571=2019080910073039_AE|762=AFIR|856=96|880=201908090000000011|552=1|54=1|10=186|8=FIX.4.4|9=60|35=0|34=10|49=045|50=045B17|52=20190809-15:11:24.548|56=EXC|10=109|8=FIX.4.4|9=60|35=5|34=11|49=045|50=045B17|52=20190809-15:11:49.261|56=EXC|10=114|