8=FIX.4.4|9=110|35=A|34=1|49=037|50=037B18|52=20190729-20:31:38.401|56=EXC|43=N|98=0|108=30|141=Y|553=037FCM001|554=037FCM001|10=103|8=FIX.4.4|9=189|35=AE|34=2|49=037|50=037B18|52=20190729-20:32:04.159|56=EXC|31=120|32=100|55=T24U19F|60=20190729-20:07:24.301|487=2|571=201907291531352_AE|762=AFIR|856=97|880=201907290000000006|552=1|54=2|10=222|8=FIX.4.4|9=59|35=0|34=3|49=037|50=037B18|52=20190729-20:32:34.366|56=EXC|10=073|8=FIX.4.4|9=59|35=0|34=4|49=037|50=037B18|52=20190729-20:33:04.367|56=EXC|10=073|8=FIX.4.4|9=59|35=5|34=5|49=037|50=037B18|52=20190729-20:33:11.364|56=EXC|10=074|