8=FIX.4.4|9=110|35=A|34=1|49=037|50=037B18|52=20190726-21:54:47.921|56=EXC|43=N|98=0|108=30|141=Y|553=037FCM001|554=037FCM001|10=113|8=FIX.4.4|9=189|35=AE|34=2|49=037|50=037B18|52=20190726-21:55:14.740|56=EXC|31=120|32=100|55=T24U19F|60=20190726-14:38:35.694|487=2|571=201907261654452_AE|762=AFIR|856=97|880=201907260000000001|552=1|54=2|10=239|8=FIX.4.4|9=59|35=0|34=3|49=037|50=037B18|52=20190726-21:55:44.909|56=EXC|10=080|8=FIX.4.4|9=59|35=0|34=4|49=037|50=037B18|52=20190726-21:56:14.910|56=EXC|10=071|8=FIX.4.4|9=189|35=AE|34=5|49=037|50=037B18|52=20190726-21:56:25.247|56=EXC|31=120|32=100|55=T24U19F|60=20190726-14:38:42.534|487=2|571=201907261654454_AE|762=AFIR|856=98|880=201907260000000002|552=1|54=2|10=242|8=FIX.4.4|9=59|35=0|34=6|49=037|50=037B18|52=20190726-21:56:55.911|56=EXC|10=079|8=FIX.4.4|9=59|35=5|34=7|49=037|50=037B18|52=20190726-21:57:13.910|56=EXC|10=079|