8=FIX.4.4|9=110|35=A|34=1|49=037|50=037B18|52=20190722-22:05:04.928|56=EXC|43=N|98=0|108=30|141=Y|553=037FCM001|554=037FCM001|10=106|8=FIX.4.4|9=59|35=0|34=2|49=037|50=037B18|52=20190722-22:05:35.835|56=EXC|10=069|8=FIX.4.4|9=188|35=AE|34=3|49=037|50=037B18|52=20190722-22:05:44.394|56=EXC|31=120|32=100|55=T24U19F|60=20190722-14:37:29.434|487=2|571=20190722170503_AE|762=AFIR|856=97|880=201907220000000002|552=1|54=2|10=163|8=FIX.4.4|9=59|35=0|34=4|49=037|50=037B18|52=20190722-22:06:14.839|56=EXC|10=073|