8=FIX.4.4|9=110|35=A|34=1|49=037|50=037B18|52=20190719-20:34:37.725|56=EXC|43=N|98=0|108=30|141=Y|553=037FCM001|554=037FCM001|10=113|8=FIX.4.4|9=188|35=AE|34=2|49=037|50=037B18|52=20190719-20:35:06.463|56=EXC|31=120|32=100|55=T24U19F|60=20190719-20:11:53.899|487=2|571=20190719153438_AE|762=AFIR|856=97|880=201907190000000003|552=1|54=2|10=192|8=FIX.4.4|9=59|35=5|34=3|49=037|50=037B18|52=20190719-20:35:06.897|56=EXC|10=088|