8=FIX.4.4|9=110|35=A|34=1|49=037|50=037B18|52=20190724-23:15:49.053|56=EXC|43=N|98=0|108=30|141=Y|553=037FCM001|554=037FCM001|10=108|8=FIX.4.4|9=59|35=0|34=2|49=037|50=037B18|52=20190724-23:16:20.015|56=EXC|10=058|8=FIX.4.4|9=59|35=0|34=3|49=037|50=037B18|52=20190724-23:16:50.019|56=EXC|10=066|8=FIX.4.4|9=59|35=0|34=4|49=037|50=037B18|52=20190724-23:17:20.016|56=EXC|10=062|8=FIX.4.4|9=59|35=0|34=5|49=037|50=037B18|52=20190724-23:17:50.016|56=EXC|10=066|8=FIX.4.4|9=59|35=0|34=6|49=037|50=037B18|52=20190724-23:18:20.017|56=EXC|10=066|8=FIX.4.4|9=59|35=0|34=7|49=037|50=037B18|52=20190724-23:18:50.018|56=EXC|10=071|