8=FIX.4.4|9=110|35=A|34=1|49=037|50=037B18|52=20190725-23:49:40.926|56=EXC|43=N|98=0|108=30|141=Y|553=037FCM001|554=037FCM001|10=116|8=FIX.4.4|9=189|35=AE|34=2|49=037|50=037B18|52=20190725-23:50:06.828|56=EXC|31=120|32=100|55=T24U19F|60=20190725-16:19:52.062|487=2|571=201907251849372_AE|762=AFIR|856=97|880=201907250000000005|552=1|54=2|10=240|8=FIX.4.4|9=59|35=0|34=3|49=037|50=037B18|52=20190725-23:50:36.820|56=EXC|10=069|8=FIX.4.4|9=59|35=0|34=4|49=037|50=037B18|52=20190725-23:51:06.820|56=EXC|10=068|8=FIX.4.4|9=189|35=AE|34=5|49=037|50=037B18|52=20190725-23:51:17.482|56=EXC|31=120|32=100|55=T24U19F|60=20190725-16:20:04.758|487=2|571=201907251849374_AE|762=AFIR|856=98|880=201907250000000006|552=1|54=2|10=247|8=FIX.4.4|9=59|35=0|34=6|49=037|50=037B18|52=20190725-23:51:47.820|56=EXC|10=075|8=FIX.4.4|9=59|35=5|34=7|49=037|50=037B18|52=20190725-23:51:49.445|56=EXC|10=086|