8=FIX.4.4|9=110|35=A|34=1|49=037|50=037B18|52=20190718-23:25:09.353|56=EXC|43=N|98=0|108=30|141=Y|553=037FCM001|554=037FCM001|10=111|8=FIX.4.4|9=188|35=AE|34=2|49=037|50=037B18|52=20190718-23:25:32.302|56=EXC|31=120|32=100|55=T24U19F|60=20190718-15:44:19.446|487=2|571=20190718182508_AE|762=AFIR|856=97|880=201907180000000007|552=1|54=2|10=185|8=FIX.4.4|9=59|35=5|34=3|49=037|50=037B18|52=20190718-23:25:52.923|56=EXC|10=080|