8=FIX.4.4|9=110|35=A|34=1|49=051|50=051B17|52=20190809-15:07:32.533|56=EXC|43=N|98=0|108=30|141=Y|553=051FCM001|554=051FCM001|10=092|8=FIX.4.4|9=191|35=AE|34=2|49=051|50=051B17|52=20190809-15:07:47.258|56=EXC|31=3350|32=100|55=TRMH20F|60=20190809-15:57:11.699|487=2|571=2019080910073032_AE|762=AFFX|856=98|880=201908090000000007|552=1|54=2|10=125|8=FIX.4.4|9=190|35=AE|34=3|49=051|50=051B17|52=20190809-15:08:05.956|56=EXC|31=120|32=100|55=T24U19F|60=20190809-15:57:24.947|487=0|571=2019080910073033_AE|762=AFIR|856=96|880=201908090000000008|552=1|54=2|10=028|8=FIX.4.4|9=59|35=0|34=4|49=051|50=051B17|52=20190809-15:08:36.473|56=EXC|10=072|8=FIX.4.4|9=194|35=AE|34=5|49=051|50=051B17|52=20190809-15:09:02.790|56=EXC|31=120.544|32=150|55=T24U19F|60=20190809-15:57:38.057|487=0|571=2019080910073035_AE|762=AFIR|856=96|880=201908090000000009|552=1|54=1|10=235|8=FIX.4.4|9=59|35=0|34=6|49=051|50=051B17|52=20190809-15:09:33.472|56=EXC|10=071|8=FIX.4.4|9=190|35=AE|34=7|49=051|50=051B17|52=20190809-15:09:58.808|56=EXC|31=3350|32=80|55=TRMH20F|60=20190809-15:57:51.138|487=0|571=2019080910073037_AE|762=AFIX|856=96|880=201908090000000010|552=1|54=2|10=083|8=FIX.4.4|9=59|35=0|34=8|49=051|50=051B17|52=20190809-15:10:29.473|56=EXC|10=071|8=FIX.4.4|9=59|35=0|34=9|49=051|50=051B17|52=20190809-15:10:59.479|56=EXC|10=081|8=FIX.4.4|9=60|35=0|34=10|49=051|50=051B17|52=20190809-15:11:29.473|56=EXC|10=105|8=FIX.4.4|9=60|35=5|34=11|49=051|50=051B17|52=20190809-15:11:49.474|56=EXC|10=114|