8=FIX.4.4|9=110|35=A|34=1|49=035|50=035X01|52=20190716-13:29:28.371|56=EXC|43=N|98=0|108=30|141=Y|553=035FCM001|554=035FCM001|10=119|8=FIX.4.4|9=189|35=AE|34=2|49=035|50=035X01|52=20190716-13:29:35.606|56=EXC|31=1000|32=100|55=T24Q19F|60=20190717-13:24:54.135|487=0|571=20190716829251_AE|762=FUIR|856=96|880=201907170000000003|552=1|54=1|10=250|8=FIX.4.4|9=59|35=0|34=3|49=035|50=035X01|52=20190716-13:30:06.347|56=EXC|10=077|8=FIX.4.4|9=59|35=5|34=4|49=035|50=035X01|52=20190716-13:30:27.347|56=EXC|10=086|