8=FIX.4.4|9=110|35=A|34=1|49=035|50=035X01|52=20190715-15:46:46.884|56=EXC|43=N|98=0|108=30|141=Y|553=035FCM001|554=035FCM001|10=128|8=FIX.4.4|9=190|35=AE|34=2|49=035|50=035X01|52=20190715-15:46:54.169|56=EXC|31=1000|32=100|55=T24Q19F|60=20190716-16:42:11.915|487=0|571=201907151046431_AE|762=FUIR|856=96|880=201907160000000009|552=1|54=1|10=036|8=FIX.4.4|9=59|35=0|34=3|49=035|50=035X01|52=20190715-15:47:24.364|56=EXC|10=085|