8=FIX.4.4|9=110|35=A|34=1|49=035|50=035X01|52=20190715-16:11:12.725|56=EXC|43=N|98=0|108=30|141=Y|553=035FCM001|554=035FCM001|10=108|8=FIX.4.4|9=189|35=AE|34=2|49=035|50=035X01|52=20190715-16:11:19.938|56=EXC|31=1000|32=50|55=T24Q19F|60=20190716-15:23:08.699|487=0|571=201907151111091_AE|762=FUIR|856=96|880=201907160000000003|552=1|54=1|10=000|8=FIX.4.4|9=59|35=0|34=3|49=035|50=035X01|52=20190715-16:11:50.629|56=EXC|10=080|8=FIX.4.4|9=59|35=0|34=4|49=035|50=035X01|52=20190715-16:12:20.631|56=EXC|10=072|8=FIX.4.4|9=59|35=0|34=5|49=035|50=035X01|52=20190715-16:12:50.629|56=EXC|10=083|8=FIX.4.4|9=59|35=0|34=6|49=035|50=035X01|52=20190715-16:13:20.630|56=EXC|10=074|8=FIX.4.4|9=59|35=0|34=7|49=035|50=035X01|52=20190715-16:13:50.631|56=EXC|10=079|8=FIX.4.4|9=59|35=0|34=8|49=035|50=035X01|52=20190715-16:14:20.630|56=EXC|10=077|8=FIX.4.4|9=59|35=0|34=9|49=035|50=035X01|52=20190715-16:14:50.630|56=EXC|10=081|8=FIX.4.4|9=60|35=0|34=10|49=035|50=035X01|52=20190715-16:15:20.631|56=EXC|10=112|8=FIX.4.4|9=60|35=0|34=11|49=035|50=035X01|52=20190715-16:15:50.630|56=EXC|10=115|8=FIX.4.4|9=60|35=0|34=12|49=035|50=035X01|52=20190715-16:16:20.630|56=EXC|10=114|8=FIX.4.4|9=60|35=0|34=13|49=035|50=035X01|52=20190715-16:16:50.630|56=EXC|10=118|