8=FIX.4.4|9=110|35=A|34=1|49=035|50=035X01|52=20190716-19:48:53.428|56=EXC|43=N|98=0|108=30|141=Y|553=035FCM001|554=035FCM001|10=127|8=FIX.4.4|9=190|35=AE|34=2|49=035|50=035X01|52=20190716-19:49:05.633|56=EXC|31=1000|32=100|55=T24Q19F|60=20190717-19:46:41.204|487=0|571=201907161448501_AE|762=FUIR|856=96|880=201907170000000025|552=1|54=1|10=042|8=FIX.4.4|9=59|35=0|34=3|49=035|50=035X01|52=20190716-19:49:36.459|56=EXC|10=100|8=FIX.4.4|9=59|35=0|34=4|49=035|50=035X01|52=20190716-19:50:07.401|56=EXC|10=078|8=FIX.4.4|9=59|35=0|34=5|49=035|50=035X01|52=20190716-19:50:37.400|56=EXC|10=081|8=FIX.4.4|9=59|35=0|34=6|49=035|50=035X01|52=20190716-19:51:07.401|56=EXC|10=081|8=FIX.4.4|9=59|35=0|34=7|49=035|50=035X01|52=20190716-19:51:37.402|56=EXC|10=086|8=FIX.4.4|9=59|35=0|34=8|49=035|50=035X01|52=20190716-19:52:07.402|56=EXC|10=085|8=FIX.4.4|9=59|35=0|34=9|49=035|50=035X01|52=20190716-19:52:37.401|56=EXC|10=088|8=FIX.4.4|9=60|35=0|34=10|49=035|50=035X01|52=20190716-19:53:07.400|56=EXC|10=117|8=FIX.4.4|9=60|35=0|34=11|49=035|50=035X01|52=20190716-19:53:37.401|56=EXC|10=122|8=FIX.4.4|9=60|35=0|34=12|49=035|50=035X01|52=20190716-19:54:07.402|56=EXC|10=122|8=FIX.4.4|9=60|35=0|34=13|49=035|50=035X01|52=20190716-19:54:37.406|56=EXC|10=130|8=FIX.4.4|9=60|35=0|34=14|49=035|50=035X01|52=20190716-19:55:07.403|56=EXC|10=126|8=FIX.4.4|9=60|35=0|34=15|49=035|50=035X01|52=20190716-19:55:37.403|56=EXC|10=130|8=FIX.4.4|9=60|35=0|34=16|49=035|50=035X01|52=20190716-19:56:07.403|56=EXC|10=129|8=FIX.4.4|9=60|35=0|34=17|49=035|50=035X01|52=20190716-19:56:37.402|56=EXC|10=132|8=FIX.4.4|9=60|35=0|34=18|49=035|50=035X01|52=20190716-19:57:07.403|56=EXC|10=132|8=FIX.4.4|9=60|35=0|34=19|49=035|50=035X01|52=20190716-19:57:37.402|56=EXC|10=135|8=FIX.4.4|9=60|35=0|34=20|49=035|50=035X01|52=20190716-19:58:07.402|56=EXC|10=125|8=FIX.4.4|9=60|35=0|34=21|49=035|50=035X01|52=20190716-19:58:37.402|56=EXC|10=129|