8=FIX.4.4|9=110|35=A|34=1|49=035|50=035X01|52=20190712-19:50:07.465|56=EXC|43=N|98=0|108=30|141=Y|553=035FCM001|554=035FCM001|10=116|8=FIX.4.4|9=190|35=AE|34=2|49=035|50=035X01|52=20190712-19:50:14.932|56=EXC|31=1000|32=100|55=T24Q19F|60=20190712-20:29:39.278|487=0|571=201907121450031_AE|762=FUIR|856=96|880=201907120000000009|552=1|54=1|10=022|