8=FIX.4.4|9=110|35=A|34=1|49=035|50=035X01|52=20190715-13:27:08.411|56=EXC|43=N|98=0|108=30|141=Y|553=035FCM001|554=035FCM001|10=109|8=FIX.4.4|9=189|35=AE|34=2|49=035|50=035X01|52=20190715-13:27:15.593|56=EXC|31=1000|32=100|55=T24Q19F|60=20190716-15:23:08.699|487=0|571=20190715827051_AE|762=FUIR|856=96|880=201907160000000003|552=1|54=1|10=002|8=FIX.4.4|9=59|35=0|34=3|49=035|50=035X01|52=20190715-13:27:46.383|56=EXC|10=086|8=FIX.4.4|9=59|35=0|34=4|49=035|50=035X01|52=20190715-13:28:16.379|56=EXC|10=090|8=FIX.4.4|9=59|35=0|34=5|49=035|50=035X01|52=20190715-13:28:46.383|56=EXC|10=089|