8=FIX.4.4|9=110|35=A|34=1|49=029|50=029B17|52=20190808-01:14:38.156|56=EXC|43=N|98=0|108=30|141=Y|553=029FCM001|554=029FCM001|10=111|8=FIX.4.4|9=190|35=AE|34=2|49=029|50=029B17|52=20190808-01:14:40.405|56=EXC|31=120|32=100|55=T24U19F|60=20190808-14:50:12.246|487=0|571=2019080720143521_AE|762=AFIR|856=96|880=201908080000000001|552=1|54=1|10=242|8=FIX.4.4|9=59|35=0|34=3|49=029|50=029B17|52=20190808-01:15:11.111|56=EXC|10=055|8=FIX.4.4|9=59|35=0|34=4|49=029|50=029B17|52=20190808-01:15:41.110|56=EXC|10=058|8=FIX.4.4|9=59|35=0|34=5|49=029|50=029B17|52=20190808-01:16:11.101|56=EXC|10=057|8=FIX.4.4|9=59|35=0|34=6|49=029|50=029B17|52=20190808-01:16:41.109|56=EXC|10=069|8=FIX.4.4|9=59|35=0|34=7|49=029|50=029B17|52=20190808-01:17:11.109|56=EXC|10=068|8=FIX.4.4|9=59|35=0|34=8|49=029|50=029B17|52=20190808-01:17:41.100|56=EXC|10=063|8=FIX.4.4|9=59|35=0|34=9|49=029|50=029B17|52=20190808-01:18:11.105|56=EXC|10=067|8=FIX.4.4|9=60|35=0|34=10|49=029|50=029B17|52=20190808-01:18:41.111|56=EXC|10=099|8=FIX.4.4|9=60|35=0|34=11|49=029|50=029B17|52=20190808-01:19:11.111|56=EXC|10=098|8=FIX.4.4|9=60|35=0|34=12|49=029|50=029B17|52=20190808-01:19:41.103|56=EXC|10=103|8=FIX.4.4|9=60|35=0|34=13|49=029|50=029B17|52=20190808-01:20:11.109|56=EXC|10=099|8=FIX.4.4|9=60|35=0|34=14|49=029|50=029B17|52=20190808-01:20:41.101|56=EXC|10=095|8=FIX.4.4|9=60|35=0|34=15|49=029|50=029B17|52=20190808-01:21:11.112|56=EXC|10=096|8=FIX.4.4|9=60|35=0|34=16|49=029|50=029B17|52=20190808-01:21:41.107|56=EXC|10=104|8=FIX.4.4|9=60|35=0|34=17|49=029|50=029B17|52=20190808-01:22:11.115|56=EXC|10=102|8=FIX.4.4|9=60|35=0|34=18|49=029|50=029B17|52=20190808-01:22:41.114|56=EXC|10=105|8=FIX.4.4|9=60|35=0|34=19|49=029|50=029B17|52=20190808-01:23:11.105|56=EXC|10=104|