8=FIX.4.4|9=110|35=A|34=1|49=037|50=037B18|52=20190808-01:14:38.270|56=EXC|43=N|98=0|108=30|141=Y|553=037FCM001|554=037FCM001|10=105|8=FIX.4.4|9=190|35=AE|34=2|49=037|50=037B18|52=20190808-01:14:54.053|56=EXC|31=120|32=100|55=T24U19F|60=20190808-14:50:12.246|487=2|571=2019080720143522_AE|762=AFIR|856=97|880=201908080000000001|552=1|54=2|10=250|8=FIX.4.4|9=59|35=0|34=3|49=037|50=037B18|52=20190808-01:15:24.180|56=EXC|10=064|8=FIX.4.4|9=59|35=0|34=4|49=037|50=037B18|52=20190808-01:15:54.179|56=EXC|10=076|8=FIX.4.4|9=59|35=0|34=5|49=037|50=037B18|52=20190808-01:16:24.180|56=EXC|10=067|8=FIX.4.4|9=59|35=0|34=6|49=037|50=037B18|52=20190808-01:16:54.185|56=EXC|10=076|8=FIX.4.4|9=59|35=0|34=7|49=037|50=037B18|52=20190808-01:17:24.181|56=EXC|10=071|8=FIX.4.4|9=59|35=0|34=8|49=037|50=037B18|52=20190808-01:17:54.182|56=EXC|10=076|8=FIX.4.4|9=59|35=0|34=9|49=037|50=037B18|52=20190808-01:18:24.192|56=EXC|10=076|8=FIX.4.4|9=60|35=0|34=10|49=037|50=037B18|52=20190808-01:18:55.183|56=EXC|10=112|8=FIX.4.4|9=60|35=0|34=11|49=037|50=037B18|52=20190808-01:19:25.183|56=EXC|10=111|8=FIX.4.4|9=60|35=0|34=12|49=037|50=037B18|52=20190808-01:19:55.182|56=EXC|10=114|8=FIX.4.4|9=60|35=0|34=13|49=037|50=037B18|52=20190808-01:20:25.183|56=EXC|10=105|8=FIX.4.4|9=60|35=0|34=14|49=037|50=037B18|52=20190808-01:20:55.185|56=EXC|10=111|8=FIX.4.4|9=60|35=0|34=15|49=037|50=037B18|52=20190808-01:21:25.182|56=EXC|10=107|8=FIX.4.4|9=60|35=0|34=16|49=037|50=037B18|52=20190808-01:21:55.183|56=EXC|10=112|8=FIX.4.4|9=60|35=0|34=17|49=037|50=037B18|52=20190808-01:22:25.183|56=EXC|10=111|8=FIX.4.4|9=60|35=0|34=18|49=037|50=037B18|52=20190808-01:22:55.185|56=EXC|10=117|8=FIX.4.4|9=60|35=0|34=19|49=037|50=037B18|52=20190808-01:23:25.199|56=EXC|10=121|