8=FIX.4.4|9=110|35=A|34=1|49=029|50=029B17|52=20190729-20:31:38.334|56=EXC|43=N|98=0|108=30|141=Y|553=029FCM001|554=029FCM001|10=111|8=FIX.4.4|9=189|35=AE|34=2|49=029|50=029B17|52=20190729-20:31:45.593|56=EXC|31=120|32=100|55=T24U19F|60=20190729-20:07:24.301|487=0|571=201907291531351_AE|762=AFIR|856=96|880=201907290000000006|552=1|54=1|10=224|8=FIX.4.4|9=59|35=0|34=3|49=029|50=029B17|52=20190729-20:32:16.294|56=EXC|10=074|8=FIX.4.4|9=59|35=0|34=4|49=029|50=029B17|52=20190729-20:32:46.956|56=EXC|10=083|8=FIX.4.4|9=189|35=AE|34=5|49=029|50=029B17|52=20190729-20:32:49.192|56=EXC|31=120|32=100|55=T24U19F|60=20190729-20:07:24.301|487=0|571=201907291531353_AE|762=AFIR|856=96|880=201907290000000005|552=1|54=1|10=228|8=FIX.4.4|9=59|35=5|34=6|49=029|50=029B17|52=20190729-20:33:11.317|56=EXC|10=074|