8=FIX.4.4|9=110|35=A|34=1|49=029|50=029B17|52=20190722-22:05:04.859|56=EXC|43=N|98=0|108=30|141=Y|553=029FCM001|554=029FCM001|10=112|8=FIX.4.4|9=188|35=AE|34=2|49=029|50=029B17|52=20190722-22:05:17.249|56=EXC|31=120|32=100|55=T24U19F|60=20190722-14:37:29.434|487=0|571=20190722170502_AE|762=AFIR|856=96|880=201907220000000002|552=1|54=1|10=157|8=FIX.4.4|9=59|35=0|34=3|49=029|50=029B17|52=20190722-22:05:47.808|56=EXC|10=074|8=FIX.4.4|9=59|35=0|34=4|49=029|50=029B17|52=20190722-22:06:17.811|56=EXC|10=067|