8=FIX.4.4|9=110|35=A|34=1|49=029|50=029B17|52=20190718-23:25:09.304|56=EXC|43=N|98=0|108=30|141=Y|553=029FCM001|554=029FCM001|10=110|8=FIX.4.4|9=188|35=AE|34=2|49=029|50=029B17|52=20190718-23:25:16.465|56=EXC|31=120|32=100|55=T24U19F|60=20190718-15:44:19.446|487=0|571=20190718182507_AE|762=AFIR|856=96|880=201907180000000007|552=1|54=1|10=193|8=FIX.4.4|9=59|35=0|34=3|49=029|50=029B17|52=20190718-23:25:47.281|56=EXC|10=077|8=FIX.4.4|9=59|35=5|34=4|49=029|50=029B17|52=20190718-23:25:53.281|56=EXC|10=080|