8=FIX.4.4|9=110|35=A|34=1|49=029|50=029B17|52=20190725-23:49:40.823|56=EXC|43=N|98=0|108=30|141=Y|553=029FCM001|554=029FCM001|10=115|8=FIX.4.4|9=189|35=AE|34=2|49=029|50=029B17|52=20190725-23:49:48.126|56=EXC|31=120|32=100|55=T24U19F|60=20190725-16:19:52.062|487=0|571=201907251849371_AE|762=AFIR|856=96|880=201907250000000005|552=1|54=1|10=241|8=FIX.4.4|9=59|35=0|34=3|49=029|50=029B17|52=20190725-23:50:18.731|56=EXC|10=071|8=FIX.4.4|9=59|35=0|34=4|49=029|50=029B17|52=20190725-23:50:48.731|56=EXC|10=075|8=FIX.4.4|9=189|35=AE|34=5|49=029|50=029B17|52=20190725-23:50:51.486|56=EXC|31=120|32=100|55=T24U19F|60=20190725-16:20:04.758|487=0|571=201907251849373_AE|762=AFIR|856=96|880=201907250000000006|552=1|54=1|10=243|8=FIX.4.4|9=59|35=0|34=6|49=029|50=029B17|52=20190725-23:51:21.732|56=EXC|10=070|8=FIX.4.4|9=59|35=5|34=7|49=029|50=029B17|52=20190725-23:51:49.732|56=EXC|10=086|