8=FIX.4.4|9=110|35=A|34=1|49=029|50=029B17|52=20190724-23:15:48.979|56=EXC|43=N|98=0|108=30|141=Y|553=029FCM001|554=029FCM001|10=127|8=FIX.4.4|9=189|35=AE|34=2|49=029|50=029B17|52=20190724-23:15:56.250|56=EXC|31=120|32=100|55=T24U19F|60=20190724-17:09:24.960|487=0|571=201907241815461_AE|762=AFIR|856=96|880=201907240000000003|552=1|54=1|10=224|8=FIX.4.4|9=59|35=0|34=3|49=029|50=029B17|52=20190724-23:16:26.924|56=EXC|10=075|8=FIX.4.4|9=59|35=0|34=4|49=029|50=029B17|52=20190724-23:16:56.924|56=EXC|10=079|8=FIX.4.4|9=59|35=0|34=5|49=029|50=029B17|52=20190724-23:17:26.932|56=EXC|10=077|8=FIX.4.4|9=59|35=0|34=6|49=029|50=029B17|52=20190724-23:17:56.924|56=EXC|10=082|8=FIX.4.4|9=59|35=0|34=7|49=029|50=029B17|52=20190724-23:18:26.922|56=EXC|10=079|8=FIX.4.4|9=59|35=0|34=8|49=029|50=029B17|52=20190724-23:18:56.925|56=EXC|10=086|