8=FIX.4.4|9=110|35=A|34=1|49=029|50=029B17|52=20190729-21:33:22.140|56=EXC|43=N|98=0|108=30|141=Y|553=029FCM001|554=029FCM001|10=102|8=FIX.4.4|9=189|35=AE|34=2|49=029|50=029B17|52=20190729-21:33:29.719|56=EXC|31=120|32=100|55=T24U19F|60=20190729-20:07:24.301|487=0|571=201907291633181_AE|762=AFIR|856=96|880=201907290000000006|552=1|54=1|10=233|8=FIX.4.4|9=59|35=5|34=3|49=029|50=029B17|52=20190729-21:33:53.175|56=EXC|10=080|