8=FIX.4.4|9=110|35=A|34=1|49=029|50=029B17|52=20190719-20:34:37.669|56=EXC|43=N|98=0|108=30|141=Y|553=029FCM001|554=029FCM001|10=123|8=FIX.4.4|9=188|35=AE|34=2|49=029|50=029B17|52=20190719-20:34:44.838|56=EXC|31=120|32=100|55=T24U19F|60=20190719-20:11:53.899|487=0|571=20190719153436_AE|762=AFIR|856=96|880=201907190000000003|552=1|54=1|10=194|8=FIX.4.4|9=59|35=5|34=3|49=029|50=029B17|52=20190719-20:35:07.616|56=EXC|10=079|