8=FIX.4.4|9=110|35=A|34=1|49=029|50=029B17|52=20190726-21:54:47.856|56=EXC|43=N|98=0|108=30|141=Y|553=029FCM001|554=029FCM001|10=123|8=FIX.4.4|9=189|35=AE|34=2|49=029|50=029B17|52=20190726-21:54:55.140|56=EXC|31=120|32=100|55=T24U19F|60=20190726-14:38:35.694|487=0|571=201907261654451_AE|762=AFIR|856=96|880=201907260000000001|552=1|54=1|10=233|8=FIX.4.4|9=59|35=0|34=3|49=029|50=029B17|52=20190726-21:55:25.830|56=EXC|10=073|8=FIX.4.4|9=59|35=0|34=4|49=029|50=029B17|52=20190726-21:55:55.831|56=EXC|10=078|8=FIX.4.4|9=189|35=AE|34=5|49=029|50=029B17|52=20190726-21:55:59.160|56=EXC|31=120|32=100|55=T24U19F|60=20190726-14:38:42.534|487=0|571=201907261654453_AE|762=AFIR|856=96|880=201907260000000002|552=1|54=1|10=237|8=FIX.4.4|9=59|35=0|34=6|49=029|50=029B17|52=20190726-21:56:29.831|56=EXC|10=082|8=FIX.4.4|9=187|35=AE|34=7|49=029|50=029B17|52=20190726-21:56:51.114|56=EXC|31=7|32=150|55=IBRH20F|60=20190716-16:42:11.915|487=0|571=201907261654455_AE|762=AFIR|856=96|880=201907160000000009|552=1|54=1|10=159|8=FIX.4.4|9=59|35=5|34=8|49=029|50=029B17|52=20190726-21:57:12.979|56=EXC|10=095|