8=FIX.4.4|9=110|35=A|34=1|49=037|50=037B18|52=20190809-15:07:32.641|56=EXC|43=N|98=0|108=30|141=Y|553=037FCM001|554=037FCM001|10=109|8=FIX.4.4|9=191|35=AE|34=2|49=037|50=037B18|52=20190809-15:07:33.751|56=EXC|31=3350|32=100|55=TRMH20F|60=20190809-15:57:11.699|487=0|571=2019080910073031_AE|762=AFFX|856=96|880=201908090000000007|552=1|54=1|10=121|8=FIX.4.4|9=59|35=0|34=3|49=037|50=037B18|52=20190809-15:08:04.560|56=EXC|10=072|8=FIX.4.4|9=59|35=0|34=4|49=037|50=037B18|52=20190809-15:08:34.560|56=EXC|10=076|8=FIX.4.4|9=59|35=0|34=5|49=037|50=037B18|52=20190809-15:09:04.562|56=EXC|10=077|8=FIX.4.4|9=59|35=0|34=6|49=037|50=037B18|52=20190809-15:09:34.562|56=EXC|10=081|8=FIX.4.4|9=59|35=0|34=7|49=037|50=037B18|52=20190809-15:10:04.561|56=EXC|10=070|8=FIX.4.4|9=190|35=AE|34=8|49=037|50=037B18|52=20190809-15:10:16.273|56=EXC|31=3350|32=80|55=TRMH20F|60=20190809-15:57:51.138|487=2|571=2019080910073038_AE|762=AFIX|856=97|880=201908090000000010|552=1|54=1|10=078|8=FIX.4.4|9=59|35=0|34=9|49=037|50=037B18|52=20190809-15:10:46.563|56=EXC|10=080|8=FIX.4.4|9=194|35=AE|34=10|49=037|50=037B18|52=20190809-15:11:07.720|56=EXC|31=120.544|32=65|55=T24U19F|60=20190809-15:58:06.215|487=2|571=2019080910073040_AE|762=AFIR|856=97|880=201908090000000011|552=1|54=2|10=221|8=FIX.4.4|9=60|35=0|34=11|49=037|50=037B18|52=20190809-15:11:38.562|56=EXC|10=114|8=FIX.4.4|9=60|35=5|34=12|49=037|50=037B18|52=20190809-15:11:49.563|56=EXC|10=123|