8=FIX.4.4|9=110|35=A|34=1|49=073|50=073X01|52=20190715-20:47:26.172|56=EXC|43=N|98=0|108=30|141=Y|553=073FCM001|554=073FCM001|10=121|8=FIX.4.4|9=59|35=0|34=2|49=073|50=073X01|52=20190715-20:47:57.150|56=EXC|10=083|8=FIX.4.4|9=59|35=0|34=3|49=073|50=073X01|52=20190715-20:48:27.150|56=EXC|10=082|8=FIX.4.4|9=59|35=0|34=4|49=073|50=073X01|52=20190715-20:48:57.151|56=EXC|10=087|8=FIX.4.4|9=59|35=0|34=5|49=073|50=073X01|52=20190715-20:49:27.150|56=EXC|10=085|8=FIX.4.4|9=59|35=0|34=6|49=073|50=073X01|52=20190715-20:49:57.151|56=EXC|10=090|8=FIX.4.4|9=59|35=0|34=7|49=073|50=073X01|52=20190715-20:50:27.150|56=EXC|10=079|8=FIX.4.4|9=59|35=0|34=8|49=073|50=073X01|52=20190715-20:50:57.151|56=EXC|10=084|8=FIX.4.4|9=59|35=0|34=9|49=073|50=073X01|52=20190715-20:51:27.152|56=EXC|10=084|8=FIX.4.4|9=60|35=0|34=10|49=073|50=073X01|52=20190715-20:51:57.150|56=EXC|10=117|8=FIX.4.4|9=60|35=0|34=11|49=073|50=073X01|52=20190715-20:52:27.151|56=EXC|10=117|8=FIX.4.4|9=60|35=0|34=12|49=073|50=073X01|52=20190715-20:52:57.151|56=EXC|10=121|8=FIX.4.4|9=60|35=0|34=13|49=073|50=073X01|52=20190715-20:53:27.151|56=EXC|10=120|8=FIX.4.4|9=60|35=0|34=14|49=073|50=073X01|52=20190715-20:53:57.151|56=EXC|10=124|8=FIX.4.4|9=60|35=0|34=15|49=073|50=073X01|52=20190715-20:54:27.151|56=EXC|10=123|8=FIX.4.4|9=60|35=0|34=16|49=073|50=073X01|52=20190715-20:54:57.152|56=EXC|10=128|8=FIX.4.4|9=60|35=0|34=17|49=073|50=073X01|52=20190715-20:55:27.151|56=EXC|10=126|8=FIX.4.4|9=60|35=0|34=18|49=073|50=073X01|52=20190715-20:55:57.151|56=EXC|10=130|8=FIX.4.4|9=60|35=0|34=19|49=073|50=073X01|52=20190715-20:56:27.151|56=EXC|10=129|8=FIX.4.4|9=60|35=0|34=20|49=073|50=073X01|52=20190715-20:56:57.152|56=EXC|10=125|8=FIX.4.4|9=60|35=0|34=21|49=073|50=073X01|52=20190715-20:57:27.162|56=EXC|10=125|8=FIX.4.4|9=60|35=0|34=22|49=073|50=073X01|52=20190715-20:57:58.153|56=EXC|10=130|8=FIX.4.4|9=60|35=0|34=23|49=073|50=073X01|52=20190715-20:58:28.152|56=EXC|10=128|8=FIX.4.4|9=60|35=0|34=24|49=073|50=073X01|52=20190715-20:58:58.152|56=EXC|10=132|8=FIX.4.4|9=60|35=0|34=25|49=073|50=073X01|52=20190715-20:59:28.151|56=EXC|10=130|8=FIX.4.4|9=60|35=0|34=26|49=073|50=073X01|52=20190715-20:59:58.151|56=EXC|10=134|8=FIX.4.4|9=60|35=0|34=27|49=073|50=073X01|52=20190715-21:00:28.151|56=EXC|10=119|8=FIX.4.4|9=60|35=0|34=28|49=073|50=073X01|52=20190715-21:00:58.152|56=EXC|10=124|8=FIX.4.4|9=60|35=0|34=29|49=073|50=073X01|52=20190715-21:01:28.152|56=EXC|10=123|8=FIX.4.4|9=60|35=0|34=30|49=073|50=073X01|52=20190715-21:01:58.152|56=EXC|10=118|