8=FIX.4.4|9=110|35=A|34=1|49=073|50=073X01|52=20190715-13:27:08.497|56=EXC|43=N|98=0|108=30|141=Y|553=073FCM001|554=073FCM001|10=131|8=FIX.4.4|9=59|35=0|34=2|49=073|50=073X01|52=20190715-13:27:38.489|56=EXC|10=097|8=FIX.4.4|9=59|35=0|34=3|49=073|50=073X01|52=20190715-13:28:08.488|56=EXC|10=095|8=FIX.4.4|9=59|35=0|34=4|49=073|50=073X01|52=20190715-13:28:38.483|56=EXC|10=094|