8=FIX.4.4|9=110|35=A|34=1|49=073|50=073X01|52=20190715-16:11:12.885|56=EXC|43=N|98=0|108=30|141=Y|553=073FCM001|554=073FCM001|10=123|8=FIX.4.4|9=59|35=0|34=2|49=073|50=073X01|52=20190715-16:11:43.825|56=EXC|10=083|8=FIX.4.4|9=59|35=0|34=3|49=073|50=073X01|52=20190715-16:12:13.823|56=EXC|10=080|8=FIX.4.4|9=59|35=0|34=4|49=073|50=073X01|52=20190715-16:12:43.824|56=EXC|10=085|8=FIX.4.4|9=59|35=0|34=5|49=073|50=073X01|52=20190715-16:13:13.825|56=EXC|10=085|8=FIX.4.4|9=59|35=0|34=6|49=073|50=073X01|52=20190715-16:13:43.824|56=EXC|10=088|8=FIX.4.4|9=59|35=0|34=7|49=073|50=073X01|52=20190715-16:14:13.824|56=EXC|10=087|8=FIX.4.4|9=59|35=0|34=8|49=073|50=073X01|52=20190715-16:14:43.824|56=EXC|10=091|8=FIX.4.4|9=59|35=0|34=9|49=073|50=073X01|52=20190715-16:15:13.825|56=EXC|10=091|8=FIX.4.4|9=60|35=0|34=10|49=073|50=073X01|52=20190715-16:15:43.825|56=EXC|10=126|8=FIX.4.4|9=60|35=0|34=11|49=073|50=073X01|52=20190715-16:16:13.824|56=EXC|10=124|8=FIX.4.4|9=60|35=0|34=12|49=073|50=073X01|52=20190715-16:16:43.824|56=EXC|10=128|