8=FIX.4.4|9=110|35=A|34=1|49=073|50=073X01|52=20190716-13:29:28.498|56=EXC|43=N|98=0|108=30|141=Y|553=073FCM001|554=073FCM001|10=137|8=FIX.4.4|9=59|35=0|34=2|49=073|50=073X01|52=20190716-13:29:59.478|56=EXC|10=101|8=FIX.4.4|9=59|35=5|34=3|49=073|50=073X01|52=20190716-13:30:27.485|56=EXC|10=092|