8=FIX.4.4|9=110|35=A|34=1|49=073|50=073X01|52=20190716-19:48:53.560|56=EXC|43=N|98=0|108=30|141=Y|553=073FCM001|554=073FCM001|10=132|8=FIX.4.4|9=59|35=0|34=2|49=073|50=073X01|52=20190716-19:49:24.527|56=EXC|10=096|8=FIX.4.4|9=59|35=0|34=3|49=073|50=073X01|52=20190716-19:49:54.528|56=EXC|10=101|8=FIX.4.4|9=59|35=0|34=4|49=073|50=073X01|52=20190716-19:50:24.532|56=EXC|10=086|8=FIX.4.4|9=59|35=0|34=5|49=073|50=073X01|52=20190716-19:50:54.527|56=EXC|10=094|8=FIX.4.4|9=59|35=0|34=6|49=073|50=073X01|52=20190716-19:51:24.528|56=EXC|10=094|8=FIX.4.4|9=59|35=0|34=7|49=073|50=073X01|52=20190716-19:51:54.528|56=EXC|10=098|8=FIX.4.4|9=59|35=0|34=8|49=073|50=073X01|52=20190716-19:52:24.528|56=EXC|10=097|8=FIX.4.4|9=59|35=0|34=9|49=073|50=073X01|52=20190716-19:52:54.529|56=EXC|10=102|8=FIX.4.4|9=60|35=0|34=10|49=073|50=073X01|52=20190716-19:53:24.529|56=EXC|10=132|8=FIX.4.4|9=60|35=0|34=11|49=073|50=073X01|52=20190716-19:53:54.527|56=EXC|10=134|8=FIX.4.4|9=60|35=0|34=12|49=073|50=073X01|52=20190716-19:54:24.527|56=EXC|10=133|8=FIX.4.4|9=60|35=0|34=13|49=073|50=073X01|52=20190716-19:54:54.529|56=EXC|10=139|8=FIX.4.4|9=60|35=0|34=14|49=073|50=073X01|52=20190716-19:55:24.528|56=EXC|10=137|8=FIX.4.4|9=60|35=0|34=15|49=073|50=073X01|52=20190716-19:55:54.529|56=EXC|10=142|8=FIX.4.4|9=60|35=0|34=16|49=073|50=073X01|52=20190716-19:56:24.528|56=EXC|10=140|8=FIX.4.4|9=60|35=0|34=17|49=073|50=073X01|52=20190716-19:56:54.530|56=EXC|10=137|8=FIX.4.4|9=60|35=0|34=18|49=073|50=073X01|52=20190716-19:57:24.530|56=EXC|10=136|8=FIX.4.4|9=60|35=0|34=19|49=073|50=073X01|52=20190716-19:57:54.530|56=EXC|10=140|8=FIX.4.4|9=60|35=0|34=20|49=073|50=073X01|52=20190716-19:58:24.528|56=EXC|10=137|