8=FIX.4.4|9=110|35=A|34=1|49=013|50=013B17|52=20190705-20:44:31.716|56=EXC|43=Y|98=0|108=30|141=Y|553=013FCM001|554=013FCM001|10=089|8=FIX.4.4|9=59|35=0|34=2|49=013|50=013B17|52=20190705-20:45:01.755|56=EXC|10=053|8=FIX.4.4|9=59|35=0|34=3|49=013|50=013B17|52=20190705-20:45:32.673|56=EXC|10=057|8=FIX.4.4|9=59|35=0|34=4|49=013|50=013B17|52=20190705-20:46:02.667|56=EXC|10=059|