8=FIX.4.4|9=110|35=A|34=1|49=013|50=013B17|52=20190703-21:16:40.018|56=EXC|43=Y|98=0|108=30|141=Y|553=013FCM001|554=013FCM001|10=082|8=FIX.4.4|9=59|35=0|34=2|49=013|50=013B17|52=20190703-21:17:10.966|56=EXC|10=055|8=FIX.4.4|9=59|35=0|34=3|49=013|50=013B17|52=20190703-21:17:40.964|56=EXC|10=057|8=FIX.4.4|9=59|35=5|34=4|49=013|50=013B17|52=20190703-21:17:59.962|56=EXC|10=071|