8=FIX.4.4|9=110|35=A|34=1|49=013|50=013B17|52=20190709-22:20:05.241|56=EXC|43=Y|98=0|108=30|141=Y|553=013FCM001|554=013FCM001|10=083|8=FIX.4.4|9=59|35=0|34=2|49=013|50=013B17|52=20190709-22:20:36.132|56=EXC|10=049|8=FIX.4.4|9=59|35=0|34=3|49=013|50=013B17|52=20190709-22:21:06.129|56=EXC|10=054|8=FIX.4.4|9=59|35=0|34=4|49=013|50=013B17|52=20190709-22:21:36.129|56=EXC|10=058|